:020000040000FA
:10000000D867002019F000005FE5010005F000004E
:1000100005F0000005F0000005F0000005F000000C
:100020000000000000000000000000007DF1000062
:1000300005F000000000000015F1000005F00000D0
:1000400001F3000001F3000001F3000001F30000E0
:1000500001F3000001F3000001F3000001F30000D0
:1000600001F3000001F3000001F3000001F30000C0
:1000700001F3000001F3000001F3000001F30000B0
:1002500001F30000CD10020001F3000001F30000E3
:1002600001F3000001F30000B710020001F30000E9
:1002700001F3000001F3000001F3000001F30000AE
:1002800001F3000001F3000001F3000001F300009E
:1002900001F3000001F3000001F3000001F300008E
:1002A00001F3000001F3000001F3000001F300007E
:1002B00001F3000001F3000001F3000001F300006E
:1002C00001F3000001F3000001F3000001F300005E
:1002D00001F3000001F3000001F3000001F300004E
:1002E00001F3000001F3000001F3000001F300003E
:1002F00001F3000001F3000001F3000001F300002E
:1003000001F3000001F3000001F3000001F300001D
:1003100001F3000001F3000001F3000001F300000D
:1003200001F3000001F3000001F3000001F30000FD
:1003300001F3000001F3000001F3000001F30000ED
:1003400001F3000001F3000001F3000001F30000DD
:1003500001F3000001F3000001F3000001F30000CD
:1003600001F3000001F3000001F3000001F30000BD
:1003700001F3000001F3000001F3000001F30000AD
:1003800001F3000001F3000001F3000001F300009D
:1003900001F3000001F3000001F3000001F300008D
:1003A00001F3000001F3000001F3000001F300007D
:1003B00001F3000001F3000001F3000001F300006D
:1003C00001F3000001F3000001F3000001F300005D
:1003D00001F30000A110020001F3000001F300008E
:1003E00001F3000001F3000001F3000001F300003D
:1003F00001F3000001F3000001F3000001F300002D
:1004000001F3000001F3000001F3000001F300001C
:1004100001F3000001F3000001F3000001F300000C
:1004200001F3000001F3000001F3000001F30000FC
:1004300001F3000001F3000001F3000001F30000EC
:1004400001F3000001F3000001F3000001F30000DC
:1004500001F3000001F3000001F3000001F30000CC
:1004600001F3000001F3000001F3000001F30000BC
:0C04700001F3000001F3000001F30000A4
:10048000064A074B5B7802604FF41A72C37100236F
:100490008280082203728271704700BF2FC600005D
:1004A000580A0020064A074B9B7802604FF490726E
:1004B000C371FF238280082203728271704700BFDC
:1004C000C7C10000580A0020F8B5C41D0028054621
:1004D00024F007040CBF0020204600F027FB071E75
:1004E00002DA6FF00B00F8BD0DB9FC42F9D4294EC9
:1004F0003189F0880331F37A0330B27A89B280B25D
:1005000009F076FE0028ECDB3C4431787378002D4E
:1005100004F10304194424F0030400FB01F10CBFAF
:100520000020204600F08CFC20440DB90028D8DBC8
:10053000B2780346B2B1F17CF37811441944FF2933
:10054000CFDC0330002DF289C9B220F003040CBFC8
:100550000020204600F0E4FC031EC2DB23440DB95A
:10056000002BBEDB317C81B1B27872B10733002D34
:1005700023F007040CBF0020204603F08FFE031E6B
:10058000AFDB23440DB9002BABDB002D0CBF1846AD
:100590000020A8E7580A00201FB572B6194BDD6A83
:1005A000E5B9BFF34F8F1849184BCA6802F4E062EF
:1005B0001343CB60BFF34F8F00BFFDE7B4FBF6F4EE
:1005C000D3B20132002CF9D103F110026A4402F8CF
:1005D0000C4C0A2233B901A8A847E2E704460022DE
:1005E0000A26EDE7013BDBB203F110040DEB040634
:1005F000B0FBF2F402FB1400303006F80C0C20467D
:10060000E8E700BF580A002000ED00E00400FA050A
:100610000C4B07B5DA7A68468DF801209A7A8DF886
:1006200000201A89DB88ADF80420ADF8023002F012
:1006300033FA18B1E8219C20FFF7AEFF03B05DF854
:1006400004FB00BF580A002038B5054668B308F01F
:10065000E5FE10B94FF0FF3038BD07F09FFBB0F555
:10066000FA7FF7D8134C1448E562002500F0DAF958
:100670002A222946204684F830500CF080FA0123C3
:100680006370A3701B23E380238140F20323638103
:100690001F23E38108232374EFF3108472B600F064
:1006A00015FD2CB962B62046D6E76FF01500D3E7EA
:1006B0002846D1E7580A00201106000010B500288E
:1006C00042D1244C94F83030032B3AD059B1002A4F
:1006D0003DD00239052937D8DFE801F00314283668
:1006E0002B2E137863700020FFF7EEFE0028B7BFB3
:1006F000012302236FF00B0084F83030A8BF84F888
:10070000303010BD137913B3537903B31188FB292B
:100710001DD81A2953881AD91B3BE02B17D8136808
:100720009288C4F806300C4B9A80DCE71378A370EB
:10073000D9E71388E381D6E71388FF2B07D8237402
:10074000D1E74FF0FF30DCE76FF02C00D9E76FF016
:100750001500D6E7580A00205E0A0020F8B50D46BD
:10076000064630B329B311F0070422D1124F97F88F
:100770003030012B02D16FF00B00F8BD032B02D1FA
:100780004FF0FF30F9E700F08FF80028F8D0284646
:10079000FFF79AFE0028EEDB0BF0AEFF3046214655
:1007A00002F000FAFFF734FF0323204687F83030C9
:1007B000E3E76FF01500E0E7580A002010B5074C9A
:1007C00094F83030032B03D102F004FA03F092F8CE
:1007D00009F004FE002084F8300010BD580A002003
:1007E00050B1074B03F1140253F8041B934240F835
:1007F000041BF9D1002070476FF01500704700BF4F
:10080000BC3D0200074B10B593F830403CB902F0F4
:1008100093F90120044900F081F9204610BD4FF002
:10082000FF30FBE7580A0020A5040000074B10B575
:1008300093F830403CB902F093F92046044900F0A7
:100840006DF9204610BD4FF0FF30FBE7580A00203D
:1008500081040000054B10B593F830401CB90AF034
:1008600040FD204610BD4FF0FF30FBE7580A002046
:10087000054B10B593F830401CB90AF035FD204601
:1008800010BD4FF0FF30FBE7580A0020026800203F
:10089000014B1A60704700BF8C0A0020014B1B6897
:1008A000184700BF8C0A0020024B1868003818BF98
:1008B000012070478C0A00202DE9F7430446264E9C
:1008C000071D2548376003F02DF80228054607D19B
:1008D0002149204609F035F8284603B0BDE8F083E9
:1008E0000428F9D13378072B18D13E2000F04AF8BC
:1008F00078B9F37801A93279684643EA0223ADF862
:10090000003009F06BFA0028DBD053210820FFF7F4
:1009100043FE052000F076F80028EAD03146204654
:1009200009F047F8B0F5817F01D37221EEE7002886
:10093000C7D094F8008094F80290404600F022F866
:100940000028BED0B8F13E0FC6D1484600F05AF894
:100950000028C1D1B5E700BF900A0020074B4FF037
:10096000FF3141F6FF72C3E9001205490022C1E9D7
:1009700000221F21C3E90212704700BF400000207F
:10098000D40A00203F280CD801380B4BC0F3421288
:1009900000F01F0053F8223023FA00F000F00100AD
:1009A0007047FF2806D04038044BC0F3421200F0D5
:1009B0001F00EFE70120704740000020D40A00200C
:1009C000074B0146006849681A4603C240F48C226E
:1009D0001A6041F0107242F4FF625A60704700BF23
:1009E000400000200246024B0068516803C3704774
:1009F000D40A00200246024B0068516803C37047C6
:100A0000480000200138064BC0F3421200F01F00DE
:100A100003EB82039B6823FA00F000F001007047AB
:100A200040000020014B1860704700BFDC0A002026
:100A300010B5FFF793FF0AF0E4F8034B04461B6878
:100A400003B19847204610BDDC0A002070B50C8821
:100A5000C27CA6B2C4F30E04931C058804F11802EC
:100A60001D44825AADB21A4443882A44013AB2FB6B
:100A7000F5F202FB054292B29342044B8BBF334026
:100A8000B34313439BB20B8070BD00BF0080FFFFD8
:100A90004A1E062A08B50346084604D84FF4D17109
:100AA0001520FFF779FD094A914202D940F2A311BE
:100AB000F6E711B903B1196008BD2BB11B6800221C
:100AC000C3E901211A1D1A600430F5E7FAFFFF7F20
:100AD00010B5114B00EB41041A786389B3FBF2F3B4
:100AE00003FB0223013A1A44B2F5706F027928BF62
:100AF00000231A448378B2FBF3F0194403FB10205F
:100B0000091AB1FBF3F003FB101313446FEA4343DC
:100B10006FEA5343638110BDE00A0020024B03EBF0
:100B200080035960704700BFE00A00202DE9F04FB4
:100B300010F0070A85B0054604D040F26111172075
:100B4000FFF72AFD544F04464FF0010B07F10C0646
:100B5000B146B04657F8043B8DF80BA03BB101A855
:100B600098479DF80A30082B01D9E821E7E79DF85E
:100B70000B1081BB05B13160B94506F10406E9D11E
:100B80002DB30023DFF814E102221E468EF8003058
:100B900058F82200013A60B190F804A08178BAF1C7
:100BA000FF0F64D14FF000078E4207713CBFCEB2F9
:100BB0000123511CECD10BB18EF80060022640F6E7
:100BC000FF6A58F82670002F63D1013EF9D2601BEE
:100BD00005B0BDE8F08F9DF80AC04A1DBCF1020FB8
:100BE000E64604EB420438BF4FF0020E53000EF10C
:100BF000FF300444CEF100002040BDF808406444BA
:100C0000CCF1000C013C04EA0C04B4F5803F01D3A4
:100C1000F82194E775B1C31A336099701C8083F88A
:100C200003B09DF80C201A71019A4FEA124C1A81F8
:100C3000A3F806C004FB01049EE758F82C90B9F114
:100C4000000F06D099F804B0D34504BF99F802907C
:100C50004F440CF1FF3CBCF1000FEEDA3944FF29A0
:100C6000A2D90BB18EF8006040F2271167E79446D5
:100C70000027F0E707EB410309F101093846A3F823
:100C80000AA0FFF725FF5FFA89F1BB788B42F1D804
:100C90009BE74FF00009F6E7E40A0020E00A002095
:100CA000F8B54FF6FF7305460380184B03EB81033D
:100CB0001869B8B186780379B3FBF6F206FB1233F4
:100CC000DBB219460A1D00EB4202B2F902705488E9
:100CD000002F09DB0131B1FBF6F206FB1211C9B29C
:100CE0008B42EFD10020F8BDFF29FBD0C4F30E03E7
:100CF000C4782B8024B94FF4D5711720FFF74CFC32
:100D00005380BDE8F84009F052BA00BFE00A002065
:100D10001D4B03EB810370B51C69054644B3030406
:100D200004D54FF4DC711720FFF736FC014620464E
:100D300009F020FAFF28014604D02046BDE87040A3
:100D400009F035BAA078B5FBF0F300FB1353DBB222
:100D500019460A1D04EB4206B6F90260002E09DBB3
:100D60000131B1FBF0F200FB1211C9B28B42F0D19C
:100D7000002070BDFF29FBD08B4204EB42021CBF58
:100D80000023E3705580D8E7E00A0020094B03EB0D
:100D90008103014610B51C69204609F0EBF9FF28D4
:100DA000014604D02046BDE8104009F000BA0020FA
:100DB00010BD00BFE00A0020F8B5104B074603EB5A
:100DC000810301461C69204609F0D4F9FF28054635
:100DD00011D0E688238953EA064606D0014620460C
:100DE00009F0E5F901463846B04720462946FFF7A5
:100DF0006FFE0020F8BD0520FCE700BFE00A0020E0
:100E000038B50E4B0446827903EB8203186908B9A2
:100E1000052038BD8278E1799142F9D24B1CE3710B
:100E200000EB41035D89B3F90A30002BF3DBA580A9
:100E300009F0BDF920600020EBE700BFE00A0020C8
:100E400070B5044610F003000E4603D04E21182062
:100E5000FFF7A2FBFFF71CFE054624B1034831460D
:100E60000460FFF715FE284670BD00BFFC0A002095
:100E70002DE9F14FDFF870B01E4607460D46DBF84E
:100E8000003090469DF828A09DF82C901BB9602159
:100E90001820FFF781FB52460921404608F0ECFF7D
:100EA0004A4684B20921304608F0E6FF81B2DBF8F9
:100EB0000000214409F033F9386018B9286001B006
:100EC000BDE8F08F04445346414609222C6038683F
:100ED00008F096FF4B4609223146286801B0BDE86C
:100EE000F04F08F08DBF00BFFC0A002070B50E4621
:100EF000044608F0D4FF0546304608F0D0FF044B06
:100F00002A1821461868BDE8704009F02CB900BFC6
:100F1000FC0A0020014B186809F0F5B8FC0A002013
:100F20001F2AF8B5044613460ED89200033222F069
:100F30000303B3F5803F2DD2184DACB1A00710D0FC
:100F40005F210920FFF728FBFF2B4FEA420204D95B
:100F5000FF339A42A8BF1A46E8E77C2AB8BF7C2232
:100F6000E4E729706C602B8122F00302282301271B
:100F7000120403FB01F06B680025120CEEB28E42E6
:100F800000D3F8BD14B126181F705E6010440135FF
:100F90002833F3E74FF0FF30F3E700BF000B0020EA
:100FA000144A002138B553681478C8B2844203D873
:100FB000AB210920FFF7F0FA1846013128330578F4
:100FC000002DF2D000218170012412898161051D5C
:100FD00044709208C16100F12001446821F8022B9D
:100FE000994245F8044B1444F8D10023436103703F
:100FF00038BD00BF000B00202DE9F8434B78804638
:101000000C4602F0040602F0FB07D3B1DFB12E4B11
:10101000D4F804901D89B7BB0123AD084A46211DB1
:10102000637004F1280004F12003A761E76123F84D
:10103000025B984241F8042B2A44F8D100236361F3
:1010400001E0002FE3D0FF23A370002E18BF02267B
:10105000A3191B7D032B03D1022F1CBF0136F6B24F
:10106000A31901221A7506F10C02002304EB86066F
:1010700024F812307268A3704046C8F80020A8F81F
:101080000430BDE8F883002114226170A0180BF031
:1010900076FDB5F5FF7F0FD26B08ED1AADB209EB07
:1010A0000502C4F804902584A2606384C4F80C90FF
:1010B000A5842261E384C6E7B5F5EE6F4FF0FF0328
:1010C000EBD940F27265EAE7000B00201E4B0122CB
:1010D0004FF0FF3000211B685A60C3F80803C3F8C3
:1010E0000015C3F80425194B1B685A60C3F80803A0
:1010F000C3F8001540F6FE71154B1648C3F80815E5
:1011000001680BB2002B0BDB01F01F015B098A4069
:101110002033114941F82320BFF34F8FBFF36F8F66
:10112000026813B2002B09DB01215B0902F01F02E8
:10113000603301FA02F2084941F82320044B40F6DB
:10114000FE72C3F8082570479C16002098160020F0
:1011500000200850B016002000E100E00A460648D2
:10116000192302F8033BC368C1F8033003695360D5
:1011700043699360704700BF100B0020024B5A8CEC
:1011800002435A845B6A1847100B0020014B002170
:101190005B6A1847100B002010B5154C05F0D6FC03
:1011A00005F0C8F8208DFFF7F1FF237E63B12246DA
:1011B000104904F1190052F80C3BE3606368536076
:1011C000A36893600AF084FC0B4B228D93E8030024
:1011D00003F0EEF8236B188803F014F8A36B94F86F
:1011E000341094F835009847002384F83C3010BD43
:1011F000100B00205D1100003C0B0020034B93F806
:101200003C300BB1FFF7C8BF704700BF100B002088
:1012100070B51D4C0646636C256B236495F88C30C5
:1012200094F848000BB10430C0B295F869102EB99B
:10123000FF2803D195F868308B4201D005F048FBB8
:1012400095F88C30D3B1E06C05F038FD0123E16CEA
:1012500084F87030206CD5E93A23C4E9182304F0EF
:1012600081FF16B9304605F06BFD95F86810002037
:1012700005F0B0FD022384F83C3070BD206C05F011
:101280001DFD05F057F8ECE7100B002008B5094BE1
:1012900093F83C20022A04D040F231212720FFF7A6
:1012A0007BF9DA7A42F00102DA72BDE80840FFF712
:1012B00073BF00BF100B002003280B4B10B5044672
:1012C00005D19A6FD278022A01D1002010BDD86FC3
:1012D00008F064FE0028F9D1032CF6D001F052FE8C
:1012E00080F00100C0B2F1E7100B00202DE9F043BF
:1012F000454C85B006460F4694F83C30012B5FFA0A
:1013000083F904D040F2DC412720FFF745F9256B33
:1013100002A8A16F09F064F895F87C309DF8088068
:101320003BB10021042085F87C10FFF727FF85F8EA
:101330007E90B8F1030F61D195F882301BB9A16F8F
:101340000220FFF71BFF032300E0012385F8823012
:1013500095F88C30ABB1236B012294F8488084F867
:101360007020D5E93A01C4E9180193F8690009F041
:1013700048F800220346254900920220424604F024
:101380009BFE26B105B0BDE8F043FFF705BF002F77
:10139000F8D0D4F88030304698470028F2D094F83E
:1013A0003430002BEED194F88430DD06C3F3001006
:1013B00005D5A36F187800F00300FFF77DFF636C7D
:1013C000D4F888201B78C3F300132AB9B4F88C2012
:1013D00013B1B2FA82F35B09628C910709D5A36F4E
:1013E000DB78022BCED1002005B0BDE8F043FFF73B
:1013F0000FBF002AC6D10343F5D1C3E79DF80C30D7
:10140000002BA2D00223A1E7100B0020600B0020CC
:1014100010B5094CD4F8883023B940F2CE412720CA
:10142000FFF7BAF8B4F88C201846216C033208F0A4
:10143000C9F9206410BD00BF100B0020064B10B589
:1014400093F83C2002F0FF0422B91C7602F0A8FFBA
:10145000204610BD0C24FBE7100B00200A4B0B4A62
:1014600070B506460D461A60FFF7E8FF18B1ED218A
:101470002720FFF791F8064C012104F18E000AF0B5
:1014800097FA6664E56470BD88000020A01C000027
:10149000100B0020024B012283F8B020704700BFE0
:1014A000100B00202DE9FF417A4C02AE0A9F86E81E
:1014B000030094F83C1001F0FF0511B90AB103B123
:1014C00027B94FF4BE712720FFF766F896E80300AE
:1014D00004F12C0C84F8B05084F8345004F1500618
:1014E00084F8B15084F8355084F8B25084F8B35081
:1014F00065842585C4F880306262A7638CE80300A8
:10150000256B05F017FA04F015FF95F9700005F545
:10151000807705F069FA686A05F0C2FBE86905F0B2
:1015200069FA95F89C0005F06FFA95F86920C421D6
:10153000012005F0F7FA584B186805F0B7FB2B6946
:10154000E3676B69C4F8B43005F1F0031868083339
:1015500053F8041C3246BB4203C21646F6D1596802
:101560004E4A236BD5F8000103C293F88620A2F1FE
:101570002501012993F868100E4603D993F88700D6
:1015800025285FD193F83E322BB1012E03D0012BD9
:1015900014BF0226012605F13007314638460AF00D
:1015A000D4FA31460AF06FF8AB8F95F86910834290
:1015B00028BF0346384684F8B8300AF0B6FA95F8E2
:1015C000691095F88C600429B5F8448008BF0321A0
:1015D0000AF059F80EB9043080B2404595F88C30C5
:1015E00028BF40465FFA80F884F8B98084F84880C4
:1015F00093B1012395F86900D5E93A6784F8703012
:10160000C4E9186708F0FDFE002203462449009251
:101610000220424604F050FD0120FFF7F9FD0023AF
:1016200023606360A360B5F8803063802B882380DB
:1016300095F89C302371EB6E0BB101221A6004B057
:10164000BDE8F081203A012A0CD8232893F82621FE
:101650000AD012F0010319D192079CD5012918BFB5
:10166000022698E723280DD193F8262193F86130BC
:10167000134013F001020BD19B078CD5012908BF41
:101680000E46ECE7032908BF042684E71E4682E7DE
:10169000164680E7100B002088000020780B002001
:1016A000600B002008B50C4B93F83C201AB9BDE83C
:1016B0000840FFF771BD93F83C20022A04D040F2A5
:1016C00013212720FEF768FF1B6BD3F8B001BDE89C
:1016D000084005F00DBB00BF100B0020014B187631
:1016E000704700BF100B0020014B93F8B200704709
:1016F000100B0020024B188DC0F3C020704700BFB4
:10170000100B0020014B93F8B1007047100B002024
:101710002DE9FF41324C03460E4602A8216C256B91
:1017200008F05EFE13F001089DF80C7003F0020053
:101730002BD0002384F8BA3090B1FFF769FE0DF189
:10174000020201A9D4F8B40008F0D3FC019808F013
:10175000B6FC012230603946D4F8B40008F05EFCD3
:10176000B8F1000F0ED0D5E93A32013342F1000250
:10177000C5E93A3295F88430012B0CBF00230123D0
:1017800085F8843004B0BDE8F08194F8BA30032BBA
:1017900020D801A252F823F039170000A917000041
:1017A000C3170000C31700000028EBD0FFF730FE7E
:1017B00000223946D4F8B40004B0BDE8F04108F086
:1017C0002DBC0028DED0D4F8B40004B0BDE8F04150
:1017D00008F08BBC40F27A412720FEF7DDFE00BF07
:1017E000100B00202DE9F04F0023A84C89B0804653
:1017F0008A46276BCDE9043394F83C30022B04D0A1
:1018000040F25F512720FEF7C7FE238D590606D40C
:101810004020FFF7BBFC238D43F040032385216C60
:1018200006A808F0DDFD97F88C30B8F1000F00F045
:10183000C9809DF819B09DF81C507BB104F088FD5B
:1018400060B95DB197F884305B4507D1012384F816
:101850003530FFF7A1FC09B0BDE8F08FA9B2A4F8BC
:101860008C10F1B1D4F8B40008F0B9FBC4F88800CA
:10187000238D9DF81A2043F40073238597F8833055
:101880009A4277D0266B96F88230002B3ED0022BFE
:1018900011D104A9E06F08F04BFB28B940F21441C4
:1018A000B0E7C4F88810E3E7D6E93832013342F1F3
:1018B0000002C6E93832002196F87E3086F88210A0
:1018C00023B1102086F87E10FFF758FC96F87D3083
:1018D000A3B14FF0000986F87D9001F03DFB10B9EF
:1018E00040F22B418EE749460820FFF747FCD6E936
:1018F0003832013342F10002C6E9383296F88330BB
:10190000012B0CBF0023012386F88330238D4FF079
:10191000000943F40063238597F884305B4527D1A1
:101920009DF81830266B022B26D88BB385B3238DF8
:1019300096F88C6043F48053238504F07FFF0428DD
:1019400094F8B93006D1002E14BF1B221F229342F7
:1019500028BF1346AB422BD3D4F88850002D3FD07C
:1019600094F8B030002B00F08E802020FFF70EFCA2
:10197000002535E0C146CFE7032B09D1238D012097
:10198000216C43F4805386F87C002385FFF7F6FB37
:1019900096F88430013B18BF012386F88430FDB1EE
:1019A000D6E93A32013342F10002C6E93A32DFE7C2
:1019B00094F83430012043F0100384F8343006F0FA
:1019C0008DFAD5E70BB104F0D7FC94F8B1300025BF
:1019D0000133A94684F8B130238D43F48063238515
:1019E00097F88B308BB1002697F86800D7E9382339
:1019F00084F87060C4E9182308F003FDFB22034655
:101A000023490420009604F057FBBAF1000F41D19E
:101A1000628C94F8B130120703D5A26FD278022AF3
:101A200038D0012B36D8D4F880300120984788B3BD
:101A300094F834A0BAF1000F2CD11DB105A90120F2
:101A4000FFF766FE266B002396F88C208DF80D308C
:101A500094F848300AB10433DBB2FF2B96F86810D3
:101A600003D196F869308B4202D0FF2004F030FF9A
:101A700096F88230032B00F2F780DFE813F0550070
:101A80008500DC00ED004546AAE700BF100B0020F2
:101A9000600B002005F0BEF9002D00F0F18005A9D3
:101AA0000320FFF735FEB9F1000F0DD0B4F8072081
:101AB000B4F805301343B7F8802013431EBFB4F8C1
:101AC00009300133A4F80930B8F1000F00F0DA80D2
:101AD000B4F805300133A4F80530002384F8B130A0
:101AE0006B4802F07DFB049830B108F0E8FA216BF6
:101AF0000022027201F05AFF059B33B1216B0022D4
:101B00001A720C22059801F01FFF002D7FF4A1AE80
:101B1000238D1B063FF59FAE8020FFF737FB238DFB
:101B200043F08003238596E694F8B8305948ADF821
:101B30000E30A6F8583001F0FFF950B1A16F4FF404
:101B40008070FFF71BFB012386F87D3084F8B330EB
:101B50001CE00DF10D020DF10E01E06F08F0C6F969
:101B6000A06788B196F8C73073B99DF80D302BB9CE
:101B7000038001218370A06F09F01AFFA36FBDF8E5
:101B80000E205A700123E1E7434BA367A16F96F83B
:101B900083300878DB0003F0080200F0F30300F064
:101BA0000300134396F88420920002F004021343CA
:101BB00023F010030B70FFF77FFB0028A06F18BF06
:101BC0004FF0100A03784AEA030A80F800A096F85A
:101BD0008B30002B4BD04378002B48D0E06C05F0C5
:101BE0006DF80022D6E9380184F87020C4E91801A4
:101BF000E16CA06F05F044FA18B9A16FE06C04F035
:101C0000B1FA96F86910012005F0E4F8A26F0123FB
:101C1000118884F8B230A4F8841091781F4A84F8AF
:101C20003C309170002D3FF43EAF05A90220002505
:101C3000FFF76EFD37E7B6F858300DF10D020DF1E4
:101C40000E01E06FADF80E3008F050F9A0670028E3
:101C500098D140F2D121D5E50E4801F06DF9002868
:101C600090D140F2DB21CDE540F2E921CAE505F053
:101C700025F804F05FFB0021A06F0AF064FDC0E7C7
:101C8000012510E7B4F807300133A4F8073027E73F
:101C90003C0B0020880B00209E0B0020940B0020A2
:101CA0008D120000E5170000ED120000FD1100008C
:101CB0002DE9F04F04468BB01F460E46904690F833
:101CC000699009F058FB94F89F310B2B04D940F22E
:101CD000FB310620FEF760FCBA4A32F8135094F844
:101CE00087300544039388F00103ADB20493B8F143
:101CF000000F30D194F8DC31032B2CD1039B0D2B3A
:101D000029D1B4F83C32B34225D1D4F8E43120468D
:101D1000B4F8B421C4F8D031A369C4F8D431B4F80C
:101D20002A321344C4F8D83104F09AF8D4E9902345
:101D3000A262B4F83E22A361A285D4F848222262AE
:101D400041F64B5293428CBF0023012384F872303A
:101D5000022384F8DC31B4F8280204F5FC7AB4F8E4
:101D600080B0301AA6EB0B0B00B20FFA8BFB0028E9
:101D700012DA5846D4E98423C4E98823012294F86E
:101D8000DC31DFF84482032B00F27281DFE813F0CC
:101D90000600FB0052001E013A46F0E70121002038
:101DA00009F098FC8146A06A2946484405F0AAFF3C
:101DB0002946C4F8E001A06905F0A4FF07A9C4F80A
:101DC000E40108A805F02EF8079BD4E988010093E8
:101DD000DDE908230AF0B3FD0590204608F035FB45
:101DE000A16AD4F82C2294F869008D1805F042F904
:101DF000D4F8E01100F52240BB3D059BB1306D1ACF
:101E000030314D44ED1A4FF47A73B0FBF3F0A38DEB
:101E10002D1A94F8690003EB410108F002FBD4F895
:101E20002C32C8F80000EB1ACC2B5AD840F2DE4115
:101E300030204FE7A36A2946D4F8D401184405F0AE
:101E400061FF2946C4F8E001A06905F05BFFC4F812
:101E5000E401204608F0F9FAB4F8B431A56AD4F8E0
:101E6000D491002B40F08A80002F00F08780A94495
:101E700094F8690005F0FEF8D4F8E051A9F1BB0927
:101E8000834694F86900A9EB0509D4F81852D4E9FF
:101E90008423A944A9EB020905F0ECF84FF47A7306
:101EA00000F2E7350BF52240B5FBF3F5B130A9445C
:101EB000B0FBF3F0A9EB0005D4F8E011D4F8D03171
:101EC000D4F8D821303194F8690002FB0311A38DB6
:101ED00003EB410108F0A5FA0123C8F8000084F8DB
:101EE000DC31A3694FF00009D4F8E42104F130009B
:101EF000A3F5A27384F8F8919B1AD8F800209342B6
:101F000028BF13469846C4F8B031D4E988325B192B
:101F100042F10002C4E9823209F005FEB4F8A011D2
:101F2000A4F8286240448E1B84F80092C4F8FC0197
:101F300036B2D4E982234E45C4E98823C4BF0223C4
:101F400084F80032039B0D2B00F09580002F40F0A9
:101F5000938094F8DC31002B00F0AB80A1695046EF
:101F6000D4F8E431C91A09F05DFB80B2002800F012
:101F7000A080149B03B118800120A9E04D44D4F83F
:101F8000E0012D1A98E7D4F8D811B4F8B431D4F898
:101F9000E421A5699B44CB43AD1A9B44D4F8E031BE
:101FA0004543D4F8D001303300FB0133A18D94F8C0
:101FB000690002FB0B3301EB430108F032FAC8F869
:101FC00000008EE7D03D0200CC0B0020D4F8E431B5
:101FD000A569ED1A94F88630252B00FB05F503D092
:101FE00094F88730252B09D1B4F83C32F31A1B043E
:101FF00004D494F83F32002B18BF994652B3B4F87A
:10200000B4313BBBD4E98423D4E9860182428B41BD
:1020100002D340F232510BE794F8690005F02AF838
:10202000D4F818220590BB3AD4E98401101A05446B
:1020300094F8690005F01EF84FF47A7200F2E73068
:10204000059BB0FBF2F0054403F52240B130B0FB34
:10205000F2F02D1AB4F8B4114846D4F8E4315944DA
:1020600059433031490008F0DCF91B4B186038E760
:1020700040F24A51DCE6E7B1B4F8C81111B3B4F844
:10208000CA2194F8CC31501CA4F8CA2102FB0333B6
:1020900099420EDD94F800325BB10023A4F8CA0126
:1020A00084F8003201F004FD00F00700013084F8EC
:1020B000CC01514694F8F30106F09AFD20B940F2A4
:1020C0009351B5E60A46DCE7049B84F8F031002022
:1020D0000BB0BDE8F08F00BFCC0B00202DE9F04124
:1020E00004460D46164690F8F03003F0FF071BB18A
:1020F0000C273846BDE8F0810146454806F0D8FC7B
:1021000020288046F4D05822394604F1C8000AF04D
:1021100036FD84F8C880C4F8CC50FF2384F8F03032
:1021200035B101F0DDFC00F00700013085F8CC018D
:1021300002234FF00008A4F8003184F8F88005F07D
:1021400037FE00F1490520460AF024F90146ADB2F8
:1021500070B309F010F900F5CD61304689B205F091
:10216000D1FD3044AE3EC4F8FC000AF078FB2818DC
:10217000A4F8268041F10001C4E94201012084F85D
:10218000D0000AF0BDF9361AC4F8D4604FF0FF321F
:102190006FF00043C4E9442304F1F80194F8C80047
:1021A00006F026FD48BB40F2CD113020FEF7F4F9D1
:1021B0002046DFF860800AF010F8AE30C4F8FC006A
:1021C000B8F8040048B1E08C38B101F089FCB8F8E7
:1021D0000430B0FBF3F202FB130005440AF03FFBAE
:1021E0002D1841F10001C4E94251002ECED07519DD
:1021F00041F10001C4E94451CEE7D4E94223002172
:102200002046C4E93823C4E93A230AF0E0F870E72D
:10221000F1A60000CC0B0020F0B5002385B0CDE97D
:10222000003301238DF806306846FEF7E9FD70B1F2
:102230001D4E01230027B371CDE9027702A8FEF7F6
:10224000DFFD0546C8B10023B37105B0F0BD0098AD
:1022500008F008FBE8E790F8F30106F0BDFD94F8FC
:10226000F30106F0ABFF94F8F30184F8DC5106F0BB
:1022700045FC202384F8F331DEE7029B002BDDD000
:1022800093F8F321202AD9D018884FF6FF7398428B
:10229000D9D02946FEF77AFD04460028DBD14FF459
:1022A0009B713020FEF778F9CC0B0020044B002204
:1022B000DA719A7142F210729A80FFF7ADBF00BFD7
:1022C000CC0B0020014BD871704700BFCC0B002015
:1022D00008B504F0B9FA044B9A6882422ABF98798B
:1022E000002080F0010008BDCC0B00202DE9B74193
:1022F0000446062972D8DFE801F0042815252C31A0
:102300006C00384B9B7903F0FF025BB9009201230C
:10231000B0F8A411FFF7CCFC38B140F2DC613020FA
:10232000FEF73AF9042384F8DC3104F065FC06F08A
:10233000D7FA0023B4F88020A4F82A32A4F8EE21BA
:1023400084F8F13103B0BDE8B081032380F8DC31BB
:10235000F8E70AF0EEF9C4E98601F3E78569D0F8F9
:10236000E431DFF880809D4288BFED1A98F807308D
:1023700098BF00251BB9036B9D4228BF1D46D4F8AA
:10238000B07104F1300009F0CEFB0744022006F0E2
:1023900071FE0221ED1B25EAE575854228BF054641
:1023A000284606F0ADFE00B92F4401234FF4807299
:1023B0003946204609F007FCD4F8B031C8F80800C7
:1023C000A069184406F028FE0028BBD140F28A31EB
:1023D000A5E703B0BDE8B04108F037B84FF4F361AA
:1023E0009DE700BFCC0B00202DE9F84306460C46C4
:1023F00015467ABB04F028FA84F8D0500746D4E991
:10240000428984F8F0500121D4F8CC0000F0F4FFA8
:10241000D4F8CC00C0E9848994F8C830C0F82C7294
:1024200080F8F331C0E9888908F014F920B140F24E
:102430001C713020FEF7B0F804F0DEFB06F050FA15
:102440003246074994F8C80005F038FD28B940F233
:10245000AB71EEE740F2C271EBE7BDE8F88300BF75
:1024600073A40000014B9880704700BFCC0B002084
:1024700010B501210020FEF789FC044670B9012146
:10248000FEF746FC044620B940F291313920FEF7B0
:1024900083F8034B93F9061009F067FE204610BD40
:1024A000D80B002008B509F070F800F0B1FE00F07C
:1024B000C1FB09F0E5FA01F031F801F001FF00225B
:1024C000084B1B214FF4A4701A60074B98801A80A8
:1024D00059800648064B186099805A745A829A822D
:1024E0009A7508BD8C000020D80B002003021B0049
:1024F00004100020044B41F64C52C3E902221B2277
:102500001A74FFF7CFBF00BF041000202DE9FF4170
:10251000344D0446AB680363334B836108F0D9F94B
:10252000064600F077FB2B7C10F0200F668784F8BE
:1025300038302E4B0EBF1B22AA8869881B6814BF37
:10254000A4F85A10A4F85A20A4F85C201BB194F9FE
:10255000701020889847AE7CEF7CB5F8148016B9CF
:1025600000F05EFB064687BB00F05AFB074676B3D9
:1025700068B303A920468DF80C608DF80D70ADF896
:102580000E8009F0A3F8012369786A8804F110002D
:10259000E385AB88033201910333297892B29BB271
:1025A000009104F11401FEF763FC236913B940F2B2
:1025B0004E6114E0636913B940F24F610FE00020EF
:1025C00004B0BDE8F0810920FAE7002ED1D1002146
:1025D0002088FEF7F1FB0028F5D040F22461392075
:1025E000FDF7DAFF0410002000093D0090000020F4
:1025F000F7B505460E4609F0EBFD002874D02846D5
:1026000009F0C8FE40B1B6F80130013B7F2B03D979
:102610001224204603B0F0BD284609F0BFFE08B9D9
:102620000C24F6E7284608F009FA0028F8D12846D5
:1026300009F08CFD04460028F2D1284602F00CFB7C
:102640000028E5D042F21073B6F80170F178284600
:102650005F4309F08BFE284609F094FE014658B905
:102660003A462846FFF73AFD04460028D1D041F605
:102670009F313920FDF790FF21460DF10600FEF74E
:102680000FFB064670B3214600F0B6FEBDF80630DB
:1026900028463146338009F08BFE284609F084FE37
:1026A000A0B9296A284609F081FE01463046FFF7A5
:1026B0002DFF04460028ACD13A4631462846FFF7A4
:1026C0000DFD044620B141F6C231D2E70121EDE70C
:1026D000064B9B68002B9CD0024606F58D71304658
:1026E000984796E70D2494E7422492E7D80B002000
:1026F000024B1B6803B118470C2070478C00002068
:10270000034B5A8802801B7883700020704700BFFB
:102710000410002037B5837805461A2B09D8042BFE
:1027200005D9012202FA03F3134A134205D11224F8
:102730001AE0292B01D03B2BF9D12888B0F5706F16
:10274000F5D2694608F061FF88B9019B93F818211A
:1027500002F0FF046AB9AA7883F81921FF2283F8EE
:102760001821684609F067F9204603B030BD0224FD
:10277000FAE70C24F8E700BF2000380438B50478E5
:10278000427804F00103857804F0020452EA030160
:1027900001D1112038BDBCB9002DFAD0002B08BFE3
:1027A000144601E000242546204608F087F9002859
:1027B000EFD0284608F082F90028EAD0054B002027
:1027C0009C74DD749882E5E7002BEBD114461D461E
:1027D000EAE700BF0410002013B50088694608F03E
:1027E00014FF18B10224204602B010BD019A92F8DD
:1027F000DC31DBB292F8A820002AF3D113F0FB0FF2
:10280000F0D0019890F82A310BB13A24EBE790F818
:10281000D23003F0FF04002BF7D190F8C9309B07AA
:1028200006D1FF2380F82A31684609F004F9DAE777
:102830000249CA3009F04CF9D5E700BF4BC000008F
:10284000F0B5077885B004460D46EF2F03D9122561
:10285000284605B0F0BDB0F80130ADF80C309DF958
:102860000C209DF80C30002AF1DB9DF80D2092071A
:10287000EDD1DE063FD4980603F0030238D5002AD6
:10288000E5D11907E3D463781A0711D42179E278E6
:10289000E07942EA0122617942EA0142A17941EA02
:1028A0000021207A41EA00418A42D0D81F2ACED99D
:1028B000627A013A062ACAD8A27A032AC7D813F044
:1028C000040102D1023A012A03D8E27A012ABED8D1
:1028D00011B9A27C032ABAD813F01001227D19D0B5
:1028E000012AB4D1227E012AB1D8B1B91125AFE7AE
:1028F000032AC6D1ABE713F0600FA8D103F00F0293
:1029000003F00703052BBED0931E012BBBD9002A71
:102910009DD1B8E7022AE5D199E7DB0713D46378A4
:10292000227D03F01803082B12D1022ADED1BFB298
:1029300001213846FEF72AFA064678B108F07EF8FB
:10294000B8B10C2584E700F027F90028E7D1CDE7DE
:10295000022AECD0237F002BE9D0C7E701213846BB
:10296000FEF7D6F9064650B3164B93F9061009F058
:10297000FCFB304609F003FD21462870E074304628
:1029800009F047FCE37E0546002B3FF461AF0028C9
:102990007FF45EAF0246316B6846FEF72DFB2A4698
:1029A000306B012107F06CFC316B68460422FEF7A6
:1029B00023FB2A462946306B07F062FC48E70725CF
:1029C00046E700BFD80B002070B505798AB00346F2
:1029D000042D5CD84488B4F5804F58D82D48002188
:1029E000465D2844ADF800104279857A42F0100225
:1029F000C07B8DF8081042EA46028DF81D1042EAAD
:102A0000850242EAC00202F01F028DF80020BDF8E4
:102A10000020ADF809201A888DF80E40240A8DF8A0
:102A20000B20120A8DF80D108DF810108DF80C2067
:102A30008DF80F405A7BD3F807008DF811205A7992
:102A4000059002A88DF812209A798DF81320B3F81A
:102A50000B209B7BADF818208DF81A307F238DF862
:102A60001B3001238DF81C308DF81E308DF81F109F
:102A70008DF820108DF823108DF824108DF821107A
:102A80008DF822106946FFF7DBFE0AB070BD1220F8
:102A9000FBE700BFE83D02000278034672B14278CE
:102AA00062B142881A2A09D982881A2A06D900688E
:102AB000034A106000209B88938070471220704763
:102AC0000410002002680020014B9A60704700BF8C
:102AD000041000200378A3F10A02112A9BBF024AC6
:102AE00000201220137470470410002008B502F073
:102AF0009BF8FFF7DBFB0248BDE8084002F07EB818
:102B0000E40B002010B501230A4C84F8023102F0D6
:102B100093F809F0AFFD08F036FD04F203112046EA
:102B2000FEF79CFC002007F04AFBBDE8104000F0D7
:102B3000F1BE00BFE40B002010B5064C064904F5B9
:102B4000027008F0DDFB04F503700449BDE8104095
:102B500008F0D6BBE40B0020940000209C0000206D
:102B600010B5094C094904F5027008F0C9FB04F5D9
:102B70000370074908F0C4FB04F504700549BDE87B
:102B8000104008F0BDBB00BFE40B0020A4000020F3
:102B9000AC000020B4000020014B93F80201704704
:102BA000E40B002010B5074C00F090FED4F80802AA
:102BB00008F09EFBFFF79EFC00F0AAFF012384F8BB
:102BC000143210BDE40B0020014B93F8140270473F
:102BD000E40B002010B5074CD4F80C0208F088FB79
:102BE000D4F8100208F084FBFFF75CFC002384F8A3
:102BF000143210BDE40B0020C2080549012300F087
:102C0000070003FA00F08B5C18438854704700BF3C
:102C100050000020014BD3E9000170475000002014
:102C2000034B1868C0F30020400040F001007047DB
:102C30005000002008B505F0B1F80023074A32F82B
:102C40002310814205D302EB83039B78044A13705F
:102C500008BD01330C2BF2D10023F7E7FC3D020045
:102C6000F90D002010B54468238884F86711A4F892
:102C7000683194F86830012B06D0022B04D040F262
:102C800049310620FDF788FC84F86A3194F86930F0
:102C9000012B01D0022BF2D184F86B3104F5AF7017
:102CA000034908F015FF002384F8243110BD00BF4C
:102CB0007BB3000040680749038800F25110A0F878
:102CC000093010F8F13CC37210F8F03C037308F0BF
:102CD000F9BE00BF91B300002DE9F04389460979A0
:102CE000446885B099F8058001F00701054694F81D
:102CF000867008F007084B1E08F1FF320B4002EA0D
:102D00000802134394F88720232A2CD104F1870664
:102D1000002B43D1404608F08AFB68B394F8683032
:102D2000984229D094F82421012A0CBF94F8262136
:102D300094F8642018EA020F30D0212F1CD094F8A8
:102D4000612018EA020F17D10138C0B2032805D854
:102D5000013B524ADBB2105C032B0AD940F21F211F
:102D60000620FDF719FC212F40F0948004F186061F
:102D7000CEE7D35C834211D8084608F058FBA8B3CD
:102D800094F86930834231D094F82431012B0CBF80
:102D900094F8273194F86530194227D194F82431FA
:102DA000012B13D11E212846FFF75CFF212F11D1E3
:102DB0006B68182283F80921092283F8862093F88A
:102DC000C230CBBB40F2B321AE20CAE7002384F867
:102DD0002431EBE700232846337008F03DFF18212B
:102DE000284605B0BDE8F04308F05EBFB9F80670AC
:102DF00003AB4246204600933B4608F023FB6A683B
:102E00000446F0B992F82431012B17D10146284627
:102E1000FFF728FF34706B6803F18702964202D1F6
:102E2000002283F887206B68002403F18702964212
:102E30002DD1284608F010FF00202CE082F8240154
:102E4000E9E7B2F88030A2F83C72DB431F4447F652
:102E5000FD73BFB29F4206D92823284682F8A930C5
:102E600000F0C6FFDFE792F887300D2B02D00A3B57
:102E7000012B01D82A23F0E79DF80C3082F83E326E
:102E80009DF80D3082F83F3225233370CBE783F86D
:102E9000C240D1E7022005B0BDE8F0832C3E02001D
:102EA000044B002283F822204FF6FF729A84DA84C2
:102EB0001A857047FA0D0020054B9A8C824201BF9B
:102EC000002283F822204FF6FF729A84704700BFD9
:102ED000FA0D0020014BD884704700BFFA0D002086
:102EE000094A03464FF6FF71908C884206D192F84A
:102EF0002210012905D001201A60704700201860B7
:102F000070470020704700BFFA0D0020064B93F871
:102F10002220012A1BBF0120DA8C002083F8220026
:102F200018BF9A84704700BFFA0D0020014B188526
:102F3000704700BFFA0D0020064B0246198D988C91
:102F4000884205D193F8220018B101201360704720
:102F500000207047FA0D0020094B998C1A8D914280
:102F600001D0002070474FF6FF729A8493F8222018
:102F7000002AF6D00022012083F82220704700BFEB
:102F8000FA0D0020054B998C1A8D914203BF93F8DE
:102F90002200B0FA80F0400901207047FA0D0020AD
:102FA00050B90A4A0120134603F8010B0868C2F819
:102FB00001008A889A807047012805D1034B0A686E
:102FC000D8719A608A889A81704700BF240E0020C9
:102FD00048B90A4B187880B1D3F80120B3F805300E
:102FE0000A608B807047012806D1044BD87920B144
:102FF0009A689B890A60F4E700207047240E00203D
:1030000020B9054B187800F00100704701280ABF6D
:10301000014B0020D879F6E7240E0020F7B58B8805
:1030200000228DF80600ADF8043008680B4B8DF8CF
:10303000072001461C7803F5AC73019DD0B2844291
:1030400001D8082007E0D3E9007601320833AE4208
:1030500008BF8F42F2D103B0F0BD00BF380E002090
:10306000084B0146002230B55C7803F58173D0B27D
:10307000844201D8082004E013F8015B01328D423C
:10308000F5D130BD380E0020F0B5254D89B095F84A
:10309000984105F299116846224606F093FB2146B5
:1030A000684608F091FA0446B8B300EB400102A864
:1030B000C9B2FDF7F3FB601E95F8A1610124C0B20F
:1030C00095F8982105E0731CB3FBF2F102FB113374
:1030D000DEB206F120030DEB030111F8203C002BBA
:1030E000F1D100EB400201F8204C06EB4603203200
:1030F0002B446A4412F8187C83F8A27112F8177CEA
:1031000012F8162C83F8A37183F8A4210138AB19A7
:10311000C0B283F89941FF28D2D109B0F0BD00BFF9
:10312000380E002070B5064688B00C46002A4ED0F6
:10313000294A92F8A131D01890F8991119B9FF21B4
:103140002820FDF729FA03EB43010133114491F8DC
:10315000A251E57091F8A35191F8A4112571617104
:10316000002180F8991192F89811B3FBF1F001FB5E
:10317000103382F8A13192F8C23123B9174902F510
:10318000DD7008F0A2FC65790D220021684605F08B
:103190003F0545F04005657109F0F1FCE37804AAAC
:1031A00069468DF80F30304623798DF80D508DF833
:1031B0000E30042309F02FFC9DF81F3023709DF87A
:1031C0001E3063709DF81D30A37008B070BD0321E0
:1031D0006018FDF763FBD6E7380E00208930000049
:1031E000044B5A78824286BF1B1893F84A0100208C
:1031F000704700BF380E0020044B5A78824286BFC9
:103200001B1893F842010020704700BF380E0020C1
:10321000064B00224FF461711A8083F8C32183F8B2
:10322000C421A3F8C61183F8C2217047380E0020CC
:10323000014B83F8C4017047380E0020014BB3F8EE
:10324000C6017047380E00200A4B30B55C788442C6
:103250000ED9184490F802012B3003EBC004A57975
:103260000D7053F8300010600120A388938030BDAA
:103270000020FCE7380E00200246074810B590F801
:10328000C34124B1417821B1023002F033FE20461F
:1032900010BD0C46FBE700BF380E00202DE9F74FAC
:1032A0002F4C9A46804689466378834256D9231824
:1032B00093F8425185F00105F9B193F84A31E3B929
:1032C00045F002070135BAF1000F18D1FA070AD507
:1032D000062104EB0810524601FB0841823001F53B
:1032E0008571FFF71FFFBB0734D504EB081052466A
:1032F00049460230FFF716FF2CE02F46E3E794F82B
:10330000A1614FF0010B002DE0D0A31993F89911A2
:10331000019399B90092DAB100F0CAFB019B06EB68
:103320004601009A4FEA102C83F899B1214481F8A4
:10333000A201000C81F8A3C181F8A401013694F820
:103340009831013DB6FBF3F103FB1166F6B2DAE703
:1033500047F00407384603B0BDE8F08F0027F9E7CF
:10336000380E0020074B5A78824209D91A1892F871
:1033700042212AB9062202FB003000F58570704711
:1033800000207047380E0020064B5A78824281BFD9
:103390001B1893F83A01B0FA80F0400998BF00205A
:1033A000704700BF380E002030B5002442F210757F
:1033B000A0F84040B0F844404C43B4FBF2F4A0F80D
:1033C0004440541E05FB0343B3FBF2F3A0F8423024
:1033D000084BB3FBF2F30133A0F84830838F05FBB1
:1033E0000344436B5943B4FBF2F4B1FBF2F2846340
:1033F000426330BD005A620270B504460D4659BBA7
:103400004FF41A7209F0BBFB012384F8DE5084F8F4
:103410008E306FF0360384F8D930042384F8DA3024
:103420006FF03B0384F8DB306F2384F8DC306FF0FF
:103430003C0384F8DD306FF07F0384F8DF302B230A
:1034400084F8D830FE2384F80E317F2384F8853049
:10345000202384F8F33170BD012917D10023A0F88F
:10346000B43180F8AB310D4B826913441146B3FB84
:10347000F2F3C0F8B03040F6B833A0F8B430438C63
:1034800004F17800BDE87040FFF78EBF0229E2D159
:10349000B0F84A32D0F844228169F1E77FC3C9010C
:1034A000034B80F870101B680BB1008818477047F9
:1034B000BC000020074B93F900301844142804DCAA
:1034C00010F17F0F03DB40B27047142070476FF09C
:1034D0007E007047001000207F2307B50DF1070024
:1034E0008DF8073003F06AFC9DF9073068B10A4A8D
:1034F0005078404240B21844142808DC10F17F0F85
:1035000007DB40B203B05DF804FB1846FAE714206D
:10351000F8E76FF07E00F5E700100020024B002274
:103520001A705A70704700BF0010002003464078A0
:1035300098B1DB783F2B05D8084AD35C1B1A584258
:103540005841704703F11402D2B2022A04D8034A48
:10355000134413F8AC3CF1E701207047303E020001
:103560003F2908B5C17003D80B4B5B5C437008BDA5
:1035700001F11403DBB2022B04D8074B194411F8F4
:10358000AC3CF3E7FF2904D04FF48A612A20FDF711
:1035900003F80123EAE700BF303E02002DE9F347BC
:1035A000894669461446984608F02FF805460028D3
:1035B0003AD1019E34B9012486F88D40204602B0EC
:1035C000BDE8F087D6F810A02146504606F039FC39
:1035D000014658B3174B5B88A34229D3504606F0E7
:1035E0006AFD96F88D3007460580002B85700CBF6C
:1035F0004946022108F0DCF922464146F81C06F053
:10360000E1F82146504606F056FC044618B97E21E2
:103610002B20FCF7C1FF684608F00DFA019BA3F8C8
:10362000A25186F88D50C9E70124C7E70446C5E7D3
:103630002C46C3E704100020024B987DC04300F0E5
:10364000010070470410002083230B70014B1B788E
:10365000CB7070471C1000202DE9F84FD0F8048083
:103660000D46D8F81460304606F017FD044618B928
:10367000FF211020FCF790FF0146304606F01BFDAD
:10368000B4F800B082461FFA8BF717B940F2031165
:10369000EFE71E4B00F103091B688BB9B8F8003047
:1036A000A5F806B0AB8000236B729AF8003003F0E7
:1036B0000303012B0FD0022B0DD040F21D11D8E7D0
:1036C0003A464946B8F80000984704460028E5D134
:1036D0002046BDE8F88F30462B7206F0F2FC044617
:1036E00010B94FF49371C4E7FB2F02D940F23511A2
:1036F000BFE7286810B94FF49B71BAE73A464946CC
:1037000006F060F8304606F038FCE1E7C000002023
:103710002DE9F3478246894605270025DFF84C81CD
:10372000D9F8103053B11B7A1BB980211020FCF757
:1037300033FFD9F81040B4B9002070E0D9F8044044
:10374000237A012BF8D0EFF3108372B6D9F8042056
:103750001268C9F8042003B962B6C9F81040237A88
:103760000BB9A621E2E7267AF6B22772731E0B2B5D
:1037700069D8DFE803F065061C3362683C68686856
:103780006857636813B94FF4D771CFE720465146A5
:1037900098470420EFF3108372B6227A052AD1B23B
:1037A0005BD12572C9F81050ABB962B613E06368FB
:1037B00013B940F2B711B9E751462046984703467E
:1037C000ADF80400C0B2C3F30723012B3ED0022B97
:1037D000E0D1C9F810500028A2D020E0636813B9E6
:1037E00040F2BF11A2E7204698470020D2E7636865
:1037F0000BB9B5219AE70B2200248AF80020012298
:10380000198818698AF80220AAF803108AF8052096
:103810008AF8064006F0B1FB0420C9F8104002B057
:10382000BDE8F087D8F80030514620469847034657
:1038300060B10220C9F81050F1E74FF4FB7175E751
:1038400040F2F91172E74FF4FE716FE7267200281B
:10385000E5D1002B7FF464AF6EE711B940F21D2172
:1038600064E7002B7FF45CAF62B659E7C400002028
:1038700070B5144C14260021231D3246184609F059
:103880007EF903460125257404333246002104F1F4
:103890001800C4E9013309F072F984F8245004F1E6
:1038A0001C03094AC4E906330023E362236384F856
:1038B0003430C4F83530C4F8393084F83D30136002
:1038C00070BD00BF1C100020C000002010B5084CC7
:1038D0002378FF2B04D04FF4A0711020FCF75CFE7E
:1038E00005F078FE2070BDE81040FFF7C1BF00BFB3
:1038F0005D00002010B5034C207805F087FEFF2303
:10390000237010BD5D000020014B187805F08EBEBD
:103910005D000020014B024A1A607047C40000207D
:103920005936000010B506490446FFF7F1FE28B9E4
:1039300020460449BDE81040FFF7EABE10BD00BFB5
:103940003410002020100020134610B5027A22B156
:1039500040F299211020FCF71FFE0A46014602485A
:10396000BDE8104008F08EB820100020044890F800
:1039700034301BB903492C3008F0A1B8704700BFA0
:103980001C10002077BA00000346064890F83E203D
:103990003AB190F83D2022B9034900F8353B08F0D0
:1039A0008EB870471C100020493600000A4610B53A
:1039B000037A23B140F2A1211020FCF7EDFD01466E
:1039C00007230248BDE8104008F05CB8341000201E
:1039D0001346027A0AB1037270470A46014601484B
:1039E00008F050B8201000201B234FF01B128384D6
:1039F000038482618382C260038539B94FF4A47362
:103A0000034AC3844384C261C3820261704700BF1A
:103A10004801480103460846F0B4B3F85420B3F80F
:103A20004840B3F856109442B3F84460DF8F28BF83
:103A30001446B3F84C20B3F842508A42DC8728BFC2
:103A40000A46B3F846109142A3F8422038BF114607
:103A5000A64238BF2646A742A3F84610A3F8446002
:103A60001FD1AA1A18BF0122B3F84A50B3F8504028
:103A7000B3F85270A5429E8FB3F8401028BF254678
:103A8000B3F84E40BC429D8728BF3C46AE42A3F8E7
:103A9000404002D1A14200D12AB10449F0BC08F053
:103AA00017B80122E0E7F0BC704700BFD7BA0000AA
:103AB000094AD2E90003434083EAB01181EA432175
:103AC0004FEAF34311605360044B58434FEAF060F0
:103AD00000EB8000704700BF5C100020BB79379E70
:103AE000094AD2E90003434083EAB01181EA432145
:103AF0004FEAF34311605360044B58434FEAF060C0
:103B000000EB8000704700BF60000020BB79379E4B
:103B100010B50A4C08210948FCF7C0FED4E900237F
:103B20001343F7D0064CFFF7DBFF2060FFF7D8FF09
:103B3000236860600343F6D010BD00BF6000002022
:103B40005C100020174B184A9A60184A5A60184AAD
:103B50001A60184A9A62184ADA62184ADA60184AF1
:103B60009A61184A1A63184A1A62184ADA64184A9B
:103B70009A64184A5A62184B184A9A60184A5A624C
:103B8000184ADA62184A1A61184A5A61184A9A6140
:103B9000184A1A63184A9A64184ADA64184A9A63E7
:103BA000704700BFC800002037BD000067BD00009F
:103BB000D3BD00008FBE0000E3BE0000193F00002F
:103BC000F9BE000051410000FD3F0000C7BF0000EA
:103BD000E3BF000045400000D401002053BD0000B9
:103BE00099BF00001BBF0000BFBE00003FBF000028
:103BF0009D3F000069C0000011C0000003C000002C
:103C00007FBF0000054B064A9A65064A1A66064BB6
:103C1000064A9A65064ADA65704700BFC800002068
:103C2000C5B40000D92C0000D401002015B4000058
:103C300067B50000252A0346084610B518D8012AA2
:103C400019D9023A232A16D8DFE802F01A152423DC
:103C50002330153415233A454915154D232360604B
:103C6000767D151515151515151515151588939BC4
:103C7000FF2A00F08E8040F2D4415120FCF78CFCEA
:103C80005A681B78012B0CBF92F8103192F8193149
:103C9000037110BD5968D1F8BE214260D1F8C2212C
:103CA00082605B68D3F80431C360F2E75B6893F825
:103CB0001031EDE701461846BDE8104000F012BA99
:103CC0000F23037159234371002383716923C37147
:103CD00030230372DDE75B6893F80A31D8E7BDE86B
:103CE000104000F0EFB95A681B784BB992F81031C8
:103CF00033B192F80D31037192F80C314371C8E77A
:103D000092F80B31037192F80A31F7E75B68B3F868
:103D100054200271120A4271B3F812218271120A00
:103D2000C271B3F850200272120A4272B3F8103115
:103D300083721B0AC372ACE75B6893F82621027199
:103D400093F82731DAE75B6893F82421012AF4D04D
:103D500093F86420027193F86530CFE7114A146834
:103D6000002C96D001461A4623202346BDE8104079
:103D700018470C4A1468002C8BD001461A462420A0
:103D8000F3E7084A1468002C83D001461A46252020
:103D9000EBE75B68BDE8104093F83722D3F83812A0
:103DA00007F00EBEE00200203F2803D8064B53F870
:103DB0002000704700F11403DBB2022B01D8AC38AD
:103DC000F4E70020704700BFC80000203F2803D858
:103DD000064B53F82000704700F11403DBB2022BAE
:103DE00001D8AC38F4E70020704700BFD4010020B0
:103DF000F7B5456804464FF6FF772E690DF10201CD
:103E00000DF101023046ADF8027006F06FF801A91D
:103E1000304606F08DF840B1019806F050F961681F
:103E200000220272FFF7C2FDE8E7044905F1A00095
:103E300003B0BDE8F04007F045BE00BFCBBC0000BA
:103E4000F0B5044685B00D46FF2600F8896C10F8E1
:103E50008A3CF3B1184F3B781BB148211F20FCF777
:103E60009BFB0C21381DFCF719FD3E70002304F864
:103E7000893C07232A4602F8033BD4F80930C5F8E9
:103E80000330D4F80D305360D4F81130936005B08E
:103E9000F0BD01A80C21FCF701FDA4F51473039AF1
:103EA000C3F8042101AB03CB44F8920C44F88E1CF8
:103EB00004F88A6CDAE700BF6410002010B5054CE6
:103EC00023782BB90C21201DFCF7E8FCFF2323707D
:103ED00010BD00BF64100020024690F8C631BBB987
:103EE00090F8C73103F0FF010BB100207047094B78
:103EF00018780028F9D01970D9680433C2F8041171
:103F000003CBC2F8BE01C2F8C211FF2382F8C6314A
:103F10000120704764100020426838B592F887305D
:103F200004460D463BB1132B05D0113B0B2B94BF20
:103F30000820012038BD92F8C83013B9204607F098
:103F400081FE6268D5F80E30C2F8B631D5F812306D
:103F5000C2F8BA316368D5F81620C3F800211A8870
:103F6000A3F859226A68C3F85B22AA68C3F85F22E3
:103F70006368AA89A3F863226368002583F8C651A1
:103F80006068054900F5147007F099FD6368152213
:103F9000284683F88720CDE7413E000038B54368C6
:103FA000044693F887201C2A04D04FF4DE711F20AA
:103FB000FCF7F2FA002293F8C8101D8803F5C970C7
:103FC00083F8C72069B10B4983F8C820A3F89C5136
:103FD00083F89B2107F073FD6368002283F8872034
:103FE00038BD012283F89B11A3F89C51024983F844
:103FF0009E21EFE77BBE00006DBE000038B545682E
:10400000AB6F13F0010417D14A680C4B8968134059
:104010000B4AC5F8D830C3F307630A4043F00803DE
:10402000C5F8DC2085F8DB3007F00CFEAB6F2046CE
:1040300043F00103AB6738BD0120FCE72FC904F74B
:104040006FDB0080406810B590F88630042B23D1D8
:104050004B688A68C0F8D830C3F30763C0F8DC2027
:1040600043F0080380F8DB30002380F8C23080F88A
:10407000863090F8742102F0FF047AB9038800F5C5
:10408000B670447243814B68C3608B680449036116
:1040900007F015FD204610BD0124FBE71C46F9E79B
:1040A0005DBF0000406890F8743143B9038800F5A3
:1040B000B670034943811A23437207F000BD70476D
:1040C0005DBF000010B50446FEF7A4FD034A044B93
:1040D00002400B406260A36010BD00BF2FC904F70F
:1040E0006FDB008037B50C464568FEF793FD084B43
:1040F000084A03400A4095F8D81000930B400192FB
:104100008DF800306B4603CB6060A16003B030BD1A
:104110002FC904F76FDB0080DB0410B5144604D50B
:10412000037D13B10023436310BD436B013343632D
:1041300007F07BFFD0E90D239A42F5D30023034912
:1041400043632046BDE8104007F0C2BCB9BF000081
:1041500038B54468054694F88630012B02D0A36F29
:10416000980739D494F8C9309A0715D40A79D80732
:1041700084F8D320B1F80520A4F8D420B1F80720A2
:10418000A4F8D62043F0020284F8C9200FD51349C1
:1041900004F1CA0007F09CFC94F8C930D90711D487
:1041A000A36F9A0708D555214020FCF7F5F994F83C
:1041B0002A31002BEBD1EFE743F002032846A36737
:1041C00007F040FD94F886300020012B03D184F8DD
:1041D000860084F8C20038BD0120FCE74BC0000017
:1041E00070B545680446FFF777F9054B014685F839
:1041F00085001B681BB12046BDE87040184770BDA4
:10420000E8020020024B1B6803B11847704700BF4B
:10421000E4020020F0B5204E0546002430781470EA
:1042200080B1431E7768DBB2181B01280BDC07EB5B
:10423000C40057F834604068884208BFAE4212D1CB
:1042400014700120F0BD18194610C0F3470057F84C
:1042500036C007EBC60EAC45DEF804608E412CBFBD
:1042600003460446E0E7B54271EB000002D2147049
:104270000020E7E707EBC30057F833404068884267
:1042800008BFAC4201D11370DBE7A542814128BFD2
:1042900001331370ECE700BF8410002010F0070218
:1042A00008B503D063214820FCF776F918B1034B19
:1042B000197258601A70C80008BD00BF8410002031
:1042C000014B00221A70704784100020014B187AAD
:1042D000704700BF841000202DE9D34307F0E6FEAD
:1042E0000DF1070207460E46FFF794FF98B9114CEF
:1042F0002278237A93420ED0616813466FF0604EA5
:104300009DF80700984209D301EBC0030132012058
:104310002270C3E9007602B0BDE8D08303EB0E0043
:10432000013B01EBC000DBB2D0E90089C0E90289A2
:10433000E6E700BF8410002037B507F0B7FE0DF1A7
:104340000702FFF767FF0446A0B10C4A9DF807007B
:1043500013785568411C013B05EBC101DBB21370BA
:104360001A1AD2B2D200834238BF002205EBC00035
:1043700008F0EDFB204603B030BD00BF84100020E4
:104380000A460648822302F8033B0368C1F803305B
:104390004368536083689360704700BF8D100020AE
:1043A00016220021014808F0EABB00BF8D10002052
:1043B00082B002AB03E903000D48437DB3B153065D
:1043C00014D50A880C30B1F8803020F80C2CD1F8C4
:1043D000182220F80A3C40F8082CD1F81C22054984
:1043E00040F8042C022202B0FFF7F2BA02B0704784
:1043F0008D100020814300000346074A1068D3F85F
:104400005120C0F80320B3F85520A0F8072093F8F6
:10441000501007F051BA00BFAC10002070B5044630
:104420000E461346407F6588324615F0040118BFDA
:1044300004F15F01FEF732FF4207054623D4C307AC
:104440000BD50123607F84F85030FEF78BFF0368A3
:10445000C4F851308388A4F8553015F0020F4FF09E
:1044600001050ED0094B294684F85E501868D4F82F
:104470005F30C0F80930B4F86330A0F80D3007F0B1
:1044800024FA284600E0002070BD00BFAC100020D8
:1044900038B5C38D04460F4D0133C3F30E03C385F6
:1044A000AB7C2BB102F07CFC01F082FD0023AB74ED
:1044B00000232B7194F871302BB101212046BDE807
:1044C000384006F07BBA637C13B1E28D9A42F4D295
:1044D0000021F3E7AC10002010B5094C2379012B23
:1044E00002D02379022B05D1A37C1BB102F058FC2A
:1044F00001F05EFDE069BDE81040FFF7C9BF00BFF5
:10450000AC10002070B5294C2379012B07D02379FA
:10451000022B04D040F657412D20FCF73DF8A0B9FE
:104520000125A37C1BB102F03BFC01F041FD002DF5
:104530003AD0E06906F0BBF9002830D002F006FB63
:10454000236ABDE870409B6818472168E26911F84A
:10455000095B02F1510392F85020E80907F016F8C0
:104560000028DDD00021206807F0D4F90028D7D03A
:104570002379E069012B05D02379022B02D04FF477
:104580004361C9E7237905F00F01226A03F18043F3
:104590005269013B52F8233098470546C1E7E0696C
:1045A000BDE87040FFF774BF70BD00BFAC100020C5
:1045B0000346074AD06903B909B9FFF769BF137900
:1045C000126A03F180431269033B52F82330184703
:1045D000AC10002003292DE9F043054685B0904634
:1045E0007BD090F870300529DBB202D14288D60723
:1045F00060D5002B5ED10127DFF8E89099F81260B2
:10460000B6B106F0F8FF082888F8000014D002AA16
:104610000DF10701FEF718FE20B940F6CF612D20FD
:10462000FBF7BAFF02A99DF8070007F04BFD06460D
:1046300098F80030082B08D1D9F8001011F8030BB6
:10464000C0F3801007F03EFD0646D9F8001005F1D2
:10465000580395F8572011F8030BC0F3801006F0AB
:1046600095FFD9F80010044611F8030BC0F3801031
:1046700006F0B7FF8146FEF787FE014640B1B9F16B
:10468000080F1BD04846FEF7ABFD80F00101C9B210
:1046900098F80000082815D094B96B7F1C1A604266
:1046A00060416B885A0706D421B996B9EB7C93B167
:1046B000BB4210D0002005B0BDE8F0830021E7E741
:1046C0000120EEE714B181F00104E4B204F001002E
:1046D000E7E73046EFE70120EDE743889B07E9D5A0
:1046E000022789E7AC1000202DE9F04F85B00823A0
:1046F000052104460DF107028DF80730FFF76AFF28
:10470000064620B90026304605B0BDE8F08F744F4C
:10471000396807F11403FA7C11F8030BC0F3801019
:1047200006F034FF80460028ECD13B6840F2E249B5
:10473000216A184691F88E2010F8035B02EA5512A0
:1047400002F0010281F88E20D3F80320C1F8032083
:104750008288A1F807201946226A11F81F0BC0F3BE
:10476000801090700979D3F81F008DF80C10D3F8E1
:104770000F100290D161597D187D090441EA002192
:10478000D87C01435162B3F8191082F8728009FB9A
:1047900001F191619D7DC5EB451105EB810505EBAF
:1047A00085056D009585B3F8171009FB01F191623D
:1047B000B3F81B101184B3F81D10518493F8243002
:1047C00003F01F015B0982F89A1002A982F89F3159
:1047D000256A94F912B005F18E0006F0C4FF40F28C
:1047E0000113A5F868304FF0FF0A85F86AA041462A
:1047F00005F13000FFF7F8F859462846FEF750FE5D
:10480000236A84F87B8004F186011A8884F899A0D1
:10481000A4F87C204FF6FF729DF80700A4F89A20B8
:104820009A69B2FBF9F2A4F892201A8CA4F89420A9
:104830005A8CA4F8962093F89F2184F89820227F20
:104840005AB394F85020012A27D194F8562002F048
:10485000C002402A21D1D4F85120C4F88620B4F8EF
:1048600055208A8008289A7803F1030504F18C0109
:1048700084F87F2004F18002D3F8033027D0C4F8F5
:104880008C30AB888B8004F17F01FEF7DDFC40B9F2
:1048900040F6B6312D20FBF77FFE0022C4F88620BB
:1048A000DFE794F87F3043F0020384F87F3004F1AF
:1048B00072000C4907F003F90B4B0022206A1B68B9
:1048C0003A71002B3FF41FAF214698471BE7C4F80D
:1048D0008030AB8893800023C4F88C308B80E6E76F
:1048E000AC100020F1C00000F0020020032973B5D5
:1048F000044604D0052956D0012002B070BD08231B
:104900000DF107028DF80730FFF764FE0028F3D0A1
:10491000237C2A4D03B39DF8070094F8BE30DBB921
:104920002378082804F1C10284F8BF302CD004F1A8
:10493000C001FEF789FC20B940F645712D20FBF738
:104940002BFE94F8C03043F0020384F8C0301C49B9
:1049500004F1B60007F0B3F82B68062204262046BF
:104960005A701E70FFF748FD94F84020E16B2868EC
:1049700006F0C1FF28682E7102F0A0F92868002116
:1049800007F0E1FE0020B8E72868034613F8031B90
:10499000C1F3801184F8C010D0F80310C4F8C1101E
:1049A0009B889380D3E7074B1B6823B1984780F01F
:1049B0000100C0B2A1E718469FE700BFAC1000207D
:1049C000D9C00000EC020020F8B504460F4619B328
:1049D00000F12805284607F070FDA0B963881A0782
:1049E0002ED5284607F07EFD0646284607F065FDD1
:1049F000301AC0B207F084FD494A93680344284640
:104A0000936007F039FD284607F03BFD01F0FCFFFD
:104A10002179252001F05CFF414E002394F85E20AF
:104A20003068037043706388103B0D2B68D8DFE853
:104A300003F063675F0C674467676767676767448E
:104A40002046BDE8F840FFF723BD0623437020232E
:104A500003702046FFF7D0FC638823F008039BB265
:104A6000152B05D094F83820616B306806F034FFC0
:104A7000306802F023F90021306807F064FE032358
:104A800021790020337101F0EBFF054607B9F06092
:104A900063881B0704D507F030FD0544C4F8D850DF
:104AA0006388103B0D2B36D8DFE803F038352F2F05
:104AB000352F353535353535352F0C2321214370CC
:104AC000034603F8091B52B1D4F85F200121C0F856
:104AD0000920B4F863209A8006F0F7FEB9E7A26DCA
:104AE000C0F80920B4F85C209A8094F85710F3E7D6
:104AF000062303704370ACE7022303700623F9E733
:104B000040F234612D20FBF747FD21790120BDE8FB
:104B1000F84002F05FB940F6CA41F3E7F8BD00BFC4
:104B2000AC10002038B543880446102B04D1012175
:104B3000BDE83840FFF748BF0B4DAB7C23B101F017
:104B40000BFA402002F020F9286802F0B7F86088DC
:104B500010F0040002D1217902F03CF9002002F0AB
:104B6000EFF801232B7138BDAC100020024B01215E
:104B7000D869FFF729BF00BFAC10002010B5134C57
:104B8000A37C1BB102F00CF901F012FAE06905F008
:104B90008EFE70B12379E069012B0FD12379226A4F
:104BA00003F18043D268013BBDE8104052F8233046
:104BB0001847E069BDE81040FFF76ABC2379022B73
:104BC000ECD040F658312D20FBF7E6FCAC1000206D
:104BD000094810B5037903F0FF0453B918222146A0
:104BE000043007F0CCFF02F0DBF801F0E1F92046D9
:104BF00010BD0C24FBE700BFAC10002010B5002353
:104C0000084C23712060FFF7E3FF20B140F2EF2151
:104C10002D20FBF7C1FC236A13B940F2F221F7E71C
:104C200010BD00BFAC100020014B024A1A62704751
:104C3000AC100020104F0000034B044A1A60044BD4
:104C4000044A1A60704700BFEC020020E9460000E9
:104C5000F0020020E92300002DE9F041067D044622
:104C6000B31EDBB2012B8CBF4FF000084FF00108E0
:104C70007EB3B71E18BF0127012B36D800F15801AB
:104C800090F8570006F0ADFC082805462DD0FEF739
:104C9000B3FA58BB657784F81C8084F85070FEF72F
:104CA000CDFA054607F0DBFD174B0022A5FB0335C7
:104CB00084F85E201B18204645EB01051146C4E927
:104CC0001235FFF7ABFB70B940F27A412D20FBF7AC
:104CD00063FC3746082504F151010020FEF778F9FE
:104CE0000028D7D10020BDE8F0810825022EF2D09F
:104CF000E37E002BF6D0D4F81530C4F85130B4F868
:104D00001930A4F85530C5E740420F00F0B5484EC1
:104D100085B00446327902F0FF0312B90278FF2A07
:104D200004D140F6B7112D20FBF736FC3382B36077
:104D30007371B37180F871303E4B684604F12805F9
:104D400000933D4B01933D4B0293336A5B680393A1
:104D500001F0ACFF01F0EEFD02F022F801F028F9BD
:104D6000374801F047FE374801F09AFF284607F020
:104D700083FB284607F085FB01F046FE21792520BC
:104D800001F0A6FD94F9120001F02EFE04F13401A9
:104D9000206B05F092FA074604F13C01206B05F008
:104DA000B3FA0546E7B194F82430CBB1B4F92E50EC
:104DB000ED43ED0F237F13B963885B0709D56FF0CF
:104DC0000043D4E912129A4208BFB1F1FF3F0ED15D
:104DD000ADB930680330FEF74FFAB07405B0F0BDDE
:104DE000002DE7D094F82550002DDFD1E2E707F041
:104DF00036FDD4E91223904271EB0303E8D301227C
:104E000029462046FFF70AFB68B1FEF717FA054668
:104E100007F025FD0C4BA5FB03351B1845EB0105E1
:104E2000C4E91235D5E7002DD3D040F6F4117AE766
:104E3000AC1000207D4B000005450000B14500008E
:104E4000D6BE898E5555550040420F00F7B5044631
:104E5000FFF75CFF00212046FFF7B6FDA36E0BB104
:104E600001221A606388DB0721D50023256A114ED1
:104E700005F10A07CDE90033FF23F3746846FBF719
:104E8000BFFFA0B9009CA542F8D03B466A7A04F166
:104E90000A01607A06F07AFB0028EFD0A378F37459
:104EA000D4F80300044B7061B4F807209A8003B073
:104EB000F0BD00BFAC100020C0100020024BD86134
:104EC0001B6A1B68184700BFAC10002043881B07F3
:104ED00010B504460ED5036A3C220849723042726E
:104EE0001B884381FF2380F827304FF6FF7303852B
:104EF00006F0E5FDFF2384F8713010BDF1C000001D
:104F000043C10000254B000049C10000ED480000EE
:104F10004D4E0000D94400006D4B0000004F0000D2
:104F2000044F00000C4F00000138022808B503D9D7
:104F3000C3212F20FBF730FB13290A4B05D8112979
:104F40000CD8102907D0D121F3E71529FBD103EBA9
:104F50004003D88801E033F8100008BD03EB40039C
:104F60009889FAE7CC3E0200F8B52F4B40281A8802
:104F700042EA00021A8005D104219868BDE8F84091
:104F8000FDF7B4B9802801D10521F6E700F003024E
:104F9000032A04D140F696213120FBF7FDFA10F0E8
:104FA000020418BFD960C50705D5CA781961062A59
:104FB0000DD00B2A18D02CB1DA68D278052A1FD070
:104FC0000B2A2AD0820644BF08221A75F8BD9A68B7
:104FD00092F887101829EED1002600270121C2E996
:104FE000386782F88B10E6E79A6892F887101229E2
:104FF00001BF002182F88B10012182F8C810DAE786
:105000009A6892F887101629DCD100240025012126
:10501000C2E93A4582F88C10D4E79A6892F8871072
:105020001129CFD10021F5E7D010002013B5044697
:1050300001A8FDF755FF20B940F687013120FBF7A5
:10504000ABFA22220021019807F099FD0321019873
:1050500006F0AEFC01982146037823F0100303709C
:10506000FEF77EFA224601990548FEF7E3FDFDF7BB
:105070004DFF10B940F69101E0E702B010BD00BF4E
:10508000D410002070B5274CA36893F83E6293F8C3
:105090003F52002E3FD193F86810002D3DD193F878
:1050A000692083F8681083F86920FF2283F86A205A
:1050B0001D4B1B680BB1A0689847A36893F8243177
:1050C000012B02D056EA050303D000211748FDF753
:1050D000C9FDA068303006F026FD0546A06800F244
:1050E0003511FEF797FCA0680621FDF7FFF8A068D0
:1050F000303006F018FD8542044610D202F0FEFE64
:105100000146601B192838BF192003F0F9FFB0FAD7
:1051100080F0400970BD3146BFE72A46C1E7012053
:10512000F8E700BFD010002000030020D4100020BA
:105130000029034608BF1F21172810B50BD80D28DA
:105140000DD90E3809280AD8DFE800F00B09090943
:105150000B090B09110BA0F12303022B23D900200B
:1051600010BD00211846BDE8104007F0CDB9114C24
:10517000A36893F88620212A09D1201DFDF772FD2E
:10518000A368002283F8862083F8C220E7E72E2A4E
:10519000E5D193F88730A3F12002062AF0D92E2B0F
:1051A000EED02A21E9E7044B1B68002BD7D0BDE8DD
:1051B00010401847D0100020F8020020114B024682
:1051C0000979986890F88630212B11D02E2B0FD0BA
:1051D000282B0FD0042B0FD00F2B0FD01D2B0FD04F
:1051E00090F88730232B14BFFE201720FFF7A0BFB5
:1051F0001620FBE72320F9E70E20F7E71220F5E75A
:105200001420F3E7D010002008B50C4B9B6893F8EE
:105210000E21FE2A04D040F696013120FBF7BCF99E
:1052200083F80E0111B9A3F8C41008BD0022A3F839
:10523000BE20012283F8C220F7E700BFD010002073
:105240000C4A117D91B938B99068B0F85810828F26
:1052500091420BD8FDF73CB813881B0708D593681B
:1052600093F88800073818BF012070470020704766
:1052700001207047D0100020154BDB6810B519795C
:10528000436893F88620092A09D193F809218A42B4
:1052900005D1002283F8862083F8C22010BD9A6FC2
:1052A00012F0080406D022F00802BDE810409A6708
:1052B00006F0D2BCFF2905D1332283F8344283F8AB
:1052C0008620EBE740F242513120FBF765F900BF41
:1052D000D010002010B50B7904464268172B92F8C5
:1052E00086200CD80D2B0CD9A3F10E01092908D862
:1052F000DFE801F009070707090709071009232B51
:1053000026D0002010BD224601211846BDE81040DD
:1053100007F0FAB8212A01D02E2AF2D1204606F051
:1053200088FC636893F88720222AEAD093F8D92072
:105330001A21204622F0010283F8D920626892F8EF
:10534000D93023F0080382F8D930FDF78BFCD8E779
:10535000282AD6D1024B1B68002BD2D09847D0E721
:10536000FC020020F7B505467E4C002840F0AC80DA
:1053700023881F0727D5A36893F80E21FE2A04D19E
:1053800040F2BE513120FBF707F9FE2283F80E21CF
:1053900093F887201A2A07D183F8C700201D06F04A
:1053A0005BFCA36883F88750A36893F88620202AC3
:1053B00032D0332A3ED093F88820072A02BF022237
:1053C000627583F80E212388DE073CD423885807B2
:1053D00000F1A980990713D5E368DE780D2E00F05F
:1053E000AA80112E00F0A980072E00F0A880304678
:1053F000FEF7ECFC0346002800F0A3805A489847CB
:105400002388DA0660D5A36893F887200A2A5BD13F
:105410000B2283F8872057E093F88720A2F1200120
:10542000062901D92E2A03D12E2283F88620C2E72D
:105430002122FAE7012283F83522002283F8862010
:1054400083F8C220B7E7A368276993F88730113B38
:105450000B2B0BD8FB78023BDBB2092B7DD801224A
:1054600002FA03F340F23332134276D03846FEF7A5
:105470005DF8FE7820B931463B4806F015FC45E062
:10548000012E01D9162E0FD1A36893F8860006F0DD
:10549000F8FB48B1A36893F88620202A04D0212A7B
:1054A0000ED12E2283F88620112E34D026D8072E36
:1054B00033D00D2E33D03046FEF776FC034621E084
:1054C000162E0CBF20250225237D1B0713D5A368AC
:1054D00093F88730113B0B2B41D9002601A90320FB
:1054E0000196FCF715F9019B2BB11E720C22A168E5
:1054F0000198FEF729FA284603B0F0BD142EDAD140
:105500001A4B1B686BB121691748984700283FF474
:105510005DAF0546D8E7164BF5E7164BF3E7164B9C
:10552000F1E7F978A8E7A26892F88820062A04BF74
:10553000012262754EE7114B60E7114B5EE7114B9C
:105540005CE7FF2E06D1A268332182F8340282F88C
:10555000861055E740F2B25114E70825B4E7082554
:10556000C9E700BFD0100020D4100020F4020020B2
:1055700015C60000D5520000BD510000A5C50000B1
:10558000C3C50000795200002DE9F041A44C0E463D
:105590000746B4F80080A16818F4007F01F178058F
:1055A0000CBFB1F8B820002328460DBF0132A1F886
:1055B000B83081F8AF31A1F8B82007F01AF828B157
:1055C000434601F596722846FEF7A6FD238803F4AC
:1055D000C06333B1A06890F88A30002B4AD0032B07
:1055E0004ED0A168238891F88A20012A04D11D0594
:1055F00044BF022281F88A20002F40F0AC80580678
:1056000057BFB1F8C8213A46013292B2A1F8C82179
:1056100003F00A020A2A0DD1E268D278022A09D1DF
:1056200023F0080330462380FFF79CFE064308233F
:10563000F6B223803046FFF795FEA368064393F841
:105640000E21F6B2FE2A4ED1002E4CD193F88820BE
:10565000063A012A47D993F81831B3B1A36801215A
:10566000022093F81921A3F8BC6083F81021FFF7FA
:10567000CBFD38E0012180F88A10FCF737FEB0E757
:105680000223012180F88A30F7E7A06890F887307C
:10569000A3F11005EDB20C2D11D8113B0B2B00F22C
:1056A0005181DFE813F007014F014F014F010A015B
:1056B00012014F014F014F014F014F013D01836F17
:1056C000D90702D531460920D1E79A0740F19A80DF
:1056D00031460C20FFF798FDA26892F8C93043F0DC
:1056E000010382F8C930A568B5F8A83195F8AC81F6
:1056F0000133A5F8A831B8F1000F00F0E181FBF704
:10570000F9FF10B10023A5F8A831A16891F88A80AB
:10571000B8F1010F40F20A8291F88830072B40F06F
:10572000E781B1F8B830022B40F20082B1F8BA50EC
:105730000135ADB2B1F880302B44A1F8A03191F819
:10574000AD31002B00F0F6810123A268B2F8801081
:105750000B44A2F8A4312288A368550657BFB3F8BA
:10576000B4210022B3F8A6115218A3F8B42193F87B
:1057700018312BB9A36893F88830063B012B07D862
:10578000A368B3F8BC20B3F8A6110A44A3F8BC2060
:10579000A36893F8C20030B1B3F8BE20B3F8A611E5
:1057A0000A44A3F8BE2093F9C6100029C1BFB3F87C
:1057B000C420B3F8A6515219A3F8C42093F8A92025
:1057C0005AB9002F40F04B82627D022A40F00082DD
:1057D00093F81021062A18BF1622A36893F8A83060
:1057E0002BB9A3680F4883F8A920FEF701FBA06836
:1057F00006F049FFA368002283F8AB21BDE8F04121
:10580000FDF7AABB590702D5314613202FE71A0727
:105810000AD590F80831314680F81031072026E784
:10582000D0100020D410002013F0300F3CD090F89E
:105830001B31002B40F01982A36893F81A31E3B1B1
:10584000A06890F8873000F58D7100F23E22252B7C
:1058500028D090F88630A3F1250CDCF1000343EB4F
:105860000C0306F064F9A268936F23F0200343F061
:1058700010039367002382F81A31A068836FDA0659
:1058800040F1F38100F23511FEF7C4F8A36800215E
:105890001520B3F85220A3F81021B3F85620A3F82E
:1058A0001221E4E60123DCE75B0640F1DE81002102
:1058B0002420DCE600210B20D9E6FEF70DFB0028B2
:1058C0003FF411AF00210420D1E690F83032012BD3
:1058D00008D100210520FFF797FCA368002283F878
:1058E000302200E7A36893F83032022BD8B27FF45D
:1058F000FAAEA368062293F8C8501DB1002183F8C0
:105900001021E8E7B048032106F0B5F9A36829465D
:1059100093F8D83013F0040F14BF11200D20DAE7EC
:1059200000210620A3E693F82421022A02D10021B7
:1059300017209CE693F82421012A03D193F82531FE
:10594000002BF4D0A36893F886206AB993F88720D7
:10595000103A0C2A40F2998193F8B620002A00F000
:1059600094810121122082E6092A40F08A8193F86D
:105970000921012183F8102150E7A36893F82A3107
:105980009BB1A36893F8C93013F003050DD1012131
:105990000C20FFF739FCA36893F8C92042F00102FC
:1059A00083F8C92083F82A519BE7A36893F81A313A
:1059B00053B3A36893F81B3133BBA06890F88730CA
:1059C00000F58D7100F23E22252B1BD090F8863019
:1059D000A3F1250CDCF1000343EB0C0306F0A7F860
:1059E000A368002283F81A2101211420FFF70CFC80
:1059F000A368B3F85220A3F81021B3F85620A3F8F7
:105A0000122170E60123E9E7A36893F82421012A13
:105A10004CD193F82531002B48D1A16891F88730FB
:105A2000A3F12002062A41D92E2B3FD091F86850CD
:105A3000012D06D0022D04D040F249310620FAF79C
:105A4000ABFD91F86900012801D00228F4D1022DA4
:105A500091F826210AD0012A14BF002201223AB966
:105A60000A3B042B12D90121162000E6022AF3E793
:105A7000022891F8272117D0012A14BF0022012201
:105A8000002AEDD000215048FDF7ECF8A36893F808
:105A90008620002A7FF427AE93F83432002B3FF49F
:105AA00022AE0121FF20E2E5022AE6E7474B1B6810
:105AB000002BEBD044489847FE28E7D00121D6E5DB
:105AC000FBF712FE08B1A5F8A881FBF71BFE002822
:105AD0003FF41BAE95F8AF310133DBB2022B85F8F2
:105AE000AF3182BF0023A5F8A83185F8AF310CE6AD
:105AF00091F8B6301BB191F886300F2B16D1B1F862
:105B0000BA5001F17800B1F8B830ED1A033D06F053
:105B100070FD68B1D1F8B030D1F8AC20033B9B1ACE
:105B20009D42A8BF1D46012D3FF703AE012501E6AA
:105B30002B46F5E7012D7FF607AE91F8873013B1BC
:105B40000B2B7FF401AE91F88630002B7FF4FCAD77
:105B500091F88830002B7FF4F7ADB8F1020F7FF495
:105B6000F3AD91F8AF31002B7FF4EEAD0869B1F8D9
:105B70002E8004F00CFA00283FF4E6ADA26892F8FB
:105B80000E31FE2B7FF4E0ADB2F8A231012B7FF68F
:105B9000DBADB2F8A811138C9942BFF4D5AD013D2D
:105BA0005B1AADB29BB2B5FBF8F59D4228BF1D460E
:105BB00005FB08F3003D03F1010318BF01259BB26B
:105BC00082F8AA51C1E500BFD410002004030020D0
:105BD000012A09D193F88920002A7FF4FEAD002123
:105BE000A068FCF783FB05E65EB1F00635D431070B
:105BF00035D4B20635D4B30735D140F6182131205B
:105C00001DE738B1B3F8BE00B3F8C020904201D30D
:105C10002222E2E5002905DDB3F8C410B3F8C02064
:105C20009142F5D2B3F8BC10B3F8BA2091420BD22E
:105C3000A36893F88A10B3F8B82051B1B3F8BA301A
:105C40009342CCD80822C8E593F81831002BDFD155
:105C5000EEE7052AC3D93E22BFE51E22BDE53D225F
:105C6000BBE52322B9E52A22B7E5A36893F887208C
:105C7000222A3FF458AE312A7FF464AE002111206D
:105C8000F5E40C2D3FF602AF2DE50C2D7FF62BAD84
:105C900093F82B31002B3FF470AE01210E20FFF75B
:105CA000B3FAA368002283F82B211AE673B5674D77
