:1000000070120020E51A0000476F0000D11A0000AE
:10001000D11A0000D11A0000D11A0000D11A000034
:10002000000000000000000000000000991B00001C
:10003000D11A000000000000411B0000D11A00008E
:10004000091D0000091D0000091D0000091D000018
:10005000091D0000091D0000091D0000091D000008
:10006000091D0000091D0000091D0000091D0000F8
:10007000091D0000091D0000091D0000091D0000E8
:10047C0053B94AB9002908BF00281CBF4FF0FF31FF
:10048C004FF0FF3000F00CB8ADF1080C6DE904CE64
:10049C0005F01EFFDDF804E0DDE9022304B070472F
:1004AC00704700BF034613F8012B002AFBD1181A22
:1004BC0001387047074B1A691268520648BF80F022
:1004CC00010020B19B68DB684021024818479B68FB
:1004DC001B69F9E7BC8300002DE9F04182B000AF45
:1004EC00454A0321454806F0D8FC454C204607F008
:1004FC000FFD25460346C0B921686C4688B06A4694
:10050C004048C2E905014FF4007191833E4942F81D
:10051C00101F4FF4E251394800F05CFFA5464FF034
:10052C00FF300837BD46BDE8F081DFF8FC8040465F
:10053C0007F0EEFC034630B96C4688B0D8F80010D2
:10054C006A463248DDE74FF48031314806F024F832
:10055C00064690B123686C468AB06A462D49C2E9BA
:10056C0005134FF40071002391842B49C2E9073025
:10057C0042F8101F4FF43151CDE74FF4D0112748FA
:10058C0006F00AF890B16C468AB0D8F800306A468A
:10059C002049C2E905130623C2E907304FF4007362
:1005AC0093841D4B42F8103F3346E3E72E461C4A1A
:1005BC000321124806F071FC2469AB68391D5B6895
:1005CC0030469847031E0FD122687B685340DB07E7
:1005DC0001D5002000E00120FFF76CFF002140F264
:1005EC00391007F0B7FDE8E7F3DA0E4A01210348AA
:1005FC0006F05CFC93E700BF20930000A88E00007F
:10060C00D48300004A9300000300000168930000AB
:10061C00188F00008393000005000001208F00005C
:10062C00AC930000D2930000BC8300002DE9F04F86
:10063C001F4691B002F004030193C2F3C2030133CD
:10064C000593830705460E460392DDF868B040F02B
:10065C008F81041D002840F08E8101F00706344480
:10066C00C6F108064FF0000A4FF0FF32D1464FF0AA
:10067C0004087B1ECDF808A0CDF810A005B12760AA
:10068C000598002807DC88488742C0F0AA80874874
:10069C00874280F0A680039911F0020E00F0C18011
:1006AC004FF0010C601BBEF1000F00F0A080B0F504
:1006BC00007FC0F09C806FF0150058E020385A285D
:1006CC0034D8DFE800F06033336033323333333304
:1006DC007060336060336060606060606060606058
:1006EC00333333333333334433333344444433338A
:1006FC00333360333333333333333333333336338E
:10070C003333333333333344333636444444603633
:10071C005E3360332E362E3333866D3633333633B9
:10072C006D0000204FF0000A0EE0013A4FF0000A75
:10073C0029E013F8010C6C284DD113F8020C6C282D
:10074C004FF00000824649D04FF004082CE00CF129
:10075C00070B2BF0070B07340BF1080C24F00704E4
:10076C0065B106982044B04204D96FF01B0011B05B
:10077C00BDE8F08FDBE900ABC4E900AB4FF0000A39
:10078C0008344FF0080813F8010F002800F082809D
:10079C00BAF1000F92D12528F5D14FF0010A0132A0
:1007AC004FF00408EFE70020013C4444B4FBF8F49C
:1007BC0008FB04F425B1A8EB050EA644B645D4D825
:1007CC0000284AD0E34605985BF8047B0138059075
:1007DC0054E75046A6E700208246E5E74FF00808AC
:1007EC00E2E703994FF0000C01F0020E5AE7B9F161
:1007FC000F0F3FF660AFF5B110A901EB090EC0F376
:10080C0087000EF8200C0EF8102CBCF1000F0ED047
:10081C0060F07F000EF8200C02980130029009F174
:10082C000109C5F108000434DC460690ABE70498D6
:10083C0001300490F3E7BCF1000F01D00136EEE774
:10084C00019802360028EAD13846CDE90623FFF795
:10085C0029FEDDE906230644E1E7B8F1040F08D1CF
:10086C000CF1040115B1DCF80000206004348C4656
:10087C0089E7B8F1080F7FF41EAF0CF1070B2BF0D2
:10088C00070B0BF1080C1DB1DBE90001C4E90001F9
:10089C00083478E7631BB3F5806FBFF40CAF3DB938
:1008AC00A6F10804E01862E7E4820000E89D00006D
:1008BC00019A9B0828602B709DF810308AB16870E3
:1008CC00EB70029BAB702BB1002208A9C5F10100A3
:1008DC00914509D14FF00008C5F1010A0DF1300B1B
:1008EC0035E06B70019BEBE711F8013B13F0800FC7
:1008FC0008D000EB040CB44503F07F033FF635AF92
:10090C0004F8013B0132E3E7029B23B108AB13F976
:10091C000830002B19DB019BEBB118F80B3004F8F5
:10092C00013B00230AEB04021A44B2423FF61DAF0E
:10093C0008AA12F80820394604F8012B20461A465A
:10094C00039307F0AFFC039B1C4408F10108C1455D
:10095C00DAD1601B0BE708AB13F80830019A55F895
:10096C00237045F823203846FFF79CFD431CD9E73C
:10097C006FF00D00FBE607293FF674AEF5E600BFFD
:10098C002DE9F04F97B000AF7B62D7F88030054669
:10099C00C3F3C003FA623B6290F802B0B96249B982
:1009AC008846047846780BEB8404044446451CD8EE
:1009BC00631BBB62BBF1000F20D0D7F8803003F073
:1009CC000104EB78FB611BB1D7F88030980717D482
:1009DC00B4B9FB6A1BB1D7E9092128469847BE6A0E
:1009EC0030465C37BD46BDE8F08F01342046FFF73A
:1009FC0059FD0130044408F10108D7E75C46E0E7F3
:100A0C002B783B619B00BB616B687B61BB6905EB21
:100A1C00030AFB6A002B40F08480BE6A0AEB0B09C8
:100A2C00002C5CD0D0461C46C84543D1D344D7F8E3
:100A3C0080304FF0000913F0050F0CBF0223012387
:100A4C00FB62FB699945CBD20BF1020B1BF8013C05
:100A5C00B84A55F823309342C0F05E81B64A9342AF
:100A6C003A6A2CBF4FF000084FF00108002A38D02A
:100A7C001BF802AC78695146BB6205F009FEBB6AF3
:100A8C0078B3E8468AB06A46AC4B53617B69C2E9DD
:100A9C00063A4FF400731384A94B42F8103F00231D
:100AAC004FF41251A74800F095FCC546023E09F1DF
:100ABC000109C6E718F8013B55F82300FFF7F2FCD3
:100ACC00D7F88430013043B1D7F888309C423EBF10
:100ADC00D7F8843023F8140001340644A4E7CB463D
:100AEC00A5E7B8F1000F06D0D7F88020D10706D4BF
:100AFC00FB6AF61ADBE7D7F880209207D7D51846A1
:100B0C00FFF7D0FCD7F884304BB1D7F888309C4233
:100B1C003FBFD7F88420431C22F81430013406441C
:100B2C00C5E7002C40F0EA80BBF1000F5ED0D7F88F
:100B3C008030580700F1EC80A0460022DA440AF11C
:100B4C000203F9698A4254D3D7F880204FEA41094D
:100B5C006E78D7F8801092070AEB09033B6258BFF6
:100B6C004FEA580204EB060348BF0022C807DBB269
:100B7C0000F18D8011F0040F14BF414600216B7001
:100B8C00A970EA70B9697A6A2846FB6A9847B0F18D
:100B9C00000AC0F2AF803B696E702B70FB6985F860
:100BAC0002B0EB707A6A414607F14800FB6A98473D
:100BBC00061EFFF615AFBB69386A4B4403EB0B01FD
:100BCC00D7E90923591AFB6A98470028C0F2948088
:100BDC004FF0000B5644064407F1380AA34558D38E
:100BEC0000217A6A0846FB6A9847F9E6D8465C46C3
:100BFC00A3E713F8016C4F4855F8261013F8029C24
:100C0C00814203D34C488142C0F08D80396A41B394
:100C1C000021F96078694946C7E9013205F038FDD1
:100C2C00D7E90132D0B9F968D9B1D7F88010C90722
:100C3C0007D507F15800611C044404F8206CCCB2B1
:100C4C000CE0D7F88010480708D507F1580008F1D8
:100C5C000101804408F8106C5FFA81F8013202330C
:100C6C006FE7D7F880108907E3D407F158004044A8
:100C7C0008F1010100F8109C07F1580008F1020876
:100C8C0050FA81F15FFA88F801F8106CE6E7002160
:100C9C0075E71BF80A3087F8373055F82390D7F8EA
:100CAC00843023B3D7F888309B4520D2D7F88430D2
:100CBC0033F81B807A6A012107F13700FB6A9847E9
:100CCC00002819DB0644B8F1000F05D14846FFF7A0
:100CDC00E9FB01301FFA80F87A6A41464846FB6A04
:100CEC009847002808DB06440BF1010B76E74FF020
:100CFC000008DFE7564673E6064671E65C464FF0A1
:100D0C00000807F138005A46514607F0CBFA14E7B1
:100D1C00D84607F14800F6E73A6A002A3FF4EBAEF2
:100D2C004FF00008A4E6396A00293FF47EAF396A17
:100D3C006FE700BFE4820000E89D0000F89300001C
:100D4C0004000001708E00002DE9F84FB0F81890E7
:100D5C00044619F008080DD001290CBF49F0100900
:100D6C0049F02009A0F8189082F31188BFF36F8F17
:100D7C00BDE8F88F09F00709022907D1204605F0D4
:100D8C002FFF0028F0D00128238B4AD16769238BD1
:100D9C00002F15DA2568C4E9008823F0070343F017
:100DAC00010323830026238B03F0070ACA4502D0D4
:100DBC00A168002956D10DB9002E6CD0002152E04B
:100DCC0003F00701481F01281CD823F0070306294C
:100DDC0025689BB2C4E9008802D15DB943F00203D7
:100DEC002383204605F0FCFE0028DBD0238B43F048
:100DFC002003D6E72946608B0130608309680029FF
:100E0C00F9D1EBE704290AD123F0070399B2218326
:100E1C00204605F0E5FE10B141F0200121830025AC
:100E2C00C0E7032809D1216923F007030E6843F0BA
:100E3C000603002523832F46B5E7042806D1216934
:100E4C0023F007034E6843F00403F2E7052806D1AC
:100E5C00216923F007038E6843F00503E9E70025B9
:100E6C002E46E8E7012143F00803238382F311881F
:100E7C00BFF36F8FF1B97DBB16B120492046B04747
:100E8C00EFF31182202383F31288BFF36F8F238B30
:100E9C0023F008032383238BD90627D5012123F0C4
:100EAC0010032383B4F8189009F0070900297FF484
:100EBC0063AF59E7A1680029DDD0D1F80090D1F8D3
:100ECC0004B03B4652462046D847B9F1000FD2D069
:100EDC004946D9F80090F2E7D5F8009029463B46F0
:100EEC005246204605F098FE4D46C4E713F020010B
:100EFC001EBF23F0200323830221D3E7516C000093
:100F0C0030B5002289B00F490F4807F0A3F9002231
:100F1C0000230024CDE906230E230C4DCDE9033428
:100F2C00CDE9014400940A4B4FF44072094928461C
:100F3C0004F0C0FB0849284607F073F8204609B0B6
:100F4C0030BD00BF690F0000E0050020180600202E
:100F5C0045130000700B0020AC940000014804F015
:100F6C00DFB900BFC40100202DE9F0470546074654
:100F7C004FF00108DFF84C9015B93846BDE8F08702
:100F8C0095FAA5F4B4FA84F408FA04F6F6432401AD
:100F9C0009EB040A9AF80C303540002BECD059F8C8
:100FAC0004301B6943B94C446368042219685046E9
:100FBC00374005F00BFFDFE7504698470028DBD1A0
:100FCC00F1E700BFD88E00002DE9F84F8146244888
:100FDC00884605F0E1FE002839D000252846BDE8FA
:100FEC00F88FA4EB0B0362681B1101331371237B85
:100FFC007BB12368DB680BB12046984763689F710F
:10100C0023681B69DBB9636804221968204605F064
:10101C00DDFE013610345445E3D3B9F1000FDDD0B9
:10102C00002DDAD02846FFF79FFF0546B8F1000FD8
:10103C00F6D0002140F2391007F08CF8F0E720468A
:10104C0098470028DFD007FA06F31D43E1E7054C6B
:10105C0006460546A346DFF810A00127DBE700BFD4
:10106C00EC080020D88E0000D88E000010B5044C7F
:10107C00227812B9034804F053F90123237010BDF0
:10108C00480B0020C401002010B50446094805F0A7
:10109C0083FE3CB1084BD3E8EF2F013AC3E8E12FB4
:1010AC000029F8D1054807F0E1F8BDE810400448E4
:1010BC0004F036B9E8080020E0080020E005002024
:1010CC00C40100200020044BD3E8EF2FC3E8E10F4C
:1010DC000029F9D110467047E808002070B5FFF7D9
:1010EC00F1FF0646074C084DAC4200D370BD636857
:1010FC005B792BB123685B6813B131462046984766
:10110C001034F1E7D88E0000D88E000010B5044CD6
:10111C000449204605F0FCFB034B1C6010BD00BFCE
:10112C0088010020288F0000E40800200023054AD5
:10113C001370054A1360054A1360054B054A1A6083
:10114C00FFF7E4BF490B0020E8080020E00800206E
:10115C0000000020A16D0000014600220023014880
:10116C0005F0F8BB88010020014805F092BC00BFD7
:10117C0088010020024B0146186805F0DBBC00BF5B
:10118C00E4080020014805F010BD00BF88010020D4
:10119C002DE9F8432A4B187800284ED0FFF7E4FFCE
:1011AC000546002845D1274B274C1B68002B1DDD1D
:1011BC0007F04EF84FF47A73A0FB038903FB0199F7
:1011CC0047F61222002340464946FFF751F9D4E96D
:1011DC000032C61A4FF0000361EB02074FF47A722B
:1011EC00BB4208BFB24201D2FFF778FFD4E900320C
:1011FC0013F57A7342F10002C4E90032BDE8F843FA
:10120C00FFF7C0BF63685B7923B1236829461B686D
:10121C002046984710344445F4D32846FFF7AAFFDC
:10122C000A4BD3E8EF2F013AC3E8E12F0029BAD0DB
:10123C00F7E7074CDFF81C80EDE7BDE8F88300BF4B
:10124C00480B0020E8080020D8050020E00800200A
:10125C00D88E0000D88E000013B5184805F09CFD00
:10126C00174B1B7873B1EFF31184202383F312888F
:10127C00BFF36F8FFFF78CFF84F31188BFF36F8F71
:10128C0002B010BD0F4B1B68002BF9D050B90022D7
:10129C0000230D48CDE9002347F61222002304F069
:1012AC00B9FFEDE70928EBD1074806F0DFFF074847
:1012BC0002B0BDE8104004F033B800BFE0080020D5
:1012CC00490B0020F0080020E0050020C40100209C
:1012DC0010B5064B04461B6898472146A06004488D
:1012EC0005F0B8FBBDE81040FFF7B6BF00000020CA
:1012FC008801002070B50D4D297861B90120FFF7E8
:10130C0063FE0B4C0B4EB44206D3FFF741FF002893
:10131C00FBD101232B7070BD63685B791BB1236813
:10132C0020469B6898471034EDE700BF490B00201E
:10133C00D88E0000D88E000000212DE9F047084619
:10134C00FFF742FE044648B340F21B66002704F048
:10135C005BFC1B4B186030B11A4B1B68092B02DD70
:10136C00194803F0DDFF0025DFF86490DFF858A082
:10137C0044B12046FFF7F8FD044618B94FF0FF368C
:10138C004FF0FF37FFF704FF804628B9B5B9324656
:10139C003B46504603F0F8FF4546E9E74FF0FF3671
:1013AC004FF0FF37D3E72B689B691BB1002228460F
:1013BC001146984710354D45F5D3E8E7034DFAE74C
:1013CC00F0080020E0080020C4010020D88E0000A6
:1013DC00D88E00002DE9F04F8FB0C1F34A2804AF2E
:1013EC00F8609246BB600C46B8F1000F5CD000254B
:1013FC000423C7E907557D6202930A2307F11406FB
:10140C000093019607F11C032A4641465046FFF70C
:10141C00B7FAB0F5006FC34603461BD36C468AB0CF
:10142C00DAF8043004AA2549C2E9051340F2FF7327
:10143C00D3614FF400731384214B42F8103F4FF4E7
:10144C0012512B461F48FFF7C5FFA5462C37BD464A
:10145C00BDE8F08FC0F30A0868F3532400EB145076
:10146C00173020F0070080087B60FFF775FE81467F
:10147C0088B17B6800F11002C7E908350423FA61D2
:10148C00CDE901630A23104A0093594607F11C0366
:10149C005046FFF775FA68F35324BB682246F96887
:1014AC00484605F0B2FCD1E7080D173020F00700D4
:1014BC008008FFF751FE8146EDE700BFC1940000A4
:1014CC0004000001988E0000EB6D00002DE9F04F38
:1014DC0087B08346DDE91267884692469946109C90
:1014EC00AEB1102100973346119A00200597FFF7F3
:1014FC009DF8B0F5006F01460AD340F2FF73174A0E
:10150C000221174805F0D2FC07B0BDE8F08F314638
:10151C00002504F1170008446FF307056BF3C505AC
:10152C0020F007006AF38815800861F353250391B6
:10153C00FFF712FE64F31F55044638B136B100971D
:10154C003346119A03991030FFF770F84B462A4630
:10155C004146204605F059FCD6E700BF0095000037
:10156C00988E0000014B0360002070473C8F0000F8
:10157C002DE9F047804600AF0C46002936D0D1E962
:10158C000012E9468AB0A3686D464FF0050A2E4654
:10159C001F48C5E90723C5E9050146F810AF00232C
:1015AC0032464FF421511B48FFF714FFD4E90312C4
:1015BC00CD466369AD461848C5E90723C5E9050161
:1015CC00C5F810A0002332464FF421511148FFF703
:1015DC0001FFCD46E369114A01210E4805F066FC76
:1015EC00A3690F4A01210B4805F060FCB8F1010F0B
:1015FC0007D1EFF305830B4A103B4146054805F034
:10160C0055FC2146404603F023FCBD46BDE8F0875F
:10161C0057950000B88E000086950000B595000027
:10162C00C4950000F295000030BFFFF7FDBF00BF6E
:10163C00054B5A699B689A421FBF044A536843F092
:10164C0080535360704700BF100B002000ED00E08A
:10165C0010B5244C2449254805F076FCA26A91016A
:10166C003ED52248224905F06FFC1E20A36ADA0100
:10167C0004D51E481F4905F067FC1F20194CA26AAF
:10168C00D30204D519481C4905F05EFC0220A36A5C
:10169C001C0304D51548194905F056FC2120114CA2
:1016AC00A26A510304D51148154905F04DFC2220BE
:1016BC00A36A9A0304D50D48124905F045FC232072
:1016CC00084CA36ADB0304D508480F4905F03CFC21
:1016DC002420A36A6FEA03436FEA1343A36210BD8D
:1016EC001D20C3E700ED00E065970000B88E0000F8
:1016FC007D97000090970000AA970000D4970000F7
:10170C00F2970000179800003198000070B52A4C31
:10171C0006460D4629482A4905F016FCA26AD10452
:10172C0032D52648274905F00FFC1720A36A1A0565
:10173C0004D52248244905F007FC18201E4CA36A46
:10174C009B0508D51D48214905F0FEFBA36BA26A39
:10175C0010041BD41920184CA36A590504D517483A
:10176C001B4905F0F1FB1A20A36ADA051AD51348B8
:10177C00184905F0E9FB1B200F4A936A43F47F4399
:10178C00936200232B7070BD1620CFE7124A012103
:10179C000A4805F08BFB002EDCD0A36A23F400432F
:1017AC00A362D7E7A36A9B04E6D504480B4905F06E
:1017BC00CBFB1C20E0E700BF00ED00E0B88E000082
:1017CC00059600001B9600002C9600003F9600002A
:1017DC006D9600008896000058960000A0960000B8
:1017EC0070B52B4C06460D462A482B4905F0ACFB30
:1017FC00A26AD3063ED52748284905F0A5FB11203F
:10180C00A36A1C0704D52348254905F09DFB12202B
:10181C001F4CA36A990708D522491E4805F094FB72
:10182C00636BA26A120627D41320194CA26AD6073E
:10183C0004D518481C4905F087FB1420A36A9C06A4
:10184C0004D51448194905F07FFB1520104B9A6AF2
:10185C00D10658BF9A6A9A6A920642BF5A6A22F413
:10186C0000525A620A4A936A43F0FF0393620023C0
:10187C002B7070BD1020C3E70D4A0121054805F0FF
:10188C0015FB002ED0D0A36A23F08003A362CBE714
:10189C0000ED00E0B88E0000CF960000E596000049
:1018AC002C9600001897000046970000A0960000A8
:1018BC00309700002DE9F0438BB06D4B00AFD3F89F
:1018CC0004800025C8F3080685F31188BFF36F8FD9
:1018DC0002F07F43B3F17F4F07D102F00C03082BCA
:1018EC0005D16449644805F02FFB2C4604E012072F
:1018FC004EBF0C46044601250023FB71F31E092B39
:10190C0000F29580DFE803F0058B8E889393939318
:10191C0093914FF0000959495748DFF8548105F06D
:10192C0013FB87F80790D8F82C6016F0020604D049
:10193C005349514805F008FB09E0D8F82C30002B2E
:10194C0001DA5049F5E7D8F82C305B0001D40023BC
:10195C0030E04D49484805F0F7FAD8F81430A26940
:10196C0043F48073C8F81430BFF34F8FBFF36F8FFD
:10197C00D8F8143032F8022C23F48073C8F81430E1
:10198C00BFF34F8FBFF36F8F4DF602739A420AD09D
:10199C00D8F8283013F0FF0F2ED00120F91DFFF7D7
:1019AC001FFF034606E02368384A0121324805F040
:1019BC007DFA2368FA79DAB907F1080604F1200CEC
:1019CC00324620686168083403C264451646F7D174
:1019DC007A6A002D47D0C2F3080121B96FEA52226E
:1019EC006FEA42227A6207F108011846FFF7C0FD40
:1019FC002C37BD46BDE8F083D8F8283013F47F4F60
:101A0C0004D00120F91DFFF781FECAE7D8F8283071
:101A1C001B0C1B04002B9AD0FFF71AFEC1E7F91D13
:101A2C000020BCE7F91D0020EDE7194981E7194AB0
:101A3C0018F4F87FE8468AB0174B18BF13466A466D
:101A4C001649103EC2E905134FF400731384144B6E
:101A5C00D66142F8103F00234FF411510648FFF7AE
:101A6C00B9FCC54673E722F4FF7222F00102B9E714
:101A7C0000ED00E08A980000B88E0000B5980000D8
:101A8C00CC980000ED980000FB9800001A9900001B
:101A9C0036990000719800005C9800005A9900007B
:101AAC0004000001064B5A6942F010025A615A694F
:101ABC0042F480625A615A6922F008025A617047F6
:101ACC0000ED00E0EFF30880EFF3098101B57246F9
:101ADC00FFF7F0FE01BD00BF01F044FD202080F3B4
:101AEC00118808484FF40061401880F30988EFF31F
:101AFC0014800221084380F31488BFF36F8F00F029
:101B0C008DF80000B0130020084B9B6883420BD16A
:101B1C00EFF3058343B1064B5A6842F080525A608A
:101B2C005A6A22F400425A6204F074B8100B002076
:101B3C0000ED00E013498A684FF030001044EFF3D9
:101B4C00098C80E8F01F202080F31288BFF36F8F80
:101B5C000D4F4FF000664A698A603E60506F00235B
:101B6C00536780F3118802F1300090E8F01F8CF37A
:101B7C00098802F1000004B505F0EEF9BDE8044057
:101B8C0070470000100B002004ED00E01EF0040F65
:101B9C000CBFEFF30880EFF30980816911F8021C88
:101BAC000229FFD001B5724605F0C3F901BD00BF93
:101BBC0003B2002B08DB012200F01F0002FA00F038
:101BCC00024A5B0942F82300704700BF00E100E0C5
:101BDC00054B420953F82220012300F01F0003FAA1
:101BEC0000F01040704700BF00E100E003B2002B92
:101BFC0001F10101A8BF03F160434FEA4111B8BFE5
:101C0C00054BC9B2ABBF03F5614300F00F0083F87D
:101C1C0000131954704700BF14ED00E00F4A08B5CB
:101C2C000F4B22F07F029A60BFF34F8FBFF36F8F81
:101C3C00D3F8882022F47002C3F88820EFF31483C1
:101C4C0023F0040383F31488BFF36F8F03F0ECF9D4
:101C5C0004F014F900F042F803F026FA000000003A
:101C6C0000ED00E042F8203C009B0B4942F81C3C84
:101C7C00019B21F0010142F8183C029B42F8081C20
:101C8C0042F8143C4FF0807342F8043C0023203A95
:101C9C0002654367704700BFF166000000B5094B51
:101CAC000E4698601546436E83F30B882C4686F3DC
:101CBC0009880020044B984720460021002200236D
:101CCC00024C2047100B00206D6F0000F1660000E5
:101CDC001022014B1A61704700ED00E00023202018
:101CEC0040F20F1210B5044CE1180133934281F805
:101CFC000003F9D110BD00BF00E100E008B5EFF31F
:101D0C000583064A103B02EBC30152F833004968C5
:101D1C008847BDE80840FFF78BBC00BFF484000087
:101D2C001FB5094C094A23460121094800F008F95E
:101D3C0000230393074B0121E41A01A80193029499
:101D4C0000F008F904B010BD00F0022000000020E3
:101D5C003C8F0000D801002010B50C7A0B6823F0E2
:101D6C001F0204F01F031A43CB68640923F01F03FE
:101D7C00044943EA440343F001038860CA600B61E1
:101D8C0010BD00BF90ED00E010B5094B1B68C3F30C
:101D9C000723013B984208D9064A0346012106480D
:101DAC0005F084F86FF0150010BDFFF7D5FFFBE7C9
:101DBC0090ED00E0B7990000B08E00002DE9F04FD7
:101DCC008846144606460027504D85B0474527DA0D
:101DDC00D6F80490B9F1000F43D0B9F11F0F17D901
:101DEC0019F01F0F14D1D6F800A01AF01F0F0FD145
:101DFC00504605F0D8F8834609EB0A00013805F087
:101E0C00D2F8834510D06FF0150B414A5B4601E0C8
:101E1C003B46404A0121404805F048F86FF0150454
:101E2C00204605B0BDE8F08F1BF1160FEDD05C45D8
:101E3C00EBDDC5F808B0E968C5F808B02B6921F0EE
:101E4C001F0143F01F0AD6E900321A44994202F1ED
:101E5C00FF391BD1CA4507D131465FFA8BF005F02B
:101E6C00ABF801370C36B1E73146C5F808B0EB6872
:101E7C0022F01F0203F01F031A43EA60E0B205F0E0
:101E8C009BF810F1160FC9D0441CEAE7013BCA4578
:101E9C00E0B223F01F03C5F808B006D12A69314619
:101EAC0002F01F0213432B61E9E7296901F01F01BE
:101EBC000B432B61314605F07FF810F1160FADD0B6
:101ECC00C5F808B0EA689DF808300AF1FF3A62F3E9
:101EDC0004038DF808302B699DF808205B0863F328
:101EEC0047128DF80820D6E900321344009323F0F2
:101EFC001F035344A3EB0903013023F01F0369466E
:101F0C00C0B20393FFF740FFBBE700BF90ED00E0CA
:101F1C009499000071990000B08E00000522034BCB
:101F2C005A60BFF34F8FBFF36F8F704790ED00E097
:101F3C00BFF35F8F0022014B5A60704790ED00E0B9
:101F4C0010B5034C2278FFF739FF207010BD00BF8D
:101F5C004A0B00202DE9F74F254C8A468046002776
:101F6C00A1464FF0140B234D57451ADAD8F804301C
:101F7C000193002B36D0D8F800100846009105F0DC
:101F8C0012F8DDE9001306465818013805F00BF875
:101F9C008642194A08D014235F436FF0150349F8A1
:101FAC00073003B0BDE8F08F16F1160F2660F8D09D
:101FBC001378B342F5DD0BFB0793AE60AE60E868B7
:101FCC00197B60F3040119732969187B490861F3C3
:101FDC0047101873EB6823F01F0363602B6923F021
:101FEC001F0323610137143408F10C08BCE700BF50
:101FFC00F408002090ED00E04A0B00202DE9F0439E
:10200C00424C434E22683768C2F30722974287B08E
:10201C0078D80025FFF78CFF3E4B2363AF4217D1D6
:10202C003D4D01A82F70FFF79DFA002607464FF093
:10203C004109DFF8E880B74212D100212B782268E1
:10204C00C2F30722934259DBFFF768FF00203FE001
:10205C007168284601EB0511FFF77EFE0135DDE7BF
:10206C00DDF804C031010CEB0103DA6802EA080266
:10207C00B2F5001F15D0B2F5800F2CD0B2F5801F31
:10208C003AD158685CF801209B68CDE90202212204
:10209C00013B20F01F010B4423F01F038DF810208F
:1020AC000DE058685CF801209B6820F01F01013B93
:1020BC00CDE902020B4423F01F038DF8109002A906
:1020CC0028780593FFF760FE002812DA6FF01500F0
:1020DC0007B0BDE8F08358689B685CF80120013BB1
:1020EC0020F01F010B44CDE9020223F01F0306224E
:1020FC00D4E72B7801332B7001369CE7A360216168
:10210C0001339CE74FF0FF30E2E700BF90ED00E0B9
:10211C00488F0000AAFF44004A0B00200000F0FF8B
:10212C0008B50649064821F00701C1F1005202F535
:10213C003C3204F07CFA002008BD00BFB71F002021
:10214C000809002008B5264A264B1A6000F068F8EA
:10215C0041F6F871244AD2F8240601EA5031C0F352
:10216C000803142083F48073883300FB0313590A8B
:10217C0013F4807F13464FF47A601C4A18BF013168
:10218C00C2F80419D3F82016C1F30803C1F30941AE
:10219C00414342F6041083F4807303F2172300FBCF
:1021AC0003134FF47A701B0AB3FBF0F100FB1133ED
:1021BC00B3F5FA7F28BF01310D4BC2F81C171B6811
:1021CC001C2B07D134220B4B1A600B4A136823F4D7
:1021DC00002313600122054B0020C3F8002608BD24
:1021EC000020A1073000002000C0FF0000001250AA
:1021FC0040C3FF00240612503C06125048B1054B58
:10220C001A68054BB2FBF3F2044B504343F0010345
:10221C00184770473000002040420F00008F00002C
:10222C000122024BC3F80424704700BF002008E0D1
:10223C00084B70B5C31A0D4607499B100446594309
:10224C004022064804F0DCFE2B4601462046BDE841
:10225C007040184724090020B76DDBB68C83000052
:10226C0010B5EFF31184202383F31288BFF36F8F23
:10227C00084A136823F00201DB07116005D4012022
:10228C0005F0E8FC0122044B1A6084F31188BFF3BB
:10229C006F8F10BD740900200CE0105070B5002237
:1022AC000121044640F20510FFF7A0FC0F4801F095
:1022BC0061FA0F4B984215D101F06CFA26690D4961
:1022CC00304604F0DBFC00280BDB01253564246967
:1022DC00084904F11C0004F0D1FC002801DB0020AB
:1022EC00E56470BD6FF00400FBE700BFD123000074
:1022FC000000AD0B888F00000C23104A014603FB35
:10230C000023002030B4D3E90E529863EFF3118010
:10231C00202484F31288BFF36F8F1C6C04F0C0046C
:10232C0044F002041C6480F31188BFF36F8F1DB15D
:10233C002B4630BC0248184730BC7047240900209B
:10234C008C83000010B4EFF31180202282F31288EA
:10235C00BFF36F8F17490B6843F0020413F00103AE
:10236C000C6017D0144BD3F80C3413F4803311D009
:10237C00EFF3118182F31288BFF36F8F0F4A136C46
:10238C0003F0C00343F00203136481F31188BFF31D
:10239C006F8F012380F31188BFF36F8F1BB1002067
:1023AC0010BCFFF7A9BF0120054B186010BC01F051
:1023BC000DBA00BF7409002000E010502409002061
:1023CC0008E0105010B1012804D07047034B1B6C6F
:1023DC005B0701D1FFF790BF704700BF24090020B5
:1023EC001FB500220123CDE902236B46084ACDF824
:1023FC0000D0CDF804D004F041FE002805DB43F6F4
:10240C0009520023684602F0BFFF05B05DF804FBDB
:10241C00837000001A4BF0B4C21A0D469110194A81
:10242C004A43D2B2EFF31186202181F31288BFF315
:10243C006F8F0C2404FB0234216C01F00707012F71
:10244C0011D140212164002186F31188BFF36F8FD5
:10245C0091B90C214A430C491344C3E90E150B4B9B
:10246C00F0BC9B58184701F0C001402914BF4FF035
:10247C00FF316FF07701E7E72B46F0BC184700BF40
:10248C0024090020B76DDBB665700000708F00006A
:10249C002DE9F843012206463549D1E8EF3FC1E862
:1024AC00E02F0028F9D133B9324933484B60CB6067
:1024BC008A6004F0F6FB731E012B2BD8012E06D17B
:1024CC002E4BD3F8503403F00303012B22D005F02C
:1024DC00A2FD18B92A4B1B78002B41D1EFF31189BF
:1024EC00202383F31288BFF36F8F0124234D254FD4
:1024FC00A846D5F84C24D5F84C34D2030CD503F0AF
:10250C000303012B01D0012E06D12CB389F31188C2
:10251C00BFF36F8FBDE8F883CCB1484604F034FDAF
:10252C00D5F8403413F0FF03E3D13A68002AE0D029
:10253C003B603B6820210123134AC5F84034C2F8A4
:10254C00A01102F1E242A2F1F0121360D1E70021D6
:10255C00202005F0FFFDE3E70423C8F80433D9E796
:10256C000422064B0446C3F808238146BEE700BF8D
:10257C0078090020140900204009002000E01050C8
:10258C006C0B002008E1105000E100E04309022B25
:10259C0070B503D0012B16D0BBB170BD0C4C2369A8
:1025AC0059680029F9D0012600F01F000D688640FB
:1025BC008A68324002D04B6820469847002DECD0F8
:1025CC0029462D68F4E7034CE9E7034CE7E700BF25
:1025DC00BC830000A4830000D483000038B5456898
:1025EC002B690BB9002038BD1035284601F0ACFD25
:1025FC0004460028F6D10146284601F061FD0B4B3C
:10260C00984210D122462846094901F02DFD224658
:10261C000121DB20FFF7EAFA2246012140F20D10DE
:10262C00FFF7E4FADEE76FF00400DCE70000AD0B27
:10263C00992500002DE9F04340F206364568D00696
:10264C0048BF4FF0030C2B7B02EA060658BFC2F3BF
:10265C00401C87B001F01F07B6F5807F144647EA8F
:10266C0043178DF803C044D007D8022E16D0062E7F
:10267C0041D09EB16FF0150038E0B6F5007F3CD02C
:10268C0004D8B6F5837FF5D1092607E040F2022283
:10269C00964234D0B6F5407FECD1052601232203B7
:1026AC0003FA01F12DD56B685960286970BB07F0EE
:1026BC001F027F09022F77D83D4B84F4803153F8E9
:1026CC002730C1F3004103EB8202D2F88030C4F30F
:1026DC00404423F4706344EA410423F00F031C4389
:1026EC0044EA8C0444EA0624C2F8804007B0BDE8F2
:1026FC00F0830126D2E70826D0E70426CEE706268B
:10270C00CCE7630344BF6B689960CEE710350DF1DD
:10271C0002023946284601F0B5FC14F4403F8146CC
:10272C000DD13946284605F059FB224B994504D169
:10273C009DF80210284601F015FD0020D6E74FF059
:10274C00000801AB03AA39462846CDE90438CDE987
:10275C000188CDF80C8001F0E9FA164B984289D12A
:10276C0014F4003315D09DF8033084F48034C4F392
:10277C0000448DF80E3003AA4346394628468DF89E
:10278C000C608DF80D4001F0D1FB0A4B9842CCD077
:10279C0070E7CDE9043303AA0DF10303394628464B
:1027AC00039301F0C3FAF0E7203250F82230FFDE39
:1027BC00A08F00000000AD0BF0B5406801F01F04C5
:1027CC00057B87B044EA45140569002D62D0B2F54B
:1027DC00001F00F1100506D12146284605F000FB2C
:1027EC00002007B0F0BD002701AEB2F5800F0197B5
:1027FC0077603AD1B3F1007F0CBF042305238DF829
:10280C0004300023CDE904630393836823FA01F1B8
:10281C0011F001011BD1B2F1A07F18D1620904F0B3
:10282C001F03022A03F120033AD81F4951F8222032
:10283C0052F82330DB070AD40DF103063246214649
:10284C00284601F01FFC194B984219D0029603AA96
:10285C002146284601F06AFA154B98421DD10122F7
:10286C002146284601F092FCBAE7B3F1C06F05D0BF
:10287C00B3F1007F0CBF02230123C0E70323BEE7A3
:10288C003146284601F078FC094B9842DED06FF0B7
:10289C000B00A6E76FF08500A3E76FF01500A0E72B
:1028AC0051F82330FFDE00BFA08F00000400AD0BF9
:1028BC000000AD0BB0B500AF224C204605F028FB54
:1028CC00034678BB21686C4688B06A461E48C2E94C
:1028DC0005014FF4007191831C4942F8101F4FF40D
:1028EC00E2511B48FEF776FD6FF01205A54628460F
:1028FC00BD46B0BD23686C468AB06A461549C2E92C
:10290C0005130123C2E907354FF400739384124B6E
:10291C0042F8103F00234FF431510D48FEF75AFD99
:10292C00A546E4E72269A1681368204623F0020358
:10293C0013600B68002201219847051EDADB002585
:10294C00D5E700BFD4830000549A000003000001B7
:10295C00808E00006B9A00000500000102780B6964
:10296C00012A0AD01AB1022A09D0064A00E0064A06
:10297C001A6203F1100002F0D3BC044AF8E7044ACF
:10298C00F6E700BF0100AD0B0000AD0B0100AE0B74
:10299C000200AE0B2DE9F04F89B002AFC7E902324D
:1029AC0043688046D3F828A09B8B0C46D0F8109037
:1029BC003B614FF0FF324FF0FF33484602F0E4FC2E
:1029CC0009F110037B61002600230022786902F0D4
:1029DC00DBFC3346FA68964201D3002359E0207A97
:1029EC00020700F19480FA6801369642D4F800E0B0
:1029FC000AD2850708D4227D80EA020505F001057C
:102A0C0002F004022A4321D0002B4CD10EF060427C
:102A1C00B2F1005F49D10025D4F800B0A388BA68A0
:102A2C00217A404600925A4600F0C8F8031E30DB6B
:102A3C0043F609520023786902F0A6FC002848D01E
:102A4C00404600F06FF86FF0040322E00125626845
:102A5C00396903EB020C8C4529D96C468CB0D8F83B
:102A6C00000002A92B4DCA61C1E905533B690A4616
:102A7C00C1E9083040F203530B85274B42F8103F55
:102A8C0000234FF451512548FEF7A4FC6FF01B03B3
:102A9C00A5467B61484602F043FC7B691C3718460F
:102AAC00BD46BDE8F08F0025D1E71D46CFE7C10735
:102ABC0006D40AEB030071467B6005F0F3FB7B68E0
:102ACC00626813449BB26DB9002BA4D01D46D3464B
:102ADC00A5E7D9F82030124A9342B4D1237ADB0708
:102AEC0002D400230C3475E7D345FAD1A34607E092
:102AFC00AD1AADB20AEB0501DBF80C0005F0D2FB08
:102B0C00ABF10C0BDBF810209542F1D2E9E76FF03A
:102B1C008503BEE7B29A000006000001908E00000B
:102B2C000000AD0B73B544680DF107012368D3F8B1
:102B3C000056D3F8046604F0CFF99DF8073013B9AA
:102B4C00204601F025FF3146284602F003F99DF896
:102B5C000710054629B9606A04F0F1FB204601F024
:102B6C0007FF044B9D4214BF6FF00F00002002B012
:102B7C0070BD00BF0000AD0B08B5436811F001003B
:102B8C000AD1C1F34201012909D002290DD0094A09
:102B9C000121094804F081F96FF0150004E04FF0B1
:102BAC00CC721B68C3F8242508BD1B684FF0C862A3
:102BBC00F8E700BFC09B0000908E0000F0B50E46F9
:102BCC001C46174689B04568122200210DF10E00F3
:102BDC0005F076FB06F001038DF80C30BDF83830AB
:102BEC0004948DF80D30AB8D0697A3420AD2104891
:102BFC000093104A2346012104F062F96FF01B0088
:102C0C0009B0F0BD16F0020F0CBF2022002203A960
:102C1C00284601F0DDFE084B984207D00B33984252
:102C2C000CBF6FF00F006FF00400E9E70020E7E73E
:102C3C00908E0000D29B00000000AD0BB0B5054695
:102C4C00446800AF236A98470121606A04F077FB5F
:102C5C002B46A26904F10801204601F053FE104BEB
:102C6C00984217D06C4688B02B686A460D49C2E969
:102C7C0005134FF4007393830B4B42F8103F0B4832
:102C8C0000234FF4E251FEF7A5FB6FF00400A546BC
:102C9C00BD46B0BD0649284604F033F9F8E700BF3D
:102CAC000000AD0BA09B000003000001908E000003
:102CBC006973000030B483689C6984B1130207D532
:102CCC00012305698B402D682B4218BF82F0C0622E
:102CDC00054BA44630BC134002F0B07260476FF055
:102CEC00570030BC704700BF400000062DE9F04F84
:102CFC000025012750F8103C89B05C680DEB0702E9
:102D0C000095ADF80450A38806462068059205226C
:102D1C0006920722CDF808D003978DF810508DF845
:102D2C001C20022202A904F032FBA8420DDA304624
:102D3C0002F04EFC226912F0986F03D0A068217B40
:102D4C00FFF7B8FF09B0BDE8F08FB946DFF88C800B
:102D5C0098F8003008AA134413F81F2C98F8013087
:102D6C001A4227D10135152D08F10208F0D105239F
:102D7C0006228DF800302068A38803920222CDF839
:102D8C0008D08DF81020012202A904F000FB0028C5
:102D9C00CDDBA068257B0769836802A95B6898472F
:102DAC000028C4D13B68029A5A400123AB401A4216
:102DBC00C0D0BCE731690029D4D056F810BC0F68DC
:102DCC0009FA05FA8A681AEA020202D04B685846D8
:102DDC009847002FC6D039463F68F3E7199C00008E
:102DEC00F8B5456807460669286805F091F810B9EA
:102DFC006FF01200F8BD37607C6894F82030002B1F
:102E0C007AD194F82230002BE36914BF00220222FD
:102E1C00D80701D442F00102C121204604F0C6FAC1
:102E2C000028E7DBE369D90600F18C8013F0200F52
:102E3C0014BF0222012294F8213033B13F339B009E
:102E4C0003F00C031A4342F01002C221204604F096
:102E5C00ADFA0028CEDBA8680028CBD07C68A3692B
:102E6C00217D13F0010FA1F17D010CBF0222012283
:102E7C00C9B2204604F09AFA0028BBDB217D02225D
:102E8C0081F08001204604F091FA0028B2DBA8689A
:102E9C0005F03EF80028ABD0B5F80EC0A868297B29
:102EAC004CF480320123076903FA01F43B681CF0EF
:102EBC00010F14BF2343A343D0F808E03B60DEF8B6
:102ECC0000309847002895DB01222B7B204802FA22
:102EDC0003F3C6E90203A868311D8368DB699BB361
:102EEC009847002886DB1B4B73612A69A868297BED
:102EFC00BDE8F840FFF7DEBE0422DB21204604F0DB
:102F0C0055FA0028FFF676AF0122DC21204604F0AA
:102F1C004DFA0028FFF66EAF94F82030022B7FF4A8
:102F2C0070AF0022D221204604F040FA0028FFF6B0
:102F3C0061AF0122D321204604F038FA0028BFF6F5
:102F4C0060AF57E7002276E76FF0570052E700BFFB
:102F5C00E3730000F92C0000036803F01F025B0907
:102F6C00022B02609ABF024A52F8230000207047DD
:102F7C00D09000002DE9F04F9246074640F2FF1822
:102F8C00DFF85C9185B000EB81018F4201D100200C
:102F9C001AE03B68C3F3C322082AC3F3080400F207
:102FAC009A804E481B0E444508BF4FF0FF34052B4A
:102FBC00865C71D040D8022B6BD008D8002B54D033
:102FCC00012B62D06FF0850005B0BDE8F08F032BAC
:102FDC0067D0042BF6D14FF0000BCAF80046621CE8
:102FEC0028D003A801250394FFF7B6FF039B05FA2D
:102FFC0003F383603A6803A802F40043002B0192A8
:10300C001CBF4FF0010B00250394FFF7A5FF039B9A
:10301C00019A00EB8300D0F88030C2F341223602D3
:10302C0046EA8202154303EA09031D4345EA4B05B0
:10303C00C0F880500437A8E70C2B35D00CD8062BE1
:10304C002FD00B2BBED1CAF8004606BB0025082694
:10305C00601CEFD0AB46CDE7152B28D0382B29D0F0
:10306C00142BAFD1CAF8404518E0CAF80446631CCB
:10307C00E0D04FF0010B03A80394FFF76DFF039B07
:10308C005D460BFA03F34360B4E7CAF80C4600251F
:10309C00DEE7CAF81046EAE7CAF804464FF0010B1F
:1030AC009DE7CAF80846F2E7CAF80446CDE7CAF825
:1030BC004445ECE703A80394FFF74EFF039B01255F
:1030CC0000EB8300D0F8802022F0E04242F08042F6
:1030DC00C0F88020BCE76FF0150075E74B9C000032
:1030EC00F0F0FCFFF8B5446800AF054604F0A8F911
:1030FC00A06A28B90021284604F01BFABD46F8BD89
:10310C0004F006FF0346B0B9A26A6C4688B0116899
:10311C006A461648C2E905014FF4007191831449BF
:10312C0042F8101F13484FF4E251FEF753F96FF0B9
:10313C001200A546E2E7B4F82EC0A06A94F82C1051
:10314C004CF400320123066903FA01F433681CF0D5
:10315C00010F14BF2343A343D0F808E03360DEF81B
:10316C00003098470028C5DAC8E700BF549C00001F
:10317C0003000001C88E0000436893F8303023B17F
:10318C00012B06D06FF015007047034889B204F08C
:10319C00BABA89B20148FAE7A8910000709200000F
:1031AC00436893F8303023B1012B06D06FF0150033
:1031BC00704789B2054804F0A6BA036989B21B7E30
:1031CC0013B1034804F00FBB0248FBE79C910000CD
:1031DC007C9200004C92000013B5446894F8303097
:1031EC002BB1012B1CD06FF0120002B010BD0DF1F1
:1031FC000603124804F099FA163002D16FF015004C
:10320C00F3E728349DF806202221204604F055FBD4
:10321C000028EADB01222321204604F04EFBE4E7E0
:10322C000DF10603064804F080FA1630E6D09DF83E
:10323C000620682104F12800EFE700BFA8910000E8
:10324C007092000037B540680D4690F830302BB1C5
:10325C00012B44D06FF0120003B030BD00F12804F4
:10326C000DF107022321204604F0F5FB0028F3DBC7
:10327C009DF807300DF10702012B0CD122212046BD
:10328C0004F0E9FB0028E7DB2A469DF807101A48F2
:10329C0004F039FAE0E73521204604F0DCFB002885
:1032AC00DADB9DF807300DF107025B060AD43621F4
:1032BC00204604F0D0FB0028CEDB2A469DF80710F0
:1032CC000E48E5E73721204604F0C5FB0028C3DB98
:1032DC002A469DF807100A4804F085FABCE70DF160
:1032EC0007026821283004F0B6FB0028B4DB2A461C
:1032FC009DF807100348CBE7A8910000A0920000AE
:10330C00AC92000070920000002330B5446885B088
:10331C00ADF80E3094F8303000692BB1012B1AD077
:10332C006FF0120005B030BD0DF10E031F4804F014
:10333C00FCF9163002D16FF01500F3E7BDF80E3032
:10334C0004F12800012B4FF008020CBF2A212B217D
:10335C0004F0B3FAE6E7057E0DF10E03DDB1144877
:10336C0004F08AFABDF80E30124AD35C0422ADF890
:10337C000E301630DFD00723BDF80E00934000FA54
:10338C0002F2D2B294F82C100092DBB26F22A06A37
:10339C0004F039FAC6E7084804F06EFABDF80E30AE
:1033AC00064AD35C2A46ADF80E30E2E79C91000049
:1033BC007C920000A89C00004C920000A39C000092
:1033CC0010B500220121E420FEF710FC002000F0D3
:1033DC00D1FF114B0446984208D11049012001F04D
:1033EC0061F8A04205D00E4B984211D04FF0FF303F
:1033FC0010BD67220B4B02201A60FFF749F80A4AEE
:10340C000020D2F8183723F44033C2F81837EFE70E
:10341C006FF00B00ECE700BF0000AD0B2C000020A0
:10342C000200AD0BAC0A002000200E50F7B51F4671
:10343C001646684600F06CFFDDE90023BB4208BF6E
:10344C00B24211D3094CD4E9005C711B21F01F036B
:10345C0067EB0C0049095B1940EB0C0241EAC060B8
:10346C00C4E9003202F0DAFD03B0F0BD980600208A
:10347C0007B5684600F04CFF009B06490198D1E95E
:10348C0000219B1A60EB01005B0943EAC06003B0AA
:10349C005DF804FB98060020F0B5431C85B018BFFE
:1034AC0020EAE07602A808BF6FF0004600F030FF7B
:1034BC00029B1049D1E900279C1A039B204663EB21
:1034CC00070529462023C3FB0601002908BF402815
:1034DC0036BF20240B4600234FF0010128BF20F0FB
:1034EC001F041219009147EB0303034801F03EF847
:1034FC0005B0F0BD980600202400002003689A0750
:10350C000CD50368DB070DD50922074BC3F80C2536
:10351C000F22C3F8042501221A60FEE7034B036057
:10352C00EF3B0360704700BF00801050F000FA5072
:10353C0003689A070CD50368DB070DD50922074BE6
:10354C00C3F80C250F22C3F8042501221A60FEE7EC
:10355C00034B0360EF3B0360704700BF00801050CB
:10356C00F000FA50012208B52B4B2C48C3F8002868
:10357C00FFF7C4FF2A48FFF7C1FF2A48FFF7D8FF1F
:10358C002948FFF7D5FF2948FFF7B8FF284AD2F89A
:10359C008C3043F44063C2F88C300022D30003F526
:1035AC007F0303F54043D3F8001401310AD0D3F85C
:1035BC00001439B1D3F800140132D3F80434402A82
:1035CC000B60EBD11B4B1A68FAB11B4B1B681C2B05
:1035DC000CD11A4B1A681A4B9A4219D93422194B2E
:1035EC001A60194A136823F4002313600323174A43
:1035FC000F49C2F81835D1F88C3043F44063C1F848
:10360C008C300023C2F8A03508BDC8221A60DCE754
:10361C000F4B104A1A60E1E70000125000C50D5024
:10362C0008C50D5010C50D5018C50D5000C70D50D4
:10363C0000ED00E04004125040C3FF0034C3FF0013
:10364C00001D0A18240612503C06125000B00450FB
:10365C004006125040E0A91E70B501250268AAB1BF
:10366C00B2FA82F3C3F11F03DBB205FA03F422EAC8
:10367C000404D0E8EF6F964204D1C0E8EC4FBCF1E3
:10368C00000FF6D1EAD102480B7070BD0148FCE77F
:10369C000000AD0B0200AD0B10B50268CA40D30799
:1036AC0010D401238B40026843EA0201D0E8EF4FAB
:1036BC00944204D1C0E8EC1FBCF1000FF6D1F2D15A
:1036CC00014810BD0148FCE70000AD0B0400AD0B38
:1036DC00F7B5054618B301281FD104224FF48073A7
:1036EC00712123480024C0F80813012142F21076FE
:1036FC0002F1A04203F1A04303F5871302F58712F0
:10370C0011601C608D421B68194F8DF8074008BF73
:10371C000DF1070445B1012D1CD003B0F0BD1422EE
:10372C004FF484730421DCE7D7F84C34C3F3004323
:10373C00DCB1D7F84C2402F003022270002BECD041
:10374C009DF80730002BE8D1012004F081FA013EEE
:10375C00E0D1E2E7D7F80C3403F48032C3F3004332
:10376C001CB1B2FA82F25209E7E7002BECD1D4E794
:10377C0000E01050044B1A7922B9012218601A711A
:10378C000248704702487047B00A00200000AD0B99
:10379C000C00AD0B08B50A4B1B6843B140F2051089
:1037AC00FEF716FA18B940F20510FEF701FA0022DE
:1037BC00044BC3F840240122034B1A7008BD00BF10
:1037CC00B00A002000E010506B0B002010B510B1B7
:1037DC00012843D010BD264AD2F84C14D2F84C34F0
:1037EC00C90323D503F00303012B04D01BB1002024
:1037FC00FFF76EFF00231E4A0420C2F8403410224B
:10380C004FF48473002103F1A04303F5871319606F
:10381C001C68012402F1A04202F587121460154ABB
:10382C00126802B3124BC3F80403D3E7D2F848343E
:10383C0013F00103DFD0D2F850349B07D7D40D4BD3
:10384C001B683BB90C4B1A68002AFCD000221A608A
:10385C001B68BFE70423C2F80433BBE700224FF414
:10386C0080737120CEE71A68002AFCD01960EFE74C
:10387C0000E01050B00A002008E1105010B5364B93
:10388C001A684AB10020012218601B68334BC3F838
:10389C000823334B1B689847324B1A686AB10022D5
:1038AC001A601B682D4BD3F84C24D3F84C24910789
:1038BC0049D10122C3F840241A612B4B1A684AB132
:1038CC00002202201A601B68244BC3F80803244B07
:1038DC001B689847254A264C13688BB100234FF47C
:1038EC0088701F494B71136012681C4AC2F8080398
:1038FC00236023682023C2F804330B680720984701
:10390C00236873B1154BD3F80423920609D5002212
:10391C00226022682022C3F80823114B08201B6860
:10392C009847144B1A68B2B100210D4A0920517105
:10393C0019604FF48C711B68084BC3F8081313689B
:10394C00BDE8104018470422C3F80823044B01209B
:10395C001B689847B1E710BD00E1105000E0105013
:10396C00B00A002008E1105004E1105010E1105092
:10397C0014E1105018E11050036803F01F025B09AA
:10398C00022B02609ABF024A52F8230000207047B3
:10399C00D0920000034A4309D35C00F01F00184486
:1039AC00C0B27047C49C000010B504460846FFF72F
:1039BC00F1FF362303FB0400034B083033F81000EF
:1039CC00C0F3401010BD00BF3400002010B50446F9
:1039DC000846FFF7DFFF362303FB0400024B0830D9
:1039EC0033F81000400B10BD3400002070B50446B5
:1039FC000846FFF7CFFF36222379184902FB030351
:103A0C00083331F81320084612F4807F25D0C2F316
:103A1C00432122F4F85220F813206C22002623793B
:103A2C0002FB0302103232F8025B15F4807F03D0E4
:103A3C00C5F34325A94210D00136232EF3D16C22B5
:103A4C000025534303EBC103C5502379BDE87040F7
:103A5C0002FB03006030FFF71FBE70BD3400002076
:103A6C00F0B50023074687B0124E134D019103ACFD
:103A7C0016F8012B06A901EBD20111F8141C02F067
:103A8C00070221FA02F2D20705D40133032BEFD13E
:103A9C00002007B0F0BD95E8070084E8070054F853
:103AAC0023100A6A47F823200A62002AEDD001206D
:103ABC00EFE700BFD49C0000E08E000010B5044678
:103ACC000846FFF767FF3622237902FB0300044BFD
:103ADC00083033F8100080F00200C0F3400010BD35
:103AEC00340000202DE9F341054608460C46FFF74B
:103AFC0051FF36222B79204E02FB0303083336F894
:103B0C0013300746DB0734D5284604F042F995F804
:103B1C00048021464046FFF747FF58B14046FFF767
:103B2C0055FF2B6800B203EB80000023C0F8103562
:103B3C00C0F8103521462846FFF758FF3623287960
:103B4C00019403FB00700023083026F8103001A804
:103B5C00FFF712FF019B00EB8300D0F88020074B8E
:103B6C00134043F00203C0F88030054802B0BDE8B2
:103B7C00F0810448FAE700BF34000020F0F0FCFFAD
:103B8C000000AD0B0400AD0B2DE9F04F0D46D0F845
:103B9C001413AA6DC9B287B041F40031824604F007
:103BAC00D1F8820307462ED50023696E03A8CDE910
:103BBC0003330593FFF754FFDFF86891DFF868B122
:103BCC000DF10C0819F8013B05EBD30292F86420B7
:103BDC0003F0070322FA03F3DB076CD4504B08F114
:103BEC0004084B450BF1010BECD14FF40031AA6DDD
:103BFC00504604F0A7F8696E03A8FFF731FF0028C0
:103C0C00DAD127F400370124002F73D107B0BDE8B7
:103C1C00F08F93FAA3F3B3FA83F39BF8004001936C
:103C2C0043EA44142046FFF7B5FE083035F810106F
:103C3C00019B890801F00706F2B200920122D80814
:103C4C0018F800C003F0070302FA03F32CEA03038D
:103C5C0008F8003002A80294FFF78EFE029B11F0C8
:103C6C00040F03F1200350F82330009AC3F30143EF
:103C7C0026D021462846DEB204F045F802A802946C
:103C8C00FFF77AFE029B203350F82330C3F3014335
:103C9C009E4207D10021204604F026F831462046EA
:103CAC0004F022F802A80294FFF766FE0122029BA0
:103CBC0002FA03F30362D8F80030002BA9D18DE788
:103CCC00022B0CBF0321022120460192009304F029
:103CDC000BF8032E019A04D0009B022B06D1012A6B
:103CEC00E0D12146284604F00EF8DBE7032BD9D1AE
:103CFC00022AF5E797FAA7F3B3FA83F304FA03F26F
:103D0C000AEB8303D3F8101527EA0207D3F8102522
:103D1C00C1F30811C2F30142284603F0F4FF73E724
:103D2C00D79C0000D49C0000D49C00002DE9F043EB
:103D3C00174685B0044608460D46FFF72BFED7F80C
:103D4C0000900646B9F1000F36D036222079744B1C
:103D5C0002FB0062083233F81220984612F0020F70
:103D6C0006D0FFF721FE18B16E4805B0BDE8F08310
:103D7C0000224B468DF80E208DF80F20CDE9002245
:103D8C000DF10E010DF10F02284603F065FF3620F0
:103D9C00227900FB0262083238F8121021F002017D
:103DAC0028F81210237900FB0363083338F813202A
:103DBC0042F0010228F813207B683BB34FF0360E1B
:103DCC00217918780EFB0161D3F804C0544B0831EB
:103DDC0033F8112012F0020F1DD0BCF1000FC3D12B
:103DEC004FF0360E21790EFB0161083133F811C00A
:103DFC002CF01C0C23F811C022790EFB0262083245
:103E0C0033F8121041EA800023F81200BB68002B33
:103E1C0046D14548A9E722F4604222F0200223F85B
:103E2C001120BCF1000FDBD003289DD87A682168E3
:103E3C00526892F800C00FFA8CF230B901EB820193
:103E4C00C1F81005C1F81005CAE792001144D1F869
:103E5C00108528F00308C1F8108521680A44D2F8AF
:103E6C00101521F4473121F47C71C2F8101541F67C
:103E7C00F071D2F8108501EA051148EA004841EAD0
:103E8C000801C2F8101522790EFB0262083233F8D1
:103E9C00121041EA4C3C4CF0200C23F812C09FE766
:103EAC002946D3E900872046FFF7A0FDB8F1000FA3
:103EBC00AFD06C2320791A4D4343EA18EB58984540
:103ECC0004D153689F4201D100210DE06C2303FB08
:103EDC0000500DF10F016030FFF7BEFB124B984202
:103EEC007FF443AF9DF80F104FF06C0C2379C80092
:103EFC000CFB030345F8038022790CFB02022A44D5
:103F0C0057603622237902FB0366083635F81630E3
:103F1C0043EA412343F4807325F8163079E700BF58
:103F2C00340000200400AD0B0000AD0B2DE9F04374
:103F3C00044685B008460E4691461F46FFF72AFDFB
:103F4C000546B9F1000F34D02046FFF7B7FD94F8C1
:103F5C00048020B14046FFF727FD002879D1362296
:103F6C0002FB08583C4B08F1080833F81820984617
:103F7C0012F01C0F03D099F80130012B69D00123EA
:103F8C008DF80F30002309F10102CDE900930DF1FA
:103F9C000F0109F10203304603F05EFE362223794D
:103FAC0002FB0353083338F8132042F0030228F8BD
:103FBC0013201FB9294805B0BDE8F08331462046CF
:103FCC00FFF77CFD002844D14FF0360C397823687C
:103FDC004FEA810E7344C3F81005C3F8100523791A
:103FEC001D4A0CFB0353083332F8130020F46040D5
:103FFC0020F0200022F813007B78002BDAD0B87860
:10400C0027681B047744D7F81085DFF858E003F4D1
:10401C00403308EA0E0EC7F810E5D7F810E5000596
:10402C0043EA0E0341F6F07E0EEA061600F4801009
:10403C0033430343C7F8103520790CFB005008308C
:10404C0032F8103043EA413141F0200122F81010CF
:10405C00B0E70348AFE700BF340000200000AD0B11
:10406C000400AD0B0FE0ECFF70B56C260479044D29
:10407C0006FB0454A160037906FB0353DA6070BDA0
:10408C003400002070B5047915462046FFF78CFCEF
:10409C0068B10846FFF77EFC362303FB0400054B92
:1040AC00083033F8103004485B0B2B7070BD03489C
:1040BC00FCE700BF340000200000AD0B0400AD0B8A
:1040CC002DE9F041804606796C201C4D00FB06570B
:1040DC0097F868407CBB384621464622103004F0E5
:1040EC00EFF8214601248C46D8F80000BF6D8F42B2
:1040FC0013D10023C0F84431D0F84431C0F3083058
:10410C000130FDF755FD6C2303FB065501230C48CC
:10411C0085F868302B66BDE8F081CBB29B0003F5C7
:10412C0080729B0804FA03F39B0344BF40F802C05F
:10413C0083580131DBE70348EDE700BF3400002072
:10414C000000AD0B0C00AD0B6C210379044A01FB94
:10415C00032393F86800003018BF0120704700BF9C
:10416C00340000206C220079024B02FB00305C30E2
:10417C00FFF792BA340000206C220079024B02FB4C
:10418C0000305C30FFF768BA34000020F7B50368E4
:10419C001746D3F81423064692035CBF4FF4003243
:1041AC00C3F8142304790D462046FFF7FDFBF0B14C
:1041BC003046FFF783FCD0B12046FFF707FC002404
:1041CC0003B29A00316802F58073CC50CB58336837
:1041DC001344D3F8102542F00102C3F8102527B17F
:1041EC00012332688340C2F8143303B0F0BD284673
:1041FC00FFF7D0FB362303FB04000D4B083033F8DC
:10420C001030C3F38203042B0FD0052B04D10221F1
:10421C00284603F069FDE8E701A80195FFF7ACFB20
:10422C00019AC368D340DB07F1D50321F0E700BF47
:10423C003400002001490248FFF7A6BC34000020DE
:10424C0000A00D5001490248FFF79EBCA0000020C1
:10425C0000C01050074B027AD3F8101521F0010161
:10426C000A43C3F810250268C3F8A4264268C3F8B1
:10427C00AC26704700200E50012303FA00F010F01A
:10428C00670F0AD0064B5B6820EA0300054B10F061
:10429C00670F054808BF184670470448704700BFB1
:1042AC000C0100200400AD0B0000AD0B0800AD0BA1
:1042BC0070B5002367240126027A94FAA4F1B1FAAE
:1042CC0081F1914203F1010519D100210C24120155
:1042DC0002F1A04202F56222C2F82C150B4ADBB2A5
:1042EC0004FB03230168D96041681961017A1975CF
:1042FC00012303FA01F193680B43936070BD06FA36
:10430C0001F124EA01042B46D7E700BF0C01002081
:10431C00002300222DE9F048C0E90023114BD3F80B
:10432C0010359B071BD5EFF31181202383F31288E3
:10433C00BFF36F8F00260C4F3446D7E900BC0CF04E
:10434C00404554EA0503F7D1CCF31303C0E900B39D
:10435C0081F31188BFF36F8F0448BDE8F0880448DF
:10436C00FBE700BF00200E5040270E500000AD0BA5
:10437C000100AD0BF0B5404D85B02C78002C76D1FA
:10438C003E4A01AB07CA83E807003D491846D1F8FD
:10439C00102522F00202C1F81025FFF75BFF07235E
:1043AC002246672101F001000244013BD2B24FEAE0
:1043BC005101F7D1052A5CD11A4601272E48002459
:1043CC0067265FFA82FC96FAA6F15FFA84FEE64550
:1043DC00B1FA81F145D30132052A017500F10C00C7
:1043EC00EDD10120002427499A0800FA02F212F0BC
:1043FC00670F1CBF5C505A580433302BF4D1E420A7
:10440C00FDF7D6FB1E4B2049D3F8182703F5C073D4
:10441C0022F4403242F48032C3F89825D3F890232A
:10442C0022F00202C3F8902340F6FF72C3F8A821D1
:10443C0000221A60A3F5807004338B420260F8D11D
:10444C0001240F4B11481C66114B1A68114BB2FB1F
:10445C00F0F25D202343504398470F482C7005B071
:10446C00F0BD07FA01F126EA01060134ABE70B486F
:10447C00F5E70B48F3E700BF0C010020EC8E0000C1
:10448C0000200E5000210E50B0210E5040420F0063
:10449C0030000020108F00000000AD0B0C00AD0BA5
:1044AC000100AD0B73B52A4C054663680E4603F04C
:1044BC00010304F1140101A80193FFF7CDF8254B7A
:1044CC0098423DD100233370636823F0010363608D
:1044DC00A36843F00103A3601F4BD3F81025960784
:1044EC0032D4D3F8102542F00202C3F81025C5B11E
:1044FC00D3F8482712F0010202BFD3F8481741F055
:10450C000101C3F84817144BD3F84017D3F84417DC
:10451C004C00F9D42AB9D3F8482722F00102C3F889
:10452C0048270E4B0E4A1B68B3FBF2F30A4A03EB07
:10453C0043135BB1D2F84017D2F84417490001D4A9
:10454C0002B070BD013BF4E70648F9E70648F7E70F
:10455C000C0100200000AD0B00200E50300000209C
:10456C0040420F000C00AD0B0700AD0B2DE9F041E4
:10457C000446007A1D461746FFF77EFE184B9DF841
:10458C0018609842804627D12046FFF791FEEFF342
:10459C001181202383F31288BFF36F8F227A114B82
:1045AC009200134400221A60227AC5F313051201FB
:1045BC0002F1A04202F562221B68C2F82075C2F813
:1045CC00245581F31188BFF36F8F2EB10123227A0A
:1045DC009340054AC2F824334046BDE8F08100BF41
:1045EC000000AD0B00210E5000200E502DE9F341C0
:1045FC000020254B0126D3E9012121EA020101F01B
:10460C0067010C46074614BB4FF001081F4B1E4DAB
:10461C00D3F820630640287D02B208FA02F3334235
:10462C000DD0E96859B1120102F1A0422F6902F5CF
:10463C006222D2F82435D2F820250097884701341D
:10464C00052C05F10C05E6D102B0BDE8F08194FA19
:10465C00A4F5B5FA85F5AB0003F580729B0806FA54
:10466C0003F319420BD002F1A04202F56222D2F8F8
:10467C0000C0BCF1000F02D017601268184306FA94
:10468C0005F524EA0504BEE70C01002000200E50BD
:10469C0010B5154BD3F80443E1040AD5D3F83021F7
:1046AC0003F598732AB100221A601B680F4B1B6824
:1046BC009847A20408D50E4B1A682AB1002018603E
:1046CC001B680C4B1B68984763040BD50A4B1A6884
:1046DC0042B100221A601B68064B0120BDE8104055
:1046EC001B68184710BD00BF00E01050B80A00202E
:1046FC0034E11050BC0A002038E1105010B4CC7BCF
:10470C008A6803682CB9D1E90041C3F80046C3F8A4
:10471C000416C3F82425282302795343054AD35899
:10472C002BB1006810BCC0F30830FDF741BA10BCC7
:10473C00704700BFC00A0020036870B503F01F0269
:10474C005B09022B1ED840F60C04134E134D56F881
:10475C00231001EB8201D1F880202A402243C1F8BA
:10476C008020426802F01F015209022A0FD856F825
:10477C00222002EB8101D1F880302B402343C1F879
:10478C00803070BD0023203253F82230FFDE00232E
:10479C00203153F82130F9E7DC920000F0F0FCFFF7
:1047AC0070B50C4686B00221054603F068FB20214B
:1047BC000646284603F063FBD0B1D6B9A3684FF484
:1047CC008041C5F808330223A360A3682846C5F8C6
:1047DC00043303F054FB18B1D5F800329B0502D416
:1047EC0001232B616B60012384F8233006B070BD6C
:1047FC00A6B3E3695E060AD494F823303BB921468C
:10480C00284603F00BFB80F0010084F82300E369D9
:10481C0013F0040339D1C5F83831D5F83821C5F86F
:10482C003431D5F8343194F8253013B194F8233061
:10483C0003B300230121C5F80032A3602F4BC5F848
:10484C000833C5F30F33C3F3431203F01F0301FA0C
:10485C0003F32B49603241F822300BE04FF48061B6
:10486C00284603F00CFB94F8203043BB94F8253019
:10487C00002BDFD0238CADF80430E368049323695C
:10488C00029363690593A3690393D5F8C43498071D
:10489C00C5F8C43423D501238DF8003094F82530A5
:1048AC000BB984F82430E3695B0703D594F8233003
:1048BC00002B9BD0D4E900316846984796E74FF41B
:1048CC000073C5F800322223A3600C4BC5F80833E3
:1048DC00A368C5F8043301232B652B6186E75907C0
:1048EC0001D50223D8E7DA0701D50323D4E794F8DE
:1048FC002330002BD0D00423CEE700BF2264F81F56
:10490C0000E100E02DE9F04128270579154C6F43B3
:10491C008046E0190E4690F8221009BB8160E251E6
:10492C00436080F8251080F8241086B1B37B80F8A2
:10493C00273013B93046FFF7FFFE282303FB05434E
:10494C00727B314683F826204046FFF7D7FE28239A
:10495C0003FB05440123044884F82230BDE8F081B0
:10496C000248FBE7C00A00200000AD0B0C00AD0BA9
:10497C00062102680379C2F800152821034A01FBBD
:10498C000323022283F82220704700BFC00A0020B4
:10499C00282110B5002403790B4A01FB03239C60EA
:1049AC0001680A4AC1F80823D1F8002222F0FF520C
:1049BC0022F4BC52C1F800220122C1F8004583F850
:1049CC00222083F8244010BDC00A00202264F81F66
:1049DC0028232DE9F74F924600220779BA4E046836
:1049EC0003FB076383F823204B68894633B1CB68FC
:1049FC0003F06043B3F1005F40F0838199F800301D
:104A0C00023B012B07D8D9F8103003F06043B3F107
:104A1C00005F40F076811AF0030F40F07481AB4BCD
:104A2C00C4F80833282303FB076393F8242002F00F
:104A3C00FF013AB19B68A64DC4F80433284603B075
:104A4C00BDE8F08F1AF0140F0CBF0122002283F87E
:104A5C00242099F8002007EB870883F8202099F888
:104A6C00012006EBC80883F82120D9F80C20DA6065
:104A7C00D9F804201A61D9F810205A61D9F8082005
:104A8C00C3F81CA09A61CAF3001283F8252099F888
:104A9C000130C4F88835C4F83811D4F83831C4F86A
:104AAC002811D4F82831C4F81411D4F81431C4F8EE
:104ABC000411D4F8043199F80030032B00F29F80D4
:104ACC00DFE803F0399422024FF48073C4F800320B
:104ADC00D8E90323C4F83C27C4F8403701232365E5
:104AEC004FF00061204603F0CAF90028F8D1D8E94C
:104AFC000523C4F83C27C4F8403728234FF48062C0
:104B0C0003FB07639A6035E0D8E90323C4F83C271C
:104B1C00C4F84037D8E90523C4F80427C4F808378B
:104B2C004FF48453C4F8003201232361282302225A
:104B3C0003FB0763E6E71AF0200FD8E90323C4F858
:104B4C003C2714BF4FF480724FF40072C4F8403706
:104B5C004FF0280315BFC4F80022C4F800224FF40C
:104B6C008062022214BF03FB076303FB07639A6096
:104B7C0001232361574D1AF0080F17D199F8003013
:104B8C00032B13D028227A43012B06EB0201B258D7
:104B9C004AD1A362002A34D0D9F8043033B928237F
:104BAC007B43F358002B71D00123636028237B4394
:104BBC00F218F358002B69D01AF0040F1CBF002315
:104BCC0093601AF0400F06D1282303FB07639A6801
:104BDC0042F002029A60282303FB0766B36843F095
:104BEC002003B360B368C4F8043327E7D8E9032380
:104BFC00C4F80427C4F808374FF4805392E7364DB5
:104C0C00B9E70A6902B9636040F2024B40F22241F3
:104C1C00204603F034F9012310F0200F18BF636015
:104C2C0010EA0B0FF2D0B7E701232365002AB3D1AA
:104C3C000A6902B96360002340F2024B13EA0B0FBE
:104C4C00AAD140F22241204603F019F9810603460D
:104C5C00F4D501904FF48041204603F010F9D4F8BC
:104C6C00002218B112F4007F019B04D101232361AF
:104C7C00636048B10023D205E0D54FF48061204633
:104C8C0003F0FDF80023D9E70346D7E7282202FBFF
:104C9C0007660022D4F8C434C4F8C43486F824203F
:104CAC0013B30E4A13F0010F0D4D18BF154613F038
:104CBC00020F02F1010218BF154613F0040F094B45
:104CCC0018BF1D46BAE600BFC00A00202264F81FB8
:104CDC000B00AD0B0000AD0B0400AD0B0000AE0BD8
:104CEC000100AD0B0200AE0B1AF0400F7FF4A6AE24
:104CFC004146204603F092F8044B002808BF1D469D
:104D0C009CE6034D9AE6034D98E600BF0100AD0BFF
:104D1C000A00AD0B0300AD0B01490248FFF740BD83
:104D2C00C00A002000800C5001490248FFF738BD32
:104D3C00E80A002000401050036803F01F025B09D2
:104D4C00022B02609ABF024A52F8230000207047DF
:104D5C00E8920000F7B50C46064603F0C7F8084683
:104D6C0003F0C4F801A80196FFF7E6FF40F60D0129
:104D7C00019B2C4D00EB8300D0F8802001272A40AA
:104D8C000A43C0F8802001A80194FFF7D5FF019ACF
:104D9C0000EB8200D0F880302B400B43C0F8803001
:104DAC00042002F055FF092501A80194FFF7C4FF68
:104DBC00019AC368D340DB0714D401A80196FFF70E
:104DCC00BBFF019B013D07FA03F38360042002F053
:104DDC003FFF304603F08AF8042002F039FF15F04B
:104DEC00FF05E1D101A80194FFF7A6FF0123019A69
:104DFC0093408360042002F02BFF204603F076F8EA
:104E0C00042002F025FF01A80194FFF795FF019AF9
:104E1C00C3680548D34013F0010F044B08BF184674
:104E2C0003B0F0BDF0F0FCFF0000AD0B0100AD0BCA
:104E3C0010B50446FCF75EFA0348044A012102F05F
:104E4C002CF8204603F06FF8B88E0000D79C0000B9
:104E5C002DE9F843054600AF0E46EFF311882023E9
:104E6C0083F31288BFF36F8F042898BF284A294B0D
:104E7C00E9468AB09C6894BF52F8201026491B7CE6
:104E8C006A46C2E9071340F2013324489384244B49
:104E9C00C2E9050542F8103F00234FF43151214877
:104EAC00FCF798FACD4646B1F369C3F3080323B176
:104EBC001D4A01211B4801F0F0FF2CB1204603F0E4
:104ECC00B3F808B1037803B91848E9468AB06A46C2
:104EDC00174BD061C2E9053440F201331384154BF2
:104EEC0042F8103F00234FF411510E48FCF772FAB0
:104EFC003146CD462846FFF79BFF88F31188BFF358
:104F0C006F8F2046FCF700FEBD46BDE8F88300BF5E
:104F1C00F4920000100B0020309D0000469D000014
:104F2C0005000001B88E00006E9D00003E9D000043
:104F3C008F9D00000400000138B5094B53F8204048
:104F4C00013053F82050A54200D838BD636823B116
:104F5C00204602F0F0FF0834F5E723689847FAE79B
:104F6C00089300000122F0B52A4B87B003202A4E8B
:104F7C001A70FFF7E1FF01F08BF902F0F8FF042043
:104F8C00FFF7DAFF3746254DB54205F1300410D353
:104F9C0000F03AFD214C224DBC4227D300F048FDD5
:104FAC00FBF79AFA1F4A137B23F00103137307B024
:104FBC00F0BD54F80C3C059354F8103C049354F891
:104FCC00143C039354F8183C029354F81C3C019382
:104FDC0054F8203C009354E90A2354E90C0100F0E6
:104FEC003BFB54F8303C5D652546CDE7D4E90A23FC
:104FFC00591C08BFB2F1FF3F05D052EA03012068EB
:10500C0003D100F0DDFD3034C6E72946183000F03E
:10501C007FFFF8E76C0B00206C8D00006C8D00009E
:10502C002B8100002007002008B50348034A00210B
:10503C00121A02F098FF08BDD8010020700B002056
:10504C000023012270B586B0CDE904230F2214256C
:10505C00CDE902324FF4A07201930E4B0E4E05FBBC
:10506C0000350E4906EBC016044602FB00110095F4
:10507C000B4B304600F0F0FA737B2C7423F00403D6
:10508C007373084B013403EBC424EE606C6006B000
:10509C0070BD00BF100B0020A00600207012002075
:1050AC007D7F0000B0130020BFB50020FFF744FF48
:1050BC00294B03F5006282F3088883F30A880024E5
:1050CC00E023264D264E85F82230EC772C766C7634
:1050DC00AC766B6A43F4E0236B6285F82340FCF7F3
:1050EC00E1FCFCF7F5FD4FF0FF33AB62EB62FCF734
:1050FC0085FFFCF715FEFCF719F81A4800F006FBC3
:10510C0002F005FF0120FFF717FF0220164DFFF7F5
:10511C0013FF00F0C3FC154B4FF480625D61144B20
:10512C00144905930123CDE90144CDE903430094CF
:10513C003346284600F090FA07466B7B284623F04E
:10514C0004036B7302F0AEFF2046FFF779FF324683
:10515C0039462846FCF7A2FDB013002000ED00E014
:10516C00714F0000A007002020070020100B00202A
:10517C00AA9D0000700E00202DE9F341044616464E
:10518C001F46EFF31188202383F31288BFF36F8F30
:10519C00C368364A6BB180689168884219D056EA68
:1051AC00070318D188F31188BFF36F8F6FF00F00CE
:1051BC000CE0916891F90E100133E3609368216162
:1051CC00A36088F31188BFF36F8F002002B0BDE895
:1051DC00F0812169F0E791F90E1090F90E309942A7
:1051EC00A8BF194611F1800F08BF6FF07E018B42EA
:1051FC0035DD00F091FB0546CDE9006722464146BE
:10520C001B4800F05DFB0028E0D0EFF31186202353
:10521C0083F31288BFF36F8FA068C0B12368216934
:10522C009C420AD04BB193F90E309942A8BF194653
:10523C006FF07E039942B8BF194690F90E3099422F
:10524C0003D000F069FB00B1012505F0010545B163
:10525C003146074800F0B2FB6FF00A00B6E70025B4
:10526C00CAE786F31188BFF36F8FF5E7100B0020A8
:10527C006D0B002070B583680546002B46D0264A7E
:10528C009268934245D1C368012B03D9013BC3609B
:10529C00002070BDEFF31186202383F31288BFF337
:1052AC006F8F0169806890F90E30994201D000F03F
:1052BC0033FB2C68AC4208D10023AB600020E860C3
:1052CC0086F31188BFF36F8FE3E77CB1D4E900322A
:1052DC0013605A600023627BC4E9003322F002029F
:1052EC006273A36004F1180002F08DFFAC60002C17
:1052FC00E4D094F90E3020462B610025A56702F00E
:10530C00D1FE3146054800F059FBC1E76FF015009E
:10531C00BFE74FF0FF30BCE7100B00206D0B0020F7
:10532C0070B5EFF31186202383F31288BFF36F8FD0
:10533C000468A0421AD0CCB1D4E900320025136025
:10534C005A60637BC4E9005523F002036373A560C4
:10535C0004F1180002F057FF2046A56702F0A2FEE8
:10536C003146BDE87040074800F028BBD0E9023256
:10537C009A4218BF0133836086F31188BFF36F8F95
:10538C0070BD00BF6D0B002037B514461D46EFF302
:10539C001181202383F31288BFF36F8F836843B18D
:1053AC00013B836081F31188BFF36F8F002003B042
:1053BC0030BD54EA050306D181F31188BFF36F8F1A
:1053CC006FF00F00F3E70246CDE90045014800F00D
:1053DC0077FAECE76D0B00202DE9F04305464FF012
:1053EC00FF364FF0FF37DFF8448185B0EFF31189BA
:1053FC00202383F31288BFF36F8FD5F88040D4B984
:10540C00022105F1980002F0D1FD00283DD005F1F4
:10541C00900400220121204602F0B8FE0028F8D1A9
:10542C000023CDE90067029305F1880249463E4806
:10543C0000F08CFCDAE7D5F8842023689442C5F898
:10544C00803001D1C5F88430D5F8983043F0020390
:10545C00C5F89830E36823F0040343F00103E360DC
:10546C00636889F31188BFF36F8F20469847EFF379
:10547C001189202383F31288BFF36F8FE368D90659
:10548C0023F001020ED4E26013E0D5F89830D9066F
:10549C00C6D5C5F8980089F31188BFF36F8F05B096
:1054AC00BDE8F08323F01103E36004F11000FFF773
:1054BC0037FFE3689A0719D5D8F8000023F00203E8
:1054CC00E36098B10021026843689C4226D10368CE
:1054DC00E1B9D8F80420C8F80030904201D1C8F8DE
:1054EC000430002340F8083BFFF71AFFD5F898303A
:1054FC0023F00202C5F8982089F31188BFF36F8F4F
:10550C00D8053FF573AF00F0D1FA6FE70B60D8F810
:10551C000430984208BFC8F80410E2E7002AE5D02E
:10552C00014610461268CFE76D0B0020300B0020AF
:10553C00F8B5C3680446C3F340050F4605BB5E07C8
:10554C0020D40B680BB983680B60E368D80742BFA3
:10555C00A36802253B603E6858BF01257EB31B4BF8
:10556C009B68B34211D102F056FD80F00100C0B22D
:10557C00D6F89830D907C3F3800223D53AB140B995
:10558C006FF00F0500233B6013E00020F0E71B07D2
:10559C00F6D400232360D6F8843063B9C6E92044DE
:1055AC00304602F00EFDE36843F00403E3603B6811
:1055BC00A3602846F8BD1C60C6F88440F0E76FF085
:1055CC001505DFE76FF01205DCE700BF100B0020BC
:1055DC000146014802F00FBD40080020F0B504461A
:1055EC00002089B0C4E920000E9D04F18800C4E9B4
:1055FC00220004F19000C4E924004DB3287900285E
:10560C0040F2011008BF0120C4F8980000204FF0B0
:10561C00FF364FF0FF37CDE90330CDE90100CDE97E
:10562C00066700940B4B204600F044F855B12968EE
:10563C0011B1204602F0F5FC6B791BB1237B43F0D2
:10564C0001032373204609B0BDE8F04000F0B8BA5E
:10565C000120D9E7E5530000F0B585B00E9E00F1AE
:10566C00580506730426C0E91655002504464673F2
:10567C0007320D9E22F007028673C0E919128E18AC
:10568C000C9A8560C573C0E90655C56602920B9AE3
:10569C0001920A9A00923246FCF7E4FA044B6565D3
:1056AC009B6803B11B6F3046236705B0F0BD00BF8C
:1056BC00100B0020F0B5002587B00595109DDDE995
:1056CC00126704950F9D044603950E9D02950D9D42
:1056DC0001950C9D0095FFF7BFFF7B1C08BFB6F131
:1056EC00FF3F05D056EA070305D1204600F068FAC3
:1056FC00204607B0F0BD32463B46034904F1180082
:10570C0000F006FCF4E700BF2B81000040F201130F
:10571C0083810023C0E919330367014B98607047FC
:10572C00100B00206FF00A01084A9368996708492A
:10573C0058674B6843F080534B60002383F3118808
:10574C00BFF36F8F9368986F704700BF100B0020EA
:10575C0000ED00E038B5437B01461C0604D503F090
:10576C007F03437302F062FC0D4C224652F8185F23
:10577C00A368954200D005B9E5688B4209D05A7BE5
:10578C00D20606D1DA897F2A03D9AA690AB96361DC
:10579C0038BDAB4202D0284600F018FB6561F7E734
:1057AC00100B002070B5437B1C0629D4D90627D1D9
:1057BC001D4C63F07F032246437352F8183F93420B
:1057CC0024D01BB3E66990F90E5093F90E108D425C
:1057DC0017D0491B002914DD5968C0E90031086055
:1057EC005860A569954200D005B9E568A3685A7B55
:1057FC00D20611D1DA897F2A0ED9AA6962B96361FE
:10580C0070BDB34202D01B68002BDED1E369C0E946
:10581C0000231860E061E4E7AB4202D0284600F0B8
:10582C00D5FA6561ECE700BF100B002070B5437B27
:10583C0001461C0604D503F07F03437302F0F6FB0C
:10584C001E4C4B7B224663F07F034B7352F8183F80
:10585C00934226D02BB3E66991F90E5093F90E00C2
:10586C00854219D0401B002816DD5868C1E900306C
:10587C0001605960A569A368954200D005B9E56837
:10588C008B4214D05A7BD20611D1DA897F2A0ED9D9
:10589C00AA6962B9636170BDB34202D01B68002B68
:1058AC00DCD1E369C1E900231960E161E2E7AB42B5
:1058BC0002D0284600F08AFA6561ECE7100B002054
:1058CC00F8B5DDE90667114B0D469868104908607C
:1058DC00EFF31181202181F31288BFF36F8F9C6845
:1058EC001146204602F0B4FB7B1C08BFB6F1FF3F0B
:1058FC0006D032463B46074904F1180000F008FB7D
:10590C002846BDE8F840FFF70DBF00BF100B002084
:10591C00380B00202B810000F8B50446EFF31187FB
:10592C00202383F31288BFF36F8F437B49B203F0BC
:10593C001F02002A0CBF012600263BD103F07F0377
:10594C00437302F073FB1C4D437B2A4663F07F03C9
:10595C008173437352F8183F934225D023B3D5F883
:10596C001CC093F90E00814219D0401A002816DD94
:10597C005968C4E900310C605C60AC69944200D099
:10598C0004B9EC68AB689C4202D0204600F01EFAC9
:10599C006C6187F31188BFF36F8F3046F8BD634598
:1059AC0002D01B68002BDCD1EB69C4E900231C601E
:1059BC00EC61E2E78173ECE7100B002049B9EFF3DF
:1059CC00058030B9054B5A699B689A4201D0FFF7A4
:1059DC00A9BE81F31188BFF36F8F7047100B0020A5
:1059EC00024648B9EFF3058333B9064B59699B68F6
:1059FC00994201D0FFF796BE82F31188BFF36F8FE7
:105A0C00704700BF100B0020EFF31181202383F3AC
:105A1C001288BFF36F8F054B9A68D37B013BD3730E
:105A2C0081F31188BFF36F8F704700BF100B0020FC
:105A3C0070B5EFF31186202383F31288BFF36F8FB9
:105A4C00154CA368DA7B0132DA73224652F8185FE0
:105A5C00954200D005B9E5685A7BD20614D1DA8993
:105A6C007F2A11D9AA697AB9636186F31188BFF3C9
:105A7C006F8FEFF31180202383F31288BFF36F8FA6
:105A8C00BDE87040FFF7ACBFAB4202D0284600F037
:105A9C009DF96561E9E700BF100B0020024B03F193
:105AAC001802C3E906227047100B002070B5EFF303
:105ABC001186202383F31288BFF36F8F1B4CA168D0
:105ACC00E3690A68994214BF1346002349680A60C7
:105ADC005160A268E0692BB9154BC2E90030026035
:105AEC00E2610DE092F90E5093F90E108D4219D02F
:105AFC00491B002916DD5968C2E900310A605A6059
:105B0C00A5690B4B9D4200D005B9E568A3689D4281
:105B1C0002D0284600F05AF965613046BDE8704065
:105B2C00FFF700BE8342D7D01B68D4E7100B0020D0
:105B3C00280B00202DE9F04106460F4656EA0701D6
:105B4C0004D1FFF7B3FF0020BDE8F0816FF0010135
:105B5C000A1A4FF0FF3161EB0703012A73F10003BE
:105B6C0024DA02F071FB8419EFF31188202383F3FC
:105B7C001288BFF36F8F0F4D0F4BA8681860FFF79B
:105B8C00E9FDA8680D4932463B46183000F0C0F9D3
:105B9C00AA684046537B43F004035373FFF7C2FDDE
:105BAC0002F052FB201A20EAE070CDE76FF00104FE
:105BBC00241AD9E7100B0020380B00202B81000091
:105BCC0038B50446EFF31185202383F31288BFF315
:105BDC006F8F437B5B070FD5183002F014FB637B90
:105BEC00204623F004036373FFF7DCFD2946BDE870
:105BFC0038400448FFF7E2BE85F31188BFF36F8F7E
:105C0C0038BD00BF6D0B0020014B9868704700BF7A
:105C1C00100B00202DE9F8430446077BEFF31185A8
:105C2C00202383F31288BFF36F8F437B1E0705D5A8
:105C3C0085F31188BFF36F8FBDE8F88343F008023A
:105C4C00110654D44273A36813B1204602F0F6F93E
:105C5C0004F1180002F0D7FAA66D04F15808B0450B
:105C6C0011D04FF0000976B1304602F0E7F906F199
:105C7C00180002F0C8FAC6F878903046FFF792FD8B
:105C8C00A66DB045EFD12E4EB3689C4237D04FF085
:105C9C000009D6F818802B4A904502D0B8F1000FB5
:105CAC0001D1D6F80C80434502D0404600F08EF866
:105CBC00C6F81480B9F1000F02D02348FFF726FD77
:105CCC00B3689C4236D1EFF305839BBB227BD20792
:105CDC001DD42846FFF726FDFB07ADD5002383F323
:105CEC001188BFF36F8F0423184602DFA4E703F07B
:105CFC007F0343F00803437302F098F9A3E7EFF333
:105D0C00058919F1000918BF4FF00109C1E785F3A6
:105D1C001188BFF36F8F83F31188BFF36F8F042348
:105D2C00184602DFEFF31180202383F31288BFF3B0
:105D3C006F8FCFE785F31188BFF36F8FCCE700BF70
:105D4C00100B0020280B0020A0070020D3B5DDE9A4
:105D5C000667089CCDE90067FFF7B2FD1CB1034B49
:105D6C009B685B69236002B0D0BD00BF100B0020A4
:105D7C000122044BC01A044BC0105843034B1A5455
:105D8C00704700BF20080020ABAAAAAA6D0B002008
:105D9C00C3897F2B12D80A4B1B6863B1094B90F94E
:105DAC000E201B689A4209DB437BDB0606D1064BAF
:105DBC00C31A18BF012303F0010070470023FAE750
:105DCC00400B00203C0B0020A006002070B50E4BB1
:105DDC000E4C1D7C064605EB450304EBC304204624
:105DEC0002F011FA00220A4B30465A55FFF7D0FF49
:105DFC0048B1084B2046BDE870401A680649013A84
:105E0C00D31700F085B870BD100B002020080020BF
:105E1C006D0B0020400B00207D5D000038B5EFF3CA
:105E2C001185202383F31288BFF36F8F104B114A17
:105E3C009C681068A04206D1FFF7C8FF85F3118853
:105E4C00BFF36F8F38BD00211B7C11600A4AD35CF5
:105E5C00002BF3D02046FFF79BFF0028EED0637B8E
:105E6C00DB0602D12046FFF7E1FC2046E4E700BF49
:105E7C00100B0020380B00206D0B0020074808B5D4
:105E8C00074A0849121A02F070F8BDE808400648A3
:105E9C00064A0749121A02F068B800BF0000002039
:105EAC00D4010020E89D000000000020000000202C
:105EBC00E89D0000024B1868984208BF002070470C
:105ECC0060010020034B1B680BB9FDF7D1BA002011
