:020000040000FA
:1000000078670020D52D01005F1D0200C12D010081
:10001000C12D0100C12D0100C12D0100C12D010024
:10002000000000000000000000000000452F01005B
:10003000C12D010000000000DD2E0100C12D0100D6
:10004000CD300100CD300100CD300100CD300100B8
:10005000CD300100CD300100CD300100CD300100A8
:10006000CD300100CD300100CD300100CD30010098
:10007000CD300100CD300100CD300100CD30010088
:10008000CD300100CD300100CD300100CD30010078
:10009000CD300100CD300100CD300100CD30010068
:1000A000CD300100CD300100CD300100CD30010058
:1000B000CD300100BD8A0100CD300100CD300100FE
:1000C000CD300100CD300100CD300100CD30010038
:1000D000CD300100CD300100CD300100CD30010028
:1000E000CD300100CD300100CD300100CD30010018
:1000F000CD300100CD300100CD300100CD30010008
:10010000CD300100CD300100CD300100CD300100F7
:10011000CD300100CD300100CD300100CD300100E7
:10012000CD300100CD300100CD300100CD300100D7
:10013000CD300100CD300100CD300100CD300100C7
:10014000CD300100CD300100CD300100CD300100B7
:10015000CD300100CD300100CD300100CD300100A7
:10016000CD300100CD300100CD300100CD30010097
:10017000CD300100CD300100CD300100CD30010087
:10018000CD300100CD300100CD300100CD30010077
:10019000CD300100CD300100CD300100CD30010067
:1001A000CD300100CD300100CD300100CD30010057
:1001B000CD300100CD300100CD300100CD30010047
:1001C000CD300100CD300100CD300100CD30010037
:1001D000CD300100CD300100CD300100CD30010027
:1001E000CD300100CD300100CD300100CD30010017
:1001F000CD300100CD300100CD300100CD30010007
:10020000CD300100CD300100CD300100CD300100F6
:10021000CD300100CD300100CD300100CD300100E6
:10022000CD300100CD300100CD300100CD300100D6
:10023000CD300100CD300100CD300100CD300100C6
:10024000CD300100CD300100CD300100CD300100B6
:10025000CD30010087390200CD300100CD300100E2
:10026000CD300100CD30010071390200CD300100E8
:10027000CD300100CD300100CD300100CD30010086
:10028000CD300100CD300100CD300100CD30010076
:10029000CD300100CD300100CD300100CD30010066
:1002A000CD300100CD300100CD300100CD30010056
:1002B000CD300100CD300100CD300100CD30010046
:1002C000CD300100CD300100CD300100CD30010036
:1002D000CD300100CD300100CD300100CD30010026
:1002E000CD300100CD300100CD300100CD30010016
:1002F000CD300100CD300100CD300100CD30010006
:10030000CD300100CD300100CD300100CD300100F5
:10031000CD300100CD300100CD300100CD300100E5
:10032000CD300100CD300100CD300100CD300100D5
:10033000CD300100CD300100CD300100CD300100C5
:10034000CD300100CD300100CD300100CD300100B5
:10035000CD300100CD300100CD300100CD300100A5
:10036000CD300100CD300100CD300100CD30010095
:10037000CD300100CD300100CD300100CD30010085
:10038000CD300100CD300100CD300100CD30010075
:10039000CD300100CD3001005F3B0200CD300100C7
:1003A000CD300100CD300100CD300100CD30010055
:1003B000CD300100CD300100CD300100CD30010045
:1003C000CD300100CD300100CD300100CD30010035
:1003D000CD3001005B390200CD300100CD3001008D
:1003E000CD300100CD300100CD300100CD30010015
:1003F000CD300100CD300100CD300100CD30010005
:10040000CD300100CD300100CD300100CD300100F4
:10041000CD300100CD300100CD300100CD300100E4
:10042000CD300100CD300100CD300100CD300100D4
:10043000CD300100CD300100CD300100CD300100C4
:10044000CD300100CD300100CD300100CD300100B4
:10045000CD300100CD300100CD300100CD300100A4
:10046000CD300100CD300100CD300100CD30010094
:0C047000CD300100CD300100CD30010086
:10048000084B1B78002B4FF00003836018BF02223B
:10049000036008BF0122044B4360FF23C271037253
:1004A000704700BF2008002028010800064A074BBB
:1004B0001B7902604FF4B472C371FF23828008225B
:1004C00003728271704700BF8BD0000020080020AB
:1004D0002DE9F341C41D0028064624F007040CBF93
:1004E0000020204600F0CEFF071E04DA6FF00B005C
:1004F00002B0BDE8F0810EB9FC42F7D4364D6989EF
:10050000288903316B7B03302A7B89B280B20AF0E1
:100510009EFB0028EADB3C44A978EB78002E04F12E
:100520000304194424F0030400FB01F10CBF002074
:10053000204601F031F920440EB90028D6DB2B7992
:100540000446B3B1697D19446B791944FF29CDDCA8
:100550000330002E2A8AC9B220F003040CBF002009
:10056000204601F06FF90028C0DB04440EB9002CCE
:10057000BCDB012000F07CFFC8B1A97BB9B195F8C4
:100580002C300734002B24F0070415BF402325230B
:100590004FF481722822002E14BF2046002002F062
:1005A000A9FD0028A2DB04440EB9002C9EDBAB7C25
:1005B000DBB12B7993B10734002EA97C24F007041A
:1005C0000CBF0020204604F047FF00288EDB0444C7
:1005D0005EB9002C09DA89E720080020012000F02C
:1005E00047FF10B1AB7B002BE5D1724B1B6893B179
:1005F000A97981B10334002EEA7C24F003040CBFF6
:100600000020204698470028FFF670AF044416B932
:10061000002CFFF66BAF684B1B688BB1297D79B15D
:100620000334002E24F003040CBF0020204698471A
:100630000028FFF65BAF044416B9002CFFF656AF56
:100640005E4B1F68B7B1697DA1B10334002E2B7ECC
:1006500024F0030408BF0020009318BF2046EB7D60
:10066000AA7DB8470028FFF641AF044416B9002C14
:10067000FFF63CAF072000F0FBFE98B1A97989B1E5
:100680000334002EAA7E24F003040CBF0020204671
:1006900001F0C6F90028FFF629AF044416B9002C72
:1006A000FFF624AFB6FA86F795F825007F09A0B1CA
:1006B0000334EB7F297F24F0070419443B4644F0C0
:1006C0000404C9B2224601F0EDF90028FFF60EAF8E
:1006D000044416B9002CFFF609AF95F8261000293E
:1006E00059D00734002E2A8D24F007080CBF0020B3
:1006F00040460AF0C1FA041EFFF6F8AE444416B9AB
:10070000002CFFF6F3AE1EB1298D404607F014F819
:1007100095F82010002940D095F82430002B3CD0CB
:100720006A8C0734002E24F0070802F124020CBF63
:100730000020404692B20AF09FFA041EFFF6D6AEA1
:10074000444416B9002CFFF6D1AE0334AB7F297FA9
:1007500024F0070495F8240019443B4644F00404AF
:10076000C9B2224601F090F90028FFF6BFAE04445A
:1007700016B9002CFFF6BAAE3EB16A8C404695F829
:100780002010083292B206F0DDFF2B6B5BB176B120
:100790002C630020ACE68846B5E7002EF5D0002299
:1007A00011461046EFE7002EF3D12046A0E628348C
:1007B000FBD59BE6AC000020B0000020B400002078
:1007C0001FB572B6194B5D6BE5B9BFF34F8F184972
:1007D000184BCA6802F4E0621343CB60BFF34F8F3B
:1007E00000BFFDE7B4FBF6F4D3B20132002CF9D11F
:1007F00003F110026A4402F80C4C0A2233B901A832
:10080000A847E2E7044600220A26EDE7013BDBB2F7
:1008100003F110040DEB0406B0FBF2F402FB14002C
:10082000303006F80C0C2046E8E700BF2008002016
:1008300000ED00E00400FA0513B5114C6846637B37
:100840008DF80130237B8DF800306389ADF80430DA
:100850002389ADF8023003F01BFF18B1E8219C207A
:10086000FFF7AEFF207E03F063FF08B1EB21F6E750
:10087000E07D03F057FF08B1EC21F0E702B010BDB6
:100880002008002037B50546002859D008F0ECFFB5
:1008900020B94FF0FF34204603B030BD07F0C4FC50
:1008A000B0F5FA7FF5D8284C28486563002500F09C
:1008B0005BFD2A222946A01C84F83850257084F854
:1008C0002C50256384F839500CF0E7FF40F20113F7
:1008D00001212A4663801B232171084623816381FD
:1008E00040F20323A176A3810323A3731F23238252
:1008F0004FF40273638244F60113E382F7236384A7
:10090000FB23238594F83B30009394F83A3003F0AE
:1009100091F8014620B14FF460719C20FFF750FF21
:1009200003F0AEF8044610B140F28531F5E7EFF37D
:10093000108572B601F0E0F8002DACD162B6AAE7DE
:100940006FF01504A7E700BF200800203908000059
:1009500037B51446002840F0D7806D4D95F83830F3
:10096000032B00F0CE80C1B11AB96FF0150003B0AF
:1009700030BD0139162900F2C780DFE801F00C1DF7
:1009800020355F68863B6B6E804147555A8C8F9D42
:10099000A0A395A6AA001378AB700020FFF798FDDE
:1009A0000028B7BF012302236FF00B0085F8383011
:1009B000A8BF85F83830DAE71378EB70EDE71379E4
:1009C000002BD2D05379002BCFD01288FB2ACCD861
:1009D0001A2A6388C9D91B3BE02BC6D82368A28892
:1009E000AB604C4B9A80D8E713786A799342BCD3BA
:1009F0002B71D2E713782A799342B6D86B71CCE782
:100A000013782A799342B0D86B75C6E71378002B18
:100A1000ABD05378013BDBB2F82BA6D81388927881
:100A2000EB823D4B9A70B8E71078687605F0A4FC2D
:100A3000B3E71378002B98D0AB76AEE7012000F037
:100A400017FD237808B1012B8FD9AB73A5E7138865
:100A50002B82A2E71378AB719FE7072000F008FD17
:100A600010B92378012B80D9072000F001FD18B1BF
:100A70002378002B3FF479AF2378EB748DE713785C
:100A8000082B3FF672AF2B7587E71388FF2B3FF6D5
:100A90006CAFAB7481E71378EB767EE713780E2B9F
:100AA0003FF663AF2B7778E723681C4A2B626368B5
:100AB00053602389138170E713786B776DE71378A0
:100AC000EB776AE71378AB7767E7137885F82A3016
:100AD00063E795F83B3095F839200093617895F8F5
:100AE0003A30207802F0A6FF00287FF440AF637808
:100AF000012B7FF652AF06F017FE00287FF44DAFB2
:100B000033E74FF0FF3032E76FF02C002FE700BFE4
:100B10002008002028080020360800204008002077
:100B2000F8B50D46064630B329B311F0070422D1BB
:100B3000124F97F83830012B02D16FF00B00F8BD3F
:100B4000032B02D14FF0FF30F9E700F073F80028D3
:100B5000F8D02846FFF7BCFC0028EEDB0CF05FFC69
:100B60003046396B03F03CFEFFF766FE0323204658
:100B700087F83830E3E76FF01500E0E72008002041
:100B800010B5074C94F83830032B03D103F044FE22
:100B900004F082FB0AF0B8F9002084F8380010BD98
:100BA0002008002050B1074B03F1140253F8041B36
:100BB000934240F8041BF9D1002070476FF01500F4
:100BC000704700BF00640200074B10B593F838402F
:100BD0003CB903F0D7FD0320044900F041FC204656
:100BE00010BD4FF0FF30FBE720080020AD040000EF
:100BF000074B10B593F838403CB903F0DDFD0120F8
:100C0000044900F02DFC204610BD4FF0FF30FBE7FB
:100C1000200800208104000002680020014B1A60B7
:100C2000704700BF5C080020014B1B68184700BFDD
:100C30005C080020024B1868003818BF012070477C
:100C40005C080020F7B504462D4E071D2C48376080
:100C500004F032FB0228054606D12949204609F056
:100C6000DDFD284603B0F0BD042842D13378092BBE
:100C70000AD0262B1ED03146204600F043F8B0F5AE
:100C8000817F2DD3722112E005213E2009F0B8FDAD
:100C90000028F0D1F37801A93279684643EA0223AB
:100CA000ADF8003009F029FF0028CFD053210820EB
:100CB000FFF786FD1A213E2009F0A2FD0028DAD1B7
:100CC0007368694601A8C3F30F23ADF804301123FC
:100CD0008DF8063009F017FF0028B7D06521E6E748
:100CE0000028B3D0A178207809F08AFD0028B8D177
:100CF000ACE70828B5D10249204609F0C7FDB0E7A6
:100D0000600800202DE9F8430B7805460C46013BAE
:100D1000832B00F2C782DFE813F09A009E00A20046
:100D20005301C5021B01210127012D0133013701A8
:100D3000390149014F018400C502A700C502AB007B
:100D40003D0143015D0163015701C5026901C5020F
:100D50007C01AC01B201B801C502BE01CA01D001DB
:100D6000C50200020E026202400254025C02460208
:100D70004E0214021A02200226022C02320236020D
:100D80003A029D02A302B102B70268026E028C020F
:100D90007402C502C502C502C502C502C502C5026C
:100DA000C502C502C502C502C502C502C502C5020B
:100DB000C502C502C502C502C502C502C502C502FB
:100DC000C502C502C502C502C502C502C502C502EB
:100DD000C502C502C502C502C502C502C502C502DB
:100DE000C502C502C502C502C502C502C502C502CB
:100DF000C502C502C502C502C502C502C502C502BB
:100E0000C502C502C502C502C502C502C502C502AA
:100E1000C502C502C502C502C502C5027A0280022A
:100E200086020E23B1F803200B7042F283039A422C
:100E300009D1062363706678214628460236324679
:100E400008F0E6FE5AE03521C720FFF7B9FC0C2375
:100E50000B700823EEE71A230B700123EAE73E2309
:100E60000B700223A370E6E73E230B700B23F9E718
:100E7000292000F069FA28B13E23237022236370F1
:100E80002923EFE70A2000F05FFA3E2305F108026C
:100E900004F108012B70A0B30A23AB70E378EB7068
:100EA000A3882B71A3881B0A6B71A379AB71E379BB
:100EB000EB71A368AB608B8893801F22D4F80E304F
:100EC000C5F80E30638A6B8263696B61238B2B8359
:100ED000638BAB76638B1B0AEB76A38B2B77A38B91
:100EE0001B0A6B77E38BAB77E38B1B0AEB7794F8EA
:100EF000203085F820306A70023296B23046BDE864
:100F0000F8830123AB70E378EB70A3882B71A3887F
:100F10001B0A6B71A379AB71E37903F00103EB71E9
:100F2000A368AB608B8893801322638BAB73638B56
:100F30001B0AEB73A38B2B74A38B1B0A6B74E38BC1
:100F4000AB74E38B1B0AEB7494F820302B75D2E75B
:100F50003E230B7004234B70142383E73E230B7056
:100F60000C234B7004237DE73E230B700A234B7048
:100F7000032377E73E230B700D234B70052371E7A6
:100F800005232370042355E70823FAE730230B7069
:100F900003234FE73E230B700B234B70072361E7BE
:100FA0003E230B7006234B700C235BE713230B705F
:100FB0008B789B0001333DE757230B70022339E701
:100FC0003E230B700D234DE73E230B7001234B7026
:100FD000112347E73E230B7006234B70122341E792
:100FE0003E230B7009234B7013233BE73E23037012
:100FF000242000F0A9F9002815BF24230E2313266E
:101000000F263246A11CE81CAB7008F001FE721CD2
:1010100071E73E230370252000F096F9C0B1252327
:101020000A26AB70D4F80230C5F80330D4F8063085
:10103000C5F807306389A5F80B30F01CE27A04F19B
:101040000C01284408F0E4FDE27A0132324452E710
:101050000F230726AB706388A5F8033023796B71E3
:101060006379AB71A379EB71A37A2B72E37A6B721C
:10107000E3E73E230B7003234B701023F2E63E237D
:101080000B7005234B702023ECE63E230B700923E5
:101090004B702123E6E63E230370262000F054F92E
:1010A000002815BF2623182317261326A9E73E2359
:1010B0000B7004234B702723D4E63E234FF0000827
:1010C00081460370282346468370D1F8023049F8E0
:1010D000033FAA795FFA88F39A4205D8721D92B24B
:1010E000002A3FF4A8AE06E7B21D331D08F101083F
:1010F000A118A25809EB030049F80320063131F882
:10110000023C063020F8023C10F8017C3A460637D3
:1011100008F07EFD3E44B6B2DBE73E232A200B708A
:1011200000F012F918B12B2363702A239AE61D23CD
:101130006370192396E63E230B7007234B701A2326
:1011400090E63E230B7020234B702C238AE63E232F
:101150000B704C234B702D2384E63E230B7004232D
:101160004B702E237EE63E230B7022234B702F23E1
:1011700078E63E230B7016234B70302372E63E2335
:101180000B7031236EE63E230B7032236AE63E235A
:101190000B7002234B70332364E63E230B70142341
:1011A0004B7022235EE63E230B700B7C5B000F33FB
:1011B0004B701D2356E63E230B7003234B701E23FA
:1011C00050E63E230B700B7D5B0013334B701B23EB
:1011D00048E63E230B7003234B701C2342E63E235C
:1011E0000B7005234B701F233CE6FF230B700B2372
:1011F0004B70A22336E6FF230B7005234B70A3230D
:1012000030E6FF230B700D234B7080232AE6FF236B
:101210000B700D234B70822324E6FF230B700223F7
:101220004B7083231EE6FF230B7004234B70842333
:1012300018E6FF23C21C037081238370D1F80330AA
:1012400003F1280153F8040B8B4242F8040BF9D147
:10125000292250E63E230B700C234B70232301E61A
:10126000124B1B78002B14BFFF233E230B704FF053
:101270000E034B7014BF85233723F3E53E230B7019
:101280000A234B703523EDE5084B1B78002B14BF68
:10129000FF233E230B704FF0FE034B7014BF8623D9
:1012A0002B23DFE540F26221CEE500BF6409002078
:1012B000074B4FF0FF3141F6FF72C3E900120549B9
:1012C0000022C1E900221F21C3E90212704700BFBA
:1012D00040000020680900203F280CD801380B4B43
:1012E000C0F3421200F01F0053F8223023FA00F03E
:1012F00000F001007047FF2806D04038044BC0F3CF
:10130000421200F01F00EFE701207047400000206C
:1013100068090020074B0146006849681A4603C265
:1013200040F48C221A6041F0107242F4FF625A605D
:10133000704700BF400000200246024B0068516821
:1013400003C37047480000200138064BC0F3421227
:1013500000F01F0003EB82039B6823FA00F000F00B
:101360000100704740000020014B1860704700BF2B
:101370007009002010B5FFF79BFF0AF0CEFD034B6C
:1013800004461B6803B19847204610BD7009002031
:1013900070B50C88C27CA6B2C4F30E04931C0588F9
:1013A00004F118021D44825AADB21A4443882A44FB
:1013B000013AB2FBF5F202FB054292B29342044BB2
:1013C0008BBF3340B34313439BB20B8070BD00BF50
:1013D0000080FFFF4A1E062A08B50346084604D8C7
:1013E0004FF4D1711520FFF7EBF9094A914202D968
:1013F00040F2A311F6E711B903B1196008BD2BB192
:101400001B680022C3E901211A1D1A600430F5E7A8
:10141000FAFFFF7F10B5114B00EB41041A78638986
:10142000B3FBF2F303FB0223013A1A44B2F5706FE7
:10143000027928BF00231A448378B2FBF3F01944E1
:1014400003FB1020091AB1FBF3F003FB1013134444
:101450006FEA43436FEA5343638110BD7409002070
:10146000024B03EB80035960704700BF74090020F2
:10147000034B03EB80035868003818BF0120704706
:10148000740900202DE9F04F10F0070A85B00546D9
:1014900004D040F261111720FFF792F9544F04462F
:1014A0004FF0010B07F15406B146B04657F8043B24
:1014B0008DF80BA03BB101A898479DF80A30082B86
:1014C00001D9E821E7E79DF80B1081BB05B1316038
:1014D000B94506F10406E9D12DB30023DFF814E184
:1014E00014221E468EF8003058F82200013A60B1EE
:1014F00090F804A08178BAF1FF0F64D14FF0000793
:101500008E4207713CBFCEB20123511CECD10BB10E
:101510008EF80060142640F6FF6A58F82670002FF7
:1015200063D1013EF9D2601B05B0BDE8F08F9DF894
:101530000AC04A1DBCF1020FE64604EB420438BF64
:101540004FF0020E53000EF1FF300444CEF10000C4
:101550002040BDF808406444CCF1000C013C04EA92
:101560000C04B4F5803F01D3F82194E775B1C31A98
:10157000336099701C8083F803B09DF80C201A71B9
:10158000019A4FEA124C1A81A3F806C004FB010429
:101590009EE758F82C90B9F1000F06D099F804B0E6
:1015A000D34504BF99F802904F440CF1FF3CBCF1C5
:1015B000000FEEDA3944FF29A2D90BB18EF8006092
:1015C00040F2271167E794460027F0E707EB410355
:1015D00009F101093846A3F80AA0FFF71BFF5FFADB
:1015E00089F1BB788B42F1D89BE74FF00009F6E711
:1015F0007809002074090020F8B54FF6FF730546FE
:101600000380184B03EB8103986DB8B1867803799A
:10161000B3FBF6F206FB1233DBB219460A1D00EBF0
:101620004202B2F902705488002F09DB0131B1FB8C
:10163000F6F206FB1211C9B28B42EFD10020F8BDC1
:10164000FF29FBD0C4F30E03C4782B8024B94FF4D8
:10165000D5711720FFF7B4F85380BDE8F84009F0C2
:10166000D5BA00BF740900201D4B03EB810370B590
:101670009C6D054644B3030404D54FF4DC71172078
:10168000FFF79EF80146204609F0A3FAFF2801461D
:1016900004D02046BDE8704009F0B8BAA078B5FB88
:1016A000F0F300FB1353DBB219460A1D04EB4206AC
:1016B000B6F90260002E09DB0131B1FBF0F200FB4C
:1016C0001211C9B28B42F0D1002070BDFF29FBD0AE
:1016D0008B4204EB42021CBF0023E3705580D8E725
:1016E00074090020094B03EB8103014610B59C6D82
:1016F000204609F06EFAFF28014604D02046BDE8D6
:10170000104009F083BA002010BD00BF740900200A
:10171000F8B5104B074603EB810301469C6D20464C
:1017200009F057FAFF28054611D0E688238953EAC5
:10173000064606D00146204609F068FA01463846BA
:10174000B04720462946FFF765FE0020F8BD05207A
:10175000FCE700BF7409002038B50E4B04468279BF
:1017600003EB8203986D08B9052038BD8278E179D2
:101770009142F9D24B1CE37100EB41035D89B3F94F
:101780000A30002BF3DBA58009F040FA206000202E
:10179000EBE700BF7409002070B5044610F00300A9
:1017A0000E4603D04E211820FFF70AF8FFF712FE6D
:1017B000054624B1034831460460FFF70BFE284676
:1017C00070BD00BF200A00202DE9F14FDFF870B096
:1017D0001E4607460D46DBF8003090469DF828A0CF
:1017E0009DF82C901BB960211820FEF7E9FF5246A6
:1017F0000921404609F0ACF94A4684B20921304635
:1018000009F0A6F981B2DBF80000214409F0BDF926
:10181000386018B9286001B0BDE8F08F0444534621
:10182000414609222C60386809F071F94B460922BB
:101830003146286801B0BDE8F04F09F068B900BF33
:10184000200A00201F2AF8B5044613460ED892003D
:10185000033222F00303B3F5803F2DD2184DACB113
:10186000A00710D05F210920FEF7AAFFFF2B4FEA47
:10187000420204D9FF339A42A8BF1A46E8E77C2AFD
:10188000B8BF7C22E4E729706C602B8122F0030250
:1018900028230127120403FB01F06B680025120CBA
:1018A000EEB28E4200D3F8BD14B126181F705E60F0
:1018B000104401352833F3E74FF0FF30F3E700BF62
:1018C000240A0020144A002138B553681478C8B29D
:1018D000844203D8AB210920FEF772FF184601317C
:1018E00028330578002DF2D000218170012412895F
:1018F0008161051D44709208C16100F120014468B6
:1019000021F8022B994245F8044B1444F8D10023E6
:101910004361037038BD00BF240A00200A4B1B89B5
:10192000B3F5FF7F4FEA930006D25A089B1A9BB289
:10193000984238BF18467047B3F5EE6F01D8FF22C2
:10194000F4E740F27263F3E7240A00202DE9F8433C
:101950004B7880460C4602F0040602F0FB07D3B138
:10196000DFB12E4BD4F804901D89B7BB0123AD081D
:101970004A46211D637004F1280004F12003A76189
:10198000E76123F8025B984241F8042B2A44F8D11E
:101990000023636101E0002FE3D0FF23A370002E3A
:1019A00018BF0226A3191B7D032B03D1022F1CBFD6
:1019B0000136F6B2A31901221A7506F10C020023B2
:1019C00004EB860624F812307268A3704046C8F80B
:1019D0000020A8F80430BDE8F883002114226170CB
:1019E000A0180BF05AFFB5F5FF7F0FD26B08ED1A68
:1019F000ADB209EB0502C4F804902584A2606384AB
:101A0000C4F80C90A5842261E384C6E7B5F5EE6FB7
:101A10004FF0FF03EBD940F27265EAE7240A002099
:101A20002DE9F84305460C46F7200521914609F0BB
:101A30008FF8061E22DB1DB906FB04F0BDE8F88313
:101A400015F0030703D098211920FEF7B9FEDFF83F
:101A50003480C8F81050A5B2A8F81460BBB29D42FB
:101A6000EAD9B8F814C04B46D8F810000522F7217F
:101A700007FB0C00013709F04AF8EFE74FF0FF30A1
:101A8000DCE700BF380A002007B5CDE900230B468C
:101A900003490246081D09F011FA03B05DF804FB82
:101AA000500A002013B5064CCDE900230B46024630
:101AB00004F1080104F10C0009F000FA02B010BDB5
:101AC000500A002008B54B1E032B03D92321902078
:101AD000FEF776FE002801F1010114BF0C23052357
:101AE000C9B203EB8101034B013121F001011970EF
:101AF00008BD00BF600A00201E4B01224FF0FF30DE
:101B000000211B685A60C3F80803C3F80015C3F826
:101B10000425194B1B685A60C3F80803C3F8001565
:101B200040F6FE71154B1648C3F8081501680BB254
:101B3000002B0BDB01F01F015B098A4020331149A8
:101B400041F82320BFF34F8FBFF36F8F026813B2AA
:101B5000002B09DB01215B0902F01F02603301FA4F
:101B600002F2084941F82320044B40F6FE72C3F804
:101B700008257047F4190020F019002000200850B3
:101B8000081A002000E100E0014B1876704700BF02
:101B9000680A00202DE9F04104460E46154690F8EB
:101BA000383103F0FF071BB10C273846BDE8F08140
:101BB00001464C4807F0A2F920288046F4D058226C
:101BC000394604F588700BF068FE84F81081C4F87B
:101BD0001461FF2384F8383136B103F0C7FB00F0FD
:101BE0000700013086F8FC0102234FF00008A4F83A
:101BF000483184F8408106F021FB00F14906204677
:101C00000BF0CCFA0146B6B2D8B30AF0F0FC00F5FE
:101C1000CD61284689B206F0BBFA2844C4F84401D5
:101C20000BF0B2FC30184FF00106A4F8268041F109
:101C3000000184F81861C4E9540120460BF0C4FA8D
:101C4000D0B1A5F2AA45314620460BF028FA2D1A4C
:101C5000C4F81C514FF0FF326FF00043C4E9562323
:101C600004F5A07194F8100107F0E8F970BB40F298
:101C7000CD113020FEF7A4FD3046AE3D0BF077FBD2
:101C8000E5E72046DFF860800BF009FAAE30C4F8D3
:101C90004401B8F8040048B1E08C38B103F066FBA9
:101CA000B8F80430B0FBF3F202FB130006440BF06B
:101CB0006BFC361841F10001C4E95461002DC9D014
:101CC000AE1941F10001C4E95661C9E7D4E95423D2
:101CD00000212046C4E94A23C4E94C230BF0AAFAA8
:101CE00063E700BF59AF0000540B0020F0B500239C
:101CF00085B0CDE9003303238DF806306846FFF741
:101D00002BFD88B11F4E01230027B3710223CDE9BB
:101D100002778DF80E3002A8FFF71EFD0546C8B108
:101D20000023B37105B0F0BD009809F0CFF9E5E7E5
:101D300090F8240207F076FA94F8240207F064FC85
:101D400094F8240284F80C5207F0FEF8202384F85B
:101D50002432DBE7029B002BDDD093F82422202ADB
:101D6000D9D018884FF6FF739842D9D00221FFF7D7
:101D7000B9FC04460028DBD14FF49B713020FEF7FC
:101D80001FFD00BF540B0020044B0022DA719A7132
:101D900042F210729A80FFF7A9BF00BF540B0020D7
:101DA000014BD871704700BF540B0020014B988045
:101DB000704700BF540B00200D4B0321186830B54D
:101DC0000D4690F8A52090F84B400132B2FBF5F398
:101DD00003EB4303D31ADAB244FA03F3DB0703D469
:101DE000013911F0FF01F0D180F8A52030BD00BF0E
:101DF000600B0020014B186809F04BBA600B002003
:101E000008B503F0E9F8014B187008BD5000002038
:101E1000054B10B41C68827C836804F1420194F87D
:101E2000410010BC0AF0E6BB600B0020024B1868B2
:101E30006C3001F0C7B900BF600B002038B50F4C03
:101E4000FFF7F4FF656801F077F9636828601868A8
:101E500020B940F2EC413220FEF7B2FC09F046FB1B
:101E600010B940F2EE41F6E705F05AF9002005F00E
:101E70008DF9636804221A7138BD00BF600B002021
:101E800038B5194D04466B681B79022B04D940F60E
:101E9000F3013220FEF794FC2B68027C83F8A42027
:101EA0001A44C168996692F8242183F82021426877
:101EB000C3F88820037A022B0ED004F033FF05F01C
:101EC00093F904F0D7FA094805F014F9084805F029
:101ED0000BF9084804F090FF637C23B12B685B6E1C
:101EE0000BB101221A6038BD600B0020BC0000203D
:101EF00055555500D6BE898E08B5074B93F900207D
:101F00007F2A04D140F292313220FEF759FC027050
:101F10007F221A7008BD00BF5000002010B5047861
:101F20008EB004F00F0404A9224609F006FBFFF767
:101F300067FF042C33D11B4C059A2368107893F863
:101F4000781088422BD1507893F87910884226D1A6
:101F5000907893F87A10884221D1D07893F87B104A
:101F600088421CD1107993F87C10884217D151799E
:101F700093F87D20914212D19DF8212093F87E3074
:101F80009A420CD10DF10F00FFF7B6FF9DF90F300B
:101F900004A90093237B227A606809F0B9FA032030
:101FA0000EB010BD600B00202DE9F04F044689B043
:101FB000062900F2C780DFE811F06200E90007009F
:101FC000C500C500C50028006F4D04F0C7FF2F688D
:101FD00097F854309E0701D1032036E06E68B3793C
:101FE000002BF9D00DF11F00FFF786FF9DF91F3080
:101FF00002222146029330462B7A0193FF2300935D
:1020000007F1420309F074FAE6E75F4D6E68B379B1
:10201000002B00F097802F6897F85420900717D571
:102020000DF11F00FFF768FF9DF91F3030460622B3
:10203000029321462B7A0193FF23009307F1420379
:1020400009F056FA002309202B7309B0BDE8F08F80
:10205000D10777D5530701D504F080FF0DF11F009C
:10206000FFF74AFF9DF91F202B6802922A7A42331C
:102070000192FF220092062221466868C2E7424D83
:102080002B6893F85420570737D56968CA79002A16
:1020900033D0426893F85B001678864255D1567863
:1020A00093F85C00864250D1967893F85D008642A2
:1020B0004BD1D67893F85E00864246D1167993F8D4
:1020C0005F00864241D1507993F8602090423CD124
:1020D000627C93F85A00161A7242724193F85600C5
:1020E00001284ED0002A4CD193F84E30082B02D054
:1020F0004A799A4245D004F031FF6E68B379002BDB
:102100003DD02F6897F85420900720D50DF11F007F
:10211000FFF7F2FE9DF91F30304600220293214660
:102120002B7A0193FF23009307F1420309F0E0F9B2
:10213000012309202B736B68DA79002A85D19B79FA
:10214000002B82D104F00AFF46E70022C6E7D10740
:1021500015D5520701D504F001FF0DF11F00FFF75F
:10216000CBFE9DF91F202B68214602922A7A42332A
:1021700068680192FF220092002209F0B9F9032059
:10218000D9E70A20D7E700BF600B0020644D8168C3
:102190006E682A68B379807C0493F37992F848805A
:1021A000059309F01CF892F8543088F001080746AE
:1021B0005B0740F1898092F84D30002B00F084805D
:1021C00092F84E60082E00F08180304602F0E0FC6C
:1021D000002818BF8046002F7AD03046A16802F050
:1021E00011FE06462B6893F841900EB149F00209A2
:1021F00093F85420500746D5626893F85B10107826
:10220000884267D1507893F85C10884262D1907808
:1022100093F85D1088425DD1D07893F85E108842C3
:1022200058D1107993F85F10884253D1517993F8BF
:10223000602091424ED1617C93F85A20891AD1F1E5
:10224000000B4BEB010B69684979082945D093F8DD
:102250004E305A1AD2F1000A4AEB020A002E3FD140
:10226000B8F1000F3ED02046FFF7D2FD059B43B1E9
:10227000296891F8561001294DD011B95BEA0A037B
:1022800049D104F06BFE2B6893F854309B073FF460
:10229000A3AE04F063FE049B002B3FF49DAE2046EA
:1022A000FFF7B6FD10B9D5F80080EEB10DF11F00B3
:1022B000FFF722FE9DF91F202B68029242332A7AF3
:1022C000CDE900920122D7E676797BE7002689E7FF
:1022D0003E4687E74FF0000BB5E74FF0000ABDE739
:1022E0000120C3E73046C1E798F85520023A012A99
:1022F0003FF672AE002F3FF46FAE0DF11F00FFF7F7
:10230000FBFD9DF91F3002932B7A0193FE2300936E
:1023100008F14203D6E70028B3D00A2095E600BFB3
:10232000600B00200D4A536810B51979022904D8B2
:102330004FF4A5513220FEF743FA1979082902D942
:1023400041F2A141F6E71B79126903F180439268DB
:10235000033BBDE8104052F823301847600B0020C3
:1023600010B5054C637A2BB104F03EFF04F082F8FF
:102370000023637210BD00BF600B002010B5054C38
:1023800023792BB104F030FF04F074F8002323719B
:1023900010BD00BFA012002010B5094CFFF7E0FFF0
:1023A000012263681A7100232268A2F8213182F8A1
:1023B0002331FFF73BFD2068BDE8104009F06CBCFD
:1023C000600B0020062938B51C469DF8105019D91D
:1023D00008291DD802B1DDB143689BB912B9437811
:1023E000DB0617D40C4B5B68186809F0A0F800B145
:1023F00035B92CB902F0EEFB00F00104204638BDDF
:102400000120F9E79DF81430002C08BF1C46F5E7C1
:102410000024F3E70124F1E7600B002038B50D1E1E
:10242000044614BF03200520104402F041FC094B70
:10243000587270B15DB9033C012C94BF55245024EF
:1024400003F0ECFF2046BDE8384004F0C1BE402454
:10245000F6E738BD600B0020F8B53E4CFFF7E6FC10
:10246000656800F069FE63682860186820B940F26A
:1024700049413220FEF7A4F909F038F8054610B9B1
:1024800040F24B41F5E7236893F8A6306BB123681F
:102490001A6D93F8A710C3F8102193F854200A433B
:1024A00083F85420002283F8A620206890F8A430F6
:1024B000034493F82471636880F820711A7952B14B
:1024C0001B79012B07D0002109F01AFA18B9BDE8D1
:1024D000F840FFF761BF23681F4A93F8A530D05C2E
:1024E00004F094FC236893F8A420134493F8246127
:1024F000022E2CD004D8012E05D040F2F371B8E79B
:10250000F31E012BF9D800F011FE314680B204F021
:10251000CFFB284604F004FE3146012004F0A2FC63
:102520007B1E2A46384659425941FFF777FF6268B9
:1025300008210023517121722168D3801372E37244
:1025400081F89530A372237303231371F8BD0D2016
:10255000DBE700BF600B002054640200124A10B594
:10256000536800B931B9184600F078FEBDE8104054
:10257000FFF712BF1979082904D841F270413220BF
:10258000FEF71EF919790C2902D941F27141F6E7DB
:102590001B79126903F180435268093BBDE8104082
:1025A00052F82330184700BF600B0020054B1A6813
:1025B00092F85420920703D05B68186800F0E6BDDB
:1025C00058697047600B002070B5304D06466B6847
:1025D0001A79032A02D01A79042A09D1186808F056
:1025E00085FF044638B941F2A8313220FEF7E8F8F9
:1025F000FFF7DCFFF5E72B6893F8543013B941F28D
:10260000AE31F2E776B10AF04BFA30B16B681A7965
:10261000022A0ED841F22E31E7E720460AF05BFA93
:102620000028F3D16B681A79022A17D841F28E314B
:10263000DBE71A79082A02D941F22F31D5E71B7955
:1026400020462A6903F180431269033B52F8233084
:1026500098470C2812D941F2C131C6E71A79082AE5
:1026600002D941F28F31C0E71B792A6903F1804317
:102670005269033B52F823309847EAE72B69DB683D
:10268000BDE8704053F82030184700BF600B0020B1
:1026900007292DE9F043064687B00F469046456866
:1026A000654C23D11DBB002A48D1D4E9001091F814
:1026B000543013F0030218BF012213F00403827197
:1026C00003D033785A1E53425341C37191F894306A
:1026D0004BB12368D3F8900050300AF081FA10B95A
:1026E000636801221A7207B0BDE8F08335B329464A
:1026F000707C08F074FD072F814664D1637A63B162
:1027000058B1B8F1000F55D0656809F0A8FF6368AB
:1027100068715B7923720123A37263685879082872
:1027200058D17168707C0AF051FA62680546716888
:102730000532707C02F054FA00285DD0236893F8CB
:10274000540010F003000AD06268394693F84C3008
:1027500030460195927900924246FFF733FE00F031
:10276000010062682368907193F8540010F004002F
:1027700009D093F84D30394601953046D279009210
:102780004246FFF71FFE2D4B00F0010065681B68F5
:10279000E8711BB14146304698472872726872B39F
:1027A000717C236883F87E10116899679288A3F87A
:1027B0007C2024E0236893F820110129A4D1284625
:1027C00002F048FA6072637A002BA6D0B9F1000FCC
:1027D000A3D099E704AA0DF10F0102F023FA20B962
:1027E0004FF43A613220FDF7EBFF04A99DF80F008A
:1027F0000AF0ECF90546A1E76368D88018726268B0
:10280000137AB3B9D388003B18BF0123B0680028FE
:102810003FF469AF072F7FF466AF517908293FF481
:1028200062AF002B3FF45FAF02F032FA0123E37294
:1028300059E70123EAE700BF600B0020B800002041
:1028400030B58BB00546FFF7DBFA114B1B6893F8E8
:10285000543013F0060F04D00122962100200AF014
:10286000FBFD2C786946284604F00F04224608F048
:1028700064FE002221466846FFF70AFF21466846AB
:10288000FFF792FB0446FFF76BFD20460BB030BD0F
:10289000600B002038B5174D2C6894F8483013B3FE
:1028A0006FF00043D4E920129A4208BFB1F1FF3F14
:1028B00019D00AF069FED4E92023904271EB03039A
:1028C00011D32B6893F8483073B92D6802F0A4F93E
:1028D00004460AF059FE084BA4FB03341B1844EBD2
:1028E0000104C5E9203438BD012002F057FA002860
:1028F000F9D0EAE7600B002040420F0010B5044613
:10290000FFF7BEFA237A032B04D140F622113220BE
:10291000FDF756FF0BB9FFF74FFA064B1B6893F90B
:10292000580004F063FAFFF797FDBDE81040FFF789
:10293000B1BF00BF600B00202DE9F8436F4F0023AB
:10294000054689467869D7F800800370437004F023
:1029500001FC064628B9032002F0D2FC3046BDE84F
:10296000F883032D7C6947D1237823F00F0343F0CC
:10297000030323700C236370D8F878307869C0F8AB
:102980000930B8F87C30A0F80D3098F87E1009F0C6
:10299000EBFE002178690AF06BFD3B6893F8482054
:1029A00003F1420493F8418092B193F85420520706
:1029B00040F1928093F84D20002A00F08D8093F82A
:1029C0004E0002F059FA00281CBF04464FF00108DF
:1029D000236841467869C0F80330A388A0F807301F
:1029E00009F0B5FE464BD3F80C32002B77D040F2FD
:1029F00034613220FDF7E4FE052DBDD1237822227B
:102A000023F02F03627043EA491141F00501217060
:102A100039680B6D1B6AC4F80F300A6D936A180A87
:102A2000E3741B0C2075637592F87E00138E0028EA
:102A30004CD04FF0640CB3FBFCF3DBB2A375D36A4C
:102A4000002846D06420B3FBF0F39BB241F27070D3
:102A5000E3751B0A2376D369A3F57A7C844595BF79
:102A60004FF47A7040F2E240B3FBF0F3B3FBF0F3C3
:102A700098BF03F550639BB263761B0AA376938CD1
:102A8000E3761B0A2377D38C63771B0AA377D2F8EC
:102A90009730C4F81F3092F89B3094F8242084F8C3
:102AA00023300B6D22F01F0293F8A23003F01F03B6
:102AB000134384F8243001F027FF94F8243003F006
:102AC0001F0343EA401384F8243055E740F2E24CF8
:102AD000B1E740F2E240B6E77B68587971E7052D2F
:102AE0007FF43CAF3B6821681A6DC2F80A10A188D8
:102AF000D1811B6D83F8098030E700BF600B002097
:102B000000A0085010B500210320FFF715FF18B9E9
:102B1000BDE81040FFF740BC074C0321206808F0D7
:102B2000EFFE0028F4D00121084604F077FB63682B
:102B300009221A7110BD00BF600B0020F8B5184FB4
:102B40000E46012178610020FEF78EFD054620B972
:102B500040F67C013220FDF733FE4FF494720021E1
:102B60000AF09BFE01210846FEF77EFD044620B1D7
:102B70004FF4947200210AF090FE3B6913B940F6BD
:102B80008601E7E7304608F0B6FB284608F025FF47
:102B900024B12046BDE8F84008F01FBFF8BD00BFD3
:102BA000600B0020014B024A1A617047600B002045
:102BB0001C010020036810B523B940F667113220CC
:102BC000FDF7FEFD044A13606C3353601369BDE8E2
:102BD00010401B68184700BF600B002008B5044B6D
:102BE000586800F03BFBBDE80840FFF7D5BB00BFCD
:102BF000600B002038B590F84030044613F0FD0F0C
:102C000004F1420114BF0120002084F8410001F0CA
:102C1000ABFE94F84030023BDBB2012B94BF0123A2
:102C2000002384F8483018D801F0F6FF05460AF072
:102C3000ABFC0A4BA5FB03351B1845EB0105C4E9AA
:102C4000203594F8483043B1002002F0A7F820B9AD
:102C500040F60F213220FDF7B3FD38BD40420F0092
:102C60000149363009F073BF03B20000013808B5DE
:102C7000C0B20A4B41B1032801D8185C08BD40F22C
:102C8000B9113320FDF79CFD032802D818440079C0
:102C9000F4E740F249310620F4E700BF5A6402002D
:102CA00008B508F021F8054AD2E84F3F0133DBB2FE
:102CB000C2E8413F0029F7D108BD00BF780B0020D2
:102CC000024BA0F108015868FFF7EABF780B00201B
:102CD0002DE9F84F0D461E4600213B4B93460468F4
:102CE00001601A789DF828709DF82C809DF930902D
:102CF0009DF834A032B9A4F108015868BDE8F84F36
:102D0000FFF7CEBF1A2204F109000AF0C6FD012325
:102D1000A372BBF1060F4FD8DFE80BF00433394E36
:102D2000434E3D00E37A23F0130343F01303E372B1
:102D3000012304F10E0241462846237547F6FF732E
:102D400084F81890E38204F10D0308F0A3FBE37A02
:102D50005B0736D5BA1E04F11C03012A8BBFAA6893
:102D600032681168E2618ABFE161B28892889A8014
:102D7000E7760023237215492046BDE8F84F09F095
:102D8000E6BEE37A23F0150343F01503CFE7E37AB9
:102D900043F01003CBE7E37A23F0120343F012036E
:102DA000C5E7E27A4AF01A0A22F01B020AF01B0A6F
:102DB00042EA0A02E272BBE740F22B413320FDF700
:102DC000FFFCFF23E376D4E7780B0020D12D000031
:102DD0002DE9F04F05468DB00C4600200121FEF78D
:102DE00081FC064620B940F2C7113320FDF7E8FC0C
:102DF000A83008F078FD18B196F85430042B2FD184
:102E0000304608F072FA58BBB84C04F1080704F1D8
:102E10000C08AE6A9EB92846FFF752FF02238DF8D0
:102E200004608DF805309DF80430002063F307003E
:102E30009DF8053063F30F200DB0BDE8F08FA96A4F
:102E40000B68B942AB624FF000030B704B708B7094
:102E5000CB70DED04145DCD06068FFF721FFD8E7BA
:102E6000AE6A36B3A24B9E4226D0043B9E4223D08C
:102E700006F13B0A4FF0000801F0F2FC8146B8F180
:102E8000000F40F02E8102A9504608F0E9FBB9F18D
:102E9000000F16D004F10D00EF7A17F0100713D0D1
:102EA0009DF8187005993A4606F0B2FE4FF00108F9
:102EB00028E005F1330ADDE74FF001084FF0000A82
:102EC000DAE704F11C00E7E7002EEFD09DF80830A8
:102ED000022BEBD0014695F83230E522504609F03E
:102EE00065FD95F8323007460344504685F8323088
:102EF00009F054FD95F83280A8EB000CDCF10008D5
:102F000048EB0C08B9F1000F2CD1042305F1230183
:102F1000237007F11803AA7A5343E270221D02338B
:102F2000637005F10B0353F8040B8B4242F8040B5A
:102F3000F9D195F814B095F815A001F0B9FCC1F3DA
:102F4000402958464946FFF791FE6073BAF1000FD9
:102F500004D049465046FFF789FEA073E7762CE07F
:102F6000C8460027EB7AD80601D45B213DE7590714
:102F7000AA7A95F80DE004F1060005F10E0C2FD5A4
:102F8000E97EFE292CD11123E27084F805E023703C
:102F900013010233637001232371D5F80E30C4F896
:102FA0000630BCF8043083802173EB69C4F80D301F
:102FB0002B8CA4F811302B7EE3744C4F07F1080AD8
:102FC00056453AD12379022605F1280066F34613C7
:102FD000237108F07BFA2846FFF772FE04273FE0D2
:102FE00007F10A030321E27053432170023384F88E
:102FF00005E06370D5F80E30C4F80630BCF8043034
:103000008380277327442B7E7B73EA7A12F00800B3
:1030100002D004232371D0E702F00303032B01D174
:103020002071CAE7520701D50123F3E7022BF1D043
:103030000BB92171C1E7A221D7E607F10C094E4572
:1030400015D105F1280008F041FA6A7D6AB92379A3
:10305000042762F34613237102262846FFF730FE49
:103060008DF804708DF80560DDE60027F4E77EB387
:10307000B8F1000F26D005F12808404608F026FADE
:1030800031467868FFF70CFEAB6A0022534585F89D
:10309000322097D04B450BD12379404662F346133B
:1030A000237108F013FA28460226FFF709FE95E778
:1030B0009DF80830022B05D12379012623F06803FF
:1030C00023718BE72379012666F34613237185E785
:1030D000EF7A17F01007C3D0237966F346132371F4
:1030E000E1E700287FF43CAF07460EE7780B0020AD
:1030F000840B0020343270B5054692B20C461E4651
:1031000007F0BAFD25B1034A556014745674147063
:1031100070BD00BF780B002010B5034C606807F04D
:10312000CDFD237C237010BD780B0020014B587C13
:10313000704700BF780B002038B5134D686807F062
:10314000C3FD044620B940F247113320FDF738FB98
:10315000D5E84F3F013BDBB2C5E8413F0029F7D13D
:1031600004F10803342218460AF097FB47F6FF7271
:103170000121E462E283FF22627584F82320E27C6D
:1031800061F34612E27438BD780B002038B5436A0B
:10319000044693B90A4D686807F096FD606220B94D
:1031A0004FF4B0713320FDF70BFBD5E84F3F013BE7
:1031B000DBB2C5E8423F002AF7D1606A3B3038BD38
:1031C000780B0020036810B504465BB1596A49B119
:1031D00001F10802934204BF00230360064B5868C4
:1031E000FFF75EFD216831B1034B08395868FFF7DE
:1031F00057FD0023236010BD780B002038B504680C
:1032000005469CB11349204609F0A7FC124B002249
:103210001A735A739A73DA73EFF3108272B6A16A53
:103220000C3399B9A362E36202B962B62C68616A91
:1032300049B101F108039C4203D0074B5868FFF7DE
:103240002FFD0023636200232B6038BDE16A0B6011
:10325000E9E700BFD12D0000780B002070B50668AB
:10326000044656B3716A154D41B101F108039E42FF
:1032700002D06868FFF714FD0023736221684E7D59
:10328000B6B100232B726B72AB72EB72EFF310824C
:1032900072B6886A0A4B40B98B62CB6202B962B6D9
:1032A0002046BDE87040FFF7A9BFC86A0360F4E795
:1032B00008396868FFF7F4FC266070BD780B0020C1
:1032C000800B002008B5431EDBB2032B0AD80E4A40
:1032D0000428D35C03F10503DBB207D1980100F5A4
:1032E000C87008BDFD219E20FDF76AFA032803D1AE
:1032F000180100F5BF70F4E702280BBF981D581D98
:103300008000C000EDE700BF64640200014610B514
:1033100004460E4805F0F2FD202884F8170111D06C
:1033200021460A4805F0EAFD202884F81E010BD149
:1033300094F8170105F008FE20B940F28F212120F2
:10334000FDF73EFA002010BD0120FCE707BA00009F
:10335000014B1870704700BF510000207FB590F8F6
:10336000143103F0FF0223B140F2B7212120FDF711
:1033700027FA0C78039214F0010318BF8D68CDE989
:10338000012218BF0195A60707D504ADCE6805EB4D
:1033900083050133DBB245F80C6C650707D504AD36
:1033A0000E6905EB83050133DBB245F80C6C013B7C
:1033B000114D80F81D314B68C0F8C830C0F8F830A6
:1033C00040F27123A0F8FC30032315F8011B0C42D6
:1033D0000BD004A900EB820601EB8201013251F807
:1033E0000C1CD2B22B39C6F8CC10013B13F0FF03F2
:1033F000EBD104B070BD00BF6864020008B50B4B90
:1034000030B101280DD040F616012120FDF7D8F982
:1034100018601A6841F669039A4206D940F61F01FE
:10342000F3E740F6C4121A60F3E708BD8C0B0020E6
:103430002DE9F04F04468FB01F469246BDF86060FC
:1034400003910AF0A1F802902046049108F042F995
:10345000D4F8CC908346002F00F03182002800F091
:103460004E82204608F0C3FA80F00107FFB2BAF19D
:10347000000F00F0FB80029B13F5FA630593049B99
:1034800043F1000802F0F2F802F0ACF8054604F14E
:10349000E8002946069002F081F8D4F8101111B125
:1034A000069808F073FA1DB1B5F92420A4F80C2190
:1034B000BBF1000F16D0D4F8F0B0B5B1A868059BE9
:1034C000D5E90021CDE9003880185A4641F10001C4
:1034D00009F09EFB8345034608D240F26631212065
:1034E000FDF76EF9D4F8C8B0E7E72B46069302F073
:1034F000C3F8DDE905239D18D4F8C82002F2CF7087
:1035000048F100080344B3FBF2F35343EB1A68F1AC
:103510000002C4E93A32002E40F09F804FF0FF32A3
:103520006FF00043C4E92A2301214FF0000B04EBA4
:103530000B03069193F8243118460593FFF7C2FE5A
:10354000059B0646184603F0D5FF00F522404FF4D0
:103550007A738C36B130B0FBF3F0D4E92A320644EA
:1035600000205B1B62EB0802012B72F1000106993F
:10357000C0F29C81994570EB020200DB994604EB96
:103580008B0BDBF8CC304B4594BFC4F8DC30C4F86F
:10359000DC9027BB19B34900B4F90C0189B209F0DA
:1035A000EEFAB4F80C21D4F810314FEAE07C121A8C
:1035B00012B2A4F80C2143B1A3F8EC21D3E9722193
:1035C000121841EB0C01C3E97221D4E93A324519D2
:1035D00048EB0C08181842EB0C02C4E93A02BAF1A5
:1035E000000F05D0D4E93A23C4E92C58C4E93023AC
:1035F000039B4FF00009C4F8D8602A462046C4E96E
:103600002E5883F80990434608F07AF8039B187205
:103610005E60002F00F04E810123039A1370029B1D
:10362000049AD4E92A01C31A61EB0201012B71F15A
:103630000002C0F23D81B548984279EB010200DBFF
:103640001846801B039B1861D4F8DC00B04234BFDD
:10365000002001200FB0BDE8F08F42F21073294620
:103660004246E6FB0312C4E92A125DE7002F47D069
:103670006FF00043D4E92A129A4208BFB1F1FF3F2C
:1036800000F00E8194F81C31234493F824613046F5
:10369000FFF718FE0546304603F02CFF00F52243E5
:1036A0004FF47A708C35B1338DF820A0B3FBF0F372
:1036B0001D44029B08A813F1AB02049B099543F13A
:1036C0000003CDE90C230223ADF8283005F054FCAB
:1036D00010B940F2924102E7D4E92A230C9901275C
:1036E000DDF81080521A0D9963EB0103521B51460D
:1036F000029D63F10003002BB8BFD146D34616E705
:10370000D4E93A1202980027D4F8C830451AC818EC
:10371000B5FBF3F503FB05F542F10008029A2D18FD
:10372000A5EB020248F10008AA2A0DD8D4F8B82067
:10373000521AB2FBF3F203FB0211691A5D19B1FBD5
:10374000F3F148F10008F0E694F824618DF8207058
:103750003046FFF7B7FD0546304603F0CBFE00F5D7
:1037600022434FF47A708C35B133D4F8B8108DF809
:103770002970B3FBF0F32B44D4F8C8500993D4E973
:103780003A030A1AB2FBF5F26A431218204643F1D3
:103790000003CDE90C2307F0B3FF29468DF828007C
:1037A00008A808F07EFF0146DDE90C58BDE652F896
:1037B000041B013301F12B06BE429FBF2B3F0BF1CF
:1037C00001067F1A5FFA86FBD9B28842EFD804EB74
:1037D0000B0304EB8B0993F82431D9F8CC2018465D
:1037E00006930792FFF76EFD069B0646184603F008
:1037F00081FE00F522404FF47A73079AB130B0FB96
:10380000F3F007F18C031E443044824209D3D9F807
:10381000CC30DF1B002F26DA40F24C415FE62F460A
:1038200066E094F81D21D4F8C8305A4513D90BF13D
:103830000106AB425FFA86FB0AD904EB8B03D3F88F
:10384000CC302B3304EB8B021D46D2F8CC70E1E771
:1038500040F2264143E6AB42F4D85B009D42F1D3EF
:1038600040F243413BE615EB0805059B2046B9466F
:1038700043F100080027D4E92C2307F0FAFED4F81E
:10388000C8305843D4E93A321B18204642F10002AE
:10389000C4E93A322A46434607F0EBFE014646E6C3
:1038A000029D0127DDF81080514627E7814666E634
:1038B0004846C6E6039B1F70C3E90458C4E6BAF144
:1038C000000F7FF4D8AD0299D4F8C870D4E93A2338
:1038D0008D1AB5FBF7F57D4315EB020801F1AB0539
:1038E000A5EB080543F10003AF42059397D8EF1B02
:1038F000002394F81D0104F1CC029B4664E7BAF161
:10390000000F3FF4FDAE5F46B5E500BF0040420F3B
:10391000F7B501231F4E00273370CDE900776846C5
:10392000FDF71AFF0546E8B10023337003B0F0BD80
:1039300090F8F10105F076FC94F8F10105F064FED1
:1039400094F8F10184F8F05105F0FEFA10B94FF443
:10395000DE711BE0202304F5E47084F8F13101F0FE
:1039600001FEDAE7009B002BD9D093F8F021002A62
:10397000D5D018884FF6FF739842D5D02946FDF769
:10398000B1FE04460028D3D140F2CD113520FCF71A
:1039900017FF00BF900B0020024B0022C3E900225A
:1039A000FFF7B6BF900B0020014B5870704700BF67
:1039B000900B00200138C0B2032808B504D940F2AA
:1039C00049310620FCF7FCFE014B185C08BD00BF26
:1039D000E86402000138C0B2032808B504D940F2F7
:1039E00049310620FCF7ECFE014B185C08BD00BF16
:1039F000846502000138C0B2032808B504D940F23A
:103A000049310620FCF7DCFE014B185C08BD00BF05
:103A1000006602000138C0B2032808B504D940F29C
:103A200049310620FCF7CCFE014B185C08BD00BFF5
:103A30001067020038B504461046621E032A19D8E2
:103A40004A1E032A16D89DF810200C4D002A6970D2
:103A500014BF022200220129214643EA02032871F1
:103A6000AC70EB7014BF0A230023AB72FEF72AF888
:103A7000002038BD6FF01500FBE700BFD601002025
:103A8000084A537A50B143F00403002953724FF0AF
:103A9000000014BF072300235371704703F0FB039A
:103AA000F3E700BFD6010020F8B58D1F40F67A4C31
:103AB0000746BDF82460ADB21046BDF81820654534
:103AC0003BD8841FA4B264458CBF00240124254642
:103AD000AFBB1D4F3F796FB15CB96FF450654D19A5
:103AE000062D06D86FF450640419062C8CBF0024F0
:103AF00001242546FDB1814224D803FB0666B6F5B4
:103B0000FA7F1FDCA2F10A0340F676449BB2A3427F
:103B100018D808F003F942F2107300FB06F15A437B
:103B2000B2EB410F0ED9BDF81C50BDF82000854204
:103B30008CBF002501252846F8BD0024C7E797F86B
:103B40007D70C8E70025F6E7580C0020012821D831
:103B5000022B0DD1A2F57A70104B98421CD8A1F51A
:103B60007A70984218D88A428CBF12200020704781
:103B70000B48824210D8012B07D140F252739A426F
:103B80000AD9A1F6C410074BEBE7042BF9D140F694
:103B9000C313F4E71220704730207047A7F9700272
:103BA0008FFD7002CBF3700210B504460A4807F08F
:103BB00036FC0A492046FFF7D1FB204607F0B3FB4D
:103BC00038B12046FFF716F8204607F025FC002004
:103BD00010BD1220FCE700BF740C00207C0C0020FC
:103BE0002DE9FF4106788046012E40F0988031464D
:103BF0000020FDF777FD054620B940F68F6139209A
:103C0000FCF7DEFDB8F80430002B40F0828007F0AE
:103C10006CFB00287FD195F81431002B7DD128460C
:103C2000FFF7C2FF044600286FD1584F3146304697
:103C3000FDF758FD97F83810064619B110B940F64F
:103C4000AB61DCE73A7F0023CDE9023312F00103D8
:103C50001CBFF86A0290520741BF04AA02EB83031B
:103C60007A6B43F8082C002945D096F81431002BC4
:103C700041D0B8F80230002B3DD13B7F3046BA6AC4
:103C8000009302ABB97F07F061FBA0B3304607F0A9
:103C900030FE06F14003804605F14002683653F8D5
:103CA000041BB34242F8041BF9D12846FFF77CFFFE
:103CB000024610B140F6CD61A1E7B8F10C0F07D173
:103CC0000146284607F0DBFFF8B940F6D16196E7D8
:103CD000B8F1000F02D040F6D66190E77B7F28460E
:103CE000296D43F0040385F8543007F0A4FF60B950
:103CF00040F6D86183E7B8F804202846B8F80210E7
:103D000007F0BDFF002808BF0724204604B0BDE827
:103D1000F0811124F9E73A24F7E70C24F5E70121B3
:103D20000020FDF7DFFC054610B940F6EB6166E7C1
:103D300007F06EFD04460028E7D195F8543095F859
:103D4000A62022B195F8A720134385F8A600053BCD
:103D5000012BDAD82B6D13B940F6FB614FE7012137
:103D60000846FDF7BFFC29464FF49472064605F05D
:103D70004FFF0423316D304686F8543007F05BFF67
:103D80000028C2D14FF4706139E700BF580C002001
:103D9000114BF7B59C7F0646DD7F1F8C14B900F0F0
:103DA0008DFD0446A5B900F089FD054614B909202A
:103DB00003B0F0BD0028FAD0304601A98DF80440C8
:103DC0008DF80550ADF8067008F09CFC0020EFE778
:103DD000002CF1D1EBE700BF1C11002010B503212E
:103DE0000020FDF77FFC044670B90321FDF73CFC81
:103DF000044620B940F291313920FCF7E1FC034B35
:103E000093F9601009F005F9204610BD580C002008
:103E100038B508F0EEFB002500F0C6FE234C00F09C
:103E20005BFD08F072FE01F0F9F801F027FB01F0EC
:103E30001DF9012000F00EFD1D4B1E4A29461D6094
:103E40001D4BA4F854501A601B22DD839A80F9227E
:103E50001D8483F822501D77184B22835868184A16
:103E60001B8922601422E06104F124002384A576DA
:103E7000A580A57509F011FD012342F2107204F12D
:103E80003A0084F8565084F8243084F83930C4E974
:103E90000A2209F0AEFA04F1440009F0B4FA002253
:103EA000002384F87050C4E91A2338BD580C002050
:103EB0003401002003021B001C1100208465020055
:103EC0001B004801064B41F64C521B215A611974E4
:103ED000C3E9022241F288329A61FFF799BF00BF1D
:103EE0001C11002073B53B4D0446AB68C3633A4BCD
:103EF0001B79003B18BF012380F87D30374BC3612D
:103F000007F01BF9064600F0D3FC2B7C10F0200FC5
:103F1000A4F8466084F84430314B0EBF1B22AA88B7
:103F200069881B6814BFA4F86610A4F86620A4F87A
:103F300068201BB194F97C1020889847294B1B6896
:103F400013B12949208898472046FFF721FF0646EC
:103F500050B102212088FDF7DBFB002836D040F26B
:103F600024613920FCF72CFC012363861F4B1B685E
:103F700013B10146208898471D4B1B6813B10021DF
:103F8000208898471B4B1B680BB1208898471A4B19
:103F90001B680BB120889847697804F11400AB883E
:103FA0006A8801910333297803329BB2009192B25F
:103FB00004F11801FDF708FC636913B940F24E6182
:103FC000CFE7A3691BB940F24F61CAE70926304623
:103FD00002B070BD1C110020580C002000093D00EB
:103FE000440100203C010020600C0020540100200E
:103FF000480100204C010020500100202DE9F34130
:1040000005460E4609F046F8002800F0AF80284625
:1040100009F0C4F830B1B6F80130013B7F2B01D96B
:10402000122404E0284609F0BDF820B90C242046EB
:1040300002B0BDE8F081284607F0CBF80028F5D1A2
:10404000284608F0D0FF80460028EFD1284601F02E
:1040500015FF0028E4D042F21073B6F80170F17831
:1040600028465F4309F085F804213078FDF73AFBD4
:10407000044606213078FDF735FB002C78D038B1A6
:1040800041F67D313920FCF79BFB044690F8BD805A
:10409000414E3368002B6DD04034204608F0ACFD13
:1040A000002867D0204608F09BFD002862D1B8F1B7
:1040B000000F08D0394B20461B689847002859D07C
:1040C00041F69131DEE73649424633682046496978
:1040D000984700284ED041F69631D3E7284609F09C
:1040E0005DF840B902210DF10600FDF785FA06469C
:1040F00058B90D249BE7284609F062F80028F1D151
:10410000284B1B79002BEDD18AE7002100F0FEFE41
:10411000BDF8063028463146338009F07CF8284641
:1041200009F04EF8A8B9296A284609F053F8014663
:104130003046FFF7D7FE044600287FF478AF3A46B2
:1041400031462846FDF726FD044620B141F6C2312E
:1041500098E70121ECE7134BDB6D002B3FF467AFD1
:10416000024606F591713046984760E742245EE7C3
:1041700000288AD1284609F009F801460028ADD167
:104180003A462846FDF706FD044600283FF44FAFA7
:1041900041F69F3176E700BF380100204001002042
:1041A0001C110020580C0020014B93F9600070474F
:1041B000580C0020034B5A8802801B788370002023
:1041C000704700BF1C1100202DE9F8430378044616
:1041D000032B03D912252846BDE8F8834378032B27
:1041E000F8D8437E85780BB9012DF3D115F0F80F7F
:1041F000F0D1A80751D5022DECD1504B5B79002BA3
:10420000E8D000F05BFB35EA000340F0928094F8C0
:10421000029019F0010506D001232269A168E07817
:10422000FFF794FC054619F0020F07D0022322691C
:10423000A168E078FFF78AFC0543EDB219F0040F9E
:1042400007D004232269A168E078FFF77FFC0543CB
:10425000EDB2002DBFD1B9F1050F0FD194F8049044
:104260000423E16862694846FFF770FC00285ED1CC
:10427000E3784B455DD1A36899425AD1237E013B37
:10428000062BA7D801210020FDF72CFA814638B96A
:104290004FF459613920FCF793FA69079AD0B0E7D7
:1042A000A83007F020FB18B199F854309A0742D192
:1042B00094F819C0E278BCF1000CA178A06818BF8E
:1042C0004FF0010C012AB4F8009014BFB2FA82F248
:1042D000022294F818E018BF5209CB071ED54B07ED
:1042E00027690BD56669BB19984207D243089F42DC
:1042F00028BF1F46C31B9E4228BF1E460F4B19777F
:104300005A77A3F81E9083F820E083F821C083F841
:104310002410C3E90A07C3E90C865CE7022902D12D
:10432000D4F81080EAE74B0748BF2669E6E7054660
:1043300051E711254FE70C254DE700BF580C002031
:1043400000B589B0437940F271218DF8043083794A
:104350008DF8053001238DF8063003788DF807308D
:10436000B0F801304B430393B0F803204A430D49A2
:1043700091F820100592A2F6C4128DF81C100021AD
:104380008DF81D1008498A4209D8A3F6C4138B4240
:1043900005D801A8FFF718FF09B05DF804FB30202D
:1043A000FAE700BF580C00203C369C002DE9FF4185
:1043B000077804460E46EF2F04D91226304604B083
:1043C000BDE8F081B0F80130ADF80C309DF90C205B
:1043D0009DF80C30002AF0DB9DF80D209507ECD1FC
:1043E000D80660D4990603F0030259D5002AE4D117
:1043F0001D0703D503F06703012BDED1637818078F
:1044000011D42179E278E07942EA0122617942EA25
:104410000142A17941EA0021207A41EA00418A4221
:10442000CBD81F2AC9D9627A013A062AC5D8A27AFE
:10443000032AC2D813F0040102D1023A012A03D898
:10444000E27A012AB9D811B9A27C032AB5D813F0AF
:104450001001227D37D0012AAFD1237E012BACD8A9
:10446000002940D06378D90703D500F09FF90028D0
:1044700040D06378227D03F01803082B4AD1022A2A
:1044800038D11FFA87F803214046FDF72BF905467E
:10449000002845D006F09DFE00284DD00C268DE763
:1044A000032AA5D189E713F0600F86D103F00F022C
:1044B00003F00703052BA1D0931E012B9ED9002AE0
:1044C0007FF47BAF9AE7022A04D103F06F03092B34
:1044D0007FF473AFA37D013B022B3FF66EAFE37D0C
:1044E0000F2BBAD969E700F0E9F9820707D4237DD9
:1044F000022B01D1112661E7A37D022BFAD000F037
:10450000DDF94307AED4237D032BF3D0A37D032B2A
:10451000A8D1EFE7022AB4D0237F002BB1D0E9E77E
:1045200003214046FDF7A0F80546002843D0234B61
:1045300093F9601008F06DFD0021384608F045FF42
:1045400028BB284608F01FFE21463070E07428463C
:1045500001F0ECFCE37E0646002B3FF42FAF002871
:104560007FF42CAF0246E96C6846FDF7EFF932465E
:10457000E86C012106F0F4FBE96C68460422FDF7C3
:10458000E5F932463146E86C06F0EAFB16E74030C2
:1045900008F032FB0028D4D0637813F0330F7FF497
:1045A0000CAFA77D2846296A08F014FEFFF712FA1F
:1045B0008742C6D072E7072600E700BF580C0020EC
:1045C00030B502798BB00346042A5CD84488B4F530
:1045D000804F58D82D4800211044ADF800108DF8B8
:1045E0000810827C457B42F010028DF81D1042EAD3
:1045F0004502C57D007F42EA850242EAC00202F020
:104600001F028DF80020BDF80020ADF809201A889F
:104610008DF80E40240A8DF80B20120A8DF80D102B
:104620008DF810108DF80C208DF80F405A7BD3F8C0
:1046300007008DF811205A79059002A88DF81220F4
:104640009A798DF81320B3F80B209B7BADF81820D6
:104650008DF81A307F238DF81B3001238DF81C3024
:104660008DF81E308DF81F108DF820108DF8231056
:104670008DF824108DF821108DF822106946FFF76F
:1046800095FE0BB030BD1220FBE700BF8465020031
:104690000278034672B1427862B142881A2A09D977
:1046A00082881A2A06D90068034A106000209B8875
:1046B00093807047122070471C1100200268002070
:1046C000014B9A60704700BF1C1100200378FF2B3C
:1046D00016D14378FF2B13D18378FF2B10D1C378E9
:1046E000FF2B0DD1037923F0E0021F2A08D113F02C
:1046F000E00F05D05B09034A002082F820307047A4
:1047000012207047580C00200378012B9DBF03F046
:104710000103034A0020122098BF82F83930704705
:10472000580C0020014B187600207047580C0020D0
:10473000014B587600207047580C0020024B1B6834
:1047400003B11847112070475801002008B500F048
:10475000F5FEFFF721F9FFF727FD01460248BDE806
:104760000840FEF7EBB900BFCC0C002008B501F003
:104770007DFBFDF709FB0248BDE8084001F060BB86
:10478000CC0C002010B5064C064904F5037007F068
:10479000F8FE04F504700449BDE8104007F0F1BECE
:1047A000CC0C00205C01002064010020014B93F838
:1047B0000A027047CC0C002010B5064C064904F5DF
:1047C000037007F0DEFE04F504700449BDE81040F4
:1047D00007F0D7BECC0C00206C0100207401002033
:1047E00038B5094C0D4600F043FDD4F80C02C4F86E
:1047F000045107F0BEFEFFF765FB00F0CFFD01237B
:1048000084F8183238BD00BFCC0C0020014B93F85F
:1048100018027047CC0C002010B50D4CD4F81002D3
:1048200007F0A7FED4F8140207F0A3FEFFF7F0FA92
:10483000202000F01BF82F2000F018F8262000F0B0
:1048400015F8292000F012F8002384F8183210BD62
:10485000CC0C0020014B83F819027047CC0C0020CF
:10486000014B93F819027047CC0C00200E4B01212C
:1048700010B503EBD002C40800F007008140185DBA
:1048800020EA0100094918550B78A34205D1002000
:1048900012F8014914B100B10B7010BD002BFAD011
:1048A000013B0120DBB2F3E758000020E60E0020B8
:1048B000014BD3E90001704758000020054B1868F0
:1048C000C0F3C022C0F30020400040EA820040F064
:1048D000010070475800002008B503F0A5FC002334
:1048E000074A32F82310814205D302EB83039B78F9
:1048F000044A137008BD01330C2BF2D10023F7E7F3
:10490000D0650200E70E0020024B1878072828BF68
:1049100007207047E70E0020064BB3F85220824272
:1049200001BF002283F850204FF6FF72A3F85220F7
:10493000704700BFE80E002050B90A4A0120134614
:1049400003F8010B0868C2F801008A889A80704752
:10495000012805D1034B0A68D8719A608A889A8128
:10496000704700BF400F002048B90A4B187880B14B
:10497000D3F80120B3F805300A608B807047012816
:1049800006D1044BD87920B19A689B890A60F4E774
:1049900000207047400F002020B9054B187800F028
:1049A0000100704701280ABF014B0020D879F6E7C3
:1049B000400F0020F7B58B8800228DF80600ADF877
:1049C000043008680B4B8DF8072001461C7803F56E
:1049D000AC73019DD0B2844201D8082007E0D3E92E
:1049E000007601320833AE4208BF8F42F2D103B0E5
:1049F000F0BD00BF500F0020084B0146002230B52B
:104A00005C7803F58173D0B2844201D8082004E0B9
:104A100013F8015B01328D42F5D130BD500F0020FB
:104A2000F0B5254D89B095F8984105F29911684681
:104A3000224605F0EDF82146684607F0F9FD0446E8
:104A4000B8B300EB400102A8C9B2FCF7EDF8601E54
:104A500095F8A1610124C0B295F8982105E0731C76
:104A6000B3FBF2F102FB1133DEB206F120030DEBD2
:104A7000030111F8203C002BF1D100EB400201F8BA
:104A8000204C06EB460320322B446A4412F8187C73
:104A900083F8A27112F8177C12F8162C83F8A37110
:104AA00083F8A4210138AB19C0B283F89941FF28DB
:104AB000D2D109B0F0BD00BF500F002070B506463E
:104AC00088B00C46002A4ED0294A92F8A131D0185D
:104AD00090F8991119B9FF212820FBF771FE03EB1B
:104AE00043010133114491F8A251E57091F8A351AB
:104AF00091F8A41125716171002180F8991192F843
:104B00009811B3FBF1F001FB103382F8A13192F858
:104B1000C23123B9174902F5DD7008F01BF8657939
:104B20000D220021684605F03F0545F040056571FE
:104B300008F0B3FEE37804AA69468DF80F303046DA
:104B400023798DF80D508DF80E30042308F0E5FD23
:104B50009DF81F3023709DF81E3063709DF81D3046
:104B6000A37008B070BD03216018FCF75DF8D6E7AC
:104B7000500F0020214A0000044B5A78824286BF21
:104B80001B1893F84A010020704700BF500F002007
:104B9000044B5A78824286BF1B1893F842010020CA
:104BA000704700BF500F0020064B00224FF4617188
:104BB0001A8083F8C32183F8C421A3F8C61183F8AF
:104BC000C2217047500F0020014B83F8C401704789
:104BD000500F0020014B93F8C4017047500F002084
:104BE00010B51446FFF7E6FE082803D1012000F0B7
:104BF000010010BDFFF700FF064B5A788242F5D93D
:104C000004B12070184490F83A31012BEED090F89E
:104C10004A01ECE7500F0020014BB3F8C601704782
:104C2000500F00200A4B30B55C7884420ED91844EE
:104C300090F802012B3003EBC004A5790D7053F8F6
:104C4000300010600120A388938030BD0020FCE775
:104C5000500F002070B506460D4602F0C5FA01F06F
:104C600009FC0A4B93F8C3415CB1597859B1981CBF
:104C700082333246002D08BF184601F09DFB01F03B
:104C80002DFC204670BD0C46FBE700BF500F0020F6
:104C900008B5064B024603EB0113012103F1820024
:104CA00001F08AFBBDE8084001F018BC500F00205D
:104CB0000246074810B590F8C34124B1417821B1AC
:104CC000023001F079FB204610BD0C46FBE700BF27
:104CD000500F00202DE9F74F2F4C9A468046894609
:104CE0006378834256D9231893F8425185F0010521
:104CF000F9B193F84A31E3B945F002070135BAF149
:104D0000000F18D1FA070AD5062104EB0810524605
:104D100001FB0841823001F58571FFF7CFFEBB072B
:104D200034D504EB0810524649460230FFF7C6FE60
:104D30002CE02F46E3E794F8A1614FF0010B002D22
:104D4000E0D0A31993F89911019399B90092DAB1BF
:104D500000F0F4FA019B06EB4601009A4FEA102C92
:104D600083F899B1214481F8A201000C81F8A3C114
:104D700081F8A401013694F89831013DB6FBF3F1B6
:104D800003FB1166F6B2DAE747F00407384603B0D2
:104D9000BDE8F08F0027F9E7500F0020F8B5064670
:104DA000174C48B3617804F5A17007F041FC94F802
:104DB0009851074604F29910294607F039FC2D1A3C
:104DC000EDB2AF421AD8002506270FE0E21892F89C
:104DD000422152B907FB034104EB0313324601F5AC
:104DE000857103F18200FFF769FE01356278EBB24D
:104DF0009A42EBD80120F8BD0546E5E70020FAE726
:104E0000500F0020F0B51B4E89B007460D46737851
:104E100083422CD9331893F8424144BB0D222146DA
:104E2000684608F03AFDEB7806EB071004AA8DF807
:104E30000F3069462B7982308DF80E306B798DF802
:104E40000D30042308F069FC2A789DF81F309A423F
:104E50000AD16A789DF81E309A4205D1AC789DF847
:104E60001D00231A5C425C41204609B0F0BD0020C1
:104E7000FBE700BF500F0020074B5A78824209D948
:104E80001A1892F842212AB9062202FB003000F5D6
:104E90008570704700207047500F0020064B5A78ED
:104EA000824281BF1B1893F83A01B0FA80F04009A2
:104EB00098BF0020704700BF500F002030B500247D
:104EC00042F21075A0F84040B0F844404C43B4FBA7
:104ED000F2F4A0F84440541E05FB0343B3FBF2F385
:104EE000A0F84230084BB3FBF2F30133A0F848308E
:104EF000838F05FB0344436B5943B4FBF2F4B1FBCE
:104F0000F2F28463426330BD005A620270B5044617
:104F10000D4659BB4FF4367208F0BFFC012384F8EC
:104F2000E65084F896306FF0360384F8E1300423BD
:104F300084F8E2306FF03B0384F8E3306F2384F8A9
:104F4000E4306FF03C0384F8E5306FF07F0384F8C1
:104F5000E7302B2384F8E030FE2384F816317F23DA
:104F600084F88D30202384F8243270BD012917D1B4
:104F70000023A0F8E43180F8DB310D4BC269134403
:104F80001146B3FBF2F3C0F8B83040F6B833A0F8DE
:104F9000BC30C38C04F18000BDE87040FFF78EBFC9
:104FA0000229E2D1B0F8AE32D0F8A822C169F1E707
:104FB0007FC3C901074B93F900301844142804DC5F
:104FC00010F17F0F03DB40B27047142070476FF081
:104FD0007E007047181100207F2307B50DF10700F0
:104FE0008DF8073002F00EF99DF9073068B10A4AD2
:104FF0005078404240B21844142808DC10F17F0F6A
:1050000007DB40B203B05DF804FB1846FAE7142052
:10501000F8E76FF07E00F5E718110020024B002240
:105020001A705A70704700BF18110020054B1B788A
:1050300033B9054B1A681B79026003710120704770
:10504000002070471A11002068000020054BFF2245
:105050001A70054A016811600179117100221A70F5
:10506000704700BF1A11002068000020064B07B5EA
:1050700018681B79009068468DF80430FFF7E6FF4A
:1050800003B05DF804FB00BF56CD020083230B7014
:10509000014B1B78CB707047401100202DE9F3477E
:1050A00006460D460527DFF86481DFF864912B6919
:1050B0004BB11B7A1BB980211020FBF781FB2C69B7
:1050C00094B9002066E06C68237A012BF9D0EFF3E5
:1050D000108372B66A6812686A6003B962B62C619E
:1050E000237A0BB9A621E7E794F808A05FFA8AFAB9
:1050F00027720AF1FF330B2B73D8DFE803F06F063A
:1051000010276C3D4E3D3D3D3D61636813B94FF442
:10511000D771D1E731462046984704201EE06368E6
:1051200013B940F2B711C7E7314620469847034606
:10513000ADF80400C0B2C3F30723012B54D0022BF7
:105140000CD100232B610028B1D023E0636813B990
:1051500040F2BF11B0E7204698470020EFF31083DC
:1051600072B6227A052AD1B246D1002222722A6171
:10517000002BE8D162B6E6E7D9F80030002BECD07E
:105180005246314660689847BAF10A0FC5D10023EC
:105190002B61042002B0BDE8F08763680BB9B5212C
:1051A0008AE70D2200243270012219885869B270F2
:1051B000A6F803107271B47105F0DDFC2C61E8E70C
:1051C000D8F80030314620469847034660B10023A6
:1051D00002202B61DEE74FF4FB716DE740F2F9111D
:1051E0006AE74FF4FE7167E784F808A00028D1D180
:1051F000002B7FF45CAF64E711B940F21D215BE73F
:10520000002B7FF454AF62B651E700BF8401002049
:105210008001002070B5144C14260021231D324655
:10522000184608F03AFB034601252574043332463C
:10523000002104F11800C4E9013308F02EFB84F8C2
:10524000245004F11C03094AC4E906330023E36235
:10525000236384F83430C4F83530C4F8393084F826
:105260003D30136070BD00BF401100207C01002064
:1052700010B5084C2378FF2B04D04FF4A0711020F8
:10528000FBF79EFA04F0CCFB2070BDE81040FFF75E
:10529000C1BF00BF6D00002010B5034C207804F0A2
:1052A000DBFBFF23237010BD6D000020014B18783D
:1052B00004F0E2BB6D00002010B506490446FFF77C
:1052C000EDFE28B920460449BDE81040FFF7E6BED0
:1052D00010BD00BF5811002044110020134610B526
:1052E000027A22B140F299211020FBF769FA0A46AE
:1052F00001460248BDE8104007F009BC44110020F7
:105300000346064890F83E203AB190F83D2022B975
:10531000034900F8353B07F017BC704740110020E7
:105320008D5000001346027A0AB1037270470A4694
:105330000146014807F0EBBB44110020094AD2E9BD
:105340000003434083EAB01181EA43214FEAF3436B
:1053500011605360044B58434FEAF06000EB80004B
:10536000704700BF80110020BB79379E094AD2E9FF
:105370000003434083EAB01181EA43214FEAF3433B
:1053800011605360044B58434FEAF06000EB80001B
:10539000704700BF70000020BB79379E10B50A4CE3
:1053A00008210948FBF740FCD4E900231343F7D058
:1053B000064CFFF7DBFF2060FFF7D8FF2368606033
:1053C0000343F6D010BD00BF700000208011002004
:1053D000F0B5204E054600243078147080B1431E8D
:1053E0007768DBB2181B01280BDC07EBC40057F809
:1053F00034604068884208BFAE4212D11470012068
:10540000F0BD18194610C0F3470057F836C007EB37
:10541000C60EAC45DEF804608E412CBF0346044640
:10542000E0E7B54271EB000002D214700020E7E71C
:1054300007EBC30057F833404068884208BFAC42CE
:1054400001D11370DBE7A542814128BF01331370FE
:10545000ECE700BFA811002010F0070208B503D048
:1054600063214820FBF7ACF918B1034B197258605F
:105470001A70C80008BD00BFA8110020014B00220F
:105480001A707047A8110020014B187A704700BFAE
:10549000A81100202DE9D34307F08CFB0DF1070282
:1054A00007460E46FFF794FF98B9114C2278237AED
:1054B00093420ED0616813466FF0604E9DF807006E
:1054C000984209D301EBC003013201202270C3E9E5
:1054D000007602B0BDE8D08303EB0E00013B01EB88
:1054E000C000DBB2D0E90089C0E90289E6E700BF6D
:1054F000A811002037B507F05DFB0DF10702FFF79B
:1055000067FF0446A0B10C4A9DF807001378556860
:10551000411C013B05EBC101DBB213701A1AD2B278
:10552000D200834238BF002205EBC00008F09DF98D
:10553000204603B030BD00BFA8110020024B00225E
:10554000C3E90022704700BFCC11002008B5044B0E
:10555000186810B9FFF7F2FF08BD0C20FCE700BF88
:10556000CC11002010B5D0E906436BB1D0E902217F
:105570009C611144DA680A44DA6082693AB1D36105
:105580000023C0E9063310BD034A1460F5E7002B81
:10559000F6D0DA60F4E700BFCC11002008B5C16195
:1055A00091B90F4A1368836103B1D8611060002379
:1055B000C269C3609AB1D3687BB181688B420AD259
:1055C0002D213720FBF7FCF88B6988618361002B64
:1055D000EDD0D861EBE75B1AC3600023D36008BD50
:1055E000CC110020034B00201B6803B970471846FC
:1055F0009B69FAE7CC1100200B4B002230B51B68E9
:1056000004464FF0FF35104623B911B9002808BFF2
:10561000104630BDDA68A24203D3AA423CBF154609
:1056200018461A469B69EFE7CC11002038B5036A8B
:105630001BB182689C68A24203D2CD213720FBF7C0
:10564000BFF8C1698569D9619D6141B18B61996973
:1056500041B1CB61C1680A44121BDA6038BD02490E
:105660000B60F4E7D960F9E7CC110020014B01226F
:105670001A717047CC110020014B00221A7170473B
:10568000CC110020014B1879704700BFCC110020CD
:105690000F4B4FF47A72042953F8213010B503F2FE
:1056A000E73300F1FF34B3FBF2F34FEAC41409D03F
:1056B00003290AD002290CBF6022F022234400FBF8
:1056C000023010BD4FF4D262F8E740F2BE22F5E797
:1056D000C46602000346074A1068D3F86920C0F880
:1056E0000320B3F86D20A0F8072093F8681007F0A6
:1056F0002EB800BFD4110020D0F88030F7B50BB120
:1057000001221A604388DB0727D50023056A144E5F
:1057100005F10A07CDE9003302238DF80630FF2397
:1057200086F820306846FCF717F8B0B9009CA5420F
:10573000F8D03B466A7A04F10A01607A06F05AFF13
:105740000028EFD0A37886F82030D4F80330C6F8CC
:105750002130044BB4F807209A8003B0F0BD00BF9D
:10576000D4110020F511002070B504460E461346F2
:10577000807F6588324615F0040118BF04F1770177
:10578000FFF7A8FA4207054623D4C3070BD5012328
:10579000A07F84F86830FFF76FFB0368C4F86930B6
:1057A0008388A4F86D3015F0020F4FF001050ED07C
:1057B000094B294684F876501868D4F87730C0F839
:1057C0000930B4F87B30A0F80D3006F0CDFF284644
:1057D00000E0002070BD00BFD411002010B50446C9
:1057E000084694F8D8306BBB2378082904F1DB0213
:1057F00084F8D93016D004F1DA01FFF713FA20B992
:1058000040F645712D20FAF7DBFF94F8DA3043F0CB
:10581000020384F8DA3004F1D0000B49BDE81040EF
:1058200007F092B9094B1868034613F8031BC1F33C
:10583000801184F8DA10D0F80310C4F8DB109B88CC
:105840009380E8E710BD00BF47CC0000D4110020D2
:1058500070B504460E461546FFF702F898B923784E
:10586000A4F8C16084F8C030637C84F8BF500BB1E9
:1058700094F8483004F1B60084F8C3300249BDE81A
:10588000704007F061B970BD91CF000003292DE988
:10589000F043054685B090467BD090F888300529C6
:1058A000DBB202D14288D60760D5002B5ED101273A
:1058B000DFF8E89099F81260B6B106F0D0FE08283B
:1058C00088F8000014D002AA0DF10701FFF7AAF929
:1058D00020B940F6CF612D20FAF772FF02A99DF89A
:1058E000070007F073F9064698F80030082B08D136
:1058F000D9F8001011F8030BC0F3801007F066F917
:105900000646D9F8001005F1700395F86F2011F8DC
:10591000030BC0F3801006F06DFED9F800100446AA
:1059200011F8030BC0F3801006F08FFE8146FFF7DD
:10593000B5FA014640B1B9F1080F1BD04846FFF750
:105940001BF980F00101C9B298F80000082815D0B1
:1059500094B9AB7F1C1A604260416B885A0706D429
:1059600021B996B92B7D93B1BB4210D0002005B070
:10597000BDE8F0830021E7E70120EEE714B181F0F4
:105980000104E4B204F00100E7E73046EFE701204C
:10599000EDE743889B07E9D5022789E7D41100206A
:1059A000032973B5044604D005292BD0012002B089
:1059B00070BD08230DF107028DF80730FFF766FF71
:1059C0000028F3D0237C23B19DF807102046FFF771
:1059D00005FF114D0622042620462B685A701E70C2
:1059E000FFF778FE94F85C20A16D286806F0D5FEDC
:1059F00028682E7101F094FB2868002107F038FD1B
:105A00000020D4E7054B1B6823B1984780F00100C4
:105A1000C0B2CCE71846CAE7D411002088010020A4
:105A200038B5B0F848300446194D0133C3F30E03BE
:105A3000A0F84830AB7C2BB101F0D6FB00F01AFD8A
:105A40000023AB7400232B7194F889302BB1012112
:105A50002046BDE8384005F07CBB637CB3B1B4F8A8
:105A600048209A4212D30121204605F072FB638838
:105A70002046DB0747BF236A432243224FF6FF71CC
:105A800048BF1988BDE83840FFF7E2BE0021DFE7D4
:105A9000D411002010B5094C2379012B02D02379B1
:105AA000022B05D1A37C1BB101F09EFB00F0E2FCB0
:105AB000A06ABDE81040FFF7B3BF00BFD4110020BB
:105AC0000346074A906A03B909B9FFF7A9BF1379DA
:105AD000D26A03F180431269033B52F8233018471E
