:10000000F84A0020494B000079E80000354B000019
:10001000354B0000354B0000354B0000354B0000E0
:10002000000000000000000000000000BD4C0000C7
:10003000354B000000000000514C0000354B000023
:100040004D4E00004D4E00004D4E00004D4E000044
:100050004D4E00004D4E00004D4E00004D4E000034
:100060004D4E00004D4E00004D4E00004D4E000024
:100070004D4E00004D4E00004D4E00004D4E000014
:100480007BB972B90029BEBF00204FF0004106E0E1
:1004900008BF00281CBF6FF000414FF0FF3000F094
:1004A00057B8ADF1080C6DE904CE002909DB002B2B
:1004B0001ADB00F069F8DDF804E0DDE9022304B09E
:1004C0007047404261EB4101002B1BDB00F05CF800
:1004D000DDF804E0DDE9022304B0404261EB4101B4
:1004E000524263EB43037047524263EB430300F015
:1004F0004BF8DDF804E0DDE9022304B0404261EB93
:1005000041017047524263EB430300F03DF8DDF8D0
:1005100004E0DDE9022304B0524263EB4303704779
:1005200053B94AB9002908BF00281CBF4FF0FF315A
:100530004FF0FF3000F00CB8ADF1080C6DE904CEBF
:1005400000F022F8DDF804E0DDE9022304B0704792
:10055000704700BF10F8012B11F8013B012A28BF9A
:100560009A42F7D0D01A7047034611F8012B03F8CE
:10057000012B002AF9D17047034613F8012B002AFA
:10058000FBD1181A013870472DE9F04786468C4692
:100590000846089E154674461946002B40F0C18057
:1005A0008542B2FA82F245D94AB1C2F1200300FA7B
:1005B00002FC954094402EFA03F343EA0C0C4FEAF8
:1005C000154EA8B2230CBCFBFEF80EFB18CC08FBA2
:1005D00000F943EA0C43994528D9EB1808F1FF3795
:1005E00004D2994502D9A8F102072B44A3EB0903D1
:1005F000A4B2B3FBFEFC0EFB1C330CFB00F044EA80
:100600000344A04214D92C190CF1FF3304D2A042A8
:1006100002D9ACF102032C44241A43EA07401EB16C
:10062000D440002334607360BDE8F0874746DDE7BF
:100630006346F1E792BB431B01214FEA154EAFB26F
:10064000200CB3FBFEFC0EFB1C330CFB07F840EA4E
:100650000343984561D9EB180CF1FF3004D298455B
:1006600002D9ACF102002B44A3EB0803A4B2B3FB04
:10067000FEFC0EFB1C330CFB07F744EA0344A742C5
:100680004DD92C190CF1FF3304D2A74202D9ACF199
:1006900002032C44E41B43EA0040C0E7C2F12003FC
:1006A0009540944020FA03F12EFA03F34FEA154ED9
:1006B0009040AFB20343B1FBFEFC0EFB1C10190CC3
:1006C0000CFB07F841EA0041884522D969180CF172
:1006D000FF3004D2884502D9ACF102002944A1EBD5
:1006E00008019BB2B1FBFEFC0EFB1C110CFB07F7D3
:1006F00043EA01439F420ED9EB180CF1FF3104D2BB
:100700009F4202D9ACF102012B44DB1B41EA0041BC
:1007100093E76046E3E76146F7E76046A4E7634690
:10072000B8E7834206D916B9002108467CE7C6E936
:1007300000E0F9E7B3FA83F78FB9834201D372453A
:1007400008D8BEEB020460EB030301209C461EB9EF
:10075000002169E73846FAE7C6E9004CF8E7C7F137
:10076000200CBB400EFA07F522FA0CF42EFA0CF11D
:10077000BA401C4320FA0CF3B8404FEA1449014335
:100780001FFA84FEB3FBF9F809FB18300B0C08FBC9
:100790000EFA43EA00439A4540D9E31808F1FF30C6
:1007A00004D29A4502D9A8F102002344A3EB0A031C
:1007B00089B2B3FBF9F809FB183308FB0EFE41EAD6
:1007C00003418E452CD9611808F1FF3304D28E45C0
:1007D00002D9A8F10203214443EA0040A1EB0E0133
:1007E000A0FB02984145CE46434602D306D14D4573
:1007F00004D20138B9EB020E68EB0403002EA7D037
:10080000B5EB0E0261EB030101FA0CFC22FA07F3CF
:10081000F9404CEA0303C6E9003199E74046C5E7D1
:100820004346D9E7000000002DE9F04704460F4693
:10083000164688B00FF0ADFF4FF47A75A0FB050C9B
:1008400047F6122205FB01C10023FFF769FE012FC5
:1008500080460D4607D102460B46204626490CF03D
:100860009CFF002011E0766824483146FFF772FEB5
:1008700070B131462248FFF76DFE48B1204632463E
:1008800020490CF0A6FF6FF0040008B0BDE8F08727
:10089000404617A3D3E900232946FFF7F1FD06469A
:1008A0000D4610461946184A0023FFF7E9FD804619
:1008B0000F46104619464EF660220023FFF7E0FD72
:1008C00082468946104619464FF47A720023FFF794
:1008D000D7FDCDE902A9CDE90623CDE904013246D1
:1008E0002B462046CDE9008708490CF056FFB8E7B3
:1008F000005C260500000000214601003246010090
:10090000354601003E46010080EE360056460100A5
:100910002DE9F041044600264FF001080F4D2F68E5
:1009200038460FF00AFD38B920460D490CF051FF4A
:100930006FF01200BDE8F081297908FA01F1BB6877
:1009400038465B6901369847102E05F10805E6D157
:10095000204604490CF021FF0020EBE7341F010082
:10096000144101003141010008B50948036803F052
:100970000703022B03D90321064A0CF036FC40F68C
:10098000354000210FF066FE002000F0FFFC00BFA4
:10099000140400204F4101002DE9F0474FF00109F8
:1009A00006460D464FF00008174F81EA090A3C68D9
:1009B00020460FF0C2FC38B9304614490CF009FF4C
:1009C0006FF01200BDE8F087236939791B6809FAD6
:1009D00001F1194214BF53462B468BB1A368DB6863
:1009E000204608F101089847B8F1100F07F10807F1
:1009F000DDD130462A4606490CF0CFFE0020E1E763
:100A0000A3681B69ECE700BF341F0100144101001B
:100A1000714101002DE9F04105460027144E34686C
:100A200020460FF08AFC40B9284612490CF0D1FE4E
:100A30006FF012042046BDE8F08196F804804FF470
:100A4000B012204641460BF04CFE044628B1424607
:100A5000284609490CF0BDFEECE70137102F06F1DE
:100A60000806DCD1284605490CF097FEE2E700BFF6
:100A7000341F01001441010091410100B341010004
:100A80002DE9F041464D00AF2B6803F00703022B20
:100A90001DD96C4688B06A46424B5361424B936104
:100AA0004FF400739383414B42F8103F00234FF4FF
:100AB000E651284601F01CF92B68A54603F0070310
:100AC000022B04D903212846394A0CF08EFB394CFD
:100AD00020460FF032FC0346C8B92A68510712D0ED
:100AE00021686C4688B06A463348C2E905014FF474
:100AF000007191832D4942F8101F4FF4E2512848AC
:100B000001F0F6F8A5460020BD46BDE8F0810021C1
:100B100020462A4A0BF0E5FD0146A8B12B685A078A
:100B2000F1D023686C468AB06A462548C2E90501BF
:100B300040F20131D361002391842249136242F8CB
:100B4000101F4FF43151DAE7A6682369D6F81880F0
:100B5000B8F1000F17D01B684FF0A07213F0010F0F
:100B600014BF4FF000734FF080632046C04760B958
:100B700001221549154B8A604B60F369002BC2D0E6
:100B800020469847BFE76FF057002B685B07BAD045
:100B900023686C468AB06A460D49C2E90510C7E76A
:100BA00014040020DE4101001F4201000300000187
:100BB0002D4201007C0F0100604201001100010084
:100BC0008542010005000001201400206909000091
:100BD000AD4201002DE9F04F91B0009302F0040303
:100BE0000293C2F3C2030133840705460E46DDF8C3
:100BF00068800392059340F0BB81041D30B1072942
:100C000009D86FF01B0011B0BDE8F08F01F00706A6
:100C10003444C6F10806009B4FF000094FF0040A67
:100C2000591E4FF0FF334F460193CB465346CDF844
:100C300010900DB1009A22600598002800F3E8801A
:100C40009848009A824203D397488242C0F0E080DD
:100C5000039AA4EB050E92074FEA9E0000F1038170
:100C60000F2F00F2B180002D00F0058107F1400246
:100C70000DEB020C019A0CF8200C0CF8102C0498C7
:100C800001300490E7E07A285DD84B280ED8472839
:100C900059D829282DD8252852D054D820287AD0A0
:100CA0002338D0F1000B4BEB000B74E04C382E28AE
:100CB00049D8DFE800F07048484848484848484864
:100CC00048484B484848484848484859484B4B5979
:100CD0005959704B6D487048184B184848827F4BE3
:100CE00048484B487F0000204FF0000B4FF0040AAB
:100CF00038E001222A38C0B202FA00F010EA0E0FE2
:100D000049D110F0625C2FD110EA020B43D060464B
:100D1000013C5444B4FBFAF40AFB04F4002D61D006
:100D2000A3EB050CA444B4453FF66BAF002868D193
:100D3000042B47D158F8043B2360042304342AE0F1
:100D4000019A013A01924FF0000B24E011F8010CD6
:100D50006C2834D1002011F8023C83466C2BC5D19D
:100D60004FF0080A5346D3E708F1070828F00708B0
:100D7000073424F00704F8E802AB35B106982044A4
:100D8000B0423FF63EAFC4E900AB4FF0000B083471
:100D90004FF0080A534611F8010F002878D0BBF134
:100DA000000F7FF470AF2528F5D14FF0010B019BA8
:100DB000013301934FF0040AECE7584694E7002012
:100DC0008346A5E7082B02D06FF015001BE708F15A
:100DD000070828F00708F8E80223C4E900230823DD
:100DE0000834D8E768B9042B02D108F10408A4E755
:100DF000082BE9D108F1070828F0070808F10808CE
:100E0000EDE7059A013A059258F8042B009210E795
:100E1000039A900720D54FF0010CA4EB050E4FEA82
:100E20009E00BEF5007FCFD20F2FCDD8F5B107F1D0
:100E300040020DEB020E019AC0B20EF8200C0EF823
:100E4000102CBCF1000F3FF41AAF60F07F000EF8D9
:100E5000200C09F101090137C5F108024FF6DA7ECD
:100E60000434069297E74FF0000CDAE7BCF1000F6C
:100E700001D00136EFE7029802360028EBD1009846
:100E8000CDE90631FFF778FBDDE906310644E2E7FC
:100E9000631BB3F5806F97D245B9A6F10804E0183B
:100EA000B1E600BF680E0100406D0100029A9B0888
:100EB00028602B709DF81030C2B1EB7085F802905D
:100EC000B9F1000F05D0002208A8C5F1010C974226
:100ED0000ED14FF0000AC5F101030DF12008019376
:100EE0000DF1300B574512D1601B8CE66B70E5E7B6
:100EF00010F8013B190608D50CEB040EB64503F0BB
:100F00007F033FF67EAE04F8013B0132DFE7B9F123
:100F1000000F03D098F90020002A17DB029BD3B101
:100F20001AF80B2004F8012B0022019B1819104419
:100F3000B0423FF666AE98F80000009904F8010B45
:100F4000204603920FF097FE039A14440AF1010A17
:100F500008F10108C6E798F8002055F82230009300
:100F6000029B009845F82230FFF706FB421CDCE7A5
:100F70006FF00D0047E600BF2DE9F04F97B000AFCE
:100F8000D7F880B03B62CBF3C0030446894690F8A3
:100F900002A0FA62BB6141B9457800780AEB800093
:100FA00020444D4517D8A0EB0409E378FB61BAF162
:100FB000000F02D01BF0010F16D1FB6953BBFB6A77
:100FC0001BB1494620463A6A98474D4628465C3749
:100FD000BD46BDE8F08F461C3046FFF7CDFA013024
:100FE000304409F10109DCE7626823787A62FA6A21
:100FF0009900796104EB8301002A40F005810E46D7
:101000004FF000084D4601EB0A094E4550D101EB67
:101010000A0610E01BF0020FD1D023789A007A6103
:10102000626804EB83017A62FA6A002A7BD14D463A
:10103000904601EB0A061BF0050F0CBF02230123AB
:10104000FB62FB6906EB430A0BF00203BB625645E9
:10105000BCD016F8021B16F8013C54F823909B4BA9
:10106000994502D39A4B99453AD3BB69002B44D09A
:10107000786A0BF0F0FB00283FD09648036813F025
:10108000060F13D0E9468AB06A46934B53617B6AD8
:10109000C2E906314FF400731384904B42F8103FBD
:1010A00000234FF4125100F023FECD46023DCEE75F
:1010B00016F8013BF96254F82300FFF75DFAD7F800
:1010C0008430F96A01304BB1D7F8883098453EBF7B
:1010D000D7F8843023F8180008F10108054494E794
:1010E000BB6923B1786A0BF0B6FB0028C5D11BF0B1
:1010F000010F05D1FB6AED1AA9E7BB6A002BA6D048
:101100004846FFF739FAD7F8843053B1D7F888301A
:1011100098453FBFD7F88420431C22F8183008F1C7
:101120000108054493E7BAF1000F73D01BF00406E1
:1011300073D0D046002607F1480052463B61B962A1
:101140000FF099FDB96A3B6901EB0A02BA62FA69CC
:10115000F9695200FA60BA6A02EB41023A610BF097
:101160000202BA603A69B96A8A4258D162781BF0C1
:10117000020F18BF00217A6208BF4FEA5801B21867
:101180001BF0010FD2B240F09F801BF0040F14BF80
:1011900040460020BB616270A070E17020463A6A50
:1011A0007969FB6A9847051EFFF610AFBB69414697
:1011B00023707B6A3A6A6370FB6984F802A0E3706B
:1011C00007F14800FB6A9847B0F10008C0F2BA8006
:1011D0007B69A9EB0A01C91AFB683A6AC91AD7E9FF
:1011E0000A0398470028C0F2AF804FF0000BA844D4
:1011F00008EB000507F1380AB34571D300213A6ABC
:101200000846FB6A9847E1E656464FF0000807F1AA
:10121000380092E75646D04696E7B04694E7BA6A59
:1012200012F8021B12F8015CBA6254F82500274A32
:10123000904202D3264A90421ED3BA6932B1786AEC
:101240007B600BF008FB7B6800288BD1BA6802BB7F
:1012500008F1280207F1300C08F10100944407F16D
:10126000580208F1020852FA80F00CF8101C5FFADC
:1012700088F800F8105C75E7BA693AB1786A7B6063
:101280000BF0E9FA7B6800287FF46CAF1BF0010FCC
:1012900009D006F1280207F13000711C161806F873
:1012A000205CCEB25EE71BF0040F3FF45BAF08F1A9
:1012B000280207F1300008F1010102EB000808F8EC
:1012C000105C5FFA81F84DE7002063E7680E0100CB
:1012D000406D0100E003002077430100040000019D
:1012E0001BF80A3054F8239087F83730D7F8843049
:1012F0002BB3D7F888309B4521D2D7F8843033F808
:101300001B8001213A6AFB6A07F1370098470028E1
:101310001ADB0544B8F1000F06D14846FFF72CF957
:1013200000F101081FFA88F8414648463A6AFB6A0C
:101330009847002808DB05440BF1010B5CE74FF0F0
:101340000008DEE7454641E605463FE6014B1860EA
:10135000704700BF0000002080B505460E461746C6
:10136000984609F0FDFF03460FF074FD0446DFF8D0
:101370001890424649F8003039463046A84754F89C
:10138000090003F04FFC00BF0800000008B5EFF3B0
:101390001183202383F31288BFF36F8F04F0ECF8DE
:1013A00002480BF07FFA0DF082FAFCE72B440100B3
:1013B0002DE9F047058B04462807904611D40229F1
:1013C00005F0070540F0CC8020460BF0DBFC78B13F
:1013D0000138218B042811D8DFE800F0C2106D8598
:1013E000950001290CBF45F0100545F02005258327
:1013F00088F31188BFF36F8FBDE8F08701F0070A0B
:10140000AA4500F0A5800027B9463E46A368002BF8
:1014100000F0BC8041F00801218388F31188BFF3FC
:101420006F8FA168002900F0BA800D68002900F0D4
:10143000B680334652462046D1F80480C047002D7E
:1014400076D02B6829461D46F0E701F007035A1FA6
:10145000012A1BD8002221F00701062B276889B238
:10146000C4E9002209D13B4603E0628B013262836A
:101470001B68002BF9D141F00201204621830BF0BB
:1014800081FC00287AD041F0200176E0042B0AD1BB
:1014900021F0070189B2204621830BF073FC10B1C3
:1014A00041F020012183218B01F0070AAA454FD08A
:1014B0000027B946AAE7236921F0070141F0060198
:1014C000062DD3F8009021832DD1B9F1000F3FD024
:1014D00041F00801218388F31188BFF36F8F204604
:1014E0003949C84729E021F00701236941F0040187
:1014F00089B2042DD3F804902183E6D000274FF061
:10150000040A3E4682E721F00701236941F0050104
:1015100089B2052DD3F808902183D6D000274FF04B
:10152000050A3E4672E700274FF0060A3E466DE781
:101530002B4687E7B9F1000FD1D1EFF311882023B3
:1015400083F31288BFF36F8F238B23F00803238369
:10155000258BEA062ED525F01003238305F0070519
:101560006669218B002EBFF670AF00232768C4E99F
:10157000003321F0070141F001012183218B4FF05D
:10158000000901F0070AAA457FF440AF002F9CD064
:1015900041F00801218388F31188BFF36F8F002F7A
:1015A000C8D03D6839463346524620460BF016FCFB
:1015B0002F46F4E7AB067FF51BAF25F0200323830E
:1015C00005F0070500E700BF09CE00002DE9F04750
:1015D000044607464FF00109DFF8508014B9384639
:1015E000BDE8F08794FAA4F5B5FA85F509FA05F394
:1015F0002E0108EB05156FEA030A24EA03042B7B8E
:10160000002BEBD058F806301B694BB94644736881
:1016100004222846196807EA0A0700F029FBDDE7DB
:10162000284698470028D9D1F0E700BF601C010088
:1016300030B5002289B00F490F480FF0ACF80022F6
:1016400000230024CDE906230E230C4DCDE90334FD
:101650004FF440722846CDE90144094B09490094F2
:1016600009F0E4FB0849284609F020FB204609B0B0
:1016700030BD00BF8D160000B0090020E00400203E
:10168000B5190000B826002054440100014809F0B3
:10169000EBB800BFAC0400202DE9F04780461F489E
:1016A0000F460BF00CFD0646002830D000252846DA
:1016B000BDE8F087237B6BB12368DB680BB1204664
:1016C000984723681B69D3B96368042220461968C8
:1016D00000F0CEFA013610344C45EBD3B8F1000FD0
:1016E000E5D0002DE2D02846FFF770FF0546002F19
:1016F000F7D0002140F239100EF0ACFFF1E72046A0
:1017000098470028E0D00AFA06F31D43E2E70546B1
:101710004FF0010A024CDFF80C90DDE73C1400208A
:10172000601C0100901C0100014B53F82000704721
:10173000C81F010008B5034608462BB1044A1360D0
:1017400000F078FD002008BD6FF01500FBE700BF3A
:101750000400002010B5044C237813B9034809F0A5
:1017600083F80123237010BDF8250020AC0400206D
:1017700010B5044609480BF0A2FC3CB1084BD3E875
:10178000EF1F0139C3E8E21F002AF8D105480FF026
:101790000EF8BDE81040044809F066B83414002083
:1017A00038140020B0090020AC04002000200146BD
:1017B000034BD3E8EF0FC3E8E21F002AF9D17047CB
:1017C0003414002070B5FFF7F1FF0546074C084EB2
:1017D000B44200D370BD63685B792BB123685B684A
:1017E00013B12946204698471034F1E7601C0100E8
:1017F000901C010010B5044C044920460BF05BF925
:10180000034B1C6010BD00BF98030020B41F0100F3
:101810002C14002008B50023074A08491370084A11
:1018200008481360084A1360FFF784FFFFF7E2FFE0
:10183000BDE8084000F06CB9F925002040420F00D7
:1018400034140020BBD000003814002001460022D0
:10185000002301480BF050B99803002001480BF019
:10186000E9B900BF98030020024B014618680BF04D
:1018700035BA00BF2C14002001480BF06ABA00BF33
:10188000980300202DE9F041334B1878002860D0F0
:10189000FFF7E4FF044678B1304BD3E8EF1F01397E
:1018A000C3E8E21F002AF8D12D4DDFF8B880454586
:1018B0002DD32046FFF7D8FF2B4B2C4C1B68002B59
:1018C00019DD0EF066FF4FF47A75A0FB050647F6AA
:1018D0001222002305FB0161FEF722FED4E900324B
:1018E000C01A40F2E93361EB0201984271F1000144
:1018F00001D3FFF767FFD4E9003213F57A7342F1A1
:101900000002C4E90032BDE8F041FFF7B5BF6B68E3
:101910005B793BB121784B0706D52B6821462846D9
:101920001B6898471035C2E720462688C1F3C207D6
:1019300000F0BEFAC6F382160246002EEDD0002853
:10194000EBDB01233946284600F0ACF9B042E9D37D
:10195000E3E7BDE8F08100BFF8250020381400203F
:10196000601C0100901C010034140020A809002014
:1019700070B50D4D297861B90120FFF78DFE0B4C34
:101980000B4EB44206D3FFF77DFF0028FBD10123A5
:101990002B7070BD63685B791BB1236820469B6820
:1019A00098471034EDE700BFF9250020601C0100C6
:1019B000901C010000212DE9F0470846FFF76CFE5E
:1019C000044658B340F21B684FF000090FF042FA8A
:1019D0001B4B1C4A1B58136033B11B4B1B68092B54
:1019E00002DD1A4808F040FF0025194FDFF85CA01F
:1019F00044B12046FFF7EAFD044618B94FF0FF381E
:101A00004FF0FF39FFF73EFF064628B9B5B9424609
:101A10004B46504608F05CFF3546E9E74FF0FF388B
:101A20004FF0FF39D2E72B689B691BB10022284693
:101A3000114698471035BD42F5D3E8E7054DFAE762
:101A4000080000003014002038140020AC040020EE
:101A5000901C0100601C010013B518480BF02FFB0F
:101A6000174B1B7873B1EFF31184202383F3128893
:101A7000BFF36F8FFFF706FF84F31188BFF36F8FFB
:101A800002B010BD0F4B1B68002BF9D050B90022DB
:101A900000230D48CDE9002347F61222002309F068
:101AA00077FFEDE70928EBD107480EF080FE0748E5
:101AB00002B0BDE8104008F0D7BE00BF38140020C7
:101AC000F925002030140020B0090020AC040020CB
:101AD00010B5064B04461B6898472146A060044891
:101AE0000BF089F8BDE81040FFF7B6BF04000020F6
:101AF00098030020044A054B9B1AB1EBD30F34BF67
:101B000052F8310000207047981B0100601C010052
:101B100000210B480B4B30B51B1A0B4CDB08043073
:101B2000994200D130BD10F83120256802F007023B
:101B300025F007052A4344F8042B0131F0E700BFE4
:101B4000981B0100601C0100DC030020F8B506466C
:101B500000240A4F0A4DED1BED08AC4203D14FF0B3
:101B6000FF342046F8BD57F8340020B13146FEF767
:101B7000F1FC0028F5D00134EFE700BF981B01000D
:101B8000601C010000282DE9F047884615461F46D5
:101B90001DDA4FF0000A5446DFF89090244EA6EB71
:101BA00009063609B24509F1100902D12046BDE8FF
:101BB000F08759F80C0C3B462A4641460079FFF75E
:101BC000E1FF844238BF04460AF1010AEAE7194BF3
:101BD000194AD21AB5EBD20F26D203EBC5031C79F2
:101BE000BC4228BF3C460722144EC0B200EB400066
:101BF00056F82530824023EA020304F007028240AF
:101C000013430021032223FA02F000F0070081426F
:101C100002F1030238BF01461E2AF4D123F0070364
:101C20000B4346F82530C1E70024DCE7601C0100C7
:101C3000901C0100981B0100601C0100DC030020C7
:101C4000F8B506460F460024074D084BED1AED087F
:101C5000AC4200D3F8BD002122B23B4630460134ED
:101C60000BF049FAA4B2F3E7601C0100981B0100D5
:101C700038B50D4611460A4B4268C31A1B1104467B
:101C80000133137143689971FFF7DAFF012263682A
:101C90001D6063685A71BDE83840FFF75BBD00BF47
:101CA000601C010070B14168097973B1002A17DB2B
:101CB000CBB20C4903EB430351F82200D84000F0AB
:101CC000070070474FF0FF31EFE707490748401A18
:101CD000B2EBD00F3ABF01EBC2010879184670474A
:101CE00004207047DC030020981B0100601C0100E9
:101CF0002DE9F04F8FB0C1F34A2804AF0D4691464D
:101D0000B8607B600C0DB8F1000F67D000264FF073
:101D1000040B4FF00A0A07F11403C7F80C80C7E957
:101D200007667E620193CDF808B0CDF800A007F1F8
:101D30001C0332464846F968FFF71EF9B0F5006FFC
:101D4000034620D32A48036813F0060F17D06C46C9
:101D50008AB0D9F8041004AB264D1A46C3E90551E0
:101D600040F2FF71D9614FF400711984224B42F89F
:101D7000103F4FF412513346FFF7BAFFA5462C37F8
:101D8000BD46BDE8F08FC0F30A0804F117001844FF
:101D900020F0070080083B60FFF758FD68F35325EB
:101DA000044690B13B6800F11001C7E9083607F11D
:101DB0001403F961CDE900A3CDF808B048460F4AF5
:101DC000F96807F11C03FFF7D7F868F353252A4693
:101DD00020467B68B9680BF0B8F9D0E704F117002A
:101DE00020F007008008FFF731FD0446EDE700BF53
:101DF0000804002069440100040000011FD1000014
:101E00002DE9F04F87B00446DDE9105ADDE912797B
:101E1000934698460391DFB13B465246102100207D
:101E2000CDF80090CDF81490FEF7D4FEB0F5006F19
:101E300006460ED31C48036813F0060F30D040F25C
:101E4000FF730221194A07B0BDE8F04F0BF0D6B975
:101E50003E4605F11700304420F007008008FFF7E8
:101E6000F5FC04F007040BF0070BE40044EA8B14C4
:101E700044EA462444EA0554054640B13FB13B4696
:101E800052463146CDF800901030FEF7A3FE43468F
:101E900022462846039907B0BDE8F04F0BF055B92C
:101EA00007B0BDE8F08F00BF08040020A84401007F
:101EB000406820B1034BC01A40F38F0070474FF0C9
:101EC000FF307047DC0300200EB403B503AB53F8BA
:101ED000042B01460448019303F0E2F902B05DF8D7
:101EE00004EB03B0704700BF5FD20000CA0605D400
:101EF0008B064CBF02490349FFF7E6BF704700BF9E
:101F0000C7480100E04401002DE9F04F89B09B462D
:101F1000149B9DF84CA00693159B04460593169BB5
:101F20000D469046179E0493BAF1000F00F09D8075
:101F300006F4807307930BF0DCF806F00209024602
:101F400000283ED020469149FFF7BEFF0746B9F171
:101F5000000F08D016F0440F35D12A4620468C4990
:101F6000FFF7B2FF074406F0010353B1894B204647
:101F700053F82A20884B8949002A08BF1A46FFF7E0
:101F8000A3FF06F48073002B49D006F00803002B52
:101F900063D1B8F1000F66D0424620468049FFF772
:101FA00093FF0546069B3D44002B6DD1049B002BFF
:101FB00073D1F30700F1E48031462046FFF796FF26
:101FC000D8E00746C3E7774B18680028CAD0764B9D
:101FD0004FF47A791B684FF03C0CB5FBF3F5B5FB79
:101FE000F0F14FF4616300FB115509FB05F5B1FBFE
:101FF000F3F2B5FBF0FE03FB121100FB1E55B1FB23
:10200000FCF309FB05F5B5FBF0F50CFB13112046BD
:102010000091CDE901E56549FFF756FFA2E706F01B
:102020000803EBB1624B204653F82A206149FFF7C1
:102030004BFF0546B8F1000F05D0424620465849EF
:10204000FFF742FF0544BBF1000FABD05A462046D4
:102050005949FFF739FF0544A4E74FF0000BE1E7CA
:1020600006F00805E6E745469CE7BBF1010F069B35
:1020700006D1002B64D1049B002B7BD000250CE003
:10208000002BF8D04D485CE04D48069B22464D4958
:102090000AF0B0FB049B002B68D0DFF82C81DFF83E
:1020A0002C91049F3146102F204628BF10274FF057
:1020B000000BFFF71BFF5D4545DC059B49462046AD
:1020C0001A78FFF701FF4FF0010B1BF0070F03D148
:1020D00041462046FFF7F8FE5F453BD9059B494640
:1020E000204613F80B20FFF7EFFE0BF1010BBBF1BD
:1020F000100FEAD14FF0000B20463549FFF7E4FE00
:102100005A46059B20469A5CA2F120015F2928BF10
:102110002E223049FFF7D8FE0BF1010BBBF1100F57
:102120001DD01BF0070F03D141462046FFF7CCFE20
:102130005F455A46E5D841462046FFF7C5FEEBE726
:102140001F485546A1E741462046FFF7BDFE0BF16B
:10215000010BB0E720462049FFF7B6FEC5E7059B17
:102160003B440593049BDB1B04939AD1BAF1000F07
:102170007FF41FAF204609B0BDE8F04F0BF062B806
:102180002046054A0549FFF79FFE15E7E844010090
:10219000EC440100D81F0100E3440100B0490100F4
:1021A000114501004414002040140020F5440100B2
:1021B000EC1F0100154501001B4501008DD20000F8
:1021C0005FD20000A1520000284501002045010017
:1021D0002A450100F44F01002645010042F20F7329
:1021E00073B58B4228BF0B46056804460521684637
:1021F0000D4A09F0EBFE0646636828460B225B6831
:102200000A490BF011F863683246694628465B6854
:102210000BF00AF863681B2228465B6804490BF040
:1022200003F802B070BD00BF6D66010048450100B3
:102230002C45010000210123064A904206D8064A97
:1022400001B901231360054B186070470121400854
:102250005B00F2E740420F004014002044140020CD
:102260002DE9F34143680DF107011C6810486568CA
:102270000BF06FF830B99DF80710012902D10C4816
:1022800000F03CF801232B7725682F68D5E901364B
:10229000D3E9004824B96B681C6002B0BDE8F08146
:1022A000214630464246B847241A0644F2E700BFAA
:1022B000EC0F0100F8B50D460446064F4618B4422F
:1022C00001D12846F8BD14F8011BBB680148DB6941
:1022D0009847F4E7EC0F0100014B036000207047C2
:1022E0003420010003289ABF024B53F82000024813
:1022F000704700BF34200100C848010070B5446930
:102300000D469CB31E4A2379565CB34231D01D4A18
:10231000525C9A4230D1A3689847002810DA022D07
:102320000CD0032D0BD110F1860F07D0D4E8EF3F6E
:1023300043F00203C4E8E23F002AF6E7267170BDCD
:10234000022D267101D00020F9E7D4E8EF3F23F0F9
:102350000403C4E8E23F002AF7D1D4E8EF3F23F0BA
:102360000203C4E8E23F002AEDD0F6E76FF0570021
:10237000E5E76FF07700E2E76FF08500DFE700BF89
:10238000B1450100AD45010010B504460DF0CFFD8B
:102390000349024620460BF000FA002010BD00BFA2
:1023A000CC4501001346002273B5044601920A2170
:1023B000586801AA01F00EFC019D95B920EAE0746D
:1023C00047F61226294640F2E7304FF47A7200238E
:1023D000C4FB0601FEF7A4F80EF03CF9284602B053
:1023E00070BD2A46204602490BF0F3F9019DF5E73E
:1023F000F845010008B5034A03490BF0CEF9002067
:1024000008BD00BFE8460100EF4601002DE9F34199
:102410001746002304460A21B86801AA019301F077
:10242000D9FB019DC6B24DB12A46204613490BF097
:10243000D0F9019D284602B0BDE8F081042E09D9EB
:10244000324620460E490BF0C4F920460BF015FA2F
:102450000125EFE77868FFF779FBB0F1000804DAAF
:1024600020467A6807490BF0B4F900213346084644
:102470000FFA88F20AF03FFEDCE700BF1A470100BE
:10248000414701005847010010B5044605F09EFE83
:102490000749024620460BF080F9204605490BF01B
:1024A0007CF92146044809F0A7F8002010BD00BFC0
:1024B000EA47010009480100BD24000070B58EB054
:1024C00004460D46D0F8AC600EF012F803460EF04C
:1024D000C1FC214A21491058214A002B18BF1A4635
:1024E0000092204A2346844218BF0A4628461E49C5
:1024F0000BF053F9D4E90A23CDE90023284694F9D7
:102500000E30227B19490BF048F906A920222046FB
:1025100008F0DCFB636F0246154928460BF03DF9D5
:10252000204605A90DF0F2FF024628B128461149C0
:102530000BF033F90EB070BD6422059B2846F11AEA
:102540004A43B2FBF6F20091CDE901620A493246F4
:102550000BF023F9EEE700BF08000000284501005A
:1025600013480100585A0100164801002248010092
:102570004E4801006548010092480100F0B5002571
:10258000044691B0294608AF1C2209A80EF09AFB18
:10259000134E1A22202138460EF094FB2146114892
:1025A00009F02AF807AA4FF4006130460DF0A2FFA7
:1025B0006423079A2046C2F500614B43DB0A05936A
:1025C0004FF400630097CDE90313CDE901320649CA
:1025D0002B4632460BF0E1F8284611B0F0BD00BFA3
:1025E000B83D0020ED250000E348010070B5044629
:1025F0000D46D0F8AC6088B007A90DF087FF024601
:1026000028B128460E490BF0C8F808B070BD204626
:102610000DF06EFF6422079B0096F11A4A43B2FB4D
:10262000F6F2CDE90131074BCDE90362002818BF6E
:1026300003462246284604490BF0AFF8E5E700BF01
:1026400065480100134801002C4901002DE9F04FB5
:1026500089B0054602A807F059FD1C23029F0821F6
:1026600003FB00772D4A28460BF07CF8DFF8B0A07A
:10267000029CDFF8B0B0BC4203D3002009B0BDE833
:10268000F08F23680BB11A7832B923461421264AF9
:1026900003A809F09BFC03AB5246082128460BF027
:1026A00061F820460DF049FE68B3002320460DF185
:1026B00007018DF807300AF04CFE10BB9DF80700AB
:1026C000FFF710FE034608212846184A0BF04AF887
:1026D000A369A3B11E6896B1336883B10821284667
:1026E000134A0BF03FF8B1464FF000083368114A27
:1026F00043450AD8082128460F4A0BF033F81C340A
:10270000B9E70E4BDFE75B46DDE70821284659F8BD
:10271000043F0BF027F808F10108E7E79F490100A3
:10272000AE49010096490100A9490100535001003A
:10273000B3490100AF490100C748010090490100B9
:102740002DE9F041144688460746102200216068B2
:1027500009F006FDB8F1020F064607D8202308212C
:102760003846244A0AF0FEFF336816E00A220021A8
:10277000A06809F0F5FCC5B22B46082138461D4A71
:102780000AF0F0FFB8F1030F1AD1102D0CD0202D54
:10279000EAD0082D0BD13378DBB208213846164A2F
:1027A0000AF0E0FF002009E033889BB2F5E73846E5
:1027B0000821124A0AF0D6FF6FF01500BDE8F0813B
:1027C00010220021E06809F0CBFC082103460446F2
:1027D0000B4A38460AF0C6FF102D06D0202D07D030
:1027E000082DE4D1E4B23470DCE7A4B23480D9E738
:1027F0003460D7E7ED490100184A0100024A0100A0
:10280000294A010000232DE9F04F91464FF0FF3592
:10281000012287B00193504B074688461A60202654
:1028200002F080FD2C46DFF834A14946524640466E
:1028300002F09CFD411C06D16A1C41D14849384632
:102840000AF0C7FF17E073281AD0772828D061282C
:1028500011D1DFF810B11021DBF8000001AA01F05E
:10286000B9F9019B0546002BDFD0DBF800203E497B
:1028700038460AF0AEFF6FF0150007B0BDE8F08FE4
:10288000DFF8E0B00021DBF8000001AA01F0A2F9B6
:10289000019B0446002BC8D0DBF800203349E7E752
:1028A000DFF8C0B00021DBF8000001AA01F092F9C6
:1028B000019B0646002BB8D0DBF800202C49D7E757
:1028C000631C01D12B49BAE75FFA86F8C6F3C40648
:1028D000002C3FD002AB29461A46A6EB050C0CE0B3
:1028E000B8F1100F1DD0B8F1200F20D0B8F1080FAB
:1028F0002AD10878187031443344A64203D80CEB2F
:1029000001001028ECD9102CA14628BF4FF0100967
:1029100029464B46384601F035F81035A4EB09043A
:10292000D6E7088880B21870000A5870E3E7086894
:102930004FEA102E187083F801E04FEA104E000E97
:1029400083F802E0D870D6E7082138460A4A0AF030
:1029500009FF90E7204690E7B8000020774A010081
:102960007E4A0100541D00203D4A0100504A0100EA
:10297000634A01009B4A0100024A010070B50F4EF4
:1029800004460D46337871B123B10D49BDE870405E
:102990000AF01FBF0123337020460A490AF0FDFEEA
:1029A0000123337004E083F001033370002BF3D173
:1029B00029462046BDE870400AF07CBFFB25002078
:1029C000B54A0100F04A010070B504463B4803785F
:1029D000182B02D10B78112B31D00B46013A8D18F0
:1029E000AB4225D18B5C0A780370A2F13003092B2E
:1029F000334C04D922F02003413B052B04D8236833
:102A00003049CA54013323602368022B33D110228A
:102A100000212C4809F0A4FB2B4A136803F8010B92
:102A200013602A4A1368013313600023236022E0F5
:102A300013F8016B182ED3D11E78112ED0D1234D4F
:102A400020462A6822490AF0A8FE20460021FFF706
:102A500095FF204B187870B91F4A2B681168042B1A
:102A60000ADC08B111602B6013F003010BD112686E
:102A700013681BBA136070BD0868043B00BA41F8C4
:102A8000040B0120EBE75B4203F0030358BF5942FC
:102A9000022904D1126813885BBA9BB2EAE70329C2
:102AA000E9D1106802681104C2F3074301F47F0101
:102AB0000B4302F47F4213430360DCE7FC25002054
:102AC00074140020FE2500208014002078140020BB
:102AD0001A4B0100FD2500207C1400202DE9F84F41
:102AE0000023064615460C462949DFF8A8800B60EE
:102AF0002949DFF8A890DFF8A8B088F800300B600B
:102B0000012C2F4655F804AF1ED9022249465046E3
:102B10000EF0FDF880B99AF80220003A18BF0122A1
:102B20009244504602221F490EF0F1F830B90123B9
:102B300088F80030013CE3E70022F1E749465046BF
:102B4000FDF708FDA8B9043700227868114609F09E
:102B500007FB0022144B11461860786809F000FB4F
:102B6000124B134918603046FFF708FF0020BDE8FC
:102B7000F88F9AF800202D2AE6D19AF80120002A31
:102B8000E2D05246594630460AF007FED2E700BF6F
:102B900074140020FD25002078140020344B01001F
:102BA0003A4B0100374B0100801400207C140020B8
:102BB000C929000007B50A480DF0BFFB60B1042326
:102BC000084A0093126801230549074800F040FFB6
:102BD000002003B05DF804FB6FF01200F9E700BFBE
:102BE000EC0F01002C210100C01C010010B544684D
:102BF000A3604023C4E9001242680821D36402F1B3
:102C0000580313630023C2E90E33C2E91133C2E94A
:102C10000633C2E90933D162146802F150015363EB
:102C20001364116153611362C2F8D030A36823B1F9
:102C30009B6D13B1204604499847A3689B6B0BB169
:102C400020469847002010BD4D2C00002DE9F74389
:102C500004460D4683685B6D03B19847A3685B6CBF
:102C60000BBB4FF0000905F130084046EA6C01A9A2
:102C70000AF06EF90746002836D0A36801999B6ACE
:102C80003BB3024620469847064628B331464046A5
:102C90000AF07BF9B7424FF00109E6D00020D5E9F0
:102CA0000131984703E0204698470028D9D1A3680E
:102CB0005B6B63BB05F110073846EA6A01A90AF0AD
:102CC00098F9064650BB20460AF088FBC5F8D0604C
:102CD0002FE06FF05706D9E7014640460AF055F954
:102CE000B9F1000FE3D0D9E71648036813F0060FD7
:102CF00003D00221144A0AF078FAA3689B6A002BD9
:102D0000EED0012220460DF103019847E8E7204666
:102D100098470028CED103B0BDE8F083A36801999D
:102D20005B6A5BB1024620469847014638460AF086
:102D30007CF9D5E9013101209847ECE76FF05701A4
:102D4000F4E700BF30040020A14C0100032307B5C5
:102D5000054A0093002101231268044800F078FE20
:102D6000002003B05DF804FB98210100901C0100D5
:102D700010B504468168183101F05EF9A16820465B
:102D8000BDE81040014A183101F0FCB8094D0100BE
:102D900038B583680446D3F87832DB071DD4C069A0
:102DA0000BF0FAFA606803685B689847054620B93B
:102DB000E0680BF09EFCA3681D75A3685B6C13B103
:102DC00029462046984700220EF044F8A368C3F82D
:102DD0002023034B185801F025FF6FF00F05ECE797
:102DE0000800000001490AF0DDBB00BFC748010030
:102DF000F7B5044680680D46D0F878325A0705D5F5
:102E000000210AF0F7FBE0680BF045FCE368DB68A3
:102E100073B9002D3BD0A66806F1560738460AF074
:102E2000CEFB002835D0394606F5AB70FDF79CFB8C
:102E3000A2682946E0680DF1060356320BF02EFC1D
:102E400058B9A06800F5AB715630FDF78DFBA0684E
:102E500056300AF0B4FBADF8060020460BF064F8DB
:102E6000A368D3F874329B0603D50B4960690AF056
:102E700099FB204600F014FFA268BDF806302046FA
:102E8000A2F85230A268A2F850300AF0B2FF03B0A4
:102E9000F0BD86F85601CBE7601E01002DE9F04F2A
:102EA000A7B004465422002111A80DF00BFF002307
:102EB000CDE90533A3682046563302930BF03BF867
:102EC00020460AF07FFF10B96069FFF78BFF0026EC
:102ED0004FF0FF37B246B3463546B146A0681422DC
:102EE000002118300DF0EEFE20460AF003FFA16825
:102EF000E068B1F8502056310BF007FC20460BF08B
:102F000086FC0DF144080396DDE90532012A6DD0F7
:102F1000132B6ED85FBBBBF1000F0AD020460BF01D
:102F200097FC1423A26811A956320DEB03000AF096
:102F300061FDB9F1000F0CD099F81130FE2B08D1CA
:102F4000059B26AA02EB830252F8542C0AB10133E6
:102F50000593A068059D436A002B40F0B680CEB172
:102F6000C3699E422DD00D9600F1180524E002237E
:102F70004146029A06A80AF03DFDD8F804200699B9
:102F80000346029231B101290AD148B16D4A204667
:102F90000BF07FF86FF00705284627B0BDE8F08FEB
:102FA000059B002B34D0D8F8000001F065F898B1EB
:102FB00066B1A5680D9618350CAE0FCE0FC53368F7
:102FC0002B602046FFF7D4FE0125E5E75E4A01218C
:102FD00020460BF05EF8DDE7059BCBB12946204685
:102FE000D8F8002001F0EAF9022809D1059B132B3B
:102FF00091D9069B022B8ED10121544B544AC6E72E
:10300000032805D0059B4FF0010B013305937BE7A7
:10301000039B33B94846D8F8001007AA0AF0E1FD2F
:10302000054608F10408013F9DB3EB68BBF1000FB2
:1030300008D0F3B120460AF07EFF20460AF0D9FE00
:10304000444AC4E7ABB1AE46A368DDF814A003F16F
:10305000180CBEE80F00ACE80F00DEF80030CCF82A
:103060000030AB682BB96B7CFE2B04BF2F7C07F1C3
:10307000FF37D5F804C0BCF1000F08D0AE460CAE47
:10308000BEE80F000FC6DEF8003033606646A94682
:1030900003E0059B53B101230393069B17B9022B51
:1030A0007FF432AF059B013305932DE7A368DB6AFC
:1030B00013B1DB68002BEED1274B01210093204692
:1030C000119B264A0AF0E5FFE5E790F82830A5EBCA
:1030D0000A05BBB14FF6FF7290F82910FF2918BFFF
:1030E0000A469D4202D313449D420BD983690121B4
:1030F00020461B4A0AF0CDFF2046FFF739FE6FF04D
:10310000150549E701210AF06AFAA06800F5437045
:103110000AF089FAA36811AA294602EB8A0220461E
:103120005B6A98470546A0684FF0FF324FF0FF33C7
:1031300000F543700AF01EFA0021A0680AF04FFA69
:103140002AE700BF174D01002B4D01008C4D0100F7
:10315000B65C0100494D0100784D01007C50010032
:10316000B04D0100022210B5836804461A758368C9
:103170009B6CBBB90AF0DDF98368D3F87832DB04C5
:103180000BD50321084B094A0AF083FFA0686FF4AE
:10319000805100F51E700AF0E2F92046BDE81040AB
:1031A00000F0D2BE10BD00BFCB4D0100B049010000
:1031B0002DE9F04F044680680121B1B000F51E7082
:1031C0000AF0C2F9A3681B7D022B20D100230993CA
:1031D000A36860689E6C03681D6909AB0EB310227A
:1031E0001BA9A847099B93B10121A0680AF0F7F930
:1031F0002046099A1BA9B0470021A0680AF0EFF900
:10320000A3689B6C002BE3D12046FFF7ABFF6FF068
:103210000101A06800F51E7031B0BDE8F04F0AF062
:103220009EB901220DF12301A847099B002BEED086
:103230009DF923209DF82310002AA368C8DB5A7D3E
:10324000032A00F29782DFE812F0040084029B0256
:1032500095020D297CD00A2958D0B3F87822092983
:103260006FF3CA02A3F87822A06800F086803DD8E8
:103270000029ADD0082900F0FB810346D3F8742261
:103280009207A5D501391629A2D801A252F821F03A
:1032900021380000AB360000B3360000A336000032
:1032A00015380000D1360000D1310000D1310000C6
:1032B000D1310000D1310000D9360000E1360000E4
:1032C000D13100000B370000D1310000153700006C
:1032D000D1310000D1310000D1310000D1310000E6
:1032E00019370000D1310000433700001B2941D0BD
:1032F0007F2900F0C981A1F120025E2A0346BDD8D2
:1033000001210AF077F99DF82310B9E0D3F878226B
:10331000C2F3C7022AB1D3F87822C2F3C7020A2A3D
:10332000ACD1B3F8782261F3CA02A3F87822A56879
:10333000B5F85010C1B928460AF05CF9E0680BF006
:10334000AAF96069FFF74EFD2046FFF70BFF3FE744
:10335000D3F87822C2F3C702002AE2D0D3F8782249
:10336000C2F3C7020D2ADBE72046FFF797FDC5F839
:103370002403E9E7012343752AE7D0F874329B0759
:103380007FF526AF01210AF035F9A068B0F850307A
:10339000FF2B3FF41DAF0025B0F8522000F156017D
:1033A00000F5AB700DF067FCA3681BA9B3F85220C1
:1033B0000BA8134483F85651A268142302F5AB728C
:1033C0000AF018FB0B9914293FF602AF30AB03EB60
:1033D000810343F8545CA368B3F85220002A53D009
:1033E000134493F85530202B02D0093B042B4BD8C3
:1033F00000294CD100250A950A9B30AA02EB8303D1
:1034000053F854AC002650460AF0D9F8B34681462A
:10341000B04637463946284616AA00F0A1FB0346B7
:10342000002840D1012EA76865D10A9B30AA02EB83
:10343000830353F8540C0AF0C2F84146064607F1DC
:103440001802284600F08CFB056828460AF0B7F8F9
:10345000864205D0821B92B22046A9190AF060FE6E
:10346000A068B0F85230034493F85630202B31D086
:10347000093B042B2ED9D0F87432DF072FD420213A
:10348000204600F029FDA3E60129B3D90139002027
:103490000CAB009301900AAB1BAA0AF0CDFB0546CA
:1034A0000028A9D194E61B684A4651461846039362
:1034B0000DF02DFC60B9039B1846FDF75DF85845EB
:1034C00038BF5846002E08BFB8461FFA80FB0136A9
:1034D00001379FE7012120460AF0BFFC78E6002172
:1034E0000AF092F82021204600F0F6FC0121A068A5
:1034F0000AF08AF86CE604907FF66AAE0A9A30AB5E
:1035000003EB820252F8543CC146184603930AF07A
:1035100056F8049B0590A7F840300496A2684946E7
:103520002846183200F01CFB039BD0F800A009F1DC
:1035300001094BB1BAF1000F06D019465046059A61
:103540000DF0E5FB0028E9D1A168BAF1000F4DD1DB
:10355000A1F840A0049B013B0493DFD16069FFF711
:1035600041FC204600F0F0FC0A9B30AA02EB8303EA
:1035700053F8540C0AF023F8414611AA8146284614
:1035800000F0EEFA0746A0683968FF2200F5AB703C
:103590000DF0CFFB3B684FF6FF7708F1010AB84604
:1035A00003935146284616AA0AF1010B00F0D8FAF7
:1035B000002851D00022A168036801F2551111F8CA
:1035C00001EF985C704503D110B101324245F6D14C
:1035D000B9F1000F01D04A4506DBBA42A8BF3A460E
:1035E000013E012E97B237D0DA46DAE798480691C5
:1035F00009F0E5FF069900EB0B074A8FBFB2121ADC
:1036000092FBF7F2504692B20791069209F0D7FF6B
:1036100007993F1AB1F84000069A00F1010CA1F891
:1036200040C0B0FBF2F102FB110080B2BFB260B942
:1036300006212046864B874ACDF800A00AF029FDD6
:103640003946204600F016FB84E753460621204603
:10365000814A0AF01EFDF3E7002F3FF4B9AD03994C
:10366000A7EB0902204692B249440AF059FDAFE5A2
:10367000D0F874329E077FF5ABAD012109F0BAFF97
:1036800020460AF06EFDA3E5D0F874329D077FF561
:103690009FAD012109F0AEFFA368D3F8743219077A
:1036A000EED420460AF03EFD92E520460AF04CFC9E
:1036B0008EE520460AF03FFC20460AF083FB10B955
:1036C0006069FFF78FFB0121A06809F093FF3BE6DB
:1036D00020460AF042FC7BE520460AF049FC77E5EB
:1036E000D3F874329B0603D55C49606909F05AFF30
:1036F000A368D3F874329F0603D55949606909F06D
:1037000051FF204600F020FC62E500212046FFF733
:103710006FFB5DE50121F9E720460AF005FC204634
:1037200009F007FF0121A06809F064FFA368D3F83E
:1037300074329E067FF54CAD4A49606909F032FF4C
:1037400046E5204600F026FB0121A06809F052FF63
:103750003EE55B2902D102225A7539E5D3F874326D
:103760009D0706D5622907D14FF0FF3120460AF0A8
:103770009DFBA3680022EFE76629FAD10121F5E756
:1037800000225A75A268D2F8743298077FF520ADEE
:10379000A1F131031B2B3FF61BAD01A151F823F022
:1037A0001D380000293800003D38000011380000A5
:1037B000D1310000D1310000D1310000D131000001
:1037C000D1310000D1310000D1310000D1310000F1
:1037D000D1310000D1310000D1310000D1310000E1
:1037E000153700000B370000D1360000AB36000063
:1037F000D131000015380000D1310000213800001F
:10380000D1310000D1310000D13100002D3800004D
:103810000323537520460AF08EFBD9E40323537526
:1038200020460AF081FBD3E403235375A068D0F847
:10383000741201F0010181F0010159E6032353756F
:10384000A368D3F874329B077FF5C2AC29E700BFA9
:10385000274501000F4E0100B0490100651E01001F
:103860006A1E0100601E01002DE9F04104468068D7
:10387000154600F51E70002937D04FF4804109F03D
:1038800063FEA3680021DD64606803689B68984755
:1038900000284BD1204609F0EDFE002846D1244EE9
:1038A000244FDFF89480A06800F52F704FF0FF32AE
:1038B0004FF0FF33032108F0A5F80546A0684FF04C
:1038C000FF324FF0FF3300F543709DB109F052FE17
:1038D00020462B460121194A0AF0DBFBA068BDE80F
:1038E000F04100F5437009F09EBE6FF4804109F08D
:1038F00036FEC6E709F03EFE32460221204609F0B8
:103900003BFE3A462946204609F036FE204642460E
:10391000012109F031FE606803685B6903B19847D3
:10392000A06800F5437009F07EFEBCE7BDE8F081B9
:10393000912D0000B13100002BD60000154E010082
:1039400010B504460A4909F028FF2046094909F044
:1039500024FF2046084909F020FF2046074909F0C6
:103960001CFF20460021064A00F00CFB002010BD81
:103970002C4E01006A4E0100C94E01001D4F01008E
:10398000B74F0100F8B51E4617460A4629490446B6
:1039900009F003FF3EB320463A78274909F0FDFEBF
:1039A00001256A0703D12046244909F0F6FEAE42FC
:1039B0001ED920467A5D204909F0EFFE0135102D11
:1039C000EFD120461E4909F0E8FEB6B920461B4952
:1039D00009F0E3FE0125AE422B4610D820461749D8
:1039E00009F0DBFE15E02046164909F0D6FE012558
:1039F0002046144909F0D1FEE0E700252B46FA5C89
:103A00002046A2F120035F2B28BF2E220E4909F089
:103A1000C4FE0135102D06D06B07DCD120460749C6
:103A200009F0BBFED7E72046BDE8F840074909F09A
:103A3000B4BE00BFCD4F0100204501002845010064
:103A40002A45010026450100F44F0100D44F010032
:103A50002DE9F043044680688846D0F820131546C7
:103A60001F4689B0002960D14FF44A720DF02AF93F
:103A7000E0680AF0B2FEA06800F543700CF0ADFCFF
:103A80004FF42F794FF41F76A06830440CF0D9FF23
:103A9000A068002283190121484410360CF0A8FFC9
:103AA000B6F52F7F09F11409EED10026A369022192
:103AB0001E60A06866F3820500F51E7009F044FDE3
:103AC0005022A36820465A871822A3681A872168C3
:103AD00009F0A5FEA3684146C3F874526068144A11
:103AE00003681D682346A8470546D0B90122A3688C
:103AF0001A75D4E90A0100220023CDE906230E231A
:103B00000393109B4FF40062CDE901730495094BB8
:103B1000009407F08BF9A368C3F82003616A07F0EB
:103B2000C5F8284609B0BDE8F0836FF07705F8E7DF
:103B3000CBD500006938000010B5044613460A468C
:103B40000146064801F0ACFB23691B7923B12046EE
:103B5000BDE8104009F0B4BE10BD00BFD9D80000C8
:103B600038B50B46154648B91449154A521AB3EBF5
:103B7000920F05D251F82350284638BD84680CB9FD
:103B80000025F9E70F4A94420AD30F4A944207D21C
:103B900018462946226890472B68002BECD1EFE7A6
:103BA0000A4A944202D30A4A944205D32468142252
:103BB0005343E518E358F0E70133F8E7F01C010040
:103BC000281D0100181E0100341E0100281D0100DF
:103BD000181E0100F7B5037804462D2B164605D1B3
:103BE0006FF015030020336003B0F0BD0DF032F923
:103BF000002305460A4F0A46C35101A9204608F092
:103C0000AFFAEB59222B02D16FF02103EAE7002B28
:103C1000E6D1019BA342E3D01B78002BE4D0DFE781
:103C20000C0000008368D3F874329B0603D5024968
:103C300040690AF0A8B87047701E010001490AF0F7
:103C4000A2B800BFC74801000A1E0DDC0ED04223F7
:103C50008168D1F87412890608D5002A04494069A0
:103C6000B8BF52420AF08FB84123F1E7704700BF56
:103C7000F04F01000A1E0DDC0ED044238168D1F8FC
:103C80007412890608D5002A04494069B8BF524217
:103C90000AF079B84323F1E7704700BFF04F010005
:103CA0002DE9F0478568044605F15600FCF764FCF1
:103CB0000023984695F83C70DFF8549086B2A268CD
:103CC000558FED1BB54209DB002E1FDD56336069B1
:103CD00010491A44BDE8F0470AF055B81D442A447B
:103CE00092F856A082F85680A26856331A44494684
:103CF00060690AF048F8A3682B4483F856A0A368CB
:103D00005B8FDB1BF61A00272B46D8E7BDE8F08750
:103D1000B65C0100B049010008290A4617D883683B
:103D200093F83E10914212D083F83E208368082A0F
:103D3000D3F8743205D0990609D5054940690AF0CF
:103D400022B89B0603D5034940690AF01CB87047A6
:103D5000F74F0100751E010038B50D46097804467D
:103D6000FFF7DAFF6A78072A11D8A36893F83F10A3
:103D700091420CD083F83F20A368D3F874329B069D
:103D800005D560690249BDE8384009F0FCBF38BD7F
:103D900000500100F8B583680446B3F85020002AAB
:103DA00055D0B3F85210002951D0553103F15605C2
:103DB0000B441846A84206D3014611F80169202E8B
:103DC0003CD0A8423CD286B29DB2AB1B9BB2591CE0
:103DD000471CD21A014438460CF05AFFA268711BE6
:103DE000B2F85030204613FA81F3A2F85030A3689D
:103DF00009B2B3F850201344002283F856200AF089
:103E00002CF8A368D3F874329A0603D51049606978
:103E100009F0B9FF3B46082120460E4A0AF039F95D
:103E20002046FFF7FFFEA368D3F874329B060ED539
:103E300060690949BDE8F84009F0A5BF0846B9E73F
:103E4000014611F80169202EBDD00846B9E7F8BD3A
:103E50007A1E0100B04901007E1E01002DE9F041EB
:103E600004460D4617460AB1FFF7DCFEA368B3F817
:103E70005220D3F87412563213444A0721D51846FB
:103E8000FCF77AFB0646DFF84880A6B9A368B3F8CA
:103E90005020A3F85220A06809F082FF20B107B19A
:103EA00015B16069FFF7CAFE69422046BDE8F041DE
:103EB00009B209F0D2BF4146606909F064FF013ED2
:103EC000E3E708212046034A0AF0E3F8DEE700BFF3
:103ED000585A0100B049010013B583688DF80710E6
:103EE000D3F874220446D00725D5B3F85210B3F89E
:103EF00050208A421FD0481C9DF80720A3F852008A
:103F00000B4483F85620A368D3F87412890710D5A0
:103F1000D3F87432606913F0040F18BF2A220949DC
:103F200009F031FF204609F04DFF10B16069FFF73D
:103F300085FE02B010BD012220460DF107010AF0F6
:103F4000B5F8F6E7F44F010010B504468368022186
:103F5000084A0AF09EF8A368D3F874329B0707D585
:103F60002046FFF79DFE2046BDE8104009F050BFF7
:103F700010BD00BFB049010001490AF07BBA00BF83
:103F8000C74801002DE9F04F0E46002104461746B0
:103F90000D4689B0304603AA01F10108FFF7E0FDA4
:103FA000B0B995B127B13A46082120460AF071F818
:103FB00000211E4FDFF87890DFF878A0304603AA82
:103FC00001F10108FFF7CCFD60B909B0BDE8F08F41
:103FD000006810B1FCF7D0FA80B2854238BF0546C0
:103FE0004146D7E703688BB11A787AB1D0F804B0AC
:103FF0004A46CDE9005308213B4620460AF049F8DD
:10400000BBF1000F04D16069FFF7B6FF4146D5E769
:10401000524620463B4608210AF03BF8AA1D594665
:10402000204692B20AF033FAF0E700BF1E500100BA
:10403000095001001B450100F7B50F6805460E4603
:10404000A7B13846FCF798FA84B2094B284600938A
:1040500008213B46074A0AF01CF82846E21C716812
:1040600092B203B0BDE8F0400AF011BA3C46ECE76A
:104070001A500100104E010010B507490446FCF724
:1040800069FA38B120460549FCF764FAB0FA80F0C5
:10409000400910BD0120FCE7105001001350010041
:1040A00010B583680446D3F874329B0603D50649DD
:1040B00040690AF063FA5022A36800205A87182248
:1040C000A3681A8710BD00BF821E010008B583696E
:1040D00002491A6809F061FB002008BD2150010067
:1040E0002DE9F3410D49054609F057FB00220C4C20
:1040F0000C4EDFF83480B44202F1010703D30020F4
:1041000002B0BDE8F081636A92B20093A3684146B1
:10411000284609F042FB30343A46ECE731500100C2
:10412000901C0100F01C01004950010008B5024933
:1041300009F075FB002008BDC848010073B50446AE
:1041400000250D4EA2680DF106030121E06802F57D
:10415000AB720AF0A3FABDF80600A36840B12A4684
:104160003146204603F5AB7309F017FB0135E9E74B
:1041700083F8560102B070BD5A50010010B50446D4
:1041800009F090FB03490246204609F006FB002097
:1041900010BD00BF304B0100022907B50BD1536899
:1041A0000C49009312680C4B09F013FB6FF01500DB
:1041B00003B05DF804FB8368084AD3F874320849F9
:1041C00013F0020F074B18BF1A4609F0E6FA002059
:1041D000EEE700BF79500100645001009F450100E7
:1041E000825001000747010010B583680446D3F8E8
:1041F00074329A0603D5074940690AF0BFF9A368EB
:10420000D3F874329B0603D5034960690AF0B6F906
:10421000002010BD891E01008E1E0100F0B501298D
:10422000044685B00AD053685E49009312685E4B1D
:1042300009F0CFFA6FF0150005B0F0BD8368D3F830
:104240007432990603D5594940690AF097F9002557
:104250006FF0F9012046FFF7F7FCFA212046FFF73F
:1042600009FDA0684FF48072294600F5AB708DF807
:104270000B500CF027FD4E4960690AF07FF9606928
:1042800009F01EFB4FF47A766068012203680DF195
:104290000B011F6903ABB847039BEBB9013E4FF419
:1042A0007A70B6B20CF044F8002EEDD1A368D3F8C2
:1042B00074329B0603D53F4960690AF05FF95022CA
:1042C000A36820465A871822A3683B491A8709F039
:1042D00072FA6FF00700AFE79DF80B20A3681B2A66
:1042E00053D093F856111B29CED1522A4DD15A19C9
:1042F000002382F85631A66896F857215B2A2BD105
:10430000022506F2571010F8011F2A463B2905F135
:104310000105ADB223D1FF2AC8D002F5AB7216FA5F
:1043200082F1002211F8010F18BBFA2A28BFFA22E5
:10433000FA2B28BFFA2386F85601A1684A87A2689B
:104340001387A368D3F874329A0603D519496069B4
:104350000AF014F900206FE786F85631A6E703EB60
:104360008303303901EB4301B5F5807F8BB2CAD1AD
:104370009CE7013502EB8202ADB2303800EB42001F
:10438000B5F5807F82B2CDD190E72B440135ADB237
:10439000092D83F856217FF677AF0022A36883F8B2
:1043A000562183E77950010064500100941E0100FA
:1043B000CD500100981E0100935001002DE9F04FEF
:1043C00007461546894689B021B110460AF00BFA16
:1043D00000285BD1032455E05C463CE029460AF501
:1043E000AB700CF0C2FC0646002854D0FCF7C4F8B1
:1043F00082B2601C3146013230440CF049FC224646
:10440000594630460CF037FC4FF020033355BAF8CC
:10441000543008F1010801331C44AAF85440002428
:1044200001994B1C484603AA0193FFF799FB0646E6
:10443000E8B10022284631680AF0A8FB0028EFD135
:10444000D6F800B0D7F808A0BBF1000FC4D058468A
:10445000FCF792F884B2BAF854302344FF2BBDDD48
:104460002B46032138460D4A09F013FE0124B8F10A
:10447000000F07D0B8682A4600F1540100F5AB7070
:1044800009F088FB204609B0BDE8F08F4FF0000826
:1044900002244146C5E70224E9E700BF8F55010029
:1044A00008B5044808F0FEF9BDE80840024808F0E5
:1044B000F9B900BFE1550100165601002DE9F84396
:1044C00005460C4600AF002948D0DFF8B890D9F86F
:1044D00000305A0742D0D1E900016E468AB06A46E0
:1044E000A3684FF00508DFF8A0C0C2E90713C2E9CE
:1044F00005C042F8108F00234FF421514846FDF7C4
:10450000F7FBD9F80030B5465B0727D0D4E90301A3
:104510008AB06A466369DFF874C0C2E90713C2E96A
:1045200005C042F8108F002348464FF42151FDF793
:10453000DFFBD9F80030B54658070FD0E3690121F9
:104540004846134A08F05AFED9F80030590705D0FA
:10455000A369012148460F4A08F050FE012D0AD1F7
:10456000EFF3058307480268520704D00A4A294638
:10457000103B08F043FE2146284605F039FEBD46B3
:10458000BDE8F8831C040020445601007356010066
:10459000A2560100B1560100DF56010030BFFFF7FF
:1045A000FDBF00BF2DE9F04105460B4EDFF82C8022
:1045B000324606EB0807CC1B204609490CF05BFB92
:1045C000A01942460021083C0CF07CFBC5F8B8401D
:1045D00007F10800BDE8F0810000000008000000BD
:1045E000341E0100074A936893F90E10002907DB77
:1045F000526993421FBF044A536843F0805353608B
:10460000704700BFBC1F002000ED00E0F8B5364C3D
:10461000064623680D465B0703D0204633490AF05F
:1046200032F9334B9B6ADF065CD52368580703D009
:1046300030492D480AF027F911202D4B9B6A1907A4
:1046400007D523685A0703D02B4927480AF01BF9DE
:104650001220274FBB6A9B0719D52368580703D040
:10466000264921480AF00FF97B6BBA6A11060DD56D
:104670002268520704D00121214A1B4808F0BEFDE0
:1046800026B11B4A936A23F0800393621320184BD0
:104690009B6ADB0707D523685F0703D019491248D7
:1046A0000AF0F1F81420124B9B6A9E0607D5236886
:1046B000580703D014490C480AF0E5F815200C4BB4
:1046C0009A6AD10658BF9A6A9A6A920642BF5A6A93
:1046D00022F400525A629A6A42F0FF029A62002360
:1046E0002B70F8BD1020A8E71C040020F256010032
:1046F00000ED00E0085701003B5701004E57010054
:10470000665701007C5701009B57010010B5334CE0
:104710002368580703D0204631490AF0B4F8314BDA
:104720009B6A990157D523685A0703D02E492B4815
:104730000AF0A9F81E202B4B9B6ADB0107D52368E2
:10474000580703D0294925480AF09DF81F20254B1A
:104750009B6AD90207D523685A0703D024491F480A
:104760000AF091F802201F4B9B6A1B0307D52368B0
:10477000580703D01F4919480AF085F82120194B22
:104780009B6A590307D523685A0703D01A4913486F
:104790000AF079F82220134B9B6A9B0307D5236804
:1047A000590703D015490D480AF06DF823200D4B29
:1047B0009B6ADA0307D523685B0703D010490748D3
:1047C0000AF061F82420074A936A6FEA03436FEA0C
:1047D0001343936210BD1D20ADE700BF1C040020F1
:1047E000CA57010000ED00E0E2570100F557010053
:1047F0000F58010039580100575801007C5801003A
:1048000096580100F8B5374C064623680D465B07FD
:1048100003D0204634490AF036F8344B9B6ADF0453
:1048200051D52368580703D031492E480AF02BF898
:1048300017202E4B9B6A190507D523685A0703D00A
:104840002C4928480AF01FF81820284FBB6A9B05FE
:1048500019D52368580703D0274922480AF013F8CE
:10486000BB6BBA6A11040DD52268520704D001212E
:10487000224A1C4808F0C2FC26B11C4A936A23F461
:10488000004393621920194B9B6A5B0507D5236887
:104890005F0703D01A49134809F0F5FF1A20134B9C
:1048A0009A6AD60511D52368590703D015490D48D2
:1048B00009F0E9FF1B200D4A936A43F47F4393629A
:1048C00000232B70F8BD1620B3E79B6A9A04F2D53B
:1048D00023685B0703D00C49024809F0D4FF1C2071
:1048E000E9E700BF1C040020C158010000ED00E012
:1048F000D75801003B570100E85801000159010059
:1049000016590100315901009B5701002DE9F04172
:104910008AB0734B0446D3F80480002500AFC8F377
:10492000080685F31188BFF36F8F02F07F43B3F160
:104930007F4F0AD102F00C03082B15D16948036898
:10494000590702D0684909F09EFF00252C46002334
:10495000FB71F31E092B00F29E80DFE803F00A9042
:10496000938C9C9C9C9C9C9612074CBF0C460125EA
:10497000EDE75C4E33685B0703D030465B4909F0D6
:1049800082FF0023FB71564BDA6A900708D5336823
:10499000590703D05649534809F075FF00233BE0FF
:1049A000DA6A002A04DA33685A07F7D05149F2E785
:1049B000DB6A5B00F2D53368580703D04E4949489B
:1049C00009F061FF464BA1695A6942F480725A614D
:1049D000BFF34F8FBFF36F8F5A6931F8021C22F477
:1049E00080725A61BFF34F8FBFF36F8F4DF6027223
:1049F000914207D09A6AD2B282B30120F91DFFF723
:104A000005FE3AE03368590705D0236801213B4A87
:104A1000344808F0F3FB2368FA79DAB907F108069D
:104A200004F1200C324620686168083403C26445F2
:104A30001646F7D17A6A002D4DD0C2F3080121B98C
:104A40006FEA52226FEA42227A62184607F10801A1
:104A5000FFF734FD2837BD46BDE8F0819A6A12F4AD
:104A60007F4F04D00120F91DFFF7CCFE05E09B6AC3
:104A7000B3F5803F92D3FFF749FE0346CCE7002011
:104A8000F91DBCE70020F91DEEE7164803685A0738
:104A900084D01B4980E7134803685B073FF47EAF6F
:104AA000184A18F4F87FE8468AB0174B18BF134627
:104AB0006A461649103EC2E905134FF40073138489
:104AC000134BD66142F8103F00234FF41151FDF70C
:104AD0000FF9C54662E722F4FF7222F00102B3E744
:104AE00000ED00E01C04002077590100A2590100EC
:104AF000B9590100DA590100E8590100075A0100CB
:104B0000235A01005E59010049590100475A01002A
:104B100004000001064B5A6942F010025A615A69BA
:104B200042F480625A615A6922F008025A61704761
:104B300000ED00E0EFF30880EFF3098101B5724664
:104B4000FFF7E4FE01BD00BF002080F31488BFF32F
:104B50006F8F002080F30A8880F30B88124880F35F
:104B6000088803F0A1FB002010490860BFF34F8FB5
:104B700000F032F8202080F311880D484FF0AA0190
:104B80004FF400620BF004FC09484FF40061401838
:104B900080F30988EFF314800221084380F314881E
:104BA000BFF36F8F00F0E2F8F84A002094ED00E0C8
:104BB000B83D0020002318460649D1F89020C2F3E2
:104BC0000722934200DB7047C1F89830C1F8A0007B
:104BD0000133F6E700ED00E010B572B6002484F36F
:104BE0001388FFF7E7FF23464FF0FF300C4A03F12D
:104BF00020010133102B42F82100F8D100234FF09F
:104C0000FF30074A03F160010133102B42F8210005
:104C1000F8D162B6BFF34F8FBFF36F8F10BD00BFE7
:104C200000E100E0084B9B6883420BD1EFF3058362
:104C300043B1064B5A6842F080525A605A6A22F4D5
:104C400000425A6206F092BBBC1F002000ED00E05B
:104C500017498A684FF030001044EFF3098C80E860
:104C6000F01F202080F31288BFF36F8F114F4FF099
:104C700000664A698A603E604FF0B80414192068E3
:104C80000D4C2060D2F8BC000023C2F8BC3080F389
:104C9000118802F1300090E8F01F8CF3098802F1CE
:104CA000000004B509F0F7FDBDE8044070470000BE
:104CB000BC1F002004ED00E02C1D00201EF0040F9E
:104CC0000CBFEFF30880EFF30980816911F8021C33
:104CD0000229FFD001B5724609F0CAFD01BD00BF2F
:104CE00000B2002807DB01234109034A00F01F003E
:104CF000834042F82130704700E100E000B2002814
:104D00000CDB01220649430900F01F0082402033DA
:104D100041F82320BFF34F8FBFF36F8F704700BF61
:104D200000E100E0054B420953F82220012300F086
:104D30001F0003FA00F01040704700BF00E100E0E0
:104D400000B2002801F10101ACBF00F16040064B48
:104D50004FEA4111C9B2ABBF00F5614000F00F004E
:104D600080F800131954704714ED00E00B4A08B5A1
:104D70000B4B22F07F029A60BFF34F8FBFF36F8F10
:104D8000D3F8882022F47002C3F8882005F030FBA5
:104D900006F058FC00F04AF805F06EFB0000000039
:104DA00000ED00E042F8203C009B0B4942F81C3C1F
:104DB000019B21F0010142F8183C029B42F8081CBB
:104DC00042F8143C4FF0807342F8043C0023203A30
:104DD0000265C0F8BC3070475913000000B50C4B99
:104DE00015469860D0F8B8200A4B0E461A60D0F8E5
:104DF000A83083F30B882C4686F309880020064BE5
:104E000098472046002100220023044C204700BF81
:104E1000BC1F00202C1D0020A1E800005913000039
:104E20001022014B1A61704700ED00E000232020A2
:104E300040F20F1210B5044CE1180133934281F88F
:104E40000003F9D110BD00BF00E100E008B5EFF3A9
:104E50000583064A103B02EBC30152F83300496850
:104E60008847BDE80840FFF7BDBB00BF90110100B7
:104E70001FB5094C094A23460121094800F01CF9D5
:104E800000230393074B0121E41A01A80193029424
:104E900000F01CF904B010BD00F00220000000205A
:104EA000FC240100E004002010B50C7A0B6804F02B
:104EB0001F0223F01F031A43CB68640923F01F036A
:104EC000054943EA440343F00103C1F89800C1F8DF
:104ED0009C20C1F8A03010BD00ED00E010B50C4BD7
:104EE0000446D3F89030C3F30723013B98420BD913
:104EF000084803685B0704D001212346064A08F0EE
:104F00007DF96FF0150010BDFFF7CEFFFBE700BF86
:104F100000ED00E0180400205E5A01002DE9F04F7A
:104F20008946144606464FF00008544D85B0C845E2
:104F30002EDAD6F804A0BAF1000F4BD0BAF11F0F49
:104F40001BD91AF01F0F18D1D6F800B01BF01F0F95
:104F500013D1584609F0C7FC07460AEB0B0001388D
:104F600009F0C1FC874217D06FF015074448036869
:104F70005B070BD0434A3B4605E0414803685A07AC
:104F800004D04346404A012108F038F96FF0150477
:104F9000204605B0BDE8F08F17F1160FE6D0BC42F1
:104FA000E4DDC5F89870D5F89C10C5F89870D5F870
:104FB000A03021F01F0143F01F0BD6E900321A4444
:104FC000994202F1FF3A1DD1D34507D13146F8B2DB
:104FD00009F092FC08F101080C36A8E73146C5F843
:104FE0009870D5F89C3022F01F0203F01F03134382
:104FF000C5F89C30E0B209F07FFC10F1160FC5D067
:10500000441CE7E7C5F89870D5F8A020013B23F0D1
:105010001F0302F01F021343D3453146E0B2C5F827
:10502000A030E8D009F068FC10F1160FAED0C5F83A
:105030009870D5F89C209DF808300BF1FF3B62F387
:1050400004038DF80830D5F8A0309DF808205B08DF
:1050500063F347128DF80820D6E900321344009319
:1050600023F01F035B44A3EB0A03013023F01F036B
:105070006946C0B20393FFF731FFBEE700ED00E0E1
:1050800018040020A75A0100845A01000522044B8D
:10509000C3F89420BFF34F8FBFF36F8F704700BFEB
:1050A00000ED00E0BFF35F8F0022024BC3F89420B5
:1050B000704700BF00ED00E010B5034C2278FFF709
:1050C0002DFF207010BD00BF3C2600202DE9F74FBA
:1050D000294D8A4606464FF00008AB46274FD0457B
:1050E0001BDAD6F80490B9F1000F3FD031680846BA
:1050F000019109F0F8FB0199044609EB0100013820
:1051000009F0F1FB84424FF014021D4B08D002FB62
:1051100008F36FF015024BF8032003B0BDE8F08FE1
:1051200014F1160F2C60F8D01978A142F5DD02FBBE
:1051300008B0C7F89840C7F89840D7F89C4000F1ED
:105140000801007B64F304000871D7F8A0000C7913
:10515000400860F347140C71D7F89C1021F01F0130
:105160006960D7F8A01021F01F01296108F101083A
:1051700014350C36B3E700BF301D002000ED00E011
:105180003C260020F0B54149414CD1F890302568CB
:10519000C3F307239D4287B075D80020FFF782FF35
:1051A0003C4BC1F8C030854216D13B4C01A825705C
:1051B000FDF792F800250646384FAE4213D1002085
:1051C00023783249D1F89020C2F30722934254DB6E
:1051D000FFF75CFF00202FE0616801EB0011FFF793
:1051E00063FE0130DFE70199280101EB0513DA685E
:1051F0003A40B2F5001F21D0B2F5800F2BD0B2F5A6
:10520000801F38D15A689B680958013B22F01F0063
:1052100003440120844623F01F0340EA4C10CDE9EB
:1052200002218DF8100002A920780593FFF756FEA1
:1052300000281DDA6FF0150007B0F0BD5A689B68B2
:105240000958013B22F01F0003444FF0020C0120DB
:1052500023F01F03E1E75A689B680958013B22F0DD
:105260001F0003444FF0000C062023F01F03D4E777
:1052700023780133237001359FE7C1F89830C1F8D6
:10528000A00001339EE74FF0FF30D5E700ED00E0CE
:1052900008250100AAFF44003C2600200000F0FF82
:1052A000F0B587B007460E46144600211022684626
:1052B0001D460BF007FD02238DF80230054B2A46F0
:1052C00021466846CDE90476019306F0AFFF07B0AA
:1052D000F0BD00BF2BE9000008B5024B1B689847E2
:1052E000002008BD441D0020034B044A1860937839
:1052F00043F0020393707047441D0020900000208B
:1053000008B50649064821F00701C1F1005202F52F
:105310003C3207F032FA002008BD00BFBF53002026
:10532000481D002008B500F0B7F801220023094904
:10533000C0E9002241610849C0E902330A60074917
:1053400003610A60064A1360064A1360064A136046
:1053500008BD00BFC8480100BC000020B800002004
:105360005C1D0020581D0020541D00202DE9F04137
:1053700007460E46154600F08FF8C36804461BB971
:1053800043691A78002A41D10023E3606368BB4275
:1053900056F8232008DB324B6361204600F062F8A8
:1053A0004FF0FF30BDE8F081511C616192F8008040
:1053B000B8F12D0FEFD1911C616151782D29A160B9
:1053C00004D192786AB901336360E4E749B9244BA8
:1053D0004146284663610BF08DFC0028DDD0C4F8FF
:1053E0000880D4F80880284641460BF083FCB8F1C9
:1053F0003A0F636900D070B91B7813B96368013341
:105400006360204600F02EF83F20CBE75A1C426133
:105410001B788360E5E742783A2A0BD000222261AC
:105420001B7813B9636801336360204600F01AF8F3
:10543000A068B7E718786268094928B9013297422D
:10544000626004DD56F82230C4E90431EAE76161A4
:105450002D7820463A2DD5D100F004F82846A1E752
:10546000C84801000268074B1A604268064B1A6080
:105470008268064B1A60C268054B1A600269054BC8
:105480001A607047BC000020B80000205C1D00209E
:10549000581D0020541D002000487047A000002027
:1054A00008B5284A284B1A6000F0E6F841F6F87370
:1054B0002648D0F82416C1F3080203EA5133142118
:1054C00082F48072883201FB0233214A590ADB05DB
:1054D00048BF0131C2F80419D0F820364FF47A6081
:1054E000C3F30801C3F30943434342F6041081F4B4
:1054F000807101F2172100FB01334FF47A701B0A0F
:10550000B3FBF0F100FB1133B3F5FA7F28BF013193
:105510000E4BC2F81C17D3F840131C290CD1D3F83A
:105520004433012B08D13423C2F82436D2F83C3658
:1055300023F40023C2F83C360122054B0020C3F8B7
:10554000002608BD0020A1071002002000C0FF00B7
:105550000000125048B1054B054A1B68B3FBF2F33B
:105560005843044B43F001031847704710020020D2
:1055700040420F00A01E0100BFF34F8F0549064BAC
:10558000CA6802F4E0621343CB60BFF34F8F00BFE1
:10559000FDE700BF00ED00E00400FA05F0B5134E92
:1055A000134F144D85B04FF0FF334FF0FF323046AC
:1055B00001A905F02DF80346A8B12A685207F2D0D8
:1055C000012128460C4A07F019FEECE7236813B1C5
:1055D000019A934203D1D4E9013101A898470C34D0
:1055E000BC42F3D3DFE7054CFAE700BF7C040020A0
:1055F000901C010004040020E45A0100901C0100EA
:10560000F0B517461E4685B001909DF82800DDE9EB
:105610000C5423462C432A468DF808008DF80910B7
:10562000ADF80A70039608D00BF014FC0D49085829
:105630000D49884204BF002213460C4801A904F01A
:1056400089FF041E0BDA0A48036813F0060F03D023
:105650000221084A07F0C9FD204605B0F0BD00242C
:10566000FAE700BF08000000501200207C04002070
:1056700004040020F95A01000122024BC3F804245B
:10568000704700BF002008E0084B70B5C31A0D46F4
:1056900007499B10044659434022064809F082FA04
:1056A0002B4601462046BDE870401847741D002077
:1056B000B76DDBB6600F0100402373B50B4C009350
:1056C000041B0B460D460A49A41061430646094ACD
:1056D000094809F092FA011E05DA30462B4602B05D
:1056E000BDE87040184702B070BD00BF741D0020B7
:1056F000B76DDBB663EC0000600F010010B5EFF38F
:105700001184202383F31288BFF36F8F074A136835
:1057100023F00201DB07116002D401200AF02BFC08
:1057200084F31188BFF36F8F10BD00BFC41D00202C
:1057300070B500220121044640F20510FFF700FB7E
:105740000F4802F0D5FE0F4B984215D102F0E0FE53
:1057500026690D49304607F064FB00280BDB012564
:1057600035642469084904F11C0007F05AFB00283D
:1057700001DB0020E56470BD6FF00400FBE700BFB3
:1057800087EC00000000AD0B302501007FB5002242
:105790000123CDE9022304ABCDE90433094A6B466A
:1057A000CDF800D0CDF804D009F054FA002805DB7C
:1057B00043F609520023684605F08AF807B05DF801
:1057C00004FB00BF81EC00000C22104B014602FBE1
:1057D0000033002030B4D3E90E529863EFF3118008
:1057E000202484F31288BFF36F8F1C6C04F0C00474
:1057F00044F002041C6480F31188BFF36F8F1DB165
:105800002B4630BC0248184730BC7047741D00203E
:10581000600F010010B4EFF31182202383F312888C
:10582000BFF36F8F1648016841F002040460C80797
:1058300007D482F31188BFF36F8F012010BC02F0F0
:1058400083BE1049D1F80C14C903F2D5EFF31180CF
:1058500083F31288BFF36F8F0B490B6C03F0C00307
:1058600043F002030B6480F31188BFF36F8F82F360
:105870001188BFF36F8F002010BCFFF7A5BF00BFDA
:10588000C41D002000E01050741D00202DE9F041DF
:10589000012207463449D1E8EF3FC1E8E02F002854
:1058A000F9D133B9314932484B60CB608A6007F097
:1058B000CBFA7B1E012B28D8012F06D12D4BD3F814
:1058C000503403F00303012B1FD00AF00BFE0546F2
:1058D000E8B9294B1B78D3B104220646254BC3F8FF
:1058E0000823244CDFF89480D4F84C24D4F84C34AA
:1058F000D20315D503F00303012B01D0012F0FD1E3
:1059000065B386F31188BFF36F8FBDE8F081EFF3C5
:105910001186202383F31288BFF36F8F0125E0E700
:10592000BDB1304608F0D0FFD4F8403413F0FF0387
:10593000DAD1D4F80821002AD6D0C4F80831D4F836
:10594000083120220123C4F84034C8F8A021236183
:10595000CAE7002120200AF07DFEE5E70422054B7E
:10596000C3F80423D1E700BF701D0020601D002094
:10597000901D002000E01050B626002000E100E05D
:1059800008B507480AF0D9FC38B10648FFF7ACFC67
:105990000448FBF7DBFC002008BD6FF01200FBE7BA
:1059A000EC0F0100A95900000A2838B50446074D3C
:1059B00004D1AB680D212846DB699847AB680348E2
:1059C000DB69E1B29847204638BD00BFEC0F01000B
:1059D00038B545682B69E3B11035284603F032FA33
:1059E0000446B0B90146284603F0EEF90B4B984245
:1059F00011D1224628460A4903F0BAF9224601216C
:105A0000DB20FFF79DF92246012140F20D10FFF740
:105A100097F9002038BD6FF00400FBE70000AD0BE4
:105A2000A95B00002DE9F04340F206354668D00638
:105A300048BF0320337B02EA050558BFC2F340107C
:105A400087B001F01F07B5F5837F144647EA431777
:105A50008DF8030046D00FD8062D45D007D8B5B134
:105A6000022D14D06FF0150007B0BDE8F083B5F536
:105A7000807FF7D101250AE040F20222954235D01D
:105A8000B5F5407F34D0B5F5007FEBD10425012377
:105A9000220303FA01F12DD573685960326972BB94
:105AA0005F2F07F01F034FEA571175D83C4A52F891
:105AB000212084F4803102EB8302D2F88030C1F3DC
:105AC0000041C4F3404423F4706344EA410423F0EA
:105AD0000F031C4344EA800444EA0524C2F88040D2
:105AE0000020C1E70925D2E70825D0E70625CEE743
:105AF0000525CCE7630344BF73689960CEE7103691
:105B0000394630460DF1020203F040F914F4403FEB
:105B100080460CD1394630460AF004FB214B9845AB
:105B2000DED130469DF8021003F09AF9D8E74FF025
:105B3000000901AB3946304603AACDE90439CDE965
:105B40000199CDF80C9002F089FF164B984289D14B
:105B500014F4003315D09DF8033084F48034C4F37A
:105B600000448DF80E3039464B46304603AA8DF876
:105B70000C508DF80D4003F067F80A4B9842CDD0D9
:105B800070E7CDE9043339460DF10303304603AA2B
:105B9000039302F063FFF0E7203352F82330FFDE77
:105BA000782501000000AD0B4209022A034670B5BA
:105BB00003D0012A18D0CAB170BD0E4E32695168A7
:105BC0000029F9D0012503F01F030C689D4000292E
:105BD000F2D08A682A4002D030464B6898473CB1E0
:105BE000236821461C46F2E7034EE7E7034EE5E74C
:105BF0002346F6E7B40F0100980F01007C0F010067
:105C0000F0B5406801F01F04057B87B044EA4514F5
:105C10000569002D63D0B2F5001F00F1100506D113
:105C2000214628460AF080FA002007B0F0BD002780
:105C3000B2F5800F01AE019777603BD1B3F1007FE1
:105C400014BF052304238DF804300023CDE9046339
:105C50000393836823FA01F111F001011CD1B2F121
:105C6000A07F19D104F01F035F2C4FEA541003F1F9
:105C700020033AD81E4A52F8202052F82330DB077E
:105C80000AD40DF1030632462146284603F07EF879
:105C9000184B984219D002962146284603AA02F0D2
:105CA000DDFE154B98421DD101222146284603F006
:105CB000EFF8B9E7B3F1C06F05D0B3F1007F14BFBF
:105CC00001230223BFE70323BDE73146284603F043
:105CD000D3F8094B9842DED06FF00B00A5E76FF0C8
:105CE0008500A2E76FF015009FE751F82330FFDE33
:105CF000782501000400AD0B0000AD0BB0B500AF7E
:105D0000254D28460AF019FB0346002835D12348C3
:105D10000268520711D06C4688B029686A46204D47
:105D2000C2E905514FF4007191831E4942F8101FDA
:105D30004FF4E251FBF7DCFFA5466FF0120420465A
:105D4000BD46B0BD154803685B07F8D02B686D46AB
:105D50008AB06A461449C2E905130123C2E907342F
:105D60004FF400739384114B42F8103F00234FF41B
:105D70003151FBF7BDFFAD46E1E72A69A968136819
:105D8000284623F0020313600B6800220121984784
:105D9000041ED7DB0024D2E77C0F0100F0030020B3
:105DA000BA5B010003000001D15B010005000001A6
:105DB0002DE9F043074688460026144CDFF8509042
:105DC00085B0002515E023688DF809200193A368AC
:105DD0004146EB4003F001038DF80830237C01A815
:105DE000934292BF4B46E36853F825300135039345
:105DF000B84794F90430EAB29D42E4DB0136042E40
:105E000004F11804DDD105B0BDE8F083A826010037
:105E1000C848010008B507F0ABFF80B10C4B9842B1
:105E20000ED00C4B98420DD00B4B98420CD00B4B24
:105E300098420BD103231822094802FB030008BD36
:105E40000023F8E70123F6E70223F4E70020F6E752
:105E5000B40F0100980F0100CC1001007C0F01006D
:105E6000A826010013B50C460D48FFF7A1FF237DBE
:105E70000C49002B637D019323691B680093A26981
:105E80000CBF20232A23206807F087FC231D04F180
:105E9000100207CA83E807000023A36102B010BD07
:105EA000DDEE0000145C01002DE9F04105468AB0EA
:105EB0005068FFF7AFFF0446B8B90146182204A89E
:105EC0000AF000FF244B28460193244B24490093F9
:105ED000244A254B039507F060FC244803A9FFF7EB
