:10000000401C002095180000FDA20000811800008F
:10001000811800008118000081180000811800007C
:10002000000000000000000000000000FD190000BA
:1000300081180000000000009119000081180000E4
:10004000AD1B0000AD1B0000AD1B0000AD1B000090
:10005000AD1B0000AD1B0000AD1B0000AD1B000080
:10006000AD1B0000AD1B0000AD1B0000AD1B000070
:10007000AD1B0000AD1B0000AD1B0000AD1B000060
:10008000AD1B0000AD1B0000AD1B0000AD1B000050
:10009000AD1B0000AD1B0000AD1B0000AD1B000040
:1000A000AD1B0000AD1B0000AD1B0000AD1B000030
:1000B000AD1B00009D3F0000AD1B0000AD1B00000C
:1000C000AD1B0000AD1B0000AD1B0000AD1B000010
:1000D000AD1B0000AD1B0000AD1B0000AD1B000000
:1000E000AD1B0000AD1B0000AD1B0000AD1B0000F0
:1000F000AD1B0000AD1B0000AD1B0000AD1B0000E0
:10039000AD1B0000AD1B00009FB10000AD1B0000B5
:1003A000AD1B0000AD1B0000AD1B0000AD1B00002D
:1003B000AD1B0000AD1B0000AD1B0000AD1B00001D
:1003C000AD1B0000AD1B0000AD1B0000AD1B00000D
:1003D000AD1B0000AD1B0000AD1B0000AD1B0000FD
:1003E000AD1B0000AD1B0000AD1B0000AD1B0000ED
:1003F000AD1B0000AD1B0000AD1B0000AD1B0000DD
:10040000AD1B0000AD1B0000AD1B0000AD1B0000CC
:10041000AD1B0000AD1B0000AD1B0000AD1B0000BC
:10042000AD1B0000AD1B0000AD1B0000AD1B0000AC
:10043000AD1B0000AD1B0000AD1B0000AD1B00009C
:10044000AD1B0000AD1B0000AD1B0000AD1B00008C
:10045000AD1B0000AD1B0000AD1B0000AD1B00007C
:10046000AD1B0000AD1B0000AD1B0000AD1B00006C
:10047000AD1B0000AD1B0000AD1B000053B94AB915
:10048000002908BF00281CBF4FF0FF314FF0FF309C
:1004900000F00CB8ADF1080C6DE904CE00F008F8DE
:1004A000DDF804E0DDE9022304B07047704700BFC7
:1004B0002DE9F04786468C460846089E1546744648
:1004C0001946002B40F0C1808542B2FA82F245D92C
:1004D0004AB1C2F1200300FA02FC954094402EFA82
:1004E00003F343EA0C0C4FEA154EA8B2230CBCFBF5
:1004F000FEF80EFB18CC08FB00F943EA0C439945C3
:1005000028D9EB1808F1FF3704D2994502D9A8F190
:1005100002072B44A3EB0903A4B2B3FBFEFC0EFBC2
:100520001C330CFB00F044EA0344A04214D92C19FC
:100530000CF1FF3304D2A04202D9ACF102032C44E7
:10054000241A43EA07401EB1D4400023346073608C
:10055000BDE8F0874746DDE76346F1E792BB431B02
:1005600001214FEA154EAFB2200CB3FBFEFC0EFB8F
:100570001C330CFB07F840EA0343984561D9EB189C
:100580000CF1FF3004D2984502D9ACF102002B44A3
:10059000A3EB0803A4B2B3FBFEFC0EFB1C330CFB65
:1005A00007F744EA0344A7424DD92C190CF1FF3355
:1005B00004D2A74202D9ACF102032C44E41B43EA63
:1005C0000040C0E7C2F120039540944020FA03F1B7
:1005D0002EFA03F34FEA154E9040AFB20343B1FB3E
:1005E000FEFC0EFB1C10190C0CFB07F841EA004145
:1005F000884522D969180CF1FF3004D2884502D908
:10060000ACF102002944A1EB08019BB2B1FBFEFC56
:100610000EFB1C110CFB07F743EA01439F420ED966
:10062000EB180CF1FF3104D29F4202D9ACF1020168
:100630002B44DB1B41EA004193E76046E3E7614658
:10064000F7E76046A4E76346B8E7834206D916B9E0
:10065000002108467CE7C6E900E0F9E7B3FA83F732
:100660008FB9834201D3724508D8BEEB020460EB18
:10067000030301209C461EB9002169E73846FAE7CA
:10068000C6E9004CF8E7C7F1200CBB400EFA07F5AD
:1006900022FA0CF42EFA0CF1BA401C4320FA0CF3A7
:1006A000B8404FEA144901431FFA84FEB3FBF9F83E
:1006B00009FB18300B0C08FB0EFA43EA00439A457D
:1006C00040D9E31808F1FF3004D29A4502D9A8F1C5
:1006D00002002344A3EB0A0389B2B3FBF9F809FB38
:1006E000183308FB0EFE41EA03418E452CD96118F0
:1006F00008F1FF3304D28E4502D9A8F10203214448
:1007000043EA0040A1EB0E01A0FB02984145CE4612
:10071000434602D306D14D4504D20138B9EB020E4F
:1007200068EB0403002EA7D0B5EB0E0261EB0301CA
:1007300001FA0CFC22FA07F3F9404CEA0303C6E97C
:10074000003199E74046C5E74346D9E7012908B596
:1007500002D0022908D008BD074809F089FCBDE88D
:10076000084000200AF02EBC044809F081FCBDE8D6
:10077000084000200AF029BC0ADF000018DF000052
:1007800080232DE9F0414748A8B0009309F070FCA0
:1007900003F032FA002805DA434809F069FC012029
:1007A00000F020FA0021414808F0B2FD002801DAEB
:1007B0003F48F2E73F4C01270FCC25464FF0000899
:1007C00007AE0FC655F8043BDFF8ECE0336007AB2B
:1007D0000CAE1B930FCD0FC62B68DFF8E0C0336063
:1007E00011AD0CAB1834CDE91FECCDF864E0CDF8B9
:1007F00068C0ADF85870CDF85C808DF86070ADF8C9
:100800007070CDF874808DF8787021930FCC0FC57F
:10081000236816A92B6011AB279301AB0493032324
:1008200004A8CDE925ECCDE90538ADF88870CDF800
:100830008C808DF890700AF013FC404504DA204853
:1008400009F016FC1F48A8E71CA904A80AF008FC38
:10085000002801DA1C48F3E722A904A80AF000FCEA
:10086000002801DA1948EBE76A46194904A80AF09A
:10087000BEFB002807DB0099154808F081FD002821
:1008800003DA144889E70F48DAE708F019FE002870
:1008900001DA114881E7114809F0EAFB404628B027
:1008A000BDE8F08127DF000048DF00004D070000B1
:1008B0005BDF000070C600009BEC000035B100005B
:1008C0007ADF0000C9DF000094DF0000AFDF000026
:1008D000440E0020E1DF0000F6DF00000FE0000022
:1008E00070B589B306680122304609F026FA014640
:1008F0000446304609F0E9F9C30708D41349AF228A
:10090000134809F0CBFBAF21104809F0BEFB21468C
:10091000304609F0F0F9251829460022304609F042
:10092000D4F92D1AAC4206D00849B722084809F07C
:10093000B5FBB721E8E72146304609F0E2F9214648
:10094000BDE8704009F01EBB70BD00BF55E000005F
:1009500078E000002DE9F8430F4606681446B268B7
:100960004B1EB2F5004F34BF042108213B4010D08C
:10097000C7F1000909EA0709494503F1FF3028BF1B
:10098000494618420CD11F46BCB900252846BDE88F
:10099000F8838F420FD82146BDE8F84309F034BBF5
:1009A0002C492D484FF4A27209F078FB4FF4A27144
:1009B000284809F06AFB9946E6E7B2EBD40FE4D980
:1009C000E319591A104609F0C2F90146304609F0F8
:1009D00018FA80460028D8D0B36809EBC005B3F5F3
:1009E000004F34BF042308231D4435447B1E1D449F
:1009F000B5FBF7F57D43A5EB09052946304609F01F
:100A00009CF92C44073424F00704A41B80450746B6
:100A10004FEAE40408D202464146304609F02BFA78
:100A20004146304609F06CFA3946304609F063F920
:100A30003844844208D239463046224609F01BFA2F
:100A40002146304609F05CFA01223946304609F069
:100A500058F99BE755E0000078E00000B2F5802FE0
:100A60002DE9F0410CD2042A20D83D494FF4F97207
:100A70003C4809F013FB4FF4F971394809F005FBC4
:100A80000823D21ACC1D114424F0070421F00701D9
:100A9000091B17294FEAD1060AD8314940F2FB1247
:100AA000304809F0FBFA40F2FB11E6E70423E8E7DF
:100AB0000027046031463046A660E76009F050F92F
:100AC0000121421D8046304609F041F99200D51DB2
:100AD000ED082844B0423AD8B8F1FF3F3946A2F1B8
:100AE000100204F11000B8BF3A460AF017FF2A4678
:100AF0003946204609F01DF93B463A46394620461C
:100B000009F0EEF8A6EB050820463946012209F067
:100B1000F8F84246294609F00CF92B463A46294690
:100B2000204609F0DDF83146204609F002F9434637
:100B30003A463146204609F0D3F831462046012294
:100B400009F0DFF82946BDE8F04109F0D9B90449B8
:100B50004FF40372034809F0A1FA4FF403718CE7D4
:100B600055E0000078E00000014B1B68184700BF0B
:100B700000000020014B1860704700BF00000020FB
:100B800030B585B004460D461022002168460AF0B3
:100B9000C5FE02238DF80230044B2A4621466846E2
:100BA000019308F037FE05B030BD00BF690B0000AF
:100BB00080B505460E461746984607F0A5F9034648
:100BC0000AF016FF0446DFF81890424649F8003054
:100BD00039463046A84754F8090000F0C3FE00BF6C
:100BE0000800000008B5EFF31183402383F3128857
:100BF000BFF36F8F01F0A6FA024809F039FA09F045
:100C000093FBFCE7A1E000002DE9F84F0446A38B1D
:100C100008461907164612D4022803F0070162D1CC
:100C2000204609F063FA88B10138042800F22581D2
:100C3000DFE810F0590023017E00C800F50001280C
:100C40000CBF43F0100143F02001A18304F1140014
:100C500007F0ACFB002800F0AB8086F31188BFF3EF
:100C60006F8FBDE8F88F03F00702501F01281ED8D0
:100C70000020062A2768C4E9000014D13A4603E0A0
:100C8000E08B0130E0831268002AF9D123F00703DA
:100C900043F002022046A28309F028FA90B342F002
:100CA0002002A2832EE023F007039AB2F2E7042A7F
:100CB00033D123F007039AB22046A28309F016FA33
:100CC00010B142F02002A283A38B03F007098945EB
:100CD00040F0DC80A18BCA0640F1218121F0100395
:100CE000A38301F00701D4F81880A38BB8F1000F9B
:100CF000B9DA0022276823F00703C4E9002243F091
:100D00000103A383A38B03F00709894540F0BF804B
:100D1000002FDFD00025AA4640E0854940F21B1293
:100D2000844809F0BBF940F21B11814809F0ADF984
:100D300041B17F494FF4AB727E4809F0AFF94FF4EF
:100D4000AB71F2E7236843B9794940F25712794809
:100D500009F0A4F940F25711E7E723691D6845B986
:100D600073494FF4AD72734809F098F94FF4AD71BF
:100D7000DBE70F4688464FF00609A38B23F00703F5
:100D800043F006039BB2A383A268002A40F081804F
:100D9000002F40F08180002D9CD0BA4643F008031C
:100DA00004F1140B5846A38307F000FB002875D10B
:100DB000614940F231125F4809F070F940F2311197
:100DC0005D48B3E7022908D0594940F25D125948FD
:100DD00009F064F940F25D11A7E7E78B47B1544988
:100DE0004FF4AF72534809F059F94FF4AF719CE7D3
:100DF00023695D6845B94E4940F261124D4809F0DA
:100E00004DF940F2611190E7A38BB84623F0070338
:100E100043F004039BB24FF00409A383B4E7012914
:100E200008D043494FF4B272424809F037F94FF401
:100E3000B2717AE7236843B93D4940F265123D48F3
:100E400009F02CF940F265116FE723699D6845B9F7
:100E500037494FF4B472374809F020F94FF4B471B0
:100E600063E70027A38BB84623F0070343F005038D
:100E70009BB24FF00509A38386E72D4940F26B1220
:100E80002C4809F00BF940F26B114EE700270025C2
:100E90007AE74FF0010A81E792467FE786F31188EF
:100EA000BFF36F8FBAF1000F16D147BB15B12046C3
:100EB0002249A847EFF31186402383F31288BFF33A
:100EC0006F8F584607F064FA08BB1B4988221948FF
:100ED00009F0E4F8882173E7A1680029E5D00E68DD
:100EE0000029E2D043464A462046D1F804A0D04724
:100EF0001EB1336831461E46F2E73346FAE73946FB
:100F000043464A4620463F6809F01CF9CDE758465B
:100F100007F062FAA38B23F00803A383DAE68B06BB
:100F20007FF594AE21F02003A38301F0070177E65B
:100F3000CAE0000078E00000EFE00000410F000090
:100F4000F8B504460D4600F11406EFF3118740236F
:100F500083F31288BFF36F8F304607F019FA40B958
:100F600009490A48882209F099F88821064809F0B9
:100F70008CF8304607F030FAA5613A462046BDE8C5
:100F8000F8400121FFF740BEEFE0000078E00000EC
:100F90002DE9F04704460F4609F0C4F8051E5DDB55
:100FA00004F11409EFF3118A402383F31288BFF38D
:100FB0006F8F484607F0ECF9804638B933498822EC
:100FC000334809F06BF8882130483CE0484607F088
:100FD00003FA4FF6FF72E38BA68B934206F00706E7
:100FE0003FD0022E10D135460133E383484607F047
:100FF000DDF900283BD1254940F23112244809F09F
:101000004DF840F23111DFE7062E13D8DFE806F085
:10101000092C1212090409006FF085054FF0000831
:10102000E4E700233B6063687BB9C4E900777EB1E5
:101030003546F3E7174916484FF4E47209F02EF8E5
:101040004FF4E471134809F020F81F606760EEE781
:10105000524602212046FFF7D7FD35462846BDE817
:10106000F0876FF00A05D9E76FF00405D6E78AF339
:101070001188BFF36F8FB8F1000FEFD00023324615
:101080003946204609F05EF8E8E700BFEFE00000CF
:1010900078E00000CAE00000F8B5054600F114064B
:1010A000EFF31187402383F31288BFF36F8F30462D
:1010B00007F06EF938B920498822204808F0EEFF81
:1010C00088211D4825E0304607F086F9AC8B04F0F6
:1010D0000704022C12D0012C0CBF6FF004046FF037
:1010E0008504304607F062F908BB134940F231121B
:1010F000124808F0D3FF40F23111E2E7EB8B53B90D
:101100000F490E4840F2EF1208F0C8FF40F2EF110D
:101110000B4808F0BAFF013B9BB2EB83002BE0D1F8
:101120003A4621462846FFF76FFD2046F8BD87F373
:101130001188BFF36F8FF8E7EFE0000078E0000060
:10114000CAE000002DE9F0410E460546002845D0D2
:10115000002943D000F11407EFF31188402383F3F3
:101160001288BFF36F8F384607F012F938B91D495E
:1011700088221D4808F092FF88211A4816E0384658
:1011800007F02AF931462846AC8B08F094FF78B175
:1011900004F00704231F022B0CD91449124840F213
:1011A0002D2208F07BFF40F22D21104808F06DFF42
:1011B0006FF07704384607F0F9F840B9094940F272
:1011C0003112094808F06AFF40F23111D5E788F37F
:1011D0001188BFF36F8F2046BDE8F0816FF01504D2
:1011E000F9E700BFEFE0000078E00000CAE000008F
:1011F00008B54268034602F00302032A816002D068
:101200002AB1002000E0006800225A6008BD0449AD
:101210000448452208F042FF4521014808F035FF07
:101220001CE1000078E000002DE9F34180460E4605
:10123000154600272A4601A9404608F0BDFF04468E
:101240000246314601980AF05CFB2D1B27442644D8
:1012500001D0002CEED13946404608F0CAFF40B11B
:1012600006490748492208F019FF4921034808F0B8
:101270000CFF384602B0BDE8F08100BF42E100003B
:1012800078E000002DE9F34180460D461646002720
:101290003246404601A908F0C1FF04462DB102467E
:1012A000019928460AF02DFB2544361B274401D01E
:1012B000002CEDD13946404608F0CCFF40B106493C
:1012C00006488E2208F0EAFE8E21034808F0DDFE73
:1012D000384602B0BDE8F08142E1000078E000004D
:1012E000014B036000207047E8C6000008B50448C1
:1012F00008F0BEFEBDE80840024808F0B9BE00BFD5
:101300008CE10000C1E1000000F1744000F5A6008E
:101310000B289ABF024B18566FF00D00704700BFA4
:10132000EFE1000037B505460C46C9B18B6814489B
:101330000093D1E90023452108F0A2FF636945210C
:101340000093D4E903230F4808F09AFF4521E2698E
:101350000D4808F095FF4521A2690C4808F090FF60
:10136000012D06D1EFF3058245210948103A08F016
:1013700087FF2146284603B0BDE8304005F0BEB9DE
:10138000FBE100002FE2000063E2000077E20000D2
:10139000AAE2000030BFFFF7FDBF00BF2DE9F0411A
:1013A00005460B4EDFF82C80324606EB0807CC1BB7
:1013B000204609490AF0A5FAA01942460021083C36
:1013C0000AF0ACFAC5F8804007F10800BDE8F081EA
:1013D000000000000400000064C60000074A936893
:1013E00093F90E10002907DB526993421FBF044A8C
:1013F000536843F080535360704700BF7407002068
:1014000000ED00E010B5244C4521244808F038FFD9
:10141000A36A99013ED52248452108F031FF1E20DC
:10142000A36ADA0104D51F48452108F029FF1F20CF
:10143000194CA36ADB0204D51B48452108F020FFA4
:101440000220A36A1C0304D51848452108F018FFA0
:101450002120114CA36A590304D51548452108F0F1
:101460000FFF2220A36A9A0304D51248452108F0F1
:1014700007FF2320084CA36ADB0304D50E4845214F
:1014800008F0FEFE2420A36A6FEA03436FEA1343C9
:10149000A36210BD1D20C3E700ED00E0C2E2000022
:1014A000DFE20000F7E2000016E3000045E3000081
:1014B00068E3000092E30000B1E3000070B5284C3F
:1014C00006460D462748452108F0DAFEA36AD904EE
:1014D0003BD52548452108F0D3FE1720A36A1A05FD
:1014E00004D52248452108F0CBFE18201C4CA36AE5
:1014F0009B0511D51E48452108F0C2FEA26BA36AC8
:10150000180408D545211B4808F0BAFE1EB1A36A8D
:1015100023F40043A3621920114CA36A590504D592
:101520001548452108F0ACFE1A20A36ADA050ED54D
:101530001248452108F0A4FE1B20094A936A43F48F
:101540007F43936200232B7070BD1620C6E7A36A09
:101550009B04F2D50A48452108F092FE1C20ECE7D6
:1015600000ED00E0E1E30000FCE3000012E4000015
:101570002AE4000048E4000062E4000082E4000085
:101580009FE4000070B5324C06460D4631484521B7
:1015900008F076FEA36AD90648D52F48452108F001
:1015A0006FFE1120A36A1A0704D52C48452108F0C4
:1015B00067FE1220264CA36A9B0711D545212848B7
:1015C00008F05EFE626BA36A190608D5452125481E
:1015D00008F056FE1EB1A36A23F08003A362132015
:1015E0001B4CA36ADA0704D51F48452108F048FEC2
:1015F0001420A36A9B0604D51C48452108F040FE30
:101600001520134B9A6AD60602D49A6A94070FD50E
:101610009B6AD9060CD51649164840F2331208F0D9
:101620003DFD40F23311124808F02FFD1020B9E7BC
:10163000074B9A6A920642BF5A6A22F400525A62D3
:101640009A6A42F0FF029A6200232B7070BD00BFBD
:1016500000ED00E0D3E40000EEE4000012E400003E
:1016600026E5000043E500005EE500009FE4000081
:1016700082E5000078E00000F0B56C4B0446586845
:1016800000258BB0C0F3080385F31188BFF36F8F7B
:1016900002F07F46B6F17F4F07D102F00C06082E0C
:1016A0000ED14521624808F0EBFD62494FF4856296
:1016B000614808F0F3FC4FF485615E4808F0E5FCF2
:1016C00016074CBF0C460125002CEED00026DA1E72
:1016D0008DF80760092A00F29880DFE802F0058B98
:1016E0008F769696969696934521544808F0C8FDB5
:1016F0008DF807604D4EF36A9A0705D5452150488D
:1017000008F0BEFD002329E0F36A002B02DA452130
:101710004C48F5E7F36A5B0063D545214A4808F079
:10172000AFFD7369A26943F480737361BFF34F8F98
:10173000BFF36F8F736932F8022C23F480737361E7
:10174000BFF34F8FBFF36F8F4DF602739A4224D1D0
:10175000452122683D4808F093FD23689DF8072045
:10176000CAB902AE04F12007324620686168083425
:1017700003C2BC421646F7D1099A002D51D0C2F3DC
:10178000080121B96FEA52226FEA422209921846F3
:1017900002A9FFF7C7FD0BB0F0BDB36ADBB233B1EE
:1017A00001200DF10701FFF7EDFE0346D6E7B36A0E
:1017B00013F47F4F05D001200DF10701FFF77EFEE6
:1017C000F3E7B36AB3F5803F02D3FFF71BFEECE704
:1017D000184940F2FA22184808F060FC40F2FA2159
:1017E0006BE7144940F2FE22134808F057FC40F220
:1017F000FE2162E700200DF10701D4E700200DF182
:101800000701DBE7452112487AE7124910F4F87F17
:10181000114A124808BF0A46103B452108F030FD26
:1018200070E722F4FF7222F00102AFE700ED00E062
:10183000E2E5000082E5000078E0000012E600002A
:101840002EE6000054E6000067E600008BE600008C
:10185000ACE60000B4E50000C9E50000D5E60000F4
:10186000064B5A6942F010025A615A6942F480628A
:101870005A615A6922F008025A61704700ED00E08F
:10188000EFF30880EFF3098101B57246FFF7F4FE2C
:1018900001BD00BF002080F31488BFF36F8F0020CC
:1018A00080F30A8880F30B880F4880F3088802F0E1
:1018B00019FC00200D490860BFF34F8F00F02CF891
:1018C000402080F311880A484FF40061401880F3EB
:1018D0000988EFF314800221084380F31488BFF3D2
:1018E0006F8F00F0F5F80000401C002094ED00E040
:1018F000000F0020002318460649D1F89020C2F3BB
:101900000722934200DB7047C1F89830C1F8A0006D
:101910000133F6E700ED00E010B572B6002484F361
:101920001388FFF7E7FF23464FF0FF300C4A03F11F
:1019300020010133102B42F82100F8D100234FF091
:10194000FF30074A03F160010133102B42F82100F8
:10195000F8D162B6BFF34F8FBFF36F8F10BD00BFDA
:1019600000E100E0084B9B6883420BD1EFF3058355
:1019700043B1064B5A6842F080525A605A6A22F4C8
:1019800000425A6206F0C6BA7407002000ED00E07B
:1019900017498A684FF030001044EFF3098C80E853
:1019A000F01F402080F31288BFF36F8F114F4FF06C
:1019B00000664A698A603E604FF08004141920680E
:1019C0000D4C2060D2F884000023C2F8843080F3EC
:1019D000118802F1300090E8F01F8CF3098802F1C1
:1019E000000004B508F095FCBDE804407047000015
:1019F0007407002004ED00E0080500201EF0040F2D
:101A00000CBFEFF30880EFF30980816911F8021C25
:101A10000229FFD001B5724608F06CFC01BD00BF81
:101A200000B2002807DB01234109034A00F01F0030
:101A3000834042F82130704700E100E000B2002806
:101A40000CDB01220649430900F01F0082402033CD
:101A500041F82320BFF34F8FBFF36F8F704700BF54
:101A600000E100E0054B420953F82220012300F079
:101A70001F0003FA00F01040704700BF00E100E0D3
:101A800008B5D3070BD40231072909D90D490E48EF
:101A9000582208F003FB58210A4808F0F6FA002102
:101AA00000B20028ACBF00F16040084B4FEA411182
:101AB000C9B2ABBF00F5614000F00F0080F8001321
:101AC000195408BDEDE6000078E0000014ED00E0D8
:101AD0000B4A08B50B4B22F07F029A60BFF34F8F81
:101AE000BFF36F8FD3F8882022F47002C3F88820E8
:101AF00004F0F0FE06F078FC00F048F804F02AFF4D
:101B00000000000000ED00E042F8203C009B0B4983
:101B100042F81C3C019B21F0010142F8183C029B59
:101B200042F8081C42F8143C4FF0807342F8043C21
:101B30000023203A0265C0F884307047B10B0000E2
:101B400000B50B4B15469860D0F88020094B0E4627
:101B50001A60036F83F30B882C4686F309880020F4
:101B6000054B98472046002100220023034C2047C4
:101B700074070020080500201BA30000B10B000023
:101B80001022014B1A61704700ED00E00023402055
:101B900040F20F1210B5044CE1180133934281F862
:101BA0000003F9D110BD00BF00E100E008B5EFF37C
:101BB0000583064A103B02EBC30152F83300496823
:101BC0008847BDE80840FFF709BC00BF64BC0000BF
:101BD0001FB5094C094A23460121094800F00EF9B6
:101BE00000230393074B0121E41A01A801930294F7
:101BF00000F01EF904B010BD00F00220000000202B
:101C0000E8C600008002002010B50C7A0B6804F0D2
:101C10001F0223F01F031A43CB68640923F01F033C
:101C2000054943EA440343F00103C1F89800C1F8B1
:101C30009C20C1F8A03010BD00ED00E010B50A4BAB
:101C40000446D3F89030C3F30723013B984208D9E8
:101C500002464521054808F013FB6FF015042046A5
:101C600010BDFFF7D1FFFAE700ED00E028E7000024
:101C70002DE9F04F8946144606464FF00008514DB5
:101C800085B0C84527DAD6F804A0BAF1000F44D0D1
:101C9000BAF11F0F18D91AF01F0F15D1D6F800B0DE
:101CA0001BF01F0F10D1584608F05AFB07460AEBED
:101CB0000B00013808F054FB874210D06FF0150775
:101CC0003A464521404802E0424645213F4808F057
:101CD000D7FA6FF01504204605B0BDE8F08F17F174
:101CE000160FEDD0BC42EBDDC5F89870D5F89C100E
:101CF000C5F89870D5F8A03021F01F0143F01F0BF4
:101D0000D6E900321A44994202F1FF3A1DD1D34577
:101D100007D13146F8B208F02CFB08F101080C3667
:101D2000AFE73146C5F89870D5F89C3022F01F0215
:101D300003F01F031343C5F89C30E0B208F019FB11
:101D400010F1160FC5D0441CE7E7C5F89870D5F818
:101D5000A020013B23F01F0302F01F021343D345D1
:101D60003146E0B2C5F8A030E8D008F002FB10F12F
:101D7000160FAED0C5F89870D5F89C209DF80830A5
:101D80000BF1FF3B62F304038DF80830D5F8A03067
:101D90009DF808205B0863F347128DF80820D6E908
:101DA00000321344009323F01F035B44A3EB0A03A8
:101DB000013023F01F036946C0B20393FFF73EFFD3
:101DC000BEE700BF00ED00E07BE7000053E7000046
:101DD0000522044BC3F89420BFF34F8FBFF36F8FDE
:101DE000704700BF00ED00E0BFF35F8F0022024BA1
:101DF000C3F89420704700BF00ED00E010B5094C17
:101E00002278FFF735FF207016300AD106490748BF
:101E100040F26F1208F042F940F26F11024808F0E8
:101E200034F910BDC40E0020A3E7000078E00000E4
:101E30002DE9F74F2E4D8A4606464FF00008AB4677
:101E40002C4FD04502DB03B0BDE8F08FD6F80490EC
:101E5000B9F1000F47D031680846019108F080FAC7
:101E60000199044609EB0100013808F079FA84422F
:101E70004FF01402204B10D002FB08F36FF0150254
:101E80004BF803201D491E4840F27F1208F006F966
:101E900040F27F11194808F0F8F814F1160F2C6081
:101EA000F0D01978A142EDDD02FB08B0C7F89840E8
:101EB000C7F89840D7F89C4000F10801007B64F314
:101EC00004000871D7F8A0000C79400860F34714AB
:101ED0000C71D7F89C1021F01F016960D7F8A01091
:101EE00021F01F01296108F1010814350C36A8E71B
:101EF0000C05002000ED00E0C40E0020A3E7000068
:101F000078E000002DE9F0414E494F4CD1F8903077
:101F10002568C3F307239D4286B00AD94B494FF485
:101F2000D3724B4808F0BAF84FF4D371474808F021
:101F3000ACF80020FFF758FF464BC1F8C03085428F
:101F40001AD1454C01A82570FFF7CAF900250646AD
:101F50004FF04108414FAE4215D100202378394956
:101F6000D1F89020C2F30722934265DB0020FFF7EF
:101F70002FFF06B0BDE8F081616801EB0011FFF7AB
:101F800043FE0130DBE7019A290102EB0513D3F888
:101F90000CC00CEA0700B0F5001F23D0B0F5800F8D
:101FA00038D0B0F5801F45D1586852589B68CDE9AC
:101FB00002022122013B20F01F010B4423F01F03EA
:101FC0008DF810200593207802A9FFF737FE00282E
:101FD0002DDA1E494FF4E8721D4808F05FF84FF4FF
:101FE000E871A3E758689B685258013B20F01F0135
:101FF0000B4423F01F031CF0010FCDE902028DF802
:1020000010800593DFD011497422114808F046F87A
:1020100074218BE758689B685258013B20F01F01E0
:102020000B44CDE9020223F01F030622C8E7237800
:102030000133237001358EE7C1F89830C1F8A00054
:1020400001338DE700ED00E0F4C60000A3E70000D7
:1020500078E00000AAFF4400C40E00200000F0FF5A
:1020600008B5024B1B689847002008BD20050020DA
:10207000034B044A1860937843F00203937070474F
:10208000200500200400002008B50649064821F07C
:102090000701C1F1005202F53C32FEF7DFFC0020DF
:1020A00008BD00BF472A00202405002008B5184AB3
:1020B000184B1A6000F058F841F6F8731649D1F839
:1020C0002406C0F3080203EA5033142082F480721D
:1020D000883200FB02335A0ADB05104B48BF01323D
:1020E000C3F80429D1F840231C2A0CD1D1F8442389
:1020F000012A08D13422C3F82426D3F83C2622F43E
:102100000022C3F83C260122C3F80026002008BDA7
:102110000020A1079000002000C0FF000000125026
:1021200048B1054B054A1B68B3FBF2F35843044B17
:1021300043F00103184770479000002040420F0011
:10214000D0C60000BFF34F8F0549064BCA6802F4A2
:10215000E0621343CB60BFF34F8F00BFFDE700BFCA
:1021600000ED00E00400FA050122024BC3F804244C
:10217000704700BF002008E037B540230C460A49ED
:102180000093411A491105462346084A084808F0B9
:102190000EF9011E05DA2846234603B0BDE830409B
:1021A000184703B030BD00BF4405002017A400004D
:1021B000CCBA0000C9B2012908B508D908490948B4
:1021C0007F2207F06BFF7F21054807F05EFF0C229E
:1021D000036901FB0233986C00F0070008BD00BFE3
:1021E000F0E7000078E0000070B5C9B2012903698A
:1021F0000AD9184918484FF4DF7207F04FFF4FF41F
:10220000DF71144807F041FFEFF31185402484F398
:102210001288BFF36F8F0C2606FB0134A46C14F0F8
:10222000C00408D0A24206D085F31188BFF36F8F97
:102230004FF0FF3070BD012271430B449A6485F367
:102240001188BFF36F8F43680B445B689847002089
:10225000F0E700BFF0E7000078E0000070B50D4641
:1022600006490446411A491140220548FFF7BCFFC0
:102270002B4601462046BDE8704018474405002023
:10228000CCBA000070B500220121044640F20510CE
:10229000FFF7F6FB0F4802F05FF80F4B984215D19D
:1022A00002F06AF826690D49304607F061FF002800
:1022B0000BDB0125B5642469084904F1200007F00F
:1022C00057FF002801DB0020656570BD6FF004003A
:1022D000FBE700BF952300000000AD0B1CC700000A
:1022E0001FB500220123CDE902236B46084ACDF831
:1022F00000D0CDF804D008F087F8002805DB43F6BD
:1023000009520023684604F091FD05B05DF804FB16
:102310002FA4000010B5EFF31184402383F312883B
:10232000BFF36F8F074A136823F00201DB071160C8
:1023300002D4012002F0D2F884F31188BFF36F8F2A
:1023400010BD00BF9C0500200C22104B014602FB73
:102350000033002030B4D3E910521864EFF3118039
:10236000402484F31288BFF36F8F9C6C04F0C00488
:1023700044F002049C6480F31188BFF36F8F1DB199
:102380002B4630BC0248184730BC7047440500203B
:10239000CCBA000008B5062817D8DFE800F01F1FE8
:1023A000090B041F1F000020BDE80840FFF7CCBF49
:1023B0000120F9E70A4940F2DD220A4807F06EFEE3
:1023C00040F2DD21064807F060FE054940F2ED22AB
:1023D000044807F063FE40F2ED21F3E708BD00BFBB
:1023E000F0E7000078E0000010B4EFF31182402322
:1023F00083F31288BFF36F8F1648016841F002041F
:102400000460C80707D482F31188BFF36F8F0120DF
:1024100010BC01F0DDBF1049D1F80C14C903F2D58E
:10242000EFF3118083F31288BFF36F8F0B498B6C2E
:1024300003F0C00343F002038B6480F31188BFF301
:102440006F8F82F31188BFF36F8F002010BCFFF7EE
:102450007BBF00BF9C05002000E010504405002019
:10246000024BC0B203EB4010704700BF4405002090
:102470002DE9F041012206463F49D1E8EF3FC1E88E
:10248000E02F0028F9D19BB93C493D484B60CB6017
:102490008A60FEF77DFD00280ADA3A4940F291226F
:1024A000394807F0FBFD40F29121364807F0EDFD79
:1024B0005EB3731E012B56D8012E06D1334BD3F8D1
:1024C000503403F00303012B1FD009F04BF80546ED
:1024D000E8B92F4B1B78D3B1042207462B4BC3F826
:1024E00008232A4CDFF8AC80D4F84C24D4F84C34C0
:1024F000D20315D503F00303012B01D0012E0FD118
:1025000065B387F31188BFF36F8FBDE8F081EFF3F8
:102510001187402383F31288BFF36F8F0125E0E713
:10252000BDB1384607F00DFFD4F8403413F0FF0377
:10253000DAD1D4F80821002AD6D0C4F80831D4F86A
:10254000083120220123C4F84034C8F8A0212361B7
:10255000CAE70021202005F061FCE5E704220B4BCF
:10256000C3F80423D1E7074940F2A322064807F045
:1025700095FD40F2A32198E740050020300500209A
:1025800064050020F0E7000078E0000000E0105053
:10259000FB0E002000E100E008B5074808F07DFFD1
:1025A00038B10648FFF764FD0448FEF7E3FA00205F
:1025B00008BD6FF01200FBE744BB0000C12500001E
:1025C0000A2838B50446074D04D1AB680D212846CA
:1025D0005B689847AB6803485B68E1B29847204660
:1025E00038BD00BF44BB000010B5036941B91C49A8
:1025F0003F221C4807F052FD3F21194807F045FDD6
:10260000486830B916494022164807F047FD402176
:10261000F3E75868F8B1884219D19C680868A1426C
:10262000586000D19860002008602AB15A680A609A
:102630009A68596002B99960002010E0814206D181
:102640000868206098688142EDD19C60EBE7044601
:1026500000680028F2D1002AE8D16FF0150010BD03
:1026600064E8000078E0000038B545682B69E3B104
:102670001035284602F0F6FB0446B0B9014628465C
:1026800002F0B0FB0B4B984211D1224628460A4972
:1026900002F06CFB22460121DB20FFF7F1F9224614
:1026A000012140F20D10FFF7EBF9002038BD6FF06B
:1026B0000400FBE70000AD0B7D29000008B50368AE
:1026C0005F2B4FEA531107D80B4A03F01F0352F850
:1026D0002120DA40D2070AD4084909484FF46C7225
:1026E00007F0DCFC4FF46C71044807F0CEFC03608B
:1026F000044B53F8210008BD58C70000A0E80000B3
:1027000078E000004CC70000F0B5406801F01F04FD
:10271000057B87B044EA45140569002D5BD0B2F50E
:10272000001F00F1100506D12146284608F021FEC1
:10273000002007B0F0BD0027B2F5800F01AE019771
:10274000776033D1B3F1007F14BF052304238DF8E4
:1027500004300023CDE9046303938368CB40D90799
:1027600016D4B2F1A07F13D168460094FFF7A6FFFC
:10277000009B203350F82330DB0709D46A462146FA
:10278000284602F001FB174B98421AD0CDF808D02A
:102790002146284603AA02F05FF9134B98421DD147
:1027A00001222146284602F083FBC1E7B3F1C06F46
:1027B00005D0B3F1007F14BF01230223C7E7032331
:1027C000C5E76946284602F067FB074B9842DDD013
:1027D0006FF00B00ADE76FF08500AAE76FF0150012
:1027E000A7E700BF0400AD0B0000AD0B2DE9F043DF
:1027F000466840F20635337BD00601F01F0747EAF2
:10280000431748BF032302EA050558BFC2F340132C
:1028100087B0B5F5837F14468DF8033044D00FD8C8
:10282000062D43D007D8B5B1022D14D06FF0150096
:1028300007B0BDE8F083B5F5807FF7D101250AE048
:1028400040F20222954233D0B5F5407F32D0B5F543
:10285000007FEBD104250123220303FA01F12BD5DC
:1028600073685960336963BB03A80397FFF726FFBA
:10287000039B00EB830084F48033C3F30043C4F371
:102880004044D0F8802044EA43049DF8033022F409
:10289000706244EA830422F00F0244EA05231343E2
:1028A000C0F880300020C3E70925D4E70825D2E727
:1028B0000625D0E70525CEE7630344BF736899601A
:1028C000D0E71036394630460DF1020202F05CFACC
:1028D00014F4403F804616D13946304608F047FD93
:1028E000234B9845DED130469DF8021002F0C8FA1D
:1028F0004045D7D01F492048EC2207F0CFFBEC2100
:102900001C4807F0C2FB4FF0000901AB39463046C6
:1029100003AACDE90439CDE90199CDF80C9002F074
:102920009BF8134B984281D114F4003315D09DF8D5
:10293000033084F48034C4F300448DF80E303946FB
:102940004B46304603AA8DF80C508DF80D4002F02E
:1029500073F9074B9842C3D068E7CDE90433394691
:102960000DF10303304603AA039302F075F8F0E774
:102970000000AD0BD3E8000078E000004209022A15
:10298000034670B503D0012A1BD0E2B170BD134ECF
:10299000326951680029F9D0012503F01F030C6842
:1029A0009D400029F2D08A682A4010D04B6863B954
:1029B0000B490C48642207F071FB6421084807F0BA
:1029C00064FB094EE4E7094EE2E7304698471CB144
:1029D000236821461C46E4E72346FAE714BB0000BF
:1029E00064E8000078E00000FCBA0000E4BA0000EF
:1029F00037B51A4D284608F050FDE0B945212A6840
:102A0000174807F03DFC6FF01204204603B030BDBC
:102A10001449154840F2FB3207F040FB40F2FB310D
:102A2000104807F032FB012345212A680F48009423
:102A300007F026FCE9E76B68A9681B682A699B0711
:102A4000E6D51368284623F0020313600B680022C2
:102A500001219847041EE6DB0024D6E7E4BA000013
:102A600021E900003DE9000078E000006EE9000087
:102A700002780B69012A08D0022A08D04AB9064A0E
:102A80001A6203F1100004F06DB9044AF8E7044A31
:102A9000F6E7044AF4E700BF0000AD0B0100AE0BFF
:102AA0000200AE0B0100AD0B2DE9F04F87B005938E
:102AB00003699346049343684FF0FF32D3F828A08C
:102AC0009B8B064603934FF0FF330C4607F0B8FD8F
:102AD000049B10330293002700220023029804F085
:102AE000A5F93D465F4501D300252DE0207A020778
:102AF0007BD401375F4521680AD2830708D4237D40
:102B000080EA030202F0010203F004031A4308D032
:102B100025B901F06043B3F1005F2AD04FF00008FF
:102B200001E04FF001086368DDF80CC0EA18624567
:102B300011D93268452101922D482A46CDF800C0AE
:102B400007F09EFB6FF01B05304607F07CFD284622
:102B500007B0BDE8F08FC20704D41A460AEB05009F
:102B600008F0CFFE63682B449DB2B8F1000F28D166
:102B7000DDB94FF00008D4F80090A588059B217AB4
:102B80004A46009330462B4600F07EF8051EDBDBFC
:102B900043F609520023029804F048F940B1304648
:102BA00000F02AF86FF00405CEE7A846D146E5E725
:102BB000049B104A1B6A9342F4D1237ADB0702D4A8
:102BC00000250C348EE7CA45FAD1254608E0A8EB6B
:102BD00002011FFA81F8E86819FA81F108F091FE04
:102BE0006A680C3D9045F2D2EAE76FF08505ABE7E5
:102BF000BAE900000000AD0B73B544680DF10701A0
:102C00002368D3F80056D3F8046607F046FB9DF816
:102C1000073013B9204603F07FFA3146284603F007
:102C2000E9FC9DF80710054629B9606A07F00EFD1A
:102C3000204603F04DFA044B9D4214BF6FF00F0085
:102C4000002002B070BD00BF0000AD0B08B5CA0780
:102C5000436809D4C1F34201012908D002290DD0EB
:102C60004521084807F00CFB6FF0150005E04FF018
:102C7000CC721B680020C3F8242508BD4FF0C86241
:102C80001B68F7E7ADEA0000F0B50C461D46164696
:102C900087B04768122200210DF1060008F03EFEC1
:102CA00004F001038DF80430BDF8303002958DF842
:102CB0000530BB8D0496AB4208D20F482A46452109
:102CC00007F0DEFA6FF01B0007B0F0BD84F00202DF
:102CD000C2F340023846520101A903F04FFA074BF4
:102CE000984207D00B33984214BF6FF004006FF086
:102CF0000F00E9E70020E7E7C4EA00000000AD0BA1
:102D000038B5044645682B6A98470121686A07F080
:102D10009DFC23462846AA6905F1080103F096F9AF
:102D2000084B984205D12046BDE83840064907F0D7
:102D3000C9BA45212268054807F0A2FA6FF00400DD
:102D400038BD00BF0000AD0B6BA6000010EB00000B
:102D5000034670B50A4600681979836846689C691D
:102D60000569002C52D002F4C003B3F5C00F0AD19C
:102D7000284940F27A32284807F090F940F27A3137
:102D8000244807F082F943B9224940F27E322248B2
:102D900007F084F940F27E31F2E702F0E863B3F124
:102DA000C86F08D11B4940F281321B4807F076F901
:102DB00040F28131E4E702F0C863B3F5800F08D137
:102DC00014494FF46272144807F068F94FF46271C5
:102DD000D6E7012336688B40334208D10D4940F2D3
:102DE00092320D4807F05AF940F29231C8E71602C4
:102DF00004D52D682B4218BF82F0C062074BA44651
:102E0000BDE87040134002F0B07260476FF05700A9
:102E100070BD00BF3DE9000078E000004000000602
:102E20002DE9F04F50F8103C00255C6805238BB06D
:102E30000595ADF81850A1880DF1140900930646C8
:102E40004A4620680DF1150307F03CFCA8420DDA54
:102E5000304604F0F7F9216911F0986F03D004F1BE
:102E60000800FFF775FF0BB0BDE8F08F4FF0010BC6
:102E7000DFF8D48098F8003028336B4413F8132C13
:102E800098F801301A422FD10135152D08F10208AA
:102E9000F0D1052306228DF814302068A38808920B
:102EA0000222CDF81C908DF824209DF82420816802
:102EB00042F002028DF824208D68012207A9A8475C
:102EC0000028C5DB0125237BA0689D4043681B6863
:102ED0001D422CD11D491E4840F2336207F0DEF836
:102EE00040F23361194816E0316956F8100C002998
:102EF000CAD00F680BFA05FA0029C5D08A681AEA09
:102F000002020DD04B6843B912491148642207F000
:102F1000C5F864210F4807F0B8F803909847039864
:102F20001FB13B6839461F46E6E73B46FAE70769AB
:102F3000836807A95B689847002889D13A68079B8E
:102F400053402B4287D083E73DEB00003DE9000072
:102F500078E0000064E80000F8B5446806460569BA
:102F6000206808F09AFA10B96FF01200F8BD2E60D0
:102F7000776897F82030002B6AD197F82220FB69F8
:102F8000B2FA82F2D8074FEA52124FEA420240F1F7
:102F90008380C121384607F0B1FB0028E6DBFB69DE
:102FA000D9067CD413F0200F0CBF0122022297F81F
:102FB000213033B1013B9B0003F00C031A4342F074
:102FC0001002C221384607F099FB0028CEDBA0682A
:102FD0000028CBD07668B369317D13F0020F0CBFA7
:102FE0000227062703F00102C2F102027D39DB0647
:102FF0003046D2B2C9B248BF47F0100707F07EFB97
:103000000028B3DB317D3A46304681F0800107F07D
:1030100075FB0028AADBA06808F03FFA0028A3D0BF
:10302000E789A068217B47F4803207F03006302E14
:10303000D0F810C0D0E9013E33D1424940F2E1322C
:10304000414807F02BF840F2E1313E4807F01DF807
:103050000422DB21384607F051FB002886DB0122E1
:10306000DC21384607F04AFB0028FFF67FAF97F8CF
:103070002030022B81D10022D221384607F03EFBBE
:103080000028FFF673AF0122D321384607F036FB44
:103090000028BFF672AF69E742F0010279E700222B
:1030A00085E707F0020646B1264940F2E532264898
:1030B00006F0F4FF40F2E531C7E707F00606042EFC
:1030C00008D120494FF47A721F4806F0E7FF4FF409
:1030D0007A71BAE701261B688E401E4208D1194951
:1030E00040F2FB32184806F0D9FF40F2FB31ACE762
:1030F000DCF80030FF074CBF3343B343CCF800305B
:10310000DEF8003098470028FFF630AF0122237B1D
:103110000E4802FA03F3C5E90203A068291D83687B
:10312000DB6963B198470028FFF620AF084B04F134
:1031300008006B612169BDE8F840FFF709BE6FF038
:10314000570013E73DE9000078E000009DA600006D
:10315000212E000008B503685F2B4FEA531107D8F2
:103160000B4A03F01F0352F82120DA40D2070AD499
:10317000084909484FF46C7206F090FF4FF46C71E7
:10318000044806F082FF0360044B53F8210008BD99
:1031900094C80000A0E8000078E0000088C80000A3
:1031A0002DE9F04F9346814640F2FF18DFF82CA13D
:1031B00085B000EB81074F4503D1002005B0BDE885
:1031C000F08FD9F80030C3F3C3210829C3F30804F2
:1031D0007ED8434A1B0E444508BF4FF0FF34565C6F
:1031E000152B78D8DFE803F00B1218301B2130774D
:1031F0007777773360777777777777776366CBF80A
:103200000446651C59D109F10409D4E7CBF80C46F2
:10321000631CF8D0002559E0CBF81046F1E7601C9C
:10322000CBF80046EFD0002504E0CBF80446621C42
:10323000E9D0012503A80394FFF78CFF0121039B2C
:1032400001FA03F383600BE0CBF80846E0E7CBF824
:103250000046002EDCD1611CD5D000250826294669
:10326000D9F80030039403F40040002818BF00216F
:1032700003A818BF012501930091FFF76BFF039C82
:10328000019B00EB8400D0F88040C3F3412C0099EF
:10329000330243EA8C030B4304EA0A04234343EA60
:1032A0004503C0F88030AEE7CBF80446D1E7CBF851
:1032B0004045BCE7CBF84445AAE7012503A80394A1
:1032C000FFF748FF039B05FA03F343602946C7E76E
:1032D0006FF0150072E76FF085006FE7F0F0FCFF0C
:1032E00067EB0000012310B503FA01F1436804699C
:1032F0001B6819420AD10C490C4840F28C6206F056
:10330000CDFE40F28C61084806F0BFFE23681942EA
:1033100018BF82F0010222B18368DB68BDE810406B
:10332000184783681B69F9E73DE9000078E0000071
:10333000F8B54468054607F01BFAA06A28B9284684
:10334000BDE8F840002107F08CBA08F0A6F840B9B3
:10335000A36A234845211A6806F092FF6FF0120015
:10336000F8BDE68DA06A94F82C1046F4003206F001
:103370003004302C0769D0E9013C0AD1194940F2E8
:10338000E132194806F08AFE40F2E131154806F0B4
:103390007CFE06F00604042C08D112494FF47A7220
:1033A000114806F07BFE4FF47A71EFE701241B68A9
:1033B0008C401C4208D10B4940F2FB320A4806F00F
:1033C0006DFE40F2FB31E1E73B68F6074CBF23435B
:1033D000A3433B60DCF8003098470028AFDABFE732
:1033E00070EB00003DE9000078E00000F8B54468AB
:1033F0000D46A06830B9064608345EBBA0680126B9
:1034000008B9F8BD00260123217B45FA06F203FA2C
:1034100001F1436807691B6802F0010219420AD1F1
:103420000D490E4840F28C6206F038FE40F28C6185
:10343000094806F02AFE3B68194218BF82F00102D3
:103440002AB18368DB6898470028D5D0D9E783681C
:103450001B69F8E70020D4E73DE9000078E00000B0
:103460002DE9F04112F0FC6F1346D0E901470669DF
:103470000AD0364940F2DE32354806F00FFE40F2FF
:10348000DE31324806F001FE02F03002302A08D167
:103490002E4940F2E1322E4806F000FE40F2E131C2
:1034A000EFE72C4A2C4D1A40AA4208D1274940F296
:1034B000E532274806F0F2FD40F2E531E1E703F09E
:1034C0000602042A08D121494FF47A72204806F0F6
:1034D000E5FD4FF47A71D4E713F4402212D09D0336
:1034E00008D41A4940F2EB32194806F0D7FD40F2F1
:1034F000EB31C6E7B2F5402F14D0184A9A4301D1F8
:1035000083F44023012524688D40254223F4801252
:1035100011D10E4940F2FB320D4806F0BFFD40F2DA
:10352000FB31AEE7094940F2EF32094806F0B6FD3B
:1035300040F2EF31A5E73468DB074CBF2C43AC43C6
:1035400034603B68BDE8F041184700BF3DE900002A
:1035500078E00000020003000200010001001000FA
:10356000436893F8303023B1012B06D06FF015007B
:103570007047034889B207F01CBA024889B2FAE7DB
:1035800088CA00007CCA000010B44368046993F83C
:1035900030302BB1012B08D06FF0150010BC7047F4
:1035A000064810BC89B207F004BA237E89B21BB169
:1035B000034810BC07F04BBA0248FAE740CA0000C3
:1035C0001CCA0000F8C9000037B540680C4690F8E6
:1035D00030302BB1012B46D06FF0120003B030BD5C
:1035E00000F12805232128460DF1070207F0BFFA54
:1035F0000028F3DB9DF807300DF10702012B0ED1F7
:103600002221284607F0B3FA0028E7DB22469DF87E
:1036100007101B4803B0BDE8304007F0CAB9352198
:10362000284607F0A4FA0028D8DB9DF807300DF1F2
:1036300007025B060AD43621284607F098FA0028CC
:10364000CCDB22469DF807100E48E3E737212846D9
:1036500007F08DFA0028C1DB22469DF807100A48C2
:1036600007F0F5F9BAE768210DF10702283007F0F5
:103670007EFA0028B2DB22469DF807100348C9E70E
:1036800088CA000070CA00004CCA00007CCA000052
:1036900010B5436893F83030FBB1012B1FD103699B
:1036A000187E68B1002001460E4A53891489013101
:1036B0001B1B01330329184402F10C02F5D110BD84
:1036C0000146094A5389148901311B1B013303291F
:1036D000184402F10C02F5D1F1E70220EFE70020D7
:1036E000EDE700BF1CCA0000F8C9000013B544682C
:1036F00094F830302BB1012B1ED06FF0120002B0C5
:1037000010BD14480DF1060307F065F9163002D11B
:103710006FF01500F3E72834222120469DF806209B
:1037200007F073FA0028EADB01222321204602B0C9
:10373000BDE8104007F069BA07480DF1060307F02D
:103740004AF91630E4D068219DF8062004F12800DB
:10375000EDE700BF88CA00007CCA0000002337B52F
:103760004468ADF8063094F8303000692BB1012B75
:103770001BD06FF0120003B030BD1F480DF10603DF
:1037800007F029F9163002D16FF01500F3E7BDF804
:1037900006300822012B0CBF2A212B2104F128001E
:1037A00003B0BDE8304007F030BA057E0DF10603E6
:1037B000C5B1124807F074F90421BDF80630104A6B
:1037C000D35C1630ADF80630DED007228B408A403D
:1037D0006F21DBB2D2B204F1280003B0BDE8304063
:1037E00007F08FB9074807F05BF9BDF80630064AC5
:1037F0002946D35CE5E700BF40CA00001CCA0000B0
:10380000DBEB0000F8C90000E0EB000030B44268D8
:1038100053691468C4F82435D18B938B957E0B4380
:10382000118C0B43518C0B43517E127E29430A436A
:103830009BB21343C4F86C3541680B68D3F800227F
:1038400042F48022C3F800220822C3F800254A6A05
:103850000121C3F83C270022C3F840271965D3F89B
:1038600030110029FBD0C3F80025024930BC06F016
:1038700029BD00BF23AF00002DE9F34104460D46EA
:10388000476807F06FFEA8B92B4B1B7893B14FF038
:103890004008642663681B68D3F83031002B39D1A7
:1038A000012007F08AFC013EF4D10021202004F021
:1038B000B5FAEEE74022EFF311831E4682F3128839
:1038C000BFF36F8F61680968D1F8301121B983F3B4
:1038D0001188BFF36F8FEEE77B6A20461D70636827
:1038E0000DF107017F6A1D6806F0D7FC9DF80720DF
:1038F0004AB90123C5F83C77C5F84037C5F83021EF
:10390000D5F830212B6586F31188BFF36F8F02B095
:10391000BDE8F081EFF311831E4688F31288BFF3F0
:103920006F8F62681268D2F83021002AD4D183F3F5
:103930001188BFF36F8FB8E7FB0E002073B51446F4
:103940001D46684601F0DCFB009BA342019BAB4196
:1039500014D30B4AD2E90061A41B24F01F0365EBCA
:10396000010064099B1941EB000144EAC060C2E90F
:10397000003102B0BDE8704004F070BE02B070BD0E
:103980008002002010B500220121E420FEF778F823
:10399000124A0020D2F8183723F44033C2F81837FF
:1039A00001F000FC0E4B0446984208D101200D495D
:1039B00001F0AAFCA04205D00B4B98420AD04FF070
:1039C000FF3010BD6722094B02201A60FEF750FD40
:1039D0000020F6E76FF00B00F3E700BF00200E5069
:1039E0000000AD0B5C0000200200AD0BE0060020E3
:1039F00007B5684601F084FB0098074AD2E9003217
:103A0000C01A019B4FEA501063EB020340EAC36007
:103A100003B05DF804FB00BF800200207FB5431CAB
:103A200018BF20EAE07502A808BF6FF0004501F05A
:103A300067FB02990E4B2020D3E900268C1A0399CC
:103A400061EB06032146C5FB0013402973F1000416
:103A500036BF014621F01F01002352184FF001012B
:103A600046EB03030091034801F0D8FC04B070BD9D
:103A700080020020540000202DE9F04112F0FC6F7C
:103A80001346D0E9014706690AD0364940F2DE32D2
:103A9000354806F003FB40F2DE31324806F0F5FA15
:103AA00002F03002302A08D12E4940F2E1322E488D
:103AB00006F0F4FA40F2E131EFE72C4A2C4D1A40BF
:103AC000AA4208D1274940F2E532274806F0E6FA33
:103AD00040F2E531E1E703F00602042A08D121496A
:103AE0004FF47A72204806F0D9FA4FF47A71D4E78D
:103AF00013F4402212D09D0308D41A4940F2EB324D
:103B0000194806F0CBFA40F2EB31C6E7B2F5402F88
:103B100014D0184A9A4301D183F440230125246824
:103B20008D40254223F4801211D10E4940F2FB3220
:103B30000D4806F0B3FA40F2FB31AEE7094940F216
:103B4000EF32094806F0AAFA40F2EF31A5E73468EF
:103B5000DB074CBF2C43AC4334603B68BDE8F0410D
:103B6000184700BF3DE9000078E0000002000300B4
:103B70000200010001001000012310B503FA01F159
:103B8000436804691B6819420AD10C490C4840F289
:103B90008C6206F083FA40F28C61084806F075FAF0
:103BA0002368194203D022B183681B6903E0002A0D
:103BB000FAD08368DB68BDE8104018473DE9000093
:103BC00078E0000010F0010210B50ED111F00104F0
:103BD00009D006210648FFF7CFFF044618B145215A
:103BE000044806F04DFB204610BD0122F1E700BF5E
:103BF00014BB00000BEC000010B54FF4003206219E
:103C00000748FFF739FF044620B9BDE810400F21EF
:103C1000FFF7D8BF4521034806F032FB204610BD10
:103C200014BB000026EC00000A4610B538B145214F
:103C3000094806F025FB6FF01504204610BD06214B
:103C40000648FFF799FF04460028F6D045210448AE
:103C500006F016FBF1E700BF45EC000014BB0000C6
:103C60000BEC00000348452108B506F009FB0020D5
:103C7000FEF768FA79EC000038B5044600200D46DE
:103C8000FEF7EEFB0F4B186040B90F490F48782242
:103C900006F004FA78210C4806F0F7F9D620002245
:103CA0000121FDF7EDFE012320462B7000F098F96D
:103CB00028B10748452106F0E3FA064838BD064812
:103CC000FCE700BFF40600209CEC000078E0000058
:103CD000C6EC00000900AD0B0000AD0B30B578B3A9
:103CE0000A292FD84FF49263CB40DB072AD5164A16
:103CF0000429D2F80046D2F804364FEA1425D2F847
:103D0000082604704FEA14448470DCB24570C47015
:103D100001D10E4830BD1D0A05710A294FEA13452D
:103D20004FEA13634571837105D1130AC271120CF6
:103D300003724272EDE7882CEBD19923C370E8E758
:103D40000348E7E70348E5E700C0FF000000AD0BCC
:103D50000400AD0B0600AD0B102808B508D90549C5
:103D60000548E52206F09AF9E521024806F08DF9AA
:103D7000024808BD9CEC000078E00000E90E00203D
:103D800010B50368022B02D0042B18D010BD0023FD
:103D90001649CB60164B4B6003238B60154B18689C
:103DA000FDF7F6F80028F1DA13494FF48072134852
:103DB00006F074F94FF480710F4806F066F90D4B68
:103DC0000A491C682046FDF7BDF910F1780F02D1B1
:103DD0002046FDF761F90028D8DA07494FF48572CB
:103DE000064806F05BF94FF48571E5E7E40600202C
:103DF00099B10000F40600209CEC000078E000007F
:103E000008B50A4B1A699B689A420DD003F01AFA5A
:103E100030F0020308D006490648382206F03EF981
:103E20003821034806F031F908BD00BF70000020BA
:103E300020ED000078E0000070B586B00646042250
:103E400069464C48FDF71EFA04280546494C11D036
:103E5000042245210346484806F012FA4521474806
:103E600006F00EFA0023C4E90233C4E905336360A7
:103E7000236168E09DF80020102A08D940497A2281
:103E8000404806F00BF97A213D4806F0FEF820463E
:103E900002A9FDF7F7F99DF800200346824203D0FE
:103EA000012245213848D7E79DF80130DA070BD4C5
:103EB0002A46204601A9FDF7E5F9042803462BD040
:103EC0002A4645213148C7E7BDF8025020462A4618
:103ED00001A906F0A3F985421ED90021204606F06B
:103EE000B9F9024680B9284607F001FC0146019065
:103EF00078B12A462046FDF7C5F9854217D90198C1
:103F000007F0EEFB6FF04C024521214806F0B8F9AE
:103F1000A4E76FF00B02F7E700241E4B1B6843B9C0
:103F200017499122174806F0B9F89121ACE701240E
:103F3000F3E7019902A898479DF80130DB0704D404
:103F40003046FFF75DFF06B070BD1CB1019807F069
:103F5000C7FBF5E7BDF80210064806F07BF90346FB
:103F60000028EDD04521BDF802200B4806F088F965
:103F7000E6E700BF700000205AED000040EE0000B0
:103F800020ED000078E0000088ED0000B3ED0000B7
:103F9000E7ED0000F80600200DEE0000684620F076
:103FA00007018D4601B50A4B1B7843B109490A4800
:103FB000BD2206F073F8BD21064806F066F80748F2
:103FC00003F040F9FDF70AFABDE801408546704765
:103FD000F90E002020ED000078E0000060000020D5
:103FE00010B5044658B1002201211D20FDF748FDFF
:103FF0001D20FDF715FD0020024B1C6010BD6FF069
:104000001500FBE7F8060020F0B585B09DF8287094
:1040100001928DF80C10064604221A4803A91D4689
:104020008DF80D70ADF80E30FDF7FEF8042804464B
:1040300009D00122144B1A704FF00052134BC3F8F1
:10404000002105B0F0BD31469DF80C200D48FDF76C
:10405000EBF89DF80C308342EBD15FB155B1BDF860
:104060000E2001990748FDF7DFF8BDF80E40A04289
:10407000DFD1E1E7042203480DEB0201FDF7D4F89C
:10408000F5E700BF70000020F90E002000E100E01D
:10409000064BD3F840231C2A05D1D3F84403431E12
:1040A0005842584170470020704700BF00C0FF00D1
:1040B00003689A070CD50368DB070DD50922074B67
:1040C000C3F80C250F22C3F8042501221A60FEE76D
:1040D000034B0360EF3B0360704700BF008010504C
:1040E000F000FA50012208B5334B3448C3F80028D9
:1040F000FFF7DEFF0830FFF7DBFF0830FFF7D8FFE0
:104100000830FFF7D5FF00F5F470FFF7D1FF2C4A18
:10411000D2F88C3043F44063C2F88C300022D300D4
:1041200003F57F0303F54043D3F8001401310AD0AF
:10413000D3F8001439B1D3F800140132D3F80434A1
:10414000402A0B60EBD11C4BD3F840247AB3FFF725
:104150009FFF48B11B4BD3F834231B4B9A429EBFA1
:10416000154B1A4AC3F84026FFF792FF18B1184BB7
:10417000184AC3F8AC27FFF78BFF48B134220E4B27
:10418000C3F82426D3F83C2622F40022C3F83C26A8
:104190000323114A0A49C2F81835D1F88C3043F488
:1041A0004063C1F88C300023C2F8A03508BDC82296
:1041B000C3F84024CBE700BF0000125000C50D50EB
:1041C00000ED00E000C0FF00001D0A1840E0A91E3D
:1041D00000A0085078000A0400B0045030B504680C
:1041E000ACB1B4FA84F30122C3F11F03DBB29A40ED
:1041F00024EA0202D0E8EF5FA54204D1C0E8EC2F28
:10420000BCF1000FF6D1EAD102480B7030BD024874
:10421000FCE700BF0000AD0B0200AD0B10B503685A
:10422000CB40DB0710D401238B40026843EA020134
:10423000D0E8EF4F944204D1C0E8EC1FBCF1000F6E
:10424000F6D1F2D1014810BD0148FCE70000AD0BEA
:104250000400AD0BF7B5064650B1012838D03949F6
:104260003948FB2205F01AFFFB21364805F00DFF07
:1042700014224FF48473042034490024C1F8080345
:10428000012002F1A04203F1A04303F5871302F5D8
:10429000871210601C601B682D4BD3F840331C2B19
:1042A0001BD0864201D10DF10704002342F21075A4
:1042B000264F8DF80730AEB3012E18D0254922487D
:1042C00040F2A74205F0EAFE40F2A7412148CDE7BF
:1042D00004224FF480737120CEE7012EE5D1CE6029
:1042E000E1E763B3012006F068FF013D27D0D7F86E
:1042F0000C3403F48033002CF3D0002B0CBF0123CB
:10430000002323701BD09DF80730C3B9012006F0AD
:1043100054FF013DCFD112E08BB1012006F04DFFDB
:10432000013D0CD0D7F84C3403F48033002CF3D08B
:10433000D7F84C2402F003022270002BE3D103B023
:10434000F0BD00BF7CEE000078E0000000E01050FF
:1043500000C0FF00B9EE0000044B1A7922B9012217
:1043600018601A710248704702487047FC06002026
:104370000000AD0B0C00AD0B08B5104B1A7952B90B
:104380000F49104840F2591205F088FE40F25911C9
:104390000B4805F07AFE1B6843B140F20510FDF7AB
:1043A00061FB18B940F20510FDF73AFB0022064BFD
:1043B000C3F840240122054B1A7008BDFC060020FA
:1043C0007CEE000078E0000000E01050FA0E0020C3
:1043D00038B53D4C237953B93C494FF4D4723C482D
:1043E00005F05CFE4FF4D471384805F04EFE394BB1
:1043F00050B1012849D0354940F2FD12344805F04A
:104400004DFE40F2FD11EFE7D3F84C14D3F84C24E5
:10441000C80322D502F00303012B04D013B10020FE
:10442000FFF718FF00232B4A0420C2F84034102263
:104430004FF48473002103F1A04303F5871319603F
:104440001D68012502F1A04202F58712156022685D
:104450009AB3204BC3F804030CE0D3F84824D107E7
:10446000E0D5D3F850249207D9D422681AB1042297
:10447000C3F8042338BDD3F80821002AFBD000225A
:10448000C3F80821D3F80831F4E70022C3F810215B
:10449000D3F81011C3F81821D3F81811C3F8142158
:1044A000D3F814210C4AD2F840231C2A00D198607A
:1044B00000224FF480737120BCE71A68002AFCD0F8
:1044C00019601B68D6E700BFFC0600207CEE0000E8
:1044D00078E0000000E0105000C0FF0008B5094B74
:1044E0001B7953B90849094840F2172205F0D6FD57
:1044F00040F21721044805F0C8FDBDE80840FFF769
:10450000A9BE00BFFC0600207CEE000078E00000A1
:1045100070B50025254C264ED4F80C3303B970BD78
:10452000B3FA83F3C3F11F039A0002F5807292B2CB
:1045300002F1A04202F58712156012680122D8B27A
:1045400002FA03F3DBB2102BC4F8083323D00ED8E1
:10455000934228D0042B10D01649174840F27632E7
:1045600005F09CFD40F27631124805F08EFD202BBF
:1045700019D0402BF0D1757115E0D4F84C14D4F853
:104580004C1489070FD1C4F84024C4F804332261C5
:10459000D4F80C33C2E77571C4F81451D4F814314F
:1045A0002023C4F8043333689847F1E700E0105043
:1045B000FC0600207CEE000078E000005F2898BF39
:1045C000074B4FEA50129FBF53F8223000F01F00F4
:1045D00023FA00F000F0010088BF0020704700BF00
:1045E00050CB0000034A4309D35C00F01F0018447D
:1045F000C0B2704760EF000070B505460846FFF78F
:10460000F1FF36212A791D4B01FB0202083233F8F3
:104610001200C10526D56C240026C0F3432120F4E6
:10462000F85023F812002A7904FB02340E3434F8CF
:10463000020F10F4807F03D0C0F34320814211D0D9
:104640000136232EF3D16C200024424302EBC10239
:104650009C502A7900FB02306030FFF7DFFD084BE9
:10466000984200D170BD074907484FF4DC7205F04D
:1046700015FD4FF4DC71034805F007FD94000020A0
:104680000000AD0B22EF000078E0000010B50168DB
:1046900004460846FFF792FF50B90F494FF46C7279
:1046A0000E4805F0FBFC4FF46C710B4805F0EDFC77
:1046B00001F01F035F2923604FEA511208D9064910
:1046C00040F2B932054805F0E9FC40F2B931ECE7B7
:1046D000034B53F8220010BDA0E8000078E0000072
:1046E00044CB0000072808B50AD90749074840F21B
:1046F000AA3205F0D3FC40F2AA31034805F0C5FC0C
:10470000800000F5807008BDEDEE000078E000004C
:10471000F0B50646002487B0114F019117F8012B20
:1047200006AB03EBD20313F8143C02F00702D340AC
:1047300013F0010306D10134032CEFD100231846F6
:1047400007B0F0BD074A03AD07CA85E8070055F872
:1047500024100A6A46F824200A62002AEBD0EEE709
:1047600070EF0000ACC6000010B504460846FFF725
:1047700039FF362303FB0400024B083033F81000E6
:10478000400B10BD9400002010B504460846FFF70A
:1047900029FF362303FB0400034B083033F81000D5
:1047A000C0F3400010BD00BF9400002010B50446C7
:1047B0000846FFF717FF362303FB0400044B0830BD
:1047C00033F8100010F01C0018BF012010BD00BF0E
:1047D0009400002010B504460846FFF703FF362377
:1047E00003FB0400034B083033F81000C0F3401003
:1047F00010BD00BF9400002010B504460846FFF726
:10480000F1FE362303FB0400034B083033F810009D
:1048100000F0010010BD00BF940000202DE9F04F12
:104820000D46D0F8141387B0C9B241F40031AA6D17
:10483000009006F04BFD810306462ED50023696EDD
:1048400003A8CDE903330593FFF762FFDFF868A102
:10485000DFF868B10DF10C091AF8013B05EBD30242
:1048600092F8642003F0070322FA03F3DA076AD40C
:10487000534B09F1040953450BF1010BECD14FF4F3
:104880000031AA6D009806F021FD696E03A8FFF7BC
:104890003FFF0028DAD126F400360124002E73D120
:1048A00007B0BDE8F08F91FAA1F1B1FA81F19BF860
:1048B000004041EA44142046FFF794FE083035F8E2
:1048C0001080C8084FEA98030193012319F80020CB
:1048D00001F0070103FA01F122EA010209F80020C0
:1048E00002A80294FFF7D2FE029A019B203250F8F0
:1048F0002220C8F382075B07B846C2F3014227D5DE
:1049000021462846D7B2424606F059FC02A8029436
:10491000FFF7BCFE029B203350F82330C3F3014362
:104920009F4207D10021204606F0B5FC39462046BB
:1049300006F0B1FC02A80294FFF7A8FE0122029B38
:1049400002FA03F30362D9F800100029ABD18FE714
:10495000022A0DD10321204606F09DFC07F0050335
:10496000012BE7D142462146284606F028FCE1E724
:1049700002212046019206F08EFC032FF2D0019A0C
:10498000032AD7D1022FECE796FAA6F3B3FA83F302
:1049900004FA03F226EA0206009A284602EB830391
:1049A000D3F81015D3F81025C1F30811C2F3014252
:1049B00006F005FC72E700BF70EF000070EF00002A
:1049C00073EF0000F7B5044600790D46FFF714FFBA
:1049D000002836D0204606F0A5FC2779294638461F
:1049E000FFF7F8FE58B13846FFF7BEFE00222668F2
:1049F00000B206EB8003C3F81025C3F81025294642
:104A00002046FFF7F9FD2846FFF7ECFD3622237913
:104A1000019502FB030000220B4B083023F8102005
:104A200001A8FFF733FE019B00EB8300D0F8802044
:104A3000064B134043F00203C0F88030044803B033
:104A4000F0BD0448FBE700BF94000020F0F0FCFF3D
:104A50000000AD0B0400AD0B2DE9FF4717460446DF
:104A60000846FFF7BFFD3E68884605463EB3204630
:104A700006F020FC98BB3346CDE900008DF80E000F
:104A80008DF80F000DF10F0240460DF10E0106F0FA
:104A9000B5FB36202379654A00FB0353083332F80F
:104AA000131021F0020122F81310237900FB0353A5
:104AB000083332F8131041F0010122F813107B681B
:104AC000002B45D026794146304693F80090D3F824
:104AD00004A0FFF759FE20B1BAF1000F22D05448CC
:104AE00039E04FF0360C0CFB06565049083631F8C9
:104AF000163023F4604323F0200321F81630BAF176
:104B0000000F0FD0B9F1030FE9D87B6826685B6806
:104B1000187806EB8006B9F1000F1FD1C6F8109582
:104B2000C6F8109536202379404A00FB035308331A
:104B300032F8131021F01C0122F81310237900FB26
:104B40000353083332F8131041EA890122F8131095
:104B5000BB6863BB374804B0BDE8F087D6F81025C2
:104B600022F00302C6F81025226802EB8003D3F876
:104B7000102522F4473222F47C72C3F8102541F646
:104B8000F072D3F8106502EA081242EA0942324391
:104B9000C3F8102523790CFB0353083331F8132095
:104BA00042EA403242F0200221F81320BAE741469F
:104BB000D3E900972046FFF71FFDB9F1000FC9D0D8
:104BC0006C232079194E4343F218F358994504D1C8
:104BD00053689F4201D100210CE06C2303FB00606D
:104BE0000DF10F016030FFF7F9FA124B9842B2D184
:104BF0009DF80F106C222379534303EBC10346F851
:104C0000039023795343362203EBC10333445F609F
:104C1000237902FB0353083336F8132042EA41227A
:104C200042F4807226F8132094E700BF940000201D
:104C30000400AD0B0000AD0B2DE9F043054685B037
:104C4000084690461F46FFF7CDFC0E460446B8F1D5
:104C5000000F2DD095F804904846FFF795FD18B940
:104C60004846FFF7B7FD50BB31464846FFF79EFD6B
:104C700018B198F80130012B21D001238DF80F30A5
:104C8000002308F10102CDE900830DF10F0108F1C5
:104C90000203304606F0B2FA36222B792F4902FB86
:104CA0000343083331F8132042F0030221F81320A4
:104CB000002F50D031462879FFF766FD18B92848F3
:104CC00005B0BDE8F08300214FF0360E38782B6830
:104CD000820003EB8003C3F81015C3F810152B797D
:104CE0001E490EFB0343083331F813C02CF4604C0B
:104CF0002CF0200C21F813C097F801C0BCF1000F74
:104D000029D02B68BF781A44D2F81085154B4FEA8A
:104D10000C4C08EA0303C2F8103541F6F0730CF4AA
:104D2000403C03EA06133F05D2F8108543EA0C0322
:104D300007F480173B4343EA0803C2F810352B7988
:104D40000EFB0344083431F8143043EA403343F097
:104D5000200321F814300448B2E700BF940000207B
:104D60000400AD0B0FE0ECFF0000AD0B30B56C257F
:104D70000479044B05FB0434A160017905FB013380
:104D8000DA6030BD9400002070B5144652B9104965
:104D9000104840F20D3205F081F940F20D310C4817
:104DA00005F073F906793046FFF714FD68B108463F
:104DB000FFF718FC362303FB0600074B083033F8D7
:104DC000103006485B0B237070BD0548FCE700BF40
:104DD00022EF000078E00000940000200000AD0BFE
:104DE0000400AD0B2DE9F843054607796C201A4EF7
:104DF00000FB076898F8684064BB4046A14646221D
:104E00002146103006F08AFD2D68D8F85880A0455C
:104E100013D10023C5F30830C5F844310130D5F86B
:104E20004431FCF7FDFD6C2303FB076601230B48AF
:104E300086F868303366BDE8F883E0B2FFF752FCCD
:104E4000A0F580739B08112B04BF45F800902B58E8
:104E50000134DCE70248EEE7940000200000AD0BCF
:104E60000C00AD0B6C210279044B01FB023393F86B
:104E70006800003818BF0120704700BF9400002070
:104E80006C235C22007913FB002302481844FFF7CF
:104E9000C5B900BF940000206C235C22007913FB8D
:104EA000002302481844FFF799B900BF940000207E
:104EB0002DE9F341044600790D461746FFF776FCCD
:104EC00050B9344940F2FA32334805F0E7F840F27D
:104ED000FA31304805F0D9F82368D3F81423920347
:104EE0005CBF4FF40032C3F8142326793046FFF735
:104EF00071FC08B33046FFF747FC8046E0B9304606
:104F0000FFF732FC0546FFF7EDFB26682AB246F8AC
:104F100000803358236803EB8203D3F8102542F056
:104F20000102C3F8102527B101232268AB40C2F863
:104F3000143302B0BDE8F08147B9164940F20E4281
:104F4000154805F0ABF840F20E41C2E72846FFF7DE
:104F500049FB362303FB0600104B083033F81030B2
:104F6000C3F38203042B11D0052B11D001A80195A6
:104F7000FFF78CFB019BC168D94001F001010231B0
:104F8000284602B0BDE8F04106F085B90321F7E7F5
:104F90000221F5E722EF000078E0000094000020F5
:104FA00001490248FFF73ABC9400002000A00D50D0
:104FB00001490248FFF732BC0001002000C0105038
:104FC00008B5144B027AD3F8101521F001010A43F9
:104FD000C3F810250268B2F5803F0AD30E4940F2AB
:104FE000ED620E4805F05AF840F2ED610A4805F00E
:104FF0004CF8C3F8A4264268FF2A08D906494FF4A2
:10500000DF62064805F04AF84FF4DF61EEE7C3F8C7
:10501000AC2608BD00200E5073EF000078E00000C1
:105020000B2808B50AD90A490A4840F28C6205F0F3
:1050300035F840F28C61064805F027F8002300019E
:1050400000F1A04000F56220C0F82C3508BD00BF7B
:1050500073EF000078E0000070B5054640B91749CD
:105060001748D62205F01AF8D621144805F00DF895
:10507000002467220126007A92FAA2F3B3FA83F39E
:10508000834204F1010112D1FFF7CAFF0C210D4B3D
:10509000E4B201FB043401212A68E2606A682261FB
:1050A0002A7A914022759A680A439A6070BD06FA7E
:1050B00003F30C4622EA0302DEE700BFA6EF00007E
:1050C00078E000006C010020012303FA00F010F0EA
:1050D000670F0AD0064B5B68DB4303F067030342AC
:1050E000044B054818BF184670470448704700BF76
:1050F0006C0100200000AD0B0400AD0B0800AD0BEF
:105100002DE9F048204B1B78012B0AD01F4940F2B3
:105110001F121F4804F0C2FF40F21F111B4804F089
:10512000B4FF40B919494FF49072194804F0B6FF22
:105130004FF49071F2E700230022C0E90023154BE1
:10514000D3F810359B071CD5EFF31181402383F36F
:105150001288BFF36F8F4FF0FF356FF040440E4E53
:10516000D6E900BC5D4574EB0C07F9D3CCF313030F
:10517000C0E900B381F31188BFF36F8F0748BDE822
:10518000F0880748FBE700BF6C010020A6EF000095
:1051900078E0000000200E5040270E500000AD0BBC
:1051A0000100AD0BF0B54E4D85B02C78002C40F0D1
:1051B00093804C4A01AB07CA83E807004A49184666
:1051C000D1F8102522F00202C1F81025FFF7F8FEF1
:1051D0000723672202F001012144013BCCB24FEAD0
:1051E0005202F7D1052C79D11A4601273C480024F8
:1051F00067265FFA82FC96FAA6F15FFA84FEE6451E
:10520000B1FA81F162D30132052A017500F10C0077
:10521000EDD10120002435499A0800FA02F212F07B
:10522000670F1CBF5C505A580433302BF4D1E42074
:10523000FCF7F6FB2C4B0124D3F810255D2022F05F
:105240000202C3F8102540F6FF72C3F8282300229B
:10525000C3F88021C3F88020C3F88421C3F88420D8
:10526000C3F88821C3F88820C3F88C21C3F88C20A8
:10527000C3F89021C3F89020C3F89421C3F8942078
:10528000C3F89821C3F89820C3F89C21C3F89C2048
:10529000C3F8A021C3F8A020C3F8A421C3F8A42018
:1052A000C3F8A821C3F8A820C3F8AC21C3F8AC20E8
:1052B0001C660F4B0F4A1B68B3FBF2F358430E4BAF
:1052C000234398470D482C7005B0F0BD07FA01F153
:1052D00026EA010601348EE70948F5E70948F3E7B5
:1052E0006C010020B8C6000000200E5000210E50B6
:1052F0009000002040420F00E0C600000000AD0B0F
:105300000C00AD0B0100AD0BF7B53B4C0646237806
:105310000D46012B0AD0394940F21922384804F0D1
:10532000BDFE40F21921354804F0AFFE41B93349C2
:1053300040F21A22324804F0B1FE40F21A21F2E79C
:10534000277D47B12D4940F21B222D4804F0A6FECF
:1053500040F21B21E7E7636804F1140103F0010345
:1053600001A80193FEF73AFF264B98423CD12F70DB
:10537000636823F001036360A36843F00103A36043
:10538000214BD3F81025950732D4D3F8102542F0DD
:105390000202C3F81025C6B1D3F8482712F0010263
:1053A00002BFD3F8481741F00101C3F84817164B64
:1053B000D3F84017D3F844174C00F9D42AB9D3F8DE
:1053C000482722F00102C3F84827104B104A1B68F7
:1053D000B3FBF2F30C4A03EB43135BB1D2F8401773
:1053E000D2F84417490001D403B0F0BD013BF4E703
:1053F0000848F9E70848F7E76C010020A6EF00002D
:1054000078E000000000AD0B00200E50900000205E
:1054100040420F000C00AD0B0700AD0B2DE9F04131
:105420001E46334B04461B7817469DF8188053B927
:10543000304940F2E322304804F030FE40F2E321EC
:105440002C4804F022FE40B92A494FF439722A4808
:1054500004F024FE4FF43971F2E7007AFFF734FECE
:10546000264B054698423FD12046FFF7F5FDEFF366
:105470001180402383F31288BFF36F8F227A204B71
:105480009200134400221A60217A1B680B2909D963
:105490001C4940F26642184804F000FE40F26641A2
:1054A0001848CEE7B6F5801F08D3164940F26C4283
:1054B000114804F0F3FD40F26C41F1E7090101F1FC
:1054C000A04101F56221C1F82075C1F8246580F37F
:1054D0001188BFF36F8FB8F1000F05D00123227A36
:1054E0009340094AC2F824332846BDE8F08100BF42
:1054F0006C010020A6EF000078E000000000AD0B7A
:1055000000210E5073EF000000200E50F7B52C4A1A
:10551000002053689268DB4303F0670313401C4686
:1055200001260746CCB90127264B254DD3F8206329
:105530000640287D07FA00F3334239D0E968B9B351
:105540000B2827D92049214840F2764204F0A6FDD5
:1055500040F276411C4804F098FD94FAA4F5B5FA9F
:1055600085F5AA0002F58071920806FA02F213424C
:105570000BD001F1A04101F56221D1F800C0BCF1CE
:10558000000F02D00F600968104306FA05F524EAFF
:105590000504C7E70201D5F810C002F1A04202F5E8
:1055A0006222D2F82435D2F82025CDF800C08847F1
:1055B0000134052C05F10C05BBD103B0F0BD00BFD3
:1055C0006C01002000200E5073EF000078E0000016
:1055D0000123A0F5807292089340084A13420BD031
:1055E00000F1A04000F5562002682AB100220260B6
:1055F00002680A681A430A60704700BFFE04080088
:10560000034670B550B93B493B484FF4E07204F093
:1056100045FD4FF4E071374804F037FD374C267BE9
:10562000002E62D1364DD5F8D426D1075FD507C8F4
:1056300084E807000322C5F80C25D5F8A0254FF40F
:10564000807122F01F0242F00402C5F8A0251868FC
:1056500005F091FE4FF4827105F08DFE4FF48471D8
:1056600005F089FE4FF4867105F085FE4FF48871D0
:1056700005F081FE4FF48A7105F07DFE4FF48C71C8
:1056800005F079FE4FF48E7105F075FE4FF49471BC
:1056900005F071FE4FF4967105F06DFE4FF49871B0
:1056A00005F069FE4FF49C7105F065FE4FF4A4719E
:1056B00005F061FE4FF4A67105F05DFE4FF4A87190
:1056C00005F059FE4FF480020E4BD620C3F8982106
:1056D000FCF7A6F901234FF4805223734FF4906333
:1056E000C4E904230848667370BD0848FCE708480D
:1056F000FAE700BFE2EF000078E0000004070020B6
:1057000000600D5000E100E00000AD0B0C00AD0B9F
:105710000800AD0B08B50B4B1A7B012A0AD00A49C9
:105720000A4840F2092204F0B9FC40F20921064877
:1057300004F0ABFC064BC3F804249A60054AC3F896
:10574000042308BD04070020E2EF000078E0000019
:1057500000600D508600080008B50B4B1B7B012B29
:105760000AD00A490A4840F2232204F097FC40F28A
:105770002321064804F089FC064BD3F83C0410F0C2
:10578000030018BF012008BD04070020E2EF00005D
:1057900078E0000000600D5038B5184C217B0129DD
:1057A0000AD0174940F23522164804F077FC40F23F
:1057B0003521134804F069FC40B9114940F2362202
:1057C000104804F06BFC40F23621F2E7456805F022
:1057D0006043B3F1005F0FD102880B4BC2F30802A4
:1057E000C3F81055C3F814252268084802F48C62E7
:1057F000C3F80423D96138BD0548FCE7040700203D
:10580000E2EF000078E0000000600D500000AD0BFA
:105810000A00AD0BF8B5324C237B012B0AD031497D
:1058200040F25A22304804F039FC40F25A212D4807
:1058300004F02BFC40B92B4940F25B222A4804F0CB
:105840002DFC40F25B21F2E7436843B925494FF450
:105850001772254804F022FC4FF41771E7E702683D
:10586000002A39D003F06043B3F1005F36D1EFF383
:105870001185402383F31288BFF36F8F1B4BD3F83E
:105880000C211AB1D3F80423120723D401261E6178
:1058900002884768C2F30802C3F81075C3F81425DC
:1058A00002681348D200C2F30B0292B2C3F81C255F
:1058B000C3F80C152269C2F31302C3F80825226845
:1058C00002F01802C3F80423DE6085F31188BFF3E9
:1058D0006F8FF8BD0748F8E70748FAE70748F8E789
:1058E00004070020E2EF000078E0000000600D50A7
:1058F0000000AD0B0B00AD0B0600AD0B0A00AD0BAD
:1059000008B50A4B1B7B012B0AD0094909484FF403
:105910003B7204F0C3FB4FF43B71054804F0B5FB48
:1059200000F1A04000F55620036008BD04070020E8
:10593000E2EF000078E0000008B5134B1A7B012A63
:105940000AD0124912484FF43F7204F0A7FB4FF4FB
:105950003F710E4804F099FB29280E4B0ED1D3F865
:105960002014C9074CBF9A625A624FF48052C3F8A0
:1059700008254FF48F62C3F8082308BD00F1A0404A
:1059800000F556200260F0E704070020E2EF000077
:1059900078E0000000600D5008B550B93449354832
:1059A0004FF4477204F07AFB4FF44771304804F02B
:1059B0006CFB0378032B0DD8DFE803F0020E1D2AE1
:1059C00043682D4A934228BF13462C4A5169994295
:1059D0004CD813612A4808BD4368274A934228BF20
:1059E0001346264A1169994240D35361254A9BB216
:1059F000C2F80435EEE70179032937D8214AD2F8F5
:105A0000A43523F0600343EA4113C2F8A435E1E76B
:105A1000027A4368042A27D00A2A23D15A781978AF
:105A2000120242EA0142997803330A431549C1F848
:105A3000982580215A781878120242EA0042987814
:105A4000033302430F48C0F894251B680D4A1BBA64
:105A5000C2F89035D2F8A03523F0C0030B43C2F84A
:105A6000A035B7E74021E5E70021EEE70648B2E7B9
:105A7000E2EF000078E00000FFFF0F0004070020C5
:105A80000000AD0B00600D500400AD0B002330B5DD
:105A900085B069464FF480700093FFF799FD4FF48D
:105AA0008270FFF795FD4FF48470FFF791FD4FF47E
:105AB0008670FFF78DFD4FF48870FFF789FD4FF476
:105AC0008A70FFF785FD4FF48C70FFF781FD4FF46E
:105AD0008E70FFF77DFD4FF49470FFF779FD4FF462
:105AE0009670FFF775FD4FF49870FFF771FD4FF456
:105AF0009C70FFF76DFD4FF4A470FFF769FD4FF444
:105B0000A670FFF765FD4FF4A870FFF761FD009CDC
:105B100014F040051EBF824BD3F81025D3F824356E
:105B2000A30704F0040200F1BA802AB17C4BD3F839
:105B30000433580700F1DB80A2060FD5784BD3F869
:105B400004339B060AD50023CDE9013303932023B8
:105B50000093744B5B680BB1684698473DB3704A3D
:105B6000D2F804335D0622D540230021CDE900316F
:105B7000D2F8103560050393D2F82435C3F30B0334
:105B8000A3F11003C3F3CC0302930BD5D2F8043373
:105B90005B0507D5D2F80C3403F00D0301930D23F8
:105BA000C2F80C345F4B5B680BB16846984725031D
:105BB0002BD55B4BD3F80423100326D50022C3F862
:105BC0001821D3F81811C3F82821D3F82811554803
:105BD000C3F80C21D3F80C11C3F81021D3F810111D
:105BE0000169C1F31301C3F808150D21C3F80C14A2
:105BF0000121C3F804144FF4002300934368CDE956
:105C0000012203920BB16846984721061AD5444BEE
:105C1000D3F80423120615D50022D3F80414CDE9D5
:105C2000012203928022CD07009207D50122C3F8FA
:105C300004243C4B5B680BB1684698470122384B03
:105C4000C3F80424200713D5354BD3F804231107D8
:105C50000ED5344A52685AB108210091D3F8101574
:105C600068460291D3F81C35C3F3C80301939047EB
:105C7000E20612D52A4AD2F80433DB060DD50023FA
:105C8000CDE901330393102300931823C2F808339E
:105C9000244B5B680BB16846984705B030BD204B7C
:105CA000D3F8041389077FF540AF12B3D3F8043358
:105CB00013F0040F0CBF02200320032803D1FFF7C9
:105CC0004BFD0130C0B2012815D002287FF434AF5B
:105CD000144B5A7B002A7FF42FAF012200905A7395
:105CE0005B68002B3FF428AF6846984724E7012003
:105CF000E3E70220E1E70B4B5A7B002A3FF41CAF9D
:105D00004FF48F61064A9060C2F80813002159735E
:105D1000042100914FF48051C2F80815E0E700BF5C
:105D200000600D500407002010B5284BD3F8044341
:105D3000E10416D5D3F830219AB10022C3F83021FE
:105D4000D3F83031224B1B6853B922494FF4BA7251
:105D5000214804F0A3F94FF4BA711E4804F095F9F4
:105D60009847A20415D5194BD3F834218AB10020E5
