:10000000B0240020A14B000043C500008D4B000030
:100010008D4B00008D4B00008D4B00008D4B000080
:10002000000000000000000000000000654C00001F
:100030008D4B000000000000094C00008D4B0000BB
:10004000D94D0000D94D0000D94D0000D94D000018
:10005000D94D0000D94D0000D94D0000D94D000008
:10006000D94D0000D94D0000D94D0000D94D0000F8
:10007000D94D0000D94D0000D94D0000D94D0000E8
:100480007BB972B90029BEBF00204FF0004106E0E1
:1004900008BF00281CBF6FF000414FF0FF3000F094
:1004A000BBB9ADF1080C6DE904CE002909DB002BC6
:1004B0001ADB00F04DF8DDF804E0DDE9022304B0BA
:1004C0007047404261EB4101002B1BDB00F040F81C
:1004D000DDF804E0DDE9022304B0404261EB4101B4
:1004E000524263EB43037047524263EB430300F015
:1004F0002FF8DDF804E0DDE9022304B0404261EBAF
:1005000041017047524263EB430300F021F8DDF8EC
:1005100004E0DDE9022304B0524263EB4303704779
:1005200053B94AB9002908BF00281CBF4FF0FF315A
:100530004FF0FF3000F070B9ADF1080C6DE904CE5A
:1005400000F006F8DDF804E0DDE9022304B07047AE
:100550002DE9F04F099E04468946002B40F0838028
:100560008A42154645D9B2FA82F24AB1C2F1200751
:1005700001FA02F39540944020FA07F747EA03098D
:100580004FEA154E230C1FFA85F8B9FBFEFC0EFB53
:100590001C990CFB08F143EA094399420AD9EB186C
:1005A0002CBF01200020994202D9002800F01D81B3
:1005B0000CF1FF3C591AA3B2B1FBFEF00EFB101177
:1005C00000FB08F843EA0144A04505D92C1902D2E2
:1005D000A04500F20E810138A4EB080440EA0C406B
:1005E00000271EB1D4400023C6E900433946BDE8C8
:1005F000F08F002A51D0B2FA82F2002A40F0AF8088
:10060000491B4FEA154E1FFA85F80127230CB1FB51
:10061000FEFC0EFB1C1108FB0CF043EA0143984260
:100620000AD9EB182CBF01210021984202D90029D8
:1006300000F0D7800CF1FF3C191AA3B2B1FBFEF019
:100640000EFB101108FB00F843EA0144A04505D950
:100650002C1902D2A04500F2C1800138A4EB080495
:1006600040EA0C40BDE78B4208D9002E74D0002729
:10067000C6E9000138463946BDE8F08FB3FA83F782
:1006800067B98B42C0F0A480824240F2A180384614
:10069000002EABD0C6E90049A8E7FFDEC7F1200570
:1006A000BB4002FA07FC01FA07F4EA4020FA05F819
:1006B000E94000FA07FE1A4348EA04044FEA1248E8
:1006C000200C1FFA82F9B1FBF8FA08FB1A110AFB99
:1006D00009FB40EA01418B450AD951182CBF01237F
:1006E00000238B4502D9002B00F088800AF1FF3AE5
:1006F000A1EB0B01A4B2B1FBF8F008FB101100FB59
:1007000009F944EA0141894504D9511801D28945C2
:100710007BD8013840EA0A40A1EB0901A0FB0C8913
:10072000494544464B4602D306D1C64504D201385A
:10073000B8EB0C0469EB0203002E5DD0BEEB0402A3
:1007400061EB030101FA05F522FA07F3F9400027EE
:100750001D43C6E9005149E73746304646E7C2F136
:100760002000954001FA02F721FA00F34FEA154EF6
:1007700024FA00F11FFA85F894403943B3FBFEF0E8
:100780000F0C0EFB103300FB08FC47EA03439C45AB
:1007900007D9EB182CBF012700279C4500D98FB340
:1007A0000138A3EB0C0389B2B3FBFEF70EFB173342
:1007B00007FB08FC41EA03418C4504D9691801D2C2
:1007C0008C4525D8013FA1EB0C0147EA00471DE706
:1007D000841A61EB03030120994659E702382C443F
:1007E0003CE7ACF1020C2B4426E7ACF1020C2B44A5
:1007F000E0E602382C44EFE63746F7E6AAF1020AB3
:10080000114475E702382B44CBE70238114481E7E5
:10081000023F2944D7E700BF704700BF10F8012B03
:1008200011F8013B012A28BF9A42F7D0D01A70472D
:10083000034611F8012B03F8012B002AF9D1704768
:10084000034613F8012B002AFBD1181A0138704710
:100850002DE9F04782468AB00F4616460DF0B0FBF0
:100860004FF47A73A0FB034503FB0155204629464C
:1008700047F612220023FFF753FE012F04460D46D0
:1008800007D102460B46504635490AF05FFE00206C
:1008900011E0766833483146FFF7C0FF70B131464A
:1008A0003148FFF7BBFF48B1504632462F490AF0A6
:1008B00069FE6FF004000AB0BDE8F087204626A369
:1008C000D3E900232946FFF7DBFDCDE90823DDE965
:1008D0000801274A0023FFF7D3FD16461F4630467E
:1008E00039464EF660220023FFF7CAFD20469046A7
:1008F000994619A3D3E900232946FFF7C1FD4FF418
:100900007A7204460D46404649460023FFF7B8FD7B
:100910004046CDE9062349464FF47A720023FFF79B
:10092000AFFD4EF66022CDE9040100233046394682
:10093000FFF7A6FD0E4ACDE90201DDE9080100231B
:10094000FFF79EFD2246CDE900012B46094950469E
:100950000AF0FCFD9BE700BF005C260500000000DC
:10096000A9040100BA040100BD040100C60401008D
:1009700080EE3600DE04010008B50748036803F086
:100980000703022B03D9054A03210AF07CFB4FF42D
:10099000FA72034B1A6008BDE00200201C0101003E
:1009A0000000002012F0020F2DE9F041904611D016
:1009B0000DF006FB4FF47A73A0FB036703FB01778E
:1009C00047F61222002330463946FFF7A9FD1E4B99
:1009D000C3E9000118F0040F26D00DF0F1FA4FF42E
:1009E0007A73A0FB036703FB017747F6122200230B
:1009F00030463946FFF794FD134AD2E90032C41A53
:100A000061EB0205B4F57A7F75F100030EDA0F4849
:100A1000036803F00703022B03D90D4A03210AF0F0
:100A200032FB64220B4B1A60BDE8F08141F2873241
:100A30000023A242AB4103DBBDE8F041FFF79CBFBE
:100A40000122054B1A70EFE720030020E00200208E
:100A50002901010000000020201500202DE9F843A5
:100A600000AF634D634C28460DF0EFF82E46034669
:100A7000C8B92268520712D029686D4688B06A4604
:100A80005D48C2E905014FF4007191835B4942F86A
:100A9000101F4FF4E251204601F0C8F8AD46002087
:100AA000BD46BDE8F8832A69A9681368284623F083
:100AB000400313600B684FF400320621984700286A
:100AC000236810DA5E07EAD02B686D4688B06A4664
:100AD0004B49C2E905134FF400739383474B42F827
:100AE000103F0023D5E703F00703022B15D92B682D
:100AF0006D468AB06A464349C2E905130623D361AD
:100B00004FF400731384404B42F8103F00234FF41E
:100B10001351204601F08AF8AD463C480DF095F897
:100B200040B923685807BAD0394A012131480AF040
:100B3000AAFAB4E737480DF088F820B923685907B6
:100B4000ADD0354AF1E73549354B30484B60062387
:100B50008B6005F07FFD0028236803DA5A079ED0DA
:100B6000304AE2E703F00703022B04D92E4A03219F
:100B700020480AF088FA2D4DDFF89880DFF8B89009
:100B80002B78E3B100232B70236803F00703022BBB
:100B900004D9274A032117480AF075FAD8F8083013
:100BA0005B6843B923685B0709D001214A461148B5
:100BB0000AF069FA03E0404698470028F2DBB36880
:100BC00040215B690A48984747F6122E40F2E73009
:100BD0000021184B4FF47A721B6823EAE37CCEFBAA
:100BE0000C010023FFF79CFC0DF06BF9C8E700BF78
:100BF00064E80000E002002035010100030000016C
:100C000058010100820101000400000198E9000080
:100C10009A010100B4E90000B8010100D80E0020DB
:100C2000A5090000DB0101000702010020150020DA
:100C30001602010000000020230201002DE9F04F00
:100C40001F4691B002F004030193C2F3C2030133C3
:100C50000593830705460E460392DDF868B040F021
:100C60008F81041D002840F08E8101F00706344476
:100C7000C6F108064FF0000A4FF0FF32D1464FF0A0
:100C800004087B1ECDF808A0CDF810A005B12760A0
:100C90000598002807DC88488742C0F0AA8087486A
:100CA000874280F0A680039911F0020E00F0C18007
:100CB0004FF0010C601BBEF1000F00F0A080B0F5FA
:100CC000007FC0F09C806FF0150058E020385A2853
:100CD00034D8DFE800F060333360333233333333FA
:100CE000706033606033606060606060606060604E
:100CF0003333333333333344333333444444333380
:100D00003333603333333333333333333333363383
:100D10003333333333333344333636444444603629
:100D20005E3360332E362E3333866D3633333633AF
:100D30006D0000204FF0000A0EE0013A4FF0000A6B
:100D400029E013F8010C6C284DD113F8020C6C2823
:100D50004FF00000824649D04FF004082CE00CF11F
:100D6000070B2BF0070B07340BF1080C24F00704DA
:100D700065B106982044B04204D96FF01B0011B051
:100D8000BDE8F08FDBE900ABC4E900AB4FF0000A2F
:100D900008344FF0080813F8010F002800F0828093
:100DA000BAF1000F92D12528F5D14FF0010A013296
:100DB0004FF00408EFE70020013C4444B4FBF8F492
:100DC00008FB04F425B1A8EB050EA644B645D4D81B
:100DD00000284AD0E34605985BF8047B013805906B
:100DE00054E75046A6E700208246E5E74FF00808A2
:100DF000E2E703994FF0000C01F0020E5AE7B9F157
:100E00000F0F3FF660AFF5B110A901EB090EC0F36B
:100E100087000EF8200C0EF8102CBCF1000F0ED03D
:100E200060F07F000EF8200C02980130029009F16A
:100E30000109C5F108000434DC460690ABE70498CC
:100E400001300490F3E7BCF1000F01D00136EEE76A
:100E5000019802360028EAD13846CDE90623FFF78B
:100E6000EFFCDDE906230644E1E7B8F1040F08D101
:100E70000CF1040115B1DCF80000206004348C464C
:100E800089E7B8F1080F7FF41EAF0CF1070B2BF0C8
:100E9000070B0BF1080C1DB1DBE90001C4E90001EF
:100EA000083478E7631BB3F5806FBFF40CAF3DB92E
:100EB000A6F10804E01862E764E7000010230100CF
:100EC000019A9B0828602B709DF810308AB16870D9
:100ED000EB70029BAB702BB1002208A9C5F1010099
:100EE000914509D14FF00008C5F1010A0DF1300B11
:100EF00035E06B70019BEBE711F8013B13F0800FBD
:100F000008D000EB040CB44503F07F033FF635AF87
:100F100004F8013B0132E3E7029B23B108AB13F96C
:100F20000830002B19DB019BEBB118F80B3004F8EB
:100F3000013B00230AEB04021A44B2423FF61DAF04
:100F400008AA12F80820394604F8012B20461A4650
:100F500003930DF087F9039B1C4408F10108C14578
:100F6000DAD1601B0BE708AB13F80830019A55F88B
:100F7000237045F823203846FFF762FC431CD9E76D
:100F80006FF00D00FBE607293FF674AEF5E600BFF3
:100F90002DE9F04F97B000AF7B62D7F8803005465F
:100FA000C3F3C003FA623B6290F802B0B96249B978
:100FB0008846047846780BEB8404044446451CD8E4
:100FC000631BBB62BBF1000F20D0D7F8803003F069
:100FD0000104EB78FB611BB1D7F88030980717D478
:100FE000B4B9FB6A1BB1D7E9092128469847BE6A04
:100FF00030465C37BD46BDE8F08F01342046FFF730
:101000001FFC0130044408F10108D7E75C46E0E723
:101010002B783B619B00BB616B687B61BB6905EB17
:10102000030AFB6A002B40F08E80BE6A0AEB0B09B4
:10103000002C66D0D0461C46C8454DD1D344D7F8C5
:1010400080304FF0000A13F0050F0CBF022301237C
:10105000DFF80893BB62FB699A45C9D20BF1020B1A
:101060001BF8013CB94A55F823309342C0F0668121
:10107000B74A93423A6A2CBF4FF000084FF001087C
:10108000002A40D07B621BF8023C78691946FB625B
:1010900009F03EFB7B6A002835D0D9F8003013F008
:1010A000060F15D0E8468AB06A46AA4B53617B69A1
:1010B0009361FB6AD3614FF400731384A64B42F82B
:1010C000103F00234FF41251484600F0AFFDC546D3
:1010D000023E0AF1010ABEE718F8013B55F8230069
:1010E000FFF7AEFBD7F88430013043B1D7F8883032
:1010F0009C423EBFD7F8843023F8140001340644E4
:101100009AE7CB469BE7B8F1000F06D0D7F88020CE
:10111000D10706D4BB6AF61ADBE7D7F8802092071E
:10112000D7D51846FFF78CFBD7F884304BB1D7F8EA
:1011300088309C423FBFD7F88420431C22F81430EB
:1011400001340644C5E7002C40F0EA80BBF1000FF3
:101150005ED0D7F88030580700F1EC80A04600221E
:10116000DA440AF10203F9698A4254D3D7F880209D
:101170004FEA41096E78D7F8801092070AEB09030D
:101180003B6258BF4FEA580204EB060348BF0022F7
:10119000C807DBB200F18D8011F0040F14BF414687
:1011A00000216B70A970EA70B9697A6A2846FB6AF7
:1011B0009847B0F1000AC0F2AF803B696E702B70A7
:1011C000FB6985F802B0EB707A6A414607F1480086
:1011D000FB6A9847061EFFF60BAFBB69386A4B44A3
:1011E00003EB0B01D7E90923591AFB6A984700283A
:1011F000C0F294804FF0000B5644064407F1380AC1
:10120000A34558D300217A6A0846FB6A9847EFE65F
:10121000D8465C46A3E713F8016C4C4855F82610F5
:1012200013F8029C814203D349488142C0F0988060
:10123000396A41B30021F96078694946C7E901324A
:1012400009F066FAD7E90132D0B9F968D9B1D7F80F
:101250008010C90707D507F15800611C044404F841
:10126000206CCCB20CE0D7F88010480708D507F105
:10127000580008F10101804408F8106C5FFA81F809
:10128000013202336FE7D7F880108907E3D407F102
:101290005800404408F1010100F8109C07F1580083
:1012A00008F1020850FA81F15FFA88F801F8106C31
:1012B000E6E7002175E71BF80A3087F8373055F864
:1012C0002390D7F8843023B3D7F888309B4520D2B9
:1012D000D7F8843033F81B807A6A012107F1370090
:1012E000FB6A9847002819DB0644B8F1000F05D1C6
:1012F0004846FFF7A5FA01301FFA80F87A6A41469E
:101300004846FB6A9847002808DB06440BF1010BAE
:1013100076E74FF00008DFE7564669E6064667E6DF
:101320005C464FF0000807F138005A4651460CF071
:1013300099FF14E7D84607F14800F6E73A6A002A11
:101340003FF4EBAE4FF000089CE600BF64E70000FE
:10135000102301004A02010004000001BC02002029
:10136000396A00293FF473AF396A64E7014B1860AA
:10137000704700BF040000202DE9F84FB0F8189026
:10138000044619F008080DD001290CBF49F01009D6
:1013900049F02009A0F8189082F31188BFF36F8FED
:1013A000BDE8F88F09F00709022907D1204609F0A6
:1013B00059FC0028F0D00128238B4AD16769238B80
:1013C000002F15DA2568C4E9008823F0070343F0ED
:1013D000010323830026238B03F0070ACA4502D0AA
:1013E000A168002956D10DB9002E6CD0002152E021
:1013F00003F00701481F01281CD823F00703062922
:1014000025689BB2C4E9008802D15DB943F00203AC
:101410002383204609F026FC0028DBD0238B43F0F1
:101420002003D6E72946608B0130608309680029D4
:10143000F9D1EBE704290AD123F0070399B22183FC
:10144000204609F00FFC10B141F020012183002556
:10145000C0E7032809D1216923F007030E6843F090
:101460000603002523832F46B5E7042806D121690A
:1014700023F007034E6843F00403F2E7052806D182
:10148000216923F007038E6843F00503E9E700258F
:101490002E46E8E7012143F00803238382F31188F5
:1014A000BFF36F8FF1B97DBB16B120492046B0471D
:1014B000EFF31182202383F31288BFF36F8F238B06
:1014C00023F008032383238BD90627D5012123F09A
:1014D00010032383B4F8189009F0070900297FF45A
:1014E00063AF59E7A1680029DDD0D1F80090D1F8A9
:1014F00004B03B4652462046D847B9F1000FD2D03F
:101500004946D9F80090F2E7D5F8009029463B46C5
:101510005246204609F0C2FB4D46C4E713F02001B5
:101520001EBF23F0200323830221D3E7C9AC0000B0
:1015300030B5002289B00F490F480CF043FD00225E
:1015400000230024CDE906230E230C4DCDE90334FE
:10155000CDE9014400940A4B4FF4407209492846F2
:1015600007F0FCFD0849284607F04CFD204609B06D
:1015700030BD00BF8D150000300700206807002037
:10158000C5190000B0150020FE020100014807F057
:1015900097BB00BF040300202DE9F047054607462E
:1015A0004FF00108DFF84C9015B93846BDE8F087D8
:1015B00095FAA5F4B4FA84F408FA04F6F643240183
:1015C00009EB040A9AF80C303540002BECD059F89E
:1015D00004301B6943B94C446368042219685046BF
:1015E000374009F0D5FCDFE7504698470028DBD1AB
:1015F000F1E700BF58F400002DE9F84F8146244878
:10160000884609F0A1FC002839D000252846BDE80D
:10161000F88FA4EB0B0362681B1101331371237B5A
:101620007BB12368DB680BB12046984763689F71E4
:1016300023681B69DBB9636804221968204609F036
:10164000A7FC013610345445E3D3B9F1000FDDD0C7
:10165000002DDAD02846FFF79FFF0546B8F1000FAE
:10166000F6D0002140F239100CF02BFCF0E72046B8
:1016700098470028DFD007FA06F31D43E1E7054C41
:1016800006460546A346DFF810A00127DBE700BFAA
:10169000F00E002058F4000068F4000008B530B1E6
:1016A000044B1860084600F035FD002008BD6FF0BF
:1016B0001500FBE70800002010B5044C227812B991
:1016C000034807F0FDFA0123237010BD2115002007
:1016D0000403002010B50446094809F035FC3CB16C
:1016E000084BD3E8EF2F013AC3E8E12F0029F8D1E6
:1016F00005480CF073FCBDE81040044807F0E0BA60
:10170000EC0E0020E40E002030070020040300202F
:101710000020044BD3E8EF2FC3E8E10F0029F9D1F3
:1017200010467047EC0E002070B5FFF7F1FF06463B
:10173000074C084DAC4200D370BD63685B792BB198
:1017400023685B6813B13146204698471034F1E7AF
:1017500058F4000068F4000010B5044C0449204619
:1017600009F018F9034B1C6010BD00BF7402002083
:1017700058F60000E80E002008B50023074A084983
:101780001370084A08481360084A1360FFF786FF81
:10179000FFF7E2FFBDE8084000F070B92215002015
:1017A00040420F00EC0E002045AF0000E40E002088
:1017B000014600220023014809F00EB974020020FE
:1017C000014809F0A8B900BF74020020024B01468D
:1017D000186809F0F1B900BFE80E0020014809F0CF
:1017E00026BA00BF740200202DE9F047374B187865
:1017F000002868D0FFF7E4FF054600285FD1344B8E
:10180000344C1B68002B1DDD0CF0DAFB4FF47A73AF
:10181000A0FB038903FB019947F6122200234046EF
:101820004946FEF77DFED4E90032C61A4FF00003A8
:1018300061EB02074FF47A72BB4208BFB24201D299
:10184000FFF772FFD4E9003213F57A7342F1000218
:10185000C4E90032BDE8F047FFF7C0BF63685B79B9
:101860003BB129784B0713D5236829461B682046CE
:10187000984710345445F1D32846FFF7A7FF164B7D
:10188000D3E8EF2F013AC3E8E12F0029B7D0F7E7FB
:101890002846B5F80080C1F3C20900F097FAC8F3F2
:1018A00082180246B8F1000FDED00028DCDB0123ED
:1018B0004946204600F094F94045DAD3D4E7074C76
:1018C000DFF81CA0D6E7BDE8F08700BF2115002097
:1018D000EC0E002028070020E40E002058F4000041
:1018E00068F4000013B5184809F02EFB174B1B785D
:1018F00073B1EFF31184202383F31288BFF36F8F4A
:10190000FFF772FF84F31188BFF36F8F02B010BD31
:101910000F4B1B68002BF9D050B9002200230D4853
:10192000CDE9002347F61222002308F0BFFAEDE7C5
:101930000928EBD107480CF051FB074802B0BDE87D
:10194000104007F0BDB900BFE40E002022150020B2
:10195000F40E0020300700200403002010B5064BD1
:1019600004461B6898472146A060044809F0B4F873
:10197000BDE81040FFF7B6BF080000207402002049
:1019800070B50D4D297861B90120FFF735FE0B4C7C
:101990000B4EB44206D3FFF727FF0028FBD10123EB
:1019A0002B7070BD63685B791BB1236820469B6810
:1019B00098471034EDE700BF2215002058F40000CE
:1019C00068F4000000212DE9F0470846FFF714FEF7
:1019D000044648B340F21B66002707F003FF1B4B89
:1019E000186030B11A4B1B68092B02DD194807F04B
:1019F00067F90025DFF86490DFF858A044B120466D
:101A0000FFF7CAFD044618B94FF0FF364FF0FF3715
:101A1000FFF7EAFE804628B9B5B932463B46504644
:101A200007F088F94546E9E74FF0FF364FF0FF37FA
:101A3000D3E72B689B691BB10022284611469847C3
:101A400010354D45F5D3E8E7034DFAE7F40E0020D5
:101A5000E40E00200403002058F4000068F40000A5
:101A6000044A054B9B1AB1EBD30F34BF52F8310037
:101A700000207047C0F3000058F4000000210B481C
:101A80000B4B30B51B1A0B4CDB080430994200D1CC
:101A900030BD10F83120256802F0070225F0070557
:101AA0002A4344F8042B0131F0E700BFC0F30000E3
:101AB00058F40000B8020020F8B5074600240A4E8A
:101AC0000A4DAD1BED08AC4203D14FF0FF34204668
:101AD000F8BD56F8340020B13946FEF79FFE0028C5
:101AE000F5D00134EFE700BFC0F3000058F4000068
:101AF00000282DE9F047884615461F461DDA4FF0AD
:101B0000000A5446DFF8A490244EA6EB09063609D5
:101B1000564509F1100902D12046BDE8F08759F871
:101B20000C0C3B462A4641460079FFF7E1FF844210
:101B300038BF04460AF1010AEAE7194B194AD21ADA
:101B4000B5EBD20F2EBF002403EBC5031C7914B1F3
:101B5000BC4228BF3C460723C0B2134A00EB4000FA
:101B600003FA00F152F8253023EA010304F00701DB
:101B700001FA00F003430321002023FA01F606F0E6
:101B80000706B04201F1030138BF30461E29F4D1E7
:101B900023F00703034342F82530BDE768F4000053
:101BA000C0F3000058F40000B802002058F4000010
:101BB000F8B506460F460024074D084BED1AED0810
:101BC000AC4200D3F8BD002122B23B46304601347E
:101BD00009F0D6F9A4B2F3E758F40000C0F300000E
:101BE00070B14168087973B1002A17DB0C49C0B2A3
:101BF00000EB400351F82200D84000F00700704786
:101C00004FF0FF30EFE707490748401AB2EBD00F1B
:101C10003ABF01EBC20108791846704704207047AB
:101C2000B8020020C0F3000058F400002DE9F04F86
:101C30008FB0C1F34A2804AFF8609246BB600C46EF
:101C4000B8F1000F60D000250423C7E907557D6275
:101C500002930A2307F114060093019607F11C036F
:101C60002A4641465046FFF793F9B0F5006FC34648
:101C700003461FD32948036813F0060F16D06C469D
:101C80008AB0DAF8043004AA2549C2E9051340F203
:101C9000FF73D3614FF400731384224B42F8103F5B
:101CA0004FF412512B46FFF7C1FFA5462C37BD4616
:101CB000BDE8F08FC0F30A0868F3532400EB14501A
:101CC000173020F0070080087B60FFF771FD814628
:101CD00088B17B6800F11002C7E908350423FA6176
:101CE000CDE901630A23104A0093594607F11C030A
:101CF0005046FFF74DF968F35324BB682246F96854
:101D0000484609F078F9D1E7080D173020F00700B0
:101D10008008FFF74DFD8146EDE700BFD8020020A7
:101D20001303010004000001CBAF00002DE9F04FC8
:101D300087B08346DDE91267884692469946109C33
:101D400086B3102100973346119A00200597FEF7BD
:101D500075FFB0F5006F014626D2002504F117008B
:101D600008446FF307056BF3C50520F007006AF31D
:101D70008815800861F353250391FFF719FD64F37B
:101D80001F55044638B136B100973346119A03996E
:101D90001030FEF753FF4B462A464146204609F0D5
:101DA0002AF90CE03146D8E70648036813F0060F1D
:101DB00005D040F2FF73044A022109F06DF907B023
:101DC000BDE8F08FD802002052030100406820B126
:101DD000034BC01A40F38F0070474FF0FF3070473D
:101DE000B80200200EB403B503AB53F8042B014630
:101DF0000448019303F00EFA02B05DF804EB03B05F
:101E0000704700BFFBB000002DE9F04F8BB0984643
:101E1000169B9DF854900793179B04460493189BB8
:101E20000F4693460593199EB9F1000F00F0EC8020
:101E300006F00103089306F00803069306F4807386
:101E400006F0020A099309F099F820B10246854983
:101E50002046FFF7C7FF0546BAF1000F09D016F07C
:101E6000440F40F0A4803A467F492046FFF7BAFF6E
:101E70000544089B53B17D4B7D4953F829207D4B88
:101E80002046002A08BF1A46FFF7ACFF099B002B2B
:101E9000069B18BF4FF00008002B00F0B380764B74
:101EA000764953F829202046FFF79CFF0746BBF1EF
:101EB000000F05D05A4672492046FFF793FF0744AA
:101EC000B8F1000F05D042466E492046FFF78AFF61
:101ED00007446D483D44079B1BB122466B4908F0FF
:101EE000E8FB059B002B49D0DFF8C481059F102F2C
:101EF00028BF1027F30606D4B00640F18D80644950
:101F00002046FFF76FFF4FF0000A554500F386802B
:101F10004FF0000ADFF89CB1574540F28F80049BD8
:101F2000594613F80A202046FFF75CFF0AF1010A20
:101F3000BAF1100F79D157492046FFF753FF4FF000
:101F4000000BDFF874A15F4540F28680049B514688
:101F500013F80B202046A2F120035F2B28BF2E226E
:101F6000FFF740FF0BF1010BBBF1100F6BD1049B8E
:101F70003B440493059BDB1B0593B7D1B9F1000FDC
:101F80000FD0F10704D53B4A39492046FFF72AFF15
:101F9000F20606D4B3064CBF3D493F492046FFF741
:101FA00021FF20460BB0BDE8F04F09F099B83B4B3C
:101FB000186800283FF45CAF394B4FF47A711B6806
:101FC0004FF4616CB7FBF3F7B7FBF0F300FB13774B
:101FD0004F43B3FBFCF2B7FBF0FA4FF03C0E0CFBA7
:101FE000123C00FB1A77BCFBFEF34F43B7FBF0F744
:101FF0000EFB13C1CDE901A7009120462949FFF747
:10200000F1FE35E7069F52E71F48274B4D46B8F1D2
:10201000010F18BF18465EE71F4971E74146204689
:10202000FFF7E0FE0AF1010A6FE71AF0070F7FF4ED
:1020300073AF41462046FFF7D5FE6DE71B492046AA
:10204000FFF7D0FE72E71BF0070F7FF47CAF41462D
:102050002046FFF7C7FE76E741462046FFF7C2FE5F
:1020600080E700BF8F030100930301006CF60000BE
:10207000AA0901008A03010080F60000B8030100EC
:10208000BE030100C2030100FBB0000015520000B6
:1020900081070100D4030100C7030100F80E0020EE
:1020A000FC0E00209C03010029B10000D0030100B8
:1020B000D2030100CA030100C80F010042F20F73EE
:1020C00073B58B4228BF0B46056804460E4A0521AE
:1020D000684608F00DF80646636828465B680B22E0
:1020E0000A4908F0EFFF63683246694628465B6894
:1020F00008F0E8FF63681B225B680549284608F082
:10210000E1FF02B070BD00BF60160100F2030100E4
:10211000D603010001230021074A10B5074C1360C4
:10212000A04204D801B11360054B186010BD4008EF
:102130005B000121F4E700BFFC0E002040420F00CD
:10214000F80E0020014B03600020704794F6000059
:1021500003289ABF024B53F820000248704700BF83
:1021600094F600008207010010B504460BF0FAFB5C
:1021700003490246204609F0E9F9002010BD00BFDE
:1021800054040100F7B513460022054601920A21C6
:1021900001AA586809F0CAFC019CA4B920EAE071C0
:1021A00040F2E73647F612200027C0FB01674FF4E4
:1021B0007A72002330463946FEF7B2F90BF081FE01
:1021C000204603B0F0BD22460249284609F0DAF95C
:1021D000019CF5E78004010008B5034A034909F0B2
:1021E000B5F9002008BD00BF7005010076050100AB
:1021F000F7B517460023054601AA0A21B8680193DE
:1022000009F094FC1749C6B2284609F0ADF9019CC3
:1022100044B122461449284609F0B4F9019C2046ED
:1022200003B0F0BD042E09D932461049284609F002
:10223000A9F9284609F0F8F90124F0E77868FFF7D2
:102240003BFC021E07DA7A680949284609F09AF928
:102250006FF01504E3E7334612B22146204608F03A
:102260008FFEDCE7A1050100070601002E06010034
:1022700045060100002307B50090694604488DF823
:10228000043007F009FC9DF8040003B05DF804FB7E
:1022900005B2000010B5044604F038FD07490246B7
:1022A000204609F053F92046054909F04FF9214627
:1022B000044807F00BFC002010BD00BFA40601007D
:1022C000C3060100C9220000F0B58FB004460D46D8
:1022D000D0F8A0600BF046FD074607F083FA204BCC
:1022E0002049002F08BF1F461F4A2346844208BFCB
:1022F0000A46009728461D4909F028F9D4E90A231F
:102300002846CDE900231A4994F90E30227B09F0C2
:102310001DF906A92022204606F084FE636E0246BF
:102320001449284609F012F905A920460BF028FDAA
:10233000024628B11049284609F008F90FB0F0BD4F
:102340006422059B2846F11A4A43B2FBF6F200913B
:10235000CDE901620949324609F0F8F8EEE700BF1D
:10236000CD060100C9190100D2030100D006010009
:10237000DC060100080701001F0701004C070100EF
:10238000F0B50024054691B008AF1A22144E202162
:102390003846CDF83A40ADF83E400BF08BFF294669
:1023A000104807F093FB07AA4FF4006130460BF08A
:1023B000DBFC6423079A2846C2F500614B43DB0A25
:1023C00005934FF400630097CDE90313CDE9013283
:1023D00005492346324609F0B9F8204611B0F0BD50
:1023E000F0250020ED2300009D07010070B5054693
:1023F00088B00E46D0F8A04007A90BF0C1FC0246F9
:1024000028B10F49304609F0A1F808B070BD284640
:102410000BF0A8FC6423079A0094A11A4B43B3FB6A
:10242000F4F3CDE90343074BCDE90121002818BFA0
:1024300003462A460449304609F088F8E5E700BF1C
:102440001F070100CD060100E607010038B513465D
:1024500005461022002158680CF00EF80446FFF7DC
:1024600009FF38B922460D49284609F08BF86FF06C
:10247000150038BD07F0B6F9844204D10849284652
:1024800009F080F8F3E7204606F072FF284622465E
:10249000044909F05BF80020EBE700BF4A0801009F
:1024A000650801008D08010038B513460546102265
:1024B000002158680BF0E0FF0446FFF7DBFE38B957
:1024C00022460D49284609F05DF86FF0150038BD29
:1024D00007F088F9844204D10849284609F052F8E7
:1024E000F3E7204607F04CF828462246044909F055
:1024F0002DF80020EBE700BF4A080100CC080100DE
:10250000F208010038B5134605461022002158682C
:102510000BF0B2FF0446FFF7ADFE38B922460D4975
:10252000284609F02FF86FF0150038BD07F05AF96A
:10253000844204D10849284609F024F8F3E72046EC
:1025400002F04CFB28462246044908F0FFFF002019
:10255000EBE700BF4A0801002D0901005209010004
:102560002DE9F04F89B0054602A806F0AFF81C2708
:10257000029B304A07FB00370821284608F0CBFFB2
:10258000DFF8CCA0029CBC4203D3002009B0BDE818
:10259000F08F23680BB11A7832B92346264A1421EA
:1025A00003A807F0A5FD03AB244A0821284608F03C
:1025B000B2FF20460BF049FB78B300230DF1070171
:1025C00020468DF8073008F0F0FD20BB9DF807008D
:1025D000FFF7BEFD03461A4A0821284608F09BFF74
:1025E000A369B3B11E68A6B1336893B1154A082137
:1025F000284608F090FF4FF00008DFF858B006F1C9
:102600000409336843450AD80F4A0821284608F0D0
:1026100082FF1C34B7E70D4BDDE75346DBE759F883
:10262000043B5A460821284608F075FF08F10108C6
:10263000E7E700BF99090100A3090100A80901000B
:1026400017100100AD090100810701008A0901008E
:1026500090090100A90901002DE9F04114468846BE
:1026600007461022002160680BF006FFB8F1020F48
:1026700006461DD90A220021A0680BF0FDFEC5B256
:102680002B46204A0821384608F045FFB8F1030FD1
:102690001ED8102D0ED0202D0FD0082D0FD133783D
:1026A000DBB2194A0821384608F035FF00200DE05A
:1026B0002025E5E733889BB2F3E73368F1E7384636
:1026C000124A082108F027FF6FF01500BDE8F081DD
:1026D00010220021E0680BF0CFFE0D4A03460446AD
:1026E0000821384608F017FF102D06D0202D07D0FE
:1026F000082DE4D1E4B23470D8E7A4B23480D5E731
:102700003460D3E7010A01002C0A0100160A010017
:102710003D0A010070B50E4C054623780E4631B1D6
:102720002BB10C4908F02EFF6FF00F0070BD83F045
:10273000010323702BB10849284608F007FF012345
:1027400023702846314608F08DFF0020EEE700BFD9
:1027500025150020E40A01001F0B010000232DE9CC
:10276000F74F804617460E4629492A4D0B602A49E5
:10277000DFF8B890DFF8B8B02B700B60012E3C4644
:1027800057F8043F1FD918460222494601930BF01F
:10279000B4FD019B78B99A78003218BF012203EB8F
:1027A000020A1E49022250460BF0A7FD28B9012358
:1027B0002B70013EE2E70022F1E749465046FEF762
:1027C0002DF8B0B904340022606811460BF054FEB5
:1027D0000022134B1146186060680BF04DFE114B40
:1027E000114918604046FFF795FF002003B0BDE88F
:1027F000F08F9AF800202D2AE5D19AF80120002ABE
:10280000E1D052465946404608F0A0FED1E700BF4D
:10281000040F0020261500200C0F0020CC0A010018
:10282000000F0020080F002035280000C90A010011
:10283000CF0A010070B53E4B05461878182802D122
:102840000878112831D00846013A8C18844225D1E5
:102850008A5C384C1A700A78A2F13003092B04D92B
:1028600022F02003413B052B04D823683249CA5487
:10287000013323602368022B33D1102200212E481C
:102880000BF0FAFD2D4A136803F8010B13602C4A74
:102890001368013313600023236022E010F8016BFA
:1028A000182ED3D10678112ED0D1254C2549226877
:1028B000284608F04BFE00212846FFF72BFF224B4D
:1028C000187870B9214A23681168042B0ADC08B112
:1028D0001160236013F003010BD1126813681BBA57
:1028E000136070BD0868043B00BA41F8040B012076
:1028F000EBE75B4203F0030358BF5942022907D1BB
:1029000012681168C1F3072343EA01239BB2E7E78A
:102910000329E6D1106802681104C2F3074301F4E9
:102920007F010B4302F47F4213430360D9E700BFEA
:1029300027150020040F002023150020000F002081
:102940000C0F0020E709010026150020080F0020C9
:1029500000232DE9F04F92464FF0FF35012287B05A
:102960000193494B074689461A604FF0200802F050
:1029700093FC2C46DFF830B1444E51465A46484647
:1029800002F0AEFC411C06D16A1C33D140493846E6
:1029900008F0F8FD13E0732814D077281ED06128C2
:1029A0000DD101AA1021306809F0C0F8019B05463D
:1029B000002BE2D032683749384608F0E3FD6FF06B
:1029C00015005DE001AA0021306809F0AFF8019B15
:1029D0000446002BD1D032682F49EDE701AA00212F
:1029E000306809F0A3F8019B8046002BC5D03268FF
:1029F0002A49E1E7631C01D12949C8E75FFA88F653
:102A00004FEAD608002C3AD002AB00211A4609E062
:102A1000102E1BD0202E1FD0082E2AD1495D1970F0
:102A200001464344A04503D801EB08001028EFD924
:102A3000102CA14628BF4FF0100929464B463846B6
:102A400000F044FF1035A4EB0904DBE7495B89B2D1
:102A50001970090A5970E3E749594FEA112C1970A6
:102A600083F801C04FEA114C090E83F802C0D970F7
:102A7000D6E70C4A0821384608F04DFD9FE720466E
:102A800007B0BDE8F08F00BF78000020BC12002026
:102A9000920A0100510A0100640A0100770A01004C
:102AA000AF0A0100160A01008B0A010010B5446844
:102AB000A3604023C4E9001242680821D36402F1F4
:102AC000580313630023C2E90E33C2E91133C2E98C
:102AD0000633C2E90933D162146802F1500153632D
:102AE0001364116153611362C2F8D030A36823B13B
:102AF0001B6C13B1044920469847A3681B6A0BB1AD
:102B000020469847002010BD452B000007B50A4815
:102B10000BF09BF860B10423084A0093126801236C
:102B20000549074800F030FF002003B05DF804FBC2
:102B30006FF01200F9E700BFB8E800004CF70000A2
:102B400068F400002DE9F04F054685B00C46836817
:102B5000DB6B03B19847AB68DB6A002B33D10026EF
:102B6000DFF80C91DFF80CB104F13008616C626B96
:102B7000E36C521A9A1A934204F1340A28BF13469E
:102B8000514603AA404608F043F9074600283CD0C6
:102B9000AB6803991B69002B34D00246284698473E
:102BA000031E1A4651464046019318BF012608F0FD
:102BB00061F9019B0BB1BB42D8D046B1D4E90131D8
:102BC0000020984703E0284698470028C7D1AB6803
:102BD000DB698BBB226AA36904F110079B1AE26AC6
:102BE00007F11008934228BF1346414603AA38460E
:102BF00008F00EF9064630BB284608F019FBC4F869
:102C0000D0602CE06FF05700CAE7D9F8003013F01D
:102C1000060F04D002215A46484608F034FAAB6841
:102C20001B6933B101220DF10B0128469847034679
:102C3000C0E76FF05700FAE7284698470028C9D147
:102C400005B0BDE8F08FAB680399DB6863B102465D
:102C50002846984702464146384608F00BF9D4E921
:102C6000013101209847EBE76FF05702F3E700BF0F
:102C7000F8020020C80C010010B504468168183124
:102C800001F036FAA1682046BDE81040014A18312B
:102C900001F0D2B93C0F0100022210B5836804464E
:102CA0001A7583689B6CCBB9083008F06DFBA3687C
:102CB000D3F87832DB040CD503212046084B094AAF
:102CC00009F0ADF8A0686FF4805100F51E7008F0AF
:102CD00013FB2046BDE8104001F01CB910BD00BF39
:102CE000670F0100AA090100F7B5044680680E4687
:102CF000D0F878325A0705D5002108F061FBE0686A
:102D000009F01CFBE368DB6873B9002E3BD0A568B3
:102D100005F15607384608F031FB002835D0394612
:102D200005F5AB70FDF784FDA2680DF10603563280
:102D30003146E06809F005FB58B9A06800F5AB71B1
:102D40005630FDF775FDA068563008F017FBADF85A
:102D50000600204608F0AFFFA368D3F874329B0644
:102D600003D50B49606908F0FCFA204600F042FFE9
:102D7000A268BDF806302046A2F85230A268A2F838
:102D8000503000F0FDFE03B0F0BD85F85601CBE7F2
:102D900000F600002DE9F04FA7B0044654220021B0
:102DA00011A80BF087FA0023CDE90533A36820466C
:102DB0005633039308F086FF204608F002FF18B947
:102DC000A149606908F0CDFA00264FF0FF37B346FD
:102DD000B2463546B146A0681422002118300BF0E7
:102DE00069FA204608F059FEA168E068B1F8502061
:102DF000563109F0DDFA204609F06CFB0DF144086C
:102E00000296DDE90532012A00F0DD80132B40F245
:102E1000AC80069B022B40F0AB808C4B8C4A01218E
:102E200015E00223039A414606A808F0BBFCD8F837
:102E3000042006990346039229B96FF00705284636
:102E400027B0BDE8F08F012905D120B1814A204685
:102E500008F0E5FFF1E7059B5BB3D8F8000001F04F
:102E600067F998B166B1A5680D9618350CAE0FCE0E
:102E70000FC533682B602046FFF7FEFE0125DEE715
:102E8000754A0121204608F0CAFFD6E7059B83B1A9
:102E9000D8F800202946204601F0E6FA022800F082
:102EA0009280032805D0059B0133059301230293EB
:102EB000A7E7BAF1000F06D107AAD8F800104846D4
:102EC00008F062FD054608F10408013F002D3AD0E4
:102ED000029AEB6842B1F3B1204608F0F3FE2046B7
:102EE00000F04EFE5D4ACCE7ABB1AE46A368DDF81C
:102EF00014B003F1180CBEE80F00ACE80F00DEF8C8
:102F00000030CCF80030AB682BB96B7CFE2B04BFD3
:102F10002F7C07F1FF37D5F804C0BCF1000F08D0B3
:102F2000AE460CAEBEE80F000FC6DEF800303360D0
:102F30006646A9461FB9069B022B7FF462AF059B2C
:102F4000013305935DE7059B63B9A368DB6A0BB1A9
:102F5000DB683BB9424B434A00930121119B204659
:102F600008F05DFF4FF0010AE4E7002F7FF459AF4E
:102F7000029B53B1204609F0D0FA1423A26811A98C
:102F800056320DEB030008F00DFCB9F1000F0CD028
:102F900099F81130FE2B08D1059B26AA02EB83027B
:102FA00052F8542C0AB101330593A068436A73B9EF
:102FB000002E3FF442AFC369B3423FF45CAF0D96BD
:102FC00000F1180552E7059B132BD1D921E7059D88
:102FD00090F82830A5EB0B05BBB14FF6FF7190F8C8
:102FE0002920FF2A08BF0A469D4202D313449D426E
:102FF0000BD983691C4A0121204608F010FF2046A6
:10300000FFF73AFE6FF0150519E7012108F0C7F93F
:10301000A06800F5437008F0A2F9A36811AA294638
:1030200002EB8B025B6A204698470546A0684FF08A
:10303000FF324FF0FF3300F5437008F08EF90021A6
:10304000A06808F0ACF9FAE681070100F30E010070
:10305000041C01007E0E0100920E0100B00E010062
:10306000DF0E010036100100170F01002DE9F04FAF
:1030700004468068B1B0012100F51E7008F031F9F6
:10308000A3681B7D022B20D100230993A3686068ED
:103090009E6C03681D6909AB0EB310221BA9A847DB
:1030A000099B93B10121A06808F079F9099A1BA93D
:1030B0002046B0470021A06808F071F9A3689B6C16
:1030C000002BE3D12046FFF7E7FDA0686FF0010178
:1030D00000F51E7008F010F931B0BDE8F08F012244
:1030E0000DF12301A847099B002BEED09DF823305A
:1030F000A2681906CAD4517D032900F2B682DFE81E
:1031000011F0040035024D02B4020D2B1BD00A2B26
:1031100019D0B2F878126FF3CA01A2F87812092B0D
:10312000A06852D038D8002BB0D0082B00F079819D
:10313000A3F120025E2A00F28981012108F040F902
:103140009DF82310A6E0D2F87812C1F3C70129B187
:10315000D2F87812C1F3C7018B42E0D1B2F87812ED
:1031600063F3CA01A2F87812A568B5F8501069B9DE
:10317000284608F025F9E06809F0E0F8AF496069F1
:1031800008F0EFF82046FFF787FD7FE72046FFF7BE
:1031900001FEC5F82403F5E71B2B13D07F2BC7D105
:1031A000D0F874329D077FF571AF012108F008F95E
:1031B000A368D3F87432190700F13B81204608F068
:1031C00077FE63E70123437560E7D0F874329B070D
:1031D0007FF55CAF012108F0F3F8A068B0F850303B
:1031E000FF2B3FF453AF0025B0F8522000F15601F9
:1031F00000F5AB700BF036F8A3681BA9B3F85220AA
:103200000BA8134483F85651A268142302F5AB723D
:1032100008F0C8FA0B9914293FF638AF30AB03EB2E
:10322000810343F8545CA368B3F852204AB11344B5
:1032300093F85530202B00F01A82093B042B40F202
:103240001682012940F21682013900200CAB00934E
:1032500001900AAB1BAA08F0C1FB0646002840F00B
:103260000B8213E71B685A465146184603930BF02E
:1032700044F860B9039B1846FDF7E2FA814538BF70
:103280008146002D08BFB8461FFA89F9013501377C
:1032900000E22021204600F001FEF7E60121204651
:1032A00008F0A5FCF2E604907FF6F0AE0A9A30AB87
:1032B00003EB820252F8543CC3461846039308F0CD
:1032C0005DF8049B0590A7F840300495A268594624
:1032D0001832304600F0E0FB039B0BF1010BD0F8F5
:1032E00000A04BB1BAF1000F06D0059A194650461E
:1032F0000BF003F80028E9D1A168BAF1000F58D10A
:10330000A1F840A0049B013B0493DFD14B496069C5
:1033100008F027F8204600F0FDFD0A9B30AA02EBDA
:10332000830353F8540C08F029F8414611AA81464A
:10333000304600F0B1FB0746A0683968FF2200F56F
:10334000AB7008F1010A0AF0EAFFD7F800804FF6E7
:10335000FF7716AA514630460AF1010B00F09CFB9C
:10336000D8B10022A368006803F5AB7313F801CB52
:10337000815C614505D121B14FF6FF7101328A426E
:10338000F4D1B9F1000F01D04A4548DB9742A8BFFC
:103390001746013D012DBFB241D1002F3FF476AE5B
:1033A000A7EB090292B208EB0901204608F07EFD66
:1033B0006CE62348069107F0E1FF069900EB090748
:1033C0004A8FBFB2121A92FBF7F2504692B207919F
:1033D000069207F0D3FF07993F1AB1F84000069A0A
:1033E00000F1010CA1F840C0B0FBF2F102FB1102A8
:1033F00092B2BFB262B9CDF800A0114B114A0621BA
:10340000204608F00CFD3946204600F0A3FB79E782
:1034100053460D4A0621204608F001FDF3E7DA463F
:1034200097E7D0F874329E077FF530AE012107F0A0
:10343000C7FF204608F05BFD28E600BF81070100BA
:10344000D10301004A0F0100AA090100D0F874223B
:1034500092077FF51BAE013B162B3FF617AE01A27C
:1034600052F823F03D360000C1340000C93400009A
:10347000BD31000031360000E93400008D3000001D
:103480008D3000008D3000008D300000F1340000E0
:10349000F93400008D300000233500008D3000002D
:1034A0002D3500008D3000008D3000008D30000083
:1034B0008D300000313500008D3000005D3500009A
:1034C000204608F008FCE1E5204608F0FBFB20461A
:1034D00008F077FB18B99249606907F042FF0121B3
:1034E000A06807F06DFF4DE6204608F0FDFBCDE536
:1034F000204608F004FCC9E5D0F874329F0603D5D5
:103500008849606907F02DFFA368D3F874329E06DE
:1035100003D58549606907F024FF204600F0FAFCD6
:10352000B4E500212046FFF7DFFBAFE50121F9E715
:10353000204608F0C0FB04F1080007F025FF012138
:10354000A06807F03DFFA368D3F874329D067FF5AD
:103550009DAD7649606907F004FF97E5204600F0CD
:10356000C5FB0121A06807F02BFF8FE55B2B02D183
:10357000022353758AE5D2F87422900706D5622B90
:1035800008D14FF0FF31204608F05AFB0022A36813
:103590005A757BE5662BF9D10121F4E700215175BD
:1035A000A268D2F8741289077FF570AD313B1B2BEE
:1035B0003FF66CAD01A151F823F000BF3936000091
:1035C00045360000593600002D3600008D300000D1
:1035D0008D3000008D3000008D3000008D300000F7
:1035E0008D3000008D3000008D3000008D300000E7
:1035F0008D3000008D3000008D3000002D35000032
:1036000023350000E9340000C13400008D30000093
:10361000313600008D3000003D3600008D30000056
:103620008D3000008D3000004936000003235375B3
:10363000204608F047FB29E503235375204608F090
:103640003AFB23E503235375A068D0F8741201F008
:10365000010181F0010160E003235375A368D3F8F1
:1036600074329B077FF512ADA8E5002381E700299E
:103670007FF4EBAD00260A960A9B30AA02EB830387
:1036800053F854AC0025504607F078FEA94683460F
:10369000A8462F4616AA3946304600F0FDF90346E3
:1036A00000287FF4DFAD012DA7687FF4FCAD0A9BF5
:1036B00030AA02EB830353F8540C07F05FFE07F1C6
:1036C000180205464146304600F0E6F906683046E5
:1036D00007F054FE854205D0421B92B27119204674
:1036E00008F0E4FBA068B0F85230034493F8563079
:1036F000202B3FF4D3AD093B042B7FF6CFADD0F8A0
:103700007432DF077FF5C5AD002107F069FE202187
:10371000204600F0C3FB0121A06807F061FEB5E47C
:103720008107010005F600000AF6000000F600001F
:1037300038B5836804461A7D012A2BD1D3F8782244
:10374000510408D5D3F87422520704D40146DA6C28
:10375000C06908F0D3FCA06840F21B62002300F5AA
:10376000437007F0FAFD0546B8B90821204600F07D
:103770007FFA0B49606907F0F4FD2046FFF78CFAE9
:10378000204608F0C7FBA06800F5437007F0E7FD8E
:10379000284638BD6FF08505FAE76FF00F05F7E7AB
:1037A000810701002DE9F04104468068154600F5C7
:1037B0001E70002937D04FF4804107F092FDA368B6
:1037C0000021DD64606803689B689847002851D138
:1037D0002046FFF7ADFF00284CD1274E274FDFF8DA
:1037E000A480A06800F52F704FF0FF324FF0FF3338
:1037F000032106F0DDFB0546A068CDB140F21B6257
:10380000002300F5437007F0A8FD98BB20462B4627
:103810001B4A012108F003FBA068BDE8F04100F558
:10382000437007F09CBD6FF4804107F065FDC6E76B
:103830004FF0FF334FF0FF3200F5437007F08DFD7E
:1038400032460221204607F00AFE3A462946204623
:1038500007F005FE20464246012107F000FE6068A1
:1038600003685B6903B19847A06800F5437007F0EF
:1038700076FDB6E7BDE8F0810FB300006D300000C3
:10388000500F010015B4000010B504460A4907F0B6
:103890005DFE2046094907F059FE2046084907F019
:1038A00055FE2046074907F051FE2046064A0021F2
:1038B00000F0C2FB002010BDDD0C01001B0D01005B
:1038C0007A0D0100CE0D0100680E01002DE9F047D0
:1038D00016460A46254904461F46002507F036FECF
:1038E000DFF89480DFF89490DFF894A0AF422CD9F1
:1038F000725D4946204607F029FE0135102D1DD185
:103900001B49204607F022FE0025DFF87480DFF80F
:103910007490AF4225D9725D4946A2F120035F2B16
:1039200028BF2E22204607F011FE0135102D11D19F
:103930002046BDE8F0470F4907F008BE6A07D5D119
:103940005146204607F002FED0E74146204607F0E8
:10395000FDFDD2E76B07DCD14146204607F0F6FDBE
:10396000D7E74146204607F0F1FDDEE7320F0100C0
:10397000D4030100390F0100D0030100CA03010084
:10398000D2030100C80F01002DE9F043044680680E
:103990008946D0F8201389B09846002961D116468F
:1039A0004FF44A720AF086FCE06808F079FDA068DE
:1039B00000F543700AF084F94FF42F774FF41F7528
:1039C000A06828440AF041FCA068002243190121A4
:1039D0003844103506F0D8FAB5F52F7F07F11407F3
:1039E000EED10025A36902211D60A06865F382065F
:1039F00000F51E7007F075FC5022A36820465A8718
:103A00001822A3681A87216807F0E0FDA368164A08
:103A1000C3F874626068494603681D682346A84776
:103A20000546D0B90122A3681A75D4E90A0100221B
:103A30000023CDE906230E230393109B0495CDE9C3
:103A400001830094094B4FF4006205F087FBA368E3
:103A5000C3F82003616A05F0D5FA284609B0BDE82D
:103A6000F0836FF07705F8E701B40000A537000098
:103A700010B5044613460A460146064801F0CAFB43
:103A800023691B7923B12046BDE8104007F0F1BD42
:103A900010BD00BF8BB6000038B50D46144658B9AE
:103AA000154A164B9B1AB1EB930F02D30024204604
:103AB00038BD52F82140FAE78368002BF6D0104A4F
:103AC00093420AD30F4A934207D21B6821462846E5
:103AD00098472368002BEAD1E8E70B4A934208D3C2
:103AE0000A4A934205D20135142255435C195B59A9
:103AF000F0E71B68F8E700BF98F40000C4F400008A
:103B0000DCF50000E0F50000C4F40000DCF5000086
:103B10008368D3F874329B0603D50249406908F0E4
:103B200032B8704710F600000A1E0DDC0ED042239A
:103B30008168D1F87412890608D5002AB8BF5242AC
:103B40000349406908F01FB84123F1E7704700BFFF
:103B5000C40F01000A1E0DDC0ED044238168D1F889
:103B60007412890608D5002AB8BF52420349406939
:103B700008F009B84323F1E7704700BFC40F010004
:103B800010B5044608F01DF818B9A06808F008F848
:103B900028B160690249BDE8104007F0F4BF10BDCC
:103BA00081070100F8B50546846804F13000B4F8D7
:103BB0005020B4F8521007F0DFFDA868A78EE68EFB
:103BC00007F0EEFF18B10A49686907F0DCFFB74259
:103BD00007D1218E638E2846C91ABDE8F840FFF749
:103BE000B9BFE18EA38E2846C91AFFF79DFFF0E703
:103BF000810701002DE9F0478568064615F156005A
:103C000002D0FCF71DFE80B200230446984695F8CA
:103C10003C70DFF85890B268558FED1BA54209DB68
:103C2000002C1FDD563370691A440F49BDE8F04778
:103C300007F0A9BF1D442A4492F856A082F8568086
:103C4000B26856331A444946706907F09CFFB3685E
:103C50002B4483F856A0B3685B8FDF1BE41B2B4615
:103C60000027D8E7BDE8F087AA090100041C01007D
:103C700008290A4617D8836893F83E10914212D05B
:103C800083F83E208368082AD3F8743205D0990659
:103C900009D50549406907F076BF9B0603D503495E
:103CA000406907F070BF7047CB0F010015F60000A8
:103CB00038B50D4609780446FFF7DAFF6A78072A17
:103CC00011D8A36893F83F1091420CD083F83F209D
:103CD000A368D3F874329B0605D560690249BDE834
:103CE000384007F050BF38BDD40F0100F8B58368E5
:103CF0000546B3F85020002A53D0B3F852000028EC
:103D00004FD05530184403F156060346C41AB34247
:103D1000A4B219460DD311F80179202F3FD01946CE
:103D20000878013B202804D001349E42A4B21946F1
:103D3000F5D9631C4E1C121B194430460AF0A0FA38
:103D4000AA686142B2F8503009B21B1BA2F8503089
:103D5000AB682846B3F850201344002283F856205D
:103D600007F045FFAB68D3F874329A0603D50D49C6
:103D7000686907F008FF33460B4A0821284608F017
:103D80004EF82846FFF7C4FEAB68D3F874329B06A2
:103D900007D568690549BDE8F84007F0F4BE0B4651
:103DA000B4E7F8BD1AF60000AA0901001EF60000EB
:103DB0002DE9F84F04460D4617460AB1FFF7A8FE55
:103DC000D4F80880D8F87432B8F852905B0725D53B
:103DD00009F156004044FCF733FD0646DFF8B88091
:103DE00016F1FF3615D2A368B3F85020A3F852207D
:103DF000A06807F0D5FE28B107B11DB1234960695D
:103E000007F0C1FE69422046BDE8F84F09B207F04D
:103E1000EEBE4146606907F0B6FEE1E74046FCF7BA
:103E20000FFDB8F85060B8F83A3006444844B0FB8B
:103E3000F3F1B6FBF3F399421ED0DFF85080B042A5
:103E4000A368D0DA598F00F1010AB0FBF1F301FB4E
:103E5000130018B94146606907F095FEA06809F1A2
:103E6000010B484490F85630094A2046082107F0D3
:103E7000D6FFD9465046E2E709F1560208EB0203A5
:103E80000821044A204607F0CAFFACE78107010079
:103E9000C80F0100AA090100C919010013B5836800
:103EA0008DF80710D3F874220446D00726D5B3F84E
:103EB0005210B3F850208A4220D0481C9DF80720A9
:103EC000A3F852000B4483F85620A368D3F8741269
:103ED000890711D5D3F87432606913F0040F18BF45
:103EE0002A220A4907F04FFE204607F06AFE18B161
:103EF0000749606907F047FE02B010BD01220DF1CD
:103F00000701204607F098FFF6E700BFC80F010041
:103F10008107010010B504468368094A022107F0B1
:103F20007EFFA368D3F874329B0707D52046FFF7BE
:103F300061FE2046BDE81040FFF734BE10BD00BF53
:103F4000AA0901002DE9F047054690460F460029D1
:103F50006ED000243B5D202B25D0093B042B22D9B9
:103F6000DFF8D0903846FCF76BFCAB6880B2598F15
:103F7000001BA1EB0803984207EB040A15D9504631
:103F8000002610F8012B202A06D0A2F1090CBCF162
:103F9000040F02D80A2A31D0334608EB06029142B8
:103FA0002BD90136EDE70134D4E753460026B04261
:103FB00017D013F8012B04EB06090A2A1BD16869F4
:103FC00007F057FB32465146284607F0C2FE194912
:103FD000686908F013F94146284609F10104FFF722
:103FE000B9FD3919686908F009F968691149BDE82E
:103FF000F04708F003B90136D9E71E46686907F0B3
:1040000038FB32465146284607F0A3FE34443B5D58
:10401000202B0BD0093B042B08D94946686908F0CE
:10402000EDF841462846FFF795FD9BE70134EEE7A2
:10403000BDE8F087810701002DE9F04F0E46002111
:10404000054617460C4689B003AA304601F101081F
:10405000FFF722FDB0B994B127B13A4608212846AE
:1040600007F0DDFE00211E4FDFF87C90DFF87CA01A
:1040700003AA304601F10108FFF70EFD60B909B04F
:10408000BDE8F08F006810B1FCF7DAFB80B2844223
:1040900038BF04464146D7E7036893B11A7882B126
:1040A000D0F804B04A46CDE9004308213B462846F3
:1040B00007F0B5FEBBF1000F05D10A49686908F0A9
:1040C0009DF84146D4E7524628463B46082107F072
:1040D000A6FEA21D92B259462846FFF733FFF0E72D
:1040E000E10F010081070100EE0F0100C203010092
:1040F000F7B50D6806460F46A5B12846FCF7A0FBAC
:1041000084B2094B30460093084A2B46082107F039
:1041100086FE3046E21C796892B203B0BDE8F040FA
:10412000FFF710BF2C46ECE7DD0F01004B0F01003D
:1041300010B507490446FCF771FB38B10549204624
:10414000FCF76CFBB0FA80F0400910BD0120FCE7E1
:10415000E40F0100E70F010010B583680446D3F8AF
:1041600074329B0603D50649406908F05AF850227C
:10417000A36800205A871822A3681A8710BD00BFC1
:1041800022F6000008B5836902491A6807F0DEF9D3
:10419000002008BD961001002DE9F3410D490746A6
:1041A00007F0D4F900220C4C0C4DDFF83480AC42FF
:1041B00002F1010603D3002002B0BDE8F081636A7A
:1041C00092B200934146A368384607F0BFF93034F5
:1041D0003246ECE7F50F010068F4000098F40000A7
:1041E0000D10010008B5024907F0F0F9002008BDE4
:1041F0008207010073B5044600250D4EA2680DF13B
:10420000060302F5AB720121E06808F09AF8BDF8E8
:104210000600A36840B12A4603F5AB733146204639
:1042200007F094F90135E9E783F8560102B070BD53
:104230005210010010B5044607F00CFA034902467B
:10424000204607F083F9002010BD00BFFD090100E2
:1042500010B583680446D3F874329A0603D507492B
:10426000406907F0DEFFA368D3F874329B0603D5DC
:104270000349606907F0D5FF002010BD29F6000052
:104280002EF60000022907B50BD153680C490093A4
:1042900012680C4B07F076F96FF0150003B05DF86B
:1042A00004FB8368084AD3F87432084913F0020FFC
:1042B000074B08BF1A4607F049F90020EEE700BF98
:1042C000331001001E1001008E0501003C1001009A
:1042D0002F040100F0B5012985B004460BD05368C6
:1042E0005B49009312685B4B07F04CF96FF01505C2
:1042F000284605B0F0BD8368D3F874329A0603D51A
:104300005549406907F08DFF00256FF0F9012046FF
:10431000FFF70AFCFA212046FFF71CFCA0684FF4C7
:104320008072294600F5AB708DF80B5009F0C2FF82
:104330004A49606907F075FF606907F09AF94FF420
:104340007A766068012203680DF10B011F6903ABE7
:10435000B847039B53B9013E4FF47A70B6B209F0E7
:104360006FFC002EEDD16FF0850533E09DF80B203A
:10437000A3681B2A5ED093F856111B29E1D1522A5B
:1043800058D11D44002385F85631A06890F8572174
:104390005B2A37D1022600F5AC7111F8012B0136EA
:1043A0003B2AB6B231D1B6F5807FDCD0002206F5CB
:1043B000AB71014411F8015B002D30D1FA2A28BFFE
:1043C000FA22FA2B28BFFA2380F85651A1684A87AF
:1043D000A2681387A368D3F874329B0603D52049DB
:1043E000606907F01EFF002D82D05022A3681D498E
:1043F0005A871822A36820461A8707F0B5F86FF08D
:10440000070575E780F85631ADE703EB830302EB50
:104410004303303BB6F5807F9BB2BED1A3E702EBEE
:104420008202013605EB4205B6B2303DFF2EAAB23C
:10443000C0D998E72B440135ADB2092D83F8562138
:104440007FF67FAF0022A36883F856218BE700BF79
:10445000331001001E10010034F600004D10010061
:1044600038F600005C1001002DE9F04F824689B05B
:1044700015468B4621B1104608F018F800285BD18C
:10448000032455E04C463DE0294607F5AB7009F0A2
:1044900065FF8046002853D0FCF7D2F982B2601C39
:1044A00001324146404409F0EBFE2246494640466F
:1044B00009F0D8FE4FF0200308F80430B7F8543064
:1044C000013601331C44A7F85440002401994B1CC9
:1044D00003AA58460193FFF7DFFA8046F0B10022A5
:1044E000D8F80010284608F0D8F90028EED1D8F8FE
:1044F0000090DAF80870B9F1000FC3D04846FCF715
:104500009FF984B2B7F854302344FF2BBCDD2B460F
:104510000C4A0321504607F082FC012446B1DAF828
:1045200008002A4600F1540100F5AB7007F005FAC7
:10453000204609B0BDE8F08F002602243146C6E7C8
:104540000224EBE7631501002DE9F843064600AFAE
:104550000C46002943D02C4D2B685A073FD0D1E997
:104560000001E8468AB0A3686A464FF00509DFF803
:10457000A8C0C2E90713C2E905C042F8109F002392
:104580004FF421512846FDF751FB2B68C5465B07C8
:1045900025D0D4E903018AB063696A46DFF87CC09C
:1045A000C2E90713C2E905C042F8109F002328465C
:1045B0004FF42151FDF73AFB2B68C54658070ED042
:1045C000E3690121114A284606F066FD2B68590768
:1045D00005D0A3690E4A0121284606F05DFD012E93
:1045E0000AD1EFF3058308480268520704D0094A4C
:1045F000103B314606F050FD2146304604F0DEF80F
:10460000BD46BDE8F88300BFE80200201316010094
:104610002216010050160100B5150100E415010035
:1046200030BFFFF7FDBF00BF054B5A699B689A4238
:104630001FBF044A536843F080535360704700BF64
:10464000E414002000ED00E038B5314C2368590730
:1046500003D03049204607F07BFF2F4DAA6A920114
:1046600008D523685B0703D02C49294807F070FF61
:104670001E2000E01D20AB6ADD0107D52368590725
:1046800003D02749224807F063FF1F20224DAA6A62
:10469000D20207D523685B0703D022491C4807F0E4
:1046A00057FF0220AB6A1D0307D52368590703D0C3
:1046B0001D49174807F04CFF2120174DAA6A5203E5
:1046C00007D523685B0703D01849114807F040FF5E
:1046D0002220AB6A9D0307D52368590703D01449EC
:1046E0000B4807F035FF23200B4DAB6ADA0307D5E3
:1046F00023685B0703D00F49054807F029FF2420F2
:10470000AB6A6FEA03436FEA1343AB6238BD00BF85
:10471000E8020020C317010000ED00E0DB170100F4
:10472000EE170100081801003218010050180100AE
:10473000751801008F180100F8B5374C074623683B
:104740000E465A0703D03549204607F001FF344D85
:10475000AA6AD30408D52368580703D031492E48E4
:1047600007F0F6FE172000E01620AB6A190507D502
:1047700023685A0703D02C49274807F0E9FE182080
:10478000274B9B6A9B050CD523685D0703D02749FF
:10479000214807F0DDFE224A936B926A10041FD471
:1047A00019201F4DAB6A5A0507D523685B0703D054
:1047B0001F49194807F0CCFE1A20AB6ADF051FD548
:1047C0002368590703D01B49134807F0C1FE1B207B
:1047D000134A936A43F47F43936200233370F8BD16
:1047E0002268510704D0144A01210B4806F054FCFA
:1047F000002FD5D00A4A936A23F400439362CFE78F
:10480000AB6A9A04E4D523685B0703D00B490248DE
:1048100007F09EFE1C20DBE7E80200206316010083
:1048200000ED00E0791601008A1601009D160100D6
:10483000CB160100E6160100B6160100FE160100B7
:10484000F8B5374C074623680E465D0703D0354957
:10485000204607F07DFE344DAA6AD00608D52368AD
:10486000590703D031492E4807F072FE112000E0AD
:104870001020AB6A1A0707D523685B0703D02C49C1
:10488000274807F065FE1220274B9B6A9D070CD531
:104890002368580703D02749214807F059FE224AC8
:1048A000536B926A11062BD413201F4DAA6AD307AB
:1048B00007D523685F0703D01F49194807F048FE52
:1048C0001420AB6A9D0607D52368580703D01B49FF
:1048D000134807F03DFE1520134B9A6AD10658BFC6
:1048E0009A6A9A6A920642BF5A6A22F400525A623F
:1048F0000D4A936A43F0FF03936200233370F8BDBF
:104900002268520704D00E4A0121054806F0C4FB74
:10491000002FC9D0044A936A23F080039362C3E74F
:10492000E80200202D17010000ED00E04317010010
:104930008A16010076170100A4170100FE16010077
:104940008E1701002DE9F0438BB07B4B00AFD3F8FD
:1049500004904FF00008C9F3080688F31188BFF3EC
:104960006F8F02F07F43B3F17F4F0BD102F00C0346
:10497000082B0AD17148036813F0070503D070496A
:1049800007F0E6FD45462C4605E0140747BF0C46F8
:104990004546044601250023FB71F31E092B00F256
:1049A000A680DFE803F005979A94A4A4A4A4A49D8C
:1049B000624B1A68984612F0070F03D061491846F7
:1049C00007F0C6FD4FF000095B4987F80790CE6AF3
:1049D00016F002060AD0D8F800305A0701D1002399
:1049E00045E05949554807F0B3FDF8E7CB6A002B7D
:1049F00005DAD8F800305B07F1D05449F2E7CB6A0A
:104A00005E00ECD5D8F80030580703D050494B4829
:104A100007F09EFD484BA1695A6942F480725A61C1
:104A2000BFF34F8FBFF36F8F5A6931F8021C22F426
:104A300080725A61BFF34F8FBFF36F8F4DF60272D2
:104A4000914209D09A6A12F0FF0F32D00120F91D6D
:104A5000FFF7F6FE03460AE0D8F80030590705D004
:104A600023683C4A0121354806F016FB2368FA7991
:104A7000DAB907F1080604F1200C324620686168B3
:104A8000083403C264451646F7D17A6A002D4ED029
:104A9000C2F3080121B96FEA52226FEA42227A6218
:104AA00007F108011846FFF74FFD2C37BD46BDE85A
:104AB000F0839A6A12F47F4F04D00120F91DFFF7AA
:104AC0003BFEC7E79B6A1B0C1B04002B87D0FFF73C
:104AD000BBFDBFE7F91D0020BAE7F91D0020EEE796
:104AE000164803685A073FF47AAF1B497BE713481F
:104AF00003685B073FF473AF184A19F4F87FE84680
:104B00008AB0174B18BF13466A461649103EC2E9D1
:104B100005134FF400731384134BD66142F8103F12
:104B200000234FF41151FDF781F8C54657E722F4F1
:104B3000FF7222F00102B2E700ED00E0E80200207F
:104B4000E8180100131901002A1901004B1901008E
:104B5000591901007819010094190100CF180100BA
:104B6000BA180100B819010004000001064B5A6987
:104B700042F010025A615A6942F480625A615A69DD
:104B800022F008025A61704700ED00E0EFF3088060
:104B9000EFF3098101B57246FFF7D4FE01BD00BFF6
:104BA00002F02EF9202080F311880B484FF0AA0163
:104BB0004FF4006209F074F807484FF400614018A0
:104BC00080F30988EFF314800221084380F31488EE
:104BD000BFF36F8F00F08EF8F0250020084B9B6824
:104BE00083420BD1EFF3058343B1064B5A6842F081
:104BF00080525A605A6A22F400425A6204F0F8BDA8
:104C0000E414002000ED00E014498A684FF0300001
:104C10001044EFF3098C80E8F01F202080F3128805
:104C2000BFF36F8F0E4F4FF000664A698A603E6097
:104C3000D2F8AC000023C2F8AC3080F3118802F146
:104C4000300090E8F01F8CF3098802F1000004B5F1
:104C500007F086FCBDE8044070470000E414002023
:104C600004ED00E01EF0040F0CBFEFF30880EFF33B
:104C70000980816911F8021C0229FFD001B5724632
:104C800007F05BFC01BD00BF03B2002B08DB012273
:104C900000F01F0002FA00F0024A5B0942F823000C
:104CA000704700BF00E100E0054B420953F82220A5
:104CB000012300F01F0003FA00F01040704700BF0E
:104CC00000E100E003B2002B01F10101A8BF03F1F4
:104CD00060434FEA4111B8BF054BC9B2ABBF03F502
:104CE000614300F00F0083F800131954704700BFB0
:104CF00014ED00E00F4A08B50F4B22F07F029A60D6
:104D0000BFF34F8FBFF36F8FD3F8882022F4700268
:104D1000C3F88820EFF3148323F0040383F314888B
:104D2000BFF36F8F03F04AFE04F0F4FE00F044F886
:104D300003F088FE0000000000ED00E042F8203C97
:104D4000009B0B4942F81C3C019B21F0010142F8F9
:104D5000183C029B42F8081C42F8143C4FF0807348
:104D600042F8043C0023203A0265C0F8AC3070479A
:104D700069A7000000B50A4B0E4698601546D0F8AA
:104D80009C3083F30B882C4686F309880020054B62
:104D900098472046002100220023034C204700BFF3
:104DA000E41400206BC5000069A700001022014B2D
:104DB0001A61704700ED00E00023202040F20F123E
:104DC00010B5044CE1180133934281F80003F9D186
:104DD00010BD00BF00E100E008B5EFF30583064A0F
:104DE000103B02EBC30152F8330049688847BDE825
:104DF0000840FFF719BC00BF08EA00001FB5094CC6
:104E0000094A23460121094800F014F900230393BD
:104E1000074B0121E41A01A80193029400F014F950
:104E200004B010BD00F0022000000020B0FA000025
:104E30002003002010B50C7A0B6823F01F0204F049
:104E40001F031A43CB68640923F01F03044943EA94
:104E5000440343F001038860CA600B6110BD00BFCA
:104E600090ED00E010B50B4B04461B68C3F307231D
:104E7000013B98420BD9084803685B0704D0074AF6
:104E80002346012106F008F96FF0150001E0FFF755
:104E9000D1FF10BD90ED00E0E4020020151A0100E2
:104EA0002DE9F04F8846144606460027544D85B03C
:104EB000474529DAD6F80490B9F1000F4BD0B9F183
:104EC0001F0F1BD919F01F0F18D1D6F800A01AF028
:104ED0001F0F13D1504607F06BFB834609EB0A0006
:104EE000013807F065FB834518D06FF0150B454876
:104EF00003685B0706D0444A5B460BE04148036801
:104F00005A0705D16FF01504204605B0BDE8F08FB3
:104F10003B463E4A012106F0BFF8F3E71BF1160FAE
:104F2000E5D05C45E3DDC5F808B0E968C5F808B030
:104F30002B6921F01F0143F01F0AD6E900321A4401
:104F4000994202F1FF391BD1CA4507D131465FFAB8
:104F50008BF007F036FB01370C36A9E73146C5F870
:104F600008B0EB6822F01F0203F01F031A43EA6047
:104F7000E0B207F026FB10F1160FC3D0441CEAE79D
:104F8000013BCA45E0B223F01F03C5F808B006D1C3
:104F90002A69314602F01F0213432B61E9E72969B0
:104FA00001F01F010B432B61314607F00AFB10F1A2
:104FB000160FA7D0C5F808B0EA689DF808300AF1C6
:104FC000FF3A62F304038DF808302B699DF808203E
:104FD0005B0863F347128DF80820D6E900321344CA
:104FE000009323F01F035344A3EB0903013023F084
:104FF0001F036946C0B20393FFF734FFBBE700BF4E
:1050000090ED00E0E4020020F2190100CF19010048
:105010000522034B5A60BFF34F8FBFF36F8F70476A
:1050200090ED00E0BFF35F8F0022014B5A607047A4
:1050300090ED00E010B5034C2278FFF731FF2070AF
:1050400010BD00BF461500202DE9F74F254C8A46BC
:1050500080460027A1464FF0140B234D57451ADA1E
:10506000D8F804300193002B36D0D8F80010084649
:10507000009107F09DFADDE9001306465818013843
:1050800007F096FA8642194A08D014235F436FF05E
:10509000150349F8073003B0BDE8F08F16F1160F7D
:1050A0002660F8D01378B342F5DD0BFB0793AE60B2
:1050B000AE60E868197B60F3040119732969187BF5
:1050C000490861F347101873EB6823F01F0363600E
:1050D0002B6923F01F0323610137143408F10C08F6
:1050E000BCE700BF9812002090ED00E046150020BC
:1050F0002DE9F043424C434E22683768C2F3072241
:10510000974287B078D80025FFF78CFF3E4B23638A
:10511000AF4217D13D4D01A82F70FDF713F80026BF
:1051200007464FF04109DFF8E880B74212D100216D
:105130002B782268C2F30722934259DBFFF768FFFE
:1051400000203FE07168284601EB0511FFF772FE71
:105150000135DDE7DDF804C031010CEB0103DA684D
:1051600002EA0802B2F5001F15D0B2F5800F2CD06C
:10517000B2F5801F3AD158685CF801209B68CDE9F0
:1051800002022122013B20F01F010B4423F01F03E8
:105190008DF810200DE058685CF801209B6820F025
:1051A0001F01013BCDE902020B4423F01F038DF8E0
:1051B000109002A928780593FFF754FE002812DA10
:1051C0006FF0150007B0BDE8F08358689B685CF885
:1051D0000120013B20F01F010B44CDE9020223F026
:1051E0001F030622D4E72B7801332B7001369CE78E
:1051F000A360216101339CE74FF0FF30E2E700BF7D
:1052000090ED00E0BCFA0000AAFF44004615002023
:105210000000F0FFF0B587B007460E4614460021A7
:10522000102268461D4609F045F802238DF8023029
:10523000054B2A46214668460193CDE9047604F0E1
:1052400083FF07B0F0BD00BFF9C5000008B5024BF1
:105250001B689847002008BDAC120020034B044A8D
:105260001860937843F0020393707047AC120020EB
:105270004C00002008B50649064821F00701C1F19D
:10528000005202F53C3205F0E3F9002008BD00BFF2
:10529000F7330020B012002008B500F0B9F8012261
:1052A00000230949C0E9002241610849C0E90233ED
:1052B0000A60074903610A60064A1360064A1360E0
:1052C000064A136008BD00BF820701007400002079
:1052D00078000020C0120020C4120020BC12002060
:1052E0002DE9F04107460E46154600F091F8C368D7
:1052F00004461BB943691A78002A41D10023E360B0
:105300006368BB4256F8232008DB334B63612046B9
:1053100000F064F84FF0FF30BDE8F081511C61618E
:1053200092F80080B8F12D0FEFD1911C6161517896
:105330002D29A16004D192786AB901336360E4E752
:1053400049B9254B41466361284608F0C9FF00284A
:10535000DDD0C4F80880D4F808802846414608F01B
:10536000BFFFB8F13A0F636900D070B91B7813B969
:10537000636801336360204600F030F83F20CBE7DC
:105380005A1C42611B788360E5E742783A2A0BD0C9
:10539000002222611B7813B96368013363602046E1
:1053A00000F01CF8A068B7E719780B4A11B1236127
:1053B0006261F1E7636801339F42636002DD56F882
:1053C0002330F4E762612D7820463A2DD4D100F0E5
:1053D00005F82846A0E700BF820701000268074BD6
:1053E0001A604268064B1A608268064B1A60C268EF
:1053F000054B1A600269054B1A6070477400002063
:1054000078000020C0120020C4120020BC1200202E
:10541000004870475C00002008B5264A264B1A60F9
:1054200000F068F841F6F871244AD2F8240601EA3F
:105430005031C0F30803142083F48073883300FBD9
:105440000313590A13F4807F13464FF47A601C4A01
:1054500018BF0131C2F80419D3F82016C1F30803AC
:10546000C1F30941414342F6041083F4807303F20F
:10547000172300FB03134FF47A701B0AB3FBF0F100
:1054800000FB1133B3F5FA7F28BF01310D4BC2F891
:105490001C171B681C2B07D134220B4B1A600B4ABC
:1054A000136823F4002313600122054B0020C3F886
:1054B000002608BD0020A1071001002000C0FF0049
:1054C0000000125040C3FF00240612503C06125048
:1054D00048B1054B1A68054BB2FBF3F2044B50433D
:1054E00043F00103184770471001002040420F00AD
:1054F00040F600000122024BC3F80424704700BFAD
:10550000002008E0084B70B5C31A0D4607499B10F0
:10551000044659434022064807F0CBF92B46014682
:105520002046BDE870401847D8120020B76DDBB6A2
:105530002CE8000010B5EFF31184202383F31288C8
:10554000BFF36F8F084A136823F00201DB07116075
:1055500005D4012008F01BFA0122044B1A6084F3E1
:105560001188BFF36F8F10BD281300200CE010507E
:1055700070B500220121044640F20510FFF7A2FB9E
:105580000F4801F045FD0F4B984215D101F050FD39
:1055900026690D49304605F0B3FB00280BDB0125D9
:1055A00035642469084904F11C0005F0A9FB0028B2
:1055B00001DB0020E56470BD6FF00400FBE700BF75
:1055C000995600000000AD0B08FB00000C23104AA8
:1055D000014603FB0023002030B4D3E90E52986348
:1055E000EFF31180202484F31288BFF36F8F1C6CBB
:1055F00004F0C00444F002041C6480F31188BFF37B
:105600006F8F1DB12B4630BC0248184730BC704725
:10561000D81200202CE8000010B4EFF311802022F3
:1056200082F31288BFF36F8F17490B6843F00204AF
:1056300013F001030C6017D0144BD3F80C3413F49F
:10564000803311D0EFF3118182F31288BFF36F8F93
:105650000F4A136C03F0C00343F00203136481F399
:105660001188BFF36F8F012380F31188BFF36F8F11
:105670001BB1002010BCFFF7A9BF0120054B18602B
:1056800010BC01F0F1BC00BF2813002000E0105056
:10569000D812002008E0105010B1012804D0704743
:1056A000034B1B6C5B0701D1FFF790BF704700BF36
:1056B000D81200207FB500220123CDE9022304ABDC
:1056C000CDE90433094A6B46CDF800D0CDF804D0BB
:1056D00007F02DF9002805DB43F609520023684640
:1056E00003F028FB07B05DF804FB00BF29C90000E8
:1056F0001A4BF0B4C21A0D469110194A4A43D2B25D
:10570000EFF31186202181F31288BFF36F8F0C24F1
:1057100004FB0234216C01F00707012F11D1402155
:105720002164002186F31188BFF36F8F91B90C219A
:105730004A430C491344C3E90E150B4BF0BC9B586C
:10574000184701F0C001402914BF4FF0FF316FF03E
:105750007701E7E72B46F0BC184700BFD8120020BE
:10576000B76DDBB60BC90000F0FA00002DE9F84375
:10577000012206463549D1E8EF3FC1E8E02F002875
:10578000F9D133B9324933484B60CB608A6005F0B8
:10579000CAFA731E012B2BD8012E06D12E4BD3F83B
:1057A000503403F00303012B22D008F0D5FA18B9C6
:1057B0002A4B1B78002B41D1EFF31189202383F36F
:1057C0001288BFF36F8F0124234D254FA846D5F8CB
:1057D0004C24D5F84C34D2030CD503F00303012B31
:1057E00001D0012E06D12CB389F31188BFF36F8F3E
:1057F000BDE8F883CCB1484606F0CBFED5F840347E
:1058000013F0FF03E3D13A68002AE0D03B603B6825
:1058100020210123134AC5F84034C2F8A01102F137
:10582000E242A2F1F0121360D1E70021202008F03B
:1058300048FBE3E70423C8F80433D9E70422064B06
:105840000446C3F808238146BEE700BF2C1300209E
:10585000C8120020F412002000E01050AC15002007
:1058600008E1105000E100E008B5074808F0EDF944
:1058700038B10648FFF7F2FC0448FBF777FD00203B
:1058800008BD6FF01200FBE7B8E800009158000077
:105890000A2838B50446074D04D1AB680D215B6872
:1058A00028469847AB68E1B25B68024898472046B3
:1058B00038BD00BFB8E800004309022B70B503D023
:1058C000012B16D0BBB170BD0C4C2369596800295F
:1058D000F9D0012600F01F000D6886408A6832402A
:1058E00002D04B6820469847002DECD029462D6801
:1058F000F4E7034CE9E7034CE7E700BF64E8000086
:1059000048E8000080E8000038B545682B690BB90D
:10591000002038BD1035284602F064F804460028FF
:10592000F6D10146284602F019F80B4B984210D1E7
:1059300022462846094901F0E5FF22460121DB20E5
:10594000FFF7C0F92246012140F20D10FFF7BAF926
:10595000DEE76FF00400DCE70000AD0BB958000093
:105960002DE9F04340F206364568D00648BF4FF0B7
:10597000030C2B7B02EA060658BFC2F3401C87B01B
:1059800001F01F07B6F5807F144647EA43178DF8EC
:1059900003C044D007D8022E16D0062E41D09EB1A7
:1059A0006FF0150038E0B6F5007F3CD004D8B6F5AE
:1059B000837FF5D1092607E040F20222964234D0D7
:1059C000B6F5407FECD105260123220303FA01F14D
:1059D0002DD56B685960286970BB07F01F027F09DD
:1059E000022F77D83D4B84F4803153F82730C1F330
:1059F000004103EB8202D2F88030C4F3404423F428
:105A0000706344EA410423F00F031C4344EA8C040E
:105A100044EA0624C2F8804007B0BDE8F0830126BE
:105A2000D2E70826D0E70426CEE70626CCE76303B4
:105A300044BF6B689960CEE710350DF1020239461C
:105A4000284601F06DFF14F4403F81460DD13946E0
:105A5000284608F060F8224B994504D19DF80210C1
:105A6000284601F0CDFF0020D6E74FF0000801AB3B
:105A700003AA39462846CDE90438CDE90188CDF896
:105A80000C8001F0A1FD164B984289D114F400332B
:105A900015D09DF8033084F48034C4F300448DF8AD
:105AA0000E3003AA4346394628468DF80C608DF81F
:105AB0000D4001F089FE0A4B9842CCD070E7CDE949
:105AC000043303AA0DF1030339462846039301F07A
:105AD0007BFDF0E7203250F82230FFDE2CFB000087
:105AE0000000AD0BF0B5406801F01F04057B87B0E6
:105AF00044EA45140569002D62D0B2F5001F00F19B
:105B0000100506D12146284608F007F8002007B006
:105B1000F0BD002701AEB2F5800F019777603AD152
:105B2000B3F1007F0CBF042305238DF8043000235C
:105B3000CDE904630393836823FA01F111F00101B5
:105B40001BD1B2F1A07F18D1620904F01F03022A11
:105B500003F120033AD81F4951F8222052F823308C
:105B6000DB070AD40DF1030632462146284601F030
:105B7000D7FE194B984219D0029603AA214628460F
:105B800001F022FD154B98421DD1012221462846E5
:105B900001F04AFFBAE7B3F1C06F05D0B3F1007F5F
:105BA0000CBF02230123C0E70323BEE7314628468A
:105BB00001F030FF094B9842DED06FF00B00A6E7F2
:105BC0006FF08500A3E76FF01500A0E751F82330D0
:105BD000FFDE00BF2CFB00000400AD0B0000AD0B8E
:105BE000B0B500AF254C204608F02FF8034600283A
:105BF00035D123480268520711D021686C4688B01D
:105C00006A46204DC2E905514FF4007191831E4947
:105C100042F8101F4FF4E251FCF708F8A5466FF068
:105C2000120519E0164803685B0715D023686C4617
:105C30008AB06A461549C2E905130123C2E907354E
:105C40004FF400739384124B42F8103F00234FF43B
:105C50003151FBF7EBFFA5462846BD46B0BD226992
:105C6000A1681368204623F0020313600B6800222A
:105C700001219847051ED5DB0025EDE780E80000EF
:105C8000C8020020DE1A010003000001F51A01001D
:105C9000050000018068054B984205D2044B9842EC
:105CA00034BF00200120704700207047E0F2000060
:105CB000C8F2000010B50C46064905F028FF002385
:105CC00028B102682260E360C4E9013310BD1A46BE
:105CD000F8E700BF955C00002DE9F3414FF00008A4
:105CE0005668074630461446CDF8048005F013FF89
:105CF000054648B938463246174905F043FC6FF06F
:105D0000120002B0BDE8F0810A224146A06808F006
:105D10003CFBAB6841005B6801F00E04B3B101A924
:105D20002846984790B9019921F00E01214301912D
:105D3000AB6828461B68984700280ADA384632467E
:105D4000064905F01FFC6FF00400DAE744F010018B
:105D5000EDE70020D5E700BFC11B0100E31B0100F8
:105D60002DE9F04F044685B05068904605F0D3FE0B
:105D7000814650B92046D8F80420274905F002FC96
:105D80006FF0120005B0BDE8F08F2449204605F001
:105D9000DDFB10270026DFF898A0A7F110052B46A1
:105DA00052460821204605F0B6FBDFF888B02B1FCD
:105DB000732B05D95A460821204605F0ACFB16E0A6
:105DC0000DF1030301930023029302238DF80C309D
:105DD0000122ABB201A9484606F0ECFED0B92B4631
:105DE0000F4A0821204605F096FB0136F6B2013530
:105DF000AF42DCD10B492046103705F0A7FB902FAE
:105E0000CBD12046D8F804303246074905F09EFB36
:105E10000020B7E7054ACEE7C11B0100691B01005E
:105E2000CA03010081070100A91B0100A51B010095
:105E30009E1B0100D003010038B50546506814468A
:105E400005F069FE40B962680B49284605F09AFBE7
:105E50006FF01204204638BD83685B694BB19847E8
:105E600004460028F6D022460449284605F08AFB5D
:105E7000F0E76FF05704F6E7C11B0100461B010075
:105E80002DE9F04F064689B008468A4690461D46E1
:105E90009DF84C4005F03FFE074648B93046524653
:105EA000294905F06FFB6FF0120009B0BDE8F08FD3
:105EB00010220021404608F068FA10220021824694
:105EC000284608F062FA8346284606F082FE9BFACE
:105ED0008BF303932318102B054606DDC0F1100247
