:100000002037002031760000551F01001D760000CA
:100010001D7600001D7600001D7600001D76000094
:10002000000000000000000000000000A1770000B8
:100030001D76000000000000397700001D760000EA
:100040003D7900003D7900003D7900003D790000D8
:100050003D7900003D7900003D7900003D790000C8
:100060003D7900003D7900003D7900003D790000B8
:100070003D7900003D7900003D7900003D790000A8
:100480002DE9F04F8DB0DDF858A0DDF86080DAF886
:100490000440D8F80450661E18BF012691465268E1
:1004A00008966E1E18BF01260390501E18BF01202B
:1004B0008E461A99079049680996012914BF0120B0
:1004C00000200A9069D0002959DD0024CDF810E001
:1004D000A4462246A346A6460B9105931A9B1F6885
:1004E000012F4FD03E46002E3DDDCDE901C60694DA
:1004F0004E463C4600255746F146C246904601E02E
:100500001A9B1C683168049B01FB09F153F8210018
:100510003968059B01FB08F153F8211001F008FF31
:100520008446019BDAF8000003FB04F400FB0BF0A7
:10053000199B013553F82410179B644653F820008B
:1005400001F0F6FE0146204601F0EAFD039B18602B
:10055000029BAB42D4D14246CE46D046B146BA46C3
:10056000DDF804C0069C0A9B01349C44099B9B4413
:10057000089B1A44079B9E440B9BA342AED10DB02F
:10058000BDE8F08FD8F80060012EACD1DAF8006039
:10059000012EA8D1D9F80060A5E7012D04D1012CC6
:1005A00014BF214611468EE729468CE72DE9F04F0E
:1005B00095B0209CDDF8889024680B93D9F8003022
:1005C000013C18BF0124013B18BF0123DDF890A0B6
:1005D0000594209C0693DAF800306568013B18BF4B
:1005E00001236F1E18BF01271446D9F804200D9768
:1005F000571E18BF0127CDE90901DAF804000E974C
:10060000471E18BF01270793269B0F97D3E90013B6
:100610004F1E18BF0127012B089714BF0127002781
:100620001E9E109796F90070139794F90070129718
:1006300000F08780002B40F3818000240129A6462A
:10064000CDE900440294119365D00A46002A4CDD9E
:100650004FF000080C944746C346464645460C46B4
:10066000CDE903E201E0269B1C68209B0135196857
:10067000029B01FB0361059B1E441F9B53F8210055
:10068000D9F80010039B01FB03B1069B9B44219BFF
:1006900053F8211001F04CFE8446009BDAF800006C
:1006A00004FB0384089B9844259B53F82410019B6A
:1006B000644600FB0370079B1F44239B53F82000F4
:1006C00001F036FE0146204601F02AFD0B9901F0AB
:1006D0002FFE0A9B196801F023FD099B1860049BFB
:1006E000AB42C0D1DDF80CE00C9C009B109A0134A9
:1006F000134400930F9A019B134401930E9B0D9A90
:100700009E44029B13440293119BA34216D0269B46
:100710001968012999D1DAF80020012A96D1D9F86F
:100720000020012A92D1209B1A68012A8ED1139BA6
:1007300012981A46012B08BF024687E715B0BDE89C
:10074000F08F01280DD1012A01D0134672E7012D47
:1007500009D196F90130012B7FF46CAF94F9013087
:1007600068E7034666E72B4664E700BF2DE9F04FD4
:1007700017689FB080460A915068394615461C4656
:1007800001F0CCFC002306464146384614931396EC
:1007900001F080FFD5F820934146002857D0484605
:1007A00001F06EFF4146002840D0384601F05EFF60
:1007B000002840F0628100220123CDE90C23289B10
:1007C000DDF828A01968504601F0B2FD0346289ACA
:1007D000504651680B9301F0ABFD616801F0A0FC3D
:1007E000D4F800B0824659460B9801F099FC0146B6
:1007F000504601F093FC39468246404601F08EFC9B
:100800000146504601F094FD314601F045FE59463F
:1008100001F086FC0B9901F083FC0D9B1490002BDA
:1008200047D10C9B002B76D1149A28E0384601F072
:100830001DFF002800F01D814146484601F034FFAD
:1008400000230D93C31A18BF01230C93B7E7384652
:1008500001F00CFF68B14146484601F025FF40B168
:100860004146484601F0F8FE002854D001230C937D
:100870001FE04146484601F003FFC0B900220023B3
:10088000CDE91633CDE91A33CDE91C33CDE9183360
:100890001192ADF83C30ADF83830404601F08EF999
:1008A000002840F0E28011981FB0BDE8F08F0023CF
:1008B0000C93289B0A98D3F8201301F039FDD4F843
:1008C00020A30B90514601F02BFC289B8346D3F8C4
:1008D0001C130A9801F02CFDD4F81C1301F020FC25
:1008E0000146584601F01AFC0246494640469146E8
:1008F00001F014FC0146484601F01AFD314601F0B2
:10090000CBFD514601F00CFC0B9901F009FC0C9B4E
:100910001490002B88D03946404601F0FFFB314649
:1009200001F0BAFD11900EF0BFFE296806460125C0
:100930004046CDE91655119601F0F0FB139901F0F0
:10094000ABFD314601F0EAFB01464FF07E50CDE9A8
:100950001A55109101F0E2FB0346684930461393A3
:1009600013F01AFF4FF07E51CDE91C55CDE9185513
:100970001190054601F0D4FB01F0B6FE6FF0404740
:1009800006463E4454F826904FF080412846CDF864
:10099000549001F0C5FB01F0A7FE169B074454F8E4
:1009A0002740012B129403D1179B012B00F0888064
:1009B0001AAB16AF10AE18AD12AC00931CAA13AB55
:1009C00015A914A80497039602950194FFF758FD02
:1009D000012240F2011C169BDDF844A00B93179BEB
:1009E0004FF07E515046ADF83CC0ADF838C0CDE96F
:1009F00018220C931C921D9201F092FB01F074FEE0
:100A00006FF040490246289B4A4453F822204FF099
:100A100080415046159201F083FB01F065FE289B52
:100A2000484453F820200B9BDDF850B0012BCDF843
:100A300044B012922CD01AAB1CAA0493029213ABAE
:100A40000EAA15A8CDE90020039311A8CDE90767E8
:100A5000CDE905450A9B14A90FAAFFF7A7FD40465B
:100A600001F0ACF800283FF41EAF00201FB0BDE835
:100A7000F08F0023CDE90C33A1E64146484601F052
:100A800013FE01230D93031E18BF01230C9396E65A
:100A90000C9B012BCFD11399159801F049FC1099AB
:100AA0000446129801F044FC0146204601F038FB50
:100AB0000A9901F03DFC594601F032FB1190ECE639
:100AC0001399484601F034FC0346109920461C4611
:100AD00001F02EFC0146204601F022FB289B8346B4
:100AE00053F8262053F827301592129340F2011341
:100AF0001490ADF83C30ADF83830CCE700004743F7
:100B00002DE9F04F87B01C46009191699046019005
:100B100001F004FB04F580560546D6F83C0ADDF8E2
:100B200040B001F04BF80746D6F8400A01F046F80D
:100B3000AFB9A0B9D6F8440A01F040F878B9D6F8B0
:100B40003C7A2946384601F091FD40B1D6F8409AEA
:100B50002946484601F0A8FD002840F07381D4F8EA
:100B6000B49FD4F8B80F494601F0D8FA2946074691
:100B7000484601F08FFDD6F810A15146002800F03C
:100B80000381284601F086FD2946002800F01881DF
:100B9000484601F06BFD002840F00A810023D6F89A
:100BA000D0130098059301F0C3FBD6F87022029091
:100BB0001146049201F0B4FA8446D6F8CC1300989A
:100BC000CDF80CC001F0B4FBD6F86C1201F0A8FA15
:100BD0000146039801F0A2FA51460646284601F064
:100BE0009DFA0146304601F0A3FB394601F054FC62
:100BF000049A114601F094FA029901F091FA06461E
:100C0000059B002B5BD04946284601F087FA394600
:100C100001F042FC0EF048FD8146D4F8B41F28468E
:100C200001F07CFA394601F037FC494601F076FACA
:100C300006464FF07E50314601F070FA4FF07E517B
:100C40000746484601F06CFA01F04EFD84464FF02D
:100C50008041484604EB8C0901F062FA01F044FD42
:100C600004EB800404F58054D4F87012304601F08F
:100C70005FFB09F580598246D9F87012384601F0B9
:100C800057FB0146504601F04BFA009901F050FB2A
:100C90008446D9F810113846674601F049FB84466E
:100CA000D4F810113046644601F042FB014620465C
:100CB00001F036FA0146384601F032FA0646284677
:100CC00000F07CFF00B100264FF07E50CBF8000012
:100CD0004FF08040CBF808000020019BCBF810605B
:100CE000CBF80430CBF80C00D8F800005946CBF80C
:100CF0001400D8F80400CBF81800D8F80800CBF896
:100D00001C00D8F80C00CBF82000D8F81000CBF865
:100D10002400D8F814405748CBF828404FF08144BD
:100D20000068CBF83440CBF82C00CBF83000D8F872
:100D30001C40CBF83840D8F8204041F83C4F0BF12C
:100D40008C0441F8040F8C42FBD1D8F82410119B7D
:100D5000CBF89410D8F80C10CBF898100021CBF8F1
:100D60009C10CBF8A01000218BF8A41098F8282034
:100D7000142A8EBF0122C2F11502D2B28BF8902044
:100D80001D6007B0BDE8F08F284601F083FC2946BE
:100D900000287FF4FDAE484601F068FC30B15146B2
:100DA000284601F063FC00287FF42DAF002686E77B
:100DB0005146284601F05AFC031E18BF0123EEE6F7
:100DC000484601F053FC002834D10023DDF800A090
:100DD000D6F874125046039301F0AAFA8446D6F866
:100DE00078125046CDF808C001F0A2FAD6F81811D2
:100DF00001F096F9D6F814A106465146029801F082
:100E00008FF90146304601F089F9494606462846E1
:100E100001F084F90146304601F08AFA394601F0C2
:100E20003BFB514601F07CF9029901F079F9039BF3
:100E30000646E6E65146284601F018FC031E18BF98
:100E40000123C3E73946284601F068F9844639464C
:100E50004846674601F062F90146384601F01CFB3E
:100E6000D6F8441A01F064FA0146284601F056F912
:100E7000054674E6200200202DE9F04F0F46164685
:100E8000C5B0DDF838B11393DBF824300BF1400521
:100E90001293DBF8283029460446502230A81193DB
:100EA0000D970C9613F0A6FA30AB984643A95A68F2
:100EB00043F8042B8B42FAD1DBF84030284650220D
:100EC00030A9439313F096FA9BF89060CBF88C40CE
:100ED000142E00F26486344606F180450E350BEB85
:100EE000850555F8040F00F069FE631C002840F0EA
:100EF000C0820925C4F115039A00002130A80A9385
:100F000013F09FFAA4F1020E04F10F031093CEF137
:100F10001C030B930BF14403CDE90EE3CEF11D0747
:100F2000A4F10C06CDF838B1A5F10903092B0A9BF1
:100F300040F2A582AB4240F3B08232464FF0140932
:100F40000F9BDFF898C253F82640013520464FF03A
:100F5000020B64464E9B02F18042113203EB820A7F
:100F60005AF8041F0BF1010B01F0DAF8D945F7DA52
:100F7000A44604466146204601F08EFA0B9B013FD1
:100F8000AB4206F1010648F8040BCDD1DDF838E09C
:100F9000DDF838B11C94CEF1120E44AB03EB8E0E8B
:100FA0005EF8503C8E491846109301F07DFB60B10D
:100FB0008C49DBF8280001F06FFA03468A49DBF818
:100FC0002400119301F0B4F912900024139BDBF874
:100FD000080003F100452194229401F085FB4F9B0A
:100FE000064603F58053D3F81C0ADBF838100E933D
:100FF00001F09EF97D4901F09BF90146284601F078
:101000004BFA0546771EDBF8103044AADBF80CA03B
:1010100002EB870242F88C5C2146184616930BEBD4
:1010200086030A93179701F083F9514601F078F887
:10103000219A229EBB0005460D99104615930B92EE
:101040000F9601F075F90146284601F069F8DBF8C2
:101050001860DBF814902146CBF80C00304601F004
:1010600067F9494601F05CF8DBF82070DBF81C807A
:1010700005462146384601F05BF9414601F050F83B
:101080002146139001F054F9294601F049F802462F
:1010900021462846149201F04BF9139901F040F8CB
:1010A000024621465046924601F042F9169B1946E7
:1010B00001F036F80D9905460F9801F039F901460F
:1010C000284601F02DF803462146CBF8103048465B
:1010D00001F02EF9314601F023F82146054640463D
:1010E00001F026F9394601F01BF8214606461E900C
:1010F00001F01EF9294601F013F8214681462846E1
:1011000001F016F9314601F00BF80A9F8046B968E4
:101110004FF07E5013F040FB0146204613F018FBC1
:10112000054611990B98BD6001F002F90646119928
:101130000F981D9601F0FCF8314607460B9801F018
:10114000F7F8149900F0ECFF03463946CBF8143059
:101150000B9801F0EDF8494600F0E2FF31460F9E92
:10116000CBF81800304601F0E3F8514600F0D8FF04
:1011700003463946CBF81C30304601F0D9F84146D9
:1011800000F0CEFF4F9BCBF82000D3F84866D3F891
:101190004C06314600F0C2FF03464F9A31462846BE
:1011A0001C940B93D2F8684901F07EFA00B32146F3
:1011B000284601F05BFAD8B13146284601F04CFAD6
:1011C000002840F07A842146284601F045FA00289C
:1011D00000F082804FF0010A4AE000BF0000A04109
:1011E000CDCC3C4000007A44000020410000614525
:1011F0003146284601F044FA002800F06B814FF098
:10120000000ADDF83880DDF83090D8F8F816484646
:1012100001F08EF8D8F8FC160746484601F088F829
:10122000D8F8D81300F07CFFD8F8D493804649460C
:10123000384600F075FF0146404600F06FFF31462A
:101240008046284600F06AFF0146404601F070F8EB
:101250000B9901F021F9494600F062FF394600F090
:101260005FFF21461C90284601F014FA00282FD079
:101270000E9F0C98D7F8181A01F05AF8D7F8F49680
:101280000746494600F04CFF0E9B8046D3F8141ADF
:101290000C9801F04DF80E9BD3F8F01600F040FFCB
:1012A0000146404600F03AFF0346214628461C46C8
:1012B00000F034FF0146204601F03AF80B9901F0A6
:1012C000EBF8494600F02CFF394600F029FF1C904E
:1012D000BAF1000F00F0D0833146284600F01EFF1F
:1012E0000B9E0125314601F0D7F80EF0DDF90446DA
:1012F0004F9BCDE92355D3F848160A9B986800F018
:101300000DFF314601F0C8F8214600F007FF014605
:101310004FF07E50CDE927551B9100F0FFFE0346AC
:101320007C4920461D9313F037FA4FF07E51044656
:10133000CDE92955CDE9255500F0F2FE01F0D4F9AB
:1013400005464F9B4FF0804103EB850505F5805521
:10135000D5F8D0632046209600F0E2FE01F0C4F9F3
:101360004F9A239B02EB800404F58054D4F8D07389
:10137000012B1E9703D1249B012B00F0A98323AEE0
:101380000DF16C0A0DF194090DF1780827AF1DAB32
:1013900029AA20A91CA80496CDF80CA0CDF8089085
:1013A000CDF804800097CDE913120F931190FFF749
:1013B00067F8D5F8F436012540F2011C239A2093F2
:1013C000D4F8F4361C9CAA421E93CDE92555DDE9DC
:1013D0001312249B11981F942995ADF868C0ADF89D
:1013E00064C02A9500F092800F9B0191CDE9022301
:1013F00019AB01460093CDE907A6CDE905890C9B01
:1014000004971AAA1FA8FFF7D1F80A9B986800F062
:10141000D5FB002877D11F98DBF83C1000F088FF3F
:101420000A9A034694684F9A2046D2F848560022FA
:101430001C924F9A2946D2F86869119301F034F949
:10144000002851D03146204601F010F900284BD039
:101450002946204601F000F9002840F02B83314650
:10146000204601F0F9F8002800F0C4804FF0010A8E
:101470008BE0DCB2152C7FF434AD344639E59D4267
:1014800013DA0135284600F0FFFE4E9B1099A9465D
:1014900084460E9A53F8214058E5B94632463FB982
:1014A0004FF0000C0135644664E50E9ADDF8289093
:1014B00002F1110314924E9A484652F8234000F06C
:1014C000E3FEB9F1010F8446149A05F101053FF7D7
:1014D0003DAD4FE52146284601F0DCF8002800F03C
:1014E000E7824FF0000AC3E62946204601F0C8F81B
:1014F00090B93146204601F0CDF8002800F0D682A0
:101500004FF0000A41E000201F9085E7AB427FF4D6
:101510006BAFF8E2000047434FF0000A4F9BDDF845
:101520003080D3F82413404600F002FF4F9B07465B
:10153000D3F828134046D3F8009000F0F9FE4F9BF3
:10154000596800F0EDFD49468046384600F0E8FD58
:101550000146404600F0E2FD29468046204600F064
:10156000DDFD0146404600F0E3FE0B9900F094FFDC
:10157000494600F0D5FD394600F0D2FD31461C90B9
:10158000204601F087F8002830D04F9B0C98D3F804
:10159000441600F0CDFE4F9B0746D3F820934946F2
:1015A00000F0BEFD4F9B8046D3F840160C9800F02B
:1015B000BFFE4F9BD3F81C1300F0B2FD014640461E
:1015C00000F0ACFD0346314620461E4600F0A6FD65
:1015D0000146304600F0ACFE0B9900F05DFF494635
:1015E00000F09EFD394600F09BFD1C90BAF1000F03
:1015F00000F032822946204600F090FD0B9E012526
:10160000314600F049FF0EF04FF804464F9BCDE9FC
:101610002355D3F848160A9B986800F07FFD3146A1
:1016200000F03AFF214600F079FD01464FF07E5070
:10163000CDE927551B9100F071FD0346B1492046C5
:101640001D9313F0A9F84FF07E510446CDE92955BA
:10165000CDE9255500F064FD01F046F805464F9BA5
:101660004FF0804103EB850555F8046C2046209629
:1016700000F056FD01F038F84F9A239B02EB8004EE
:1016800054F8047C012B1E9703D1249B012B00F0FE
:101690004F8223AE0DF16C0A0DF194090DF178081B
:1016A00027AF1DAB29AA20A91CA80496CDF80CA031
:1016B000CDF80890CDF804800097CDE913120F9370
:1016C0000B90FEF7DDFED5F82033012540F2011C1A
:1016D000239A2093D4F820331C9CAA421E93CDE970
:1016E0002555DDE91312249B0B981F942995ADF81D
:1016F00068C0ADF864C02A9500F04B810F9B019142
:10170000CDE9022319AB01460093CDE907A60C9B56
:10171000CDE9058904971AAA1FA8FEF747FF0A9B7F
:101720009C68204600F04AFA002840F02F811F9C58
:1017300011990D9800F0FCFD0146204600F0EEFCEA
:1017400001461098209100F0E9FC4FF000084F9BF3
:101750000A9D03F5496300934F9A4F9B02F5C962B6
:101760000C991D9003F66C13A868CDF88480CDF811
:101770008880FEF7FBFF159BDBF8141003F58873D8
:101780006B4443F88C0C219D284600F0D1FD229F2C
:101790000646DBF82010384600F0CAFD0446DBF8A8
:1017A0001820384611460B921E9400F0C1FD3146B8
:1017B00000F0B6FC294600F0BBFDDBF81CA081461A
:1017C0005146284600F0B4FD214600F0A9FC3946F8
:1017D00000F0AEFD0146484600F0A2FC129900F070
:1017E0009FFC034638461F46514600F0A1FD314696
:1017F00000F096FC394600F04FFE0646DDF8749086
:101800003146484600F094FD0146DBF80C0000F03C
:1018100087FC03460B9ACBF80C301146284600F0A3
:1018200087FD214600F07CFC394600F035FE044679
:101830004846214600F07CFD0146DBF8100000F030
:101840006FFCCBF810000A9D4FF07E50A96812F093
:10185000A3FF0146404612F07BFF3146A8603846A0
:1018600000F066FD314680461E9000F061FD0146A5
:10187000DBF8140000F052FC2146CBF81400384687
:1018800000F056FD314605461C9000F051FD014622
:10189000DBF8180000F042FC03462146CBF8183074
:1018A000404600F045FD0146DBF81C0000F036FC28
:1018B00003462146CBF81C30284600F039FD01468E
:1018C000DBF8200000F02AFCCBF820001D9812F075
:1018D0003CFF0D4900F02CFDDBF8941000F0E4FE15
:1018E000A0B1DBF8080000F0FFFE179BDBF8341016
:1018F00000EB43050BEB8505286900F019FD286115
:1019000004E000BF0000474300007A44109B1F9E84
:10191000CBF804300A9BCBF89C609D68509B1D60FF
:101920009BF8A4306BB1DBF830802846414600F0CC
:10193000F5FB002100F0B8FE18B14546509BC3F8F6
:1019400000800E9BCBF8305093F9283A002B24DC12
:10195000519B1D60529B119A9C605A600D9ADE60EB
:101960001A61209B529A1360DBF8080000F0BCFE5D
:1019700000EB40000BEB8003529A9B689761536128
:101980001346109ADA6145B0BDE8F08F00241F9429
:10199000CEE6AB427FF4B2AEE5E08349284600F0E4
:1019A000C7FC0DF0B1FE4FF08641054600F05EFE2B
:1019B000002871D028464FF0434100F06BFE00280C
:1019C00000F08280284600F08FFE46B2B4464F9B5E
:1019D0002BAD03F5D1502A46073005E07F2302F8EE
:1019E000013B30AB934213D010F9013FA3EB0C0144
:1019F0007F29F3DC11F17F0FF0DBACEB030300294F
:101A0000ACBF4BB25BB202F8013B30AB9342EBD1BF
:101A10004FF0FF319DF9ACC00DF1AD0393F900001B
:101A20001A46844503F1010302DD8446521B511E10
:101A300030AA9A42F2D1122900F0AC8041F6292254
:101A40004F9B0B44985600F01FFC574900F024FDB3
:101A5000519B1F9E18607DE71C9B1F930023CDE9BF
:101A60002333CDE92733CDE92933CDE92533ADF84B
:101A70006830ADF8643054E61C9B1F930023CDE919
:101A80002333CDE92733CDE92933CDE92533ADF82B
:101A90006830ADF86430B8E428464FF0864100F075
:101AA000F9FD70B14FF07F0C664690E70023D4E754
:101AB0000023E2E74FF0010A30E54FF0010AFFF79B
:101AC000A0BB8446064682E76FF07F0C66467EE741
:101AD00030461D9900F02CFC1B990646384600F054
:101AE00027FC0146304600F01BFBD5F8F4361C906D
:101AF0002093D4F8F43604461E9340F20113ADF857
:101B00006830ADF864301D99209800F011FC1B99E5
:101B100005461E9800F00CFC0146284600F000FB2C
:101B20000C9900F005FC214600F0FAFA1F906CE4D5
:101B300030461D9900F0FCFB1B990646384600F024
:101B4000F7FB0146304600F0EBFAD5F820331C9045
:101B50002093D4F8203304461E9340F20113ADF8CD
:101B60006830ADF864301D99209800F0E1FB1B99B6
:101B700005461E9800F0DCFB0146284600F0D0FA2E
:101B80000C9900F0D5FB214600F0CAFA0A9B1F9081
:101B90009C68C6E5B4457FF751AF002058E74FF089
:101BA000FF3EFFF7FAB900BF0000C8420B6843626E
:101BB0004B6883620B7A80F8A430704708B500F058
:101BC0003BFA02460B4600F08FFA003818BF01209E
:101BD00008BD00BF10B1024BC0F8AC30704700BF69
:101BE0003412CDAB30B1D0F8AC00034BC01AB0FA10
:101BF00080F04009704700BF3412CDAB002860D0A0
:101C00002DE9F047C368044645698EB0002B53D0D8
:101C10006DB12846FFF7E6FF00284FD0B0222946D5
:101C2000294812F0E7FB00200EB0BDE8F087DFF88E
:101C30009880B0220E464046294612F002FCD4F8A5
:101C40000CE0224D0EF580530DF10C0CD3F820AAB8
:101C5000D3F8249A0FCDACE80F000FCDACE80F00FD
:101C600095E80700C8F8A8E027698CE80700CDF8D8
:101C70001CA0CDF8209077B1FB680B933B690A93C9
:101C8000FB690C9397F824303A6A8DF83430013BA5
:101C9000132B099212D8CDF80080A168206802ACFD
:101CA000734603AA0194FEF72BFF0EB1029B33602B
:101CB0000548FFF78FFFB6E7002DAAD16FF015009A
:101CC000B2E76FF0150070479C170020500A020021
:101CD0002DE9F043204C95B02468994609941F4B98
:101CE0001F4C1B782468074608460A9490460C4609
:101CF0001C9D8DF82C3000F0E1FC00282AD1194EF3
:101D000009A93046FFF752FF0096D6F8A8104B46B7
:101D100001910CA9049108A9039107A942463846EC
:101D200002912146FFF7A8F80F49089800F000FB40
:101D300006465DB10D9B0C9A6B600C4B0A490798E7
:101D40002A60AB60EC6000F0F3FA2861304615B011
:101D5000BDE8F0830024D2E72C020020DC1E002026
:101D6000280200209C1700200000C8420000C07F0D
:101D700081F0004102E000BF83F0004330B54FEA3C
:101D800041044FEA430594EA050F08BF90EA020FA9
:101D90001FBF54EA000C55EA020C7FEA645C7FEA3C
:101DA000655C00F0E2804FEA5454D4EB5555B8BF5F
:101DB0006D420CDD2C4480EA020281EA030382EAD0
:101DC000000083EA010180EA020281EA0303362D62
:101DD00088BF30BD11F0004F4FEA01314FF4801C35
:101DE0004CEA113102D0404261EB410113F0004F47
:101DF0004FEA03334CEA133302D0524263EB4303FE
:101E000094EA050F00F0A780A4F10104D5F1200E9B
:101E10000DDB02FA0EFC22FA05F2801841F10001F6
:101E200003FA0EF2801843FA05F359410EE0A5F1CA
:101E300020050EF1200E012A03FA0EFC28BF4CF0FB
:101E4000020C43FA05F3C01851EBE37101F00045B1
:101E500007D54FF0000EDCF1000C7EEB00006EEBBE
:101E60000101B1F5801F1BD3B1F5001F0CD3490848
:101E70005FEA30004FEA3C0C04F101044FEA44529F
:101E800012F5800F80F09A80BCF1004F08BF5FEA26
:101E9000500C50F1000041EB045141EA050130BD06
:101EA0005FEA4C0C404141EB0101013C28BFB1F518
:101EB000801FE9D291F0000F04BF01460020B1FA63
:101EC00081F308BF2033A3F10B03B3F120020CDA36
:101ED0000C3208DD02F1140CC2F10C0201FA0CF014
:101EE00021FA02F10CE002F11402D8BFC2F1200C79
:101EF00001FA02F120FA0CFCDCBF41EA0C0190402F
:101F0000E41AA2BF01EB0451294330BD6FEA040477
:101F10001F3C1CDA0C340EDC04F11404C4F1200262
:101F200020FA04F001FA02F340EA030021FA04F374
:101F300045EA030130BDC4F10C04C4F1200220FACB
:101F400002F001FA04F340EA0300294630BD21FA09
:101F500004F0294630BD94F0000F83F4801306BFCF
:101F600081F480110134013D4EE77FEA645C18BFC3
:101F70007FEA655C29D094EA050F08BF90EA020F5A
:101F800005D054EA000C04BF1946104630BD91EA52
:101F9000030F1EBF0021002030BD5FEA545C05D155
:101FA0004000494128BF41F0004130BD14F5800494
:101FB0003CBF01F5801130BD01F0004545F0FE4108
:101FC00041F470014FF0000030BD7FEA645C1ABF3D
:101FD000194610467FEA655C1CBF0B46024650EA74
:101FE000013406BF52EA033591EA030F41F40021A0
:101FF00030BD00BF90F0000F04BF0021704730B526
:102000004FF4806404F132044FF000054FF00001FA
:1020100050E700BF90F0000F04BF0021704730B5BB
:102020004FF4806404F1320410F0004548BF404290
:102030004FF000013EE700BF42004FEAE2014FEAE5
:1020400031014FEA02701FBF12F07F4393F07F4FC0
:1020500081F06051704732F07F4208BF704793F0C3
:102060007F4F04BF41F40021704730B54FF46074D6
:1020700001F0004521F000411CE700BF50EA0102D9
:1020800008BF704730B54FF000050AE050EA010282
:1020900008BF704730B511F0004502D5404261EBF2
:1020A00041014FF4806404F132045FEA915C3FF433
:1020B000D8AE4FF003025FEADC0C18BF03325FEAD0
:1020C000DC0C18BF033202EBDC02C2F1200300FA81
:1020D00003FC20FA02F001FA03FE40EA0E0021FAA6
:1020E00002F11444BDE600BF4FEA410C7FEA6C5C8C
:1020F00002D150EA013C0AD14FEA430C7FEA6C5C02
:1021000002D152EA033C02D14FF0000070474FF079
:102110000100704780F0004002E000BF81F0004104
:1021200042001FBF5FEA410392EA030F7FEA226C7D
:102130007FEA236C6AD04FEA1262D2EB1363C1BF0D
:10214000D218414048404140B8BF5B42192B88BF7C
:10215000704710F0004F40F4000020F07F4018BF9F
:10216000404211F0004F41F4000121F07F4118BFBF
:10217000494292EA030F3FD0A2F1010241FA03FC67
:1021800010EB0C00C3F1200301FA03F100F000434F
:1021900002D5494260EB4000B0F5000F13D3B0F117
:1021A000807F06D340084FEA310102F10102FE2A86
:1021B00051D2B1F1004F40EBC25008BF20F00100F6
:1021C00040EA03007047490040EB0000013A28BF95
:1021D000B0F5000FEDD2B0FA80FCACF1080CB2EB18
:1021E0000C0200FA0CF0AABF00EBC2505242184396
:1021F000BCBFD0401843704792F0000F81F400013B
:1022000006BF80F400000132013BB5E74FEA41030D
:102210007FEA226C18BF7FEA236C21D092EA030F79
:1022200004D092F0000F08BF0846704790EA010FF3
:102230001CBF0020704712F07F4F04D1400028BF20
:1022400040F00040704712F100723CBF00F5000002
:10225000704700F0004343F0FE4040F40000704738
:102260007FEA226216BF08467FEA236301464202E4
:1022700006BF5FEA412390EA010F40F480007047F7
:102280004FF0000304E000BF10F0004348BF40429D
:102290005FEA000C08BF704743F0964301464FF0D9
:1022A00000001CE050EA010208BF70474FF0000335
:1022B0000AE000BF50EA010208BF704711F0004376
:1022C00002D5404261EB41015FEA010C02BF844646
:1022D0000146002043F0B64308BFA3F18053A3F5A5
:1022E0000003BCFA8CF2083AA3EBC25310DB01FAEC
:1022F00002FC634400FA02FCC2F12002BCF1004F70
:1023000020FA02F243EB020008BF20F00100704700
:1023100002F1200201FA02FCC2F1200250EA4C0054
:1023200021FA02F243EB020008BF20EADC7070479A
:102330004FF0FF0C1CEAD0521EBF1CEAD15392EAA8
:102340000C0F93EA0C0F6FD01A4480EA010C400284
:1023500018BF5FEA41211ED04FF0006343EA5010DE
:1023600043EA5111A0FB01310CF00040B1F5000F20
:102370003EBF490041EAD3715B0040EA010062F1CF
:102380007F02FD2A1DD8B3F1004F40EBC25008BFB9
:1023900020F00100704790F0000F0CF0004C08BFD7
:1023A00049024CEA502040EA51207F3AC2BFD2F1A4
:1023B000FF0340EAC250704740F400004FF00003B2
:1023C000013A5DDC12F1190FDCBF00F000407047EC
:1023D000C2F10002410021FA02F1C2F1200200FA2A
:1023E00002FC5FEA310040F1000053EA4C0308BFF1
:1023F00020EADC70704792F0000F00F0004C02BF42
:10240000400010F4000F013AF9D040EA0C0093F0BC
:10241000000F01F0004C02BF490011F4000F013B16
:10242000F9D041EA0C018FE70CEAD15392EA0C0F84
:1024300018BF93EA0C0F0AD030F0004C18BF31F0EF
:10244000004CD8D180EA010000F00040704790F0C5
:10245000000F17BF90F0004F084691F0000F91F069
:10246000004F14D092EA0C0F01D142020FD193EA2F
:102470000C0F03D14B0218BF084608D180EA0100B7
:1024800000F0004040F0FE4040F40000704740F093
:10249000FE4040F4400070474FF0FF0C1CEAD05261
:1024A0001EBF1CEAD15392EA0C0F93EA0C0F69D0BD
:1024B000A2EB030280EA010C49024FEA402037D028
:1024C0004FF0805343EA111143EA10130CF000401F
:1024D0008B4238BF5B0042F17D024FF4000C8B420F
:1024E00024BF5B1A40EA0C00B3EB510F24BFA3EBEF
:1024F000510340EA5C00B3EB910F24BFA3EB9103BF
:1025000040EA9C00B3EBD10F24BFA3EBD10340EA18
:10251000DC001B0118BF5FEA1C1CE0D1FD2A3FF65E
:1025200050AF8B4240EBC25008BF20F00100704713
:102530000CF0004C4CEA50207F32C2BFD2F1FF03B6
:1025400040EAC250704740F400004FF00003013AE7
:1025500037E792F0000F00F0004C02BF400010F48B
:10256000000F013AF9D040EA0C0093F0000F01F09F
:10257000004C02BF490011F4000F013BF9D041EAC1
:102580000C0195E70CEAD15392EA0C0F08D14202F4
:102590007FF47DAF93EA0C0F7FF470AF084676E7C7
:1025A00093EA0C0F04D14B023FF44CAF08466EE7A0
:1025B00030F0004C18BF31F0004CCAD130F000426E
:1025C0007FF45CAF31F000437FF43CAF5FE700BFC6
:1025D0004FF0FF3C06E000BF4FF0010C02E000BFEF
:1025E0004FF0010C4DF804CD4FEA40024FEA410391
:1025F0007FEA226C18BF7FEA236C11D001B052EA47
:10260000530C18BF90EA010F58BFB2EB030088BF0C
:10261000C81738BF6FEAE17018BF40F0010070477B
:102620007FEA226C02D15FEA402C05D17FEA236C5D
:10263000E4D15FEA412CE1D05DF8040B704700BFA4
:10264000844608466146FFE70FB5FFF7C9FF00283B
:1026500048BF10F1000F0FBD4DF808EDFFF7F4FF74
:102660000CBF012000205DF808FB00BF4DF808ED0D
:10267000FFF7EAFF34BF012000205DF808FB00BF30
:102680004DF808EDFFF7E0FF94BF012000205DF852
:1026900008FB00BF4DF808EDFFF7D2FF94BF012003
:1026A00000205DF808FB00BF4DF808EDFFF7C8FFFC
:1026B00034BF012000205DF808FB00BF4FEA400254
:1026C0004FEA41037FEA226C02D15FEA402C08D135
:1026D0007FEA236C02D15FEA412C02D14FF0000067
:1026E00070474FF0010070474FEA4002B2F1FE4FD1
:1026F0000FD34FF09E03B3EB12620DD94FEA0023C4
:1027000043F0004310F0004F23FA02F018BF40429C
:1027100070474FF00000704712F1610F01D1420283
:1027200005D110F0004008BF6FF0004070474FF037
:10273000000070477BB972B90029BEBF00204FF07E
:10274000004106E008BF00281CBF6FF000414FF0B9
:10275000FF3000F057B8ADF1080C6DE904CE002948
:1027600009DB002B1ADB00F069F8DDF804E0DDE995
:10277000022304B07047404261EB4101002B1BDB98
:1027800000F05CF8DDF804E0DDE9022304B040422B
:1027900061EB4101524263EB43037047524263EBEA
:1027A000430300F04BF8DDF804E0DDE9022304B058
:1027B000404261EB41017047524263EB430300F03A
:1027C0003DF8DDF804E0DDE9022304B0524263EB9A
:1027D0004303704753B94AB9002908BF00281CBFFA
:1027E0004FF0FF314FF0FF3000F00CB8ADF1080CA6
:1027F0006DE904CE00F022F8DDF804E0DDE9022303
:1028000004B07047704700BF10F8012B11F8013B6E
:10281000012A28BF9A42F7D0D01A7047034611F810
:10282000012B03F8012B002AF9D17047034613F856
:10283000012B002AFBD1181A013870472DE9F04707
:1028400086468C460846089E154674461946002B57
:1028500040F0C1808542B2FA82F245D94AB1C2F154
:10286000200300FA02FC954094402EFA03F343EA59
:102870000C0C4FEA154EA8B2230CBCFBFEF80EFB65
:1028800018CC08FB00F943EA0C43994528D9EB180A
:1028900008F1FF3704D2994502D9A8F102072B4469
:1028A000A3EB0903A4B2B3FBFEFC0EFB1C330CFB31
:1028B00000F044EA0344A04214D92C190CF1FF3370
:1028C00004D2A04202D9ACF102032C44241A43EAF8
:1028D00007401EB1D440002334607360BDE8F08728
:1028E0004746DDE76346F1E792BB431B01214FEA10
:1028F000154EAFB2200CB3FBFEFC0EFB1C330CFBE1
:1029000007F840EA0343984561D9EB180CF1FF3012
:1029100004D2984502D9ACF102002B44A3EB080382
:10292000A4B2B3FBFEFC0EFB1C330CFB07F744EA1E
:102930000344A7424DD92C190CF1FF3304D2A7420E
:1029400002D9ACF102032C44E41B43EA0040C0E787
:10295000C2F120039540944020FA03F12EFA03F3CC
:102960004FEA154E9040AFB20343B1FBFEFC0EFBA5
:102970001C10190C0CFB07F841EA0041884522D9CC
:1029800069180CF1FF3004D2884502D9ACF102007D
:102990002944A1EB08019BB2B1FBFEFC0EFB1C110C
:1029A0000CFB07F743EA01439F420ED9EB180CF1E9
:1029B000FF3104D29F4202D9ACF102012B44DB1B50
:1029C00041EA004193E76046E3E76146F7E7604686
:1029D000A4E76346B8E7834206D916B90021084642
:1029E0007CE7C6E900E0F9E7B3FA83F78FB98342E1
:1029F00001D3724508D8BEEB020460EB030301204B
:102A00009C461EB9002169E73846FAE7C6E9004C42
:102A1000F8E7C7F1200CBB400EFA07F522FA0CF4D8
:102A20002EFA0CF1BA401C4320FA0CF3B8404FEADE
:102A3000144901431FFA84FEB3FBF9F809FB18306F
:102A40000B0C08FB0EFA43EA00439A4540D9E31801
:102A500008F1FF3004D29A4502D9A8F102002344BC
:102A6000A3EB0A0389B2B3FBF9F809FB183308FB9F
:102A70000EFE41EA03418E452CD9611808F1FF335F
:102A800004D28E4502D9A8F10203214443EA004052
:102A9000A1EB0E01A0FB02984145CE46434602D36E
:102AA00006D14D4504D20138B9EB020E68EB0403A0
:102AB000002EA7D0B5EB0E0261EB030101FA0CFC6E
:102AC00022FA07F3F9404CEA0303C6E9003199E71B
:102AD0004046C5E74346D9E72DE9F04704460F468F
:102AE000164688B011F0DCF84FF47A75A0FB050C9F
:102AF00047F6122205FB01C10023FFF76BFE012FF1
:102B000080460D4607D102460B46204626490DF069
:102B1000FAFE002011E0766824483146FFF774FE83
:102B200070B131462248FFF76FFE48B12046324669
:102B300020490DF004FF6FF0040008B0BDE8F087F5
:102B4000404617A3D3E900232946FFF7F3FD0646C5
:102B50000D4610461946184A0023FFF7EBFD804644
:102B60000F46104619464EF660220023FFF7E2FD9D
:102B700082468946104619464FF47A720023FFF7C1
:102B8000D9FDCDE902A9CDE90623CDE904013246FC
:102B90002B462046CDE9008708490DF0B4FEB8E782
:102BA000005C260500000000022702001327020037
:102BB000162702001F27020080EE3600372702008A
:102BC00070B514460646CD17A1FB0201002304FB95
:102BD00005110A22FFF7AEFD0FA3D3E900230C4D28
:102BE00080FB054520462946FFF7A4FD06A3D3E94F
:102BF0000023306029462046FFF79CFD0023054A4C
:102C0000FFF798FD726070BD80A8120100000000FF
:102C1000D8EF2F0040420F0000209BF35E10000011
:102C200003292DE9F04105460C4605D0072975D04A
:102C3000BDE8F04106F0E0BF002A53D0072A40F07B
:102C4000BB8058681A68624BC117C2FB0301012898
:102C500071F100035BDBD5F804805E4B98F81A60D5
:102C6000C0184FEAD61656A3D3E9002341F100015C
:102C700076B2FFF75FFD002E14BF042302239842B3
:102C800098F91A7028D0002E14BF202310239842E0
:102C900024D0002E14BF08230423984220D0002EF5
:102CA00014BF10230823984231D1E6B23146404682
:102CB0002D690EF0BBFE002823DB3D22464B002F82
:102CC00033F81430AE77AABFA3FB023253435B083C
:102CD000EB600020BDE8F0810024E6E70124E4E792
:102CE0000224E2E719883D4B14461F4633F8022BB5
:102CF000914209D86868E1B22E690FF00BF80028FC
:102D000008DA6FF00400E5E701340B2CEED16FF028
:102D10001500DFE737F81430B383DAE7002A3AD03A
:102D2000072A49D1B4245A681968294BD017C1FB26
:102D30000320A2FB0431012A04FB001170F1000002
:102D40001DDB2748181841F100011FA3D3E9002318
:102D50000024FFF7EFFC234B33F8022B904216D1EF
:102D60006868E1B22E690EF078FE0028C9DB41F2F6
:102D700017121D4B33F814305343B361A9E71B48B6
:102D8000181861F1000110A3D3E90023E0E7013432
:102D9000072CE1D1BBE71988104B33F8020B8142B5
:102DA00006D86868D1B20FF023F8002891DAA8E7B6
:102DB00001320B2AF1D1AAE76FF085008AE700BF44
:102DC0003AA3950000000000D8EF2F00000000009B
:102DD00040420F009DD14A00781E0200801E020072
:102DE000ECF717006A1E02005C1E02001408E8FFE0
:102DF0002DE9F74F03291446066905D90B1F032B4C
:102E000053D96FF0850023E00229F7683A4D22D0AC
:102E1000032923D0012914BFB6F90460B6F906606E
:102E2000A6FB076732A3D3E9002386FB056530467E
:102E30002946FFF77FFC0023304A206029463046B0
:102E4000FFF778FC00232D4AFFF774FC6260002036
:102E500003B0BDE8F08FB6F90860E1E74FF0000B72
:102E600002F11803DFF894A00236019336F9028FBD
:102E7000A8FB07831EA3D3E9002388FB05984846D7
:102E80004146FFF757FC524644F8080B5B4648465C
:102E90004146FFF74FFC52465B46FFF74BFC019B58
:102EA00044F8042C9C42E1D1D1E70629B5690CD045
:102EB00007290ED02A46052914BFB6F91010B6F915
:102EC00012102046FFF77CFEC1E72A46B6F914101F
:102ED000F7E70E3602F1180720462A4636F9021F98
:102EE0000834FFF76DFEA742F6D1B0E7AFF30080DC
:102EF0000010A5D4E80000003AA3950040420F005E
:102F000008B5054B05491A78054B53F822200DF0FA
:102F1000FAFC002008BD00BF4D1E0020961E0200D6
:102F20005C5D010038B51468054619492046FFF775
:102F30006BFCF8B120461749FFF766FCC8B1204684
:102F40001549FFF761FCD8B120461449FFF75CFC36
:102F5000C0B120461249FFF757FCA8B120461149DD
:102F6000FFF752FC90B128460F490DF0E8FC002015
:102F700038BD012000220D4B18700D4B1A70F6E77A
:102F80000220F7E70320F5E70420F3E70520F1E747
:102F9000A91E0200B51E0200C21E0200D01E0200C1
:102FA000DF1E0200ED1E0200FC1E02004D1E00206E
:102FB0004C1E002000232DE9F04F2D4D2D4E83B0E7
:102FC00000AF2B7033702C4810F09DFC2B4C236805
:102FD00058B95A0704D001212046294A0DF090F92A
:102FE00000200C37BD46BDE8F08F03F00703022B2D
:102FF00004D903212046234A0DF082F9DFF87880B6
:10300000DFF88490DFF884A033787B6043BB4046D0
:10301000297800F07DF800287B6806DA23685B07D2
:10302000DED001211A4A1548D8E7226802F00702CB
:10303000022A13D92A78EB4688B059F822106A463A
:10304000C2E905A14FF400719183124942F8101FA3
:103050004FF4E651094801F083F9DD46012333704E
:10306000404600F095F800210B4809F08BFDCBE7B6
:103070004D1E00204C1E0020FC4C010010030020BF
:10308000131F02002A1F02005C5D01005A1F02008C
:10309000391F0200030000015A620200F7B504461E
:1030A0000E46154683684021DB68984700282ADBD6
:1030B000A3686A461B692B21204698470198FFF7B1
:1030C000E3F81249FFF7E8F907460098FFF7DCF844
:1030D00001463846FFF724F83060A3686A461B694A
:1030E0000C21204698470198FFF7CEF80749FFF7D3
:1030F000D3F904460098FFF7C7F801462046FFF7CA
:103100000FF82860002003B0F0BD00BF0024744910
:1031100070B586B005460C4618220021684611F0AD
:1031200090F941F68822154B154802FB04330393AE
:10313000144B19680CF0E8FB6946284602AAFFF711
:10314000ADFF002818DB00216846FEF757FD002878
:1031500012DB10F0A5FD4FF47A75A0FB05060023E5
:1031600047F6122205FB0161FFF734FB064BC3E96A
:1031700000010020054B1C7006B070BD8C5D010085
:103180007F20020024020020D00300204E1E0020D9
:103190002DE9F04186B005AA04A9FFF77FFF041EC0
:1031A00006DA23480CF0B0FB204606B0BDE8F081FB
:1031B00010F076FD4FF47A75A0FB0506002305FBA1
:1031C000016147F61222FFF705FB0546194A002464
:1031D000D2E90007281AC2E9005161EB0701FFF7A5
:1031E00069F81549FFF758F9144A049E1578DDF877
:1031F000148013490346424651F825103046009486
:10320000FEF766FD05463046FEF716FF06462846E1
:103210000F46FEF711FFCDE902014046FEF70CFF15
:103220003246CDE900013B4606480CF06DFBBBE79A
:103230009B200200D003002000007A444E1E002094
:10324000745D0100C32002002DE9F04F91B000939E
:1032500002F004030293C2F3C2030133840705465C
:103260000E46DDF868800392059340F0BB81041D93
:1032700030B1072909D86FF01B0011B0BDE8F08FFD
:1032800001F007063444C6F10806009B4FF0000920
:103290004FF0040A591E4FF0FF334F460193CB46BF
:1032A0005346CDF810900DB1009A22600598002881
:1032B00000F3E8809848009A824203D397488242FC
:1032C000C0F0E080039AA4EB050E92074FEA9E003F
:1032D00000F103810F2F00F2B180002D00F0058175
:1032E00007F140020DEB020C019A0CF8200C0CF8CF
:1032F000102C049801300490E7E07A285DD84B2820
:103300000ED8472859D829282DD8252852D054D846
:1033100020287AD02338D0F1000B4BEB000B74E05F
:103320004C382E2849D8DFE800F070484848484813
:103330004848484848484B484848484848484859F9
:10334000484B4B595959704B6D487048184B1848A9
:1033500048827F4B48484B487F0000204FF0000BCD
:103360004FF0040A38E001222A38C0B202FA00F015
:1033700010EA0E0F49D110F0625C2FD110EA020B57
:1033800043D06046013C5444B4FBFAF40AFB04F415
:10339000002D61D0A3EB050CA444B4453FF66BAF00
:1033A000002868D1042B47D158F8043B236004233C
:1033B00004342AE0019A013A01924FF0000B24E014
:1033C00011F8010C6C2834D1002011F8023C83461E
:1033D0006C2BC5D14FF0080A5346D3E708F1070814
:1033E00028F00708073424F00704F8E802AB35B1E9
:1033F00006982044B0423FF63EAFC4E900AB4FF020
:10340000000B08344FF0080A534611F8010F00284A
:1034100078D0BBF1000F7FF470AF2528F5D14FF0C5
:10342000010B019B013301934FF0040AECE758466E
:1034300094E700208346A5E7082B02D06FF0150023
:103440001BE708F1070828F00708F8E80223C4E999
:10345000002308230834D8E768B9042B02D108F107
:103460000408A4E7082BE9D108F1070828F00708A9
:1034700008F10808EDE7059A013A059258F8042B7F
:10348000009210E7039A900720D54FF0010CA4EBAF
:10349000050E4FEA9E00BEF5007FCFD20F2FCDD88C
:1034A000F5B107F140020DEB020E019AC0B20EF821
:1034B000200C0EF8102CBCF1000F3FF41AAF60F096
:1034C0007F000EF8200C09F101090137C5F108024F
:1034D0004FF6DA7E0434069297E74FF0000CDAE7F5
:1034E000BCF1000F01D00136EFE702980236002848
:1034F000EBD10098CDE90631FFF798F9DDE9063107
:103500000644E2E7631BB3F5806F97D245B9A6F195
:103510000804E018B1E600BF44490100F446020087
:10352000029A9B0828602B709DF81030C2B1EB7096
:1035300085F80290B9F1000F05D0002208A8C5F166
:10354000010C97420ED14FF0000AC5F101030DF1B5
:10355000200801930DF1300B574512D1601B8CE60A
:103560006B70E5E710F8013B190608D50CEB040E6B
:10357000B64503F07F033FF67EAE04F8013B01320F
:10358000DFE7B9F1000F03D098F90020002A17DB1C
:10359000029BD3B11AF80B2004F8012B0022019BE7
:1035A00018191044B0423FF666AE98F80000009932
:1035B00004F8010B2046039210F01CFF039A1444F8
:1035C0000AF1010A08F10108C6E798F8002055F849
:1035D00022300093029B009845F82230FFF726F92D
:1035E000421CDCE76FF00D0047E600BF2DE9F04F0D
:1035F00097B000AFD7F880B03B62CBF3C00304466E
:10360000894690F802A0FA62BB6141B9457800781A
:103610000AEB800020444D4517D8A0EB0409E3785D
:10362000FB61BAF1000F02D01BF0010F16D1FB694C
:1036300053BBFB6A1BB1494620463A6A98474D4640
:1036400028465C37BD46BDE8F08F461C3046FFF784
:10365000EDF80130304409F10109DCE762682378B4
:103660007A62FA6A9900796104EB8301002A40F0DA
:1036700005810E464FF000084D4601EB0A094E4504
:1036800050D101EB0A0610E01BF0020FD1D02378D5
:103690009A007A61626804EB83017A62FA6A002A0E
:1036A0007BD14D46904601EB0A061BF0050F0CBF7F
:1036B00002230123FB62FB6906EB430A0BF00203C2
:1036C000BB625645BCD016F8021B16F8013C54F8F4
:1036D00023909B4B994502D39A4B99453AD3BB69AA
:1036E000002B44D0786A0CF0E8F800283FD09648C8
:1036F000036813F0060F13D0E9468AB06A46934B6D
:1037000053617B6AC2E906314FF400731384904B16
:1037100042F8103F00234FF4125100F021FECD4635
:10372000023DCEE716F8013BF96254F82300FFF79B
:103730007DF8D7F88430F96A01304BB1D7F888307A
:1037400098453EBFD7F8843023F8180008F10108E7
:10375000054494E7BB6923B1786A0CF0AEF8002801
:10376000C5D11BF0010F05D1FB6AED1AA9E7BB6AB1
:10377000002BA6D04846FFF759F8D7F8843053B14C
:10378000D7F8883098453FBFD7F88420431C22F8EB
:10379000183008F10108054493E7BAF1000F73D01F
:1037A0001BF0040673D0D046002607F148005246AD
:1037B0003B61B96210F01EFEB96A3B6901EB0A0277
:1037C000BA62FA69F9695200FA60BA6A02EB410218
:1037D0003A610BF00202BA603A69B96A8A4258D17A
:1037E00062781BF0020F18BF00217A6208BF4FEA0F
:1037F0005801B2181BF0010FD2B240F09F801BF0AD
:10380000040F14BF40460020BB616270A070E170DD
:1038100020463A6A7969FB6A9847051EFFF610AFA1
:10382000BB69414623707B6A3A6A6370FB6984F81E
:1038300002A0E37007F14800FB6A9847B0F1000866
:10384000C0F2BA807B69A9EB0A01C91AFB683A6A1F
:10385000C91AD7E90A0398470028C0F2AF804FF091
:10386000000BA84408EB000507F1380AB34571D3F3
:1038700000213A6A0846FB6A9847E1E656464FF04F
:10388000000807F1380092E75646D04696E7B04662
:1038900094E7BA6A12F8021B12F8015CBA6254F893
:1038A0002500274A904202D3264A90421ED3BA6985
:1038B00032B1786A7B600CF000F87B6800288BD10D
:1038C000BA6802BB08F1280207F1300C08F10100C8
:1038D000944407F1580208F1020852FA80F00CF8FB
:1038E000101C5FFA88F800F8105C75E7BA693AB105
:1038F000786A7B600BF0E1FF7B6800287FF46CAF97
:103900001BF0010F09D006F1280207F13000711CED
:10391000161806F8205CCEB25EE71BF0040F3FF4E9
:103920005BAF08F1280207F1300008F1010102EB5A
:10393000000808F8105C5FFA81F84DE7002063E7A3
:1039400044490100F4460200E8020020E0200200A1
:10395000040000011BF80A3054F8239087F8373030
:10396000D7F884302BB3D7F888309B4521D2D7F8CD
:10397000843033F81B8001213A6AFB6A07F1370073
:10398000984700281ADB0544B8F1000F06D14846D5
:10399000FEF74CFF00F101081FFA88F8414648463F
:1039A0003A6AFB6A9847002808DB05440BF1010BD3
:1039B0005CE74FF00008DEE7454641E605463FE696
:1039C000014B1860704700BFD000002080B505464D
:1039D0000E461746984609F027F9034610F0A8FF4F
:1039E0000446DFF81890424649F800303946304620
:1039F000A84754F8090003F089FE00BF0800000042
:103A00002DE9F047058B04462807904611D402297A
:103A100005F0070540F0CC8020460CF01AFA78B18A
:103A20000138218B042811D8DFE800F0C2106D8521
:103A3000950001290CBF45F0100545F020052583B0
:103A400088F31188BFF36F8FBDE8F08701F0070A94
:103A5000AA4500F0A5800027B9463E46A368002B82
:103A600000F0BC8041F00801218388F31188BFF386
:103A70006F8FA168002900F0BA800D68002900F05E
:103A8000B680334652462046D1F80480C047002D08
:103A900076D02B6829461D46F0E701F007035A1F30
:103AA000012A1BD8002221F00701062B276889B2C2
:103AB000C4E9002209D13B4603E0628B01326283F4
:103AC0001B68002BF9D141F00201204621830CF044
:103AD000C0F900287AD041F0200176E0042B0AD109
:103AE00021F0070189B2204621830CF0B2F910B110
:103AF00041F020012183218B01F0070AAA454FD014
:103B00000027B946AAE7236921F0070141F0060121
:103B1000062DD3F8009021832DD1B9F1000F3FD0AD
:103B200041F00801218388F31188BFF36F8F20468D
:103B30003949C84729E021F00701236941F0040110
:103B400089B2042DD3F804902183E6D000274FF0EA
:103B5000040A3E4682E721F00701236941F005018E
:103B600089B2052DD3F808902183D6D000274FF0D5
:103B7000050A3E4672E700274FF0060A3E466DE70B
:103B80002B4687E7B9F1000FD1D1EFF3118820233D
:103B900083F31288BFF36F8F238B23F008032383F3
:103BA000258BEA062ED525F01003238305F00705A3
:103BB0006669218B002EBFF670AF00232768C4E929
:103BC000003321F0070141F001012183218B4FF0E7
:103BD000000901F0070AAA457FF440AF002F9CD0EE
:103BE00041F00801218388F31188BFF36F8F002F04
:103BF000C8D03D6839463346524620460CF055F948
:103C00002F46F4E7AB067FF51BAF25F02003238397
:103C100005F0070500E700BFD7FE00002DE9F047DB
:103C2000044607464FF00109DFF8508014B93846C2
:103C3000BDE8F08794FAA4F5B5FA85F509FA05F31D
:103C40002E0108EB05156FEA030A24EA03042B7B17
:103C5000002BEBD058F806301B694BB9464473680B
:103C600004222846196807EA0A070CF0C6FADDE7BD
:103C7000284698470028D9D1F0E700BF1058010026
:103C800030B5002289B00F490F4810F00BF8002220
:103C900000230024CDE906230E230C4DCDE9033487
:103CA0004FF440722846CDE90144094B094900947C
:103CB00008F032FC0849284608F06EFB204609B09F
:103CC00030BD00BFDD3C0000A8080020D803002064
:103CD00025400000E01E002018260200014808F0E0
:103CE000B3B900BFA00300202DE9F047804621486A
:103CF0000F460CF05EFA0646002833D00025284611
:103D0000BDE8F087237B83B12368DB680BB12046D5
:103D10009847636883F8069023681B69D3B9636882
:103D20000422204619680CF068FA01361034544514
:103D3000E8D3B8F1000FE2D0002DDFD02846FFF71E
:103D40006DFF0546002FF7D0002140F2391008F032
:103D500019FFF1E7204698470028E0D009FA06F35A
:103D60001D43E2E705464FF00109034CDFF80CA0C4
:103D7000DDE700BF28100020105801002058010086
:103D800008B5034608462BB1044A136000F08AFDCB
:103D9000002008BD6FF01500FBE700BFD400002035
:103DA00010B5044C237813B9034808F04DF90123EA
:103DB000237010BD4F1E0020A003002010B5044644
:103DC00009480CF0F6F93CB1084BD3E8EF1F013974
:103DD000C3E8E21F002AF8D105480FF06FFFBDE8E5
:103DE0001040044808F030B92010002024100020B2
:103DF000A8080020A003002000200146034BD3E8C0
:103E0000EF0FC3E8E21F002AF9D17047201000200D
:103E100070B5FFF7F1FF0546074C084EB44200D3DA
:103E200070BD63685B792BB123685B6813B1294669
:103E3000204698471034F1E710580100205801003F
:103E400010B5044C044920460BF070FE034B1C6077
:103E500010BD00BF9C020020BCFC01001810002017
:103E600000230E4A10B513700D4A0E4913600E4A16
:103E70000E481360FFF784FFFFF7E2FF00F09AF9A6
:103E80000B4B0C4918468B4200D310BD1A1A5C68C4
:103E90001211013222711033F5E700BF501E0020CD
:103EA0002010002040420F0024100020AF0101002C
:103EB000105801002058010001460022002301484B
:103EC0000BF055BE9C02002001480BF0EEBE00BF77
:103ED0009C020020024B014618680BF03ABF00BF5D
:103EE0001810002001480BF06FBF00BF9C0200209B
:103EF0002DE9F041344B1878002862D0FFF7E4FF39
:103F00000446002859D1314B314C1B68002B19DD78
:103F10000FF0C6FE4FF47A75A0FB050647F6122295
:103F2000002305FB0161FEF755FCD4E90032C01AFD
:103F300040F2E93361EB0201984271F1000101D3D3
:103F4000FFF766FFD4E9003213F57A7342F10002FD
:103F5000C4E90032BDE8F041FFF7C4BF6B685B798C
:103F60003BB121784B0713D52B68214628461B68A7
:103F7000984710354545F1D32046FFF7ABFF154B69
:103F8000D3E8EF1F0139C3E8E21F002ABBD0F7E7EF
:103F900020462688C1F3C20700F0C2FAC6F3821693
:103FA0000246002EE0D00028DEDB012339462846F9
:103FB00000F0B0F9B042DCD3D6E7074DDFF81C8043
:103FC000D8E7BDE8F08100BF4F1E00202010002080
:103FD000A0080020241000201058010020580100E3
:103FE00070B50D4D297861B90120FFF77DFE0B4CAE
:103FF0000B4EB44206D3FFF77BFF0028FBD1012311
:104000002B7070BD63685B791BB1236820469B6889
:1040100098471034EDE700BF501E002010580100F3
:104020002058010000212DE9F0470846FFF75CFE0B
:10403000044658B340F21B684FF0000910F078FCBA
:104040001B4B1C4A1B58136033B11B4B1B68092BBD
:1040500002DD1A4807F0F8FF0025194FDFF85CA0D1
:1040600044B12046FFF7DAFD044618B94FF0FF3897
:104070004FF0FF39FFF73CFF064628B9B5B9424675
:104080004B46504608F01AF83546E9E74FF0FF383E
:104090004FF0FF39D2E72B689B691BB100222846FD
:1040A000114698471035BD42F5D3E8E7054DFAE7CC
:1040B000080000001C10002024100020A003002095
:1040C000205801001058010013B518480CF071F881
:1040D000174B1B7873B1EFF31184202383F31288FD
:1040E000BFF36F8FFFF704FF84F31188BFF36F8F67
:1040F00002B010BD0F4B1B68002BF9D050B9002245
:1041000000230D48CDE9002347F61222002309F0D1
:10411000EDF8EDE70928EBD107480FF0CFFD074890
:1041200002B0BDE8104007F08FBF00BF2410002090
:10413000501E00201C100020A8080020A003002012
:1041400010B5064B04461B6898472146A0600448FA
:104150000BF08CFDBDE81040FFF7B6BFD400002087
:104160009C02002008B50A46014602480BF045FEB5
:10417000002008BD9C020020014601480BF053BE00
:104180009C020020024B0348C01AC008704700BFC1
:104190005857010010580100044A054B9B1AB1EB17
:1041A000D30F34BF52F83100002070475857010038
:1041B0001058010000210B480B4B30B51B1A0B4C5B
:1041C000DB080430994200D130BD10F83120256859
:1041D00002F0070225F007052A4344F8042B0131B9
:1041E000F0E700BF5857010010580100E00200201E
:1041F000F8B5064600240A4F0A4DED1BED08AC4207
:1042000003D14FF0FF342046F8BD57F8340020B1F9
:104210003146FEF7F9FA0028F5D00134EFE700BF88
:10422000585701001058010000282DE9F047884632
:1042300015461F461DDA4FF0000A5446DFF89090ED
:10424000244EA6EB09063609B24509F1100902D140
:104250002046BDE8F08759F80C0C3B462A464146FB
:104260000079FFF7E1FF844238BF04460AF1010AF2
:10427000EAE7194B194AD21AB5EBD20F26D203EB53
:10428000C5031C79BC4228BF3C460722144EC0B26D
:1042900000EB400056F82530824023EA020304F088
:1042A0000702824013430021032223FA02F000F0A8
:1042B0000700814202F1030238BF01461E2AF4D1F1
:1042C00023F007030B4346F82530C1E70024DCE761
:1042D00010580100205801005857010010580100E3
:1042E000E0020020F8B506460F460024074D084BB3
:1042F000ED1AED08AC4200D3F8BD002122B23B46D6
:10430000304601340BF071FFA4B2F3E710580100FE
:104310005857010070B14168097973B1002A17DB61
:10432000CBB20C4903EB430351F82200D84000F014
:10433000070070474FF0FF31EFE707490748401A81
:10434000B2EBD00F3ABF01EBC201087918467047B3
:1043500004207047E0020020585701001058010067
:104360002DE9F04F8FB0C1F34A2804AF0D469146B6
:10437000B8607B600C0DB8F1000F67D000264FF0DD
:10438000040B4FF00A0A07F11403C7F80C80C7E9C1
:1043900007667E620193CDF808B0CDF800A007F162
:1043A0001C0332464846F968FFF720F9B0F5006F64
:1043B000034620D32A48036813F0060F17D06C4633
:1043C0008AB0D9F8041004AB264D1A46C3E905514A
:1043D00040F2FF71D9614FF400711984224B42F809
:1043E000103F4FF412513346FFF7BAFFA5462C3762
:1043F000BD46BDE8F08FC0F30A0804F11700184469
:1044000020F0070080083B60FFF756FD68F3532556
:10441000044690B13B6800F11001C7E9083607F186
:104420001403F961CDE900A3CDF808B048460F4A5E
:10443000F96807F11C03FFF7D9F868F353252A46FA
:1044400020467B68B9680BF00BFFD0E704F117003A
:1044500020F007008008FFF72FFD0446EDE700BFBE
:1044600008030020A1210200040000013502010020
:104470002DE9F04F87B00446DDE9105ADDE91279E5
:10448000934698460391DFB13B46524610210020E7
:10449000CDF80090CDF81490FEF7D6FEB0F5006F81
:1044A00006460ED31C48036813F0060F30D040F2C6
:1044B000FF730221194A07B0BDE8F04F0BF029BF86
:1044C0003E4605F11700304420F007008008FFF752
:1044D000F3FC04F007040BF0070BE40044EA8B1430
:1044E00044EA462444EA0554054640B13FB13B4600
:1044F00052463146CDF800901030FEF7A5FE4346F7
:1045000022462846039907B0BDE8F04F0BF0A8BE3D
:1045100007B0BDE8F08F00BF08030020E0210200D3
:10452000406820B1034BC01A40F38F0070474FF032
:10453000FF307047E00200200EB403B503AB53F820
:10454000042B01460448019303F022FC02B05DF8FD
:1045500004EB03B0704700BF75030100CA0605D421
:104560008B064CBF02490349FFF7E6BF704700BF07
:10457000DB290200D82202002DE9F04F89B09B46CA
:10458000149B9DF84CA00693159B04460593169B1F
:104590000D469046179E0493BAF1000F00F09D80DF
:1045A00006F4807307930BF01EFE06F00209024624
:1045B00000283ED020469149FFF7BEFF0746B9F1DB
:1045C000000F08D016F0440F35D12A4620468C49FA
:1045D000FFF7B2FF074406F0010353B1894B2046B1
:1045E00053F82A20884B8949002A08BF1A46FFF74A
:1045F000A3FF06F48073002B49D006F00803002BBC
:1046000063D1B8F1000F66D0424620468049FFF7DB
:1046100093FF0546069B3D44002B6DD1049B002B68
:1046200073D1F30700F1E48031462046FFF796FF8F
:10463000D8E00746C3E7774B18680028CAD0764B06
:104640004FF47A791B684FF03C0CB5FBF3F5B5FBE2
:10465000F0F14FF4616300FB115509FB05F5B1FB67
:10466000F3F2B5FBF0FE03FB121100FB1E55B1FB8C
:10467000FCF309FB05F5B5FBF0F50CFB1311204627
:104680000091CDE901E56549FFF756FFA2E706F085
:104690000803EBB1624B204653F82A206149FFF72B
:1046A0004BFF0546B8F1000F05D042462046584959
:1046B000FFF742FF0544BBF1000FABD05A4620463E
:1046C0005949FFF739FF0544A4E74FF0000BE1E734
:1046D00006F00805E6E745469CE7BBF1010F069B9F
:1046E00006D1002B64D1049B002B7BD000250CE06D
:1046F000002BF8D04D485CE04D48069B22464D49C2
:104700000BF0AAF8049B002B68D0DFF82C81DFF8AF
:104710002C91049F3146102F204628BF10274FF0C0
:10472000000BFFF71BFF5D4545DC059B4946204616
:104730001A78FFF701FF4FF0010B1BF0070F03D1B1
:1047400041462046FFF7F8FE5F453BD9059B4946A9
:10475000204613F80B20FFF7EFFE0BF1010BBBF126
:10476000100FEAD14FF0000B20463549FFF7E4FE69
:104770005A46059B20469A5CA2F120015F2928BF7A
:104780002E223049FFF7D8FE0BF1010BBBF1100FC1
:104790001DD01BF0070F03D141462046FFF7CCFE8A
:1047A0005F455A46E5D841462046FFF7C5FEEBE790
:1047B0001F485546A1E741462046FFF7BDFE0BF1D5
:1047C000010BB0E720462049FFF7B6FEC5E7059B81
:1047D0003B440593049BDB1B04939AD1BAF1000F71
:1047E0007FF41FAF204609B0BDE8F04F0BF0B5BD18
:1047F0002046054A0549FFF79FFE15E71D220200E6
:1048000021220200D0FC010018220200042C020028
:1048100046220200301000202C1000202A22020024
:10482000E4FC01004A22020050220200A30301001E
:1048300075030100917D00005D22020055220200F7
:104840005F220200223202005B22020042F20F735A
:1048500073B58B4228BF0B460568044605216846A0
:104860000D4A09F029FD0646636828460B225B685D
:104870000A490BF064FD63683246694628465B6866
:104880000BF05DFD63681B2228465B6804490BF052
:1048900056FD02B070BD00BF143902007D22020037
:1048A0006122020000210123064A904206D8064AEE
:1048B00001B901231360054B1860704701214008BE
:1048C0005B00F2E740420F002C1000203010002067
:1048D00000230428CB604B6098BF044B044A98BF68
:1048E00053F820308A600B60704700BF54FE01000F
:1048F000A45901000023084A0B60CB604B608A601A
:10490000064B074AD21AB0EB121F3EBF03EB00134F
:104910009B680B60704700BFD8FD01001058010074
:10492000205801000023064A10B50C46CB604B60AE
:104930008A6001461846FFF72FFC206010BD00BFBB
:10494000A45901002DE9F34105460E4C0E4E0F4FC0
:10495000DFF83C80B44203D3002002B0BDE8F08110
:104960006368284659791B7900290CBF3A464246AC
:10497000CDE900230821A368064A0BF0A9FF1034F3
:10498000E8E700BF1058010020580100B1220200E2
:10499000A9220200BA2202002DE9F74F04460020A6
:1049A0000D46FFF7EFFB074635B16B685B791BB926
:1049B00020461D490BF0B5FF082120461B4B1C4A21
:1049C0000BF086FF082120461A4A0BF081FF4FF0BA
:1049D0000008DFF864A00FFA88F6BE4208F101086B
:1049E00003D3002003B0BDE8F08F3246012300213D
:1049F0002846FFF78FFC0023324619468146284699
:104A0000FFF788FC834631460020FFF7C5FB5AF8C4
:104A10002B20034601925AF82920082100922046B3
:104A2000064A0BF055FFD6E7DB220200ED2202001A
:104A3000F92202001723020068FE0100542302003D
:104A400010B5C3693BB19B681C7924B903490BF0CD
:104A500076FF204610BD0120FCE700BF682302005E
:104A60002DE9F84F52F8048C064640469B468A468C
:104A70001746FDF7DBFE81460E4D0F4B9D4207D3D7
:104A8000424630460D490BF05AFF6FF007040CE028
:104A90004A464046A9680FF0F9FC074B044638B96E
:104AA0003B46524629463046D8472046BDE8F88F57
:104AB0001035E3E710580100205801008C23020054
:104AC00008B5024BFFF7CCFF002008BD9949000054
:104AD000014BFFF7C5BF00BF29040100014BFFF7E1
:104AE000BFBF00BFCF040100014BFFF7B9BF00BF3C
:104AF000494C0000014BFFF7B3BF00BF7904010030
:104B00001FB5044602A901A8FFF72CFB002807DA0D
:104B1000204613490BF013FF6FF0070004B010BDDF
:104B2000204610490BF0EFFE2046019A0E490BF08B
:104B3000EAFE2046029A0D490BF0E5FE03A8FFF7B6
:104B40001BFB002805DA204609490BF0DCFE00209B
:104B5000E4E72046039A07490BF0D5FEF7E700BFCC
:104B6000A1230200D2230200FA2302000F24020034
:104B70002C240200642402002DE9F74F8046894668
:104B80009A4615469ABB1046FFF7FCFA0746B9F15C
:104B9000000F07D0D9F804305B791BB9404626498D
:104BA0000BF0BFFE0024BC421EDA25B35AF82430B5
:104BB00000200193FFF7E6FA00268346B3450AD0AA
:104BC00031460020FFF7E8FA402201990FF05EFC21
:104BD00078B9002E2ADA5AF82420404617490134C1
:104BE0000BF0ADFEA742E1DC03B0BDE8F08F174645
:104BF000CDE70136E2E7A34600210C9B22B24846EE
:104C00000BF0F3FA0C9B044683420CD08DB9594645
:104C10002846FFF7C1FA0246094B404653F82430B4
:104C200008490BF07EFE0BF10104BCE7A3463446B5
:104C3000E2E75AF82B20EFE77E240200A9240200C5
:104C400068FE0100932402002DE9F74F05468846CF
:104C500091461E460027D3F804A0DFF844B0042292
:104C600050465BF8041B0FF011FC044650B10137AD
:104C7000052FF4D1524628460A490BF060FE6FF02A
:104C8000070408E041462846009706F10803A9F109
:104C90000202FFF771FF204603B0BDE8F08F00BFAE
:104CA00068FE0100C3240200014B0360002070472E
:104CB0007CFE010003289ABF024B53F820000248F3
:104CC000704700BF7CFE0100DC29020010B50446DD
:104CD0000EF0A8FC0349024620460BF014FE00200B
:104CE00010BD00BFAD2602001346002273B5044676
:104CF00001920A21586801AA01F0B2FC019D95B900
:104D000020EAE07447F61226294640F2E7304FF4D5
:104D10007A720023C4FB0601FDF75CFD07F032FF49
:104D2000284602B070BD2A46204602490BF007FE15
:104D3000019DF5E7D926020008B5034A03490BF0A7
:104D4000E2FD002008BD00BFC9270200D0270200F5
:104D5000F7B51746002305460A2101AAB868019352
:104D600001F07EFC1749C6B228460BF0DAFD019C23
:104D700044B12246284614490BF0E1FD019C20462F
:104D800003B0F0BD042E09D9324628460F490BF076
:104D9000D6FD28460BF027FE0124F0E77868FFF7E0
:104DA00027FA021E07DA28467A6809490BF0C7FD80
:104DB0006FF01504E3E733462146204612B20BF0AC
:104DC00014FADCE7FB2702006128020088280200B1
:104DD0009F280200002307B50090694604488DF81B
:104DE000043008F081F89DF8040003B05DF804FB7E
:104DF000B705010010B5044605F028F90749024639
:104E000020460BF080FD204605490BF07CFD214635
:104E1000044808F083F8002010BD00BFFE280200FF
:104E20001D290200294E000070B58EB004460D46C3
:104E3000D0F8AC600EF0FAFD03460FF079FD214A80
:104E400021491058214A002B18BF1A460092204AC7
:104E50002346844218BF0A4628461E490BF053FDDC
:104E6000D4E90A23CDE90023284694F90E30227BA9
:104E700019490BF048FD06A92022204607F09CFAAC
:104E8000636F0246154928460BF03DFD204605A9F3
:104E90000EF0DAFD024628B1284611490BF033FD29
:104EA0000EB070BD6422059B2846F11A4A43B2FB3E
:104EB000F6F20091CDE901620A4932460BF023FD7A
:104EC000EEE700BF080000005D2202002729020073
:104ED0007D3C02002A2902003629020062290200D4
:104EE00079290200A6290200F0B50025044691B0F8
:104EF000294608AF1C2209A80FF0A3FA134E1A2264
:104F0000202138460FF09DFA2146114808F006F896
:104F100007AA4FF4006130460EF08AFD6423079A19
:104F20002046C2F500614B43DB0A05934FF4006352
:104F30000097CDE90313CDE9013206492B463246ED
:104F40000BF0E1FC284611B0F0BD00BFE0290020C5
:104F5000594F0000F729020070B504460D46D0F8FD
:104F6000AC6088B007A90EF06FFD024628B1284654
:104F70000E490BF0C8FC08B070BD20460EF056FD7F
:104F80006422079B0096F11A4A43B2FBF6F2CDE980
:104F90000131074BCDE90362002818BF03462246C2
:104FA000284604490BF0AFFCE5E700BF7929020071
:104FB00027290200402A020038B513460546102270
:104FC0000021586809F01AFA0446FFF703FF38B9C0
:104FD000224628460D490BF0B2FC6FF0150038BD93
:104FE0000FF0A6FC0A4B1B589C4204D128460949E5
:104FF0000BF0A5FCF1E7204607F0A4FB284622466B
:1050000005490BF080FC0020E9E700BFA42A02005C
:1050100008000000BF2A0200E72A020038B5134644
:10502000054610220021586809F0E8F90446FFF708
:10503000D1FE38B9224628460D490BF080FC6FF0AE
:10504000150038BD0FF074FC0A4B1B589C4204D16C
:10505000284609490BF073FCF1E7204607F090FC65
:105060002846224605490BF04EFC0020E9E700BF28
:10507000A42A020008000000262B02004C2B02008C
:1050800038B51346054610220021586809F0B6F9D4
:105090000446FFF79FFE38B9224628460D490BF01B
:1050A0004EFC6FF0150038BD0FF042FC0A4B1B5848
:1050B0009C4204D1284609490BF041FCF1E7204607
:1050C00002F024FB2846224605490BF01CFC002078
:1050D000E9E700BFA42A020008000000872B0200B5
:1050E000AC2B02002DE9F04F89B0054602A806F06E
:1050F000C3FC2823029F082103FB00772D4A284682
:105100000BF0E6FBDFF8B0A0029CDFF8B0B0BC42C9
:1051100003D3002009B0BDE8F08F23680BB11A78E3
:1051200032B923461421264A03A809F0C5F803AB77
:105130005246082128460BF0CBFB20460EF0E3FB3D
:1051400068B3002320460DF107018DF807300BF0FE
:10515000FDF910BB9DF80700FFF7ACFD03460821E1
:105160002846184A0BF0B4FB636AA3B11E6896B1D7
:10517000336883B108212846134A0BF0A9FBB146D6
:105180004FF000083368114A43450AD808212846E1
:105190000F4A0BF09DFB2834B9E70E4BDFE75B4667
:1051A000DDE70821284659F8043F0BF091FB08F190
:1051B0000108E7E7F32B0200022C0200EA2B0200B1
:1051C000FD2B020081320200072C0200032C02009A
:1051D000DB290200E42B02002DE9F0411446884649
:1051E000074610220021606809F008F9B8F1020FA3
:1051F000064607D8202308213846244A0BF068FBCE
:10520000336816E00A220021A06809F0F7F8C5B259
:105210002B46082138461D4A0BF05AFBB8F1030F04
:105220001AD1102D0CD0202DEAD0082D0BD13378B7
:10523000DBB208213846164A0BF04AFB002009E091
:1052400033889BB2F5E738460821124A0BF040FB41
:105250006FF01500BDE8F08110220021E06809F030
:10526000CDF80821034604460B4A38460BF030FBC4
:10527000102D06D0202D07D0082DE4D1E4B23470D3
:10528000DCE7A4B23480D9E73460D7E7412C0200D0
:105290006C2C0200562C02007D2C020000232DE90C
:1052A000F04F91464FF0FF35012287B00193504BEC
:1052B000074688461A60202602F0ACFD2C46DFF82F
:1052C00034A149465246404602F0C8FD411C06D171
:1052D0006A1C41D1484938460BF031FB17E073286E
:1052E0001AD0772828D0612811D1DFF810B1102109
:1052F000DBF8000001AA01F0B3F9019B0546002B81
:10530000DFD0DBF800203E4938460BF018FB6FF089
:10531000150007B0BDE8F08FDFF8E0B00021DBF842
:10532000000001AA01F09CF9019B0446002BC8D0A3
:10533000DBF800203349E7E7DFF8C0B00021DBF8F5
:10534000000001AA01F08CF9019B0646002BB8D0A1
:10535000DBF800202C49D7E7631C01D12B49BAE7C1
:105360005FFA86F8C6F3C406002C3FD002AB29468C
:105370001A46A6EB050C0CE0B8F1100F1DD0B8F1E1
:10538000200F20D0B8F1080F2AD1087818703144C6
:105390003344A64203D80CEB01001028ECD9102CA2
:1053A000A14628BF4FF0100929464B46384601F068
:1053B0002FF81035A4EB0904D6E7088880B21870DE
:1053C000000A5870E3E708684FEA102E187083F857
:1053D00001E04FEA104E000E83F802E0D870D6E7E5
:1053E000082138460A4A0BF073FA90E7204690E706
:1053F00034010020CB2C0200D22C0200F413002038
:10540000912C0200A42C0200B72C0200EF2C020009
:10541000562C020070B50F4E04460D46337871B11C
:1054200023B10D49BDE870400BF089BA01233370F8
:1054300020460A490BF067FA0123337004E083F039
:1054400001033370002BF3D129462046BDE870409C
:105450000BF0E7BA511E0020092D0200442D020076
:1054600070B504463B480378182B02D10B78112BFA
:1054700031D00B46013A8D18AB4225D18B5C0A78AE
:105480000370A2F13003092B334C04D922F020031E
:10549000413B052B04D823683049CA5401332360AB
:1054A0002368022B33D1102200212C4808F0A6FFDC
:1054B0002B4A136803F8010B13602A4A136801335F
:1054C00013600023236022E013F8016B182ED3D160
:1054D0001E78112ED0D1234D20462A6822490BF088
:1054E00012FA20460021FFF795FF204B187870B97B
:1054F0001F4A2B681168042B0ADC08B111602B606D
:1055000013F003010BD1126813681BBA136070BD4E
:105510000868043B00BA41F8040B0120EBE75B424A
:1055200003F0030358BF5942022904D112681388BB
:105530005BBA9BB2EAE70329E9D11068026811045B
:10554000C2F3074301F47F010B4302F47F4213438C
:105550000360DCE7521E002034100020541E00209F
:1055600040100020381000206E2D0200531E002035
:105570003C1000202DE9F84F0023064615460C4646
:105580002949DFF8A8800B602949DFF8A890DFF8E7
:10559000A8B088F800300B60012C2F4655F804AFF6
:1055A0001ED90222494650460EF070FF80B99AF883
:1055B0000220003A18BF01229244504602221F499D
:1055C0000EF064FF30B9012388F80030013CE3E7B6
:1055D0000022F1E749465046FDF716F9A8B904370D
:1055E00000227868114608F009FF0022144B11468A
:1055F0001860786808F002FF124B134918603046B3
:10560000FFF708FF0020BDE8F88F9AF800202D2A48
:10561000E6D19AF80120002AE2D052465946304697
:105620000BF071F9D2E700BF34100020531E0020A8
:1056300038100020882D02008E2D02008B2D0200D4
:10564000401000203C1000206154000007B50A48BB
:105650000EF059F960B10423084A0093126801233F
:105660000549074800F03AFF002003B05DF804FB4D
:105670006FF01200F9E700BFF44A010034FF0100A7
:105680002058010010B54468C4E90012A3604268C4
:105690004021134653F8404B51635362002302F1FB
:1056A0003801C2E904130821C2E90A33C2E906330A
:1056B00013631162C2F8B830A36823B11B6C13B135
:1056C000204604499847A3681B6A0BB120469847B7
:1056D000002010BDD95600002DE9F34705460C46C1
:1056E0008368DB6B03B19847AB68DB6A73BB4FF031
:1056F000000904F1240704F12808218E238D626B30
:105700005B1A9BB2D31A934228BF134641463846D0
:1057100001AA0AF0A8FC8246002844D0AB6801998F
:105720001B69002B33D0024628469847064688B3AB
:105730003246414638460AF0CCFC56454FF0010946
:10574000DBD00020D4E90131984703E02846984790
:105750000028CCD1AB68DB69002B37D1628BE38AA0
:1057600004F110079B1A226A9BB2934204F11A08B3
:1057700028BF13464146384601AA0AF074FC064683
:1057800058BB28460AF02DFFC4F8B86031E06FF02E
:105790005706CDE70246414638460AF09AFCB9F171
:1057A000000FD7D0CDE71748036813F0060F03D0DA
:1057B0000221154A0AF0A4FDAB681B69002BEED04C
:1057C000012228460DF103019847E8E7284698474B
:1057D0000028C3D102B0BDE8F087AB680199DB684F
:1057E00063B10246284698470246414638460AF0C9
:1057F00070FCD4E9013101209847EBE76FF05702C4
:10580000F3E700BF28030020F52E020010B5044680
:105810008168183101F088F9A1682046BDE8104080
:10582000014A183101F026B9372F020038B58368D4
:105830000446D3F87832DB071DD4C0690BF064FE50
:10584000606803685B689847054620B9E0680CF01B
:1058500008F8A3681D75A3685B6C13B12946204640
:10586000984700220FF064F8A368C3F82023034B85
:10587000185801F04BFF6FF00F05ECE7080000002F
:1058800001490AF040BF00BFDB290200F7B504461A
:1058900080680D46D0F878325A0705D500210AF005
:1058A0005AFFE0680BF0AFFFE368DB6873B9002DC7
:1058B0003BD0A66806F1560738460AF031FF0028AB
:1058C00035D0394606F5AB70FCF7A8FFA26829462B
:1058D000E0680DF1060356320BF098FF58B9A06846
:1058E00000F5AB715630FCF799FFA06856300AF00E
:1058F00017FFADF8060020460BF0CEFBA368D3F8E7
:1059000074329B0603D50B4960690AF0FCFE204601
:1059100000F00CFFA268BDF806302046A2F8523015
:10592000A268A2F850300BF01CFB03B0F0BD86F863
:105930005601CBE7C85901002DE9F04FA7B0044646
:105940005422002111A80EF07CFD0023CDE905337F
:10595000A3682046563302930BF0A5FB20460BF0BC
:10596000E9FA10B96069FFF78BFF00264FF0FF37A7
:10597000B246B3463546B146A0681422002118301D
:105980000EF05FFD20460BF06CFAA168E068B1F8FC
:10599000502056310BF071FF20460CF000F80DF14D
:1059A00044080396DDE90532012A6DD0132B6ED829
:1059B0005FBBBBF1000F0AD020460CF011F8142396
:1059C000A26811A956320DEB03000BF0CAF8B9F129
:1059D000000F0CD099F81130FE2B08D1059B26AA98
:1059E00002EB830252F8542C0AB101330593A068EC
:1059F000059D436A002B40F0B680CEB1C3699E423C
:105A00002DD00D9600F1180524E002234146029A9C
:105A100006A80BF0A6F8D8F80420069903460292CF
:105A200031B101290AD148B16D4A20460BF0E9FB9A
:105A30006FF00705284627B0BDE8F08F059B002BC7
:105A400034D0D8F8000001F08FF898B166B1A5689D
:105A50000D9618350CAE0FCE0FC533682B6020465F
:105A6000FFF7D4FE0125E5E75E4A012120460BF051
:105A7000C8FBDDE7059BCBB129462046D8F80020BE
:105A800001F014FA022809D1059B132B91D9069B2A
:105A9000022B8ED10121544B544AC6E7032805D06E
:105AA000059B4FF0010B013305937BE7039B33B953
:105AB0004846D8F8001007AA0BF04AF9054608F145
:105AC0000408013F9DB3EB68BBF1000F08D0F3B1B0
:105AD00020460BF0E8FA20460BF043FA444AC4E7AC
:105AE000ABB1AE46A368DDF814A003F1180CBEE814
:105AF0000F00ACE80F00DEF80030CCF80030AB68E7
:105B00002BB96B7CFE2B04BF2F7C07F1FF37D5F838
:105B100004C0BCF1000F08D0AE460CAEBEE80F00CA
:105B20000FC6DEF8003033606646A94603E0059BE9
:105B300053B101230393069B17B9022B7FF432AFB5
:105B4000059B013305932DE7A368DB6A13B1DB687E
:105B5000002BEED1274B012100932046119B264AB2
:105B60000BF04FFBE5E790F82830A5EB0A05BBB139
:105B70004FF6FF7290F82910FF2918BF0A469D4280
:105B800002D313449D420BD98369012120461B4A4D
:105B90000BF037FB2046FFF739FE6FF0150549E79C
:105BA00001210AF0CDFDA06800F543700AF0ECFD7C
:105BB000A36811AA294602EB8A0220465B6A98472D
:105BC0000546A0684FF0FF324FF0FF3300F54370F9
:105BD0000AF081FD0021A0680AF0B2FD2AE700BFAB
:105BE000452F0200592F0200BA2F02009D23020008
:105BF000772F0200A62F0200AA320200DE2F020039
:105C0000022210B5836804461A7583689B6CBBB981
:105C10000AF040FD8368D3F87832DB040BD503210A
:105C2000084B094A0BF0EDFAA0686FF4805100F5BB
:105C30001E700AF045FD2046BDE8104000F0FCBE95
:105C400010BD00BFF92F0200042C02002DE9F04F17
:105C5000044680680121B1B000F51E700AF025FDF0
:105C6000A3681B7D022B20D100230993A3686068E1
:105C70009E6C03681D6909AB0EB310221BA9A847CF
:105C8000099B93B10121A0680AF05AFD2046099AA8
:105C90001BA9B0470021A0680AF052FDA3689B6CC5
:105CA000002BE3D12046FFF7ABFF6FF00101A068A6
:105CB00000F51E7031B0BDE8F04F0AF001BD0122C1
:105CC0000DF12301A847099B002BEED09DF923205D
:105CD0009DF82330002AA068C8DB427D032A00F229
:105CE000F482DFE812F0040074028B02F2020D2B42
:105CF00067D00A2B43D0B0F87822092B6FF3CA0281
:105D0000A0F8782272D029D8002B00F00381082B4C
:105D1000A06800F0E8810246D2F87412890740F1C9
:105D2000F980013B162B00F2F580DFE813F0B70293
:105D3000F901FD01F501B1020F02F300F300F300D8
:105D4000F30013021702F3002C02F3003102F300F8
:105D5000F300F300F3003302F30048021B2BA068AA
:105D600041D07F2B00F0CB81A3F120015E290246B8
:105D7000D2D801210AF0EFFC9DF82310B8E0D0F84A
:105D80007822C2F3C7022AB1D0F87822C2F3C70240
:105D90000A2AC0D1B0F8782263F3CA02A0F87822A8
:105DA000A568B5F85010C1B928460AF0D4FCE068DF
:105DB0000BF029FD6069FFF763FD2046FFF720FF28
:105DC00054E7D0F87822C2F3C702002AE2D0D0F814
:105DD0007822C2F3C7020D2ADBE72046FFF7ACFDAD
:105DE000C5F82403E9E70123437593E0A068D0F8E0
:105DF00074329B0740F18E8001210AF0ACFCA06850
:105E0000B0F85030FF2B00F085800025B0F852200C
:105E100000F1560100F5AB700EF0ECFAA3681BA977
:105E2000B3F852200BA8134483F85651A2681423E8
:105E300002F5AB720AF095FE0B9914296AD830ABC3
:105E400003EB810343F8545CA368B3F85220002AA3
:105E500052D0134493F85530202B02D0093B042B29
:105E60004AD800294BD100250A950A9B30AA02EB9B
:105E7000830353F854AC002650460AF051FCB34655
:105E80008146B04637463946284616AA00F0AEFB92
:105E90000346002842D1012E68D10A9B30AA02EBAA
:105EA000830353F8540C0AF03BFCA26806464146B3
:105EB0002846183200F09AFB056828460AF030FCA4
:105EC000864205D0821B92B22046A9190BF0E0F958
:105ED000A068B0F85230034493F85630202B34D0E9
