:10000000180B002039190000177400002519000092
:1000100025190000251900002519000025190000E8
:10002000000000000000000000000000ED190000CA
:100030002519000000000000951900002519000096
:100040005D1B00005D1B00005D1B00005D1B0000D0
:100050005D1B00005D1B00005D1B00005D1B0000C0
:100060005D1B00005D1B00005D1B00005D1B0000B0
:100070005D1B00005D1B00005D1B00005D1B0000A0
:1004800053B94AB9002908BF00281CBF4FF0FF31FB
:100490004FF0FF3000F00CB8ADF1080C6DE904CE60
:1004A00006F0C8FBDDF804E0DDE9022304B0704784
:1004B000704700BF034613F8012B002AFBD1181A1E
:1004C00001387047000000002DE9F04F87B08046EA
:1004D000029193460393836804AA5B6898470028B7
:1004E00033DBDDE9044A224BA4FB036703FB0A77F5
:1004F0001BA3D3E9002330463946FFF7C1FF1AA3F7
:10050000D3E90023BB4208BFB242814620D314A3E3
:10051000D3E90023ABFB04450BFB0A5520462946D3
:10052000FFF7AEFF10A2D2E90012AA4208BFA14213
:1005300003460DD39945D8F808200CD303994046BB
:100540000091146802994A46A04707B0BDE8F08FB1
:100550006FF08500F9E76FF01500F6E7AFF3008064
:1005600000CA9A3B00000000FFFFFFFFFFC99A3B53
:1005700040420F002DE9F0430024354B85B0029333
:10058000CDE90044234603223249204606F0B6FC5A
:10059000314D284608F0A9F8034668B92A682D4964
:1005A00003922E4A0090CDE90102012206F0A6FC3A
:1005B000002005B0BDE8F083294B00940393294B3C
:1005C0000322CDE9014323492346204606F096FC49
:1005D000254D264E0024FF27DFF87C800023B4FB46
:1005E000F7F219464046FFF76FFF002809DA204B63
:1005F0000390029300230122CDE9003315491846E8
:10060000D4E704F5371440F2AA30002104F5D86489
:1006100008F075F9AC42E1D134464FF0FF08DFF83D
:100620003890144F0023B4FBF8F219464846FFF700
:100630004BFF0028DBDBA4F5371440F2AA30002181
:10064000A4F5D86408F05BF9BC42EBD1C2E700BF67
:100650008C9E0000A49800002C8E0000B09E00002C
:1006600040420F00D29E000080C4600FC0FD320FD8
:10067000FC9E00004039D2FF2DE9F04F1F4691B09B
:1006800002F004030193C2F3C2030133059383070D
:1006900005460E460392DDF868B040F08F81041DD8
:1006A000002840F08E8101F007063444C6F10806A8
:1006B0004FF0000A4FF0FF32D1464FF004087B1E86
:1006C000CDF808A0CDF810A005B127600598002846
:1006D00007DC88488742C0F0AA808748874280F0BC
:1006E000A680039911F0020E00F0C1804FF0010CBA
:1006F000601BBEF1000F00F0A080B0F5007FC0F0DD
:100700009C806FF0150058E020385A2834D8DFE874
:1007100000F060333360333233333333706033602F
:1007200060336060606060606060606033333333AA
:100730003333334433333344444433333333603318
:100740003333333333333333333336333333333376
:100750003333334433363644444460365E33603397
:100760002E362E3333866D36333336336D0000200C
:100770004FF0000A0EE0013A4FF0000A29E013F8AA
:10078000010C6C284DD113F8020C6C284FF00000BE
:10079000824649D04FF004082CE00CF1070B2BF0F7
:1007A000070B07340BF1080C24F0070465B1069819
:1007B0002044B04204D96FF01B0011B0BDE8F08FA7
:1007C000DBE900ABC4E900AB4FF0000A08344FF09E
:1007D000080813F8010F002800F08280BAF1000F1A
:1007E00092D12528F5D14FF0010A01324FF00408CB
:1007F000EFE70020013C4444B4FBF8F408FB04F4A8
:1008000025B1A8EB050EA644B645D4D800284AD099
:10081000E34605985BF8047B0138059054E75046A1
:10082000A6E700208246E5E74FF00808E2E70399D3
:100830004FF0000C01F0020E5AE7B9F10F0F3FF62E
:1008400060AFF5B110A901EB090EC0F387000EF8F7
:10085000200C0EF8102CBCF1000F0ED060F07F00C1
:100860000EF8200C02980130029009F10109C5F13F
:1008700008000434DC460690ABE70498013004908D
:10088000F3E7BCF1000F01D00136EEE70198023624
:100890000028EAD13846CDE90623FFF70BFEDDE953
:1008A00006230644E1E7B8F1040F08D10CF1040176
:1008B00015B1DCF80000206004348C4689E7B8F1FB
:1008C000080F7FF41EAF0CF1070B2BF0070B0BF199
:1008D000080C1DB1DBE90001C4E90001083478E728
:1008E000631BB3F5806FBFF40CAF3DB9A6F10804EC
:1008F000E01862E7448C0000B0A90000019A9B0850
:1009000028602B709DF810308AB16870EB70029BE4
:10091000AB702BB1002208A9C5F10100914509D1A6
:100920004FF00008C5F1010A0DF1300B35E06B7096
:10093000019BEBE711F8013B13F0800F08D000EBAF
:10094000040CB44503F07F033FF635AF04F8013BD8
:100950000132E3E7029B23B108AB13F90830002B07
:1009600019DB019BEBB118F80B3004F8013B0023B5
:100970000AEB04021A44B2423FF61DAF08AA12F86D
:100980000820394604F8012B20461A46039308F044
:1009900034F8039B1C4408F10108C145DAD1601BFF
:1009A0000BE708AB13F80830019A55F8237045F8A7
:1009B00023203846FFF77EFD431CD9E76FF00D007A
:1009C000FBE607293FF674AEF5E600BF014B186061
:1009D000704700BF000000202DE9F84FB0F81890D4
:1009E000044619F008080DD001290CBF49F0100980
:1009F00049F02009A0F8189082F31188BFF36F8F97
:100A0000BDE8F88F09F00709022907D1204606F052
:100A100029FB0028F0D00128238B4AD16769238B5A
:100A2000002F15DA2568C4E9008823F0070343F096
:100A3000010323830026238B03F0070ACA4502D053
:100A4000A168002956D10DB9002E6CD0002152E0CA
:100A500003F00701481F01281CD823F007030629CB
:100A600025689BB2C4E9008802D15DB943F0020356
:100A70002383204606F0F6FA0028DBD0238B43F0D0
:100A80002003D6E72946608B01306083096800297E
:100A9000F9D1EBE704290AD123F0070399B22183A6
:100AA000204606F0DFFA10B141F020012183002535
:100AB000C0E7032809D1216923F007030E6843F03A
:100AC0000603002523832F46B5E7042806D12169B4
:100AD00023F007034E6843F00403F2E7052806D12C
:100AE000216923F007038E6843F00503E9E7002539
:100AF0002E46E8E7012143F00803238382F311889F
:100B0000BFF36F8FF1B97DBB16B120492046B047C6
:100B1000EFF31182202383F31288BFF36F8F238BAF
:100B200023F008032383238BD90627D5012123F043
:100B300010032383B4F8189009F0070900297FF403
:100B400063AF59E7A1680029DDD0D1F80090D1F852
:100B500004B03B4652462046D847B9F1000FD2D0E8
:100B60004946D9F80090F2E7D5F8009029463B466F
:100B70005246204606F092FA4D46C4E713F0200193
:100B80001EBF23F0200323830221D3E7C970000096
:100B90002DE9F84F82463648884606F02FFB00289C
:100BA00058D000252846BDE8F88FE31B62681B116A
:100BB00001331371237B8BB12368DB680BB12046B3
:100BC0009847636883F8069023681B69002B39D126
:100BD000636804221968204606F031FB01361034A0
:100BE0005C45E2D3BAF1000FDCD04FF00109002DD3
:100BF000D7D02E4695FAA5F4B4FA84F409FA04FA8B
:100C00006FEA0A0A240107EB040B9BF80C3005EA93
:100C10000A055BB13B591B692BBB3C44636804224A
:100C20001968584606EA0A0606F009FB002DE1D1CC
:100C3000B8F1000F04D040F23910002107F05FFE38
:100C40003546D4E7204698470028C1D009FA06F374
:100C50001D43C3E7074C064605462746DFF818B094
:100C60004FF00109BCE7584698470028DED1D4E789
:100C700030040020CC980000DC980000014B53F8B1
:100C8000200070471899000008B530B1044B186077
:100C9000084600F03DFA002008BD6FF01500FBE7A4
:100CA000040000200023054A05491370054A064840
:100CB0001360064A1360FFF7E7BF00BFEC06002091
:100CC00040420F002C040020F9710000280400208D
:100CD00070B50B4D297841B90120FFF759FF094C38
:100CE000094EB44202D301232B7070BD63685B7957
:100CF0001BB1236820469B6898471034F1E700BF7A
:100D0000EC060020CC980000DC98000010B50446EA
:100D1000064806F073FA3CB1054BD3E8EF2F013AD1
:100D2000C3E8E12F0029F8D110BD00BF2C0400203A
:100D30002804002070B50A4B05461B689847094CEB
:100D4000094EA860B44200D370BD63685B7923B1DB
:100D5000236829461B68204698471034F2E700BFF5
:100D600004000020CC980000DC980000044A054BE9
:100D70009B1AB1EBD30F34BF52F8310000207047FB
:100D800044980000CC9800002DE9F04F87B004AFE4
:100D9000BE6B83468846924699463C6BEEB1FB6B30
:100DA00010217B6000937A6B33460020FFF764FCD0
:100DB000B0F5006F014611D340F2FF730393184B57
:100DC0000222029300231749CDE90033184606F0AA
:100DD00059FA0C37BD46BDE8F08F314600256FF358
:100DE00007056BF3C5056AF3881561F3532564F3B2
:100DF0001F5517340C4424F00704ADEB040D04AC6C
:100E00003EB1FB6B7A6B009304F110003346FFF7A1
:100E100033FC4B462A464146204606F019FAD8E7ED
:100E2000529F000074980000406820B1034BC01A24
:100E300040F3CF0070474FF0FF30704744980000F8
:100E40000EB403B503AB53F8042B014604480193D9
:100E500001F0A4F802B05DF804EB03B0704700BFE6
:100E6000C17200002DE9F04F89B09DF84C90044606
:100E70000F4605929846179EB9F1000F00F0EE80DC
:100E800006F00103069306F4807306F0020A06F0EA
:100E9000080B079306F0D1F920B102468649204697
:100EA000FFF7CEFF0546BAF1000F09D016F0440F48
:100EB00040F0A9803A4681492046FFF7C1FF05442A
:100EC000069B53B17E4B7F4953F829207E4B204629
:100ED000002A08BF1A46FFF7B3FF079B002B18BF75
:100EE0004FF00008BBF1000F07D0784B784953F85A
:100EF00029202046FFF7A4FF8346059B2BB11A4605
:100F000074492046FFF79CFF8344B8F1000F05D0D9
:100F1000424671492046FFF793FF83446F485D4482
:100F2000149B1BB122466E4906F054F8169B002B09
:100F300049D0DFF8D081169F102F28BF1027F30665
:100F400006D4B00640F1928066492046FFF778FF4C
:100F50004FF0000A554500F38B804FF0000ADFF890
:100F6000A8B1574540F29480159B594613F80A20C2
:100F70002046FFF765FF0AF1010ABAF1100F7ED192
:100F800059492046FFF75CFF4FF0000BDFF87CA1CA
:100F90005F4540F28B80159B514613F80B2020468D
:100FA000A2F120035F2B28BF2E22FFF749FF0BF190
:100FB000010BBBF1100F70D1159B3B441593169B91
:100FC000DB1B1693B7D1B9F1000F0FD0F10704D591
:100FD0003D4A3C492046FFF733FFF20606D4B306EC
:100FE0004CBF404941492046FFF72AFF6268A1688B
:100FF000D2E90023206806F055F9002263681A60E0
:1010000009B0BDE8F08F3A4B186800283FF457AF9D
:10101000384B4FF47A711B684FF4616CB7FBF3F7F0
:10102000B7FBF0F300FB13774F43B3FBFCF2B7FBC6
:10103000F0FA4FF03C0E0CFB123C00FB1A77BCFBA5
:10104000FEF34F43B7FBF0F70EFB13C1CDE901A749
:10105000009120462849FFF7F3FE30E71F48274B51
:101060004D46B8F1010F18BF184659E71F496CE704
:1010700041462046FFF7E4FE0AF1010A6AE71AF04A
:10108000070F7FF46EAF41462046FFF7D9FE68E7B1
:101090001B492046FFF7D4FE6DE71BF0070F7FF4D6
:1010A00077AF41462046FFF7CBFE71E74146204629
:1010B000FFF7C6FE7BE700BF8F9F0000939F0000F5
:1010C00028990000A0A600008A9F00003C9900001B
:1010D000B89F0000BE9F0000C29F0000C1720000C8
:1010E0009D1F0000C89F0000D49F0000C79F000004
:1010F00034040020380400209C9F0000DD720000B2
:10110000D09F0000D29F0000CA9F0000D69F000021
:1011100001230021074A10B5074C1360A04204D8F0
:1011200001B11360054B186010BD40085B00012140
:10113000F4E700BF3804002040420F0034040020D0
:101140002DE9F34143680DF107011C6810486568FB
:1011500006F020F930B99DF80710012902D10C489A
:1011600000F030F801232B7525682F68D5E901368A
:10117000D3E9004824B96B681C6002B0BDE8F08177
:10118000214630464246B847241A0644F2E700BFDB
:10119000848D0000F8B50D460446064F4618B4424B
:1011A00001D12846F8BD14F8011BBB6801485B68F3
:1011B0009847F4E7848D0000014B036000207047DE
:1011C0008499000070B544690D4694B31D4A237993
:1011D000565CB34230D01C4A525C9A422FD1A3686D
:1011E0009847002810DA022D0CD0032D0BD110F1F6
:1011F000860F07D0D4E8EF3F43F00203C4E8E23F94
:10120000002AF6E7267170BD022D26710FD1D4E8B1
:10121000EF3F23F00403C4E8E23F002AF7D1D4E80B
:10122000EF3F23F00203C4E8E23F002AF7D1002099
:10123000E9E76FF05700E6E76FF07700E3E76FF05C
:101240008500E0E717A0000013A0000070B5064677
:1012500086B00D46002938D000248B680122059302
:101260004B68204604930B6823490393234BCDE935
:1012700000440293234606F0BAF86B6901220593F5
:101280002B691D490493EB68204603931C4B009483
:10129000CDE90143234606F0AAF8EB690122039346
:1012A000184B1549CDE9014320462346009406F02A
:1012B0009EF8AB6901220393134B0094CDE90143DF
:1012C0000D492346204606F092F8012E0DD1EFF38A
:1012D0000583103B03930D4B3246029300230649CE
:1012E000CDE90033184606F082F82946304606B0AC
:1012F000BDE8704004F0CAB8949800003AA000001D
:1013000069A0000098A00000A7A00000D5A00000E0
:1013100030BFFFF7FDBF00BF054B5A699B689A427B
:101320001FBF044A536843F080535360704700BFA7
:10133000AC06002000ED00E01FB500243E4B3F4905
:101340000293CDE9004423460122204606F06AF8C4
:101350003B4B9B6A99016DD53A4B2046CDE9014341
:10136000009423460122354906F05CF81E20344BD8
:101370009B6ADA010AD5344B0122029300232F49DC
:101380001846CDE9003306F04DF81F202C4B9B6A20
:10139000DB020AD52D4B0122029300232749184670
:1013A000CDE9003306F03EF80220254B9B6A1C0372
:1013B0000AD5274B01220293002320491846CDE984
:1013C000003306F02FF821201D4B9B6A59030AD5E4
:1013D000204B01220293002318491846CDE900331F
:1013E00006F020F82220164B9B6A9A030AD51A4B66
:1013F00001220293002311491846CDE9003306F07B
:1014000011F823200E4B9B6ADB030AD5134B0122F4
:101410000293002309491846CDE9003306F002F88B
:101420002420074A936A6FEA03436FEA13439362E7
:1014300004B010BD1D209AE748A200009498000057
:1014400000ED00E060A2000073A200008DA2000089
:10145000B7A20000D5A20000FAA2000014A3000069
:10146000F0B50024444B85B00293074623460E4650
:10147000CDE9004401224149204605F0D3FF404B0D
:101480009B6ADB0455D53F4B2046CDE901430094D0
:1014900023460122394905F0C5FF1720384B9B6AC6
:1014A0001D050AD5384B0122029300233349184603
:1014B000CDE9003305F0B6FF1820314DAB6A9C052D
:1014C0000FD50024314B0122029320462346CDE95B
:1014D00000442A4905F0A6FFAB6BAA6A10042AD47F
:1014E0001920274B9B6A59050AD5294B01220293E3
:1014F000002322491846CDE9003305F093FF1A2056
:101500001F4A936A13F4807327D0224B012202935F
:1015100000231A491846CDE9003305F083FF1B204C
:10152000174A936A43F47F4393620023337005B0F4
:10153000F0BD1620B2E70393174B0094CDE90143A9
:10154000012223460D49204605F06CFF002FC7D02D
:10155000AB6A23F40043AB62C2E7926A9204DFD520
:101560000E4A1846CDE9013200930122034905F0E5
:1015700059FF1C20D4E700BFE8A0000094980000A9
:1015800000ED00E0FEA000000FA1000022A100007D
:1015900050A100006BA100003BA1000083A100004E
:1015A000F0B50024424B85B00293074623460E4611
:1015B000CDE9004401223F49204605F033FF3E4B70
:1015C0009B6ADD0660D53D4B2046CDE90143009482
:1015D00023460122374905F025FF1120364B9B6A2F
:1015E0001C070AD5364B01220293002331491846C5
:1015F000CDE9003305F016FF12202F4DAB6A990795
:101600000FD500242F4B01220293CDE9004423463D
:101610002849204605F006FF6B6BAA6A120635D4EE
:101620001320254B9B6ADD070AD5274B0122029325
:10163000002320491846CDE9003305F0F3FE1420BD
:101640001D4B9B6A9C060AD5204B01220293002366
:1016500018491846CDE9003305F0E4FE1520164B75
:101660009A6AD10658BF9A6A9A6A920642BF5A6A23
:1016700022F400525A62104A936A43F0FF039362C5
:101680000023337005B0F0BD1020A7E70393104B83
:101690000094CDE90143012223460649204605F086
:1016A000C1FE002FBCD0AB6A23F08003AB62B7E76A
:1016B000B2A100009498000000ED00E0C8A1000075
:1016C0000FA10000FBA1000029A2000083A10000DF
:1016D00013A200002DE9F0417E4B90B0D3F80480B6
:1016E0000026C8F3080486F31188BFF36F8F02F059
:1016F0007F43B3F17F4F0DD102F00C03082B0BD1C8
:10170000754B0096CDE9016301223346734930469B
:1017100005F088FE354604E012074EBF0D4605462B
:1017200001260027E31E8DF81F70092B00F2B780F9
:10173000DFE803F005ABAFA8B5B5B5B5B5B3684BF9
:101740000097CDE901730023012264491846DFF8B0
:10175000848105F067FE8DF81F70D8F82C4014F0D6
:1017600002040AD05F4BCDE90173002300970122E8
:101770005A49184605F056FE32E0D8F82C30002BB6
:101780002ADA594B0094CDE90143012223465349FB
:10179000204605F047FE9DF81F30D3B908AA05F191
:1017A0002007134628686968083503C3BD421A46F6
:1017B000F7D10F9B002E00F08780C3F3080222B9F7
:1017C0006FEA53236FEA43230F9308A92046FFF7DC
:1017D0003DFD10B0BDE8F081D8F82C305B0001D49D
:1017E0000024D8E7414B0094CDE901430122234670
:1017F0003A49204605F016FED8F81430AA6943F499
:101800008073C8F81430BFF34F8FBFF36F8FD8F8D1
:10181000143032F8022C23F48073C8F81430BFF36C
:101820004F8FBFF36F8F4DF602739A420BD0D8F8EB
:10183000283013F0FF0F14D001200DF11F01FFF726
:10184000AFFE0446A7E72B6820460393284B00947D
:10185000CDE9014301222346204905F0E3FD2C6830
:1018600099E7D8F8283013F47F4F05D001200DF107
:101870001F01FFF7F5FDE4E7D8F828301B0C1B0427
:10188000002BADD0FFF758FDDBE70DF11F01002065
:10189000D5E70DF11F010020EBE7164B63E7164A71
:1018A00018F4F87F154B18BF1346103CCDE90334EC
:1018B0000024134BCDE9004402930122234607493B
:1018C000204605F0AFFD66E723F4FF7323F0010324
:1018D0007AE700BF00ED00E06DA3000094980000DF
:1018E00098A30000AFA30000D0A30000DEA3000077
:1018F000FDA3000019A4000054A300003FA30000B2
:101900003DA40000064B5A6942F010025A615A6920
:1019100042F480625A615A6922F008025A617047A3
:1019200000ED00E0EFF30880EFF3098101B57246A6
:10193000FFF7D0FE01BD00BF01F0C4FF202080F3FF
:10194000118808484FF40061401880F30988EFF3CC
:1019500014800221084380F31488BFF36F8F00F0D6
:101960008DF80000580C0020084B9B6883420BD177
:10197000EFF3058343B1064B5A6842F080525A6038
:101980005A6A22F400425A6204F054BCAC060020A9
:1019900000ED00E013498A684FF030001044EFF387
:1019A000098C80E8F01F202080F31288BFF36F8F2E
:1019B0000D4F4FF000664A698A603E60506F002309
:1019C000536780F3118802F1300090E8F01F8CF328
:1019D000098802F1000004B505F038FDBDE80440B7
:1019E00070470000AC06002004ED00E01EF0040F7C
:1019F0000CBFEFF30880EFF30980816911F8021C36
:101A00000229FFD001B5724605F001FD01BD00BFFE
:101A100003B2002B08DB012200F01F0002FA00F0E5
:101A2000024A5B0942F82300704700BF00E100E072
:101A3000054B420953F82220012300F01F0003FA4E
:101A400000F01040704700BF00E100E003B2002B3F
:101A500001F10101A8BF03F160434FEA4111B8BF92
:101A6000054BC9B2ABBF03F5614300F00F0083F82B
:101A700000131954704700BF14ED00E00F4A08B579
:101A80000F4B22F07F029A60BFF34F8FBFF36F8F2F
:101A9000D3F8882022F47002C3F88820EFF314836F
:101AA00023F0040383F31488BFF36F8F03F0CCFD9E
:101AB00004F0F4FC00F042F803F006FE0000000021
:101AC00000ED00E042F8203C009B0B4942F81C3C32
:101AD000019B21F0010142F8183C029B42F8081CCE
:101AE00042F8143C4FF0807342F8043C0023203A43
:101AF00002654367704700BF5170000000B5094B95
:101B00000E4698601546436E83F30B882C4686F389
:101B100009880020044B984720460021002200231A
:101B2000024C2047AC0600205574000051700000A4
:101B30001022014B1A61704700ED00E000232020C5
:101B400040F20F1210B5044CE1180133934281F8B2
:101B50000003F9D110BD00BF00E100E008B5EFF3CC
:101B60000583064A103B02EBC30152F83300496873
:101B70008847BDE80840FFF7CFBB00BFBC8E000020
:101B80001FB5094C094A23460121094800F016F9FE
:101B900000230393074B0121E41A01A80193029447
:101BA00000F016F904B010BD00F002200000002083
:101BB00084990000E001002010B50C7A0B6823F036
:101BC0001F0204F01F031A43CB68640923F01F03AC
:101BD000044943EA440343F001038860CA600B618F
:101BE00010BD00BF90ED00E01FB50D4B04461B6813
:101BF000C3F30723013B98420FD90A4B039002938A
:101C000000230122CDE900330749184605F04EFCB8
:101C10006FF01504204604B010BDFFF7CDFFF9E7C3
:101C200090ED00E09AA400008C9800002DE9F04FA0
:101C30008846144606460027534D89B047452DDA9D
:101C4000D6F80490B9F1000F49D0B9F11F0F18D997
:101C500019F01F0F15D1D6F800A01AF01F0F10D1E0
:101C6000504605F01AFC834609EB0A00013805F0DE
:101C700014FC834516D06FF0150BCDF80CB0434B18
:101C800001E0434B0397029300230122CDE9003387
:101C90004049184605F00AFC6FF01504204609B0CB
:101CA000BDE8F08F1BF1160FE7D05C45E5DDC5F808
:101CB00008B0E968C5F808B02B6921F01F0143F0AE
:101CC0001F0AD6E900321A44994202F1FF391BD1AA
:101CD000CA4507D131465FFA8BF005F0F7FB0137B3
:101CE0000C36ABE73146C5F808B0EB6822F01F02AE
:101CF00003F01F031A43EA60E0B205F0E7FB10F1BE
:101D0000160FC9D0441CEAE7013BCA45E0B223F0F4
:101D10001F03C5F808B006D12A69314602F01F0238
:101D200013432B61E9E7296901F01F010B432B6184
:101D3000314605F0CBFB10F1160FADD0C5F808B059
:101D4000EA689DF818300AF1FF3A62F304038DF84F
:101D500018302B699DF818205B0863F347128DF843
:101D60001820D6E900321344049323F01F03534490
:101D7000A3EB0903013023F01F0304A9C0B20793AA
:101D8000FFF732FFBBE700BF90ED00E077A4000053
:101D900054A400008C9800000522034B5A60BFF346
:101DA0004F8FBFF36F8F704790ED00E0BFF35F8FF1
:101DB0000022014B5A60704790ED00E010B5034CD3
:101DC0002278FFF733FF207010BD00BFEE06002021
:101DD0002DE9F74F254C8A4680460027A1464FF053
:101DE000140B234D57451ADAD8F804300193002B11
:101DF00036D0D8F800100846009105F04EFBDDE91A
:101E0000001306465818013805F047FB8642194A68
:101E100008D014235F436FF0150349F8073003B06F
:101E2000BDE8F08F16F1160F2660F8D01378B34294
:101E3000F5DD0BFB0793AE60AE60E868197B60F3DD
:101E4000040119732969187B490861F34710187355
:101E5000EB6823F01F0363602B6923F01F032361EA
:101E60000137143408F10C08BCE700BF60040020FF
:101E700090ED00E0EE0600202DE9F043424C434E89
:101E800022683768C2F30722974287B078D80025C6
:101E9000FFF78CFF3E4B2363AF4217D13D4D01A8A6
:101EA0002F70FFF789F9002607464FF04109DFF848
:101EB000E880B74212D100212B782268C2F30722B2
:101EC000934259DBFFF768FF00203FE07168284626
:101ED00001EB0511FFF770FE0135DDE7DDF804C009
:101EE00031010CEB0103DA6802EA0802B2F5001FC7
:101EF00015D0B2F5800F2CD0B2F5801F3AD15868BA
:101F00005CF801209B68CDE902022122013B20F010
:101F10001F010B4423F01F038DF810200DE05868BB
:101F20005CF801209B6820F01F01013BCDE9020213
:101F30000B4423F01F038DF8109002A92878059315
:101F4000FFF752FE002812DA6FF0150007B0BDE867
:101F5000F08358689B685CF80120013B20F01F016A
:101F60000B44CDE9020223F01F030622D4E72B78AD
:101F700001332B7001369CE7A360216101339CE79C
:101F80004FF0FF30E2E700BF90ED00E090990000D5
:101F9000AAFF4400EE0600200000F0FFF0B587B075
:101FA00007460E4614460021102268461D4606F0DC
:101FB00032FD02238DF80230054B2A462146684641
:101FC0000193CDE9047604F0DDFB07B0F0BD00BF5E
:101FD0000375000008B5024B1B689847002008BD38
:101FE00074040020034B044A1860937843F0020302
:101FF00093707047740400201000002008B5064953
:10200000064821F00701C1F1005202F53C3204F00C
:10201000B0FF002008BD00BF5F180020780400203A
:1020200008B5264A264B1A6000F068F841F6F871A8
:10203000244AD2F8240601EA5031C0F308031420E0
:1020400083F48073883300FB0313590A13F4807FF1
:1020500013464FF47A601C4A18BF0131C2F80419C4
:10206000D3F82016C1F30803C1F30941414342F6F6
:10207000041083F4807303F2172300FB03134FF45F
:102080007A701B0AB3FBF0F100FB1133B3F5FA7F52
:1020900028BF01310D4BC2F81C171B681C2B07D140
:1020A00034220B4B1A600B4A136823F4002313608D
:1020B0000122054B0020C3F8002608BD0020A1071F
:1020C0007C00002000C0FF000000125040C3FF0051
:1020D000240612503C06125048B1054B1A68054BB5
:1020E000B2FBF3F2044B504343F00103184770472F
:1020F0007C00002040420F00009900000122024BAA
:10210000C3F80424704700BF002008E0084B70B5F6
:10211000C31A0D4607499B100446594340220648FE
:1021200005F003FA2B4601462046BDE870401847EB
:1021300094040020B76DDBB60C8D000010B5EFF3F2
:102140001184202383F31288BFF36F8F084A13682A
:1021500023F00201DB07116005D4012006F0F1F83D
:102160000122044B1A6084F31188BFF36F8F10BDF6
:10217000E40400200CE0105070B500220121044658
:1021800040F20510FFF762FC0F4801F0A3FC0F4B73
:10219000984215D101F0AEFC26690D49304604F095
:1021A000AFFF00280BDB012535642469084904F1E1
:1021B0001C0004F0A5FF002801DB0020E56470BDD1
:1021C0006FF00400FBE700BFA12200000000AD0B90
:1021D000D09900000C23104A014603FB0023002085
:1021E00030B4D3E90E529863EFF31180202484F3C6
:1021F0001288BFF36F8F1C6C04F0C00444F002041B
:102200001C6480F31188BFF36F8F1DB12B4630BC67
:102210000248184730BC7047940400200C8D000021
:1022200010B4EFF31180202282F31288BFF36F8F76
:1022300017490B6843F0020413F001030C6017D038
:10224000144BD3F80C3413F4803311D0EFF3118115
:1022500082F31288BFF36F8F0F4A136C03F0C00331
:1022600043F00203136481F31188BFF36F8F0123DE
:1022700080F31188BFF36F8F1BB1002010BCFFF7F4
:10228000A9BF0120054B186010BC01F04FBC00BF76
:10229000E404002000E010509404002008E01050F6
:1022A00010B1012804D07047034B1B6C5B0701D1B0
:1022B000FFF790BF704700BF940400201FB50022B5
:1022C0000123CDE902236B46084ACDF800D0CDF8B2
:1022D00004D005F068F9002805DB43F60952002315
:1022E000684603F061FB05B05DF804FBA1750000D2
:1022F0001A4BF0B4C21A0D469110194A4A43D2B291
:10230000EFF31186202181F31288BFF36F8F0C2425
:1023100004FB0234216C01F00707012F11D1402189
:102320002164002186F31188BFF36F8F91B90C21CE
:102330004A430C491344C3E90E150B4BF0BC9B58A0
:10234000184701F0C001402914BF4FF0FF316FF072
:102350007701E7E72B46F0BC184700BF9404002044
:10236000B76DDBB683750000B89900002DE9F8431E
:10237000012206463549D1E8EF3FC1E8E02F0028A9
:10238000F9D133B9324933484B60CB608A6004F0ED
:10239000CAFE731E012B2BD8012E06D12E4BD3F86B
:1023A000503403F00303012B22D006F031FA18B9A0
:1023B0002A4B1B78002B41D1EFF31189202383F3A3
:1023C0001288BFF36F8F0124234D254FA846D5F8FF
:1023D0004C24D5F84C34D2030CD503F00303012B65
:1023E00001D0012E06D12CB389F31188BFF36F8F72
:1023F000BDE8F883CCB1484605F040F8D5F8403444
:1024000013F0FF03E3D13A68002AE0D03B603B6859
:1024100020210123134AC5F84034C2F8A01102F16B
:10242000E242A2F1F0121360D1E70021202006F071
:1024300066FAE3E70423C8F80433D9E70422064B1D
:102440000446C3F808238146BEE700BFE804002025
:1024500084040020B004002000E010501407002085
:1024600008E1105000E100E008B5074806F03DF92A
:1024700038B10648FFF7B6FD0448FEF7A7FA00207A
:1024800008BD6FF01200FBE7848D0000912400006E
:102490000A2838B50446074D04D1AB680D215B68A6
:1024A00028469847AB68E1B25B68024898472046E7
:1024B00038BD00BF848D00004309022B70B503D0E6
:1024C000012B16D0BBB170BD0C4C23695968002993
:1024D000F9D0012600F01F000D6886408A6832405E
:1024E00002D04B6820469847002DECD029462D6835
:1024F000F4E7034CE9E7034CE7E700BF3C8D00003D
:10250000248D0000548D000038B545682B690BB947
:10251000002038BD1035284601F0C6FF04460028CB
:10252000F6D10146284601F07BFF0B4B984210D1B3
:1025300022462846094901F047FF22460121DB20B7
:10254000FFF784FA2246012140F20D10FFF77EFAD0
:10255000DEE76FF00400DCE70000AD0BB9240000FB
:102560002DE9F04340F206364568D00648BF4FF0EB
:10257000030C2B7B02EA060658BFC2F3401C87B04F
:1025800001F01F07B6F5807F144647EA43178DF820
:1025900003C044D007D8022E16D0062E41D09EB1DB
:1025A0006FF0150038E0B6F5007F3CD004D8B6F5E2
:1025B000837FF5D1092607E040F20222964234D00B
:1025C000B6F5407FECD105260123220303FA01F181
:1025D0002DD56B685960286970BB07F01F027F0911
:1025E000022F77D83D4B84F4803153F82730C1F364
:1025F000004103EB8202D2F88030C4F3404423F45C
:10260000706344EA410423F00F031C4344EA8C0442
:1026100044EA0624C2F8804007B0BDE8F0830126F2
:10262000D2E70826D0E70426CEE70626CCE76303E8
:1026300044BF6B689960CEE710350DF10202394650
:10264000284601F0CFFE14F4403F81460DD13946B3
:10265000284605F03AFF224B994504D19DF8021017
:10266000284601F02FFF0020D6E74FF0000801AB0D
:1026700003AA39462846CDE90438CDE90188CDF8CA
:102680000C8001F003FD164B984289D114F40033FD
:1026900015D09DF8033084F48034C4F300448DF8E1
:1026A0000E3003AA4346394628468DF80C608DF853
:1026B0000D4001F0EBFD0A4B9842CCD070E7CDE91C
:1026C000043303AA0DF1030339462846039301F0AE
:1026D000DDFCF0E7203250F82230FFDEE899000000
:1026E0000000AD0BF0B5406801F01F04057B87B01A
:1026F00044EA45140569002D62D0B2F5001F00F1CF
:10270000100506D12146284605F0E1FE002007B05D
:10271000F0BD002701AEB2F5800F019777603AD186
:10272000B3F1007F0CBF042305238DF80430002390
:10273000CDE904630393836823FA01F111F00101E9
:102740001BD1B2F1A07F18D1620904F01F03022A45
:1027500003F120033AD81F4951F8222052F82330C0
:10276000DB070AD40DF1030632462146284601F064
:1027700039FE194B984219D0029603AA21462846E1
:1027800001F084FC154B98421DD1012221462846B8
:1027900001F0ACFEBAE7B3F1C06F05D0B3F1007F32
:1027A0000CBF02230123C0E70323BEE731462846BE
:1027B00001F092FE094B9842DED06FF00B00A6E7C5
:1027C0006FF08500A3E76FF01500A0E751F8233004
:1027D000FFDE00BFE89900000400AD0B0000AD0B68
:1027E00030B587B0194C204605F07FFF0346E8B9A5
:1027F000226800900392164A1649CDE9010201228F
:1028000005F012F86FF01205284607B030BD2368B6
:1028100001220393104B0595029300230492CDE906
:1028200000330C49184604F0FFFFEDE72269A16868
:102830001368204623F0020313600B680022012175
:102840009847051EE3DB0025DEE700BF548D00003E
:1028500037A500005C9800004EA500007FB50BABCB
:1028600005930393054B012202930023CDE9003326
:102870001846FEF789FA07B05DF804FBB8A500001A
:1028800002780B69012A0AD01AB1022A09D0064A35
:1028900000E0064A1A6203F1100003F051B8044A3E
:1028A000F8E7044AF6E700BF0100AD0B0000AD0BEE
:1028B0000100AE0B0200AE0B2DE9F04F8DB00A9374
:1028C00043680746D3F828909B8B0C469346D0F874
:1028D000108009934FF0FF324FF0FF33404603F072
:1028E00063F808F1100308930026002300220898DB
:1028F00003F05AF833465E4501D300234EE0207AB8
:10290000020700F1888001365E45D4F800E00AD263
:10291000850708D4227D80EA020505F0010502F052
:1029200004022A4321D0002B41D10EF06042B2F1C3
:10293000005F3ED10025D4F800A0A3880A9A217A2E
:1029400038460092524600F0C1F8031E26DB43F6DB
:1029500009520023089803F027F800283DD0384694
:1029600000F062F86FF0040318E00125626809992D
:1029700003EB020C8C451ED90393284B3968029354
:10298000002306910999CDE90033CDE904211846C9
:1029900001222349FFF762FF6FF01B0308934046B3
:1029A00002F0CEFF089B18460DB0BDE8F08F002561
:1029B000DCE71D46DAE7C10706D409EB03007146E0
:1029C0000B9306F01AF80B9B626813449BB26DB927
:1029D000002BAFD01D46CA46B0E7D8F82030114AC8
:1029E0009342BFD1237ADB0702D400230C3482E761
:1029F000CA45FAD1A24607E0AD1AADB209EB05010E
:102A0000DAF80C0005F0F9FFAAF10C0ADAF8102048
:102A10009542F1D2E9E76FF08503BFE7B8A5000062
:102A20006C9800000000AD0B73B544680DF1070110
:102A30002368D3F80056D3F8046604F0ABFC9DF885
:102A4000073013B9204602F0BBFA3146284602F09F
:102A500099FC9DF80710054629B9606A04F012FF39
:102A6000204602F09DFA044B9D4214BF6FF00F0008
:102A7000002002B070BD00BF0000AD0B1FB511F00B
:102A8000010342680ED1C1F3420101290DD0022990
:102A900014D00C4A0093CDE901320B4901221846AB
:102AA00004F018FF6FF0150005E04FF0CC711268CC
:102AB0001846C2F8241505B05DF804FB12684FF003
:102AC000C861F5E7A3A600006C980000F0B50E46BB
:102AD0001C4617468DB04568122200210DF11E00DC
:102AE00005F099FF06F001038DF81C30BDF8483061
:102AF00008948DF81D30AB8D0A97A3420FD2CDE913
:102B00000343124B01220293002311491846CDE9D9
:102B1000003304F0DFFE6FF01B000DB0F0BD16F0C7
:102B2000020F0CBF2022002207A9284602F068FAF3
:102B3000084B984207D00B3398420CBF6FF00F0040
:102B40006FF00400E9E70020E7E700BFB5A600004A
:102B50006C9800000000AD0B30B50546446885B0A8
:102B6000236A98470121606A04F08CFE2B46A26913
:102B700004F10801204602F0DDF90D4B984206D120
:102B800028460C4905B0BDE8304004F018BC2B685D
:102B900001220393084B0949029300231846CDE90B
:102BA000003304F097FE6FF0040005B030BD00BFA5
:102BB0000000AD0BA378000083A600006C98000015
:102BC00030B483689C6984B1130207D50123056979
:102BD0008B402D682B4218BF82F0C062054BA44683
:102BE00030BC134002F0B07260476FF0570030BC49
:102BF000704700BF400000062DE9F04F0025012777
:102C000050F8103C89B05C680DEB07020095ADF8F8
:102C10000450A388064620680592052206920722E2
:102C2000CDF808D003978DF810508DF81C200222A3
:102C300002A904F05FFEA8420DDA304602F0D8FF88
:102C4000226912F0986F03D0A068217BFFF7B8FFCC
:102C500009B0BDE8F08FB946DFF88C8098F80030F5
:102C600008AA134413F81F2C98F801301A4227D1F0
:102C70000135152D08F10208F0D1052306228DF843
:102C800000302068A38803920222CDF808D08DF886
:102C90001020012202A904F02DFE0028CDDBA0683F
:102CA000257B0769836802A95B6898470028C4D11F
:102CB0003B68029A5A400123AB401A42C0D0BCE79D
:102CC00031690029D4D056F810BC0F6809FA05FA0A
:102CD0008A681AEA020202D04B6858469847002FC9
:102CE000C6D039463F68F3E7FCA60000F8B5456852
:102CF00007460669286805F0F8FC10B96FF0120065
:102D0000F8BD37607C6894F82030002B7AD194F8B5
:102D10002230002BE36914BF00220222D80701D41D
:102D200042F00102C121204604F0F3FD0028E7DB58
:102D3000E369D90600F18C8013F0200F14BF022242
:102D4000012294F8213033B13F339B0003F00C0390
:102D50001A4342F01002C221204604F0DAFD002896
:102D6000CEDBA8680028CBD07C68A369217D13F056
:102D7000010FA1F17D010CBF02220122C9B2204640
:102D800004F0C7FD0028BBDB217D022281F0800119
:102D9000204604F0BEFD0028B2DBA86805F0A5FCC3
:102DA0000028ABD0B5F80EC0A868297B4CF480325F
:102DB0000123076903FA01F43B681CF0010F14BFFB
:102DC0002343A343D0F808E03B60DEF80030984787
:102DD000002895DB01222B7B204802FA03F3C6E989
:102DE0000203A868311D8368DB699BB398470028FC
:102DF00086DB1B4B73612A69A868297BBDE8F84014
:102E0000FFF7DEBE0422DB21204604F082FD00280D
:102E1000FFF676AF0122DC21204604F07AFD00287F
:102E2000FFF66EAF94F82030022B7FF470AF0022D3
:102E3000D221204604F06DFD0028FFF661AF01228B
:102E4000D321204604F065FD0028BFF660AF57E7A8
:102E5000002276E76FF0570052E700BF3D7900008F
:102E6000F92B0000036803F01F025B09022B0260CC
:102E70009ABF024A52F8230000207047189B0000B6
:102E80002DE9F04F1646824640F2FF18DFF8989180
:102E900085B000EB81018A4501D1002022E05AF87B
:102EA000043BC3F3C322082AC3F3080400F2B7802B
:102EB0005C481B0E444508BF4FF0FF340B2B875C6A
:102EC0005CD012D8032B56D005D8012B43D032D971
:102ED000C6F8104631E0052B48D040D3062B4AD027
:102EE0006FF0850005B0BDE8F08F162B56D007D8DF
:102EF000142B4DD04FD80C2BF2D1C6F804463FE02E
:102F0000182B00F08680C0F08180192B00F084809F
:102F1000382BE5D103A80394FFF7A4FF039B0125F9
:102F200000EB8300D0F8802022F0E04242F08042A3
:102F3000C0F8802028E0C6F80446631CABD04FF0F0
:102F4000010B03A80394FFF78DFF039B5D460BFA6B
:102F500003F3436038E0C6F80C46002514E04FF058
:102F6000000BC6F80046621C25D194E7C6F804465B
:102F70004FF0010BF7E7C6F80846EEE7C6F8004643
:102F8000002FEAD100250827631C84D0AB461BE044
:102F9000C6F84045ECE7C6F84445DEE7C6F86045AC
:102FA0003AF8023C601C03F001033FF474AF002BBD
:102FB000C5D14FF0010B03A801250394FFF752FF81
:102FC000039B05FA03F383605AF8042C03A802F468
:102FD0000043002B01921CBF4FF0010B002503940E
:102FE000FFF740FF039B019A00EB8300D0F880308D
:102FF000C2F341223F0247EA8202154303EA090372
:103000001D4345EA4B05C0F8805044E7C6F86445C7
:10301000C6E7C6F86845C3E7C6F86C45C0E76FF079
:1030200015005FE72EA70000F0F0FCFF0129F8B5BE
:1030300005460C4634D146680021B06B04F0AEFC66
:10304000376800263146DFF88CC001F5AC7357F8BD
:10305000230000280FDB4309022B37D85CF823300C
:1030600000F01F001B68C34013F0010318BF04FAEF
:1030700001F33343DEB201310429E6D100220120FD
:1030800000FA02F3334214BF00214FF400416B6891
:103090009B6A23F812100132042AF1D10020F8BDF6
:1030A00089B94668304601F0E3FD304605F08CFAF8
:1030B0000028FAD000242B6901211C605C60B06BF1
:1030C00004F06CFCEAE76FF08500E8E700231B687A
:1030D000FFDE00BF249B00001FB504460022012133
:1030E000D220FEF7B3FC606823690F4A00F10801A3
:1030F00001F05CFD0D4B984206D120460C4904B00E
:10310000BDE8104004F05BB9236801220393094B2A
:103110000949029300231846CDE9003304F04DFC21
:103120006FF00F0004B010BD8F7900000000AD0BF0
:103130002D30000083A60000AC9800002DE9F04778
:1031400088B0BDF84090032980460E461C4647686B
:10315000056909F001090BD9664B0391029300231D
:103160000122CDE900336449184604F026FC1FE033
:10317000BB7F012B04BF64085208002C00F089803B
:10318000A24240F289802B689A4227D001202B79F5
:1031900000FA01F133EA01014FF000030DD0574A64
:1031A0000093CDE9013254490246184604F005FC6B
:1031B0006FF0150008B0BDE8F08710460B46B0F57B
:1031C000004FD9B25DD22A606971396897F81EC084
:1031D000C1F80C35C1F804C5C1F808054FF0010A63
:1031E0006B7924FA03F39BB2B9F1000F14BF0021ED
:1031F0004FF40041D8F804000B43806A3E4920F8A0
:1032000016306B79CDE90464CDE906233C4B0822E6
:1032100003933C4B02930023CDE90032184604226D
:1032200004F0CBFBBAF1000F47D13B6806F5AC7256
:1032300053F82230002B11DBB9F1000F31D10034EB
:1032400018BF012403F01F022F495B096CBB022B3E
:103250004AD851F82310012393408B604FF00109A5
:10326000287909FA06F420EA04042C715CB3AB79DE
:1032700093BB1023012207F12801384601F0B8FC66
:1032800028E00133082B4FEA500098D103921F4BDE
:1032900064E7A2462346A7E74FF0000A47F6FF730C
:1032A000A2E7B4FA84F46409CCE7022B1ED851F8E3
:1032B0002310012393404B60D0E70124B4402E79C2
:1032C00026432E71D3E72146D8F8040001F0D0FC44
:1032D00085F8069000206DE70023AB71384605F0B5
:1032E00073F90028FAD0C4E7A460FFDE00235B6016
:1032F000FBE700BF4BA70000AC98000060A70000F0
:1033000037A700009FA70000249B000075A70000BE
:103310007FB50BAB05930393054B0122029300236A
:10332000CDE900331846FDF72FFD07B05DF804FB2B
:103330001DA80000F0B5446885B0054604F059FBAF
:10334000A06A30B90021284605B0BDE8F04004F07D
:10335000C9BB05F0CAF9034670B9A26A13491268DD
:1033600000900392124ACDE901020122FFF7D0FF3B
:103370006FF0120005B0F0BDE78DA06A94F82C1034
:1033800047F400320123066903FA01F4336817F0A9
:10339000010F14BF2343A343D0F808C03360DCF807
:1033A000003098470028CDDAE4E700BFB498000069
:1033B0001DA80000436893F8303023B1012B06D0DC
:1033C0006FF015007047034889B204F075BC89B2EC
:1033D0000148FAE7609C0000289D0000436893F8CC
:1033E000303023B1012B06D06FF01500704789B241
:1033F000054804F061BC036989B21B7E13B1034820
:1034000004F0CABC0248FBE7549C0000349D000055
:10341000049D000013B5446894F830302BB1012BA3
:103420001CD06FF0120002B010BD0DF1060312485F
:1034300004F054FC163002D16FF01500F3E7283485
:103440009DF806202221204604F010FD0028EADB2A
:1034500001222321204604F009FDE4E70DF10603D3
:10346000064804F03BFC1630E6D09DF806206821A3
:1034700004F12800EFE700BF609C0000289D0000D9
:1034800037B540680D4690F830302BB1012B44D051
:103490006FF0120003B030BD00F128040DF10702F7
:1034A0002321204604F0B0FD0028F3DB9DF807300F
:1034B0000DF10702012B0CD12221204604F0A4FDBE
:1034C0000028E7DB2A469DF807101A4804F0F4FBB1
:1034D000E0E73521204604F097FD0028DADB9DF86F
:1034E00007300DF107025B060AD43621204604F0AE
:1034F0008BFD0028CEDB2A469DF807100E48E5E735
:103500003721204604F080FD0028C3DB2A469DF8C1
:1035100007100A4804F040FCBCE70DF107026821DF
:10352000283004F071FD0028B4DB2A469DF807100E
:103530000348CBE7609C0000589D0000649D00009C
:10354000289D0000002330B5446885B0ADF80E30EA
:1035500094F8303000692BB1012B1AD06FF01200B3
:1035600005B030BD0DF10E031F4804F0B7FB163057
:1035700002D16FF01500F3E7BDF80E3004F128001A
:10358000012B4FF008020CBF2A212B2104F06EFC06
:10359000E6E7057E0DF10E03DDB1144804F045FCAD
:1035A000BDF80E30124AD35C0422ADF80E3016304E
:1035B000DFD00723BDF80E00934000FA02F2D2B22A
:1035C00094F82C100092DBB26F22A06A04F0F4FB96
:1035D000C6E7084804F029FCBDF80E30064AD35C63
:1035E0002A46ADF80E30E2E7549C0000349D0000FE
:1035F0003AA80000049D000035A8000030B44268DD
:1036000053691468C4F82435D18B938B957E0B4392
:10361000517E127E29430B431343C4F86C35416835
:103620000B68D3F8002242F48022C3F8002208225B
:10363000C3F800250A6A0121C3F83C270022C3F819
:1036400040271965D3F830110029FBD0C3F80025B5
:10365000014930BC03F0B3BE398200002DE9F743C5
:1036600004468846476805F0D3F8A0B92B4B1B7871
:103670008BB14FF02009642563681B68D3F83031A3
:1036800003BB012004F05BFE013DF5D100212020A9
:1036900005F035F9EFE72022EFF311831E4682F3A0
:1036A0001288BFF36F8F61680968D1F83011B1B922
:1036B00083F31188BFF36F8FEEE783F31188BFF3B5
:1036C0006F8FE3E7EFF311831E4689F31288BFF390
:1036D0006F8F62681268D2F83021002AEDD03B6A01
:1036E0000DF1070183F80080636820463F6A1D687A
:1036F00003F050FE9DF807204AB90123C5F83C7736
:10370000C5F84037C5F83021D5F830212B6586F350
:103710001188BFF36F8F03B0BDE8F083140700205A
:1037200010B500220121E420FEF790F9002000F0FE
:10373000D1FF114B0446984208D11049012001F0F5
:1037400061F8A04205D00E4B984211D04FF0FF30E7
:1037500010BD67220B4B02201A60FEF707FE0A4AD3
:103760000020D2F8183723F44033C2F81837EFE7B7
:103770006FF00B00ECE700BF0000AD0B78000020FD
:103780000200AD0B3406002000200E50F7B51F4696
:103790001646684600F06CFFDDE90023BB4208BF17
:1037A000B24211D3094CD4E9005C711B21F01F0314
:1037B00067EB0C0049095B1940EB0C0241EAC06061
:1037C000C4E9003202F03AFF03B0F0BDE00100208E
:1037D00007B5684600F04CFF009B06490198D1E907
:1037E00000219B1A60EB01005B0943EAC06003B053
:1037F0005DF804FBE0010020F0B5431C85B018BF64
:1038000020EAE07602A808BF6FF0004600F030FF23
:10381000029B1049D1E900279C1A039B204663EBC9
:10382000070529462023C3FB0601002908BF4028BD
:1038300036BF20240B4600234FF0010128BF20F0A3
:103840001F041219009147EB0303034801F03EF8EF
:1038500005B0F0BDE00100207000002003689A0769
:103860000CD50368DB070DD50922074BC3F80C25DF
:103870000F22C3F8042501221A60FEE7034B036000
:10388000EF3B0360704700BF00801050F000FA501B
:1038900003689A070CD50368DB070DD50922074B8F
:1038A000C3F80C250F22C3F8042501221A60FEE795
:1038B000034B0360EF3B0360704700BF0080105074
:1038C000F000FA50012208B52B4B2C48C3F8002811
:1038D000FFF7C4FF2A48FFF7C1FF2A48FFF7D8FFC8
:1038E0002948FFF7D5FF2948FFF7B8FF284AD2F843
:1038F0008C3043F44063C2F88C300022D30003F5CF
:103900007F0303F54043D3F8001401310AD0D3F804
:10391000001439B1D3F800140132D3F80434402A2A
:103920000B60EBD11B4B1A68FAB11B4B1B681C2BAD
:103930000CD11A4B1A681A4B9A4219D93422194BD6
:103940001A60194A136823F4002313600323174AEB
:103950000F49C2F81835D1F88C3043F44063C1F8F0
:103960008C300023C2F8A03508BDC8221A60DCE7FD
:103970000F4B104A1A60E1E70000125000C50D50CD
:1039800008C50D5010C50D5018C50D5000C70D507D
:1039900000ED00E04004125040C3FF0034C3FF00BC
:1039A000001D0A18240612503C06125000B00450A4
:1039B0004006125040E0A91E70B501250268AAB168
:1039C000B2FA82F3C3F11F03DBB205FA03F422EA71
:1039D0000404D0E8EF6F964204D1C0E8EC4FBCF18C
:1039E000000FF6D1EAD102480B7070BD0148FCE728
:1039F0000000AD0B0200AD0B10B50268CA40D30742
:103A000010D401238B40026843EA0201D0E8EF4F53
:103A1000944204D1C0E8EC1FBCF1000FF6D1F2D102
:103A2000014810BD0148FCE70000AD0B0400AD0BE0
:103A3000F7B5054618B301281FD104224FF480734F
:103A4000712123480024C0F80813012142F21076A6
:103A500002F1A04203F1A04303F5871302F5871298
:103A600011601C608D421B68194F8DF8074008BF1C
:103A70000DF1070445B1012D1CD003B0F0BD142297
:103A80004FF484730421DCE7D7F84C34C3F30043CC
:103A9000DCB1D7F84C2402F003022270002BECD0EA
:103AA0009DF80730002BE8D1012004F048FC013ECE
:103AB000E0D1E2E7D7F80C3403F48032C3F30043DB
:103AC0001CB1B2FA82F25209E7E7002BECD1D4E73D
:103AD00000E01050044B1A7922B9012218601A71C3
:103AE0000248704702487047380600200000AD0BBE
:103AF0000C00AD0B08B50A4B1B6843B140F2051032
:103B0000FDF796FF18B940F20510FDF781FF00227E
:103B1000044BC3F840240122034B1A7008BD00BFB8
:103B20003806002000E010501307002010B510B137
:103B3000012843D010BD264AD2F84C14D2F84C3498
:103B4000C90323D503F00303012B04D01BB10020CC
:103B5000FFF76EFF00231E4A0420C2F840341022F3
:103B60004FF48473002103F1A04303F58713196018
:103B70001C68012402F1A04202F587121460154A64
:103B8000126802B3124BC3F80403D3E7D2F84834E7
:103B900013F00103DFD0D2F850349B07D7D40D4B7C
:103BA0001B683BB90C4B1A68002AFCD000221A6033
:103BB0001B68BFE70423C2F80433BBE700224FF4BD
:103BC00080737120CEE71A68002AFCD01960EFE7F5
:103BD00000E010503806002008E1105010B5364BB8
:103BE0001A684AB10020012218601B68334BC3F8E1
:103BF0000823334B1B689847324B1A686AB100227E
:103C00001A601B682D4BD3F84C24D3F84C24910731
:103C100049D10122C3F840241A612B4B1A684AB1DA
:103C2000002202201A601B68244BC3F80803244BAF
:103C30001B689847254A264C13688BB100234FF424
:103C400088701F494B71136012681C4AC2F8080340
:103C5000236023682023C2F804330B6807209847A9
:103C6000236873B1154BD3F80423920609D50022BB
:103C7000226022682022C3F80823114B08201B6809
:103C80009847144B1A68B2B100210D4A09205171AE
:103C900019604FF48C711B68084BC3F80813136844
:103CA000BDE8104018470422C3F80823044B012044
:103CB0001B689847B1E710BD00E1105000E01050BC
:103CC0003806002008E1105004E1105010E11050B7
:103CD00014E1105018E11050036803F01F025B0953
:103CE000022B02609ABF024A52F82300002070475C
:103CF000309E0000034A4309D35C00F01F001844C3
:103D0000C0B270477CA8000010B504460846FFF713
:103D1000F1FF362303FB0400034B083033F8100097
:103D2000C0F3401010BD00BF8000002010B5044655
:103D30000846FFF7DFFF362303FB0400024B083081
:103D400033F81000400B10BD8000002070B5044611
:103D50000846FFF7CFFF36222379184902FB0303F9
:103D6000083331F81320084612F4807F25D0C2F3BF
:103D7000432122F4F85220F813206C2200262379E4
:103D800002FB0302103232F8025B15F4807F03D08D
:103D9000C5F34325A94210D00136232EF3D16C225E
:103DA0000025534303EBC103C5502379BDE87040A0
:103DB00002FB03006030FFF71FBE70BD80000020D3
:103DC000F0B50023074687B0124E134D019103ACA6
:103DD00016F8012B06A901EBD20111F8141C02F010
:103DE000070221FA02F2D20705D40133032BEFD1E7
:103DF000002007B0F0BD95E8070084E8070054F8FC
:103E000023100A6A47F823200A62002AEDD0012015
:103E1000EFE700BF8CA80000E098000010B5044652
:103E20000846FFF767FF3622237902FB0300044BA5
:103E3000083033F8100080F00200C0F3400010BDDD
:103E4000800000202DE9F341054608460C46FFF7A7
:103E500051FF36222B79204E02FB0303083336F83C
:103E600013300746DB0734D5284604F009FB95F8E4
:103E7000048021464046FFF747FF58B14046FFF710
:103E800055FF2B6800B203EB80000023C0F810350B
:103E9000C0F8103521462846FFF758FF3623287909
:103EA000019403FB00700023083026F8103001A8AD
:103EB000FFF712FF019B00EB8300D0F88020074B37
:103EC000134043F00203C0F88030054802B0BDE85B
:103ED000F0810448FAE700BF80000020F0F0FCFF0A
:103EE0000000AD0B0400AD0B2DE9F04F0D46D0F8EE
:103EF0001413AA6DC9B287B041F40031824604F0B0
:103F000098FA820307462ED50023696E03A8CDE9EF
:103F100003330593FFF754FFDFF86891DFF868B1CA
:103F20000DF10C0819F8013B05EBD30292F864205F
:103F300003F0070322FA03F3DB076CD4504B08F1BC
:103F400004084B450BF1010BECD14FF40031AA6D85
:103F5000504604F06EFA696E03A8FFF731FF00289F
:103F6000DAD127F400370124002F73D107B0BDE860
:103F7000F08F93FAA3F3B3FA83F39BF80040019315
:103F800043EA44142046FFF7B5FE083035F8101018
:103F9000019B890801F00706F2B200920122D808BD
:103FA00018F800C003F0070302FA03F32CEA030336
:103FB00008F8003002A80294FFF78EFE029B11F071
:103FC000040F03F1200350F82330009AC3F3014398
:103FD00026D021462846DEB204F00CFA02A802944C
:103FE000FFF77AFE029B203350F82330C3F30143DE
:103FF0009E4207D10021204604F0EDF931462046CB
:1040000004F0E9F902A80294FFF766FE0122029B80
:1040100002FA03F30362D8F80030002BA9D18DE730
:10402000022B0CBF0321022120460192009304F0D1
:10403000D2F9032E019A04D0009B022B06D1012A4B
:10404000E0D12146284604F0D5F9DBE7032BD9D18E
:10405000022AF5E797FAA7F3B3FA83F304FA03F217
:104060000AEB8303D3F8101527EA0207D3F81025CB
:10407000C1F30811C2F30142284604F0BBF973E70B
:104080008FA800008CA800008CA800002DE9F04348
:10409000174685B0044608460D46FFF72BFED7F8B5
:1040A00000900646B9F1000F36D036222079744BC5
:1040B00002FB0062083233F81220984612F0020F19
:1040C00006D0FFF721FE18B16E4805B0BDE8F083B9
:1040D00000224B468DF80E208DF80F20CDE90022EE
:1040E0000DF10E010DF10F02284604F02CF93620D7
:1040F000227900FB0262083238F8121021F0020126
:1041000028F81210237900FB0363083338F81320D2
:1041100042F0010228F813207B683BB34FF0360EC3
:10412000217918780EFB0161D3F804C0544B083193
:1041300033F8112012F0020F1DD0BCF1000FC3D1D3
:104140004FF0360E21790EFB0161083133F811C0B2
:104150002CF01C0C23F811C022790EFB02620832ED
:1041600033F8121041EA800023F81200BB68002BDC
:1041700046D14548A9E722F4604222F0200223F804
:104180001120BCF1000FDBD003289DD87A6821688C
:10419000526892F800C00FFA8CF230B901EB82013C
:1041A000C1F81005C1F81005CAE792001144D1F812
:1041B000108528F00308C1F8108521680A44D2F858
:1041C000101521F4473121F47C71C2F8101541F625
:1041D000F071D2F8108501EA051148EA004841EA79
:1041E0000801C2F8101522790EFB0262083233F87A
:1041F000121041EA4C3C4CF0200C23F812C09FE70F
:104200002946D3E900872046FFF7A0FDB8F1000F4B
:10421000AFD06C2320791A4D4343EA18EB589845E8
:1042200004D153689F4201D100210DE06C2303FBB0
:1042300000500DF10F016030FFF7BEFB124B9842AA
:104240007FF443AF9DF80F104FF06C0C2379C8003A
:104250000CFB030345F8038022790CFB02022A447D
:1042600057603622237902FB0366083635F816308C
:1042700043EA412343F4807325F8163079E700BF01
:10428000800000200400AD0B0000AD0B2DE9F043D1
:10429000044685B008460E4691461F46FFF72AFDA4
:1042A0000546B9F1000F34D02046FFF7B7FD94F86A
:1042B000048020B14046FFF727FD002879D136223F
:1042C00002FB08583C4B08F1080833F818209846C0
:1042D00012F01C0F03D099F80130012B69D0012393
:1042E0008DF80F30002309F10102CDE900930DF1A3
:1042F0000F0109F10203304604F025F83622237934
:1043000002FB0353083338F8132042F0030228F865
:1043100013201FB9294805B0BDE8F0833146204677
:10432000FFF77CFD002844D14FF0360C3978236824
:104330004FEA810E7344C3F81005C3F810052379C2
:104340001D4A0CFB0353083332F8130020F460407D
:1043500020F0200022F813007B78002BDAD0B87808
:1043600027681B047744D7F81085DFF858E003F47A
:10437000403308EA0E0EC7F810E5D7F810E500053F
:1043800043EA0E0341F6F07E0EEA061600F48010B2
:1043900033430343C7F8103520790CFB0050083035
:1043A00032F8103043EA413141F0200122F8101078
:1043B000B0E70348AFE700BF800000200000AD0B6E
:1043C0000400AD0B0FE0ECFF70B56C260479044DD2
:1043D00006FB0454A160037906FB0353DA6070BD49
:1043E0008000002070B5047915462046FFF78CFC4C
:1043F00068B10846FFF77EFC362303FB0400054B3B
:10440000083033F8103004485B0B2B7070BD034844
:10441000FCE700BF800000200000AD0B0400AD0BE6
:104420002DE9F041804606796C201C4D00FB0657B3
:1044300097F868407CBB384621464622103004F08D
:10444000EAFA214601248C46D8F80000BF6D8F425D
:1044500013D10023C0F84431D0F84431C0F3083000
:104460000130FDF7D5FA6C2303FB065501230C48F8
:1044700085F868302B66BDE8F081CBB29B0003F570
:1044800080729B0804FA03F39B0344BF40F802C008
:1044900083580131DBE70348EDE700BF80000020CF
:1044A0000000AD0B0C00AD0B6C210379044A01FB3D
:1044B000032393F86800003018BF0120704700BF45
:1044C000800000206C220079024B02FB00305C303F
:1044D000FFF792BA800000206C220079024B02FBA9
:1044E00000305C30FFF768BA80000020F7B5036841
:1044F0001746D3F81423064692035CBF4FF40032EC
:10450000C3F8142304790D462046FFF7FDFBF0B1F4
:104510003046FFF783FCD0B12046FFF707FC0024AC
:1045200003B29A00316802F58073CC50CB583368DF
:104530001344D3F8102542F00102C3F8102527B127
:10454000012332688340C2F8143303B0F0BD28461B
:10455000FFF7D0FB362303FB04000D4B083033F884
:104560001030C3F38203042B0FD0052B04D102219A
:10457000284603F030FFE8E701A80195FFF7ACFB00
:10458000019AC368D340DB07F1D50321F0E700BFF0
:104590008000002001490248FFF7A6BC80000020EF
:1045A00000A00D5001490248FFF79EBCEC0000201E
:1045B00000C01050074B027AD3F8101521F001010A
:1045C0000A43C3F810250268C3F8A4264268C3F85A
:1045D000AC26704700200E50012303FA00F010F0C3
:1045E000670F0AD0064B5B6820EA0300054B10F00A
:1045F000670F054808BF184670470448704700BF5A
:10460000580100200400AD0B0000AD0B0800AD0BFD
:1046100070B5002367240126027A94FAA4F1B1FA56
:1046200081F1914203F1010519D100210C241201FD
:1046300002F1A04202F56222C2F82C150B4ADBB24D
:1046400004FB03230168D96041681961017A197577
:10465000012303FA01F193680B43936070BD06FADE
:1046600001F124EA01042B46D7E700BF58010020DE
:10467000002300222DE9F048C0E90023114BD3F8B4
:1046800010359B071BD5EFF31181202383F312888C
:10469000BFF36F8F00260C4F3446D7E900BC0CF0F7
:1046A000404554EA0503F7D1CCF31303C0E900B346
:1046B00081F31188BFF36F8F0448BDE8F088044888
:1046C000FBE700BF00200E5040270E500000AD0B4E
:1046D0000100AD0BF0B5404D85B02C78002C76D1A3
:1046E0003E4A01AB07CA83E807003D491846D1F8A6
:1046F000102522F00202C1F81025FFF75BFF072307
:104700002246672101F001000244013BD2B24FEA88
:104710005101F7D1052A5CD11A4601272E48002401
:1047200067265FFA82FC96FAA6F15FFA84FEE645F8
:10473000B1FA81F145D30132052A017500F10C006F
:10474000EDD10120002427499A0800FA02F212F064
:10475000670F1CBF5C505A580433302BF4D1E4204F
:10476000FDF756F91E4B2049D3F8182703F5C073FF
:1047700022F4403242F48032C3F89825D3F89023D3
:1047800022F00202C3F8902340F6FF72C3F8A8217A
:1047900000221A60A3F5807004338B420260F8D1C6
:1047A00001240F4B11481C66114B1A68114BB2FBC8
:1047B000F0F25D202343504398470F482C7005B01A
:1047C000F0BD07FA01F126EA01060134ABE70B4818
:1047D000F5E70B48F3E700BF58010020EC98000014
:1047E00000200E5000210E50B0210E5040420F000C
:1047F0007C000020109900000000AD0B0C00AD0BF8
:104800000100AD0B73B52A4C054663680E4603F0F4
:10481000010304F1140101A80193FFF7CDF8254B22
:1048200098423DD100233370636823F00103636035
:10483000A36843F00103A3601F4BD3F8102596072C
:1048400032D4D3F8102542F00202C3F81025C5B1C6
:10485000D3F8482712F0010202BFD3F8481741F0FD
:104860000101C3F84817144BD3F84017D3F8441785
:104870004C00F9D42AB9D3F8482722F00102C3F832
:1048800048270E4B0E4A1B68B3FBF2F30A4A03EBB0
:1048900043135BB1D2F84017D2F84417490001D452
:1048A00002B070BD013BF4E70648F9E70648F7E7B8
:1048B000580100200000AD0B00200E507C000020AD
:1048C00040420F000C00AD0B0700AD0B2DE9F0418D
:1048D0000446007A1D461746FFF77EFE184B9DF8EA
:1048E00018609842804627D12046FFF791FEEFF3EB
:1048F0001181202383F31288BFF36F8F227A114B2B
:104900009200134400221A60227AC5F313051201A3
:1049100002F1A04202F562221B68C2F82075C2F8BB
:10492000245581F31188BFF36F8F2EB10123227AB2
:104930009340054AC2F824334046BDE8F08100BFE9
:104940000000AD0B00210E5000200E502DE9F34168
:104950000020254B0126D3E9012121EA020101F0C3
:1049600067010C46074614BB4FF001081F4B1E4D54
:10497000D3F820630640287D02B208FA02F33342DE
:104980000DD0E96859B1120102F1A0422F6902F578
:104990006222D2F82435D2F82025009788470134C6
:1049A000052C05F10C05E6D102B0BDE8F08194FAC2
:1049B000A4F5B5FA85F5AB0003F580729B0806FAFD
:1049C00003F319420BD002F1A04202F56222D2F8A1
:1049D00000C0BCF1000F02D017601268184306FA3D
:1049E00005F524EA0504BEE75801002000200E501A
:1049F00010B5154BD3F80443E1040AD5D3F83021A0
:104A000003F598732AB100221A601B680F4B1B68CC
:104A10009847A20408D50E4B1A682AB100201860E6
:104A20001B680C4B1B68984763040BD50A4B1A682C
:104A300042B100221A601B68064B0120BDE81040FD
:104A40001B68184710BD00BF00E010504006002052
:104A500034E110504406002038E11050036803F0A0
:104A60001F025B09022B02609ABF024A52F8230020
:104A7000002070473C9E0000142270B505790A4C56
:104A80006A43A618A25832B90221006803F03DFD1E
:104A900008B101233372142303FB0543187A02384B
:104AA00018BF012070BD00BF480600202DE9F3416A
:104AB0000C46097F0646002946D0677F218B657D1D
:104AC000A07DB4F81AC033685FB9D4E9018EE768F5
:104AD0002268C3F86025C3F86485C3F868E5C3F8A5
:104AE0006C75C3F80C550025C3F80405C3F8081508
:104AF000C3F810C53068C0F81051D0F81031C0F8B4
:104B00000851D0F80831C0F80C51D0F80C31C0F37E
:104B10000830FCF77DFF4FF0010C04F11000A27D7E
:104B2000336810F8011B0AB981F001010CFA05F78E
:104B3000D3F81825A9B33A430135042DC3F8182535
:104B4000EDD102B0BDE8F081174F04F1100554F823
:104B50002180B8F1FF3F19D06B5C01A8CDF804802B
:104B6000C3B1FFF77BFF0123019A9340436001A883
:104B7000CDF80480FFF772FF019B00EB8300D0F8B3
:104B800080303B4043F00303C0F8803001310429FA
:104B9000DDD192E7FFF762FF0123019A9340836022
:104BA000E5E722EA0702C7E7F0F0FCFFF8B51426B4
:104BB00005790C4C6E43A71997F808E0BEF1000F79
:104BC0000DD1A2517B6019B10B7F3B74FFF76EFFD3
:104BD000142303FB0544012303482372F8BD034853
:104BE000FCE700BF480600200000AD0B0C00AD0B39
:104BF00070B40C461D4601791C4B01EB81012668FF
:104C000003EB81010368C3F80467A6887600C3F844
:104C10000867A668C3F82865E668C3F82C650368CA
:104C20002668C3F82867A6887600C3F82C67A668AC
:104C3000C3F84865E468C3F84C45046802F0010312
:104C400003EB5202C4F81425EA070DD415F0020252
:104C500003D0002B14BF082204220468C4F80022E9
:104C60002A4670BC03F088BC1022F6E748060020F4
:104C7000002238B503680579C3F8002201220368D1
:104C800004465A6071B12046FFF7F6FE0028FAD0BC
:104C900000222368C3F800251422054B02FB0535CA
:104CA00001232B722046BDE83840FFF7E5BE00BF68
:104CB0004806002010B5B2211A4803F026FCC106B0
:104CC000044608D5184BDA68520704D51A6812B1A1
:104CD000596801209047A00608D5134BDA681107E0
:104CE00004D51A6812B1596802209047220608D5E7
:104CF0000D4BD86810F0100003D11A680AB159683A
:104D00009047A3070DD50022064BC3F800250122CA
:104D1000054B1A721A6822B1BDE810405968032089
:104D2000104710BD00200D504806002010B4CC7B69
:104D30008A6803682CB9D1E90041C3F80046C3F87A
:104D40000416C3F82425282302795343054AD3586F
:104D50002BB1006810BCC0F30830FCF759BE10BC82
:104D6000704700BF5C060020036870B503F01F02A7
:104D70005B09022B1ED840F60C04134E134D56F857
:104D8000231001EB8201D1F880202A402243C1F890
:104D90008020426802F01F015209022A0FD856F8FB
:104DA000222002EB8101D1F880302B402343C1F84F
:104DB000803070BD0023203253F82230FFDE002304
:104DC000203153F82130F9E7489E0000F0F0FCFF55
:104DD00070B50C4686B00221054603F03DFC20214B
:104DE0000646284603F038FCD0B1D6B9A3684FF484
:104DF0008041C5F808330223A360A3682846C5F89C
:104E0000043303F029FC18B1D5F800329B0502D415
:104E100001232B616B60012384F8233006B070BD41
:104E2000A6B3E3695E060AD494F823303BB9214661
:104E3000284603F0E0FB80F0010084F82300E369DA
:104E400013F0040339D1C5F83831D5F83821C5F845
:104E50003431D5F8343194F8253013B194F8233037
:104E600003B300230121C5F80032A3602F4BC5F81E
:104E70000833C5F30F33C3F3431203F01F0301FAE2
:104E800003F32B49603241F822300BE04FF480618C
:104E9000284603F0E1FB94F8203043BB94F825301A
:104EA000002BDFD0238CADF80430E3680493236932
:104EB000029363690593A3690393D5F8C4349807F3
:104EC000C5F8C43423D501238DF8003094F825307B
:104ED0000BB984F82430E3695B0703D594F82330D9
:104EE000002B9BD0D4E900316846984796E74FF4F1
:104EF0000073C5F800322223A3600C4BC5F80833B9
:104F0000A368C5F8043301232B652B6186E7590795
:104F100001D50223D8E7DA0701D50323D4E794F8B3
:104F20002330002BD0D00423CEE700BF2264F81F2B
:104F300000E100E02DE9F04128270579154C6F4389
:104F40008046E0190E4690F8221009BB8160E251BC
:104F5000436080F8251080F8241086B1B37B80F878
:104F6000273013B93046FFF7FFFE282303FB054324
:104F7000727B314683F826204046FFF7D7FE282370
:104F800003FB05440123044884F82230BDE8F08186
:104F90000248FBE75C0600200000AD0B0C00AD0BE7
:104FA000062102680379C2F800152821034A01FB93
:104FB0000323022283F82220704700BF5C060020F2
:104FC000282110B5002403790B4A01FB03239C60C0
:104FD00001680A4AC1F80823D1F8002222F0FF52E2
:104FE00022F4BC52C1F800220122C1F8004583F826
:104FF000222083F8244010BD5C0600202264F81FA4
:1050000028232DE9F74F924600220779BA4E04680B
:1050100003FB076383F823204B68894633B1CB68D1
:1050200003F06043B3F1005F40F0838199F80030F2
:10503000023B012B07D8D9F8103003F06043B3F1DD
:10504000005F40F076811AF0030F40F07481AB4BA3
:10505000C4F80833282303FB076393F8242002F0E5
:10506000FF013AB19B68A64DC4F80433284603B04B
:10507000BDE8F08F1AF0140F0CBF0122002283F854
:10508000242099F8002007EB870883F8202099F85E
:10509000012006EBC80883F82120D9F80C20DA603B
:1050A000D9F804201A61D9F810205A61D9F80820DB
:1050B000C3F81CA09A61CAF3001283F8252099F85E
:1050C0000130C4F88835C4F83811D4F83831C4F840
:1050D0002811D4F82831C4F81411D4F81431C4F8C4
:1050E0000411D4F8043199F80030032B00F29F80AA
:1050F000DFE803F0399422024FF48073C4F80032E1
:10510000D8E90323C4F83C27C4F8403701232365BA
:105110004FF00061204603F09FFA0028F8D1D8E94B
:105120000523C4F83C27C4F8403728234FF4806295
:1051300003FB07639A6035E0D8E90323C4F83C27F2
:10514000C4F84037D8E90523C4F80427C4F8083761
:105150004FF48453C4F80032012323612823022230
:1051600003FB0763E6E71AF0200FD8E90323C4F82E
:105170003C2714BF4FF480724FF40072C4F84037DC
:105180004FF0280315BFC4F80022C4F800224FF4E2
:105190008062022214BF03FB076303FB07639A606C
:1051A00001232361574D1AF0080F17D199F80030E9
:1051B000032B13D028227A43012B06EB0201B258AD
:1051C0004AD1A362002A34D0D9F8043033B9282355
:1051D0007B43F358002B71D00123636028237B436A
:1051E000F218F358002B69D01AF0040F1CBF0023EB
:1051F00093601AF0400F06D1282303FB07639A68D7
:1052000042F002029A60282303FB0766B36843F06A
:105210002003B360B368C4F8043327E7D8E9032355
:10522000C4F80427C4F808374FF4805392E7364D8A
:10523000B9E70A6902B9636040F2024B40F22241C9
:10524000204603F009FA012310F0200F18BF636015
:1052500010EA0B0FF2D0B7E701232365002AB3D180
:105260000A6902B96360002340F2024B13EA0B0F94
:10527000AAD140F22241204603F0EEF9810603460E
:10528000F4D501904FF48041204603F0E5F9D4F8BD
:10529000002218B112F4007F019B04D10123236185
:1052A000636048B10023D205E0D54FF48061204609
:1052B00003F0D2F90023D9E70346D7E7282202FBFF
:1052C00007660022D4F8C434C4F8C43486F8242015
:1052D00013B30E4A13F0010F0D4D18BF154613F00E
:1052E000020F02F1010218BF154613F0040F094B1B
:1052F00018BF1D46BAE600BF5C0600202264F81FF6
:105300000B00AD0B0000AD0B0400AD0B0000AE0BAD
:105310000100AD0B0200AE0B1AF0400F7FF4A6AEF9
:105320004146204603F067F9044B002808BF1D469C
:105330009CE6034D9AE6034D98E600BF0100AD0BD5
:105340000A00AD0B0300AD0B01490248FFF740BD59
:105350005C06002000800C5001490248FFF738BD70
:105360008406002000401050036803F01F025B0910
:10537000022B02609ABF024A52F8230000207047B5
:10538000549E0000F7B50C46064603F09CF908460B
:1053900003F099F901A80196FFF7E6FF40F60D0129
:1053A000019B2C4D00EB8300D0F8802001272A4080
:1053B0000A43C0F8802001A80194FFF7D5FF019AA5
:1053C00000EB8200D0F880302B400B43C0F88030D7
:1053D000042002F0B4FF092501A80194FFF7C4FFDF
:1053E000019AC368D340DB0714D401A80196FFF7E4
:1053F000BBFF019B013D07FA03F38360042002F029
:105400009EFF304603F05FF9042002F098FF15F08C
:10541000FF05E1D101A80194FFF7A6FF0123019A3E
:1054200093408360042002F08AFF204603F04BF98A
:10543000042002F084FF01A80194FFF795FF019A70
:10544000C3680548D34013F0010F044B08BF18464A
:1054500003B0F0BDF0F0FCFF0000AD0B0100AD0BA0
:105460001FB50446FBF734FC064B012202930023D0
:1054700005491846CDE9003303F042F9204603F010
:105480004FF900BF8FA80000949800002DE9F0416B
:10549000064686B00F46EFF31188202383F3128867
:1054A000BFF36F8F0024042898BF234A234B98BF73
:1054B00052F820209D6888BF214A1B7C2149CDE9F4
:1054C0000423214B03900293CDE90044234601229B
:1054D000204603F015F96FB1FB69C3F308034BB124
:1054E0001A4B0094CDE90143012223461549204679
:1054F00003F006F92DB1284603F093F908B10378BB
:1055000003B91348134BCDE9035002930023012242
:105510001846CDE900330B4903F0F2F8394630461E
:10552000FFF79EFF88F31188BFF36F8F284606B000
:10553000BDE8F041FCF718BA609E0000AC06002000
:10554000E8A8000094980000FEA8000026A900002A
:10555000F6A8000047A9000038B5094B53F82040D1
:10556000013053F82050A54200D838BD636823B1FC
:10557000204603F0DDF80834F5E723689847FAE79A
:10558000749E00000122F0B52A4B87B003202A4EFA
:105590001A70FFF7E1FF01F0D5F803F0E5F80420F9
:1055A000FFF7DAFF3746254DB54205F1300410D339
:1055B00000F03AFD214C224DBC4227D300F048FDBB
:1055C000FAF7D8FF1F4A137B23F00103137307B0C8
:1055D000F0BD54F80C3C059354F8103C049354F877
:1055E000143C039354F8183C029354F81C3C019368
:1055F00054F8203C009354E90A2354E90C0100F0CC
:105600003BFB54F8303C5D652546CDE7D4E90A23E1
:10561000591C08BFB2F1FF3F05D052EA03012068D0
:1056200003D100F0DDFD3034C6E72946183000F024
:105630007FFFF8E71407002034970000349700003C
:10564000F78800006802002008B50348034A0021DB
:10565000121A03F085F808BDE001002018070020A9
:105660000023012270B586B0CDE904230F22142552
:10567000CDE902324FF4A07201930E4B0E4E05FBA2
:1056800000350E4906EBC016044602FB00110095DA
:105690000B4B304600F0F0FA737B2C7423F00403BC
:1056A0007373084B013403EBC424EE606C6006B0E6
:1056B00070BD00BFAC060020E8010020180B0020E0
:1056C0006B870000580C0020BFB50020FFF744FF97
:1056D000294B03F5006282F3088883F30A880024CB
:1056E000E023264D264E85F82230EC772C766C761A
:1056F000AC766B6A43F4E0236B6285F82340FCF7D9
:1057000001F9FCF715FA4FF0FF33AB62EB62FCF7DF
:10571000B3FBFCF735FAFBF7C5FA1A4800F006FBB5
:1057200002F0E2FF0120FFF717FF0220164DFFF7FE
:1057300013FF00F0C3FC154B4FF480625D61144B06
:10574000144905930123CDE90144CDE903430094B5
:105750003346284600F090FA07466B7B284623F034
:1057600004036B7303F09BF82046FFF779FF324682
:1057700039462846FCF7C2F9580C002000ED00E03D
:1057800085550000E802002068020020AC060020D9
:1057900062A90000180700202DE9F34104461646CF
:1057A0001F46EFF31188202383F31288BFF36F8F16
:1057B000C368364A6BB180689168884219D056EA4E
:1057C000070318D188F31188BFF36F8F6FF00F00B4
:1057D0000CE0916891F90E100133E3609368216148
:1057E000A36088F31188BFF36F8F002002B0BDE87B
:1057F000F0812169F0E791F90E1090F90E3099428D
:10580000A8BF194611F1800F08BF6FF07E018B42CF
:1058100035DD00F091FB0546CDE9006722464146A3
:105820001B4800F05DFB0028E0D0EFF31186202339
:1058300083F31288BFF36F8FA068C0B1236821691A
:105840009C420AD04BB193F90E309942A8BF194639
:105850006FF07E039942B8BF194690F90E30994215
:1058600003D000F069FB00B1012505F0010545B149
:105870003146074800F0B2FB6FF00A00B6E700259A
:10588000CAE786F31188BFF36F8FF5E7AC060020F7
:105890001507002070B583680546002B46D0264AC0
:1058A0009268934245D1C368012B03D9013BC36081
:1058B000002070BDEFF31186202383F31288BFF31D
:1058C0006F8F0169806890F90E30994201D000F025
:1058D00033FB2C68A54208D10023AB600020E860B0
:1058E00086F31188BFF36F8FE3E77CB1D4E9003210
:1058F00013605A600023627BC4E9003322F0020285
:105900006273A36004F1180003F052F8AC60002C3D
:10591000E4D094F90E3020462B610025A56702F0F3
:10592000BEFF3146054800F059FBC1E76FF0150096
:10593000BFE74FF0FF30BCE7AC06002015070020A2
:1059400070B5EFF31186202383F31288BFF36F8FB6
:105950000468A0421AD0CCB1D4E90032002513600B
:105960005A60637BC4E9005523F002036373A560AA
:1059700004F1180003F01CF82046A56702F08FFF21
:105980003146BDE87040074800F028BBD0E902323C
:105990009A4218BF0133836086F31188BFF36F8F7B
:1059A00070BD00BF1507002037B514461D46EFF344
:1059B0001181202383F31288BFF36F8F836843B173
:1059C000013B836081F31188BFF36F8F002003B028
:1059D00030BD54EA050306D181F31188BFF36F8F00
:1059E0006FF00F00F3E70246CDE90045014800F0F3
:1059F00077FAECE7150700202DE9F04305464FF054
:105A0000FF364FF0FF37DFF8448185B0EFF311899F
:105A1000202383F31288BFF36F8FD5F88040D4B969
:105A2000022105F1980002F0BEFE00283DD005F1EC
:105A3000900400220121204602F07DFF0028F8D1C9
:105A40000023CDE90067029305F1880249463E48EC
:105A500000F08CFCDAE7D5F8842023689442C5F87E
:105A6000803001D1C5F88430D5F8983043F0020376
:105A7000C5F89830E36823F0040343F00103E360C2
:105A8000636889F31188BFF36F8F20469847EFF35F
:105A90001189202383F31288BFF36F8FE368D9063F
:105AA00023F001020ED4E26013E0D5F89830D90655
:105AB000C6D5C5F8980089F31188BFF36F8F05B07C
:105AC000BDE8F08323F01103E36004F11000FFF759
:105AD00037FFE3689A0719D5D8F8000023F00203CE
:105AE000E36098B10021026843689C4226D10368B4
:105AF000E1B9D8F80420C8F80030904201D1C8F8C4
:105B00000430002340F8083BFFF71AFFD5F898301F
:105B100023F00202C5F8982089F31188BFF36F8F34
:105B2000D8053FF573AF00F0D1FA6FE70B60D8F8F6
:105B30000430984208BFC8F80410E2E7002AE5D014
:105B4000014610461268CFE715070020CC0600205A
:105B5000F8B5C3680446C3F340050F4605BB5E07AE
:105B600020D40B680BB983680B60E368D80742BF89
:105B7000A36802253B603E6858BF01257EB31B4BDE
:105B80009B68B34211D102F043FE80F00100C0B225
:105B9000D6F89830D907C3F3800223D53AB140B97B
:105BA0006FF00F0500233B6013E00020F0E71B07B8
:105BB000F6D400232360D6F8843063B9C6E92044C4
:105BC000304602F0FBFDE36843F00403E3603B680A
:105BD000A3602846F8BD1C60C6F88440F0E76FF06B
:105BE0001505DFE76FF01205DCE700BFAC0600200B
:105BF0000146014802F0FCBD88030020F0B50446D0
:105C0000002089B0C4E920000E9D04F18800C4E999
:105C1000220004F19000C4E924004DB32879002843
:105C200040F2011008BF0120C4F8980000204FF096
:105C3000FF364FF0FF37CDE90330CDE90100CDE964
:105C4000066700940B4B204600F044F855B12968D4
:105C500011B1204602F0E2FD6B791BB1237B43F0CA
:105C600001032373204609B0BDE8F04000F0B8BA44
:105C70000120D9E7F9590000F0B585B00E9E00F17A
:105C8000580506730426C0E91655002504464673D8
:105C900007320D9E22F007028673C0E919128E1892
:105CA0000C9A8560C573C0E90655C56602920B9AC9
:105CB00001920A9A00923246FBF704FF044B656595
:105CC0009B6803B11B6F3046236705B0F0BD00BF72
:105CD000AC060020F0B5002587B00595109DDDE9E4
:105CE000126704950F9D044603950E9D02950D9D28
:105CF00001950C9D0095FFF7BFFF7B1C08BFB6F117
:105D0000FF3F05D056EA070305D1204600F068FAA8
:105D1000204607B0F0BD32463B46034904F1180067
:105D200000F006FCF4E700BFF788000040F2011322
:105D300083810023C0E919330367014B98607047E2
:105D4000AC0600206FF00A01084A93689967084979
:105D500058674B6843F080534B60002383F31188EE
:105D6000BFF36F8F9368986F704700BFAC06002039
:105D700000ED00E038B5437B01461C0604D503F076
:105D80007F03437302F04FFD0D4C224652F8185F1B
:105D9000A368954200D005B9E5688B4209D05A7BCB
:105DA000D20606D1DA897F2A03D9AA690AB96361C2
:105DB00038BDAB4202D0284600F018FB6561F7E71A
:105DC000AC06002070B5437B1C0629D4D90627D128
:105DD0001D4C63F07F032246437352F8183F9342F1
:105DE00024D01BB3E66990F90E5093F90E108D4242
:105DF00017D0491B002914DD5968C0E9003108603B
:105E00005860A569954200D005B9E568A3685A7B3A
:105E1000D20611D1DA897F2A0ED9AA6962B96361E3
:105E200070BDB34202D01B68002BDED1E369C0E92C
:105E300000231860E061E4E7AB4202D0284600F09E
:105E4000D5FA6561ECE700BFAC06002070B5437B76
:105E500001461C0604D503F07F03437302F0E3FC04
:105E60001E4C4B7B224663F07F034B7352F8183F66
:105E7000934226D02BB3E66991F90E5093F90E00A8
:105E8000854219D0401B002816DD5868C1E9003052
:105E900001605960A569A368954200D005B9E5681D
:105EA0008B4214D05A7BD20611D1DA897F2A0ED9BF
:105EB000AA6962B9636170BDB34202D01B68002B4E
:105EC000DCD1E369C1E900231960E161E2E7AB429B
:105ED00002D0284600F08AFA6561ECE7AC060020A3
