:10000000781C0020D544000047B60000C144000021
:10001000C1440000C1440000C1440000C1440000CC
:1000200000000000000000000000000099450000F2
:10003000C1440000000000003D450000C144000034
:100040000D4700000D4700000D4700000D47000060
:100050000D4700000D4700000D4700000D47000050
:100060000D4700000D4700000D4700000D47000040
:100070000D4700000D4700000D4700000D47000030
:100480007BB972B90029BEBF00204FF0004106E0E1
:1004900008BF00281CBF6FF000414FF0FF3000F094
:1004A000BBB9ADF1080C6DE904CE002909DB002BC6
:1004B0001ADB00F04DF8DDF804E0DDE9022304B0BA
:1004C0007047404261EB4101002B1BDB00F040F81C
:1004D000DDF804E0DDE9022304B0404261EB4101B4
:1004E000524263EB43037047524263EB430300F015
:1004F0002FF8DDF804E0DDE9022304B0404261EBAF
:1005000041017047524263EB430300F021F8DDF8EC
:1005100004E0DDE9022304B0524263EB4303704779
:1005200053B94AB9002908BF00281CBF4FF0FF315A
:100530004FF0FF3000F070B9ADF1080C6DE904CE5A
:1005400000F006F8DDF804E0DDE9022304B07047AE
:100550002DE9F04F099E04468946002B40F0838028
:100560008A42154645D9B2FA82F24AB1C2F1200751
:1005700001FA02F39540944020FA07F747EA03098D
:100580004FEA154E230C1FFA85F8B9FBFEFC0EFB53
:100590001C990CFB08F143EA094399420AD9EB186C
:1005A0002CBF01200020994202D9002800F01D81B3
:1005B0000CF1FF3C591AA3B2B1FBFEF00EFB101177
:1005C00000FB08F843EA0144A04505D92C1902D2E2
:1005D000A04500F20E810138A4EB080440EA0C406B
:1005E00000271EB1D4400023C6E900433946BDE8C8
:1005F000F08F002A51D0B2FA82F2002A40F0AF8088
:10060000491B4FEA154E1FFA85F80127230CB1FB51
:10061000FEFC0EFB1C1108FB0CF043EA0143984260
:100620000AD9EB182CBF01210021984202D90029D8
:1006300000F0D7800CF1FF3C191AA3B2B1FBFEF019
:100640000EFB101108FB00F843EA0144A04505D950
:100650002C1902D2A04500F2C1800138A4EB080495
:1006600040EA0C40BDE78B4208D9002E74D0002729
:10067000C6E9000138463946BDE8F08FB3FA83F782
:1006800067B98B42C0F0A480824240F2A180384614
:10069000002EABD0C6E90049A8E7FFDEC7F1200570
:1006A000BB4002FA07FC01FA07F4EA4020FA05F819
:1006B000E94000FA07FE1A4348EA04044FEA1248E8
:1006C000200C1FFA82F9B1FBF8FA08FB1A110AFB99
:1006D00009FB40EA01418B450AD951182CBF01237F
:1006E00000238B4502D9002B00F088800AF1FF3AE5
:1006F000A1EB0B01A4B2B1FBF8F008FB101100FB59
:1007000009F944EA0141894504D9511801D28945C2
:100710007BD8013840EA0A40A1EB0901A0FB0C8913
:10072000494544464B4602D306D1C64504D201385A
:10073000B8EB0C0469EB0203002E5DD0BEEB0402A3
:1007400061EB030101FA05F522FA07F3F9400027EE
:100750001D43C6E9005149E73746304646E7C2F136
:100760002000954001FA02F721FA00F34FEA154EF6
:1007700024FA00F11FFA85F894403943B3FBFEF0E8
:100780000F0C0EFB103300FB08FC47EA03439C45AB
:1007900007D9EB182CBF012700279C4500D98FB340
:1007A0000138A3EB0C0389B2B3FBFEF70EFB173342
:1007B00007FB08FC41EA03418C4504D9691801D2C2
:1007C0008C4525D8013FA1EB0C0147EA00471DE706
:1007D000841A61EB03030120994659E702382C443F
:1007E0003CE7ACF1020C2B4426E7ACF1020C2B44A5
:1007F000E0E602382C44EFE63746F7E6AAF1020AB3
:10080000114475E702382B44CBE70238114481E7E5
:10081000023F2944D7E700BF704700BF10F8012B03
:1008200011F8013B012A28BF9A42F7D0D01A70472D
:10083000034611F8012B03F8012B002AF9D1704768
:10084000034613F8012B002AFBD1181A0138704710
:100850002DE9F04F87B08046039115469B4683688B
:1008600004AA5B689847002833DBDDE9044A1EA32D
:10087000D3E90023A5FB046705FB0A773046394618
:10088000FFF74EFE1AA3D3E90023BB4208BFB242D2
:10089000814621D314A3D3E90023ABFB04450BFB12
:1008A0000A5520462946FFF73BFE11A2D2E9001265
:1008B000AA4208BFA14203460ED39945D8F80820A2
:1008C0000DD3BDF8401040460091146803994A4684
:1008D000A04707B0BDE8F08F6FF08500F9E76FF033
:1008E0001500F6E7AFF3008000CA9A3B0000000055
:1008F000FFFFFFFFFFC99A3B2DE9F04782468AB010
:100900000F4616460CF037FC4FF47A73A0FB0345F4
:1009100003FB01552046294647F612220023FFF724
:10092000FFFD012F04460D4607D102460B465046F7
:10093000354909F085FF002011E0766833483146DB
:10094000FFF76CFF70B131463148FFF767FF48B1E0
:10095000504632462F4909F08FFF6FF004000AB06D
:10096000BDE8F087204626A3D3E900232946FFF7F8
:1009700087FDCDE90823DDE90801274A0023FFF7B9
:100980007FFD16461F46304639464EF6602200234C
:10099000FFF776FD20469046994619A3D3E9002338
:1009A0002946FFF76DFD4FF47A7204460D46404626
:1009B00049460023FFF764FD4046CDE9062349463A
:1009C0004FF47A720023FFF75BFD4EF66022CDE90B
:1009D0000401002330463946FFF752FD0E4ACDE9A7
:1009E0000201DDE908010023FFF74AFD2246CDE9B7
:1009F00000012B460949504609F022FF9BE700BF42
:100A0000005C2605000000007DF600008EF6000068
:100A100091F600009AF6000080EE3600B2F6000073
:100A200002292DE9F341064608D01A4909F008FFCA
:100A30006FF01504204602B0BDE8F08150680CF05C
:100A400010FD6428074602D913493046EEE76421B9
:100A5000124B00251A68DFF8548000FB02F3B3FB49
:100A6000F1F3009529460E48C8F80030FFF7F0FE74
:100A7000041E05DA22460B49304609F0FDFED9E78F
:100A8000D8F800303A460849304609F0D9FE2C46DD
:100A9000D0E700BFCCF20000F2F20000040000201A
:100AA0002CDB000019F3000041F3000000000020DF
:100AB00002292DE9F341064608D0184909F0C0FE85
:100AC0006FF01504204602B0BDE8F08150680CF0CC
:100AD000C8FC074610B912493046EFE70025114A15
:100AE000114BB2FBF0F20095DFF84C801B682946F1
:100AF0000E48C8F80020FFF7ABFE041E05DA2246B8
:100B00000B49304609F0B8FEDCE7D8F800303A4629
:100B10000849304609F094FE2C46D3E765F30000FF
:100B200085F3000000CA9A3B000000202CDB000087
:100B30009FF30000C3F30000040000207FB52E4D9A
:100B40002B6803F00703022B09D92C4B03220293D5
:100B500000232946CDE90033184609F0B5F9284E9F
:100B600030460CF03DF9034678B92A68520709D09F
:100B7000326821490392234A0090CDE90102012203
:100B800009F0A2F9002004B070BD00241E4B1F4ADA
:100B900000941B68126821463046FFF759FE002872
:100BA0002B680BDA5B07EDD0194B0390CDE90143BD
:100BB00000942346012210492046E1E703F0070391
:100BC000022BDFD9134B0094CDE9014303222346C6
:100BD0000949204609F078F92B6803F00703022B36
:100BE000D0D90D4B0094CDE901430322234602499D
:100BF000204609F069F9C5E7C0020020EFF30000C4
:100C00002CDB000014F40000000000200400002091
:100C100036F4000065F4000093F400002DE9F04F75
:100C20001F4691B002F004030193C2F3C2030133E3
:100C30000593830705460E460392DDF868B040F041
:100C40008F81041D002840F08E8101F00706344496
:100C5000C6F108064FF0000A4FF0FF32D1464FF0C0
:100C600004087B1ECDF808A0CDF810A005B12760C0
:100C70000598002807DC88488742C0F0AA8087488A
:100C8000874280F0A680039911F0020E00F0C18027
:100C90004FF0010C601BBEF1000F00F0A080B0F51A
:100CA000007FC0F09C806FF0150058E020385A2873
:100CB00034D8DFE800F0603333603332333333331A
:100CC000706033606033606060606060606060606E
:100CD00033333333333333443333334444443333A0
:100CE00033336033333333333333333333333633A4
:100CF000333333333333334433363644444460364A
:100D00005E3360332E362E3333866D3633333633CF
:100D10006D0000204FF0000A0EE0013A4FF0000A8B
:100D200029E013F8010C6C284DD113F8020C6C2843
:100D30004FF00000824649D04FF004082CE00CF13F
:100D4000070B2BF0070B07340BF1080C24F00704FA
:100D500065B106982044B04204D96FF01B0011B071
:100D6000BDE8F08FDBE900ABC4E900AB4FF0000A4F
:100D700008344FF0080813F8010F002800F08280B3
:100D8000BAF1000F92D12528F5D14FF0010A0132B6
:100D90004FF00408EFE70020013C4444B4FBF8F4B2
:100DA00008FB04F425B1A8EB050EA644B645D4D83B
:100DB00000284AD0E34605985BF8047B013805908B
:100DC00054E75046A6E700208246E5E74FF00808C2
:100DD000E2E703994FF0000C01F0020E5AE7B9F177
:100DE0000F0F3FF660AFF5B110A901EB090EC0F38C
:100DF00087000EF8200C0EF8102CBCF1000F0ED05E
:100E000060F07F000EF8200C02980130029009F18A
:100E10000109C5F108000434DC460690ABE70498EC
:100E200001300490F3E7BCF1000F01D00136EEE78A
:100E3000019802360028EAD13846CDE90623FFF7AB
:100E4000FFFCDDE906230644E1E7B8F1040F08D111
:100E50000CF1040115B1DCF80000206004348C466C
:100E600089E7B8F1080F7FF41EAF0CF1070B2BF0E8
:100E7000070B0BF1080C1DB1DBE90001C4E900010F
:100E8000083478E7631BB3F5806FBFF40CAF3DB94E
:100E9000A6F10804E01862E70CD90000F011010087
:100EA000019A9B0828602B709DF810308AB16870F9
:100EB000EB70029BAB702BB1002208A9C5F10100B9
:100EC000914509D14FF00008C5F1010A0DF1300B31
:100ED00035E06B70019BEBE711F8013B13F0800FDD
:100EE00008D000EB040CB44503F07F033FF635AFA8
:100EF00004F8013B0132E3E7029B23B108AB13F98D
:100F00000830002B19DB019BEBB118F80B3004F80B
:100F1000013B00230AEB04021A44B2423FF61DAF24
:100F200008AA12F80820394604F8012B20461A4670
:100F300003930CF066FA039B1C4408F10108C145B9
:100F4000DAD1601B0BE708AB13F80830019A55F8AB
:100F5000237045F823203846FFF772FC431CD9E77D
:100F60006FF00D00FBE607293FF674AEF5E600BF13
:100F7000014B1860704700BF080000202DE9F84FB2
:100F8000B0F81890044619F008080DD001290CBFDC
:100F900049F0100949F02009A0F8189082F311884F
:100FA000BFF36F8FBDE8F88F09F00709022907D159
:100FB000204609F05FF80028F0D00128238B4AD1A1
:100FC0006769238B002F15DA2568C4E9008823F0B0
:100FD000070343F0010323830026238B03F0070A52
:100FE000CA4502D0A168002956D10DB9002E6CD097
:100FF000002152E003F00701481F01281CD823F00C
:101000000703062925689BB2C4E9008802D15DB9AF
:1010100043F002032383204609F02CF80028DBD09C
:10102000238B43F02003D6E72946608B0130608391
:1010300009680029F9D1EBE704290AD123F0070355
:1010400099B22183204609F015F810B141F0200132
:1010500021830025C0E7032809D1216923F0070374
:101060000E6843F00603002523832F46B5E70428C6
:1010700006D1216923F007034E6843F00403F2E729
:10108000052806D1216923F007038E6843F0050384
:10109000E9E700252E46E8E7012143F00803238312
:1010A00082F31188BFF36F8FF1B97DBB16B1204970
:1010B0002046B047EFF31182202383F31288BFF359
:1010C0006F8F238B23F008032383238BD90627D527
:1010D000012123F010032383B4F8189009F00709C5
:1010E00000297FF463AF59E7A1680029DDD0D1F86A
:1010F0000090D1F804B03B4652462046D847B9F19B
:10110000000FD2D04946D9F80090F2E7D5F8009008
:1011100029463B465246204608F0C8FF4D46C4E7E4
:1011200013F020011EBF23F0200323830221D3E705
:10113000D9A000002DE9F84F82463648884609F0CC
:10114000FBF8002858D000252846BDE8F88FE31B9F
:1011500062681B1101331371237B8BB12368DB6839
:101160000BB120469847636883F8069023681B6993
:10117000002B39D1636804221968204609F005F96B
:10118000013610345C45E2D3BAF1000FDCD04FF0E9
:101190000109002DD7D02E4695FAA5F4B4FA84F4AF
:1011A00009FA04FA6FEA0A0A240107EB040B9BF818
:1011B0000C3005EA0A055BB13B591B692BBB3C446B
:1011C000636804221968584606EA0A0609F0DDF841
:1011D000002DE1D1B8F1000F04D040F23910002108
:1011E0000BF04AFF3546D4E7204698470028C1D087
:1011F00009FA06F31D43C3E7074C06460546274692
:10120000DFF818B04FF00109BCE7584698470028AE
:10121000DED1D4E7980900202CE600003CE600006F
:1012200008B530B1044B1860084600F037FB0020C9
:1012300008BD6FF01500FBE70C00002008B5002387
:10124000064A07491370074A07481360074A1360A4
:10125000FFF7E6FFBDE8084000F080B8E80F002087
:1012600040420F009409002035A30000900900209F
:1012700070B50B4D297841B90120FFF75BFF094C90
:10128000094EB44202D301232B7070BD63685B79B1
:101290001BB1236820469B6898471034F1E700BFD4
:1012A000E80F00202CE600003CE6000010B50446E4
:1012B000064809F041F83CB1054BD3E8EF2F013A5D
:1012C000C3E8E12F0029F8D110BD00BF9409002028
:1012D000900900202DE9F041164B05461B68984700
:1012E000154CDFF85880A860444501D3BDE8F08173
:1012F00063685B793BB129784B0706D5236829469B
:101300001B68204698471034EEE728462E88C1F324
:10131000C20700F04FF9C6F382160246002EEDD048
:101320000028EBDB01233946204600F0C9F8B04223
:10133000E9D3E3E70C0000202CE600003CE60000C7
:10134000044A054B9B1AB1EBD30F34BF52F831005E
:101350000020704794E500002CE6000000210B48B7
:101360000B4B30B51B1A0B4CDB080430994200D1F3
:1013700030BD10F83120256802F0070225F007057E
:101380002A4344F8042B0131F0E700BF94E5000044
:101390002CE600008C020020F8B5074600240A4E17
:1013A0000A4DAD1BED08AC4203D14FF0FF3420468F
:1013B000F8BD56F8340020B13946FFF72FFA00285F
:1013C000F5D00134EFE700BF94E500002CE6000003
:1013D00000282DE9F047884615461F461DDA4FF0D4
:1013E000000A5446DFF8A490244EA6EB09063609FD
:1013F000564509F1100902D12046BDE8F08759F899
:101400000C0C3B462A4641460079FFF7E1FF844237
:1014100038BF04460AF1010AEAE7194B194AD21A01
:10142000B5EBD20F2EBF002403EBC5031C7914B11A
:10143000BC4228BF3C460723C0B2134A00EB400021
:1014400003FA00F152F8253023EA010304F0070102
:1014500001FA00F003430321002023FA01F606F00D
:101460000706B04201F1030138BF30461E29F4D10E
:1014700023F00703034342F82530BDE73CE60000B4
:1014800094E500002CE600008C0200202CE6000011
:10149000F8B506460F460024074D084BED1AED0837
:1014A000AC4200D3F8BD002122B23B4630460134A5
:1014B00008F063FFA4B2F3E72CE6000094E5000017
:1014C00070B14168087973B1002A17DB0C49C0B2CA
:1014D00000EB400351F82200D84000F007007047AD
:1014E0004FF0FF30EFE707490748401AB2EBD00F43
:1014F0003ABF01EBC20108791846704704207047D3
:101500008C02002094E500002CE600002DE9F04F4D
:1015100087B004AFBE6B83468846924699463C6BC3
:101520000EB3FB6B10217B6000937A6B3346002077
:10153000FFF774FBB0F5006F014615D31B490B682C
:1015400013F0060F0BD040F2FF730393184B0222E7
:1015500002930023CDE90033184608F04DFF0C3705
:10156000BD46BDE8F08F314600256FF307056BF3EC
:10157000C5056AF3881561F3532564F31F551734C5
:101580000C4424F00704ADEB040D04AC3EB1FB6B3E
:101590007A6B009304F110003346FFF73FFB4B4694
:1015A0002A464146204608F00DFFD8E7A802002051
:1015B0004EF50000406820B1034BC01A40F38F0085
:1015C00070474FF0FF3070478C0200200EB403B517
:1015D00003AB53F8042B01460448019303F0C0FA0F
:1015E00002B05DF804EB03B0704700BF35A4000003
:1015F0002DE9F04F89B09DF84C9004460F460592B6
:101600009846179EB9F1000F00F0EE8006F0010336
:10161000069306F4807306F0020A06F0080B07939F
:1016200008F0A9FE20B1024686492046FFF7CEFF0A
:101630000546BAF1000F09D016F0440F40F0A9801A
:101640003A4681492046FFF7C1FF0544069B53B146
:101650007E4B7F4953F829207E4B2046002A08BF45
:101660001A46FFF7B3FF079B002B18BF4FF0000887
:10167000BBF1000F07D0784B784953F8292020465A
:10168000FFF7A4FF8346059B2BB11A4674492046F9
:10169000FFF79CFF8344B8F1000F05D04246714923
:1016A0002046FFF793FF83446F485D44149B1BB1B2
:1016B00022466E4908F074FC169B002B49D0DFF8D7
:1016C000D081169F102F28BF1027F30606D4B0062E
:1016D00040F1928066492046FFF778FF4FF0000AFC
:1016E000554500F38B804FF0000ADFF8A8B157454D
:1016F00040F29480159B594613F80A202046FFF7C4
:1017000065FF0AF1010ABAF1100F7ED1594920464E
:10171000FFF75CFF4FF0000BDFF87CA15F4540F264
:101720008B80159B514613F80B202046A2F1200315
:101730005F2B28BF2E22FFF749FF0BF1010BBBF1F6
:10174000100F70D1159B3B441593169BDB1B169312
:10175000B7D1B9F1000F0FD0F10704D53D4A3C498C
:101760002046FFF733FFF20606D4B3064CBF4049CC
:1017700041492046FFF72AFF6268A168D2E90023A9
:10178000206808F049FE002263681A6009B0BDE8CD
:10179000F08F3A4B186800283FF457AF384B4FF49E
:1017A0007A711B684FF4616CB7FBF3F7B7FBF0F38A
:1017B00000FB13774F43B3FBFCF2B7FBF0FA4FF09B
:1017C0003C0E0CFB123C00FB1A77BCFBFEF34F43B4
:1017D000B7FBF0F70EFB13C1CDE901A7009120463E
:1017E0002849FFF7F3FE30E71F48274B4D46B8F175
:1017F000010F18BF184659E71F496CE741462046BC
:10180000FFF7E4FE0AF1010A6AE71AF0070F7FF416
:101810006EAF41462046FFF7D9FE68E71B492046D8
:10182000FFF7D4FE6DE71BF0070F7FF477AF41465B
:101830002046FFF7CBFE71E741462046FFF7C6FE84
:101840007BE700BF8BF500008FF5000060E800002B
:101850007EFB000086F5000074E80000B4F500008F
:10186000BAF50000BEF5000035A40000614B000091
:1018700055F90000D0F50000C3F500009C090020D8
:10188000A009002098F5000051A40000CCF500004C
:10189000CEF50000C6F500009C01010001230021E7
:1018A000074A10B5074C1360A04204D801B1136079
:1018B000054B186010BD40085B000121F4E700BF34
:1018C000A009002040420F009C090020014B03604A
:1018D0000020704788E8000003289ABF024B53F8A5
:1018E00020000248704700BF88E8000056F9000059
:1018F00010B504460BF08BF803490246204608F069
:101900009FFF002010BD00BF28F60000F7B513466A
:101910000022054601920A2101AA586809F022FA1C
:10192000019CA4B920EAE07140F2E73647F61220A4
:101930000027C0FB01674FF47A7200233046394616
:10194000FEF7EEFD0BF098FB204603B0F0BD2246FB
:101950000249284608F090FF019CF5E754F6000084
:1019600008B5034A034908F06BFF002008BD00BF1B
:1019700044F700004AF70000F7B517460023054674
:1019800001AA0A21B868019309F0ECF91749C6B217
:10199000284608F063FF019C44B1224614492846BA
:1019A00008F06AFF019C204603B0F0BD042E09D95F
:1019B00032461049284608F05FFF284608F098FF95
:1019C0000124F0E77868FFF7E7FC021E07DA7A687F
:1019D0000949284608F050FF6FF01504E3E7334645
:1019E00012B22146204608F0C8FCDCE775F700007B
:1019F000DBF7000002F8000019F80000002307B52B
:101A00000090694604488DF8043007F063FD9DF8A6
:101A1000040003B05DF804FB2DA5000010B50446DA
:101A200004F08CFD07490246204608F009FF2046D5
:101A3000054908F005FF2146044807F065FD002030
:101A400010BD00BF78F8000097F80000511A0000A0
:101A5000F0B58FB004460D46D0F8A0600BF05DFAEB
:101A6000074607F0DDFB204B2049002F08BF1F462B
:101A70001F4A2346844208BF0A46009728461D494C
:101A800008F0DEFED4E90A232846CDE900231A49EE
:101A900094F90E30227B08F0D3FE06A920222046BE
:101AA00006F0DEFF636E02461449284608F0C8FEC1
:101AB00005A920460BF03FFA024628B110492846F6
:101AC00008F0BEFE0FB0F0BD6422059B2846F11A57
:101AD0004A43B2FBF6F20091CDE901620949324670
:101AE00008F0AEFEEEE700BFA1F80000A30B010076
:101AF000CEF50000A4F80000B0F80000DCF800000B
:101B0000F3F8000020F90000F0B50024054691B07C
:101B100008AF1A22144E20213846CDF83A40ADF8CD
:101B20003E400BF096FC2946104807F0EDFC07AA52
:101B30004FF4006130460BF0F2F96423079A28460F
:101B4000C2F500614B43DB0A05934FF40063009735
:101B5000CDE90313CDE9013205492346324608F0A9
:101B60006FFE204611B0F0BDB81D0020751B0000AF
:101B700071F9000070B5054688B00E46D0F8A04057
:101B800007A90BF0D8F9024628B10F49304608F0F2
:101B900057FE08B070BD28460BF0BFF96423079AC2
:101BA0000094A11A4B43B3FBF4F3CDE90343074B75
:101BB000CDE90121002818BF03462A4604493046D2
:101BC00008F03EFEE5E700BFF3F80000A1F80000D2
:101BD000BAF9000038B513460546102200215868AE
:101BE0000BF01DFD0446FFF709FF38B922460D49E9
:101BF000284608F041FE6FF0150038BD07F010FBD5
:101C0000844204D10849284608F036FEF3E720460E
:101C100007F0CCF828462246044908F011FE0020BF
:101C2000EBE700BF1EFA000039FA000061FA00007D
:101C300038B5134605461022002158680BF0EFFC1A
:101C40000446FFF7DBFE38B922460D49284608F066
:101C500013FE6FF0150038BD07F0E2FA844204D19C
:101C60000849284608F008FEF3E7204607F0A6F9E1
:101C700028462246044908F0E3FD0020EBE700BFB8
:101C80001EFA0000A0FA0000C6FA000038B513469C
:101C900005461022002158680BF0C1FC0446FFF7EE
:101CA000ADFE38B922460D49284608F0E5FD6FF033
:101CB000150038BD07F0B4FA844204D1084928461B
:101CC00008F0DAFDF3E7204602F022FC284622461F
:101CD000044908F0B5FD0020EBE700BF1EFA000044
:101CE00001FB000026FB00002DE9F04F89B00546FE
:101CF00002A806F06BFA1C27029B304A07FB00374C
:101D00000821284608F08FFDDFF8CCA0029CBC42D9
:101D100003D3002009B0BDE8F08F23680BB11A7817
:101D200032B92346264A142103A807F049FE03AB23
:101D3000244A0821284608F076FD20460BF050F88A
:101D400078B300230DF1070120468DF8073008F025
:101D5000C0FB20BB9DF80700FFF7BEFD03461A4AF3
:101D60000821284608F05FFDA369B3B11E68A6B13B
:101D7000336893B1154A0821284608F054FD4FF006
:101D80000008DFF858B006F10409336843450AD863
:101D90000F4A0821284608F046FD1C34B7E70D4BD2
:101DA000DDE75346DBE759F8043B5A46082128464D
:101DB00008F039FD08F10108E7E700BF6DFB0000FE
:101DC00077FB00007CFB0000EB01010081FB0000C1
:101DD00055F900005EFB000064FB00007DFB000085
:101DE0002DE9F0411446884607461022002160681C
:101DF0000BF015FCB8F1020F06461DD90A2200218E
:101E0000A0680BF00CFCC5B22B46204A08213846CE
:101E100008F009FDB8F1030F1ED8102D0ED0202DAB
:101E20000FD0082D0FD13378DBB2194A082138467C
:101E300008F0F9FC00200DE02025E5E733889BB28F
:101E4000F3E73368F1E73846124A082108F0EBFC63
:101E50006FF01500BDE8F08110220021E0680BF062
:101E6000DEFB0D4A034604460821384608F0DBFC39
:101E7000102D06D0202D07D0082DE4D1E4B2347007
:101E8000D8E7A4B23480D5E73460D3E7D5FB0000AF
:101E900000FC0000EAFB000011FC000070B50E4CD5
:101EA000054623780E4631B12BB10C4908F0E4FC0D
:101EB0006FF00F0070BD83F0010323702BB1084950
:101EC000284608F0BDFC012323702846314608F05F
:101ED0002DFD0020EEE700BFEB0F0020B8FC000056
:101EE000F3FC000000232DE9F74F804617460E460D
:101EF00029492A4D0B602A49DFF8B890DFF8B8B0BD
:101F00002B700B60012E3C4657F8043F1FD9184632
:101F10000222494601930BF0C3FA019B78B99A78E3
:101F2000003218BF012203EB020A1E49022250466A
:101F30000BF0B6FA28B901232B70013EE2E700222C
:101F4000F1E749465046FEF769FCB0B90434002277
:101F5000606811460BF063FB0022134B11461860BA
:101F600060680BF05CFB114B114918604046FFF7AD
:101F700095FF002003B0BDE8F08F9AF800202D2ACD
:101F8000E5D19AF80120002AE1D052465946404650
:101F900008F056FCD1E700BFA8090020EC0F002094
:101FA000B0090020A0FC0000A4090020AC0900201A
:101FB000BD1F00009DFC0000A3FC000070B53E4B5F
:101FC00005461878182802D10878112831D008461B
:101FD000013A8C18844225D18A5C384C1A700A78F0
:101FE000A2F13003092B04D922F02003413B052B39
:101FF00004D823683249CA54013323602368022B72
:1020000033D1102200212E480BF009FB2D4A136812
:1020100003F8010B13602C4A13680133136000238B
:10202000236022E010F8016B182ED3D10678112E10
:10203000D0D1254C25492268284608F001FC002112
:102040002846FFF72BFF224B187870B9214A2368E6
:102050001168042B0ADC08B11160236013F003013E
:102060000BD1126813681BBA136070BD0868043B7B
:1020700000BA41F8040B0120EBE75B4203F00303D5
:1020800058BF5942022907D112681168C1F30723CA
:1020900043EA01239BB2E7E70329E6D1106802680F
:1020A0001104C2F3074301F47F010B4302F47F42A2
:1020B00013430360D9E700BFED0F0020A8090020FB
:1020C000E90F0020A4090020B0090020BBFB00009C
:1020D000EC0F0020AC09002000232DE9F04F9246C0
:1020E0004FF0FF35012287B00193494B07468946DF
:1020F0001A604FF0200802F075FD2C46DFF830B171
:10210000444E51465A46484602F090FD411C06D1C5
:102110006A1C33D14049384608F0AEFB13E07328FF
:1021200014D077281ED061280DD101AA1021306863
:1021300008F018FE019B0546002BE2D032683749B3
:10214000384608F099FB6FF015005DE001AA002108
:10215000306808F007FE019B0446002BD1D032689E
:102160002F49EDE701AA0021306808F0FBFD019B33
:102170008046002BC5D032682A49E1E7631C01D1B3
:102180002949C8E75FFA88F64FEAD608002C3AD00A
:1021900002AB00211A4609E0102E1BD0202E1FD0C2
:1021A000082E2AD1495D197001464344A04503D841
:1021B00001EB08001028EFD9102CA14628BF4FF0E2
:1021C000100929464B46384600F058FF1035A4EB5D
:1021D0000904DBE7495B89B21970090A5970E3E722
:1021E00049594FEA112C197083F801C04FEA114C7C
:1021F000090E83F802C0D970D6E70C4A0821384688
:1022000008F011FB9FE7204607B0BDE8F08F00BF44
:102210007C000020600D002066FC000025FC000012
:1022200038FC00004BFC000083FC0000EAFB0000CF
:102230005FFC000010B54468A3604023C4E90012AD
:1022400042680821D36402F1580313630023C2E9F2
:102250000E33C2E91133C2E90633C2E90933D16250
:10226000146802F1500153631364116153611362E6
:10227000C2F8D030A36823B11B6C13B104492046C7
:102280009847A3681B6A0BB120469847002010BDF1
:10229000F12200007FB50BAB05930393054B02229F
:1022A00002930023CDE900331846FFF72FF907B05A
:1022B0005DF804FB9CFE000007B50A480AF090FD9B
:1022C00060B10423084A00931268012305490748B6
:1022D00000F032FF002003B05DF804FB6FF0120045
:1022E000F9E700BF68DA000040E900003CE60000C2
:1022F0002DE9F04F054687B00C468368DB6B03B1D0
:102300009847AB68DB6A002B32D10027DFF81491C5
:1023100004F13008616C626BE36C521A9A1A9342B2
:1023200004F1340A28BF1346514605AA404607F077
:1023300077FF064600283DD0AB6805991B69002B46
:1023400035D0024628469847B0F1000B5A46514610
:10235000404618BF012707F095FFBBF1000F01D0E1
:10236000B345D7D047B1D4E901310020984703E005
:10237000284698470028C8D1AB68DB69ABBB226A06
:10238000A36904F110079B1AE26A07F1100893424F
:1023900028BF1346414605AA384607F041FF0646C6
:1023A00050BB284608F0D8F8C4F8D06030E06FF091
:1023B0005700C9E7D9F8003013F0060F08D0184BC2
:1023C0000090CDE90103022203464946FFF762FF70
:1023D000AB681B6933B101220DF113012846984700
:1023E0008346BAE76FF05700FAE728469847002877
:1023F000C5D107B0BDE8F08FAB680599DB6863B164
:1024000002462846984702464146384607F03AFFBA
:10241000D4E9013101209847EBE76FF05702F3E769
:102420009CFE0000CC02002010B5044681681831E3
:1024300001F036FAA1682046BDE81040014A183183
:1024400001F0D2B910010100022210B583680446E0
:102450001A7583689B6CCBB9083008F029F9A3681A
:10246000D3F87832DB040CD503212046084B094A07
:1024700008F0F1FDA0686FF4805100F51E7008F0BF
:10248000CFF82046BDE8104001F01CB910BD00BFD8
:102490003B0101007EFB0000F7B5044680680E4654
:1024A000D0F878325A0705D5002108F01DF9E06808
:1024B00008F0B6FFE368DB6873B9002E3BD0A5686F
:1024C00005F15607384608F0EDF8002835D03946B2
:1024D00005F5AB70FEF7ACF9A2680DF106035632B4
:1024E0003146E06808F09FFF58B9A06800F5AB716D
:1024F0005630FEF79DF9A068563008F0D3F8ADF8D5
:102500000600204608F0F3FCA368D3F874329B065B
:1025100003D50B49606908F0B8F8204600F042FF87
:10252000A268BDF806302046A2F85230A268A2F890
:10253000503000F0FDFE03B0F0BD85F85601CBE74A
:10254000E0E700002DE9F04FA7B004465422002137
:1025500011A80AF07EFF0023CDE90533A3682046C9
:102560005633039308F0CAFC204608F046FC18B91D
:10257000A149606908F089F800264FF0FF37B3469B
:10258000B2463546B146A0681422002118300AF040
:1025900060FF204608F0ACFBA168E068B1F850206D
:1025A000563108F077FF204609F006F80DF144088F
:1025B0000296DDE90532012A00F0DD80132B40F29E
:1025C000AC80069B022B40F0AB808C4B8C4A0121E7
:1025D00015E00223039A414606A808F00EFAD8F83F
:1025E000042006990346039229B96FF0070528468F
:1025F00027B0BDE8F08F012905D120B1814A2046DE
:1026000008F029FDF1E7059B5BB3D8F8000001F065
:1026100067F998B166B1A5680D9618350CAE0FCE66
:102620000FC533682B602046FFF7FEFE0125DEE76D
:10263000754A0121204608F00EFDD6E7059B83B1BF
:10264000D8F800202946204601F0E6FA022800F0DA
:102650009280032805D0059B013305930123029343
:10266000A7E7BAF1000F06D107AAD8F8001048462C
:1026700008F0B5FA054608F10408013F002D3AD0EC
:10268000029AEB6842B1F3B1204608F037FC2046CD
:1026900000F04EFE5D4ACCE7ABB1AE46A368DDF874
:1026A00014B003F1180CBEE80F00ACE80F00DEF820
:1026B0000030CCF80030AB682BB96B7CFE2B04BF2C
:1026C0002F7C07F1FF37D5F804C0BCF1000F08D00C
:1026D000AE460CAEBEE80F000FC6DEF80030336029
:1026E0006646A9461FB9069B022B7FF462AF059B85
:1026F000013305935DE7059B63B9A368DB6A0BB102
:10270000DB683BB9424B434A00930121119B2046B1
:1027100008F0A1FC4FF0010AE4E7002F7FF459AF65
:10272000029B53B1204608F06AFF1423A26811A946
:1027300056320DEB030008F060F9B9F1000F0CD030
:1027400099F81130FE2B08D1059B26AA02EB8302D3
:1027500052F8542C0AB101330593A068436A73B947
:10276000002E3FF442AFC369B3423FF45CAF0D9615
:1027700000F1180552E7059B132BD1D921E7059DE0
:1027800090F82830A5EB0B05BBB14FF6FF7190F820
:102790002920FF2A08BF0A469D4202D313449D42C6
:1027A0000BD983691C4A0121204608F054FC2046BD
:1027B000FFF73AFE6FF0150519E7012107F083FFD7
:1027C000A06800F5437007F05EFFA36811AA2946D0
:1027D00002EB8B025B6A204698470546A0684FF0E3
:1027E000FF324FF0FF3300F5437007F04AFF00213E
:1027F000A06807F068FFFAE655F90000C70001007D
:1028000034F800005200010066000100840001005D
:10281000B30001000A020100EB0001002DE9F04FB6
:1028200004468068B1B0012100F51E7007F0EDFE8E
:10283000A3681B7D022B20D100230993A368606845
:102840009E6C03681D6909AB0EB310221BA9A84733
:10285000099B93B10121A06807F035FF099A1BA9D4
:102860002046B0470021A06807F02DFFA3689B6CAD
:10287000002BE3D12046FFF7E7FDA0686FF00101D0
:1028800000F51E7007F0CCFE31B0BDE8F08F0122DC
:102890000DF12301A847099B002BEED09DF82330B2
:1028A000A2681906CAD4517D032900F2B682DFE876
:1028B00011F0040035024D02B4020D2B1BD00A2B7F
:1028C00019D0B2F878126FF3CA01A2F87812092B66
:1028D000A06852D038D8002BB0D0082B00F07981F6
:1028E000A3F120025E2A00F28981012107F0FCFE9B
:1028F0009DF82310A6E0D2F87812C1F3C70129B1E0
:10290000D2F87812C1F3C7018B42E0D1B2F8781245
:1029100063F3CA01A2F87812A568B5F8501069B936
:10292000284607F0E1FEE06808F07AFDAF496069EB
:1029300007F0ABFE2046FFF787FD7FE72046FFF755
:1029400001FEC5F82403F5E71B2B13D07F2BC7D15D
:10295000D0F874329D077FF571AF012107F0C4FEF6
:10296000A368D3F87432190700F13B81204608F0C0
:10297000BBFB63E70123437560E7D0F874329B0724
:102980007FF55CAF012107F0AFFEA068B0F85030D2
:10299000FF2B3FF453AF0025B0F8522000F1560151
:1029A00000F5AB700AF02DFDA3681BA9B3F8522007
:1029B0000BA8134483F85651A268142302F5AB7296
:1029C00008F01BF80B9914293FF638AF30AB03EB36
:1029D000810343F8545CA368B3F852204AB113440E
:1029E00093F85530202B00F01A82093B042B40F25B
:1029F0001682012940F21682013900200CAB0093A7
:102A000001900AAB1BAA08F014F90646002840F012
:102A10000B8213E71B685A465146184603930AF087
:102A20003FFD60B9039B1846FDF70AFF814538BF9B
:102A30008146002D08BFB8461FFA89F901350137D4
:102A400000E22021204600F001FEF7E601212046A9
:102A500008F0E9F9F2E604907FF6F0AE0A9A30AB9E
:102A600003EB820252F8543CC3461846039307F026
:102A700019FE049B0590A7F840300495A2685946BA
:102A80001832304600F0E0FB039B0BF1010BD0F84D
:102A900000A04BB1BAF1000F06D0059A1946504676
:102AA0000AF0FEFC0028E9D1A168BAF1000F58D164
:102AB000A1F840A0049B013B0493DFD14B4960691E
:102AC00007F0E3FD204600F0FDFD0A9B30AA02EB73
:102AD000830353F8540C07F0E5FD414611AA8146E3
:102AE000304600F0B1FB0746A0683968FF2200F5C8
:102AF000AB7008F1010A0AF0E5FCD7F800804FF648
:102B0000FF7716AA514630460AF1010B00F09CFBF4
:102B1000D8B10022A368006803F5AB7313F801CBAA
:102B2000815C614505D121B14FF6FF7101328A42C6
:102B3000F4D1B9F1000F01D04A4548DB9742A8BF54
:102B40001746013D012DBFB241D1002F3FF476AEB3
:102B5000A7EB090292B208EB0901204608F0C2FA7D
:102B60006CE62348069107F09DFD069900EB0907E6
:102B70004A8FBFB2121A92FBF7F2504692B20791F7
:102B8000069207F08FFD07993F1AB1F84000069AA8
:102B900000F1010CA1F840C0B0FBF2F102FB110200
:102BA00092B2BFB262B9CDF800A0114B114A062112
:102BB000204608F050FA3946204600F0A3FB79E79A
:102BC00053460D4A0621204608F045FAF3E7DA4657
:102BD00097E7D0F874329E077FF530AE012107F0F9
:102BE00083FD204608F09FFA28E600BF55F9000053
:102BF000CDF500001E0101007EFB0000D0F874221C
:102C000092077FF51BAE013B162B3FF617AE01A2D4
:102C100052F823F0ED2D0000712C0000792C0000FB
:102C20006D290000E12D0000992C00003D280000D6
:102C30003D2800003D2800003D280000A12C000098
:102C4000A92C00003D280000D32C00003D280000E6
:102C5000DD2C00003D2800003D2800003D2800003C
:102C60003D280000E12C00003D2800000D2D000053
:102C7000204608F04CF9E1E5204608F03FF92046EF
:102C800008F0BBF818B99249606907F0FEFC012111
:102C9000A06807F029FD4DE6204608F041F9CDE592
:102CA000204608F048F9C9E5D0F874329F0603D5EC
:102CB0008849606907F0E9FCA368D3F874329E067E
:102CC00003D58549606907F0E0FC204600F0FAFC76
:102CD000B4E500212046FFF7DFFBAFE50121F9E76E
:102CE000204608F004F904F1080007F0E1FC012196
:102CF000A06807F0F9FCA368D3F874329D067FF54D
:102D00009DAD7649606907F0C0FC97E5204600F06C
:102D1000C5FB0121A06807F0E7FC8FE55B2B02D122
:102D2000022353758AE5D2F87422900706D5622BE8
:102D300008D14FF0FF31204608F09EF80022A3682A
:102D40005A757BE5662BF9D10121F4E70021517515
:102D5000A268D2F8741289077FF570AD313B1B2B46
:102D60003FF66CAD01A151F823F000BFE92D000042
:102D7000F52D0000092E0000DD2D00003D2800008B
:102D80003D2800003D2800003D2800003D280000AF
:102D90003D2800003D2800003D2800003D2800009F
:102DA0003D2800003D2800003D280000DD2C0000EB
:102DB000D32C0000992C0000712C00003D2800004D
:102DC000E12D00003D280000ED2D00003D28000011
:102DD0003D2800003D280000F92D00000323537515
:102DE000204608F08BF829E503235375204608F0A8
:102DF0007EF823E503235375A068D0F8741201F020
:102E0000010181F0010160E003235375A368D3F849
:102E100074329B077FF512ADA8E5002381E70029F6
:102E20007FF4EBAD00260A960A9B30AA02EB8303DF
:102E300053F854AC0025504607F034FCA9468346AD
:102E4000A8462F4616AA3946304600F0FDF903463B
:102E500000287FF4DFAD012DA7687FF4FCAD0A9B4D
:102E600030AA02EB830353F8540C07F01BFC07F164
:102E7000180205464146304600F0E6F9066830463D
:102E800007F010FC854205D0421B92B27119204612
:102E900008F028F9A068B0F85230034493F856308F
:102EA000202B3FF4D3AD093B042B7FF6CFADD0F8F8
:102EB0007432DF077FF5C5AD002107F025FC202126
:102EC000204600F0C3FB0121A06807F01DFCB5E41B
:102ED00055F90000E5E70000EAE70000E0E7000040
:102EE00038B5836804461A7D012A2BD1D3F878229D
:102EF000510408D5D3F87422520704D40146DA6C81
:102F0000C06908F0BCF9A06840F21B62002300F51C
:102F1000437007F0B6FB0546B8B90821204600F01B
:102F20007FFA0B49606907F0B0FB2046FFF78CFA87
:102F3000204608F00BF9A06800F5437007F0A3FBEA
:102F4000284638BD6FF08505FAE76FF00F05F7E703
:102F500055F900002DE9F04104468068154600F55A
:102F60001E70002937D04FF4804107F04EFBA36854
:102F70000021DD64606803689B689847002851D190
:102F80002046FFF7ADFF00284CD1274E274FDFF832
:102F9000A480A06800F52F704FF0FF324FF0FF3390
:102FA000032106F06DFC0546A068CDB140F21B621E
:102FB000002300F5437007F064FB98BB20462B46C6
:102FC0001B4A012108F047F8A068BDE8F04100F570
:102FD000437007F058BB6FF4804107F021FBC6E750
:102FE0004FF0FF334FF0FF3200F5437007F049FB1D
:102FF00032460221204607F0BAFB3A4629462046CF
:1030000007F0B5FB20464246012107F0B0FB60689F
:1030100003685B6903B19847A06800F5437007F047
:1030200032FBB6E7BDE8F08137A600001D2800009E
:10303000240101003DA7000010B504460A4907F02D
:10304000FFFB2046094907F0FBFB2046084907F033
:10305000F7FB2046074907F0F3FB2046064A00210C
:1030600000F0C2FB002010BDB1FE0000EFFE00002A
:103070004EFF0000A2FF00003C0001002DE9F047D8
:1030800016460A46254904461F46002507F0D8FB88
:10309000DFF89480DFF89490DFF894A0AF422CD949
:1030A000725D4946204607F0CBFB0135102D1DD13E
:1030B0001B49204607F0C4FB0025DFF87480DFF8C9
:1030C0007490AF4225D9725D4946A2F120035F2B6F
:1030D00028BF2E22204607F0B3FB0135102D11D159
:1030E0002046BDE8F0470F4907F0AABB6A07D5D1D3
:1030F0005146204607F0A4FBD0E74146204607F0A2
:103100009FFBD2E76B07DCD14146204607F098FBD6
:10311000D7E74146204607F093FBDEE706010100B2
:10312000D0F500000D010100CCF50000C6F500004F
:10313000CEF500009C0101002DE9F04304468068B3
:103140008946D0F8201389B09846002961D11646E7
:103150004FF44A720AF07DF9E06808F013FAA068AB
:1031600000F5437009F087FE4FF42F774FF41F7579
:10317000A06828440AF038F9A06800224319012108
:103180003844103506F068FBB5F52F7F07F11407BA
:10319000EED10025A36902211D60A06865F38206B7
:1031A00000F51E7007F031FA5022A36820465A87B6
:1031B0001822A3681A87216807F06CFBA368164AD7
:1031C000C3F874626068494603681D682346A847CF
:1031D0000546D0B90122A3681A75D4E90A01002274
:1031E0000023CDE906230E230393109B0495CDE91C
:1031F00001830094094B4FF4006205F0CDFCA368F5
:10320000C3F82003616A05F01BFC284609B0BDE83D
:10321000F0836FF07705F8E729A70000552F00002D
:1032200010B5044613460A460146064801F098FCCC
:1032300023691B7923B12046BDE8104007F07DBB10
:1032400010BD00BF53A9000038B50D46144658B94B
:10325000154A164B9B1AB1EB930F02D3002420465C
:1032600038BD52F82140FAE78368002BF6D0104AA7
:1032700093420AD30F4A934207D21B68214628463D
:1032800098472368002BEAD1E8E70B4A934208D31A
:103290000A4A934205D20135142255435C195B5901
:1032A000F0E71B68F8E700BF6CE600009CE6000052
:1032B000B4E70000B4E700009CE60000B4E70000BB
:1032C0008368D3F874329B0603D50249406907F03E
:1032D00076BD7047F0E700000A1E0DDC0ED04223D9
:1032E0008168D1F87412890608D5002AB8BF524205
:1032F0000349406907F063BD4123F1E7704700BF10
:10330000980101000A1E0DDC0ED044238168D1F81B
:103310007412890608D5002AB8BF52420349406991
:1033200007F04DBD4323F1E7704700BF980101004E
:1033300010B5044607F061FD18B9A06807F04CFD10
:1033400028B160690249BDE8104007F038BD10BDE2
:1033500055F90000F8B50546846804F13000B4F86A
:103360005020B4F8521007F032FBA868A78EE68E02
:1033700007F032FD18B10A49686907F020FDB7422D
:1033800007D1218E638E2846C91ABDE8F840FFF7A1
:10339000B9BFE18EA38E2846C91AFFF79DFFF0E75B
:1033A00055F900002DE9F0478568064615F15600ED
:1033B00002D0FDF745FA80B200230446984695F8FE
:1033C0003C70DFF85890B268558FED1BA54209DBC1
:1033D000002C1FDD563370691A440F49BDE8F047D1
:1033E00007F0EDBC1D442A4492F856A082F856809E
:1033F000B26856331A444946706907F0E0FCB36876
:103400002B4483F856A0B3685B8FDF1BE41B2B466D
:103410000027D8E7BDE8F0877EFB000034F8000005
:1034200008290A4617D8836893F83E10914212D0B3
:1034300083F83E208368082AD3F8743205D09906B1
:1034400009D50549406907F0BABC9B0603D5034975
:10345000406907F0B4BC70479F010100F5E7000028
:1034600038B50D4609780446FFF7DAFF6A78072A6F
:1034700011D8A36893F83F1091420CD083F83F20F5
:10348000A368D3F874329B0605D560690249BDE88C
:10349000384007F094BC38BDA8010100F8B5836836
:1034A0000546B3F85020002A53D0B3F85200002844
:1034B0004FD05530184403F156060346C41AB342A0
:1034C000A4B219460DD311F80179202F3FD0194627
:1034D0000878013B202804D001349E42A4B219464A
:1034E000F5D9631C4E1C121B1944304609F097FF96
:1034F000AA686142B2F8503009B21B1BA2F85030E2
:10350000AB682846B3F850201344002283F85620B5
:1035100007F089FCAB68D3F874329A0603D50D49DD
:10352000686907F04CFC33460B4A0821284607F02F
:1035300092FD2846FFF7C4FEAB68D3F874329B06B1
:1035400007D568690549BDE8F84007F038BC0B4667
:10355000B4E7F8BDFAE700007EFB0000FEE70000DC
:103560002DE9F84F04460D4617460AB1FFF7A8FEAD
:10357000D4F80880D8F87432B8F852905B0725D593
:1035800009F156004044FDF75BF90646DFF8B880C4
:1035900016F1FF3615D2A368B3F85020A3F85220D5
:1035A000A06807F019FC28B107B11DB12349606973
:1035B00007F005FC69422046BDE8F84F09B207F064
:1035C00032BC4146606907F0FAFBE1E74046FDF78F
:1035D00037F9B8F85060B8F83A3006444844B0FBC0
:1035E000F3F1B6FBF3F399421ED0DFF85080B042FE
:1035F000A368D0DA598F00F1010AB0FBF1F301FBA7
:10360000130018B94146606907F0D9FBA06809F1B9
:10361000010B484490F85630094A2046082107F02B
:103620001AFDD9465046E2E709F1560208EB0203BB
:103630000821044A204607F00EFDACE755F90000CA
:103640009C0101007EFB0000A30B010013B5836801
:103650008DF80710D3F874220446D00726D5B3F8A6
:103660005210B3F850208A4220D0481C9DF8072001
:10367000A3F852000B4483F85620A368D3F87412C1
:10368000890711D5D3F87432606913F0040F18BF9D
:103690002A220A4907F093FB204607F0AEFB18B137
:1036A0000749606907F08BFB02B010BD01220DF1E4
:1036B0000701204607F0DCFCF6E700BF9C01010093
:1036C00055F9000010B504468368094A022107F045
:1036D000C2FCA368D3F874329B0707D52046FFF7D6
:1036E00061FE2046BDE81040FFF734BE10BD00BFAC
:1036F0007EFB00002DE9F047054690460F46002965
:103700006ED000243B5D202B25D0093B042B22D911
:10371000DFF8D0903846FDF793F8AB6880B2598F48
:10372000001BA1EB0803984207EB040A15D9504689
:10373000002610F8012B202A06D0A2F1090CBCF1BA
:10374000040F02D80A2A31D0334608EB0602914210
:103750002BD90136EDE70134D4E753460026B042B9
:1037600017D013F8012B04EB06090A2A1BD168694C
:1037700007F0E3F832465146284607F006FC19499F
:10378000686907F0ADFD4146284609F10104FFF7DD
:10379000B9FD3919686907F0A3FD68691149BDE8E9
:1037A000F04707F09DBD0136D9E71E46686907F06E
:1037B000C4F832465146284607F0E7FB34443B5DE7
:1037C000202B0BD0093B042B08D94946686907F028
:1037D00087FD41462846FFF795FD9BE70134EEE75C
:1037E000BDE8F08755F900002DE9F04F0E460021A5
:1037F000054617460C4689B003AA304601F1010878
:10380000FFF722FDB0B994B127B13A460821284606
:1038100007F021FC00211E4FDFF87C90DFF87CA030
:1038200003AA304601F10108FFF70EFD60B909B0A7
:10383000BDE8F08F006810B1FDF702F880B2844255
:1038400038BF04464146D7E7036893B11A7882B17E
:10385000D0F804B04A46CDE9004308213B4628464B
:1038600007F0F9FBBBF1000F05D10A49686907F0C1
:1038700037FD4146D4E7524628463B46082107F02B
:10388000EAFBA21D92B259462846FFF733FFF0E744
:10389000B501010055F90000C2010100BEF50000AC
:1038A000F7B50D6806460F46A5B12846FCF7C8FFD8
:1038B00084B2094B30460093084A2B46082107F092
:1038C000CAFB3046E21C796892B203B0BDE8F04012
:1038D000FFF710BF2C46ECE7B10101001F0101000A
:1038E00010B507490446FCF799FF38B10549204651
:1038F000FCF794FFB0FA80F0400910BD0120FCE70E
:10390000B8010100BB01010010B583680446D3F87B
:1039100074329B0603D50649406907F0F4FC502237
:10392000A36800205A871822A3681A8710BD00BF19
:1039300002E8000008B5836902491A6806F080FFB2
:10394000002008BD6A0201002DE9F3410D49074638
:1039500006F076FF00220C4C0C4DDFF83480AC42B0
:1039600002F1010603D3002002B0BDE8F081636AD2
:1039700092B200934146A368384606F061FF3034A6
:103980003246ECE7C90101003CE600006CE60000AD
:10399000E101010008B5024906F07CFF002008BDE6
:1039A00056F9000073B5044600250D4EA2680DF1CE
:1039B000060302F5AB720121E06807F034FDBDF8A3
:1039C0000600A36840B12A4603F5AB733146204692
:1039D00006F036FF0135E9E783F8560102B070BD05
:1039E0002602010010B5044606F098FF034902467E
:1039F000204606F025FF002010BD00BFD1FB0000CF
:103A000010B583680446D3F874329A0603D5074983
:103A1000406907F078FCA368D3F874329B0603D59D
:103A20000349606907F06FFC002010BD09E8000041
:103A30000EE80000022907B50BD153680C4900932A
:103A400012680C4B06F018FF6FF0150003B05DF81C
:103A500004FB8368084AD3F87432084913F0020F54
:103A6000074B08BF1A4606F0EBFE0020EEE700BF4A
:103A700007020100F201010062F7000010020100DC
:103A800003F60000F0B5012985B004460BD0536859
:103A90005B49009312685B4B06F0EEFE6FF0150574
:103AA000284605B0F0BD8368D3F874329A0603D572
:103AB0005549406907F027FC00256FF0F9012046C1
:103AC000FFF70AFCFA212046FFF71CFCA0684FF420
:103AD0008072294600F5AB708DF80B5009F0B9FCE7
:103AE0004A49606907F00FFC606906F026FF4FF451
:103AF0007A766068012203680DF10B011F6903AB40
:103B0000B847039B53B9013E4FF47A70B6B209F03F
:103B100062F9002EEDD16FF0850533E09DF80B20A2
:103B2000A3681B2A5ED093F856111B29E1D1522AB3
:103B300058D11D44002385F85631A06890F85721CC
:103B40005B2A37D1022600F5AC7111F8012B013642
:103B50003B2AB6B231D1B6F5807FDCD0002206F523
:103B6000AB71014411F8015B002D30D1FA2A28BF56
:103B7000FA22FA2B28BFFA2380F85651A1684A8707
:103B8000A2681387A368D3F874329B0603D5204933
:103B9000606907F0B8FB002D82D05022A3681D4950
:103BA0005A871822A36820461A8706F057FE6FF03E
:103BB000070575E780F85631ADE703EB830302EBA9
:103BC0004303303BB6F5807F9BB2BED1A3E702EB47
:103BD0008202013605EB4205B6B2303DFF2EAAB295
:103BE000C0D998E72B440135ADB2092D83F8562191
:103BF0007FF67FAF0022A36883F856218BE700BFD2
:103C000007020100F201010014E800002102010096
:103C100018E80000300201002DE9F04F824689B01B
:103C200015468B4621B1104607F0B2FC00285BD147
:103C3000032455E04C463DE0294607F5AB7009F0FA
:103C400060FC8046002853D0FCF7FAFD82B2601C6D
:103C500001324146404409F0E2FB224649464046D3
:103C600009F0CFFB4FF0200308F80430B7F85430C8
:103C7000013601331C44A7F85440002401994B1C21
:103C800003AA58460193FFF7DFFA8046F0B10022FD
:103C9000D8F80010284607F09EFE0028EED1D8F88C
:103CA0000090DAF80870B9F1000FC3D04846FCF76D
:103CB000C7FD84B2B7F854302344FF2BBCDD2B463C
:103CC0000C4A0321504607F0C6F9012446B1DAF840
:103CD00008002A4600F1540100F5AB7006F058FFC9
:103CE000204609B0BDE8F08F002602243146C6E721
:103CF0000224EBE73D070100F0B5074687B00D460B
:103D0000002945D02F4E33685A0741D000248B68D4
:103D1000012205934B68204604930B68CDE90044CB
:103D20000393294B31460293234607F078FC33680E
:103D30005B072DD06B69204605932B690122049304
:103D4000EB6831460393214B0094CDE901432346B0
:103D500007F065FC336858071AD0EB6931460393C6
:103D60001B4B0094CDE9014301222346204607F076
:103D700056FC336859070BD0AB6901220393154BEE
:103D80000094CDE9014331462346204607F047FC25
:103D9000012F10D1EFF305830A490A6852070AD0B0
:103DA000103B03930C4B3A4602930023CDE90033BA
:103DB000184607F034FC2946384607B0BDE8F04005
:103DC00004F02EBAB40200208F070100BE070100E4
:103DD000ED070100FC0701002A08010030BFFFF7D2
:103DE000FDBF00BF054B5A699B689A421FBF044A3A
:103DF000536843F080535360704700BFA40F002006
:103E000000ED00E01FB54B4C2368580709D04A4B22
:103E10000122029300232146CDE90033184607F022
:103E200019FC464B9B6A99010ED523685A0709D0A5
:103E3000434B0122029300233E49CDE9003318464B
:103E400007F008FC1E2000E01D203C4B9B6ADB01B4
:103E50000DD52368580709D03A4B0122029300235D
:103E60003449CDE90033184607F0F4FB1F20334BEB
:103E70009B6AD9020DD523685A0709D0324B01221B
:103E8000029300232B49CDE90033184607F0E2FBEB
:103E900002202A4B9B6A1B030DD52368580709D0C3
:103EA0002A4B0122029300232249CDE90033184610
:103EB00007F0D0FB2120214B9B6A59030DD52368C5
:103EC0005A0709D0224B0122029300231949CDE958
:103ED0000033184607F0BEFB2220184B9B6A9B0359
:103EE0000DD52368590709D01A4B012202930023EC
:103EF0001049CDE90033184607F0ACFB23200F4BE7
:103F00009B6ADA030DD523685B0709D0124B0122A7
:103F1000029300230749CDE90033184607F09AFBC6
:103F20002420064A936A6FEA03436FEA13439362BD
:103F300004B010BDB40200209D09010000ED00E0B6
:103F4000B5090100C8090100E20901000C0A0100DD
:103F50002A0A01004F0A0100690A01007FB5514C8D
:103F6000064623680D46580709D04F4B012202939D
:103F700000232146CDE90033184607F06BFB4B4B7D
:103F80009B6AD9040ED523685A0709D0484B0122F1
:103F9000029300234349CDE90033184607F05AFB4A
:103FA000172000E01620414B9B6A1B050DD52368A6
:103FB000590709D03F4B0122029300233949CDE92B
:103FC0000033184607F046FB1820384B9B6A9A05C9
:103FD00012D523685B0709D0374B012202930023D7
:103FE0003049CDE90033184607F034FB2F4B9A6B6C
:103FF0009B6A18042ED419202C4B9B6A5B050DD5A7
:1040000023685E0709D02D4B012202930023254926
:10401000CDE90033184607F01DFB1A20234A936AA6
:1040200013F480732CD02368580709D0244B012245
:10403000029300231B49CDE90033184607F00AFB21
:104040001B201A4A936A43F47F43936200232B7028
:1040500004B070BD236859070AD01A4B039202932B
:1040600000230122CDE900330E49184607F0F2FA89
:10407000002EC0D00D4A936A23F400439362BAE73E
:10408000926A9104DDD52268520708D00E4A009347
:10409000CDE9013203490122184607F0DBFA1C2062
:1040A000CFE700BFB40200203D08010000ED00E0B2
:1040B000530801006408010077080100A508010009
:1040C000C008010090080100D80801007FB54E4CDF
:1040D000064623680D46580709D04C4B012202932F
:1040E00000232146CDE90033184607F0B3FA484BC8
:1040F0009B6AD9060ED523685A0709D0454B012281
:10410000029300234049CDE90033184607F0A2FA94
:10411000112000E010203E4B9B6A1B070DD5236841
:10412000590709D03C4B0122029300233649CDE9BF
:104130000033184607F08EFA1220354B9B6A9A0717
:1041400012D523685B0709D0344B01220293002368
:104150002D49CDE90033184607F07CFA2C4B5A6BF9
:104160009B6A180639D41320294B9B6ADA070DD5B0
:1041700023685B0709D02A4B0122029300232249BE
:10418000CDE90033184607F065FA1420204B9B6AEE
:104190009E060DD52368580709D0224B01220293B1
:1041A00000231949CDE90033184607F053FA1520CA
:1041B000174B9A6AD10658BF9A6A9A6A920642BF0A
:1041C0005A6A22F400525A62114A936A43F0FF037A
:1041D000936200232B7004B070BD236859070AD086
:1041E000114B0392029300230122CDE900330649CB
:1041F000184607F02FFA002EB5D0054A936A23F02F
:1042000080039362AFE700BFB402002007090100FA
:1042100000ED00E01D0901006408010050090100E3
:104220007E090100D8080100680901002DE9F0416C
:104230008F4B90B05F680026C7F3080486F311889F
:10424000BFF36F8F02F07F43B3F17F4F11D102F0C4
:104250000C03082B0FD187490B6813F0070322D0FA
:10426000854B0096CDE9016301223346304607F0C5
:10427000F1F9354604E015074EBF0D460546012607
:1042800000238DF81F30E31E092B00F2D180DFE8F8
:1042900013F00C00BA00BE00B700CF00CF00CF0073
:1042A000CF00CF00C2001E46E3E7724F3B685807BD
:1042B00009D0724B0122029300233946CDE9003325
:1042C000184607F0C7F94FF00008694A8DF81F80BB
:1042D000D46A14F0020430D03B68590721D100237E
:1042E0009DF81F20D2B908AC05F1200722462868A6
:1042F0006968083503C2BD421446F7D10F9A002EF3
:1043000000F0B080C2F3080121B96FEA52226FEACF
:1043100042220F9208A91846FFF7EEFC10B0BDE844
:10432000F081574B0122CDE9018340464346514974
:10433000CDF8008007F08EF9D1E7D36A002B0BDAB5
:104340003B685A07CBD04F4B0122CDE901432346AE
:10435000484900942046EDE7D36A5B00BFD53B682F
:10436000580709D0484B0094CDE901430122234668
:104370004049204607F06EF93D4BA9695A6942F45D
:1043800080725A61BFF34F8FBFF36F8F5A6931F854
:10439000021C22F480725A61BFF34F8FBFF36F8FFC
:1043A0004DF6027291420AD09A6A12F0FF0F17D0AE
:1043B00001200DF11F01FFF789FE034690E73B68DE
:1043C00059070BD02B6801220393304B29490293E4
:1043D0000023CDE90033184607F03CF92B687FE74E
:1043E0009A6A12F47F4F05D001200DF11F01FFF7EB
:1043F000B5FDE2E79B6A1B0C1B04002B3FF46FAF7B
:10440000FFF700FDD9E70DF11F010020D3E70DF103
:104410001F010020EBE717490B685A073FF45FAF15
:1044200000241B4BCDE9004402930122234691E76F
:1044300010490B685B073FF452AF164A17F4F87F38
:10444000154B18BF1346103CCDE903340024134B21
:10445000CDE90044029301222346204607F0FAF8F2
:1044600023463DE722F4FF7222F0010251E700BF2C
:1044700000ED00E0B4020020C20A0100ED0A0100D4
:10448000040B0100250B0100330B0100520B01004E
:104490006E0B0100A90A0100940A0100920B0100B1
:1044A000064B5A6942F010025A615A6942F480621E
:1044B0005A615A6922F008025A61704700ED00E023
:1044C000EFF30880EFF3098101B57246FFF7AEFE06
:1044D00001BD00BF02F0ACF8202080F311880B482A
:1044E0004FF0AA014FF4006208F0B5FC07484FF402
:1044F0000061401880F30988EFF31480022108431B
:1045000080F31488BFF36F8F00F08EF8B81D002081
:10451000084B9B6883420BD1EFF3058343B1064BF5
:104520005A6842F080525A605A6A22F400425A6233
:1045300004F07CBEA40F002000ED00E014498A685E
:104540004FF030001044EFF3098C80E8F01F20207A
:1045500080F31288BFF36F8F0E4F4FF000664A69E9
:104560008A603E60D2F8AC000023C2F8AC3080F321
:10457000118802F1300090E8F01F8CF3098802F1F5
:10458000000004B507F07AF8BDE804407047000069
:10459000A40F002004ED00E01EF0040F0CBFEFF3A9
:1045A0000880EFF30980816911F8021C0229FFD00D
:1045B00001B5724607F043F801BD00BF03B2002BFE
:1045C00008DB012200F01F0002FA00F0024A5B093A
:1045D00042F82300704700BF00E100E0054B4209AC
:1045E00053F82220012300F01F0003FA00F01040CE
:1045F000704700BF00E100E003B2002B01F10101B0
:10460000A8BF03F160434FEA4111B8BF054BC9B2DF
:10461000ABBF03F5614300F00F0083F8001319549A
:10462000704700BF14ED00E00F4A08B50F4B22F0B1
:104630007F029A60BFF34F8FBFF36F8FD3F888204C
:1046400022F47002C3F88820EFF3148323F00403EC
:1046500083F31488BFF36F8F03F0CEFE04F078FF6E
:1046600000F044F803F00CFF0000000000ED00E053
:1046700042F8203C009B0B4942F81C3C019B21F076
:10468000010142F8183C029B42F8081C42F8143C15
:104690004FF0807342F8043C0023203A0265C0F8D2
:1046A000AC3070471DA0000000B50A4B0E46986064
:1046B0001546D0F89C3083F30B882C4686F3098886
:1046C0000020054B98472046002100220023034C80
:1046D000204700BFA40F002087B600001DA00000E7
:1046E0001022014B1A61704700ED00E000232020EA
:1046F00040F20F1210B5044CE1180133934281F8D7
:104700000003F9D110BD00BF00E100E008B5EFF3F0
:104710000583064A103B02EBC30152F83300496897
:104720008847BDE80840FFF75DBB00BFD4DB000051
:104730001FB5094C094A23460121094800F020F918
:1047400000230393074B0121E41A01A8019302946B
:1047500000F020F904B010BD00F00220000000209D
:10476000A4EC0000D802002010B50C7A0B6823F0EE
:104770001F0204F01F031A43CB68640923F01F03D0
:10478000044943EA440343F001038860CA600B61B3
:1047900010BD00BF90ED00E01FB50E4B1B68C3F3CA
:1047A0000723013B984210D90B490B685B0709D0DE
:1047B0000A4B0390029300230122CDE900331846EF
:1047C00006F08DFF6FF0150001E0FFF7CDFF04B09C
:1047D00010BD00BF90ED00E0B0020020EF0B010023
:1047E0002DE9F04F8846144606460027574D89B0FC
:1047F00047452ADAD6F80490B9F1000F51D0B9F143
:104800001F0F1CD919F01F0F19D1D6F800A01AF0EC
:104810001F0F14D1504606F059FF834609EB0A00DA
:10482000013806F053FF83451ED06FF0150B484941
:104830000B685B0707D0CDF80CB0464B0BE0444942
:104840000B685A0705D16FF01504204609B0BDE882
:10485000F08F414B0397029300230122CDE90033EF
:10486000184606F03CFFEEE71BF1160FDFD05C4563
:10487000DDDDC5F808B0E968C5F808B02B6921F09E
:104880001F0143F01F0AD6E900321A44994202F18F
:10489000FF391BD1CA4507D131465FFA8BF006F0CC
:1048A0002EFF01370C36A3E73146C5F808B0EB6898
:1048B00022F01F0203F01F031A43EA60E0B206F081
:1048C0001EFF10F1160FBED0441CEAE7013BCA459B
:1048D000E0B223F01F03C5F808B006D12A693146BB
:1048E00002F01F0213432B61E9E7296901F01F0160
:1048F0000B432B61314606F002FF10F1160FA2D0D8
:10490000C5F808B0EA689DF818300AF1FF3A62F37A
:1049100004038DF818302B699DF818205B0863F3A9
:1049200047128DF81820D6E900321344049323F07F
:104930001F035344A3EB0903013023F01F0304A911
:10494000C0B20793FFF728FFBBE700BF90ED00E080
:10495000B0020020CC0B0100A90B01000522034B83
:104960005A60BFF34F8FBFF36F8F704790ED00E039
:10497000BFF35F8F0022014B5A60704790ED00E05B
:1049800010B5034C2278FFF72BFF207010BD00BF3D
:104990000C1000202DE9F74F254C8A468046002751
:1049A000A1464FF0140B234D57451ADAD8F80430BE
:1049B0000193002B36D0D8F800100846009106F07D
:1049C00085FEDDE9001306465818013806F07EFE24
:1049D0008642194A08D014235F436FF0150349F843
:1049E000073003B0BDE8F08F16F1160F2660F8D03F
:1049F0001378B342F5DD0BFB0793AE60AE60E86859
:104A0000197B60F3040119732969187B490861F364
:104A100047101873EB6823F01F0363602B6923F0C2
:104A20001F0323610137143408F10C08BCE700BFF1
:104A30003C0D002090ED00E00C1000202DE9F0432B
:104A4000424C434E22683768C2F30722974287B030
:104A500078D80025FFF78CFF3E4B2363AF4217D178
:104A60003D4D01A82F70FCF731FF002607464FF09F
:104A70004109DFF8E880B74212D100212B78226883
:104A8000C2F30722934259DBFFF768FF00203FE0A3
:104A90007168284601EB0511FFF766FE0135DDE779
:104AA000DDF804C031010CEB0103DA6802EA080208
:104AB000B2F5001F15D0B2F5800F2CD0B2F5801FD3
:104AC0003AD158685CF801209B68CDE902022122A6
:104AD000013B20F01F010B4423F01F038DF8102031
:104AE0000DE058685CF801209B6820F01F01013B35
:104AF000CDE902020B4423F01F038DF8109002A9A8
:104B000028780593FFF748FE002812DA6FF01500A9
:104B100007B0BDE8F08358689B685CF80120013B52
:104B200020F01F010B44CDE9020223F01F030622EF
:104B3000D4E72B7801332B7001369CE7A360216109
:104B400001339CE74FF0FF30E2E700BF90ED00E05B
:104B5000B0EC0000AAFF44000C1000200000F0FFA1
:104B6000F0B587B007460E4614460021102268466D
:104B70001D4608F06EFC02238DF80230054B2A46D4
:104B8000214668460193CDE9047604F045FF07B05D
:104B9000F0BD00BF35B7000008B5024B1B68984751
:104BA000002008BD500D0020034B044A1860937884
:104BB00043F0020393707047500D00205000002016
:104BC00008B50649064821F00701C1F1005202F577
:104BD0003C3205F0B4F9002008BD00BFBF2B002017
:104BE000540D002008B500F0B9F80122002309494E
:104BF000C0E9002241610849C0E902330A6007495F
:104C000003610A60064A1360064A1360064A13608D
:104C100008BD00BF56F90000780000207C0000208D
:104C2000640D0020680D0020600D00202DE9F0418A
:104C300007460E46154600F091F8C36804461BB9B6
:104C400043691A78002A41D10023E3606368BB42BC
:104C500056F8232008DB334B6361204600F064F8EC
:104C60004FF0FF30BDE8F081511C616192F8008087
:104C7000B8F12D0FEFD1911C616151782D29A16000
:104C800004D192786AB901336360E4E749B9254BEE
:104C900041466361284608F0F6FB0028DDD0C4F8E1
:104CA0000880D4F808802846414608F0ECFBB8F1AB
:104CB0003A0F636900D070B91B7813B96368013388
:104CC0006360204600F030F83F20CBE75A1C426179
:104CD0001B788360E5E742783A2A0BD000222261F4
:104CE0001B7813B9636801336360204600F01CF839
:104CF000A068B7E719780B4A11B123616261F1E747
:104D0000636801339F42636002DD56F82330F4E7A5
:104D100062612D7820463A2DD4D100F005F828465E
:104D2000A0E700BF56F900000268074B1A6042680E
:104D3000064B1A608268064B1A60C268054B1A60FF
:104D40000269054B1A607047780000207C00002043
:104D5000640D0020680D0020600D002000487047A1
:104D60006000002008B5264A264B1A6000F068F85B
:104D700041F6F871244AD2F8240601EA5031C0F312
:104D80000803142083F48073883300FB0313590A4B
:104D900013F4807F13464FF47A601C4A18BF013128
:104DA000C2F80419D3F82016C1F30803C1F309416E
:104DB000414342F6041083F4807303F2172300FB8F
:104DC00003134FF47A701B0AB3FBF0F100FB1133AD
:104DD000B3F5FA7F28BF01310D4BC2F81C171B68D1
:104DE0001C2B07D134220B4B1A600B4A136823F497
:104DF000002313600122054B0020C3F8002608BDE4
:104E00000020A1072401002000C0FF000000125074
:104E100040C3FF00240612503C06125048B1054B17
:104E20001A68054BB2FBF3F2044B504343F0010305
:104E3000184770472401002040420F0020E800007E
:104E40000122024BC3F80424704700BF002008E091
:104E5000084B70B5C31A0D4607499B1004465943C9
:104E60004022064806F0C3FD2B4601462046BDE819
:104E7000704018477C0D0020B76DDBB6DCD9000010
:104E800010B5EFF31184202383F31288BFF36F8FE3
:104E9000084A136823F00201DB07116005D40120E2
:104EA00007F0CAFD0122044B1A6084F31188BFF396
:104EB0006F8F10BDCC0D00200CE0105070B500229B
:104EC0000121044640F20510FFF796FB0F4801F060
:104ED000B7FC0F4B984215D101F0C2FC26690D4971
:104EE000304605F015F900280BDB012535642469EF
:104EF000084904F11C0005F00BF9002801DB002033
:104F0000E56470BD6FF00400FBE700BFE54F0000F3
:104F10000000AD0BFCEC00000C23104A014603FB23
:104F20000023002030B4D3E90E529863EFF31180D0
:104F3000202484F31288BFF36F8F1C6C04F0C0042C
:104F400044F002041C6480F31188BFF36F8F1DB11D
:104F50002B4630BC0248184730BC70477C0D0020FF
:104F6000DCD9000010B4EFF31180202282F3128804
:104F7000BFF36F8F17490B6843F0020413F001036E
:104F80000C6017D0144BD3F80C3413F4803311D0C9
:104F9000EFF3118182F31288BFF36F8F0F4A136C06
:104FA00003F0C00343F00203136481F31188BFF3DD
:104FB0006F8F012380F31188BFF36F8F1BB1002027
:104FC00010BCFFF7A9BF0120054B186010BC01F011
:104FD00063BC00BFCC0D002000E010507C0D002011
:104FE00008E0105010B1012804D07047034B1B6C2F
:104FF0005B0701D1FFF790BF704700BF7C0D002019
:105000007FB500220123CDE9022304ABCDE90433AF
:10501000094A6B46CDF800D0CDF804D006F025FD46
:10502000002805DB43F609520023684603F0A0FB85
:1050300007B05DF804FB00BF65BA00001A4BF0B47E
:10504000C21A0D469110194A4A43D2B2EFF31186A3
:10505000202181F31288BFF36F8F0C2404FB0234EC
:10506000216C01F00707012F11D14021216400219B
:1050700086F31188BFF36F8F91B90C214A430C4915
:105080001344C3E90E150B4BF0BC9B58184701F0B5
:10509000C001402914BF4FF0FF316FF07701E7E7FF
:1050A0002B46F0BC184700BF7C0D0020B76DDBB667
:1050B00047BA0000E4EC00002DE9F843012206465F
:1050C0003549D1E8EF3FC1E8E02F0028F9D133B9E5
:1050D000324933484B60CB608A6005F02CF8731E70
:1050E000012B2BD8012E06D12E4BD3F8503403F0D0
:1050F0000303012B22D007F00AFF18B92A4B1B78B3
:10510000002B41D1EFF31189202383F31288BFF3E1
:105110006F8F0124234D254FA846D5F84C24D5F890
:105120004C34D2030CD503F00303012B01D0012E24
:1051300006D12CB389F31188BFF36F8FBDE8F883D4
:10514000CCB1484606F0B3FAD5F8403413F0FF036B
:10515000E3D13A68002AE0D03B603B68202101237C
:10516000134AC5F84034C2F8A01102F1E242A2F19C
:10517000F0121360D1E70021202007F07DFFE3E764
:105180000423C8F80433D9E70422064B0446C3F8C5
:1051900008238146BEE700BFD00D00206C0D002023
:1051A000980D002000E010507210002008E110500F
:1051B00000E100E008B5074807F012FE38B10648E4
:1051C000FFF7F2FC0448FBF7D3FE002008BD6FF0A8
:1051D0001200FBE768DA0000DD5100000A2838B54C
:1051E0000446074D04D1AB680D215B6828469847FB
:1051F000AB68E1B25B6802489847204638BD00BF03
:1052000068DA00004309022B70B503D0012B16D0D9
:10521000BBB170BD0C4C236959680029F9D0012637
:1052200000F01F000D6886408A68324002D04B684B
:1052300020469847002DECD029462D68F4E7034C12
:10524000E9E7034CE7E700BF14DA0000F8D90000F3
:1052500030DA000038B545682B690BB9002038BD3D
:105260001035284601F0D6FF04460028F6D1014645
:10527000284601F08BFF0B4B984210D1224628465E
:10528000094901F057FF22460121DB20FFF7B4F95D
:105290002246012140F20D10FFF7AEF9DEE76FF074
:1052A0000400DCE70000AD0B055200002DE9F043DF
:1052B00040F206364568D00648BF4FF0030C2B7B02
:1052C00002EA060658BFC2F3401C87B001F01F0770
:1052D000B6F5807F144647EA43178DF803C044D0E3
:1052E00007D8022E16D0062E41D09EB16FF01500C1
:1052F00038E0B6F5007F3CD004D8B6F5837FF5D111
:10530000092607E040F20222964234D0B6F5407FEB
:10531000ECD105260123220303FA01F12DD56B6898
:105320005960286970BB07F01F027F09022F77D8E8
:105330003D4B84F4803153F82730C1F3004103EB37
:105340008202D2F88030C4F3404423F4706344EA0C
:10535000410423F00F031C4344EA8C0444EA06246E
:10536000C2F8804007B0BDE8F0830126D2E70826E6
:10537000D0E70426CEE70626CCE7630344BF6B687C
:105380009960CEE710350DF102023946284601F04A
:10539000DFFE14F4403F81460DD13946284607F020
:1053A0000FFC224B994504D19DF80210284601F0CC
:1053B0003FFF0020D6E74FF0000801AB03AA3946B3
:1053C0002846CDE90438CDE90188CDF80C8001F0FC
:1053D00013FD164B984289D114F4003315D09DF873
:1053E000033084F48034C4F300448DF80E3003AAF3
:1053F0004346394628468DF80C608DF80D4001F083
:10540000FBFD0A4B9842CCD070E7CDE9043303AAE8
:105410000DF1030339462846039301F0EDFCF0E754
:10542000203250F82230FFDE20ED00000000AD0BEE
:10543000F0B5406801F01F04057B87B044EA4514CD
:105440000569002D62D0B2F5001F00F1100506D1EC
:105450002146284607F0B6FB002007B0F0BD002724
:1054600001AEB2F5800F019777603AD1B3F1007FBA
:105470000CBF042305238DF804300023CDE9046319
:105480000393836823FA01F111F001011BD1B2F1FA
:10549000A07F18D1620904F01F03022A03F1200340
:1054A0003AD81F4951F8222052F82330DB070AD49A
:1054B0000DF1030632462146284601F049FE194BFC
:1054C000984219D0029603AA2146284601F094FC7E
:1054D000154B98421DD101222146284601F0BCFE01
:1054E000BAE7B3F1C06F05D0B3F1007F0CBF022360
:1054F0000123C0E70323BEE73146284601F0A2FEA0
:10550000094B9842DED06FF00B00A6E76FF08500E4
:10551000A3E76FF01500A0E751F82330FFDE00BFCE
:1055200020ED00000400AD0B0000AD0B30B587B0DE
:105530001C4C204607F054FC034618BB1A490A6865
:10554000520708D0226800900392184ACDE9010260
:10555000012206F0CBFB6FF0120510E012490B6838
:105560005B070CD0236801220393114B059502932E
:1055700000230492CDE90033184606F0B7FB284615
:1055800007B030BD2269A1681368204623F00203EA
:1055900013600B68002201219847051EDEDB002501
:1055A000EDE700BF30DA00009C020020B80C0100DB
:1055B000CF0C01007FB50BAB05930393054B012284
:1055C00002930023CDE900331846FBF79FFF07B095
:1055D0005DF804FB4A0D010002780B69012A0AD02C
:1055E0001AB1022A09D0064A00E0064A1A6303F1FA
:1055F000180003F083B8044AF8E7044AF6E700BF4E
:105600000100AD0B0000AD0B0100AE0B0200AE0BB4
:105610002DE9F04F8DB00A9343680746D3F82890E0
:105620009B8B0C469346D0F8108009934FF0FF32C5
:105630004FF0FF33404603F09BF808F1180308933E
:10564000002600230022089803F092F833465E45B6
:1056500009D300230893404603F050F8089B1846EE
:105660000DB0BDE8F08F207A020700F1838001368B
:105670005E45D4F800E00AD2850708D4227D80EA8E
:10568000020505F0010502F004022A4321D0002B97
:105690003CD10EF06042B2F1005F39D10025D4F860
:1056A00000A0A3880A9A217A38460092524600F058
:1056B000C1F8031ECEDB43F609520023089803F01D
:1056C00057F8002838D0384600F05EF86FF0040331
:1056D000C0E701256268099903EB020C8C4519D9D2
:1056E0002649086840070ED00393254B386802937B
:1056F000002306900998CDE90033CDE9042001226A
:105700001846FFF757FF6FF01B03A3E70025E1E7FB
:105710001D46DFE7C10706D409EB030071460B9372
:1057200007F06FFE0B9B626813449BB26DB9002BB0
:10573000B4D01D46CA46B5E7D8F83030114A934276
:10574000C4D1237ADB0702D400230C347FE7CA4597
:10575000FAD1A24607E0AD1AADB209EB0501DAF8BD
:105760000C0007F04EFEAAF10C0ADAF81020954260
:10577000F1D2E9E76FF085036CE700BFA4020020D7
:105780004A0D01000000AD0B73B544680DF107012F
:105790002368D3F80056D3F8046604F09AFE9DF807
:1057A000073013B9204602F0C1FA3146284602F00C
:1057B0009FFC9DF80710054629B9606A06F0C4FAF7
:1057C000204602F0A3FA044B9D4214BF6FF00F0075
:1057D000002002B070BD00BF0000AD0B1FB511F07E
:1057E0000103426811D1C1F34201012910D00229FD
:1057F00017D00E490A68520707D00D4A0093CDE929
:1058000001321846012206F0C7FA6FF0150005E0D4
:105810004FF0CC7112681846C2F8241505B05DF837
:1058200004FB12684FF0C861F5E700BFA402002036
:10583000350E0100F0B50E461C4617468DB0456882
:10584000122200210DF11E0007F003FE06F00103F5
:105850008DF81C30BDF8483008948DF81D30AB8DA4
:105860000A97A34211D214490A6852070AD0CDE917
:105870000343124B012202930023CDE90033184663
:1058800006F08AFA6FF01B0012E016F0020F0CBF50
:105890002022002207A9284602F068FA084B984205
:1058A00008D00B3398420CBF6FF00F006FF004006C
:1058B0000DB0F0BD0020FBE7A4020020470E010060
:1058C0000000AD0B30B50546446885B0236A9847A3
:1058D0000121606A06F038FA2B46A26904F108013A
:1058E000204602F0DDF90E4B984212D00D490B68AC
:1058F0005B070AD02B68012203930B4B0293002312
:10590000CDE90033184606F047FA6FF0040005B001
:1059100030BD2846054905B0BDE8304004F0EEBD75
:105920000000AD0BA4020020150E010067BD0000B1
:1059300030B483689C6984B1130207D501230569DB
:105940008B402D682B4218BF82F0C062054BA446E5
:1059500030BC134002F0B07260476FF0570030BCAB
:10596000704700BF400000062DE9F04F00250127D9
:1059700050F8103C89B05C680DEB07020095ADF85B
:105980000450A38806462068059205220692072245
:10599000CDF808D003978DF810508DF81C20022206
:1059A00002A906F009FAA8420DDA304603F004F81D
:1059B000226912F0986F03D0A068217BFFF7B8FF2F
:1059C00009B0BDE8F08FB946DFF88C8098F8003058
:1059D00008AA134413F81F2C98F801301A4227D153
:1059E0000135152D08F10208F0D1052306228DF8A6
:1059F00000302068A38803920222CDF808D08DF8E9
:105A00001020012202A906F0D7F90028CDDBA068FA
:105A1000257B0769836802A95B6898470028C4D181
:105A20003B68029A5A400123AB401A42C0D0BCE7FF
:105A300031690029D4D056F810BC0F6809FA05FA6C
:105A40008A681AEA020202D04B6858469847002F2B
:105A5000C6D039463F68F3E78E0E0100F8B54568B9
:105A600007460669286807F0BBF910B96FF0120005
:105A7000F8BD37607C6894F82030002B7AD194F818
:105A80002230002BE36914BF00220222D80701D480
:105A900042F00102C121204606F09DF90028E7DB13
:105AA000E369D90600F18C8013F0200F14BF0222A5
:105AB000012294F8213033B13F339B0003F00C03F3
:105AC0001A4342F01002C221204606F084F9002851
:105AD000CEDBA8680028CBD07C68A369217D13F0B9
:105AE000010FA1F17D010CBF02220122C9B22046A3
:105AF00006F071F90028BBDB217D022281F08001D4
:105B0000204606F068F90028B2DBA86807F068F9BB
:105B10000028ABD0B5F80EC0A868297B4CF48032C1
:105B20000123076903FA01F43B681CF0010F14BF5D
:105B30002343A343D0F808E03B60DEF800309847E9
:105B4000002895DB01222B7B204802FA03F3C6E9EB
:105B50000203A868311D8368DB699BB3984700285E
:105B600086DB1B4B73612A69A868297BBDE8F84076
:105B7000FFF7DEBE0422DB21204606F02CF90028C8
:105B8000FFF676AF0122DC21204606F024F900283A
:105B9000FFF66EAF94F82030022B7FF470AF002236
:105BA000D221204606F017F90028FFF661AF012246
:105BB000D321204606F00FF90028BFF660AF57E763
:105BC000002276E76FF0570052E700BF01BE0000E9
:105BD00069590000036803F01F025B09022B026091
:105BE0009ABF024A52F82300002070479CEE000042
:105BF0002DE9F04F1646824640F2FF18DFF89891E3
:105C000085B000EB81018A4501D1002022E0DAF85D
:105C10000030C3F3C322082AC3F3080400F2B6809D
:105C20005C481B0E444508BF4FF0FF340B2B875CCC
:105C300059D012D8032B53D005D8012B40D02FD9DF
:105C4000C6F810462EE0052B45D03DD3062B47D095
:105C50006FF0850005B0BDE8F08F162B53D007D844
:105C6000142B4AD04CD80C2BF2D1C6F804463CE099
:105C7000182B56D052D3192B56D0382BE8D103A865
:105C80000394FFF7A7FF039B012500EB8300D0F8E7
:105C9000802022F0E04242F08042C0F8802028E0DC
:105CA000C6F80446631C36D04FF0010B03A80394DA
:105CB000FFF790FF039B5D460BFA03F3436043E05D
:105CC000C6F80C46002514E04FF0000BC6F800465D
:105CD000621C30D11FE0C6F804464FF0010BF7E715
:105CE000C6F80846EEE7C6F80046002FEAD10025C0
:105CF0000827631C0FD0AB4626E0C6F84045ECE70A
:105D0000C6F84445DEE7C6F86045BAF80230601CC4
:105D100003F001030BD10AF1040A74E7C6F86445E5
:105D2000F3E7C6F86845F0E7C6F86C45EDE7002BE9
:105D3000BAD14FF0010B03A801250394FFF74AFFE6
:105D4000039B05FA03F38360DAF8002003A802F44A
:105D50000043002B01921CBF4FF0010B0025039460
:105D6000FFF738FF039B019A00EB8300D0F88030E7
:105D7000C2F341223F0247EA8202154303EA0903C4
:105D80001D4345EA4B05C0F88050C4E76FF015008D
:105D900060E700BFCD0E0100F0F0FCFF0129F8B56F
:105DA00005460C4634D146680021B06B06F058F821
:105DB000376800263146DFF88CC001F5AC7357F820
:105DC000230000280FDB4309022B37D85CF823306F
:105DD00000F01F001B68C34013F0010318BF04FA52
:105DE00001F33343DEB201310429E6D10022012060
:105DF00000FA02F3334214BF00214FF400416B68F4
:105E00009B6A23F812100132042AF1D10020F8BD58
:105E100089B94668304601F0E1FD304606F04FFF93
:105E20000028FAD000242B6901211C605C60B06B53
:105E300006F016F8EAE76FF08500E8E700231B6834
:105E4000FFDE00BFA8EE00001FB5044600220121BE
:105E5000D220FEF7D1FB60682369114A00F10801E6
:105E600001F05AFD0F4B984212D00F490B685B07A7
:105E70000AD02368012203930C4B02930023CDE93F
:105E80000033184605F0FBFF6FF00F0004B010BDA3
:105E90002046074904B0BDE8104004F02FBB00BF06
:105EA00053BE00000000AD0BBC020020150E010027
:105EB0009D5D00002DE9F04788B0BDF840900329B2
:105EC00080460E461C464768056909F001090ED94F
:105ED0006B490B685F072BD06A4B03960293002334
