:1000000070440020F54B000015D20000E14B0000C9
:10001000E14B0000E14B0000E14B0000E14B000030
:10002000000000000000000000000000694D00001A
:10003000E14B000000000000FD4C0000E14B00001F
:10004000F54E0000F54E0000F54E0000F54E0000A4
:10005000F54E0000F54E0000F54E0000F54E000094
:10006000F54E0000F54E0000F54E0000F54E000084
:10007000F54E0000F54E0000F54E0000F54E000074
:1004800081F0004102E000BF83F0004330B54FEA45
:1004900041044FEA430594EA050F08BF90EA020FB2
:1004A0001FBF54EA000C55EA020C7FEA645C7FEA45
:1004B000655C00F0E2804FEA5454D4EB5555B8BF68
:1004C0006D420CDD2C4480EA020281EA030382EAD9
:1004D000000083EA010180EA020281EA0303362D6B
:1004E00088BF30BD11F0004F4FEA01314FF4801C3E
:1004F0004CEA113102D0404261EB410113F0004F50
:100500004FEA03334CEA133302D0524263EB430306
:1005100094EA050F00F0A780A4F10104D5F1200EA4
:100520000DDB02FA0EFC22FA05F2801841F10001FF
:1005300003FA0EF2801843FA05F359410EE0A5F1D3
:1005400020050EF1200E012A03FA0EFC28BF4CF004
:10055000020C43FA05F3C01851EBE37101F00045BA
:1005600007D54FF0000EDCF1000C7EEB00006EEBC7
:100570000101B1F5801F1BD3B1F5001F0CD3490851
:100580005FEA30004FEA3C0C04F101044FEA4452A8
:1005900012F5800F80F09A80BCF1004F08BF5FEA2F
:1005A000500C50F1000041EB045141EA050130BD0F
:1005B0005FEA4C0C404141EB0101013C28BFB1F521
:1005C000801FE9D291F0000F04BF01460020B1FA6C
:1005D00081F308BF2033A3F10B03B3F120020CDA3F
:1005E0000C3208DD02F1140CC2F10C0201FA0CF01D
:1005F00021FA02F10CE002F11402D8BFC2F1200C82
:1006000001FA02F120FA0CFCDCBF41EA0C01904037
:10061000E41AA2BF01EB0451294330BD6FEA040480
:100620001F3C1CDA0C340EDC04F11404C4F120026B
:1006300020FA04F001FA02F340EA030021FA04F37D
:1006400045EA030130BDC4F10C04C4F1200220FAD4
:1006500002F001FA04F340EA0300294630BD21FA12
:1006600004F0294630BD94F0000F83F4801306BFD8
:1006700081F480110134013D4EE77FEA645C18BFCC
:100680007FEA655C29D094EA050F08BF90EA020F63
:1006900005D054EA000C04BF1946104630BD91EA5B
:1006A000030F1EBF0021002030BD5FEA545C05D15E
:1006B0004000494128BF41F0004130BD14F580049D
:1006C0003CBF01F5801130BD01F0004545F0FE4111
:1006D00041F470014FF0000030BD7FEA645C1ABF46
:1006E000194610467FEA655C1CBF0B46024650EA7D
:1006F000013406BF52EA033591EA030F41F40021A9
:1007000030BD00BF90F0000F04BF0021704730B52E
:100710004FF4806404F132044FF000054FF0000103
:1007200050E700BF90F0000F04BF0021704730B5C4
:100730004FF4806404F1320410F0004548BF404299
:100740004FF000013EE700BF42004FEAE2014FEAEE
:1007500031014FEA02701FBF12F07F4393F07F4FC9
:1007600081F06051704732F07F4208BF704793F0CC
:100770007F4F04BF41F40021704730B54FF46074DF
:1007800001F0004521F000411CE700BF50EA0102E2
:1007900008BF704730B54FF000050AE050EA01028B
:1007A00008BF704730B511F0004502D5404261EBFB
:1007B00041014FF4806404F132045FEA915C3FF43C
:1007C000D8AE4FF003025FEADC0C18BF03325FEAD9
:1007D000DC0C18BF033202EBDC02C2F1200300FA8A
:1007E00003FC20FA02F001FA03FE40EA0E0021FAAF
:1007F00002F11444BDE600BF80F0004002E000BFFB
:1008000081F0004142001FBF5FEA410392EA030FFB
:100810007FEA226C7FEA236C6AD04FEA1262D2EB45
:100820001363C1BFD218414048404140B8BF5B424A
:10083000192B88BF704710F0004F40F4000020F0E3
:100840007F4018BF404211F0004F41F4000121F0F9
:100850007F4118BF494292EA030F3FD0A2F1010243
:1008600041FA03FC10EB0C00C3F1200301FA03F181
:1008700000F0004302D5494260EB4000B0F5000FA4
:1008800013D3B0F1807F06D340084FEA310102F163
:100890000102FE2A51D2B1F1004F40EBC25008BF15
:1008A00020F0010040EA03007047490040EB0000DF
:1008B000013A28BFB0F5000FEDD2B0FA80FCACF1E0
:1008C000080CB2EB0C0200FA0CF0AABF00EBC2500D
:1008D00052421843BCBFD0401843704792F0000FFB
:1008E00081F4000106BF80F400000132013BB5E74E
:1008F0004FEA41037FEA226C18BF7FEA236C21D0C4
:1009000092EA030F04D092F0000F08BF0846704728
:1009100090EA010F1CBF0020704712F07F4F04D1F6
:10092000400028BF40F00040704712F100723CBF09
:1009300000F50000704700F0004343F0FE4040F433
:10094000000070477FEA226216BF08467FEA2363F1
:100950000146420206BF5FEA412390EA010F40F4DC
:10096000800070474FF0000304E000BF10F0004328
:1009700048BF40425FEA000C08BF704743F096430F
:1009800001464FF000001CE050EA010208BF70472A
:100990004FF000030AE000BF50EA010208BF7047B1
:1009A00011F0004302D5404261EB41015FEA010CC6
:1009B00002BF84460146002043F0B64308BFA3F1BE
:1009C0008053A3F50003BCFA8CF2083AA3EBC253A0
:1009D00010DB01FA02FC634400FA02FCC2F12002BF
:1009E000BCF1004F20FA02F243EB020008BF20F0F6
:1009F0000100704702F1200201FA02FCC2F120025C
:100A000050EA4C0021FA02F243EB020008BF20EA50
:100A1000DC7070474FF0FF0C1CEAD0521EBF1CEA7E
:100A2000D15392EA0C0F93EA0C0F6FD01A4480EA6C
:100A3000010C400218BF5FEA41211ED04FF0006355
:100A400043EA501043EA5111A0FB01310CF0004081
:100A5000B1F5000F3EBF490041EAD3715B0040EAA7
:100A6000010062F17F02FD2A1DD8B3F1004F40EB77
:100A7000C25008BF20F00100704790F0000F0CF04A
:100A8000004C08BF49024CEA502040EA51207F3A0E
:100A9000C2BFD2F1FF0340EAC250704740F40000E9
:100AA0004FF00003013A5DDC12F1190FDCBF00F0DA
:100AB00000407047C2F10002410021FA02F1C2F188
:100AC000200200FA02FC5FEA310040F1000053EA24
:100AD0004C0308BF20EADC70704792F0000F00F072
:100AE000004C02BF400010F4000F013AF9D040EA78
:100AF0000C0093F0000F01F0004C02BF490011F40C
:100B0000000F013BF9D041EA0C018FE70CEAD15309
:100B100092EA0C0F18BF93EA0C0F0AD030F0004C89
:100B200018BF31F0004CD8D180EA010000F000403D
:100B3000704790F0000F17BF90F0004F084691F0FB
:100B4000000F91F0004F14D092EA0C0F01D1420235
:100B50000FD193EA0C0F03D14B0218BF084608D1FE
:100B600080EA010000F0004040F0FE4040F4000048
:100B7000704740F0FE4040F4400070474FF0FF0CDB
:100B80001CEAD0521EBF1CEAD15392EA0C0F93EA22
:100B90000C0F69D0A2EB030280EA010C49024FEA74
:100BA000402037D04FF0805343EA111143EA10132D
:100BB0000CF000408B4238BF5B0042F17D024FF4E5
:100BC000000C8B4224BF5B1A40EA0C00B3EB510FC0
:100BD00024BFA3EB510340EA5C00B3EB910F24BFA9
:100BE000A3EB910340EA9C00B3EBD10F24BFA3EB2E
:100BF000D10340EADC001B0118BF5FEA1C1CE0D1F6
:100C0000FD2A3FF650AF8B4240EBC25008BF20F0A8
:100C1000010070470CF0004C4CEA50207F32C2BFFC
:100C2000D2F1FF0340EAC250704740F400004FF099
:100C30000003013A37E792F0000F00F0004C02BFCA
:100C4000400010F4000F013AF9D040EA0C0093F094
:100C5000000F01F0004C02BF490011F4000F013BEE
:100C6000F9D041EA0C0195E70CEAD15392EA0C0F56
:100C700008D142027FF47DAF93EA0C0F7FF470AF8E
:100C8000084676E793EA0C0F04D14B023FF44CAFD1
:100C900008466EE730F0004C18BF31F0004CCAD166
:100CA00030F000427FF45CAF31F000437FF43CAFA2
:100CB0005FE700BF4FF0FF3C06E000BF4FF0010CC4
:100CC00002E000BF4FF0010C4DF804CD4FEA4002A6
:100CD0004FEA41037FEA226C18BF7FEA236C11D0F0
:100CE00001B052EA530C18BF90EA010F58BFB2EBA3
:100CF000030088BFC81738BF6FEAE17018BF40F023
:100D0000010070477FEA226C02D15FEA402C05D1D6
:100D10007FEA236CE4D15FEA412CE1D05DF8040B5B
:100D2000704700BF844608466146FFE70FB5FFF7EE
:100D3000C9FF002848BF10F1000F0FBD4DF808EDA6
:100D4000FFF7F4FF0CBF012000205DF808FB00BF97
:100D50004DF808EDFFF7EAFF34BF012000205DF8F1
:100D600008FB00BF4DF808EDFFF7E0FF94BF01203E
:100D700000205DF808FB00BF4DF808EDFFF7D2FF3B
:100D800094BF012000205DF808FB00BF4DF808ED7E
:100D9000FFF7C8FF34BF012000205DF808FB00BF4B
:100DA0007BB972B90029BEBF00204FF0004106E0B8
:100DB00008BF00281CBF6FF000414FF0FF3000F06B
:100DC00057B8ADF1080C6DE904CE002909DB002B02
:100DD0001ADB00F069F8DDF804E0DDE9022304B075
:100DE0007047404261EB4101002B1BDB00F05CF8D7
:100DF000DDF804E0DDE9022304B0404261EB41018B
:100E0000524263EB43037047524263EB430300F0EB
:100E10004BF8DDF804E0DDE9022304B0404261EB69
:100E200041017047524263EB430300F03DF8DDF8A7
:100E300004E0DDE9022304B0524263EB4303704750
:100E400053B94AB9002908BF00281CBF4FF0FF3131
:100E50004FF0FF3000F00CB8ADF1080C6DE904CE96
:100E600000F022F8DDF804E0DDE9022304B0704769
:100E7000704700BF10F8012B11F8013B012A28BF71
:100E80009A42F7D0D01A7047034611F8012B03F8A5
:100E9000012B002AF9D17047034613F8012B002AD1
:100EA000FBD1181A013870472DE9F04786468C4669
:100EB0000846089E154674461946002B40F0C1802E
:100EC0008542B2FA82F245D94AB1C2F1200300FA52
:100ED00002FC954094402EFA03F343EA0C0C4FEACF
:100EE000154EA8B2230CBCFBFEF80EFB18CC08FB79
:100EF00000F943EA0C43994528D9EB1808F1FF376C
:100F000004D2994502D9A8F102072B44A3EB0903A7
:100F1000A4B2B3FBFEFC0EFB1C330CFB00F044EA56
:100F20000344A04214D92C190CF1FF3304D2A0427F
:100F300002D9ACF102032C44241A43EA07401EB143
:100F4000D440002334607360BDE8F0874746DDE796
:100F50006346F1E792BB431B01214FEA154EAFB246
:100F6000200CB3FBFEFC0EFB1C330CFB07F840EA25
:100F70000343984561D9EB180CF1FF3004D2984532
:100F800002D9ACF102002B44A3EB0803A4B2B3FBDB
:100F9000FEFC0EFB1C330CFB07F744EA0344A7429C
:100FA0004DD92C190CF1FF3304D2A74202D9ACF170
:100FB00002032C44E41B43EA0040C0E7C2F12003D3
:100FC0009540944020FA03F12EFA03F34FEA154EB0
:100FD0009040AFB20343B1FBFEFC0EFB1C10190C9A
:100FE0000CFB07F841EA0041884522D969180CF149
:100FF000FF3004D2884502D9ACF102002944A1EBAC
:1010000008019BB2B1FBFEFC0EFB1C110CFB07F7A9
:1010100043EA01439F420ED9EB180CF1FF3104D291
:101020009F4202D9ACF102012B44DB1B41EA004193
:1010300093E76046E3E76146F7E76046A4E7634667
:10104000B8E7834206D916B9002108467CE7C6E90D
:1010500000E0F9E7B3FA83F78FB9834201D3724511
:1010600008D8BEEB020460EB030301209C461EB9C6
:10107000002169E73846FAE7C6E9004CF8E7C7F10E
:10108000200CBB400EFA07F522FA0CF42EFA0CF1F4
:10109000BA401C4320FA0CF3B8404FEA144901430C
:1010A0001FFA84FEB3FBF9F809FB18300B0C08FBA0
:1010B0000EFA43EA00439A4540D9E31808F1FF309D
:1010C00004D29A4502D9A8F102002344A3EB0A03F3
:1010D00089B2B3FBF9F809FB183308FB0EFE41EAAD
:1010E00003418E452CD9611808F1FF3304D28E4597
:1010F00002D9A8F10203214443EA0040A1EB0E010A
:10110000A0FB02984145CE46434602D306D14D4549
:1011100004D20138B9EB020E68EB0403002EA7D00D
:10112000B5EB0E0261EB030101FA0CFC22FA07F3A6
:10113000F9404CEA0303C6E9003199E74046C5E7A8
:101140004346D9E7000000002DE9F04704460F466A
:10115000164688B00DF0B6FE4FF47A75A0FB050C6C
:1011600047F6122205FB01C10023FFF769FE012F9C
:1011700080460D4607D102460B46204626490BF015
:101180007CF9002011E0766824483146FFF772FEB2
:1011900070B131462248FFF76DFE48B12046324615
:1011A00020490BF086F96FF0040008B0BDE8F08725
:1011B000404617A3D3E900232946FFF7F1FD064671
:1011C0000D4610461946184A0023FFF7E9FD8046F0
:1011D0000F46104619464EF660220023FFF7E0FD49
:1011E00082468946104619464FF47A720023FFF76B
:1011F000D7FDCDE902A9CDE90623CDE904013246A8
:101200002B462046CDE9008708490BF036F9B8E7B0
:10121000005C260500000000A0340100B13401008C
:10122000B4340100BD34010080EE3600D534010035
:101230001FB514480AF0A0FD002004F0F9FA18B90F
:1012400011480AF099FD0CE0002301930393012358
:10125000694602930AF0FFFD011E06DA0B480AF008
:101260008BFD002005B05DF804FB029B9B07FCD1C1
:10127000039909B10648F2E70122064B06489A6035
:10128000DFE700BF7424010090240100B1240100B5
:10129000CB24010000E01050EB240100012910B51F
:1012A0000C4603D10BF059F9204610BD022906D98E
:1012B000126806490BF0FDF86FF01500F5E702D152
:1012C00052680349F6E70020EFE700BFFE24010063
:1012D00018250100012910B50C4603D10BF03DF98A
:1012E000204610BD022906D9126806490BF0E1F824
:1012F0006FF01500F5E702D152680349F6E70020C8
:10130000EFE700BF2E25010018250100012910B5C7
:101310000C4603D10BF021F9204610BD022906D955
:10132000126806490BF0C5F86FF01500F5E702D119
:1013300052680349F6E70020EFE700BF2E250100C1
:1013400049250100012938B505460C4603D10BF0AB
:1013500004F9204638BD022906D912680C490BF061
:10136000A8F86FF01500F5E750680EF03CF950282A
:10137000024604D9284607490BF09BF8F1E7064BD3
:101380000649D87028460BF078F80020E2E700BF45
:10139000FE240100602501003000002082250100AC
:1013A000012938B505460C4603D10BF0D6F8204686
:1013B00038BD022906D912680C490BF07AF86FF093
:1013C0001500F5E750680EF00EF95028024604D9D2
:1013D000284607490BF06DF8F1E7064B06491871EE
:1013E00028460BF04AF80020E2E700BFFE24010087
:1013F00060250100300000209C250100012938B53E
:1014000005460C4603D10BF0A8F8204638BD02294A
:1014100006D912680C490BF04CF86FF01500F5E78F
:1014200050680EF0E0F86328024604D928460749C0
:101430000BF03FF8F1E7064B0649986028460BF0A1
:101440001CF80020E2E700BFFE240100B4250100E3
:1014500030000020DC2501000F2208B5034B0449B1
:101460005A70044A0BF009F8002008BD3000002033
:1014700015260100F3250100062208B5034B044997
:101480005A70044A0AF0F9FF002008BD300000201D
:101490001526010024260100052208B5034B044946
:1014A0005A70044A0AF0E9FF002008BD300000200D
:1014B0001526010041260100042208B5034B04490A
:1014C0005A70044A0AF0D9FF002008BD30000020FD
:1014D000152601005E260100032208B5034B0449CE
:1014E0005A70044A0AF0C9FF002008BD30000020ED
:1014F00015260100772601000A2208B5034B04498E
:101500005A70044A0AF0B9FF002008BD30000020DC
:101510001526010090260100092208B5034B044955
:101520005A70044A0AF0A9FF002008BD30000020CC
:1015300015260100B0260100012208B5034B04491D
:101540005A70044A0AF099FF002008BD30000020BC
:1015500015260100D026010010B50024034B044AD3
:1015600004495C700AF089FF204610BD300000205D
:10157000E926010015260100D222034B03499A7087
:101580006FF02D020AF079BF300000200227010021
:10159000D822034B03499A706FF027020AF06DBFFF
:1015A0003000002002270100E422034B03499A7017
:1015B0006FF01B020AF061BF30000020022701001B
:1015C000EA22034B03499A706FF015020AF055BFE7
:1015D0003000002002270100EC22034B03499A70DF
:1015E0006FF013020AF049BF30000020022701000B
:1015F000EE22034B03499A706FF011020AF03DBFCF
:101600003000002002270100F022034B03499A70AA
:101610006FF00F020AF031BF3000002002270100F6
:10162000F222034B03499A706FF00D020AF025BFB6
:101630003000002002270100F422034B03499A7076
:101640006FF00B020AF019BF3000002002270100E2
:10165000F622034B03499A706FF009020AF00DBF9E
:101660003000002002270100F722034B03499A7043
:101670006FF008020AF001BF3000002002270100CD
:10168000F822034B03499A706FF007020AF0F5BE87
:101690003000002002270100F922034B03499A7011
:1016A0006FF006020AF0E9BE3000002002270100B8
:1016B000FA22034B03499A706FF005020AF0DDBE6F
:1016C0003000002002270100FB22034B03499A70DF
:1016D0006FF004020AF0D1BE3000002002270100A2
:1016E000FC22034B03499A706FF003020AF0C5BE57
:1016F0003000002002270100FD22034B03499A70AD
:101700006FF002020AF0B9BE30000020022701008B
:10171000FE22034B03499A706FF001020AF0ADBE3E
:101720003000002002270100FF22034B03499A707A
:101730004FF0FF320AF0A1BE300000200227010066
:101740000022024B02499A700AF097BE3000002036
:10175000022701000122024B02499A700AF08DBE55
:1017600030000020022701000222024B02499A7039
:101770000AF083BE30000020022701000322024B42
:1017800002499A700AF079BE300000200227010059
:101790000422024B02499A700AF06FBE300000200A
:1017A000022701000522024B02499A700AF065BE29
:1017B00030000020022701000622024B02499A70E5
:1017C0000AF05BBE30000020022701000722024B16
:1017D00002499A700AF051BE300000200227010031
:1017E0000822024B02499A700AF047BE30000020DE
:1017F00002270100022208B5034B04491A70044A6B
:101800000AF03BFE002008BD300000202F27010019
:1018100015270100012208B5034B04491A70044A38
:101820000AF02BFE002008BD300000202F27010009
:101830004927010010B50024034B044A04491C70D9
:101840000AF01BFE204610BD300000206327010077
:101850002F27010037B5264D264904460AF00DFE14
:101860006A780F2A3CD8DFE802F02D2F3B31333560
:10187000373B3B082B3B3B3B3B391F4A1F4920462C
:101880000AF0FBFD95F9022020461D490AF0F5FDFE
:101890002A78012A26D0022A26D03ABB194A1A49A8
:1018A00020460AF0EAFDEB6820460193AB68174931
:1018B00000932B79EA780AF0E0FD002003B030BDF8
:1018C000134ADBE7134AD9E7134AD7E7134AD5E7A8
:1018D000134AD3E7134AD1E7134ACFE7134ACDE7B8
:1018E0001349CCE7134ADAE7134AD8E71349D7E795
:1018F000300000207B270100B026010015260100E2
:1019000002270100632701002F270100D1270100D2
:1019100090260100E9260100D0260100772601006B
:101920005E2601004126010024260100F325010066
:10193000882701004927010015270100AF27010072
:1019400008B500F027FE0020014B187008BD00BF4D
:101950009E220020104B10B5002104460E2218468E
:101960000DF039FE0422034603F8022C0B4B02381B
:101970005A784270DA7802711A799B6842718360F2
:1019800000F016FD0122064B204606491A700AF0A7
:1019900074FD002010BD00BFAA16002030000020FA
:1019A0009E2200202C280100104B10B50E22044668
:1019B000002118460DF00FFE0322034603F8022C07
:1019C0000B4B02385A78996842701A795B888160AB
:1019D0008380827100F0ECFC0122064B2046064910
:1019E0001A700AF04AFD002010BD00BFAA160020A0
:1019F000300000209E2200203628010001480AF015
:101A0000BBB900BF402801007FB5002301A8CDE984
:101A10000133039300F0DEFD1A4B039E1C690CB1E9
:101A2000A64204D918480AF0A7F904B070BDA01B5B
:101A3000FEF798FF05462046FEF794FF014628462C
:101A4000FFF79CF81149FEF7E5FF054610480AF03C
:101A500093F931460F480AF08FF921460E480AF0F3
:101A60008BF92846FEF770FE02460B460B480AF03B
:101A700083F928460A49FFF77FF90028D5D009489D
:101A8000D1E700BF300000205F2801000000C842FD
:101A90008F3601007828010098280100B92801003C
:101AA00000002041CD28010030B50446002585B056
:101AB00001A8CDE90155039500F08CFD20460849A9
:101AC0000AF0DBFCDDE9011220460AF000FD2046A9
:101AD000039A04490AF0D1FC284605B030BD00BF86
:101AE000F228010005290100014800F08BBD00BF6C
:101AF000A816002013B50C4B04465B780F2B11D1B0
:101B00000B390F290ED91A23084A009308490B23D1
:101B10000AF0B3FC0B222046064902B0BDE8104093
:101B20000AF0ABBC02B010BD30000020F32501006C
:101B30001C2901005229010038B50F4D04462B78AD
:101B40001BB100F027FD00232B700C4D2046E978D7
:101B5000FFF7D0FF0A4B0021184610220DF03BFD85
:101B60006A7842706A88828000F022FC204605492B
:101B70000AF083FC002038BD9E22002030000020A7
:101B8000A8160020652901002DE9F041204C0546EA
:101B90002378884617461BB100F0FCFC0023237015
:101BA0001C4E2846F178FFF7A5FFB8F1020F08D9BF
:101BB00028463A6818490AF07CFC6FF01500BDE829
:101BC000F081164B0E22184600210DF004FD012273
:101BD0007378B8F1020F00F8013CB378A0F1020469
:101BE0002371F37800F8022CA3713378637105D167
:101BF00078680DF0F8FC0A4BA060E360094800F03B
:101C0000D7FB284608490AF038FC0020D7E700BF78
:101C10009E220020300000202E250100AA16002060
:101C2000FD190000A81600207B290100012938B504
:101C300005460C4603D10AF090FC204638BD022927
:101C400006D9126818490AF034FC6FF01500F5E760
:101C500050680DF0C8FC5A2804D9284613490AF0E8
:101C600028FCF2E7124CE178E0602846FFF742FFDB
:101C7000104B0E22002118460DF0ADFC0522034644
:101C800003F8022C637802384370A3780371237839
:101C90004371E3788371E368836000F089FB01227C
:101CA000054B00201A70C9E72E2501009B29010071
:101CB00030000020AA1600209E2200202DE9F041CD
:101CC000204D04462B78884617461BB100F062FC75
:101CD00000232B70B8F1020F08D920463A681A4940
:101CE0000AF0E7FB6FF01500BDE8F081174E2046C3
:101CF000F178FFF7FFFE164B0E22184600210DF07B
:101D00006AFC02227378904500F8013CF378A0F158
:101D100002056B71337800F8022C2B710CD17868B6
:101D20000DF061FC0B4B3061A860EB6020B92046E0
:101D300009490AF0BEFBD5E7084800F039FB00204E
:101D4000D2E700BF9E220020C12901003000002000
:101D5000AA160020091A0000D9290100A81600209F
:101D600000224FF0FF310A4BC3F80024C3F890144F
:101D7000C3F82022D3F8202201221A61D3F82022AE
:101D8000002AFBD00022C3F82022D3F8203270476B
:101D900000A0085010B5FFF7E3FF044B1B6823B108
:101DA0001B6813B1BDE81040184710BDB8160020DD
:101DB00010B51C4B0446D3F88824110516D5D3F86A
:101DC0002C229AB10022C3F82C22174AD3F82C32C5
:101DD000136801331360826842B193420CBF002242
:101DE00040F635420023114807F0A8F90D4BD3F80F
:101DF0008824520614D5D3F818228AB10022C3F8D9
:101E000018220B4AD3F81832136801331360A26802
:101E1000934205D1FFF7A4FFE368BDE810401847DF
:101E200010BD00BF00A00850C01600200000002018
:101E3000C416002073B5124B124C187020460D4684
:101E400005F006FF104B0026D3F800224FF0FF32BA
:101E5000C3F800622946C3F80823204605F026FF90
:101E600001230246009320464FF0011331460CF047
:101E7000BAFC204602B0BDE8704005F0DBBE00BFF2
:101E8000A12200204C0701000050085000F12E0351
:101E900010B50446362B5ED8DFE803F0645D5D5D67
:101EA0005D5D1C5D5D5D5D5D5D5D5D5D5D5D2F5DD1
:101EB0005D5D5D5D625D625D315D335D355D375DEC
:101EC000393B3D3F41434547494B604D4F51535589
:101ED00057595B004FF49873244AC2F81037244BCB
:101EE0001B78002B41D12146224809F045FF2146AD
:101EF000BDE81040204809F03FBF0123ECE7032371
:101F0000EAE70423E8E70523E6E70623E4E70723F7
:101F1000E2E70823E0E70923DEE70A23DCE70B23F7
:101F2000DAE70D23D8E70F23D6E71123D4E71323ED
:101F3000D2E71523D0E71B23CEE71F23CCE72323CB
:101F4000CAE72823C8E72D23C6E73323C4E739238C
:101F5000C2E73F23C0E7094809F00EFF1823BBE79B
:101F60000223B9E74FF48873B6E710BD00A008500C
:101F7000A02200206B330100903301002C330100BC
:101F80001FB501240022444BA142C3F80447C3F803
:101F9000442EC3F8482EC3F83C2EC3F8404E2AD036
:101FA000022922D0002959D1AB22C3F8342E4FF098
:101FB000AB32C3F82C2E0023CDF80530CDF801301C
:101FC000FF238DF808304FF48273ADF80A300123F7
:101FD00004388DF80C300B285BD8DFE800F0554151
:101FE000415A5A55555A5A5A5A11CC22C3F8342ECE
:101FF0004FF0CC32DDE76A22C3F8342E274AD8E707
:1020000002238DF805307F238DF808300023ADF8CA
:102010000A308DF80C308523214A13809DF8073053
:102020009DF804205B0743EA82539DF8052043EAAC
:102030000263194A43F00803C2F8203E9DF80A30B3
:102040009DF80B101B0443EA01639DF808100B4335
:102050009DF80C1043EA4163C2F8283E04B010BD5D
:1020600040F20233ADF80430032340F203128DF83E
:102070000730ADF80A30084BC3F8442E0022C3F8ED
:10208000482E4FF48B73C7E78DF8053040F20713E5
:10209000C2E74FF48373BFE700A008501B81FE58CE
:1020A0009C22002038B504460D46FFF769FF0F2C2F
:1020B00014BFFF237E230C4C012D237010D0022D62
:1020C00008D01DB9FF21601C03F088FA074BC3F844
:1020D000D04E38BDFF22CC21601C0DF07CFAF5E714
:1020E000FF22F021F8E700BFA223002000A0085043
:1020F0000F280DD1A1F10B030F2B0CD801EB81019F
:1021000001F62E11054BA1F51661C3F808177047AB
:1021100001F51661F6E740F66511F3E700A00850F7
:1021200010B5214CD4E8EF3F23F48032C4E8E12F0E
:102130000029F7D1D80304D51C4B1D4918780CF0A1
:1021400023FCD4E8EF3F23F00402C4E8E12F002988
:10215000F7D1590705D5154B164A174918780CF0D1
:1021600036FCD4E8EF3F23F01002C4E8E12F002949
:10217000F7D1DA0605D50D4B104A0F4918780CF047
:1021800026FCD4E8EF3F23F48072C4E8E12F002955
:10219000F7D1DB0507D5BDE81040044B054A0849D7
:1021A00018780CF014BC10BDBC1600209F22002033
:1021B0000050085000A008500071085004A00850BA
:1021C0004051085070B50446164DFFF7A9FF287816
:1021D00014B3154A154906F0EDFA04230126144CF0
:1021E00006FA03F3D4E8EF2F1A43C4E8E12F0029DD
:1021F000F8D1104928780CF0A3FBD4E8EF3F43F462
:102200008033C4E8E23F002AF7D1287806FA00F0CC
:10221000BDE870400CF014BC074A044906F0CAFA45
:102220000223DBE79F22002004A008500071085021
:10223000BC1600200050085000A0085038B50446D5
:1022400015460846FFF78CFD0F2C08BF0222104BE5
:10225000C3F8004508BFC3F81028D3F8002442F0A3
:102260000102C3F80024FFF711FE2046094C29465D
:10227000FFF73EFF237843B10020FFF7A3FF237849
:102280001BB1054B01221A6038BD014BFAE700BFB4
:1022900000A00850A0220020007008502DE9F04155
:1022A00005460F4610461E46FFF75AFD0F2D08BF84
:1022B00002231B4C0146C4F8005508BFC4F810386F
:1022C000D4F80034284643F02103C4F80034154BF9
:1022D000C4F8D03EFFF754FE002239462846FFF7E7
:1022E00007FF114B1A604FF40063C4F888340F4C99
:1022F00023787BB10120FFF765FF237853B10122DA
:102300000B4B1A6056B1BDE8F0410023094A0A4858
:1023100006F014BF0122024B5A60F3E7BDE8F081DA
:1023200000A00850A2220020C0160020A0220020F9
:1023300000700850B4C4040000000020B0F5A07F75
:1023400010B50C4619D10978032917D10122154B74
:1023500060781A70144B94F904101A78FFF76EFF26
:102360006279A07900210F4B19700F490B78013366
:10237000DBB2834298BF1A460A7010BD04290CD103
:102380000122084B08491A706078227900230978E5
:10239000FFF784FF22796079E4E70448BDE8104044
:1023A00009F0EABCA0220020A1220020B2330100E3
:1023B0002DE9F3410378052B47D8DFE803F0030C40
:1023C0004952595C427990F90410407802B0BDE856
:1023D000F041FFF733BF447890F8058090F904701E
:1023E00086798568FFF7BCFC20464146FFF75AFE18
:1023F000062C5D4B5D4907D8D3F800240A43C3F887
:102400000024C3F800450BE00F2CF5D1D3F80024CD
:102410000A43C3F800240222C3F80045C3F8102879
:102420003846FFF733FD002231462046FFF760FEB5
:102430004F4B1A604C4BC3F81822D3F8182215B131
:102440004022C3F8882401221A6002B0BDE8F0815E
:10245000836802794179407802B0BDE8F041FFF726
:102460001DBF8168407902B0BDE8F041FFF7E2BCD2
:1024700081680079F7E7447890F80580856890F9DD
:1024800004708679FFF76CFC20464146FFF70AFE90
:102490000F2C08BF0223344A3846C2F8004508BF53
:1024A000C2F81038D2F8003443F4002343F001039B
:1024B000C2F80034FFF7EAFC31462046FFF718FE69
:1024C0002C4A2D4B12881B5DC5F1640453435C43B9
:1024D000B4FBF5F429481C4405F0BAFB0020FFF7D3
:1024E00071FE274B0025D3F800224FF0FF32C3F8CE
:1024F00000522146C3F80823204805F0B7FB022309
:10250000024601211D4800950CF06DF9EFF311868C
:10251000202383F31288BFF36F8F0125194B1A4CC8
:102520001D6020780CF070FA20B1207805FA00F0D8
:102530000CF098FAFFF7F4FD0B4A1449207806F0E6
:1025400039F9134BD3E8EF1F41F48071C3E8E21F60
:10255000002AF7D10120237898400CF071FA86F315
:102560001188BFF36F8F70E700A0085001001000C2
:10257000C41600209C2200200F3401004C070100EB
:1025800000500850007008509F220020445108500D
:10259000BC16002010B50C4805F05AFB0A480CF098
:1025A00006F90022094C0A4B20781A700CF02CFA1C
:1025B00020B10120237898400CF054FAFFF7B0FDC9
:1025C000BDE81040FFF7CCBB4C0701009F22002064
:1025D000A0220020084B094AD3F8003503F00F036E
:1025E0000F2B14BF4FF480737F23C0E90023044BEB
:1025F0001B688360704700BF00A00850A222002023
:10260000C01600204FF4007330B51A4A87B0CDE9E8
:102610000323059003A90446174A184805F0E6FA73
:10262000174B0146984202D0164809F0A5FB002539
:102630000022062185200AF0F4FD23460621124AD5
:102640008A2000950AF0F5FD8A2002F0B3FB0F48BE
:1026500006F080F80A4B984206D00D4809F08CFB32
:102660006FF00D0007B030BD0A4B0C3428461C60DB
:10267000F8E700BF40420F003D2300004C07010077
:102680000000AD0BCC330100B11D00009F220020E3
:10269000ED330100B8160020014B1B68184700BF3E
:1026A00044000020014B1860704700BF4400002028
:1026B00030B585B004460D461022002168460CF066
:1026C0008AFF02238DF80230044B2A4621466846D1
:1026D000019308F08FFA05B030BD00BF99260000C5
:1026E00080B505460E461746984607F087F803461C
:1026F0000DF098F90446DFF81890424649F800308A
:1027000039463046A84754F8090002F0E1FA00BF04
:10271000080000002DE9F047058B04462807904685
:1027200011D4022905F0070540F0CC80204609F0BD
:1027300030FB78B10138218B042811D8DFE800F094
:10274000C2106D85950001290CBF45F0100545F0BC
:102750002005258388F31188BFF36F8FBDE8F087CC
:1027600001F0070AAA4500F0A5800027B9463E46B9
:10277000A368002B00F0BC8041F00801218388F39E
:102780001188BFF36F8FA168002900F0BA800D682F
:10279000002900F0B680334652462046D1F8048026
:1027A000C047002D76D02B6829461D46F0E701F082
:1027B00007035A1F012A1BD8002221F00701062B0C
:1027C000276889B2C4E9002209D13B4603E0628B45
:1027D000013262831B68002BF9D141F002012046CF
:1027E000218309F0D6FA00287AD041F0200176E062
:1027F000042B0AD121F0070189B22046218309F078
:10280000C8FA10B141F020012183218B01F0070AA1
:10281000AA454FD00027B946AAE7236921F007014E
:1028200041F00601062DD3F8009021832DD1B9F196
:10283000000F3FD041F00801218388F31188BFF3D6
:102840006F8F20463949C84729E021F007012369E5
:1028500041F0040189B2042DD3F804902183E6D01D
:1028600000274FF0040A3E4682E721F00701236962
:1028700041F0050189B2052DD3F808902183D6D007
:1028800000274FF0050A3E4672E700274FF0060A80
:102890003E466DE72B4687E7B9F1000FD1D1EFF344
:1028A0001188202383F31288BFF36F8F238B23F0CB
:1028B00008032383258BEA062ED525F010032383F6
:1028C00005F007056669218B002EBFF670AF002367
:1028D0002768C4E9003321F0070141F00101218399
:1028E000218B4FF0000901F0070AAA457FF440AFA1
:1028F000002F9CD041F00801218388F31188BFF399
:102900006F8F002FC8D03D68394633465246204667
:1029100009F06BFA2F46F4E7AB067FF51BAF25F005
:102920002003238305F0070500E700BF17BE000062
:10293000014B0360002070475407010003289ABF31
:10294000024B53F820000248704700BF54070100B3
:102950009036010010B504460BF030FE03490246E4
:10296000204609F08AFD002010BD00BF4B34010055
:102970001346002273B5044601920A21586801AA41
:1029800001F032FB019D95B920EAE07447F612266A
:10299000294640F2E7304FF47A720023C4FB060167
:1029A000FEF74EFA0CF0EFF9284602B070BD2A4649
:1029B0002046024909F07DFD019DF5E777340100CD
:1029C00008B5034A034909F058FD002008BD00BFBF
:1029D000673501006E35010010B5044603F020FF95
:1029E00007490246204609F048FD2046054909F0FE
:1029F00044FD2146044807F04DF8002010BD00BFFB
:102A0000B0350100CF3501000D2A000070B58EB041
:102A100004460D46D0F8AC600CF003F903460DF007
:102A200001F8214A21491058214A002B18BF1A46A3
:102A30000092204A2346844218BF0A4628461E496F
:102A400009F01BFDD4E90A23CDE90023284694F9B7
:102A50000E30227B194909F010FD06A920222046DC
:102A600006F082FB636F02461549284609F005FD12
:102A7000204605A90CF0E3F8024628B12846114982
:102A800009F0FBFC0EB070BD6422059B2846F11ACC
:102A90004A43B2FBF6F20091CDE901620A4932469F
:102AA00009F0EBFCEEE700BF08000000523D01001A
:102AB000DB350100D9350100DE350100EA350100C2
:102AC000163601002D3601005A360100F0B50025FA
:102AD000044691B0294608AF1C2209A80CF07BFDE2
:102AE000134E1A22202138460CF075FD214611485C
:102AF00006F0D0FF07AA4FF4006130460CF093F8BF
:102B00006423079A2046C2F500614B43DB0A059314
:102B10004FF400630097CDE90313CDE90132064974
:102B20002B46324609F0A9FC284611B0F0BD00BF83
:102B3000302D00203D2B0000AB36010070B504465F
:102B40000D46D0F8AC6088B007A90CF078F80246C2
:102B500028B128460E4909F090FC08B070BD204607
:102B60000CF05FF86422079B0096F11A4A43B2FB0F
:102B7000F6F2CDE90131074BCDE90362002818BF19
:102B8000034622462846044909F077FCE5E700BFE2
:102B90002D360100DB350100F43601002DE9F04F40
:102BA00089B0054602A805F0E9FE1C23029F082112
:102BB00003FB00772D4A284609F052FCDFF8B0A04D
:102BC000029CDFF8B0B0BC4203D3002009B0BDE8DE
:102BD000F08F23680BB11A7832B923461421264AA4
:102BE00003A807F065FE03AB52460821284609F00A
:102BF00037FC20460BF050FF68B3002320460DF150
:102C000007018DF8073009F04DFA10BB9DF8070059
:102C1000FFF794FE034608212846184A09F020FCD5
:102C2000A369A3B11E6896B1336883B10821284611
:102C3000134A09F015FCB1464FF000083368114AF9
:102C400043450AD8082128460F4A09F009FC1C34DC
:102C5000B9E70E4BDFE75B46DDE70821284659F868
:102C6000043F09F0FDFB08F10108E7E767370100C1
:102C7000763701005E37010071370100DA3D01004F
:102C80007B370100773701008F360100583701008C
:102C90002DE9F0411446884607461022002160685D
:102CA00007F0A8FEB8F1020F064607D82023082136
:102CB0003846244A09F0D4FB336816E00A22002182
:102CC000A06807F097FEC5B22B46082138461D4A7A
:102CD00009F0C6FBB8F1030F1AD1102D0CD0202D2E
:102CE000EAD0082D0BD13378DBB208213846164ADA
:102CF00009F0B6FB002009E033889BB2F5E73846BF
:102D00000821124A09F0ACFB6FF01500BDE8F08114
:102D100010220021E06807F06DFE082103460446FA
:102D20000B4A384609F09CFB102D06D0202D07D009
:102D3000082DE4D1E4B23470DCE7A4B23480D9E7E2
:102D40003460D7E7BC370100E7370100D137010015
:102D5000F837010000232DE9F04F91464FF0FF3581
:102D6000012287B00193504B074688461A602026FF
:102D700002F00AFB2C46DFF834A149465246404691
:102D800002F026FB411C06D16A1C41D14849384655
:102D900009F08FFB17E073281AD0772828D0612814
:102DA00011D1DFF810B11021DBF8000001AA01F009
:102DB0001BF9019B0546002BDFD0DBF800203E49C4
:102DC000384609F076FB6FF0150007B0BDE8F08FCC
:102DD000DFF8E0B00021DBF8000001AA01F004F9FF
:102DE000019B0446002BC8D0DBF800203349E7E7FD
:102DF000DFF8C0B00021DBF8000001AA01F0F4F810
:102E0000019B0646002BB8D0DBF800202C49D7E701
:102E1000631C01D12B49BAE75FFA86F8C6F3C406F2
:102E2000002C3FD002AB29461A46A6EB050C0CE05D
:102E3000B8F1100F1DD0B8F1200F20D0B8F1080F55
:102E40002AD10878187031443344A64203D80CEBD9
:102E500001001028ECD9102CA14628BF4FF0100912
:102E600029464B46384600F097FF1035A4EB09047D
:102E7000D6E7088880B21870000A5870E3E708683F
:102E80004FEA102E187083F801E04FEA104E000E42
:102E900083F802E0D870D6E7082138460A4A09F0DC
:102EA000DFFA90E7204690E7B000002046380100A6
:102EB0004D3801002C1A00200C3801001F38010089
:102EC000323801006A380100D137010070B50F4E69
:102ED00004460D46337871B123B10D49BDE8704009
:102EE00009F0E7BA0123337020460A4909F0C5FA10
:102EF0000123337004E083F001033370002BF3D11E
:102F000029462046BDE8704009F044BBA2240020B9
:102F100084380100BF38010070B504463B4803788F
:102F2000182B02D10B78112B31D00B46013A8D189A
:102F3000AB4225D18B5C0A780370A2F13003092BD8
:102F4000334C04D922F02003413B052B04D82368DD
:102F50003049CA54013323602368022B33D1102235
:102F600000212C4807F046FD2B4A136803F8010B9B
:102F700013602A4A1368013313600023236022E0A0
:102F800013F8016B182ED3D11E78112ED0D1234DFA
:102F900020462A68224909F070FA20460021FFF7EE
:102FA00095FF204B187870B91F4A2B681168042BC5
:102FB0000ADC08B111602B6013F003010BD1126819
:102FC00013681BBA136070BD0868043B00BA41F86F
:102FD000040B0120EBE75B4203F0030358BF5942A7
:102FE000022904D1126813885BBA9BB2EAE703296D
:102FF000E9D1106802681104C2F3074301F47F01AC
:103000000B4302F47F4213430360DCE7A324002058
:10301000C8160020A5240020D4160020CC160020BD
:10302000E9380100A4240020D01600202DE9F84F33
:103030000023064615460C462949DFF8A8800B6098
:103040002949DFF8A890DFF8A8B088F800300B60B5
:10305000012C2F4655F804AF1ED90222494650468E
:103060000CF0E2FA80B99AF80220003A18BF012267
:103070009244504602221F490CF0D6FA30B901237F
:1030800088F80030013CE3E70022F1E7494650466A
:10309000FDF7F0FEA8B9043700227868114607F062
:1030A000A9FC0022144B11461860786807F0A2FCB6
:1030B000124B134918603046FFF708FF0020BDE8A7
:1030C000F88F9AF800202D2AE6D19AF80120002ADC
:1030D000E2D052465946304609F0CFF9D2E700BF58
:1030E000C8160020A4240020CC16002003390100BB
:1030F0000939010006390100D4160020D01600203D
:10310000192F000013B509480BF0C6FC58B1002474
:10311000074A0123126805490648009400F0A2FE00
:10312000204602B010BD6FF01200FAE7C0FB0000AD
:103130000C08010058FE000010B54468A3604FF46D
:103140008063C4E9001242680821D36402F1580385
:1031500013630023C2E90E33C2E91133C2E9063317
:10316000C2E90933D162146802F150015363136458
:10317000116153611362C2F89034A36823B11B6CD0
:1031800013B1204604499847A3681B6A0BB1204637
:103190009847002010BD00BFB3C1000010B5044621
:1031A0008168183101F052F9A1682046BDE810404D
:1031B000014A183101F0F0B87F3A010038B5836850
:1031C0000446D3F87832DB071AD4406803685B689A
:1031D0009847054620B9E06809F052FFA3681D75BD
:1031E000A3685B6C13B129462046984700220CF077
:1031F00019FCA368C3F82023034B185801F068FD9D
:103200006FF00F05ECE700BF08000000014909F06E
:103210007AB800BF8F360100F7B5044680680D46C6
:10322000D0F878325A0705D5002109F094F8E06803
:1032300009F0F8FEE368DB6873B9002D3BD0A6689F
:1032400006F15607384609F06BF8002835D03946A4
:1032500006F5AB70FDF718FEA2682946E0680DF18F
:103260000603563209F0E1FE58B9A06800F5AB71CB
:103270005630FDF709FEA068563009F051F8ADF858
:103280000600204609F078FCA368D3F874329B0648
:1032900003D50B49606909F036F8204600F00AFFB3
:1032A000A268BDF806302046A2F85230A268A2F803
:1032B000503009F0C6FB03B0F0BD86F85601CBE7ED
:1032C000D0FF00002DE9F04FA7B0044654220021A2
:1032D00011A80CF080F90023CDE90533A36820463E
:1032E0005633029309F04FFC204609F093FB10B9C6
:1032F0006069FFF78BFF00264FF0FF37B246B346F9
:103300003546B146A0681422002118300CF063F94C
:10331000204609F025FBA168E068B1F8502056313D
:1033200009F0BAFE204609F039FF0DF14408039672
:10333000DDE90532012A6DD0132B6ED85FBBBBF1DE
:10334000000F0AD0204609F04AFF1423A26811A9F1
:1033500056320DEB030009F083F9B9F1000F0CD0E0
:1033600099F81130FE2B08D1059B26AA02EB8302A7
:1033700052F8542C0AB101330593A068059D436AA5
:10338000002B40F0B680CEB1C3699E422DD00D9681
:1033900000F1180524E002234146029A06A809F02C
:1033A0005FF9D8F8042006990346029231B1012949
:1033B0000AD148B16D4A204609F093FC6FF0070529
:1033C000284627B0BDE8F08F059B002B34D0D8F8F5
:1033D000000001F05BF898B166B1A5680D9618354C
:1033E0000CAE0FCE0FC533682B602046FFF7D6FE1C
:1033F0000125E5E75E4A0121204609F072FCDDE780
:10340000059BCBB129462046D8F8002001F0E0F911
:10341000022809D1059B132B91D9069B022B8ED133
:103420000121544B544AC6E7032805D0059B4FF0B1
:10343000010B013305937BE7039B33B94846D8F86A
:10344000001007AA09F003FA054608F10408013F35
:103450009DB3EB68BBF1000F08D0F3B1204609F033
:1034600092FB204609F0EDFA444AC4E7ABB1AE4600
:10347000A368DDF814A003F1180CBEE80F00ACE857
:103480000F00DEF80030CCF80030AB682BB96B7C55
:10349000FE2B04BF2F7C07F1FF37D5F804C0BCF129
:1034A000000F08D0AE460CAEBEE80F000FC6DEF827
:1034B000003033606646A94603E0059B53B1012303
:1034C0000393069B17B9022B7FF432AF059B0133A0
:1034D00005932DE7A368DB6A13B1DB68002BEED1FF
:1034E000274B012100932046119B264A09F0F9FB46
:1034F000E5E790F82830A5EB0A05BBB14FF6FF725F
:1035000090F82910FF2918BF0A469D4202D31344A0
:103510009D420BD98369012120461B4A09F0E1FB3A
:103520002046FFF73BFE6FF0150549E7012108F043
:1035300007FFA06800F5437008F026FFA36811AAF2
:10354000294602EB8A0220465B6A98470546A06836
:103550004FF0FF324FF0FF3300F5437008F0BBFE31
:103560000021A06808F0ECFE2AE700BF8D3A0100B8
:10357000A13A0100023B010020260100BF3A0100F0
:10358000EE3A0100033E0100263B0100022210B585
:10359000836804461A7583689B6CBBB908F07AFE91
:1035A0008368D3F87832DB040BD50321084B094A32
:1035B00009F097FBA0686FF4805100F51E7008F0C9
:1035C0007FFE2046BDE8104000F0C8BE10BD00BF21
:1035D000413B0100783701002DE9F04F0446806837
:1035E0000121B1B000F51E7008F05FFEA3681B7DDD
:1035F000022B20D100230993A36860689E6C0368A6
:103600001D6909AB0EB310221BA9A847099B93B1F2
:103610000121A06808F094FE2046099A1BA9B04732
:103620000021A06808F08CFEA3689B6C002BE3D1FE
:103630002046FFF7ABFF6FF00101A06800F51E7098
:1036400031B0BDE8F04F08F03BBE01220DF123017F
:10365000A847099B002BEED09DF923209DF823104D
:10366000002AA368C8DB5A7D032A00F29782DFE8AC
:1036700012F0040084029B0295020D297CD00A29D5
:1036800058D0B3F8782209296FF3CA02A3F8782238
:10369000A06800F086803DD80029ADD0082900F050
:1036A000FB810346D3F874229207A5D50139162968
:1036B000A2D801A252F821F0493C0000D33A000000
:1036C000DB3A0000CB3A00003D3C0000F93A000034
:1036D000F9350000F9350000F9350000F935000032
:1036E000013B0000093B0000F9350000333B0000BE
:1036F000F93500003D3B0000F9350000F9350000C8
:10370000F9350000F9350000413B0000F9350000B3
:103710006B3B00001B2941D07F2900F0C981A1F13A
:1037200020025E2A0346BDD8012108F014FE9DF850
:103730002310B9E0D3F87822C2F3C7022AB1D3F834
:103740007822C2F3C7020A2AACD1B3F8782261F317
:10375000CA02A3F87822A568B5F85010C1B9284666
:1037600008F0F9FDE06809F05DFC6069FFF74EFDC7
:103770002046FFF70BFF3FE7D3F87822C2F3C702DA
:10378000002AE2D0D3F87822C2F3C7020D2ADBE781
:103790002046FFF797FDC5F82403E9E701234375A9
:1037A0002AE7D0F874329B077FF526AF012108F095
:1037B000D2FDA068B0F85030FF2B3FF41DAF0025BC
:1037C000B0F8522000F1560100F5AB700BF0DCFEB2
:1037D000A3681BA9B3F852200BA8134483F85651D1
:1037E000A268142302F5AB7208F03AFF0B99142972
:1037F0003FF602AF30AB03EB810343F8545CA368A0
:10380000B3F85220002A53D0134493F85530202B9C
:1038100002D0093B042B4BD800294CD100250A9536
:103820000A9B30AA02EB830353F854AC002650469F
:1038300008F076FDB3468146B046374639462846FD
:1038400016AA00F097FB0346002840D1012EA76876
:1038500065D10A9B30AA02EB830353F8540C08F09D
:103860005FFD4146064607F11802284600F082FB3C
:103870000568284608F054FD864205D0821B92B2A6
:103880002046A91909F074FAA068B0F85230034430
:1038900093F85630202B31D0093B042B2ED9D0F889
:1038A0007432DF072FD42021204600F01FFDA3E64D
:1038B0000129B3D9013900200CAB009301900AAB68
:1038C0001BAA08F0EFFF05460028A9D194E61B6863
:1038D0004A465146184603930BF0A6FE60B9039B77
:1038E0001846FDF7D9FA584538BF5846002E08BF8C
:1038F000B8461FFA80FB013601379FE701212046B9
:1039000009F0D3F878E6002108F02FFD20212046A9
:1039100000F0ECFC0121A06808F027FD6CE60490A3
:103920007FF66AAE0A9A30AB03EB820252F8543C3F
:10393000C1461846039308F0F3FC049B0590A7F8D2
:1039400040300496A26849462846183200F012FB1F
:10395000039BD0F800A009F101094BB1BAF1000FA7
:1039600006D019465046059A0BF05EFE0028E9D1B4
:10397000A168BAF1000F4DD1A1F840A0049B013B12
:103980000493DFD16069FFF741FC204600F0E6FCBC
:103990000A9B30AA02EB830353F8540C08F0C0FCD6
:1039A000414611AA8146284600F0E4FA0746A0687D
:1039B0003968FF2200F5AB700BF048FE3B684FF60C
:1039C000FF7708F1010AB84603935146284616AA24
:1039D0000AF1010B00F0CEFA002851D00022A168B4
:1039E000036801F2551111F801EF985C704503D19D
:1039F00010B101324245F6D1B9F1000F01D04A456C
:103A000006DBBA42A8BF3A46013E012E97B237D034
:103A1000DA46DAE79848069108F082FC069900EB4E
:103A20000B074A8FBFB2121A92FBF7F2504692B2BE
:103A30000791069208F074FC07993F1AB1F840000C
:103A4000069A00F1010CA1F840C0B0FBF2F102FBB4
:103A5000110080B2BFB260B906212046864B874A6A
:103A6000CDF800A009F03DF93946204600F00CFBE6
:103A700084E7534606212046814A09F032F9F3E7EC
:103A8000002F3FF4B9AD0399A7EB0902204692B28B
:103A9000494409F06DF9AFE5D0F874329E077FF51F
:103AA000ABAD012108F057FC204609F082F9A3E5EF
:103AB000D0F874329D077FF59FAD012108F04BFCD3
:103AC000A368D3F874321907EED4204609F052F9EE
:103AD00092E5204609F060F88EE5204609F053F89B
:103AE000204608F097FF10B96069FFF78FFB0121AE
:103AF000A06808F030FC3BE6204609F056F87BE56C
:103B0000204609F05DF877E5D3F874329B0603D5BB
:103B10005C49606908F0F7FBA368D3F874329F062C
:103B200003D55949606908F0EEFB204600F016FC09
:103B300062E500212046FFF76FFB5DE50121F9E713
:103B4000204609F019F8204608F0A4FB0121A068DE
:103B500008F001FCA368D3F874329E067FF54CADE3
:103B60004A49606908F0CFFB46E5204600F01CFB9F
:103B70000121A06808F0EFFB3EE55B2902D102229B
:103B80005A7539E5D3F874329D0706D5622907D1F5
:103B90004FF0FF31204608F0B1FFA3680022EFE7A5
:103BA0006629FAD10121F5E700225A75A268D2F8F8
:103BB000743298077FF520ADA1F131031B2B3FF63E
:103BC0001BAD01A151F823F0453C0000513C000021
:103BD000653C0000393C0000F9350000F935000073
:103BE000F9350000F9350000F9350000F93500001D
:103BF000F9350000F9350000F9350000F93500000D
:103C0000F9350000F93500003D3B0000333B000072
:103C1000F93A0000D33A0000F93500003D3C0000BD
:103C2000F9350000493C0000F9350000F935000085
:103C3000F9350000553C000003235375204608F079
:103C4000A2FFD9E403235375204608F095FFD3E47F
:103C500003235375A068D0F8741201F0010181F0BC
:103C6000010159E603235375A368D3F874329B0707
:103C70007FF5C2AC29E700BF513D0100853B010043
:103C800078370100D5FF0000DAFF0000D0FF000008
:103C9000F8B504468068154600F51E70002935D039
:103CA0004FF4804108F001FBA3680021DD646068E7
:103CB00003689B689847002844D1204608F066FBBB
:103CC00000283FD1204E214FA06800F52F704FF003
:103CD000FF324FF0FF33032106F038F80546A068A5
:103CE0004FF0FF324FF0FF3300F543709DB108F005
:103CF000F2FA20462B460121154A08F0F2FFA0688F
:103D0000BDE8F84000F5437008F03EBB6FF4804119
:103D100008F0D6FAC8E708F0DEFA3246022120465B
:103D200008F0DBFA20463A46294608F0D6FA6068E1
:103D300003685B6903B19847A06800F5437008F019
:103D400023FBC1E7F8BD00BFBD310000D93500003D
:103D50008B3B010010B504460A4908F08EFB204653
:103D6000094908F08AFB2046084908F086FB2046EE
:103D7000074908F082FB20460021064A00F00CFBB0
:103D8000002010BDA23B0100E03B01003F3C0100D0
:103D9000933C01002D3D0100F8B51E4617460A462A
:103DA0002949044608F069FB3EB320463A78274982
:103DB00008F063FB01256A0703D12046244908F077
:103DC0005CFBAE421ED920467A5D204908F055FBC7
:103DD0000135102DEFD120461E4908F04EFBB6B933
:103DE00020461B4908F049FB0125AE422B4610D85E
:103DF0002046174908F041FB15E02046164908F017
:103E00003CFB01252046144908F037FBE0E700257C
:103E10002B46FA5C2046A2F120035F2B28BF2E22FE
:103E20000E4908F02AFB0135102D06D06B07DCD1B6
:103E30002046074908F021FBD7E72046BDE8F840B7
:103E4000074908F01ABB00BF433D01004A3D01008D
:103E5000523D0100543D0100503D0100763D0100FE
:103E6000563D01002DE9F043044680688846D0F8AD
:103E7000201315461F4689B0002960D14FF44A72BD
:103E80000BF0A9FBE06809F06FF9A06800F543703A
:103E90000AF048FE4FF42F794FF41F76A0683044A3
:103EA0000BF05CF9A0680022831901214844103608
:103EB0000BF02BF9B6F52F7F09F11409EED100268E
:103EC000A36902211E60A06866F3820500F51E70DA
:103ED00008F0EBF95022A36820465A871822A368FD
:103EE0001A87216808F00BFBA3684146C3F8745297
:103EF0006068144A03681D682346A8470546D0B980
:103F00000122A3681A75D4E9090100220023CDE932
:103F100006230E230393109B4FF40062CDE9017337
:103F20000495094B009405F0CFF9A368C3F820036A
:103F3000216A05F009F9284609B0BDE8F0836FF061
:103F40007705F8E72DC30000913C000010B504464A
:103F500013460A460146064801F0D4F923691B7945
:103F600023B12046BDE8104008F01ABB10BD00BFC9
:103F7000B9C5000038B50B46154648B91449154A6D
:103F8000521AB3EB920F05D251F82350284638BD90
:103F900084680CB90025F9E70F4A94420AD30F4A06
:103FA000944207D218462946226890472B68002B76
:103FB000ECD1EFE70A4A944202D30A4A944205D36D
:103FC000246814225343E518E358F0E70133F8E777
:103FD00084FE0000E8FE0000B0FF0000B0FF00001B
:103FE000E8FE0000B0FF0000F7B5037804462D2B73
:103FF000164605D16FF015030020336003B0F0BD05
:104000000BF010FD002305460A4F0A46C35101A9D3
:10401000204606F0EFFCEB59222B02D16FF0210372
:10402000EAE7002BE6D1019BA342E3D01B78002BEB
:10403000E4D0DFE70C0000008368D3F874329B06FD
:1040400003D50249406908F0C6BC7047E0FF000094
:10405000014908F0C0BC00BF8F3601000A1E0DDC0C
:104060000ED042238168D1F87412890608D5002A3F
:1040700004494069B8BF524208F0ADBC4123F1E7A2
:10408000704700BF723D01000A1E0DDC0ED04423B4
:104090008168D1F87412890608D5002A044940695C
:1040A000B8BF524208F097BC4323F1E7704700BF06
:1040B000723D01002DE9F0478568044605F1560080
:1040C000FCF7EAFE0023984695F83C70DFF8549020
:1040D00086B2A268558FED1BB54209DB002E1FDDAD
:1040E0005633606910491A44BDE8F04708F073BCC4
:1040F0001D442A4492F856A082F85680A26856338E
:104100001A444946606908F066FCA3682B4483F8AA
:1041100056A0A3685B8FDB1BF61A00272B46D8E757
:10412000BDE8F087202601007837010008290A46FB
:1041300017D8836893F83E10914212D083F83E203E
:104140008368082AD3F8743205D0990609D5054941
:10415000406908F040BC9B0603D50349406908F05C
:104160003ABC7047793D0100E5FF000038B50D46C7
:1041700009780446FFF7DAFF6A78072A11D8A3689E
:1041800093F83F1091420CD083F83F20A368D3F8F6
:1041900074329B0605D560690249BDE8384008F0D5
:1041A0001ABC38BD823D0100F8B583680446B3F8F7
:1041B0005020002A55D0B3F85210002951D0553163
:1041C00003F156050B441846A84206D3014611F8E0
:1041D0000169202E3CD0A8423CD286B29DB2AB1BD6
:1041E0009BB2591C471CD21A014438460BF0D9F92E
:1041F000A268711BB2F85030204613FA81F3A2F87E
:104200005030A36809B2B3F850201344002283F859
:10421000562008F04AFCA368D3F874329A0603D5F6
:104220001049606908F0D7FB3B46082120460E4A3A
:1042300008F057FD2046FFF7FFFEA368D3F874325D
:104240009B060ED560690949BDE8F84008F0C3BB7C
:104250000846B9E7014611F80169202EBDD008468D
:10426000B9E7F8BDEAFF000078370100EEFF000073
:104270002DE9F04104460D4617460AB1FFF7DCFE72
:10428000A368B3F85220D3F87412563213444A0785
:1042900021D51846FCF700FE0646DFF84880A6B98F
:1042A000A368B3F85020A3F85220A06808F0A0FB40
:1042B00020B107B115B16069FFF7CAFE6942204617
:1042C000BDE8F04109B208F0F0BB4146606908F072
:1042D00082FB013EE3E708212046034A08F001FD86
:1042E000DEE700BFD93501007837010013B58368D8
:1042F0008DF80710D3F874220446D00725D5B3F8FB
:104300005210B3F850208A421FD0481C9DF8072055
:10431000A3F852000B4483F85620A368D3F8741214
:10432000890710D5D3F87432606913F0040F18BFF1
:104330002A22094908F04FFB204608F06BFB10B118
:104340006069FFF785FE02B010BD012220460DF125
:10435000070108F0D3FCF6E7763D010010B50446EE
:1043600083680221084A08F0BCFCA368D3F87432C1
:104370009B0707D52046FFF79DFE2046BDE810406D
:1043800008F06EBB10BD00BF78370100014908F08E
:1043900038BD00BF8F3601002DE9F04F0E460021D9
:1043A000044617460D4689B0304603AA01F10108BC
:1043B000FFF7E0FDB0B995B127B13A460821204694
:1043C00008F08FFC00211E4FDFF87890DFF878A00E
:1043D000304603AA01F10108FFF7CCFD60B909B02E
:1043E000BDE8F08F006810B1FCF756FD80B2854241
:1043F00038BF05464146D7E703688BB11A787AB1D2
:10440000D0F804B04A46CDE9005308213B46204687
:1044100008F067FCBBF1000F04D16069FFF7B6FF3D
:104420004146D5E7524620463B46082108F059FC54
:10443000AA1D5946204692B208F0F0FCF0E700BFF2
:10444000A53D01008B3D0100923D0100F7B50F68CD
:1044500005460E46A7B13846FCF71EFD84B2094B4F
:104460002846009308213B46074A08F03AFC2846B4
:10447000E21C716892B203B0BDE8F04008F0CEBC17
:104480003C46ECE7A13D0100863B010010B5074921
:104490000446FCF7EFFC38B120460549FCF7EAFC7E
:1044A000B0FA80F0400910BD0120FCE7973D010003
:1044B0009A3D010010B583680446D3F874329B0618
:1044C00003D50649406908F020FD5022A36800206A
:1044D0005A871822A3681A8710BD00BFF2FF000098
:1044E00008B5836902491A6807F0C7FF002008BDB4
:1044F000A83D01002DE9F3410D49054607F0BDFF38
:1045000000220C4C0C4EDFF83480B44202F101075B
:1045100003D3002002B0BDE8F081236A92B2009379
:10452000A3684146284607F0A8FF2C343A46ECE73A
:10453000B83D010058FE000084FE0000D03D01009F
:1045400008B5024907F0DBFF002008BD90360100E6
:1045500073B5044600250D4EA2680DF10603012136
:10456000E06802F5AB7208F060FDBDF80600A368D4
:1045700040B12A463146204603F5AB7307F07DFF74
:104580000135E9E783F8560102B070BDE13D010055
:1045900010B5044607F0F6FF03490246204607F02F
:1045A0006CFF002010BD00BFFF380100022907B5D5
:1045B0000BD153680C49009312680C4B07F079FF3C
:1045C0006FF0150003B05DF804FB8368084AD3F868
:1045D0007432084913F0020F074B18BF1A4607F050
:1045E0004CFF0020EEE700BF003E0100EB3D010064
:1045F00030340100093E0100B32A010010B5836880
:104600000446D3F874329A0603D50749406908F086
:104610007CFCA368D3F874329B0603D50349606918
:1046200008F073FC002010BDF9FF0000FEFF000041
:10463000F0B50129044685B00AD053685E4900935D
:1046400012685E4B07F035FF6FF0150005B0F0BD46
:104650008368D3F87432990603D55949406908F044
:1046600054FC00256FF0F9012046FFF7F7FCFA2112
:104670002046FFF709FDA0684FF48072294600F537
:10468000AB708DF80B500AF0A6FF4E49606908F038
:104690003CFC606907F084FF4FF47A766068012281
:1046A00003680DF10B011F6903ABB847039BEBB91E
:1046B000013E4FF47A70B6B20AF0E9F9002EEDD15E
:1046C000A368D3F874329B0603D53F49606908F0AC
:1046D0001CFC5022A36820465A871822A3683B4935
:1046E0001A8707F0D8FE6FF00700AFE79DF80B20A0
:1046F000A3681B2A53D093F856111B29CED1522AF6
:104700004DD15A19002382F85631A66896F85721E0
:104710005B2A2BD1022506F2571010F8011F2A46FA
:104720003B2905F10105ADB223D1FF2AC8D002F51E
:10473000AB7216FA82F1002211F8010F18BBFA2AA7
:1047400028BFFA22FA2B28BFFA2386F85601A1685F
:104750004A87A2681387A368D3F874329A0603D5F0
:104760001949606908F0D1FB00206FE786F85631DF
:10477000A6E703EB8303303901EB4301B5F5807FF6
:104780008BB2CAD19CE7013502EB8202ADB2303860
:1047900000EB4200B5F5807F82B2CDD190E72B448B
:1047A0000135ADB2092D83F856217FF677AF00228F
:1047B000A36883F8562183E7003E0100EB3D01002A
:1047C00004000100543E0100080001001A3E0100EF
:1047D0002DE9F04F07461546894689B021B11046AC
:1047E00008F0C8FC00285BD1032455E05C463CE09F
:1047F00029460AF5AB700AF045FF0646002854D05A
:10480000FCF74AFB82B2601C3146013230440AF0A8
:10481000C8FE2246594630460AF0B6FE4FF0200345
:104820003355BAF8543008F1010801331C44AAF892
:104830005440002401994B1C484603AA0193FFF7FA
:1048400099FB0646E8B100222846316808F079FE57
:104850000028EFD1D6F800B0D7F808A0BBF1000FC0
:10486000C4D05846FCF718FB84B2BAF8543023443D
:10487000FF2BBDDD2B46032138460D4A08F031FAE7
:104880000124B8F1000F07D0B8682A4600F154019E
:1048900000F5AB7007F0B4FF204609B0BDE8F08F1B
:1048A0004FF0000802244146C5E70224E9E700BFB3
:1048B0001C43010008B5044807F05EFABDE8084053
:1048C000024807F059BA00BF6E430100A34301003C
:1048D00038B50C46154608F092FC034B43F83050AF
:1048E00003EBC0035C6038BD8804002030BFFFF7D5
:1048F000FDBF00BF2DE9F04105460B4EDFF82C80CF
:10490000324606EB0807CC1B204609490AF03CFE5C
:10491000A01942460021083C0AF05DFEC5F8B840E7
:1049200007F10800BDE8F081000000000800000069
:10493000B0FF0000074A936893F90E10002907DBC7
:10494000526993421FBF044A536843F08053536037
:10495000704700BF601C002000ED00E0154B9A6A14
:1049600012F0007F9A6A14BF1E201D2012F0807F73
:104970009A6A18BF1F2012F4801F9A6A18BF02207B
:1049800012F4002F9A6A18BF212012F4802F9A6A1D
:1049900018BF222012F4003F9A6A18BF232012F495
:1049A000803F9A6A18BF24206FEA02426FEA1242DF
:1049B0009A62704700ED00E010B5194B0246986A04
:1049C0009C6A10F4805F14BF1720162014F4006F47
:1049D0009C6A18BF1820A40509D5986B986A000432
:1049E00004D51AB19A6A22F400429A6219200C4B3B
:1049F0009A6A12F4806F9A6A18BF1A20D2050CD4F2
:104A00009B6A13F4005F18BF1C20054A936A43F4A5
:104A10007F43936200230B7010BD1B20F5E700BF9E
:104A200000ED00E010B51C4B0246986A9C6A10F03D
:104A3000100F14BF1120102014F0080F9C6A18BF2B
:104A40001220A40709D5586B986A000604D51AB13C
:104A50009A6A22F080029A6213200F4B9A6A12F02F
:104A6000010F9A6A18BF142012F0200F9A6A18BF1B
:104A70001520D40658BF9B6A074B9A6A920642BF1C
:104A80005A6A22F400525A629A6A42F0FF029A620B
:104A900000230B7010BD00BF00ED00E0F0B5474BE8
:104AA00004465B6800258BB0C3F3080385F31188C7
:104AB000BFF36F8F02F07F40B0F17F4F11D102F052
:104AC0000C0008280DD010074CBF0C460125002211
:104AD000033B8DF80720032B05D8DFE803F02462A1
:104AE000665F2C46F3E700239DF80720CAB902AEA3
:104AF00004F12007324620686168083403C2BC42D2
:104B00001646F7D1099A002D53D0C2F3080121B9F6
:104B10006FEA52226FEA42220992184602A908F06F
:104B20006FFB0BB0F0BD254BDA6A9107DBD4DA6A74
:104B3000002AD8DBDA6A5200D5D55A69A16942F455
:104B400080725A61BFF34F8FBFF36F8F5A6931F88C
:104B5000021C22F480725A61BFF34F8FBFF36F8F34
:104B60004DF60272914209D09A6AD2B242B1012046
:104B70000DF10701FFF756FF0346B5E72368B3E7DA
:104B80009A6A12F47F4F05D001200DF10701FFF75B
:104B900013FFF1E79B6AB3F5803FA4D3FFF7DEFE76
:104BA000EAE700200DF10701E4E700200DF107011D
:104BB000EDE722F4FF7222F00102ADE700ED00E024
:104BC000064B5A6942F010025A615A6942F48062F7
:104BD0005A615A6922F008025A61704700ED00E0FC
:104BE000EFF30880EFF3098101B57246FFF756FF36
:104BF00001BD00BF002080F31488BFF36F8F002039
:104C000080F30A8880F30B88124880F3088801F04B
:104C100075FE002010490860BFF34F8F00F032F896
:104C2000202080F311880D484FF0AA014FF4006254
:104C300009F060FF09484FF40061401880F30988CB
:104C4000EFF314800221084380F31488BFF36F8FC1
:104C500000F0E0F87044002094ED00E0302D0020DA
:104C6000002318460649D1F89020C2F30722934248
:104C700000DB7047C1F89830C1F8A0000133F6E7B7
:104C800000ED00E010B572B6002484F31388FFF73E
:104C9000E7FF23464FF0FF300C4A03F120010133B8
:104CA000102B42F82100F8D100234FF0FF30074AC3
:104CB00003F160010133102B42F82100F8D162B6F4
:104CC000BFF34F8FBFF36F8F10BD00BF00E100E057
:104CD000084B9B6883420BD1EFF3058343B1064B2E
:104CE0005A6842F080525A605A6A22F400425A626C
:104CF00004F08ABD601C002000ED00E017498A68BE
:104D00004FF030001044EFF3098C80E8F01F2020B2
:104D100080F31288BFF36F8F114F4FF000664A691E
:104D20008A603E604FF0B804141920680D4C206072
:104D3000D2F8BC000023C2F8BC3080F3118802F125
:104D4000300090E8F01F8CF3098802F1000004B5F0
:104D500008F07CFABDE8044070470000601C0020A9
:104D600004ED00E0041A00201EF0040F0CBFEFF366
:104D70000880EFF30980816911F8021C0229FFD035
:104D800001B5724608F042FA01BD00BF0028ACBF71
:104D900000F16040064B4FEA4111C9B2ABBF00F5CC
:104DA000614000F00F0080F800131954704700BFF5
:104DB00014ED00E000B2002807DB01234109034A9B
:104DC00000F01F00834042F82130704700E100E00E
:104DD00000B200280CDB01220649430900F01F0045
:104DE0008240203341F82320BFF34F8FBFF36F8FF2
:104DF000704700BF00E100E0054B420953F8222054
:104E0000012300F01F0003FA00F01040704700BFBC
:104E100000E100E00B4A08B50B4B22F07F029A60DC
:104E2000BFF34F8FBFF36F8FD3F8882022F4700247
:104E3000C3F8882003F03EFE04F052FE00F04AF86A
:104E400003F07CFE0000000000ED00E042F8203C92
:104E5000009B0B4942F81C3C019B21F0010142F8E8
:104E6000183C029B42F8081C42F8143C4FF0807337
:104E700042F8043C0023203A0265C0F8BC30704779
:104E8000E126000000B50C4B15469860D0F8B8201C
:104E90000A4B0E461A60D0F8A83083F30B882C46D4
:104EA00086F309880020064B9847204600210022FF
:104EB0000023044C204700BF601C0020041A00207F
:104EC00057D20000E12600001022014B1A61704702
:104ED00000ED00E00023202040F20F1210B5044C3A
:104EE000E1180133934281F80003F9D110BD00BFEE
:104EF00000E100E008B5EFF30583064A103B02EB42
:104F0000C30152F8330049688847BDE80840FFF7FD
:104F100011BD00BF880400201FB5094C094A234673
:104F20000121094800F0FAF800230393074B0121FF
:104F3000E41A01A80193029400F0FAF804B010BD3D
:104F400000F0022000000020180B0100A00D00203E
:104F500010B50C7A0B6804F01F0223F01F031A43EC
:104F6000CB68640923F01F03054943EA440343F077
:104F70000103C1F89800C1F89C20C1F8A03010BD11
:104F800000ED00E010B5074BD3F89030C3F30723D2
:104F9000013B984202D8FFF7DBFF10BD6FF0150010
:104FA000FBE700BF00ED00E02DE9F04F0F4614468F
:104FB00006464FF000084D4D85B0B84580F292800E
:104FC000D6F80490B9F1000F36D0B9F11F0F40F2B6
:104FD000878019F01F0F40F08380D6F800A01AF0E8
:104FE0001F0F7DD1504608F059F9834609EB0A009E
:104FF000013808F053F9834572D11BF1160F6FD0B9
:105000005C456DDDC5F898B0D5F89C10C5F898B032
:10501000D5F8A03021F01F0143F01F0AD6E9003275
:105020001A44994202F1FF391ED1CA4508D13146CE
:105030005FFA8BF008F03BF908F101080C36BCE789
:105040003146C5F898B0D5F89C3022F01F0203F025
:105050001F031343C5F89C30E0B208F028F910F1A3
:10506000160F3DD0441CE7E7C5F898B0D5F8A0204E
:10507000013B23F01F0302F01F021343CA453146D0
:10508000E0B2C5F8A030E8D008F011F910F1160F21
:1050900026D0C5F898B0D5F89C209DF808300AF1C4
:1050A000FF3A62F304038DF80830D5F8A0309DF87C
:1050B00008205B0863F347128DF80820D6E9003218
:1050C0001344009323F01F035344A3EB090301305F
:1050D00023F01F036946C0B20393FFF753FFBEE7F7
:1050E0006FF01504204605B0BDE8F08F00ED00E03C
:1050F0000522044BC3F89420BFF34F8FBFF36F8F8B
:10510000704700BF00ED00E0BFF35F8F0022024B4D
:10511000C3F89420704700BF00ED00E010B5034CC9
:105120002278FFF741FF207010BD00BFC52400208A
:105130002DE9F74F294D8A4606464FF00008AB4649
:10514000274FD0451BDAD6F80490B9F1000F3FD0B5
:1051500031680846019108F0A1F80199044609EB6D
:105160000100013808F09AF884424FF014021D4BF8
:1051700008D002FB08F36FF015024BF8032003B0D0
:10518000BDE8F08F14F1160F2C60F8D01978A14209
:10519000F5DD02FB08B0C7F89840C7F89840D7F88B
:1051A0009C4000F10801007B64F304000871D7F80B
:1051B000A0000C79400860F347140C71D7F89C10DC
:1051C00021F01F016960D7F8A01021F01F012961AB
:1051D00008F1010814350C36B3E700BF081A0020A7
:1051E00000ED00E0C5240020F0B54149414CD1F864
:1051F00090302568C3F307239D4287B075D80020FF
:10520000FFF782FF3C4BC1F8C030854216D13B4CC2
:1052100001A82570FDF78CFB00250646384FAE42ED
:1052200013D1002023783249D1F89020C2F307220D
:10523000934254DBFFF75CFF00202FE0616801EB35
:105240000011FFF785FE0130DFE70199280101EB2E
:105250000513DA683A40B2F5001F21D0B2F5800F8D
:105260002BD0B2F5801F38D15A689B680958013B92
:1052700022F01F0003440120844623F01F0340EA6C
:105280004C10CDE902218DF8100002A92078059379
:10529000FFF778FE00281DDA6FF0150007B0F0BDAB
:1052A0005A689B680958013B22F01F0003444FF0E5
:1052B000020C012023F01F03E1E75A689B6809589C
:1052C000013B22F01F0003444FF0000C062023F0A6
:1052D0001F03D4E723780133237001359FE7C1F81A
:1052E0009830C1F8A00001339EE74FF0FF30D5E7BA
:1052F00000ED00E0240B0100AAFF4400C5240020BB
:105300000000F0FFF0B587B007460E4614460021B6
:10531000102268461D460AF05EF902238DF802301D
:10532000054B2A4621466846CDE90476019305F0EF
:1053300061FC07B0F0BD00BFE1D2000008B5024B30
:105340001B689847002008BD1C1A0020034B044A24
:105350001860937843F00203937070471C1A002082
:105360008800002008B50649064821F00701C1F170
:10537000005202F53C3206F0C0FC002008BD00BF20
:10538000774A0020201A002008B500F0B7F8012263
:1053900000230949C0E9002241610849C0E90233FC
:1053A0000A60074903610A60064A1360064A1360EF
:1053B000064A136008BD00BF90360100B40000200B
:1053C000B0000020341A0020301A00202C1A0020CF
:1053D0002DE9F04107460E46154600F08FF8C368E8
:1053E00004461BB943691A78002A41D10023E360BF
:1053F0006368BB4256F8232008DB324B63612046CA
:1054000000F062F84FF0FF30BDE8F081511C61619F
:1054100092F80080B8F12D0FEFD1911C61615178A5
:105420002D29A16004D192786AB901336360E4E761
:1054300049B9244B4146284663610AF0E8F8002840
:10544000DDD0C4F80880D4F80880284641460AF028
:10545000DEF8B8F13A0F636900D070B91B7813B960
:10546000636801336360204600F02EF83F20CBE7ED
:105470005A1C42611B788360E5E742783A2A0BD0D8
:10548000002222611B7813B96368013363602046F0
:1054900000F01AF8A068B7E718786268094928B9D7
:1054A00001329742626004DD56F82230C4E90431CB
:1054B000EAE761612D7820463A2DD5D100F004F855
:1054C0002846A1E7903601000268074B1A6042683F
:1054D000064B1A608268064B1A60C268054B1A6058
:1054E0000269054B1A607047B4000020B00000202C
:1054F000341A0020301A00202C1A0020004870476F
:105500009800002008B5284A284B1A6000F086F859
:1055100041F6F8732648D0F82416C1F3080203EACE
:105520005133142182F48072883201FB0233214A04
:10553000590ADB0548BF0131C2F80419D0F82036FA
:105540004FF47A60C3F30801C3F30943434342F6BF
:10555000041081F4807101F2172100FB01334FF434
:105560007A701B0AB3FBF0F100FB1133B3F5FA7F3D
:1055700028BF01310E4BC2F81C17D3F840131C2969
:105580000CD1D3F84433012B08D13423C2F824368C
:10559000D2F83C3623F40023C2F83C360122054BF6
:1055A0000020C3F8002608BD0020A1074C01002000
:1055B00000C0FF000000125048B1054B054A1B68AF
:1055C000B3FBF2F35843044B43F001031847704711
:1055D0004C01002040420F0010000100F7B50646C4
:1055E0000D460D488AB2836831461B6898470028EB
:1055F00010DA00240CE02F1B042F28BF042708F02A
:10560000DDFF3A46019001A9301909F0BDFF3C4485
:10561000A542F0D803B0F0BD88FB00000122024B88
:10562000C3F80424704700BF002008E0084B70B5A1
:10563000C31A0D4607499B100446594340220648A9
:1056400007F08BFF2B4601462046BDE87040184707
:105650004C1A0020B76DDBB618FB0000402373B571
:105660000B4C0093041B0B460D460A49A4106143E2
:105670000646094A094807F09CFF011E05DA304634
:105680002B4602B0BDE87040184702B070BD00BFA5
:105690004C1A0020B76DDBB61DD6000018FB0000C9
:1056A00010B5EFF31184202383F31288BFF36F8FBB
:1056B000074A136823F00201DB07116002D40120BE
:1056C00008F0A5FF84F31188BFF36F8F10BD00BFF2
:1056D0009C1A002070B500220121044640F20510FA
:1056E00007F09FFD0F4801F02DFA0F4B984215D19E
:1056F00001F038FA26690D49304606F099FB00287A
:105700000BDB012535642469084904F11C0006F00F
:105710008FFB002801DB0020E56470BD6FF0040002
:10572000FBE700BF41D600000000AD0B4C0B0100B1
:105730007FB500220123CDE9022304ABCDE9043378
:10574000094A6B46CDF800D0CDF804D007F05FFFD2
:10575000002805DB43F609520023684603F056FB98
:1057600007B05DF804FB00BF3BD600000C22104BD5
:10577000014602FB0033002030B4D3E90E52986397
:10578000EFF31180202484F31288BFF36F8F1C6C19
:1057900004F0C00444F002041C6480F31188BFF3D9
:1057A0006F8F1DB12B4630BC0248184730BC704784
:1057B0004C1A002018FB000010B4EFF311822023D4
:1057C00083F31288BFF36F8F1648016841F002041B
:1057D0000460C80707D482F31188BFF36F8F0120DC
:1057E00010BC01F0DBB91049D1F80C14C903F2D593
:1057F000EFF3118083F31288BFF36F8F0B490B6CAB
:1058000003F0C00343F002030B6480F31188BFF37D
:105810006F8F82F31188BFF36F8F002010BCFFF7EA
:10582000A5BF00BF9C1A002000E010504C1A0020B9
:10583000C3B21C20014A03FB002070474C1A002011
:105840002DE9F041012207463449D1E8EF3FC1E894
:10585000E02F0028F9D133B9314932484B60CB6091
:105860008A6006F0F8FA7B1E012B28D8012F06D19A
:105870002D4BD3F8503403F00303012B1FD009F054
:10588000CAF90546E8B9294B1B78D3B1042206466C
:10589000254BC3F80823244CDFF89480D4F84C241B
:1058A000D4F84C34D20315D503F00303012B01D0F7
:1058B000012F0FD165B386F31188BFF36F8FBDE859
:1058C000F081EFF31186202383F31288BFF36F8FEB
:1058D0000125E0E7BDB1304607F0D1FCD4F84034F3
:1058E00013F0FF03DAD1D4F80821002AD6D0C4F887
:1058F0000831D4F8083120220123C4F84034C8F814
:10590000A0212361CAE70021202009F03CFAE5E745
:105910000422054BC3F80423D1E700BF481A002036
:10592000381A0020681A002000E010502C250020B2
:1059300000E100E00146024883685B68184700BF49
:10594000C0FB000008B5074809F0A6F838B10648C2
:10595000FFF7FCFC0448FCF7A5FE002008BD6FF033
:105960001200FBE7C0FB000055D6000038B54568C3
:105970002B69E3B11035284601F0D8FD0446B0B9D3
:105980000146284601F094FD0B4B984211D1224666
:1059900028460A4901F060FD22460121DB2007F07C
:1059A00040FC2246012140F20D1007F03AFC002095
:1059B00038BD6FF00400FBE70000AD0B455B000055
:1059C0002DE9F04340F206354668D00648BF032073
:1059D000337B02EA050558BFC2F3401087B001F0DF
:1059E0001F07B5F5837F144647EA43178DF8030078
:1059F00046D00FD8062D45D007D8B5B1022D14D00A
:105A00006FF0150007B0BDE8F083B5F5807FF7D1E2
:105A100001250AE040F20222954235D0B5F5407FDB
:105A200034D0B5F5007FEBD104250123220303FA1E
:105A300001F12DD573685960326972BB5F2F07F091
:105A40001F034FEA571175D83C4A52F8212084F4BD
:105A5000803102EB8302D2F88030C1F30041C4F3FD
:105A6000404423F4706344EA410423F00F031C43D1
:105A700044EA800444EA0524C2F880400020C1E7DB
:105A80000925D2E70825D0E70625CEE70525CCE78E
:105A9000630344BF73689960CEE7103639463046D9
:105AA0000DF1020201F0E6FC14F4403F80460CD1F7
:105AB0003946304608F070FE214B9845DED130461D
:105AC0009DF8021001F040FDD8E74FF0000901AB4E
:105AD0003946304603AACDE90439CDE90199CDF81C
:105AE0000C9001F02FFB164B984289D114F400332F
:105AF00015D09DF8033084F48034C4F300448DF84D
:105B00000E3039464B46304603AA8DF80C508DF8BE
:105B10000D4001F00DFC0A4B9842CDD070E7CDE965
:105B2000043339460DF10303304603AA039301F011
:105B300009FBF0E7203352F82330FFDE980B010019
:105B40000000AD0B4209022A034670B503D0012ABA
:105B500018D0CAB170BD0E4E326951680029F9D013
:105B6000012503F01F030C689D400029F2D08A68CC
:105B70002A4002D030464B6898473CB12368214602
:105B80001C46F2E7034EE7E7034EE5E72346F6E758
:105B90006CFB000050FB000034FB0000F0B54068D7
:105BA00001F01F04057B87B044EA45140569002D08
:105BB00063D0B2F5001F00F1100506D1214628463A
:105BC00008F0ECFD002007B0F0BD0027B2F5800F13
:105BD00001AE019777603BD1B3F1007F14BF05237D
:105BE00004238DF804300023CDE904630393836814
:105BF00023FA01F111F001011CD1B2F1A07F19D1FA
:105C000004F01F035F2C4FEA541003F120033AD82D
:105C10001E4A52F8202052F82330DB070AD40DF137
:105C2000030632462146284601F024FC184B9842D0
:105C300019D002962146284603AA01F083FA154B93
:105C400098421DD101222146284601F095FCB9E772
:105C5000B3F1C06F05D0B3F1007F14BF012302235D
:105C6000BFE70323BDE73146284601F079FC094B25
:105C70009842DED06FF00B00A5E76FF08500A2E739
:105C80006FF015009FE751F82330FFDE980B0100FD
:105C90000400AD0B0000AD0B10B50B4C204608F016
:105CA000FBFE68B12269A1681368204623F0020355
:105CB00013600B6800220121984700EAE07010BDD4
:105CC0006FF01200FBE700BF34FB000002780B69A5
:105CD000012A08D0022A08D04AB9064A1A6303F1F9
:105CE000180003F05FB8044AF8E7044AF6E7044AEC
:105CF000F4E700BF0000AD0B0100AE0B0200AE0BDD
:105D00000100AD0B2DE9F04F87B004934368D0F844
:105D100010B0D3F828809B8B174603934FF0FF32C7
:105D20004FF0FF3305460C4607F0DEFD0BF118037C
:105D300002930026002300220BF1180003F066F8FE
:105D40003346BE4201D300234DE0207A010776D4CA
:105D50000136BE4221680BD2820709D4227D80EA37
:105D6000020C0CF0010C02F004025CEA020C08D0F8
:105D700023B901F06042B2F1005F1AD04FF0000980
:105D800001E04FF001096268DDF80CE003EB020C62
:105D9000F44557D8C00705D408EB0300059309F074
:105DA000F3FB059B62681A4493B2B9F1000F2FD13F
:105DB00013BB4FF00009D4F800A0A388049A217AFD
:105DC00028460092524600F06DF8031E0BDB43F6A6
:105DD00009520023029803F019F880B1284600F018
:105DE00037F86FF004032846029307F080FD029B0A
:105DF000184607B0BDE8F08F9946C246DEE7DBF8EB
:105E00003030124A9342ECD1237ADB0702D40023CC
:105E10000C3496E7C245FAD1A24609E0A9EB02018B
:105E20001FFA81F9DAF80C0018FA81F109F0ACFBDD
:105E3000DAF80420AAF10C0A9145EFD2E7E76FF0F7
:105E40008503D0E76FF01B03CDE700BF0000AD0B6B
:105E500073B544680DF107012368D3F80056D3F8F1
:105E6000046606F01FF99DF8073013B9204602F0CA
:105E7000C3F83146284602F09FFA9DF80710054600
:105E800029B9606A07F036FD204602F0A5F8044BF8
:105E90009D4214BF6FF00F00002002B070BD00BF24
:105EA0000000AD0BF0B50C461D46164687B047689E
:105EB000122200210DF1060009F08DFB04F0010310
:105EC0008DF80430BDF8303002958DF80530BB8D6B
:105ED0000496AB4214D384F00202C2F34002384667
