:10000000C0240020E94C0000F3C60000D54C0000DD
:10001000D54C0000D54C0000D54C0000D54C00005C
:10002000000000000000000000000000D14D0000B2
:10003000D54C000000000000754D0000D54C0000BC
:10004000454F0000454F0000454F0000454F000060
:10005000454F0000454F0000454F0000454F000050
:10006000454F0000454F0000454F0000454F000040
:10007000454F0000454F0000454F0000454F000030
:100480007BB972B90029BEBF00204FF0004106E0E1
:1004900008BF00281CBF6FF000414FF0FF3000F094
:1004A000BBB9ADF1080C6DE904CE002909DB002BC6
:1004B0001ADB00F04DF8DDF804E0DDE9022304B0BA
:1004C0007047404261EB4101002B1BDB00F040F81C
:1004D000DDF804E0DDE9022304B0404261EB4101B4
:1004E000524263EB43037047524263EB430300F015
:1004F0002FF8DDF804E0DDE9022304B0404261EBAF
:1005000041017047524263EB430300F021F8DDF8EC
:1005100004E0DDE9022304B0524263EB4303704779
:1005200053B94AB9002908BF00281CBF4FF0FF315A
:100530004FF0FF3000F070B9ADF1080C6DE904CE5A
:1005400000F006F8DDF804E0DDE9022304B07047AE
:100550002DE9F04F099E04468946002B40F0838028
:100560008A42154645D9B2FA82F24AB1C2F1200751
:1005700001FA02F39540944020FA07F747EA03098D
:100580004FEA154E230C1FFA85F8B9FBFEFC0EFB53
:100590001C990CFB08F143EA094399420AD9EB186C
:1005A0002CBF01200020994202D9002800F01D81B3
:1005B0000CF1FF3C591AA3B2B1FBFEF00EFB101177
:1005C00000FB08F843EA0144A04505D92C1902D2E2
:1005D000A04500F20E810138A4EB080440EA0C406B
:1005E00000271EB1D4400023C6E900433946BDE8C8
:1005F000F08F002A51D0B2FA82F2002A40F0AF8088
:10060000491B4FEA154E1FFA85F80127230CB1FB51
:10061000FEFC0EFB1C1108FB0CF043EA0143984260
:100620000AD9EB182CBF01210021984202D90029D8
:1006300000F0D7800CF1FF3C191AA3B2B1FBFEF019
:100640000EFB101108FB00F843EA0144A04505D950
:100650002C1902D2A04500F2C1800138A4EB080495
:1006600040EA0C40BDE78B4208D9002E74D0002729
:10067000C6E9000138463946BDE8F08FB3FA83F782
:1006800067B98B42C0F0A480824240F2A180384614
:10069000002EABD0C6E90049A8E7FFDEC7F1200570
:1006A000BB4002FA07FC01FA07F4EA4020FA05F819
:1006B000E94000FA07FE1A4348EA04044FEA1248E8
:1006C000200C1FFA82F9B1FBF8FA08FB1A110AFB99
:1006D00009FB40EA01418B450AD951182CBF01237F
:1006E00000238B4502D9002B00F088800AF1FF3AE5
:1006F000A1EB0B01A4B2B1FBF8F008FB101100FB59
:1007000009F944EA0141894504D9511801D28945C2
:100710007BD8013840EA0A40A1EB0901A0FB0C8913
:10072000494544464B4602D306D1C64504D201385A
:10073000B8EB0C0469EB0203002E5DD0BEEB0402A3
:1007400061EB030101FA05F522FA07F3F9400027EE
:100750001D43C6E9005149E73746304646E7C2F136
:100760002000954001FA02F721FA00F34FEA154EF6
:1007700024FA00F11FFA85F894403943B3FBFEF0E8
:100780000F0C0EFB103300FB08FC47EA03439C45AB
:1007900007D9EB182CBF012700279C4500D98FB340
:1007A0000138A3EB0C0389B2B3FBFEF70EFB173342
:1007B00007FB08FC41EA03418C4504D9691801D2C2
:1007C0008C4525D8013FA1EB0C0147EA00471DE706
:1007D000841A61EB03030120994659E702382C443F
:1007E0003CE7ACF1020C2B4426E7ACF1020C2B44A5
:1007F000E0E602382C44EFE63746F7E6AAF1020AB3
:10080000114475E702382B44CBE70238114481E7E5
:10081000023F2944D7E700BF704700BF10F8012B03
:1008200011F8013B012A28BF9A42F7D0D01A70472D
:10083000034611F8012B03F8012B002AF9D1704768
:10084000034613F8012B002AFBD1181A0138704710
:100850002DE9F04782468AB00F4616460DF088FC17
:100860004FF47A73A0FB034503FB0155204629464C
:1008700047F612220023FFF753FE012F04460D46D0
:1008800007D102460B46504635490AF037FF002093
:1008900011E0766833483146FFF7C0FF70B131464A
:1008A0003148FFF7BBFF48B1504632462F490AF0A6
:1008B00041FF6FF004000AB0BDE8F087204626A390
:1008C000D3E900232946FFF7DBFDCDE90823DDE965
:1008D0000801274A0023FFF7D3FD16461F4630467E
:1008E00039464EF660220023FFF7CAFD20469046A7
:1008F000994619A3D3E900232946FFF7C1FD4FF418
:100900007A7204460D46404649460023FFF7B8FD7B
:100910004046CDE9062349464FF47A720023FFF79B
:10092000AFFD4EF66022CDE9040100233046394682
:10093000FFF7A6FD0E4ACDE90201DDE9080100231B
:10094000FFF79EFD2246CDE900012B46094950469E
:100950000AF0D4FE9BE700BF005C26050000000003
:100960008D0701009E070100A1070100AA070100F1
:1009700080EE3600C207010008B50748036803F09F
:100980000703022B03D9054A03210AF04CFC4FF45C
:10099000FA72034B1A6008BDE00200204E0301000A
:1009A0000000002008B50948036803F00703022B84
:1009B00003D9074A03210AF036FC40F635400021EE
:1009C0000DF057FB002000F069FD00BFE0020020A1
:1009D0002C03010012F0020F2DE9F041904611D0D6
:1009E0000DF0C6FB4FF47A73A0FB036703FB01779E
:1009F00047F61222002330463946FFF791FD1C4B83
:100A0000C3E9000118F0040F26D00DF0B1FB4FF43C
:100A10007A73A0FB036703FB017747F612220023DA
:100A200030463946FFF77CFD114AD2E90032C41A3C
:100A300061EB0205B4F57A7F75F100030EDA0D481B
:100A4000036803F00703022B03D90B4A03210AF0C2
:100A5000EAFB6422094B1A60BDE8F081B4F5FA6F35
:100A600075F10003F8DABDE8F041FFF785BF00BF7C
:100A700020030020E00200205B03010000000020B2
:100A80002DE9F84300AF9B4D9B4C28460DF0B5F97E
:100A9000A9460346C8B92268560712D029686D4690
:100AA00088B06A469548C2E905014FF40071918308
:100AB000934942F8101F4FF4E251204601F05AF9D1
:100AC000AD460020BD46BDE8F88300218D4A28468A
:100AD00009F048FE0146A8B123685807F1D02B68F9
:100AE0006D468AB06A468848D361C2E9050140F282
:100AF0000131002391848549136242F8101F4FF49D
:100B00003151DAE7AE68D6F81880B8F1000F30D06E
:100B10002B694FF0A0721B68284613F0010F14BF19
:100B20004FF000734FF08063C04720BB012278492B
:100B3000784B8A604B60F3690BB128469847764D35
:100B400028460DF05AF92E46034678BB2268520714
:100B5000B7D06C4688B029686A467048C2E905017A
:100B60004FF400719183664942F8101F4FF4E2512F
:100B700017E06FF0570023685907A2D06C468AB07F
:100B8000D9F800306A466649D361C2E9051040F2DF
:100B90000131002391845D49136242F8101F4FF424
:100BA0003151554801F0E6F8A5468AE74FF4003286
:100BB0000621284609F0D6FD0028236811DA5E07D1
:100BC0003FF47FAF6C4688B02B686A465549C2E94E
:100BD00005134FF400739383494B42F8103F0023F1
:100BE000C4E703F00703022B15D92B686D468AB0C2
:100BF0006A464D49C2E905130623D3614FF40073D9
:100C000013844A4B42F8103F00234FF413513A48E3
:100C100001F0B0F8AD4646480DF0EFF848B923684A
:100C20005C073FF44EAF434A012133480AF0FBFA18
:100C300047E741480DF0E1F828B9236858073FF429
:100C400040AF3E4AF0E73E493E4B39484B600623F1
:100C50008B6005F0B5FD0028236804DA59073FF4DE
:100C600030AF394AE0E703F00703022B04D9374AD3
:100C7000032121480AF0D7FA354DDFF8BC80DFF8B0
:100C8000DC902B78DBB100232B70236803F0070383
:100C9000022B04D92F4A032117480AF0C4FAD8F8C6
:100CA00008305B681BB340469847031E07DA22688A
:100CB000520704D001214A460F480AF0BDFAB36832
:100CC00040215B691448984747F6122E40F2E730FE
:100CD0000021214B4FF47A721B6823EAE37CCEFBA0
:100CE0000C010023FFF71CFC0DF0C3F9C9E76FF0FE
:100CF0005703DCE730EA0000E00200206703010050
:100D000003000001110001008C0301000500000137
:100D1000D80E0020A509000014EA0000E903010034
:100D2000B40301000C0401003604010004000001BA
:100D300048EB00004E04010064EB00006C0401006D
:100D4000E40E0020D50900008F040100BB0401005F
:100D50002C150020CA04010000000020D704010067
:100D60002DE9F04F1F4691B002F004030193C2F346
:100D7000C20301330593830705460E460392DDF84F
:100D800068B040F08F81041D002840F08E8101F092
:100D900007063444C6F108064FF0000A4FF0FF3250
:100DA000D1464FF004087B1ECDF808A0CDF810A066
:100DB00005B127600598002807DC88488742C0F005
:100DC000AA808748874280F0A680039911F0020E1E
:100DD00000F0C1804FF0010C601BBEF1000F00F06D
:100DE000A080B0F5007FC0F09C806FF0150058E047
:100DF00020385A2834D8DFE800F0603333603332CB
:100E000033333333706033606033606060606060E0
:100E100060606060333333333333334433333344CC
:100E20004444333333336033333333333333333343
:100E30003333363333333333333333443336364457
:100E4000444460365E3360332E362E3333866D363F
:100E5000333336336D0000204FF0000A0EE0013AC4
:100E60004FF0000A29E013F8010C6C284DD113F85B
:100E7000020C6C284FF00000824649D04FF0040865
:100E80002CE00CF1070B2BF0070B07340BF1080CCF
:100E900024F0070465B106982044B04204D96FF0ED
:100EA0001B0011B0BDE8F08FDBE900ABC4E900AB7B
:100EB0004FF0000A08344FF0080813F8010F00281B
:100EC00000F08280BAF1000F92D12528F5D14FF0C1
:100ED000010A01324FF00408EFE70020013C4444CE
:100EE000B4FBF8F408FB04F425B1A8EB050EA64406
:100EF000B645D4D800284AD0E34605985BF8047B71
:100F00000138059054E75046A6E700208246E5E701
:100F10004FF00808E2E703994FF0000C01F0020ED1
:100F20005AE7B9F10F0F3FF660AFF5B110A901EB29
:100F3000090EC0F387000EF8200C0EF8102CBCF13F
:100F4000000F0ED060F07F000EF8200C02980130E8
:100F5000029009F10109C5F108000434DC4606904D
:100F6000ABE7049801300490F3E7BCF1000F01D027
:100F70000136EEE7019802360028EAD13846CDE97D
:100F80000623FFF75DFCDDE906230644E1E7B8F13F
:100F9000040F08D10CF1040115B1DCF80000206049
:100FA00004348C4689E7B8F1080F7FF41EAF0CF1CA
:100FB000070B2BF0070B0BF1080C1DB1DBE900014F
:100FC000C4E90001083478E7631BB3F5806FBFF410
:100FD0000CAF3DB9A6F10804E01862E714E900007F
:100FE00028260100019A9B0828602B709DF810307C
:100FF0008AB16870EB70029BAB702BB1002208A91C
:10100000C5F10100914509D14FF00008C5F1010A71
:101010000DF1300B35E06B70019BEBE711F8013BF4
:1010200013F0800F08D000EB040CB44503F07F03ED
:101030003FF635AF04F8013B0132E3E7029B23B1F1
:1010400008AB13F90830002B19DB019BEBB118F842
:101050000B3004F8013B00230AEB04021A44B242AD
:101060003FF61DAF08AA12F80820394604F8012BF4
:1010700020461A4603930DF0CDF9039B1C4408F15A
:101080000108C145DAD1601B0BE708AB13F8083043
:10109000019A55F8237045F823203846FFF7D0FB16
:1010A000431CD9E76FF00D00FBE607293FF674AE4D
:1010B000F5E600BF2DE9F04F97B000AF7B62D7F89F
:1010C00080300546C3F3C003FA623B6290F802B079
:1010D000B96249B98846047846780BEB8404044425
:1010E00046451CD8631BBB62BBF1000F20D0D7F86C
:1010F000803003F00104EB78FB611BB1D7F880303E
:10110000980717D4B4B9FB6A1BB1D7E9092128465F
:101110009847BE6A30465C37BD46BDE8F08F013463
:101120002046FFF78DFB0130044408F10108D7E7A2
:101130005C46E0E72B783B619B00BB616B687B61A1
:10114000BB6905EB030AFB6A002B40F08E80BE6A88
:101150000AEB0B09002C66D0D0461C46C8454DD181
:10116000D344D7F880304FF0000A13F0050F0CBFBE
:1011700002230123DFF80893BB62FB699A45C9D2B9
:101180000BF1020B1BF8013CB94A55F8233093428E
:10119000C0F06681B74A93423A6A2CBF4FF000080C
:1011A0004FF00108002A40D07B621BF8023C7869AE
:1011B0001946FB6209F07CFB7B6A002835D0D9F820
:1011C000003013F0060F15D0E8468AB06A46AA4BE5
:1011D00053617B699361FB6AD3614FF4007313849D
:1011E000A64B42F8103F00234FF41251484600F03E
:1011F000C1FDC546023E0AF1010ABEE718F8013BEF
:1012000055F82300FFF71CFBD7F88430013043B1B9
:10121000D7F888309C423EBFD7F8843023F81400BA
:10122000013406449AE7CB469BE7B8F1000F06D09D
:10123000D7F88020D10706D4BB6AF61ADBE7D7F8C7
:1012400080209207D7D51846FFF7FAFAD7F88430EE
:101250004BB1D7F888309C423FBFD7F88420431C5D
:1012600022F8143001340644C5E7002C40F0EA802F
:10127000BBF1000F5ED0D7F88030580700F1EC804A
:10128000A0460022DA440AF10203F9698A4254D3E3
:10129000D7F880204FEA41096E78D7F8801092077E
:1012A0000AEB09033B6258BF4FEA580204EB0603FE
:1012B00048BF0022C807DBB200F18D8011F0040F97
:1012C00014BF414600216B70A970EA70B9697A6A4F
:1012D0002846FB6A9847B0F1000AC0F2AF803B692C
:1012E0006E702B70FB6985F802B0EB707A6A41462C
:1012F00007F14800FB6A9847061EFFF60BAFBB6973
:10130000386A4B4403EB0B01D7E90923591AFB6AEE
:1013100098470028C0F294804FF0000B56440644D2
:1013200007F1380AA34558D300217A6A0846FB6AB8
:101330009847EFE6D8465C46A3E713F8016C4C48A3
:1013400055F8261013F8029C814203D34948814284
:10135000C0F09880396A41B30021F9607869494644
:10136000C7E9013209F0A4FAD7E90132D0B9F96826
:10137000D9B1D7F88010C90707D507F15800611C0B
:10138000044404F8206CCCB20CE0D7F88010480775
:1013900008D507F1580008F10101804408F8106CE5
:1013A0005FFA81F8013202336FE7D7F880108907BE
:1013B000E3D407F15800404408F1010100F8109C03
:1013C00007F1580008F1020850FA81F15FFA88F835
:1013D00001F8106CE6E7002175E71BF80A3087F882
:1013E000373055F82390D7F8843023B3D7F88830B6
:1013F0009B4520D2D7F8843033F81B807A6A0121CC
:1014000007F13700FB6A9847002819DB0644B8F15A
:10141000000F05D14846FFF713FA01301FFA80F894
:101420007A6A41464846FB6A9847002808DB06442A
:101430000BF1010B76E74FF00008DFE7564669E64F
:10144000064667E65C464FF0000807F138005A464A
:1014500051460CF0DFFF14E7D84607F14800F6E7E5
:101460003A6A002A3FF4EBAE4FF000089CE600BF5A
:1014700014E9000028260100050501000400000110
:10148000BC020020396A00293FF473AF396A64E76F
:10149000014B1860704700BF0400002008B5EFF34F
:1014A0001183202383F31288BFF36F8F03F03AFC7C
:1014B000024809F01CFA0BF037F9FCE7B905010006
:1014C0002DE9F84FB0F81890044619F008080DD02F
:1014D00001290CBF49F0100949F02009A0F8189023
:1014E00082F31188BFF36F8FBDE8F88F09F0070909
:1014F000022907D1204609F085FC0028F0D00128F8
:10150000238B4AD16769238B002F15DA2568C4E93C
:10151000008823F0070343F0010323830026238B75
:1015200003F0070ACA4502D0A168002956D10DB9B7
:10153000002E6CD0002152E003F00701481F012863
:101540001CD823F00703062925689BB2C4E900884C
:1015500002D15DB943F002032383204609F052FC17
:101560000028DBD0238B43F02003D6E72946608B8D
:101570000130608309680029F9D1EBE704290AD119
:1015800023F0070399B22183204609F03BFC10B1F8
:1015900041F0200121830025C0E7032809D12169FA
:1015A00023F007030E6843F00603002523832F462C
:1015B000B5E7042806D1216923F007034E6843F0FC
:1015C0000403F2E7052806D1216923F007038E689A
:1015D00043F00503E9E700252E46E8E7012143F043
:1015E0000803238382F31188BFF36F8FF1B97DBBAA
:1015F00016B120492046B047EFF31182202383F330
:101600001288BFF36F8F238B23F008032383238B70
:10161000D90627D5012123F010032383B4F81890AD
:1016200009F0070900297FF463AF59E7A168002991
:10163000DDD0D1F80090D1F804B03B4652462046A8
:10164000D847B9F1000FD2D04946D9F80090F2E757
:10165000D5F8009029463B465246204609F0EEFB5D
:101660004D46C4E713F020011EBF23F0200323835F
:101670000221D3E769AE000030B5002289B00F49DE
:101680000F480CF077FD002200230024CDE906234B
:101690000E230C4DCDE90334CDE9014400940A4BEF
:1016A0004FF440720949284607F00EFE08492846C3
:1016B00007F05EFD204609B030BD00BFD516000022
:1016C00030070020680700200D1B0000C015002017
:1016D000E2050100014807F0A9BB00BF0403002098
:1016E0002DE9F047054607464FF00108DFF84C901A
:1016F00015B93846BDE8F08795FAA5F4B4FA84F434
:1017000008FA04F6F643240109EB040A9AF80C30AF
:101710003540002BECD059F804301B6943B94C44D8
:101720006368042219685046374009F001FDDFE77D
:10173000504698470028DBD1F1E700BF08F60000CB
:101740002DE9F84F81462448884609F0CDFC002851
:1017500039D000252846BDE8F88FA4EB0B0362685A
:101760001B1101331371237B7BB12368DB680BB141
:101770002046984763689F7123681B69DBB96368DB
:1017800004221968204609F0D3FC01361034544570
:10179000E3D3B9F1000FDDD0002DDAD02846FFF7F2
:1017A0009FFF0546B8F1000FF6D0002140F2391036
:1017B0000CF05FFCF0E7204698470028DFD007FADE
:1017C00006F31D43E1E7054C06460546A346DFF850
:1017D00010A00127DBE700BFFC0E002008F6000088
:1017E00018F6000008B530B1044B1860084600F048
:1017F00035FD002008BD6FF01500FBE70800002054
:1018000010B5044C227812B9034807F00FFB0123EE
:10181000237010BD2D1500200403002010B50446D0
:10182000094809F061FC3CB1084BD3E8EF2F013ABD
:10183000C3E8E12F0029F8D105480CF0A7FCBDE86A
:101840001040044807F0F2BAF80E0020F00E002015
:1018500030070020040300200020044BD3E8EF2FC2
:10186000C3E8E10F0029F9D110467047F80E0020B7
:1018700070B5FFF7F1FF0646074C084DAC4200D3A8
:1018800070BD63685B792BB123685B6813B1314627
:10189000204698471034F1E708F6000018F60000DB
:1018A00010B5044C0449204609F044F9034B1C6070
:1018B00010BD00BF7402002028F80000F40E0020C4
:1018C00008B50023074A08491370084A08481360FE
:1018D000084A1360FFF786FFFFF7E2FFBDE8084004
:1018E00000F070B92E15002040420F00F80E0020C5
:1018F000E5B00000F00E0020014600220023014860
:1019000009F03AB974020020014809F0D4B900BFC7
:1019100074020020024B0146186809F01DBA00BF8E
:10192000F40E0020014809F052BA00BF74020020F2
:101930002DE9F047374B1878002868D0FFF7E4FF0F
:10194000054600285FD1344B344C1B68002B1DDD4D
:101950000CF00EFC4FF47A73A0FB038903FB019992
:1019600047F61222002340464946FEF7D9FDD4E946
:101970000032C61A4FF0000361EB02074FF47A728F
:10198000BB4208BFB24201D2FFF772FFD4E9003276
:1019900013F57A7342F10002C4E90032BDE8F04762
:1019A000FFF7C0BF63685B793BB129784B0713D55C
:1019B000236829461B682046984710345445F1D3C4
:1019C0002846FFF7A7FF164BD3E8EF2F013AC3E8ED
:1019D000E12F0029B7D0F7E72846B5F80080C1F31A
:1019E000C20900F097FAC8F382180246B8F1000F56
:1019F000DED00028DCDB01234946204600F094F9C4
:101A00004045DAD3D4E7074CDFF81CA0D6E7BDE8A1
:101A1000F08700BF2D150020F80E002028070020B9
:101A2000F00E002008F6000018F6000013B5184864
:101A300009F05AFB174B1B7873B1EFF31184202385
:101A400083F31288BFF36F8FFFF772FF84F311885F
:101A5000BFF36F8F02B010BD0F4B1B68002BF9D086
:101A600050B9002200230D48CDE9002347F6122289
:101A7000002308F0D1FAEDE70928EBD107480CF074
:101A800085FB074802B0BDE8104007F0CFB900BFA2
:101A9000F00E00202E150020000F0020300700203F
:101AA0000403002010B5064B04461B6898472146E6
:101AB000A060044809F0E0F8BDE81040FFF7B6BFA9
:101AC000080000207402002070B50D4D297861B91E
:101AD0000120FFF735FE0B4C0B4EB44206D3FFF747
:101AE00027FF0028FBD101232B7070BD63685B7951
:101AF0001BB1236820469B6898471034EDE700BF70
:101B00002E15002008F6000018F6000000212DE92F
:101B1000F0470846FFF714FE044648B340F21B6640
:101B2000002707F015FF1B4B186030B11A4B1B68DC
:101B3000092B02DD194807F079F90025DFF86490D8
:101B4000DFF858A044B12046FFF7CAFD044618B993
:101B50004FF0FF364FF0FF37FFF7EAFE804628B917
:101B6000B5B932463B46504607F09AF94546E9E793
:101B70004FF0FF364FF0FF37D3E72B689B691BB15F
:101B8000002228461146984710354D45F5D3E8E721
:101B9000034DFAE7000F0020F00E002004030020A0
:101BA00008F6000018F60000044A054B9B1AB1EB3A
:101BB000D30F34BF52F831000020704770F5000099
:101BC00008F6000000210B480B4B30B51B1A0B4CDC
:101BD000DB080430994200D130BD10F8312025686F
:101BE00002F0070225F007052A4344F8042B0131CF
:101BF000F0E700BF70F5000008F60000B802002012
:101C0000F8B5074600240A4E0A4DAD1BED08AC425C
:101C100003D14FF0FF342046F8BD56F8340020B110
:101C20003946FEF7FBFD0028F5D00134EFE700BF91
:101C300070F5000008F6000000282DE9F0478846FE
:101C400015461F461DDA4FF0000A5446DFF8A490EF
:101C5000244EA6EB09063609564509F1100902D1B2
:101C60002046BDE8F08759F80C0C3B462A46414611
:101C70000079FFF7E1FF844238BF04460AF1010A08
:101C8000EAE7194B194AD21AB5EBD20F2EBF00243E
:101C900003EBC5031C7914B1BC4228BF3C460723A3
:101CA000C0B2134A00EB400003FA00F152F82530AD
:101CB00023EA010304F0070101FA00F003430321C2
:101CC000002023FA01F606F00706B04201F10301F5
:101CD00038BF30461E29F4D123F00703034342F8EE
:101CE0002530BDE718F6000070F5000008F600008A
:101CF000B802002008F60000F8B506460F4600249A
:101D0000074D084BED1AED08AC4200D3F8BD002199
:101D100022B23B463046013409F002FAA4B2F3E79E
:101D200008F6000070F5000070B14168087973B1E1
:101D3000002A17DB0C49C0B200EB400351F8220027
:101D4000D84000F0070070474FF0FF30EFE7074939
:101D50000748401AB2EBD00F3ABF01EBC201087935
:101D60001846704704207047B802002070F5000044
:101D700008F600002DE9F04F8FB0C1F34A2804AFF8
:101D8000F8609246BB600C46B8F1000F60D00025A9
:101D90000423C7E907557D6202930A2307F114065D
:101DA0000093019607F11C032A4641465046FFF76F
:101DB00081F9B0F5006FC34603461FD32948036875
:101DC00013F0060F16D06C468AB0DAF8043004AA75
:101DD0002549C2E9051340F2FF73D3614FF4007344
:101DE0001384224B42F8103F4FF412512B46FFF759
:101DF000C1FFA5462C37BD46BDE8F08FC0F30A08E9
:101E000068F3532400EB1450173020F007008008CB
:101E10007B60FFF771FD814688B17B6800F110029D
:101E2000C7E908350423FA61CDE901630A23104AA2
:101E30000093594607F11C035046FFF73BF968F33E
:101E40005324BB682246F968484609F0A4F9D1E753
:101E5000080D173020F007008008FFF74DFD814680
:101E6000EDE700BFD8020020F705010004000001E3
:101E70006BB100002DE9F04F87B08346DDE91267B2
:101E8000884692469946109C86B3102100973346A7
:101E9000119A00200597FEF763FFB0F5006F014629
:101EA00026D2002504F1170008446FF307056BF3F1
:101EB000C50520F007006AF38815800861F35325F3
:101EC0000391FFF719FD64F31F55044638B136B18D
:101ED00000973346119A03991030FEF741FF4B46A5
:101EE0002A464146204609F056F90CE03146D8E72B
:101EF0000648036813F0060F05D040F2FF73044A4A
:101F0000022109F099F907B0BDE8F08FD80200204E
:101F100036060100406820B1034BC01A40F38F0021
:101F200070474FF0FF307047B80200200EB403B581
:101F300003AB53F8042B01460448019303F020FA45
:101F400002B05DF804EB03B0704700BF9BB2000025
:101F50002DE9F04F8BB09846169B9DF8549007934F
:101F6000179B04460493189B0F4693460593199EAE
:101F7000B9F1000F00F0EC8006F00103089306F0C1
:101F80000803069306F4807306F0020A099309F029
:101F9000C5F820B1024685492046FFF7C7FF054630
:101FA000BAF1000F09D016F0440F40F0A4803A4671
:101FB0007F492046FFF7BAFF0544089B53B17D4B8C
:101FC0007D4953F829207D4B2046002A08BF1A4638
:101FD000FFF7ACFF099B002B069B18BF4FF00008D2
:101FE000002B00F0B380764B764953F82920204629
:101FF000FFF79CFF0746BBF1000F05D05A46724918
:102000002046FFF793FF0744B8F1000F05D0424682
:102010006E492046FFF78AFF07446D483D44079B01
:102020001BB122466B4908F014FC059B002B49D0DC
:10203000DFF8C481059F102F28BF1027F30606D4B0
:10204000B00640F18D8064492046FFF76FFF4FF0E6
:10205000000A554500F386804FF0000ADFF89CB176
:10206000574540F28F80049B594613F80A202046BA
:10207000FFF75CFF0AF1010ABAF1100F79D1574955
:102080002046FFF753FF4FF0000BDFF874A15F45C8
:1020900040F28680049B514613F80B202046A2F1A3
:1020A00020035F2B28BF2E22FFF740FF0BF1010B0F
:1020B000BBF1100F6BD1049B3B440493059BDB1BCE
:1020C0000593B7D1B9F1000F0FD0F10704D53B4A02
:1020D00039492046FFF72AFFF20606D4B3064CBF63
:1020E0003D493F492046FFF721FF20460BB0BDE8A0
:1020F000F04F09F0C5B83B4B186800283FF45CAFBF
:10210000394B4FF47A711B684FF4616CB7FBF3F7EE
:10211000B7FBF0F300FB13774F43B3FBFCF2B7FBC5
:10212000F0FA4FF03C0E0CFB123C00FB1A77BCFBA4
:10213000FEF34F43B7FBF0F70EFB13C1CDE901A748
:10214000009120462949FFF7F1FE35E7069F52E747
:102150001F48274B4D46B8F1010F18BF18465EE7E0
:102160001F4971E741462046FFF7E0FE0AF1010AE8
:102170006FE71AF0070F7FF473AF41462046FFF771
:10218000D5FE6DE71B492046FFF7D0FE72E71BF036
:10219000070F7FF47CAF41462046FFF7C7FE76E786
:1021A00041462046FFF7C2FE80E700BF73060100EC
:1021B000770601003CF80000C10C01006E0601002A
:1021C00050F800009C060100A2060100A6060100CE
:1021D0009BB2000081530000980A0100B80601007C
:1021E000AB060100040F0020080F0020800601004C
:1021F000C9B20000B4060100B6060100AE06010037
:10220000DF12010042F20F7373B58B4228BF0B46F9
:10221000056804460E4A0521684608F01FF8064680
:10222000636828465B680B220A4909F01BF863685B
:102230003246694628465B6809F014F863681B2239
:102240005B680549284609F00DF802B070BD00BF73
:1022500077190100D6060100BA060100012300210A
:10226000074A10B5074C1360A04204D801B11360AF
:10227000054B186010BD40085B000121F4E700BF6A
:10228000080F002040420F00040F0020014B0360A4
:102290000020704764F8000003289ABF024B53F8EF
:1022A00020000248704700BF64F80000990A01004E
:1022B00010B504460BF02EFC03490246204609F0F7
:1022C0001DFA002010BD00BF38070100F7B5134606
:1022D0000022054601920A2101AA586809F0FEFC75
:1022E000019CA4B920EAE07140F2E73647F61220DB
:1022F0000027C0FB01674FF47A720023304639464D
:10230000FEF70EF90BF0B5FE204603B0F0BD2246F5
:102310000249284609F00EFA019CF5E7640701001E
:1023200008B5034A034909F0E9F9002008BD00BFD8
:10233000540801005A080100F7B517460023054666
:1023400001AA0A21B868019309F0C8FC1749C6B26E
:10235000284609F0E1F9019C44B122461449284677
:1023600009F0E8F9019C204603B0F0BD042E09D91C
:1023700032461049284609F0DDF9284609F02CFAC2
:102380000124F0E77868FFF73BFC021E07DA7A6861
:102390000949284609F0CEF96FF01504E3E7334602
:1023A00012B22146204608F0BBFEDCE7850801009A
:1023B000EB0801001209010029090100002307B5FB
:1023C0000090694604488DF8043007F01BFC9DF826
:1023D000040003B05DF804FBB5B3000010B504467B
:1023E00004F04AFD07490246204609F087F92046D5
:1023F000054909F083F92146044807F01DFC002037
:1024000010BD00BFBB090100DA0901001124000062
:10241000F0B58FB004460D46D0F8A0600BF07AFD01
:10242000074607F095FA204B2049002F08BF1F46AA
:102430001F4A2346844208BF0A46009728461D4982
:1024400009F05CF9D4E90A232846CDE900231A49AA
:1024500094F90E30227B09F051F906A9202220467A
:1024600006F096FE636E02461449284609F046F9C6
:1024700005A920460BF05CFD024628B1104928460C
:1024800009F03CF90FB0F0BD6422059B2846F11A13
:102490004A43B2FBF6F20091CDE9016209493246A6
:1024A00009F02CF9EEE700BFE4090100E01C01008F
:1024B000B6060100E7090100F30901001F0A010047
:1024C000360A0100630A0100F0B50024054691B008
:1024D00008AF1A22144E20213846CDF83A40ADF804
:1024E0003E400BF0BFFF2946104807F0A5FB07AAA6
:1024F0004FF4006130460BF00FFD6423079A284625
:10250000C2F500614B43DB0A05934FF4006300976B
:10251000CDE90313CDE9013205492346324609F0DE
:10252000EDF8204611B0F0BD002600203525000052
:10253000B40A010070B5054688B00E46D0F8A04038
:1025400007A90BF0F5FC024628B10F49304609F007
:10255000D5F808B070BD28460BF0DCFC6423079A60
:102560000094A11A4B43B3FBF4F3CDE90343074BAB
:10257000CDE90121002818BF03462A460449304608
:1025800009F0BCF8E5E700BF360A0100E4090100E4
:10259000FD0A010038B5134605461022002158688F
:1025A0000CF042F80446FFF709FF38B922460D49FE
:1025B000284609F0BFF86FF0150038BD07F0C8F9DC
:1025C000844204D10849284609F0B4F8F3E72046CC
:1025D00006F084FF28462246044909F08FF80020BF
:1025E000EBE700BF610B01007C0B0100A40B0100B5
:1025F00038B5134605461022002158680CF014F82F
:102600000446FFF7DBFE38B922460D49284609F09B
:1026100091F86FF0150038BD07F09AF9844204D1A3
:102620000849284609F086F8F3E7204607F05EF8E7
:1026300028462246044909F061F80020EBE700BF74
:10264000610B0100E30B0100090C010038B51346D2
:1026500005461022002158680BF0E6FF0446FFF7FC
:10266000ADFE38B922460D49284609F063F86FF0EF
:10267000150038BD07F06CF9844204D1084928469A
:1026800009F058F8F3E7204602F05EFB28462246A0
:10269000044909F033F80020EBE700BF610B0100AB
:1026A000440C0100690C01002DE9F04F89B005468A
:1026B00002A806F0C1F81C27029B304A07FB00372E
:1026C0000821284608F0FFFFDFF8CCA0029CBC429E
:1026D00003D3002009B0BDE8F08F23680BB11A784E
:1026E00032B92346264A142103A807F0B7FD03ABED
:1026F000244A0821284608F0E6FF20460BF07DFB1F
:1027000078B300230DF1070120468DF8073008F05B
:102710001CFE20BB9DF80700FFF7BEFD03461A4ACA
:102720000821284608F0CFFFA369B3B11E68A6B1FF
:10273000336893B1154A0821284608F0C4FF4FF0CA
:102740000008DFF858B006F10409336843450AD899
:102750000F4A0821284608F0B6FF1C34B7E70D4B96
:10276000DDE75346DBE759F8043B5A460821284683
:1027700008F0A9FF08F10108E7E700BFB00C01006D
:10278000BA0C0100BF0C01002E130100C40C0100A3
:10279000980A0100A10C0100A70C0100C00C010067
:1027A0002DE9F04114468846074610220021606852
:1027B0000BF03AFFB8F1020F06461DD90A2200219C
:1027C000A0680BF031FFC5B22B46204A08213846DD
:1027D00008F079FFB8F1030F1ED8102D0ED0202D70
:1027E0000FD0082D0FD13378DBB2194A08213846B3
:1027F00008F069FF00200DE02025E5E733889BB253
:10280000F3E73368F1E73846124A082108F05BFF26
:102810006FF01500BDE8F08110220021E0680BF098
:1028200003FF0D4A034604460821384608F04BFFD3
:10283000102D06D0202D07D0082DE4D1E4B234703D
:10284000D8E7A4B23480D5E73460D3E7180D01008F
:10285000430D01002D0D0100540D010070B50E4C0B
:10286000054623780E4631B12BB10C4908F062FFC2
:102870006FF00F0070BD83F0010323702BB1084986
:10288000284608F03BFF012323702846314608F014
:10289000C1FF0020EEE700BF31150020FB0D010055
:1028A000360E010000232DE9F74F804617460E46ED
:1028B00029492A4D0B602A49DFF8B890DFF8B8B0F3
:1028C0002B700B60012E3C4657F8043F1FD9184669
:1028D0000222494601930BF0E8FD019B78B99A78F2
:1028E000003218BF012203EB020A1E4902225046A1
:1028F0000BF0DBFD28B901232B70013EE2E700223B
:10290000F1E749465046FDF789FFB0B9043400228B
:10291000606811460BF088FE0022134B11461860C8
:1029200060680BF081FE114B114918604046FFF7BB
:1029300095FF002003B0BDE8F08F9AF800202D2A03
:10294000E5D19AF80120002AE1D052465946404686
:1029500008F0D4FED1E700BF100F00203215002090
:10296000180F0020E30D01000C0F0020140F0020B1
:102970007D290000E00D0100E60D010070B53E4B21
:1029800005461878182802D10878112831D0084651
:10299000013A8C18844225D18A5C384C1A700A7826
:1029A000A2F13003092B04D922F02003413B052B6F
:1029B00004D823683249CA54013323602368022BA8
:1029C00033D1102200212E480BF02EFE2D4A136821
:1029D00003F8010B13602C4A1368013313600023C2
:1029E000236022E010F8016B182ED3D10678112E47
:1029F000D0D1254C25492268284608F07FFE0021C9
:102A00002846FFF72BFF224B187870B9214A23681C
:102A10001168042B0ADC08B11160236013F0030174
:102A20000BD1126813681BBA136070BD0868043BB1
:102A300000BA41F8040B0120EBE75B4203F003030B
:102A400058BF5942022907D112681168C1F3072300
:102A500043EA01239BB2E7E70329E6D11068026845
:102A60001104C2F3074301F47F010B4302F47F42D8
:102A700013430360D9E700BF33150020100F002077
:102A80002F1500200C0F0020180F0020FE0C010055
:102A900032150020140F002000232DE9F04F92463C
:102AA0004FF0FF35012287B00193494B0746894615
:102AB0001A604FF0200802F0A5FC2C46DFF830B178
:102AC000444E51465A46484602F0C0FC411C06D1CD
:102AD0006A1C33D14049384608F02CFE13E07328B5
:102AE00014D077281ED061280DD101AA102130689A
:102AF00009F0F4F8019B0546002BE2D03268374913
:102B0000384608F017FE6FF015005DE001AA0021BD
:102B1000306809F0E3F8019B0446002BD1D03268FD
:102B20002F49EDE701AA0021306809F0D7F8019B91
:102B30008046002BC5D032682A49E1E7631C01D1E9
:102B40002949C8E75FFA88F64FEAD608002C3AD040
:102B500002AB00211A4609E0102E1BD0202E1FD0F8
:102B6000082E2AD1495D197001464344A04503D877
:102B700001EB08001028EFD9102CA14628BF4FF018
:102B8000100929464B46384600F044FF1035A4EBA7
:102B90000904DBE7495B89B21970090A5970E3E758
:102BA00049594FEA112C197083F801C04FEA114CB2
:102BB000090E83F802C0D970D6E70C4A08213846BE
:102BC00008F081FD9FE7204607B0BDE8F08F00BF09
:102BD00078000020C8120020A90D0100680D010036
:102BE0007B0D01008E0D0100C60D01002D0D0100B1
:102BF000A20D010010B54468A3604023C4E900128F
:102C000042680821D36402F1580313630023C2E928
:102C10000E33C2E91133C2E90633C2E90933D16286
:102C2000146802F15001536313641161536113621C
:102C3000C2F8D030A36823B11B6C13B104492046FD
:102C40009847A3681B6A0BB120469847002010BD27
:102C50008D2C000007B50A480BF0CFF860B10423B3
:102C6000084A0093126801230549074800F030FF25
:102C7000002003B05DF804FB6FF01200F9E700BF1D
:102C800068EA00005CF9000018F600002DE9F04F3A
:102C9000054685B00C468368DB6B03B19847AB688B
:102CA000DB6A002B33D10026DFF80C91DFF80CB182
:102CB00004F13008616C626BE36C521A9A1A934209
:102CC00004F1340A28BF1346514603AA404608F0CF
:102CD0006FF9074600283CD0AB6803991B69002BAD
:102CE00034D0024628469847031E1A4651464046AD
:102CF000019318BF012608F08DF9019B0BB1BB426F
:102D0000D8D046B1D4E901310020984703E02846E5
:102D100098470028C7D1AB68DB698BBB226AA369DF
:102D200004F110079B1AE26A07F11008934228BFCA
:102D30001346414603AA384608F03AF9064630BB26
:102D4000284608F04DFBC4F8D0602CE06FF0570027
:102D5000CAE7D9F8003013F0060F04D002215A4612
:102D6000484608F060FAAB681B6933B101220DF1E7
:102D70000B01284698470346C0E76FF05700FAE773
:102D8000284698470028C9D105B0BDE8F08FAB6848
:102D90000399DB6863B102462846984702464146DC
:102DA000384608F037F9D4E9013101209847EBE7BC
:102DB0006FF05702F3E700BFF8020020DF0F0100B9
:102DC00010B504468168183101F036FAA168204632
:102DD000BDE81040014A183101F0D2B95312010088
:102DE000022210B5836804461A7583689B6CCBB9C0
:102DF000083008F0A1FBA368D3F87832DB040CD5C7
:102E000003212046084B094A09F0E1F8A0686FF455
:102E1000805100F51E7008F047FB2046BDE81040C9
:102E200001F01CB910BD00BF7E120100C10C0100F1
:102E3000F7B5044680680E46D0F878325A0705D5B3
:102E4000002108F095FBE06809F050FBE368DB68BF
:102E500073B9002E3BD0A56805F15607384608F037
:102E600065FB002835D0394605F5AB70FDF7E0FC71
:102E7000A2680DF1060356323146E06809F039FBCD
:102E800058B9A06800F5AB715630FDF7D1FCA068C9
:102E9000563008F04BFBADF80600204608F0E3FF83
:102EA000A368D3F874329B0603D50B49606908F018
:102EB00030FB204600F042FFA268BDF806302046F5
:102EC000A2F85230A268A2F8503000F0FDFE03B024
:102ED000F0BD85F85601CBE7D0F700002DE9F04FA3
:102EE000A7B004465422002111A80BF0BBFA00231E
:102EF000CDE90533A36820465633039308F0BAFFA3
:102F0000204608F036FF18B9A149606908F001FBB6
:102F100000264FF0FF37B346B2463546B146A068AB
:102F20001422002118300BF09DFA204608F08DFE87
:102F3000A168E068B1F85020563109F011FB204635
:102F400009F0A0FB0DF144080296DDE90532012AE3
:102F500000F0DD80132B40F2AC80069B022B40F08A
:102F6000AB808C4B8C4A012115E00223039A414629
:102F700006A808F0EFFCD8F804200699034603924F
:102F800029B96FF00705284627B0BDE8F08F012961
:102F900005D120B1814A204609F019F8F1E7059BD7
:102FA0005BB3D8F8000001F067F998B166B1A56885
:102FB0000D9618350CAE0FCE0FC533682B6020462A
:102FC000FFF7FEFE0125DEE7754A0121204608F0E5
:102FD000FEFFD6E7059B83B1D8F80020294620469E
:102FE00001F0E6FA022800F09280032805D0059B44
:102FF0000133059301230293A7E7BAF1000F06D12D
:1030000007AAD8F80010484608F096FD054608F1D2
:103010000408013F002D3AD0029AEB6842B1F3B1A7
:10302000204608F027FF204600F04EFE5D4ACCE720
:10303000ABB1AE46A368DDF814B003F1180CBEE8DE
:103040000F00ACE80F00DEF80030CCF80030AB68C1
:103050002BB96B7CFE2B04BF2F7C07F1FF37D5F813
:1030600004C0BCF1000F08D0AE460CAEBEE80F00A5
:103070000FC6DEF8003033606646A9461FB9069BCE
:10308000022B7FF462AF059B013305935DE7059B3F
:1030900063B9A368DB6A0BB1DB683BB9424B434AB7
:1030A00000930121119B204608F091FF4FF0010A87
:1030B000E4E7002F7FF459AF029B53B1204609F09B
:1030C00004FB1423A26811A956320DEB030008F08B
:1030D00041FCB9F1000F0CD099F81130FE2B08D14A
:1030E000059B26AA02EB830252F8542C0AB1013345
:1030F0000593A068436A73B9002E3FF442AFC369D9
:10310000B3423FF45CAF0D9600F1180552E7059B02
:10311000132BD1D921E7059D90F82830A5EB0B059D
:10312000BBB14FF6FF7190F82920FF2A08BF0A466D
:103130009D4202D313449D420BD983691C4A01214D
:10314000204608F044FF2046FFF73AFE6FF01505D1
:1031500019E7012108F0FBF9A06800F5437008F0B9
:10316000D6F9A36811AA294602EB8B025B6A2046B6
:1031700098470546A0684FF0FF324FF0FF3300F547
:10318000437008F0C2F90021A06808F0E0F9FAE6FF
:10319000980A01000A1201001B1F0100951101008D
:1031A000A9110100C7110100F61101004D13010022
:1031B0002E1201002DE9F04F04468068B1B00121C4
:1031C00000F51E7008F065F9A3681B7D022B20D165
:1031D00000230993A36860689E6C03681D6909ABAE
:1031E0000EB310221BA9A847099B93B10121A06827
:1031F00008F0ADF9099A1BA92046B0470021A06844
:1032000008F0A5F9A3689B6C002BE3D12046FFF7DB
:10321000E7FDA0686FF0010100F51E7008F044F9A9
:1032200031B0BDE8F08F01220DF12301A847099BC1
:10323000002BEED09DF82330A2681906CAD4517D28
:10324000032900F2B682DFE811F0040035024D02D6
:10325000B4020D2B1BD00A2B19D0B2F878126FF3E1
:10326000CA01A2F87812092BA06852D038D8002BD6
:10327000B0D0082B00F07981A3F120025E2A00F281
:103280008981012108F074F99DF82310A6E0D2F895
:103290007812C1F3C70129B1D2F87812C1F3C7017E
:1032A0008B42E0D1B2F8781263F3CA01A2F8781227
:1032B000A568B5F8501069B9284608F059F9E068D2
:1032C00009F014F9AF49606908F023F92046FFF7C7
:1032D00087FD7FE72046FFF701FEC5F82403F5E7E9
:1032E0001B2B13D07F2BC7D1D0F874329D077FF5ED
:1032F00071AF012108F03CF9A368D3F874321907C3
:1033000000F13B81204608F0ABFE63E701234375E3
:1033100060E7D0F874329B077FF55CAF012108F0BD
:1033200027F9A068B0F85030FF2B3FF453AF0025C9
:10333000B0F8522000F1560100F5AB700BF06AF8BE
:10334000A3681BA9B3F852200BA8134483F8565165
:10335000A268142302F5AB7208F0FCFA0B99142949
:103360003FF638AF30AB03EB810343F8545CA368FE
:10337000B3F852204AB1134493F85530202B00F093
:103380001A82093B042B40F21682012940F2168270
:10339000013900200CAB009301900AAB1BAA08F086
:1033A000F5FB0646002840F00B8213E71B685A46DF
:1033B0005146184603930BF078F860B9039B184602
:1033C000FDF73EFA814538BF8146002D08BFB8465B
:1033D0001FFA89F90135013700E22021204600F06B
:1033E00001FEF7E60121204608F0D9FCF2E6049040
:1033F0007FF6F0AE0A9A30AB03EB820252F8543CEF
:10340000C3461846039308F091F8049B0590A7F86B
:1034100040300495A26859461832304600F0E0FB6F
:10342000039B0BF1010BD0F800A04BB1BAF1000FD8
:1034300006D0059A194650460BF037F80028E9D116
:10344000A168BAF1000F58D1A1F840A0049B013B3C
:103450000493DFD14B49606908F05BF8204600F027
:10346000FDFD0A9B30AA02EB830353F8540C08F0CD
:103470005DF8414611AA8146304600F0B1FB07468F
:10348000A0683968FF2200F5AB7008F1010A0BF063
:103490001EF8D7F800804FF6FF7716AA514630463F
:1034A0000AF1010B00F09CFBD8B10022A368006870
:1034B00003F5AB7313F801CB815C614505D121B1F4
:1034C0004FF6FF7101328A42F4D1B9F1000F01D0F9
:1034D0004A4548DB9742A8BF1746013D012DBFB2C0
:1034E00041D1002F3FF476AEA7EB090292B208EB70
:1034F0000901204608F0B2FD6CE62348069108F069
:1035000015F8069900EB09074A8FBFB2121A92FB11
:10351000F7F2504692B20791069208F007F8079921
:103520003F1AB1F84000069A00F1010CA1F840C022
:10353000B0FBF2F102FB110292B2BFB262B9CDF858
:1035400000A0114B114A0621204608F040FD3946E3
:10355000204600F0A3FB79E753460D4A062120469A
:1035600008F035FDF3E7DA4697E7D0F874329E07A6
:103570007FF530AE012107F0FBFF204608F08FFDFC
:1035800028E600BF980A0100B5060100611201009B
:10359000C10C0100D0F8742292077FF51BAE013BED
:1035A000162B3FF617AE01A252F823F08537000024
:1035B000093600001136000005330000793700009D
:1035C00031360000D5310000D5310000D531000082
:1035D000D53100003936000041360000D5310000F9
:1035E0006B360000D531000075360000D531000083
:1035F000D5310000D5310000D5310000793600000A
:10360000D5310000A5360000204608F03CFCE1E57D
:10361000204608F02FFC204608F0ABFB18B9924971
:10362000606907F076FF0121A06807F0A1FF4DE671
:10363000204608F031FCCDE5204608F038FCC9E50D
:10364000D0F874329F0603D58849606907F061FF9E
:10365000A368D3F874329E0603D58549606907F0E4
:1036600058FF204600F0FAFCB4E500212046FFF7A1
:10367000DFFBAFE50121F9E7204608F0F4FB04F198
:10368000080007F059FF0121A06807F071FFA36847
:10369000D3F874329D067FF59DAD7649606907F0D9
:1036A00038FF97E5204600F0C5FB0121A06807F030
:1036B0005FFF8FE55B2B02D1022353758AE5D2F8B9
:1036C0007422900706D5622B08D14FF0FF312046B7
:1036D00008F08EFB0022A3685A757BE5662BF9D1B2
:1036E0000121F4E700215175A268D2F8741289070C
:1036F0007FF570AD313B1B2B3FF66CAD01A151F84E
:1037000023F000BF813700008D370000A137000093
:1037100075370000D5310000D5310000D5310000EB
:10372000D5310000D5310000D5310000D531000081
:10373000D5310000D5310000D5310000D531000071
:10374000D5310000753600006B36000031360000C0
:1037500009360000D531000079370000D53100006E
:1037600085370000D5310000D5310000D53100008B
:103770009137000003235375204608F07BFB29E5B1
:1037800003235375204608F06EFB23E5032353758E
:10379000A068D0F8741201F0010181F0010160E02D
:1037A00003235375A368D3F874329B077FF512ADDA
:1037B000A8E5002381E700297FF4EBAD00260A96F7
:1037C0000A9B30AA02EB830353F854AC0025504601
:1037D00007F0ACFEA9468346A8462F4616AA3946EE
:1037E000304600F0FDF9034600287FF4DFAD012DDF
:1037F000A7687FF4FCAD0A9B30AA02EB830353F861
:10380000540C07F093FE07F1180205464146304676
:1038100000F0E6F90668304607F088FE854205D0DC
:10382000421B92B27119204608F018FCA068B0F84B
:103830005230034493F85630202B3FF4D3AD093B6C
:10384000042B7FF6CFADD0F87432DF077FF5C5AD1E
:10385000002107F09DFE2021204600F0C3FB01213E
:10386000A06807F095FEB5E4980A0100D5F70000BE
:10387000DAF70000D0F7000038B5836804461A7DF7
:10388000012A2BD1D3F87822510408D5D3F8742219
:10389000520704D40146DA6CC06908F007FDA0683D
:1038A00040F21B62002300F5437007F02EFE054630
:1038B000B8B90821204600F07FFA0B49606907F08B
:1038C00028FE2046FFF78CFA204608F0FBFBA06894
:1038D00000F5437007F01BFE284638BD6FF08505E4
:1038E000FAE76FF00F05F7E7980A01002DE9F041BC
:1038F00004468068154600F51E70002937D04FF445
:10390000804107F0C6FDA3680021DD64606803689C
:103910009B689847002851D12046FFF7ADFF00284B
:103920004CD1274E274FDFF8A480A06800F52F70F8
:103930004FF0FF324FF0FF33032106F0EFFB054657
:10394000A068CDB140F21B62002300F5437007F080
:10395000DCFD98BB20462B461B4A012108F037FBB3
:10396000A068BDE8F04100F5437007F0D0BD6FF4EA
:10397000804107F099FDC6E74FF0FF334FF0FF326B
:1039800000F5437007F0C1FD32460221204607F0E2
:103990003EFE3A462946204607F039FE204642467A
:1039A000012107F034FE606803685B6903B1984742
:1039B000A06800F5437007F0AAFDB6E7BDE8F08106
:1039C000BFB40000B531000067120100C5B50000AA
:1039D00010B504460A4907F091FE2046094907F050
:1039E0008DFE2046084907F089FE2046074907F06A
:1039F00085FE2046064A002100F0C2FB002010BDD3
:103A0000F40F01003210010091100100E5100100D7
:103A10007F1101002DE9F04716460A462549044664
:103A20001F46002507F06AFEDFF89480DFF89490C7
:103A3000DFF894A0AF422CD9725D4946204607F0CA
:103A40005DFE0135102D1DD11B49204607F056FEA5
:103A50000025DFF87480DFF87490AF4225D9725DDD
:103A60004946A2F120035F2B28BF2E22204607F0F3
:103A700045FE0135102D11D12046BDE8F0470F4914
:103A800007F03CBE6A07D5D15146204607F036FE06
:103A9000D0E74146204607F031FED2E76B07DCD184
:103AA0004146204607F02AFED7E74146204607F068
:103AB00025FEDEE749120100B806010050120100A0
:103AC000B4060100AE060100B6060100DF120100D7
:103AD0002DE9F043044680688946D0F8201389B068
:103AE0009846002961D116464FF44A720AF0BAFC92
:103AF000E06808F0ADFDA06800F543700AF0B8F981
:103B00004FF42F774FF41F75A06828440AF075FC16
:103B1000A0680022431901213844103506F0EAFA62
:103B2000B5F52F7F07F11407EED10025A369022117
:103B30001D60A06865F3820600F51E7007F0A9FC01
:103B40005022A36820465A871822A3681A87216842
:103B500007F014FEA368164AC3F874626068494609
:103B600003681D682346A8470546D0B90122A3680B
:103B70001A75D4E90A0100220023CDE906230E2399
:103B80000393109B0495CDE901830094094B4FF4F6
:103B9000006205F099FBA368C3F82003616A05F091
:103BA000E7FA284609B0BDE8F0836FF07705F8E73B
:103BB000B1B50000ED38000010B5044613460A46C2
:103BC0000146064801F0DCFB23691B7923B120463E
:103BD000BDE8104007F025BE10BD00BF3BB8000097
:103BE00038B50D46144658B9154A164B9B1AB1EB19
:103BF000930F02D30024204638BD52F82140FAE743
:103C00008368002BF6D0104A93420AD30F4A93429E
:103C100007D21B682146284698472368002BEAD123
:103C2000E8E70B4A934208D30A4A934205D201358A
:103C3000142255435C195B59F0E71B68F8E700BF95
:103C400048F6000074F60000A0F70000A4F700009A
:103C500074F60000A0F700008368D3F874329B0666
:103C600003D50249406908F066B87047E0F70000E4
:103C70000A1E0DDC0ED042238168D1F87412890629
:103C800008D5002AB8BF52420349406908F053B82A
:103C90004123F1E7704700BFDB1201000A1E0DDC73
:103CA0000ED044238168D1F87412890608D5002A01
:103CB000B8BF52420349406908F03DB84323F1E7D9
:103CC000704700BFDB12010010B5044608F051F840
:103CD00018B9A06808F03CF828B160690249BDE84D
:103CE000104008F028B810BD980A0100F8B5054644
:103CF000846804F13000B4F85020B4F8521007F092
:103D000013FEA868A78EE68E08F022F818B10A49BB
:103D1000686908F010F8B74207D1218E638E2846F3
:103D2000C91ABDE8F840FFF7B9BFE18EA38E284657
:103D3000C91AFFF79DFFF0E7980A01002DE9F04747
:103D40008568064615F1560002D0FCF779FD80B271
:103D500000230446984695F83C70DFF85890B26806
:103D6000558FED1BA54209DB002C1FDD5633706912
:103D70001A440F49BDE8F04707F0DDBF1D442A444F
:103D800092F856A082F85680B26856331A444946D3
:103D9000706907F0D0FFB3682B4483F856A0B3686E
:103DA0005B8FDF1BE41B2B460027D8E7BDE8F087BD
:103DB000C10C01001B1F010008290A4617D883689F
:103DC00093F83E10914212D083F83E208368082A6F
:103DD000D3F8743205D0990609D50549406907F032
:103DE000AABF9B0603D50349406907F0A4BF7047EB
:103DF000E2120100E5F7000038B50D4609780446E7
:103E0000FFF7DAFF6A78072A11D8A36893F83F1002
:103E100091420CD083F83F20A368D3F874329B06FC
:103E200005D560690249BDE8384007F084BF38BD58
:103E3000EB120100F8B583680546B3F85020002A5C
:103E400053D0B3F8520000284FD05530184403F136
:103E500056060346C41AB342A4B219460DD311F84C
:103E60000179202F3FD019460878013B202804D043
:103E700001349E42A4B21946F5D9631C4E1C121B94
:103E8000194430460AF0D4FAAA686142B2F85030B8
:103E900009B21B1BA2F85030AB682846B3F850207B
:103EA0001344002283F8562007F079FFAB68D3F85B
:103EB00074329A0603D50D49686907F03CFF334612
:103EC0000B4A0821284608F082F82846FFF7C4FE6E
:103ED000AB68D3F874329B0607D568690549BDE81D
:103EE000F84007F028BF0B46B4E7F8BDEAF700003A
:103EF000C10C0100EEF700002DE9F84F04460D4615
:103F000017460AB1FFF7A8FED4F80880D8F8743233
:103F1000B8F852905B0725D509F156004044FCF7EC
:103F20008FFC0646DFF8B88016F1FF3615D2A3687D
:103F3000B3F85020A3F85220A06807F009FF28B179
:103F400007B11DB12349606907F0F5FE69422046BB
:103F5000BDE8F84F09B207F022BF4146606907F09B
:103F6000EAFEE1E74046FCF76BFCB8F85060B8F8B1
:103F70003A3006444844B0FBF3F1B6FBF3F3994200
:103F80001ED0DFF85080B042A368D0DA598F00F11C
:103F9000010AB0FBF1F301FB130018B94146606957
:103FA00007F0C9FEA06809F1010B484490F85630AB
:103FB000094A2046082108F00AF8D9465046E2E7A7
:103FC00009F1560208EB02030821044A204607F0D3
:103FD000FEFFACE7980A0100DF120100C10C0100EE
:103FE000E01C010013B583688DF80710D3F8742224
:103FF0000446D00726D5B3F85210B3F850208A42B1
:1040000020D0481C9DF80720A3F852000B4483F8E9
:104010005620A368D3F87412890711D5D3F87432E7
:10402000606913F0040F18BF2A220A4907F083FEC3
:10403000204607F09EFE18B10749606907F07BFE35
:1040400002B010BD01220DF10701204607F0CCFFA0
:10405000F6E700BFDF120100980A010010B5044620
:104060008368094A022107F0B2FFA368D3F87432CB
:104070009B0707D52046FFF761FE2046BDE81040AC
:10408000FFF734BE10BD00BFC10C01002DE9F047A1
:10409000054690460F4600296ED000243B5D202B3C
:1040A00025D0093B042B22D9DFF8D0903846FCF705
:1040B000C7FBAB6880B2598F001BA1EB0803984285
:1040C00007EB040A15D95046002610F8012B202AC8
:1040D00006D0A2F1090CBCF1040F02D80A2A31D093
:1040E000334608EB060291422BD90136EDE7013445
:1040F000D4E753460026B04217D013F8012B04EB47
:1041000006090A2A1BD1686907F08BFB3246514623
:10411000284607F0F6FE1949686908F047F9414654
:10412000284609F10104FFF7B9FD3919686908F05B
:104130003DF968691149BDE8F04708F037B9013623
:10414000D9E71E46686907F06CFB3246514628469F
:1041500007F0D7FE34443B5D202B0BD0093B042BEA
:1041600008D94946686908F021F941462846FFF711
:1041700095FD9BE70134EEE7BDE8F087980A010062
:104180002DE9F04F0E460021054617460C4689B032
:1041900003AA304601F10108FFF722FDB0B994B13E
:1041A00027B13A460821284607F011FF00211E4F8B
:1041B000DFF87C90DFF87CA003AA304601F101080B
:1041C000FFF70EFD60B909B0BDE8F08F006810B1CF
:1041D000FCF736FB80B2844238BF04464146D7E73D
:1041E000036893B11A7882B1D0F804B04A46CDE999
:1041F000004308213B46284607F0E9FEBBF1000FCB
:1042000005D10A49686908F0D1F84146D4E7524619
:1042100028463B46082107F0DAFEA21D92B2594615
:104220002846FFF733FFF0E7F8120100980A010073
:1042300005130100A6060100F7B50D6806460F46F6
:10424000A5B12846FCF7FCFA84B2094B304600932E
:10425000084A2B46082107F0BAFE3046E21C79686E
:1042600092B203B0BDE8F040FFF710BF2C46ECE778
:10427000F41201006212010010B507490446FCF770
:10428000CDFA38B105492046FCF7C8FAB0FA80F0FB
:10429000400910BD0120FCE7FB120100FE120100E5
:1042A00010B583680446D3F874329B0603D50649DB
:1042B000406908F08EF85022A36800205A8718221F
:1042C000A3681A8710BD00BFF2F7000008B5836924
:1042D00002491A6807F012FA002008BDAD13010068
:1042E0002DE9F3410D49074607F008FA00220C4C6E
:1042F0000C4DDFF83480AC4202F1010603D30020FC
:1043000002B0BDE8F081636A92B200934146A368AF
:10431000384607F0F3F930343246ECE70C1301006D
:1043200018F6000048F600002413010008B5024901
:1043300007F024FA002008BD990A010073B504466D
:1043400000250D4EA2680DF1060302F5AB720121A6
:10435000E06808F0CEF8BDF80600A36840B12A4630
:1043600003F5AB733146204607F0C8F90135E9E79C
:1043700083F8560102B070BD6913010010B5044600
:1043800007F040FA03490246204607F0B7F900203B
:1043900010BD00BF140D010010B583680446D3F8AA
:1043A00074329A0603D50749406908F012F8A368E9
:1043B000D3F874329B0603D50349606908F009F805
:1043C000002010BDF9F70000FEF70000022907B534
:1043D0000BD153680C49009312680C4B07F0AAF9F3
:1043E0006FF0150003B05DF804FB8368084AD3F84A
:1043F0007432084913F0020F074B08BF1A4607F042
:104400007DF90020EEE700BF4A13010035130100DB
:10441000720801005313010013070100F0B50129D0
:1044200085B004460BD053685B49009312685B4B20
:1044300007F080F96FF01505284605B0F0BD8368D8
:10444000D3F874329A0603D55549406907F0C1FF85
:1044500000256FF0F9012046FFF70AFCFA212046FB
:10446000FFF71CFCA0684FF48072294600F5AB7082
:104470008DF80B5009F0F6FF4A49606907F0A9FF73
:10448000606907F0CEF94FF47A766068012203681C
:104490000DF10B011F6903ABB847039B53B9013EF4
:1044A0004FF47A70B6B209F0A3FC002EEDD16FF094
:1044B000850533E09DF80B20A3681B2A5ED093F896
:1044C00056111B29E1D1522A58D11D44002385F8E9
:1044D0005631A06890F857215B2A37D1022600F5A3
:1044E000AC7111F8012B01363B2AB6B231D1B6F5C9
:1044F000807FDCD0002206F5AB71014411F8015B2E
:10450000002D30D1FA2A28BFFA22FA2B28BFFA232D
:1045100080F85651A1684A87A2681387A368D3F828
:1045200074329B0603D52049606907F052FF002DC5
:1045300082D05022A3681D495A871822A3682046BA
:104540001A8707F0E9F86FF0070575E780F856312C
:10455000ADE703EB830302EB4303303BB6F5807F0B
:104560009BB2BED1A3E702EB8202013605EB420506
:10457000B6B2303DFF2EAAB2C0D998E72B44013520
:10458000ADB2092D83F856217FF67FAF0022A368D4
:1045900083F856218BE700BF4A1301003513010051
:1045A00004F800006413010008F800007313010010
:1045B0002DE9F04F824689B015468B4621B1104651
:1045C00008F04CF800285BD1032455E04C463DE050
:1045D000294607F5AB7009F099FF8046002853D0B3
:1045E000FCF72EF982B2601C01324146404409F0CA
:1045F0001FFF22464946404609F00CFF4FF02003BA
:1046000008F80430B7F85430013601331C44A7F8D9
:104610005440002401994B1C03AA58460193FFF70C
:10462000DFFA8046F0B10022D8F80010284608F0E2
:104630000CFA0028EED1D8F80090DAF80870B9F139
:10464000000FC3D04846FCF7FBF884B2B7F85430EB
:104650002344FF2BBCDD2B460C4A0321504607F0B8
:10466000B6FC012446B1DAF808002A4600F15401EC
:1046700000F5AB7007F039FA204609B0BDE8F08FBD
:10468000002602243146C6E70224EBE77A1801002F
:104690002DE9F843064600AF0C46002943D02C4DC7
:1046A0002B685A073FD0D1E90001E8468AB0A368D9
:1046B0006A464FF00509DFF8A8C0C2E90713C2E94E
:1046C00005C042F8109F00234FF421512846FDF702
:1046D00051FB2B68C5465B0725D0D4E903018AB09E
:1046E00063696A46DFF87CC0C2E90713C2E905C006
:1046F00042F8109F002328464FF42151FDF73AFB62
:104700002B68C54658070ED0E3690121114A284697
:1047100006F092FD2B68590705D0A3690E4A0121C6
:10472000284606F089FD012E0AD1EFF305830848DB
:104730000268520704D0094A103B314606F07CFD5E
:104740002146304604F0F0F8BD46BDE8F88300BFCE
:10475000E80200202A190100391901006719010037
:10476000CC180100FB18010030BFFFF7FDBF00BFF0
:10477000054B5A699B689A421FBF044A536843F02D
:1047800080535360704700BFF014002000ED00E03C
:1047900038B5314C2368590703D03049204607F01B
:1047A000AFFF2F4DAA6A920108D523685B0703D09B
:1047B0002C49294807F0A4FF1E2000E01D20AB6A09
:1047C000DD0107D52368590703D02749224807F0A0
:1047D00097FF1F20224DAA6AD20207D523685B07E4
:1047E00003D022491C4807F08BFF0220AB6A1D034F
:1047F00007D52368590703D01D49174807F080FFE4
:104800002120174DAA6A520307D523685B0703D0FE
:104810001849114807F074FF2220AB6A9D0307D5A1
:104820002368590703D014490B4807F069FF232078
:104830000B4DAB6ADA0307D523685B0703D00F493A
:10484000054807F05DFF2420AB6A6FEA03436FEA77
:104850001343AB6238BD00BFE8020020DA1A010042
:1048600000ED00E0F21A0100051B01001F1B010012
:10487000491B0100671B01008C1B0100A61B0100E6
:10488000F8B5374C074623680E465A0703D035491A
:10489000204607F035FF344DAA6AD30408D52368B3
:1048A000580703D031492E4807F02AFF172000E0AF
:1048B0001620AB6A190507D523685A0703D02C497F
:1048C000274807F01DFF1820274B9B6A9B050CD536
:1048D00023685D0703D02749214807F011FF224ACA
:1048E000936B926A10041FD419201F4DAB6A5A05AE
:1048F00007D523685B0703D01F49194807F000FF5D
:104900001A20AB6ADF051FD52368590703D01B495E
:10491000134807F0F5FE1B20134A936A43F47F43C4
:10492000936200233370F8BD2268510704D0144A03
:1049300001210B4806F080FC002FD5D00A4A936A6B
:1049400023F400439362CFE7AB6A9A04E4D523686B
:104950005B0703D00B49024807F0D2FE1C20DBE7BF
:10496000E80200207A19010000ED00E09019010032
:10497000A1190100B4190100E2190100FD1901009B
:10498000CD190100151A0100F8B5374C0746236808
:104990000E465D0703D03549204607F0B1FE344D81
:1049A000AA6AD00608D52368590703D031492E4892
:1049B00007F0A6FE112000E01020AB6A1A0707D509
:1049C00023685B0703D02C49274807F099FE122083
:1049D000274B9B6A9D070CD52368580703D02749AE
:1049E000214807F08DFE224A536B926A11062BD4A0
:1049F00013201F4DAA6AD30707D523685F0703D08A
:104A00001F49194807F07CFE1420AB6A9D0607D5A4
:104A10002368580703D01B49134807F071FE15207F
:104A2000134B9A6AD10658BF9A6A9A6A920642BF95
:104A30005A6A22F400525A620D4A936A43F0FF0305
:104A4000936200233370F8BD2268520704D00E4AE7
:104A50000121054806F0F0FB002FC9D0044A936AF3
:104A600023F080039362C3E7E8020020441A0100A8
:104A700000ED00E05A1A0100A11901008D1A010091
:104A8000BB1A0100151A0100A51A01002DE9F04317
:104A90008BB07B4B00AFD3F804904FF00008C9F304
:104AA000080688F31188BFF36F8F02F07F43B3F1DC
:104AB0007F4F0BD102F00C03082B0AD17148036819
:104AC00013F0070503D0704907F01AFE45462C463F
:104AD00005E0140747BF0C46454604460125002360
:104AE000FB71F31E092B00F2A680DFE803F00597A7
:104AF0009A94A4A4A4A4A49D624B1A68984612F0A8
:104B0000070F03D06149184607F0FAFD4FF000097E
:104B10005B4987F80790CE6A16F002060AD0D8F8EB
:104B200000305A0701D1002345E05949554807F0A4
:104B3000E7FDF8E7CB6A002B05DAD8F800305B0711
:104B4000F1D05449F2E7CB6A5E00ECD5D8F80030DA
:104B5000580703D050494B4807F0D2FD484BA16994
:104B60005A6942F480725A61BFF34F8FBFF36F8F5F
:104B70005A6931F8021C22F480725A61BFF34F8FD8
:104B8000BFF36F8F4DF60272914209D09A6A12F00C
:104B9000FF0F32D00120F91DFFF7F6FE03460AE0B1
:104BA000D8F80030590705D023683C4A0121354820
:104BB00006F042FB2368FA79DAB907F1080604F136
:104BC000200C324620686168083403C264451646EA
:104BD000F7D17A6A002D4ED0C2F3080121B96FEAED
:104BE00052226FEA42227A6207F108011846FFF763
:104BF0004FFD2C37BD46BDE8F0839A6A12F47F4F13
:104C000004D00120F91DFFF73BFEC7E79B6A1B0C90
:104C10001B04002B87D0FFF7BBFDBFE7F91D002069
:104C2000BAE7F91D0020EEE7164803685A073FF47B
:104C30007AAF1B497BE7134803685B073FF473AF08
:104C4000184A19F4F87FE8468AB0174B18BF134684
:104C50006A461649103EC2E905134FF400731384E7
:104C6000134BD66142F8103F00234FF41151FDF76A
:104C700081F8C54657E722F4FF7222F00102B2E73D
:104C800000ED00E0E8020020FF1B01002A1C0100EB
:104C9000411C0100621C0100701C01008F1C0100FE
:104CA000AB1C0100E61B0100D11B0100CF1C010061
:104CB00004000001064B5A6942F010025A615A6919
:104CC00042F480625A615A6922F008025A617047C0
:104CD00000ED00E0EFF30880EFF3098101B57246C3
:104CE000FFF7D4FE01BD00BF02F040F9202080F3A1
:104CF00011880B484FF0AA014FF4006209F0A8F8A0
:104D000007484FF40061401880F30988EFF31480DE
:104D10000221084380F31488BFF36F8F00F0A0F8DE
:104D200000260020BFF34F8F0549064BCA6802F4E6
:104D3000E0621343CB60BFF34F8F00BFFDE700BFBE
:104D400000ED00E00400FA05084B9B6883420BD19C
:104D5000EFF3058343B1064B5A6842F080525A6024
:104D60005A6A22F400425A6204F0F8BDF01400209E
:104D700000ED00E014498A684FF030001044EFF372
:104D8000098C80E8F01F202080F31288BFF36F8F1A
:104D90000E4F4FF000664A698A603E60D2F8AC0060
:104DA0000023C2F8AC3080F3118802F1300090E8A3
:104DB000F01F8CF3098802F1000004B507F0A8FC8D
:104DC000BDE8044070470000F014002004ED00E04E
:104DD0001EF0040F0CBFEFF30880EFF30980816928
:104DE00011F8021C0229FFD001B5724607F07DFCC4
:104DF00001BD00BF03B2002B08DB012200F01F0041
:104E000002FA00F0024A5B0942F82300704700BF33
:104E100000E100E0054B420953F82220012300F095
:104E20001F0003FA00F01040704700BF00E100E0EF
:104E300003B2002B01F10101A8BF03F160434FEA67
:104E40004111B8BF054BC9B2ABBF03F5614300F0D8
:104E50000F0083F800131954704700BF14ED00E0F1
:104E60000F4A08B50F4B22F07F029A60BFF34F8FB5
:104E7000BFF36F8FD3F8882022F47002C3F8882024
:104E8000EFF3148323F0040383F31488BFF36F8FCD
:104E900003F04AFE04F0F4FE00F044F803F088FE4C
:104EA0000000000000ED00E042F8203C009B0B49B0
:104EB00042F81C3C019B21F0010142F8183C029B86
:104EC00042F8081C42F8143C4FF0807342F8043C4E
:104ED0000023203A0265C0F8AC30704709A90000F1
:104EE00000B50A4B0E4698601546D0F89C3083F307
:104EF0000B882C4686F309880020054B98472046EE
:104F0000002100220023034C204700BFF0140020A2
:104F10001BC7000009A900001022014B1A6170474D
:104F200000ED00E00023202040F20F1210B5044CE9
:104F3000E1180133934281F80003F9D110BD00BF9D
:104F400000E100E008B5EFF30583064A103B02EBF1
:104F5000C30152F8330049688847BDE80840FFF7AD
:104F600007BC00BFB8EB00001FB5094C094A234637
:104F70000121094800F014F900230393074B012194
:104F8000E41A01A80193029400F014F904B010BDD2
:104F900000F0022000000020C0FC000020030020E0
:104FA00010B50C7A0B6823F01F0204F01F031A439C
:104FB000CB68640923F01F03044943EA440343F028
:104FC00001038860CA600B6110BD00BF90ED00E076
:104FD00010B50B4B04461B68C3F30723013B9842F3
:104FE0000BD9084803685B0704D0074A2346012110
:104FF00006F022F96FF0150001E0FFF7D1FF10BDB8
:1050000090ED00E0E40200202C1D01002DE9F04F9E
:105010008846144606460027544D85B0474529DA90
:10502000D6F80490B9F1000F4BD0B9F11F0F1BD97E
:1050300019F01F0F18D1D6F800A01AF01F0F13D1C6
:10504000504607F08DFB834609EB0A00013807F054
:1050500087FB834518D06FF0150B454803685B0745
:1050600006D0444A5B460BE0414803685A0705D125
:105070006FF01504204605B0BDE8F08F3B463E4A70
:10508000012106F0D9F8F3E71BF1160FE5D05C45D6
:10509000E3DDC5F808B0E968C5F808B02B6921F070
:1050A0001F0143F01F0AD6E900321A44994202F167
:1050B000FF391BD1CA4507D131465FFA8BF007F0A3
:1050C00058FB01370C36A9E73146C5F808B0EB6844
:1050D00022F01F0203F01F031A43EA60E0B207F058
:1050E00048FB10F1160FC3D0441CEAE7013BCA4548
:1050F000E0B223F01F03C5F808B006D12A69314693
:1051000002F01F0213432B61E9E7296901F01F0137
:105110000B432B61314607F02CFB10F1160FA7D083
:10512000C5F808B0EA689DF808300AF1FF3A62F362
:1051300004038DF808302B699DF808205B0863F3A1
:1051400047128DF80820D6E900321344009323F06B
:105150001F035344A3EB0903013023F01F036946E7
:10516000C0B20393FFF734FFBBE700BF90ED00E050
:10517000E4020020091D0100E61C01000522034B8A
:105180005A60BFF34F8FBFF36F8F704790ED00E011
:10519000BFF35F8F0022014B5A60704790ED00E033
:1051A00010B5034C2278FFF731FF207010BD00BF0F
:1051B000521500202DE9F74F254C8A4680460027DE
:1051C000A1464FF0140B234D57451ADAD8F8043096
:1051D0000193002B36D0D8F800100846009107F054
:1051E000BFFADDE9001306465818013807F0B8FA8F
:1051F0008642194A08D014235F436FF0150349F81B
:10520000073003B0BDE8F08F16F1160F2660F8D016
:105210001378B342F5DD0BFB0793AE60AE60E86830
:10522000197B60F3040119732969187B490861F33C
:1052300047101873EB6823F01F0363602B6923F09A
:105240001F0323610137143408F10C08BCE700BFC9
:10525000A412002090ED00E0521500202DE9F0434B
:10526000424C434E22683768C2F30722974287B008
:1052700078D80025FFF78CFF3E4B2363AF4217D150
:105280003D4D01A82F70FDF701F8002607464FF0AD
:105290004109DFF8E880B74212D100212B7822685B
:1052A000C2F30722934259DBFFF768FF00203FE07B
:1052B0007168284601EB0511FFF772FE0135DDE745
:1052C000DDF804C031010CEB0103DA6802EA0802E0
:1052D000B2F5001F15D0B2F5800F2CD0B2F5801FAB
:1052E0003AD158685CF801209B68CDE9020221227E
:1052F000013B20F01F010B4423F01F038DF8102009
:105300000DE058685CF801209B6820F01F01013B0C
:10531000CDE902020B4423F01F038DF8109002A97F
:1053200028780593FFF754FE002812DA6FF0150075
:1053300007B0BDE8F08358689B685CF80120013B2A
:1053400020F01F010B44CDE9020223F01F030622C7
:10535000D4E72B7801332B7001369CE7A3602161E1
:1053600001339CE74FF0FF30E2E700BF90ED00E033
:10537000CCFC0000AAFF4400521500200000F0FF02
:10538000F0B587B007460E46144600211022684645
:105390001D4609F067F802238DF80230054B2A46B6
:1053A000214668460193CDE9047604F083FF07B0F7
:1053B000F0BD00BFA9C7000008B5024B1B689847A5
:1053C000002008BDB8120020034B044A18609378EF
:1053D00043F0020393707047B81200204C00002085
:1053E00008B50649064821F00701C1F1005202F54F
:1053F0003C3205F0FDF9002008BD00BF0734002055
:10540000BC12002008B500F0B9F8012200230949B8
:10541000C0E9002241610849C0E902330A60074936
:1054200003610A60064A1360064A1360064A136065
:1054300008BD00BF990A0100740000207800002018
:10544000CC120020D0120020C81200202DE9F0411B
:1054500007460E46154600F091F8C36804461BB98E
:1054600043691A78002A41D10023E3606368BB4294
:1054700056F8232008DB334B6361204600F064F8C4
:105480004FF0FF30BDE8F081511C616192F800805F
:10549000B8F12D0FEFD1911C616151782D29A160D8
:1054A00004D192786AB901336360E4E749B9254BC6
:1054B00041466361284608F0EBFF0028DDD0C4F8C0
:1054C0000880D4F808802846414608F0E1FFB8F18A
:1054D0003A0F636900D070B91B7813B96368013360
:1054E0006360204600F030F83F20CBE75A1C426151
:1054F0001B788360E5E742783A2A0BD000222261CC
:105500001B7813B9636801336360204600F01CF810
:10551000A068B7E719780B4A11B123616261F1E71E
:10552000636801339F42636002DD56F82330F4E77D
:1055300062612D7820463A2DD4D100F005F8284636
:10554000A0E700BF990A01000268074B1A60426891
:10555000064B1A608268064B1A60C268054B1A60D7
:105560000269054B1A607047740000207800002023
:10557000CC120020D0120020C81200200048704732
:105580005C00002008B5264A264B1A6000F068F837
:1055900041F6F871244AD2F8240601EA5031C0F3EA
:1055A0000803142083F48073883300FB0313590A23
:1055B00013F4807F13464FF47A601C4A18BF013100
:1055C000C2F80419D3F82016C1F30803C1F3094146
:1055D000414342F6041083F4807303F2172300FB67
:1055E00003134FF47A701B0AB3FBF0F100FB113385
:1055F000B3F5FA7F28BF01310D4BC2F81C171B68A9
:105600001C2B07D134220B4B1A600B4A136823F46E
:10561000002313600122054B0020C3F8002608BDBB
:105620000020A1071001002000C0FF000000125060
:1056300040C3FF00240612503C06125048B1054BEF
:105640001A68054BB2FBF3F2044B504343F00103DD
:10565000184770471001002040420F0010F800006A
:105660000122024BC3F80424704700BF002008E069
:10567000084B70B5C31A0D4607499B1004465943A1
:105680004022064807F0EDF92B4601462046BDE8CA
:1056900070401847E4120020B76DDBB6DCE900006B
:1056A00010B5EFF31184202383F31288BFF36F8FBB
:1056B000084A136823F00201DB07116005D40120BA
:1056C00008F03DFA0122044B1A6084F31188BFF3FD
:1056D0006F8F10BD341300200CE0105070B5002205
:1056E0000121044640F20510FFF7A2FB0F4801F02C
:1056F00045FD0F4B984215D101F050FD26690D492B
:10570000304605F0CDFB00280BDB0125356424690C
:10571000084904F11C0005F0C3FB002801DB002050
:10572000E56470BD6FF00400FBE700BF05580000A2
:105730000000AD0B18FD00000C23104A014603FBCE
:105740000023002030B4D3E90E529863EFF31180A8
:10575000202484F31288BFF36F8F1C6C04F0C00404
:1057600044F002041C6480F31188BFF36F8F1DB1F5
:105770002B4630BC0248184730BC7047E41200206A
:10578000DCE9000010B4EFF31180202282F31288CC
:10579000BFF36F8F17490B6843F0020413F0010346
:1057A0000C6017D0144BD3F80C3413F4803311D0A1
:1057B000EFF3118182F31288BFF36F8F0F4A136CDE
:1057C00003F0C00343F00203136481F31188BFF3B5
:1057D0006F8F012380F31188BFF36F8F1BB10020FF
:1057E00010BCFFF7A9BF0120054B186010BC01F0E9
:1057F000F1BC00BF3413002000E01050E412002080
:1058000008E0105010B1012804D07047034B1B6C06
:105810005B0701D1FFF790BF704700BFE412002083
:105820007FB500220123CDE9022304ABCDE9043387
:10583000094A6B46CDF800D0CDF804D007F04FF9F7
:10584000002805DB43F609520023684603F028FBD5
:1058500007B05DF804FB00BFD9CA00001A4BF0B4D2
:10586000C21A0D469110194A4A43D2B2EFF311867B
:10587000202181F31288BFF36F8F0C2404FB0234C4
:10588000216C01F00707012F11D140212164002173
:1058900086F31188BFF36F8F91B90C214A430C49ED
:1058A0001344C3E90E150B4BF0BC9B58184701F08D
:1058B000C001402914BF4FF0FF316FF07701E7E7D7
:1058C0002B46F0BC184700BFE4120020B76DDBB6D2
:1058D000BBCA000000FD00002DE9F8430122064686
:1058E0003549D1E8EF3FC1E8E02F0028F9D133B9BD
:1058F000324933484B60CB608A6005F0E4FA731E8E
:10590000012B2BD8012E06D12E4BD3F8503403F0A7
:105910000303012B22D008F0F7FA18B92A4B1B78A1
:10592000002B41D1EFF31189202383F31288BFF3B9
:105930006F8F0124234D254FA846D5F84C24D5F868
:105940004C34D2030CD503F00303012B01D0012EFC
:1059500006D12CB389F31188BFF36F8FBDE8F883AC
:10596000CCB1484606F0EDFED5F8403413F0FF0305
:10597000E3D13A68002AE0D03B603B682021012354
:10598000134AC5F84034C2F8A01102F1E242A2F174
:10599000F0121360D1E70021202008F06AFBE3E752
:1059A0000423C8F80433D9E70422064B0446C3F89D
:1059B00008238146BEE700BF38130020D412002020
:1059C0000013002000E01050B815002008E110502E
:1059D00000E100E008B5074808F00FFA38B10648C2
:1059E000FFF7F2FC0448FBF753FD002008BD6FF001
:1059F0001200FBE768EA0000FD5900000A2838B5EC
:105A00000446074D04D1AB680D215B6828469847D2
:105A1000AB68E1B25B6802489847204638BD00BFDA
:105A200068EA00004309022B70B503D0012B16D0A1
:105A3000BBB170BD0C4C236959680029F9D001260F
:105A400000F01F000D6886408A68324002D04B6823
:105A500020469847002DECD029462D68F4E7034CEA
:105A6000E9E7034CE7E700BF14EA0000F8E90000AB
:105A700030EA000038B545682B690BB9002038BD05
:105A80001035284602F064F804460028F6D1014695
:105A9000284602F019F80B4B984210D122462846AE
:105AA000094901F0E5FF22460121DB20FFF7C0F99B
:105AB0002246012140F20D10FFF7BAF9DEE76FF040
:105AC0000400DCE70000AD0B255A00002DE9F0438F
:105AD00040F206364568D00648BF4FF0030C2B7BDA
:105AE00002EA060658BFC2F3401C87B001F01F0748
:105AF000B6F5807F144647EA43178DF803C044D0BB
:105B000007D8022E16D0062E41D09EB16FF0150098
:105B100038E0B6F5007F3CD004D8B6F5837FF5D1E8
:105B2000092607E040F20222964234D0B6F5407FC3
:105B3000ECD105260123220303FA01F12DD56B6870
:105B40005960286970BB07F01F027F09022F77D8C0
:105B50003D4B84F4803153F82730C1F3004103EB0F
:105B60008202D2F88030C4F3404423F4706344EAE4
:105B7000410423F00F031C4344EA8C0444EA062446
:105B8000C2F8804007B0BDE8F0830126D2E70826BE
:105B9000D0E70426CEE70626CCE7630344BF6B6854
:105BA0009960CEE710350DF102023946284601F022
:105BB0006DFF14F4403F81460DD13946284608F068
:105BC00082F8224B994504D19DF80210284601F035
:105BD000CDFF0020D6E74FF0000801AB03AA3946FD
:105BE0002846CDE90438CDE90188CDF80C8001F0D4
:105BF000A1FD164B984289D114F4003315D09DF8BD
:105C0000033084F48034C4F300448DF80E3003AACA
:105C10004346394628468DF80C608DF80D4001F05A
:105C200089FE0A4B9842CCD070E7CDE9043303AA31
:105C30000DF1030339462846039301F07BFDF0E79D
:105C4000203250F82230FFDE3CFD00000000AD0B9A
:105C5000F0B5406801F01F04057B87B044EA4514A5
:105C60000569002D62D0B2F5001F00F1100506D1C4
:105C70002146284608F029F8002007B0F0BD00278B
:105C800001AEB2F5800F019777603AD1B3F1007F92
:105C90000CBF042305238DF804300023CDE90463F1
:105CA0000393836823FA01F111F001011BD1B2F1D2
:105CB000A07F18D1620904F01F03022A03F1200318
:105CC0003AD81F4951F8222052F82330DB070AD472
:105CD0000DF1030632462146284601F0D7FE194B46
:105CE000984219D0029603AA2146284601F022FDC7
:105CF000154B98421DD101222146284601F04AFF4A
:105D0000BAE7B3F1C06F05D0B3F1007F0CBF022337
:105D10000123C0E70323BEE73146284601F030FFE8
:105D2000094B9842DED06FF00B00A6E76FF08500BC
:105D3000A3E76FF01500A0E751F82330FFDE00BFA6
:105D40003CFD00000400AD0B0000AD0BB0B500AF92
:105D5000254C204608F051F80346002835D1234849
:105D60000268520711D021686C4688B06A46204DFF
:105D7000C2E905514FF4007191831E4942F8101F8A
:105D80004FF4E251FBF7F6FFA5466FF0120519E05C
:105D9000164803685B0715D023686C468AB06A46CC
:105DA0001549C2E905130123C2E907354FF4007311
:105DB0009384124B42F8103F00234FF43151FBF70C
:105DC000D9FFA5462846BD46B0BD2269A168136823
:105DD000204623F0020313600B680022012198473C
:105DE000051ED5DB0025EDE730EA0000C8020020E3
:105DF000F51D0100030000010C1E0100050000015B
:105E00008068054B984205D2044B984234BF00206D
:105E1000012070470020704790F4000078F40000E3
:105E200010B50C46064905F04AFF002328B1026868
:105E30002260E360C4E9013310BD1A46F8E700BFF1
:105E4000015E00002DE9F3414FF000085668074657
:105E500030461446CDF8048005F035FF054648B9B4
:105E600038463246174905F065FC6FF0120002B063
:105E7000BDE8F0810A224146A06808F05EFBAB68ED
:105E800041005B6801F00E04B3B101A928469847B0
:105E900090B9019921F00E0121430191AB68284688
:105EA0001B68984700280ADA38463246064905F04A
:105EB00041FC6FF00400DAE744F01001EDE7002048
:105EC000D5E700BFD81E0100FA1E01002DE9F04FF2
:105ED000044685B05068904605F0F5FE814650B9FD
