:10000000C8180020A92F00000D8C0000952F0000BB
:10001000952F0000952F0000952F0000952F0000D0
:100020000000000000000000000000005D30000043
:10003000952F00000000000005300000952F000003
:10004000CD310000CD310000CD310000CD310000B8
:10005000CD310000CD310000CD310000CD310000A8
:10006000CD310000CD310000CD310000CD31000098
:10007000CD310000CD310000CD310000CD31000088
:10047C00844641EA000313F0030349D1403A23D3E5
:10048C000B6803604B6843608B688360CB68C36008
:10049C000B6903614B6943618B698361CB69C361F0
:1004AC000B6A03624B6A43628B6A8362CB6AC362D8
:1004BC000B6B03634B6B43638B6B8363CB6BC363C0
:1004CC0040304031403ADBD230320BD30B68036002
:1004DC004B6843608B688360CB68C360103010310D
:1004EC00103AF3D20C3205D351F8043B40F8043BDC
:1004FC00043AF9D2043208D0D2071CBF11F8013BE0
:10050C0000F8013B01D30B8803806046704700BFA5
:10051C00082A13D38B07B1D010F00303AED0C3F16C
:10052C000403D21ADB071CBF11F8013B00F8013B96
:10053C00A4D331F8023B20F8023B9FE7043AD9D30D
:10054C00013A11F8013B00F8013BF9D20B7803702A
:10055C004B7843708B7883706046704753B94AB9B7
:10056C00002908BF00281CBF4FF0FF314FF0FF30AF
:10057C0000F070B9ADF1080C6DE904CE00F006F88E
:10058C00DDF804E0DDE9022304B070472DE9F04FFB
:10059C00099E04468946002B40F083808A4215460A
:1005AC0045D9B2FA82F24AB1C2F1200701FA02F33C
:1005BC009540944020FA07F747EA03094FEA154E95
:1005CC00230C1FFA85F8B9FBFEFC0EFB1C990CFBE7
:1005DC0008F143EA094399420AD9EB182CBF0120D0
:1005EC000020994202D9002800F01D810CF1FF3C3B
:1005FC00591AA3B2B1FBFEF00EFB101100FB08F868
:10060C0043EA0144A04505D92C1902D2A04500F2B9
:10061C000E810138A4EB080440EA0C4000271EB1FF
:10062C00D4400023C6E900433946BDE8F08F002AC8
:10063C0051D0B2FA82F2002A40F0AF80491B4FEA47
:10064C00154E1FFA85F80127230CB1FBFEFC0EFB9F
:10065C001C1108FB0CF043EA014398420AD9EB1831
:10066C002CBF01210021984202D9002900F0D7802B
:10067C000CF1FF3C191AA3B2B1FBFEF00EFB1011EA
:10068C0008FB00F843EA0144A04505D92C1902D215
:10069C00A04500F2C1800138A4EB080440EA0C40EC
:1006AC00BDE78B4208D9002E74D00027C6E90001A3
:1006BC0038463946BDE8F08FB3FA83F767B98B42F9
:1006CC00C0F0A480824240F2A1803846002EABD00C
:1006DC00C6E90049A8E7FFDEC7F12005BB4002FAD6
:1006EC0007FC01FA07F4EA4020FA05F8E94000FAA1
:1006FC0007FE1A4348EA04044FEA1248200C1FFA7A
:10070C0082F9B1FBF8FA08FB1A110AFB09FB40EA63
:10071C0001418B450AD951182CBF012300238B456D
:10072C0002D9002B00F088800AF1FF3AA1EB0B01F3
:10073C00A4B2B1FBF8F008FB101100FB09F944EA74
:10074C000141894504D9511801D289457BD801381A
:10075C0040EA0A40A1EB0901A0FB0C89494544463B
:10076C004B4602D306D1C64504D20138B8EB0C0473
:10077C0069EB0203002E5DD0BEEB040261EB0301BA
:10078C0001FA05F522FA07F3F94000271D43C6E9E3
:10079C00005149E73746304646E7C2F12000954004
:1007AC0001FA02F721FA00F34FEA154E24FA00F190
:1007BC001FFA85F894403943B3FBFEF00F0C0EFB87
:1007CC00103300FB08FC47EA03439C4507D9EB18A0
:1007DC002CBF012700279C4500D98FB30138A3EB10
:1007EC000C0389B2B3FBFEF70EFB173307FB08FCB7
:1007FC0041EA03418C4504D9691801D28C4525D8AE
:10080C00013FA1EB0C0147EA00471DE7841A61EB9D
:10081C0003030120994659E702382C443CE7ACF11C
:10082C00020C2B4426E7ACF1020C2B44E0E6023818
:10083C002C44EFE63746F7E6AAF1020A114475E7B5
:10084C0002382B44CBE70238114481E7023F29449C
:10085C00D7E700BF704700BF37B50F4809F0B3FBAF
:10086C00044698B10C4C0D4807F09DFCA568AB698B
:10087C00002BFCD00DF10701204698470028F6D13B
:10088C009DF80710EB6920469847F0E7044807F0FD
:10089C008AFC204603B030BD40A50000E4B7000040
:1008AC00CDB700002DE9F04F1F4691B002F00403C4
:1008BC000193C2F3C20301330593830705460E4629
:1008CC000392DDF868B040F08F81041D002840F0E1
:1008DC008E8101F007063444C6F108064FF0000A79
:1008EC004FF0FF32D1464FF004087B1ECDF808A024
:1008FC00CDF810A005B127600598002807DC8848C2
:10090C008742C0F0AA808748874280F0A68003996E
:10091C0011F0020E00F0C1804FF0010C601BBEF113
:10092C00000F00F0A080B0F5007FC0F09C806FF04D
:10093C00150058E020385A2834D8DFE800F060332E
:10094C003360333233333333706033606033606021
:10095C0060606060606060603333333333333344E2
:10096C0033333344444433333333603333333333EB
:10097C003333333333333633333333333333334427
:10098C0033363644444460365E3360332E362E3371
:10099C0033866D36333336336D0000204FF0000A4A
:1009AC000EE0013A4FF0000A29E013F8010C6C2814
:1009BC004DD113F8020C6C284FF00000824649D040
:1009CC004FF004082CE00CF1070B2BF0070B07344D
:1009DC000BF1080C24F0070465B106982044B042D2
:1009EC0004D96FF01B0011B0BDE8F08FDBE900AB50
:1009FC00C4E900AB4FF0000A08344FF0080813F8B4
:100A0C00010F002800F08280BAF1000F92D1252846
:100A1C00F5D14FF0010A01324FF00408EFE7002046
:100A2C00013C4444B4FBF8F408FB04F425B1A8EBF6
:100A3C00050EA644B645D4D800284AD0E3460598FE
:100A4C005BF8047B0138059054E75046A6E700207C
:100A5C008246E5E74FF00808E2E703994FF0000CF7
:100A6C0001F0020E5AE7B9F10F0F3FF660AFF5B186
:100A7C0010A901EB090EC0F387000EF8200C0EF83C
:100A8C00102CBCF1000F0ED060F07F000EF8200C83
:100A9C0002980130029009F10109C5F108000434F3
:100AAC00DC460690ABE7049801300490F3E7BCF108
:100ABC00000F01D00136EEE7019802360028EAD18A
:100ACC003846CDE9062307F061FADDE90623064432
:100ADC00E1E7B8F1040F08D10CF1040115B1DCF811
:100AEC000000206004348C4689E7B8F1080F7FF4CD
:100AFC001EAF0CF1070B2BF0070B0BF1080C1DB103
:100B0C00DBE90001C4E90001083478E7631BB3F5A5
:100B1C00806FBFF40CAF3DB9A6F10804E01862E792
:100B2C0008A40000C4C30000019A9B0828602B7025
:100B3C009DF810308AB16870EB70029BAB702BB1D2
:100B4C00002208A9C5F10100914509D14FF0000818
:100B5C00C5F1010A0DF1300B35E06B70019BEBE731
:100B6C0011F8013B13F0800F08D000EB040CB445D6
:100B7C0003F07F033FF635AF04F8013B0132E3E7A6
:100B8C00029B23B108AB13F90830002B19DB019B36
:100B9C00EBB118F80B3004F8013B00230AEB04020C
:100BAC001A44B2423FF61DAF08AA12F80820394683
:100BBC0004F8012B20461A460393FFF759FC039BBC
:100BCC001C4408F10108C145DAD1601B0BE708ABE6
:100BDC0013F80830019A55F8237045F8232038464D
:100BEC0007F0D4F9431CD9E76FF00D00FBE6072999
:100BFC003FF674AEF5E600BF2DE9F04F97B000AFAD
:100C0C007B62D7F880300546C3F3C003FA623B62BF
:100C1C0090F802B0B96249B98846047846780BEB73
:100C2C008404044446451CD8631BBB62BBF1000F13
:100C3C0020D0D7F8803003F00104EB78FB611BB1B6
:100C4C00D7F88030980717D4B4B9FB6A1BB1D7E931
:100C5C00092128469847BE6A30465C37BD46BDE838
:100C6C00F08F0134204607F091F90130044408F16B
:100C7C000108D7E75C46E0E72B783B619B00BB6142
:100C8C006B687B61BB6905EB030AFB6A002B40F0C8
:100C9C008480BE6A0AEB0B09002C5CD0D0461C4643
:100CAC00C84543D1D344D7F880304FF0000913F036
:100CBC00050F0CBF02230123FB62FB699945CBD2C4
:100CCC000BF1020B1BF8013CB84A55F82330934248
:100CDC00C0F05E81B64A93423A6A2CBF4FF00008CE
:100CEC004FF00108002A38D01BF802AC7869514645
:100CFC00BB6207F027FABB6A78B3E8468AB06A464B
:100D0C00AC4B53617B69C2E9063A4FF40073138410
:100D1C00A94B42F8103F00234FF41251A74801F0A1
:100D2C0079FBC546023E09F10109C6E718F8013BFB
:100D3C0055F8230007F02AF9D7F88430013043B175
:100D4C00D7F888309C423EBFD7F8843023F8140083
:100D5C0001340644A4E7CB46A5E7B8F1000F06D052
:100D6C00D7F88020D10706D4FB6AF61ADBE7D7F850
:100D7C0080209207D7D5184607F008F9D7F88430A9
:100D8C004BB1D7F888309C423FBFD7F88420431C26
:100D9C0022F8143001340644C5E7002C40F0EA80F8
:100DAC00BBF1000F5ED0D7F88030580700F1EC8013
:100DBC00A0460022DA440AF10203F9698A4254D3AC
:100DCC00D7F880204FEA41096E78D7F88010920747
:100DDC000AEB09033B6258BF4FEA580204EB0603C7
:100DEC0048BF0022C807DBB200F18D8011F0040F60
:100DFC0014BF414600216B70A970EA70B9697A6A18
:100E0C002846FB6A9847B0F1000AC0F2AF803B69F4
:100E1C006E702B70FB6985F802B0EB707A6A4146F4
:100E2C0007F14800FB6A9847061EFFF615AFBB6931
:100E3C00386A4B4403EB0B01D7E90923591AFB6AB7
:100E4C0098470028C0F294804FF0000B564406449B
:100E5C0007F1380AA34558D300217A6A0846FB6A81
:100E6C009847F9E6D8465C46A3E713F8016C4F485F
:100E7C0055F8261013F8029C814203D34C4881424A
:100E8C00C0F08D80396A41B30021F9607869494618
:100E9C00C7E9013207F056F9D7E90132D0B9F96840
:100EAC00D9B1D7F88010C90707D507F15800611CD4
:100EBC00044404F8206CCCB20CE0D7F8801048073E
:100ECC0008D507F1580008F10101804408F8106CAE
:100EDC005FFA81F8013202336FE7D7F88010890787
:100EEC00E3D407F15800404408F1010100F8109CCC
:100EFC0007F1580008F1020850FA81F15FFA88F8FE
:100F0C0001F8106CE6E7002175E71BF80A3087F84A
:100F1C00373055F82390D7F8843023B3D7F888307E
:100F2C009B4520D2D7F8843033F81B807A6A012194
:100F3C0007F13700FB6A9847002819DB0644B8F123
:100F4C00000F05D1484607F021F801301FFA80F850
:100F5C007A6A41464846FB6A9847002808DB0644F3
:100F6C000BF1010B76E74FF00008DFE7564673E60E
:100F7C00064671E65C464FF0000807F138005A4609
:100F8C005146FFF775FA14E7D84607F14800F6E723
:100F9C003A6A002A3FF4EBAE4FF00008A4E6396A37
:100FAC0000293FF47EAF396A6FE700BF08A4000048
:100FBC00C4C30000FFB7000004000001B0B0000083
:100FCC00014B1860704700BF0000002030B50024B2
:100FDC0087B0CDE903010546009403A905480594A3
:100FEC0000F06EF8DDE904309842B8BF2C5407B01D
:100FFC0030BD00BF8F810000F0B500230A270268C6
:10100C00064E11460C780132A55D6D0702D40160C5
:10101C001846F0BD07FB0343303BF2E7CDB60000AA
:10102C002DE9F74F14460193D378244A6F2B9F5C1C
:10103C008046894607F003072ED029D8582B0CBFC1
:10104C0010250A25AA464FF0000B0C9E52465B4613
:10105C0040464946FFF782FA092A06F1FF36D3B219
:10106C0021D83033D945DBB208BFD045337002D319
:10107C00019B9E4214D823789B0605D5082D17D1C9
:10108C00A37843F00803A370304603B0BDE8F08F9B
:10109C00702B03D0782BD2E70825D3E71025D1E7A6
:1010AC0080468946D2E7012F0CBF37335733D9E737
:1010BC00102DE9D1A37843F01003E4E7CDB600007E
:1010CC002DE9F04F81468A4616461C460025A3B0F2
:1010DC00307810B9284600F0A3BD252809D0514618
:1010EC00C8470028C0F29C85731C01350793079EE6
:1010FC00EEE71822002114A806F0F8FE7378252BD1
:10110C0055D0721C174612F8013B2B2B00F0878030
:10111C0075D8202B00F08880232B00F08A809DF856
:10112C00583003F04402442A03D16FF386138DF830
:10113C0058309DF85830129743F080038DF8583092
:10114C003B782A2B7AD19DF859307A1C43F0010355
:10115C008DF85930129213782E2B0CBF01210021DF
:10116C009DF8593061F341038DF859300BD1531C64
:10117C00129353782A2B75D19DF85930023243F0D3
:10118C0004038DF85930114611F8010B6A2800F050
:10119C00B58077D84C2800F0B98068287FD09DF8AE
:1011AC00593011466FF3C6038DF8593082E08DF833
:1011BC005B30B31C07939DF85930D80740F134814C
:1011CC0054F8042B002A069208DA9DF8582042F0B5
:1011DC0004028DF85820069A52420692590740F1A3
:1011EC002B8154F8047B002F80F22A819DF8593012
:1011FC006FF341038DF859304FF0FF3720E12D2B61
:10120C0006D0302B8BD19DF8583043F0400303E0CF
:10121C009DF8583043F004038DF8583072E79DF870
:10122C00583043F00803F7E79DF8583043F01003AB
:10123C00F2E79DF8583043F02003EDE712A8FFF7D2
:10124C00DBFE129ABA4285D09DF85830179043F0C5
:10125C008003C3F3400141EAD07161F341038DF87F
:10126C00583077E712A8FFF7C7FE9DF85830189052
:10127C00C3F3400242EAD07262F341038DF8583056
:10128C00129A80E774289DF859303DD07A2839D0CD
:10129C006C2884D150786C282ED1042105E0537829
:1012AC00682B9DF8593021D1012161F3C6038DF8CB
:1012BC005930911C0A4612F8013B672B07928DF8A6
:1012CC005B3056D8652B33D2582B00F086802AD849
:1012DC00412B2DD003D3A3F14502022A28D99DF826
:1012EC00583043F001038DF858305FE0022262F36E
:1012FC00C6038DF85930DDE70322F8E79DF8593025
:10130C000522F4E70622F2E70722F0E7BDF8583091
:10131C0023F4F04323F0020343F4804343F002032D
:10132C00ADF85830C6E7632B57D02AD8612BD6D1ED
:10133C0004219DF85A2003F0DF0361F30202A3F1AC
:10134C00410CDCF100038DF85A209DF8592043EB39
:10135C000C0363F3C712D3B28DF859201A0661D46B
:10136C0003F07802182A49D16FF3C6038DF859306F
:10137C001CE0702B22D01BD86E2B43D02DD8692BA0
:10138C00ADD101219DF85A2061F302028DF85A204B
:10139C009DF8592002F07802402A02BF9DF858109F
:1013AC0041F001018DF85810632B1AD000231BE07B
:1013BC00752B12D0782B10D0732B90D103229DF863
:1013CC005A3062F302038DF85A309DF8593013F0FD
:1013DC00780F14BF0123002306E09DF85A20022148
:1013EC00D2E7131C18BF01239DF85820C2F340010B
:1013FC000B4363F341028DF85820DCE613F0380FF1
:10140C00D4D06CE703229DF85A3062F302038DF8B6
:10141C005A309DF8593003F07803A3F140077B4212
:10142C007B41E1E70123DFE79DF95820002AB4BF97
:10143C00179A4FF0FF32D0E69A077FF5DDAE189F72
:10144C000023CDE917339DF85A3003F00703042B22
:10145C0009D19DF859309B0705D49DF95930002BC3
:10146C00B4BF0D2706279DF85A209DF8593002F07D
:10147C000702012AC3F3C30332D1DA1E042A1FD890
:10148C00DFE802F00307071E1E0054F8040BC11717
:10149C0004E0073424F00704F4E80201CDE9140158
:1014AC009DF858C01CF0030856D0079B3246514695
:1014BC00484606F0D2FE0028C0F2B283054416E678
:1014CC0054F8040B012B4FEAE071CDE9140102D161
:1014DC009DF95000DBE7022BE2D1BDF95000D6E7B5
:1014EC00022A29D1DA1E042A13D8DFE802F0030AF3
:1014FC000A12120000212068221D14901591144626
:10150C00CEE7073424F00702F2E80201CDE914011A
:10151C00F5E754F8042B012B14924FF000021592AE
:10152C0005D19DF85020149200221592B8E7022B99
:10153C00B6D1BDF85020F6E7042A07D1073424F0C1
:10154C000704F4E80201CDE91401A9E7032A04BF5A
:10155C0054F8042B1492A3E79DF85B20672A00F241
:10156C000E81652A0AD2472A00F2D980452A05D273
:10157C00252A00F02481412A7FF4B9ADDDE914015C
:10158C00002871F10003C0F2EE811CF0080F40F04E
:10159C00ED811CF0100F0CBF4FF000084FF020082D
:1015AC00C1F31303C1F30A5604900593DDE904015A
:1015BC00CDE91001002E40F0DC81DDE904310B4354
:1015CC0014BF4FF0010C4FF0000C059B0499DB028B
:1015DC0043EA5153C902CDE9101331430A91F11773
:1015EC000B43462A0B9308BF6622DDE90A0150EA39
:1015FC00010300F02F82BCF1000F10D0059B1903E2
:10160C00049B41EA135118030023CDE91001002873
:10161C0071F1000C80F2E2810BB1CDE91001109B4D
:10162C004FF0050C0293119BA6F2FE3643F00043DB
:10163C000393DDE90201CDE9100100218B46B01CBA
:10164C00C0F2D38119B1DDE90201CDE91001DDE968
:10165C001010002E00F3E681C6F1040611981099C3
:10166C00C6F1200EA6F1200CF14000FA0EFE41EA64
:10167C000E0120FA0CFC41EA0C0120FA06F6CDE929
:10168C00101602F0DF01472940F0EC811BF1030F2B
:10169C0002DB5F4580F2E281023A002FD2B200DD1C
:1016AC00013F9DF85810890600F1DC81002FD4BF52
:1016BC0000230123662A0C934FF0100140F0D481D3
:1016CC001BEB070640F1D18100260F9100204FF053
:1016DC000061CDE91201DDE91210013E731C40F0EE
:1016EC00C981109BCB181199089340EB0103099306
:1016FC00DDE90801B1F1805F08BF002880F0C681E8
:10170C00CDE91001662A40F04982BBF1000F00F3CD
:10171C00CD8130210DF16D068DF86C10D9E1612A67
:10172C003FF42CAF0DD8582A7FF4E1ACDDE914015D
:10173C000DF18503009316AA1BABFFF771FC8346D2
:10174C0060E0632A6FD0642A7FF4D1AC1CF0080FE0
:10175C0040F0ED801CF0100F0CBF4FF000084FF064
:10176C002008DDE91423002A73F10001DEDA52426D
:10177C0063EB4303CDE914234FF02D08D6E7702A11
:10178C0029D005D86E2A00F0D580CFD8692ADBE79E
:10179C00752ACBD0782AC9D0732A7FF4A8AC002F35
:1017AC00DDF850B013DB3946584606F01DFC4FF0FF
:1017BC0000080BEB0006BBF1000F3BD197E4514640
:1017CC001046C8470028C0F22B8201358FE45846DA
:1017DC0006F0DCFBEBE71498002800F011820DF109
:1017EC008503009316AA1BAB4146FFF719FC8346F1
:1017FC00BDF85A3003F0EF0343F4F04343F0100309
:10180C00ADF85A30002F0DF18506D4DB9DF8582029
:10181C00A6EB0B036FF386129F428DF85820CAD9A2
:10182C00FF1A1797C7E7149B0DF16D068DF86C30F6
:10183C000DF16C0BA6EB0B03B8F1000F00D00133CC
:10184C009DF85A20D70640F1E081023317990B44DA
:10185C00510644BF189A9B18069A002A22DDD31A07
:10186C009DF85820C2F38007002F40F0E08152060B
:10187C0040F1D981B8F1000F00F0D78151464046B4
:10188C000693C8470028C0F2CB81B8463027069B88
:10189C0001351D445A1E002BA5EB0300069200F3E4
:1018AC00B8810546B8F1000F06D051464046C847EE
:1018BC000028C0F2B58101359DF85A30580640F128
:1018CC0000829DF95930A5EB0B05002BC0F2B581B8
:1018DC009BF80000AF4B5F46C35C05EB0B08590748
:1018EC000BF1010B00F1C4819DF85A30DDF85CB0AE
:1018FC009A0609D45B460BEB0805002BA5EB0308F5
:10190C0003F1FF3B00F3BA8138782E280BD15146F6
:10191C00C8470028C0F28481BBF1000F08F1010810
:10192C0000F3B4810137BB46A8EB0705B8E14FF0D3
:10193C002B0816E7149A072B3FF6D9ABDFE803F018
:10194C00100407100A0A10101570FFF7D0BB158091
:10195C00FFF7CDBB2846E917C2E90001FFF7C7BB6B
:10196C001560FFF7C4BB4FF02D0819E64FF02B089C
:10197C0016E640F2FF739E422DD1864BD35CDDE917
:10198C0004120A4303F0030317D1012B0BBF44F6D7
:10199C00496346F66963ADF86C30ADF86C300CBF3A
:1019AC00462366238DF86E309DF858300DF16F0686
:1019BC006FF386138DF858303AE7012B0BBF44F2C6
:1019CC004E1346F26E13ADF86C30ADF86C300CBFA4
:1019DC004E236E23E6E74FF0000CF6E5001806F1F7
:1019EC00FF364941012312E67646029B06F1010EB1
:1019FC005908039B41EAC3715B080C93CDE90213B0
:101A0C000C98654B9842EFD8A1FB0C01CDE9020173
:101A1C00039B0C9902360CFB01330BF1FF3B039338
:101A2C0001210CE6023140F10000CDE9101010A8A4
:101A3C000C9206F0DCFBDDE910010C9A013E0BF177
:101A4C00010B00184941002871F1000306F1FF3623
:101A5C00F7DAFAE54FF0000B5E46FDE5A7EB0B0756
:101A6C0066221EE6002325E67E1C102E0F91A8BFD1
:101A7C0010262BE6490841EAC0714008CDE9121046
:101A8C0012A80D9206F0B3FB0D9A24E6089B0D925A
:101A9C005908099B0BF1010B580841EAC371CDE9B8
:101AAC00101010A806F0A3FB0D9A2BE61BAE0F9995
:101ABC0000290ADD0FA910A80D9206F0B7FBBBF1A7
:101ACC00010B06F8010B0D9AF1D1CDF85CB04FF07B
:101ADC00000B9DF85810890601D4002F1EDD2E2115
:101AEC0006F8011BBBF1000F13D0002F16DDCBF154
:101AFC000001B942A8BF394600291791A7EB01078D
:101B0C00D4BF002101219DF85A0061F345108DF8D6
:101B1C005A00002F02DD0F99002957DC0C9B002B7B
:101B2C0061D1189702F0DF01452921D13146BBF173
:101B3C00000F01F8022BB6BF2D222B22CBF1000B8C
:101B4C00BBF1630F727008DD6420BBFBF0F200FB8D
:101B5C0012BB02F13001B170F11C0A20BBFBF0F298
:101B6C0000FB12B302F1300630330E704B708E1C3A
:101B7C00179B002B42DC189B002BD4BF00230123A6
:101B8C009DF85A2063F3861200238DF85A20337087
:101B9C004EE600BFCDB60000323333330FA910A888
:101BAC000D9206F043FB9DF85810302818BF0BF12E
:101BBC00FF3B8B068DF86C000D9A01D4002F0FDDC6
:101BCC002E210DF16E068DF86D10A2E70FA910A84D
:101BDC000D9206F02BFB013F06F8010B0D9A98E7CE
:101BEC000DF16D069AE700211891314616F8010D9A
:101BFC003028FAD02E2818BF0E4693E70123BFE7F2
:101C0C004C4E8046A6F1050B14E6100748BF013375
:101C1C001CE651463846C8470028069BBFF63AAE2C
:101C2C0023B0BDE8F08F202733E6302731E606934A
:101C3C0038E65146C8470028F2DBD84605EB0B07BF
:101C4C001BF8010B7028F4D1189B03EB070BABEBC3
:101C5C000703002B2EDC334642465146484606F01D
:101C6C00FCFA0028DCDBC519069B2B441E465CE005
:101C7C005146C8470028BFF62BAED1E7514630205D
:101C8C00C84700285B46BFF638AEC9E7514630203E
:101C9C00C8470BF1FF3B3CE65146C8470028BFDB69
:101CAC00D84605EB0B07244B1BF8010BC35C5B07F9
:101CBC00F2D4C9E751463020C8470028B0DB0137C1
:101CCC00C5E7D90601D41A0705D551463020C847B7
:101CDC000028A5DB01359DF85A30DB0606D55146A8
:101CEC009DF85B00C84700289ADB0135179B03EB76
:101CFC000508A8EB0503002B09DC33465A46514670
:101D0C00484606F0AAFA00288ADB0544ACE751469F
:101D1C003020C847002883DB0135EAE751462020F4
:101D2C00C8470028FFF67CAF0135731B002BF5DC90
:101D3C00FFF7DDB9B8B80000CDB600002DE9F84FBB
:101D4C00B0F81890044619F008080DD001290CBF02
:101D5C0049F0100949F02009A0F8189082F3118875
:101D6C00BFF36F8FBDE8F88F09F00709022907D17F
:101D7C00204606F0FCFC0028F0D00128238B4AD129
:101D8C006769238B002F15DA2568C4E9008823F0D6
:101D9C00070343F0010323830026238B03F0070A78
:101DAC00CA4502D0A168002956D10DB9002E6CD0BD
:101DBC00002152E003F00701481F01281CD823F032
:101DCC000703062925689BB2C4E9008802D15DB9D6
:101DDC0043F002032383204606F0C9FC0028DBD025
:101DEC00238B43F02003D6E72946608B01306083B8
:101DFC0009680029F9D1EBE704290AD123F007037C
:101E0C0099B22183204606F0B2FC10B141F02001BA
:101E1C0021830025C0E7032809D1216923F007039A
:101E2C000E6843F00603002523832F46B5E70428EC
:101E3C0006D1216923F007034E6843F00403F2E74F
:101E4C00052806D1216923F007038E6843F00503AA
:101E5C00E9E700252E46E8E7012143F00803238338
:101E6C0082F31188BFF36F8FF1B97DBB16B1204996
:101E7C002046B047EFF31182202383F31288BFF37F
:101E8C006F8F238B23F008032383238BD90627D54D
:101E9C00012123F010032383B4F8189009F00709EB
:101EAC0000297FF463AF59E7A1680029DDD0D1F890
:101EBC000090D1F804B03B4652462046D847B9F1C1
:101ECC00000FD2D04946D9F80090F2E7D5F800902F
:101EDC0029463B465246204606F065FC4D46C4E773
:101EEC0013F020011EBF23F0200323830221D3E72C
:101EFC00DF87000030B5002289B00F490F4808F089
:101F0C0049FA002200230024CDE906230E230C4DB0
:101F1C00CDE90334CDE9014400940A4B4FF44072EF
:101F2C000949284605F0DCF90849284608F019F952
:101F3C00204609B030BD00BF5D1F0000A806002080
:101F4C00E006002069230000C80D0020B9B800008D
:101F5C00014804F0ADBF00BF8C0200202DE9F04712
:101F6C00054607464FF00108DFF84C9015B9384686
:101F7C00BDE8F08795FAA5F4B4FA84F408FA04F6EF
:101F8C00F643240109EB040A9AF80C303540002B77
:101F9C00ECD059F804301B6943B94C4463680422F3
:101FAC0019685046374006F0DAFCDFE75046984790
:101FBC000028DBD1F1E700BF30B100002DE9F84F6C
:101FCC0081462448884606F0AEFC002839D000250E
:101FDC002846BDE8F88FA4EB0B0362681B11013394
:101FEC001371237B7BB12368DB680BB120469847C8
:101FFC0063689F7123681B69DBB9636804221968E5
:10200C00204606F0ACFC013610345445E3D3B9F14C
:10201C00000FDDD0002DDAD02846FFF79FFF0546D4
:10202C00B8F1000FF6D0002140F2391008F032F967
:10203C00F0E7204698470028DFD007FA06F31D4347
:10204C00E1E7054C06460546A346DFF810A001273C
:10205C00DBE700BFD40A002030B1000040B1000023
:10206C00014B53F82000704778B1000008B530B12F
:10207C00044B1860084600F03FFC002008BD6FF0D0
:10208C001500FBE70400002010B5044C227812B9AF
:10209C00034804F00DFF0123237010BD580D0020E0
:1020AC008C02002010B50446094806F03CFC3CB1FB
:1020BC00084BD3E8EF2F013AC3E8E12F0029F8D100
:1020CC00054808F073F9BDE81040044804F0F0BE70
:1020DC00D00A0020C80A0020A80600208C0200208C
:1020EC000020044BD3E8EF2FC3E8E10F0029F9D10E
:1020FC0010467047D00A002070B5FFF7F1FF064676
:10210C00074C084DAC4200D370BD63685B792BB1B2
:10211C0023685B6813B13146204698471034F1E7C9
:10212C0030B1000040B1000010B5044C0449204609
:10213C0006F0B5F9034B1C6010BD00BF280200204F
:10214C0088B10000CC0A002008B50023064A0749D4
:10215C001370074A07481360074A1360FFF786FF9E
:10216C00BDE80840FFF7E0BF590D002040420F00CA
:10217C00D00A00202F890000C80A00200146002246
:10218C000023014806F0ADB928020020014806F0F2
:10219C0047BA00BF28020020024B0146186806F01F
:1021AC0090BA00BFCC0A0020014806F0C5BA00BFA7
:1021BC00280200202DE9F8432A4B187800284ED02D
:1021CC00FFF7E4FF0546002845D1274B274C1B6839
:1021DC00002B1DDD08F0DCF84FF47A73A0FB0389AB
:1021EC0003FB019947F61222002340464946FEF7AD
:1021FC00B5F9D4E90032C61A4FF0000361EB0207BF
:10220C004FF47A72BB4208BFB24201D2FFF774FF9F
:10221C00D4E9003213F57A7342F10002C4E90032BA
:10222C00BDE8F843FFF7C0BF63685B7923B123684F
:10223C0029461B682046984710344445F4D3284659
:10224C00FFF7AAFF0A4BD3E8EF2F013AC3E8E12FBF
:10225C000029BAD0F7E7074CDFF81C80EDE7BDE8A2
:10226C00F88300BF580D0020D00A0020A0060020E3
:10227C00C80A002030B1000040B1000013B5184866
:10228C0006F051FB174B1B7873B1EFF3118420232D
:10229C0083F31288BFF36F8FFFF78CFF84F31188E1
:1022AC00BFF36F8F02B010BD0F4B1B68002BF9D022
:1022BC0050B9002200230D48CDE9002347F6122225
:1022CC00002305F0BDFDEDE70928EBD1074808F028
:1022DC006DF8074802B0BDE8104004F0E9BD00BF3E
:1022EC00C80A0020590D0020D80A0020A80600209A
:1022FC008C02002010B5064B04461B6898472146FB
:10230C00A060044806F06DF9BDE81040FFF7B6BFB9
:10231C00040000202802002070B50D4D297861B909
:10232C000120FFF74BFE0B4C0B4EB44206D3FFF7CC
:10233C0041FF0028FBD101232B7070BD63685B79D2
:10234C001BB1236820469B6898471034EDE700BF0B
:10235C00590D002030B1000040B1000000212DE9E2
:10236C00F0470846FFF72AFE044648B340F21B66C6
:10237C00002705F05FFA1B4B186030B11A4B1B6835
:10238C00092B02DD194804F093FD0025DFF8649059
:10239C00DFF858A044B12046FFF7E0FD044618B919
:1023AC004FF0FF364FF0FF37FFF704FF804628B998
:1023BC00B5B932463B46504604F0AEFD4546E9E71A
:1023CC004FF0FF364FF0FF37D3E72B689B691BB1FB
:1023DC00002228461146984710354D45F5D3E8E7BD
:1023EC00034DFAE7D80A0020C80A00208C0200200E
:1023FC0030B1000040B10000044A054B9B1AB1EB10
:10240C00D30F34BF52F8310000207047A8B0000041
:10241C0030B100002DE9F04F8FB0C1F34A2804AF62
:10242C00F8609246BB600C46B8F1000F5CD00025FA
:10243C000423C7E907557D6202930A2307F11406AA
:10244C000093019607F11C032A4641465046FEF7BD
:10245C00D3FBB0F5006FC34603461BD36C468AB062
:10246C00DAF8043004AA2549C2E9051340F2FF73D7
:10247C00D3614FF400731384214B42F8103F4FF497
:10248C0012512B461F48FFF7C5FFA5462C37BD46FA
:10249C00BDE8F08FC0F30A0868F3532400EB145026
:1024AC00173020F0070080087B60FFF767FE81463D
:1024BC0088B17B6800F11002C7E908350423FA6182
:1024CC00CDE901630A23104A0093594607F11C0316
:1024DC005046FEF791FB68F35324BB682246F9681B
:1024EC00484606F05BFAD1E7080D173020F00700DC
:1024FC008008FFF743FE8146EDE700BFCEB8000031
:10250C0004000001E8B000007D8900002DE9F04FC7
:10251C0087B08346DDE91267884692469946109C3F
:10252C00AEB1102100973346119A00200597FEF7A3
:10253C00B9F9B0F5006F01460AD340F2FF73174AA0
:10254C000221174806F07BFA07B0BDE8F08F314640
:10255C00002504F1170008446FF307056BF3C5055C
:10256C0020F007006AF38815800861F35325039166
:10257C00FFF704FE64F31F55044638B136B10097DB
:10258C003346119A03991030FEF78CF94B462A46C4
:10259C004146204606F002FAD6E700BF0DB900000E
:1025AC00E8B00000406820B1034BC01A40F3CF00E4
:1025BC0070474FF0FF307047A8B000000EB403B561
:1025CC0003AB53F8042B01460448019306F068FA58
:1025DC0002B05DF804EB03B0704700BFBB8A00008B
:1025EC002DE9F04F8BB098469DF854300446049377
:1025FC00169B0F460793179B92460593189B199EA3
:10260C000693049B002B00F0EF8006F00103089367
:10261C0006F4807306F0020906F0080B099306F025
:10262C009CF920B1024687492046FFF7C7FF0546B3
:10263C00B9F1000F09D016F0440F40F0A8803A46CB
:10264C0081492046FFF7BAFF0544089B5BB17F4BDD
:10265C00049A7F4953F822207E4B2046002A08BF5B
:10266C001A46FFF7ABFF099B002B18BF4FF0000871
:10267C00BBF1000F00F0B680774B049A774953F802
:10268C0022202046FFF79AFF0746BAF1000F05D02B
:10269C00524673492046FFF791FF0744B8F1000FEB
:1026AC0005D042466F492046FFF788FF07446E4825
:1026BC003D44079B1BB122466C4905F014FD069B5B
:1026CC00002B4CD0DFF8C881069F102F28BF102795
:1026DC00F30606D4B00640F18F8065492046FFF71B
:1026EC006DFF4FF0000A554500F388804FF000094C
:1026FC00DFF8A0A1DFF8A0B14F4540F28F80059B19
:10270C00594613F809202046FFF758FF09F1010933
:10271C00B9F1100F79D157492046FFF74FFF4FF011
:10272C00000BDFF878A15F4540F28680059B51468F
:10273C0013F80B20504B2046D35C13F0970F08BFB7
:10274C002E22FFF73BFF0BF1010BBBF1100F6AD1EF
:10275C00059B3B440593069BDB1B0693B4D1049B62
:10276C007BB1F10704D53B4A39492046FFF726FFD8
:10277C00F20606D4B3064CBF3D4940492046FFF74C
:10278C001DFF20460BB0BDE8F04F06F07CB93C4B6A
:10279C00186800283FF458AF3A4B4FF47A711B6815
:1027AC004FF4616CB7FBF3F7B7FBF0F300FB137757
:1027BC004F43B3FBFCF2B7FBF0F94FF03C0E0CFBB4
:1027CC00123C00FB1977BCFBFEF34F43B7FBF0F751
:1027DC000EFB13C1CDE90197009120462A49FFF762
:1027EC00EDFE31E75F4650E71F48284B049DB8F1DA
:1027FC00010F18BF18465CE720496FE74146204699
:10280C00FFF7DCFE0AF1010A6DE719F0070F7FF400
:10281C0073AF41462046FFF7D1FE6DE75146204687
:10282C00FFF7CCFE72E71BF0070F7FF47CAF41463D
:10283C002046FFF7C3FE76E741462046FFF7BEFE73
:10284C0081E700BF4AB900004EB900009CB10000FE
:10285C00D0C0000045B90000B0B1000073B9000051
:10286C0079B900007DB90000BB8A0000AD8A000078
:10287C0083B900008FB90000CDB6000082B900000A
:10288C00DC0A0020E00A002057B90000E98A0000A9
:10289C008DB900008BB9000085B9000091B900001A
:1028AC0042F20F7373B58B4228BF0B460568044682
:1028BC000E4A0521684605F083FC064663682846E7
:1028CC005B680B220A4906F0D0F863683246694609
:1028DC0028465B6806F0C9F863681B225B680549EB
:1028EC00284606F0C2F802B070BD00BF75C10000EA
:1028FC00B0B9000094B9000001230021074A10B5BB
:10290C00074C1360A04204D801B11360054B18604A
:10291C0010BD40085B000121F4E700BFE00A002075
:10292C0040420F00DC0A00202DE9F34143680DF111
:10293C0007011C681048656806F031F930B99DF83C
:10294C000710012902D10C4800F030F801232B7537
:10295C0025682F68D5E90136D3E9004824B96B689E
:10296C001C6002B0BDE8F081214630464246B847B3
:10297C00241A0644F2E700BF58A50000F8B50D462E
:10298C000446064F4618B44201D12846F8BD14F847
:10299C00011BBB680148DB699847F4E758A50000A8
:1029AC00014B036000207047F8B1000070B544691A
:1029BC000D4694B31D4A2379565CB34230D01C4A61
:1029CC00525C9A422FD1A3689847002810DA022D46
:1029DC000CD0032D0BD110F1860F07D0D4E8EF3FAC
:1029EC0043F00203C4E8E23F002AF6E7267170BD0B
:1029FC00022D26710FD1D4E8EF3F23F00403C4E875
:102A0C00E23F002AF7D1D4E8EF3F23F00203C4E8F9
:102A1C00E23F002AF7D10020E9E76FF05700E6E724
:102A2C006FF07700E3E76FF08500E0E7FAB900009C
:102A3C00F6B900002DE9F047804600AF0C4600299E
:102A4C0036D0D1E90012E9468AB0A3686D464FF042
:102A5C00050A2E461F48C5E90723C5E9050146F8B6
:102A6C0010AF002332464FF421511B48FFF7D2FC24
:102A7C00D4E90312CD466369AD461848C5E907236E
:102A8C00C5E90501C5F810A0002332464FF42151C9
:102A9C001148FFF7BFFCCD46E369114A01210E48EE
:102AAC0005F0CDFFA3690F4A01210B4805F0C7FFC4
:102ABC00B8F1010F07D1EFF305830B4A103B4146E8
:102ACC00054805F0BCFF2146404603F0CFFEBD464D
:102ADC00BDE8F0871DBA000008B100004CBA000038
:102AEC007BBA00008ABA0000B8BA000030BFFFF70A
:102AFC00FDBF00BF054B5A699B689A421FBF044A31
:102B0C00536843F080535360704700BF200D002082
:102B1C0000ED00E010B5244C2449254806F077F868
:102B2C00A26A91013ED52248224906F070F81E2077
:102B3C00A36ADA0104D51E481F4906F068F81F2065
:102B4C00194CA26AD30204D519481C4906F05FF847
:102B5C000220A36A1C0304D51548194906F057F83E
:102B6C002120114CA26A510304D51148154906F0D5
:102B7C004EF82220A36A9A0304D50D48124906F098
:102B8C0046F82320084CA36ADB0304D508480F49F8
:102B9C0006F03DF82420A36A6FEA03436FEA13435F
:102BAC00A36210BD1D20C3E700ED00E02BBC0000AC
:102BBC0008B1000043BC000056BC000070BC000013
:102BCC009ABC0000B8BC0000DDBC0000F7BC0000E3
:102BDC0070B52A4C06460D4629482A4906F017F8C6
:102BEC00A26AD10432D52648274906F010F81720DE
:102BFC00A36A1A0504D52248244906F008F81820BF
:102C0C001E4CA36A9B0508D51D48214905F0FFFF02
:102C1C00A36BA26A10041BD41920184CA36A590583
:102C2C0004D517481B4905F0F2FF1A20A36ADA05F0
:102C3C001AD51348184905F0EAFF1B200F4A936A6E
:102C4C0043F47F43936200232B7070BD1620CFE7B3
:102C5C00124A01210A4805F0F2FE002EDCD0A36ACC
:102C6C0023F40043A362D7E7A36A9B04E6D5044888
:102C7C000B4905F0CCFF1C20E0E700BF00ED00E0A5
:102C8C0008B10000CBBA0000E1BA0000F2BA0000B3
:102C9C0005BB000033BB00004EBB00001EBB000098
:102CAC0066BB000070B52B4C06460D462A482B49D6
:102CBC0005F0ADFFA26AD3063ED52748284905F09A
:102CCC00A6FF1120A36A1C0704D52348254905F04B
:102CDC009EFF12201F4CA36A990708D522491E4853
:102CEC0005F095FF636BA26A120627D41320194CCA
:102CFC00A26AD60704D518481C4905F088FF142091
:102D0C00A36A9C0604D51448194905F080FF1520C8
:102D1C00104B9A6AD10658BF9A6A9A6A920642BFB9
:102D2C005A6A22F400525A620A4A936A43F0FF0329
:102D3C00936200232B7070BD1020C3E70D4A012154
:102D4C00054805F07CFE002ED0D0A36A23F080034A
:102D5C00A362CBE700ED00E008B1000095BB0000DA
:102D6C00ABBB0000F2BA0000DEBB00000CBC0000E4
:102D7C0066BB0000F6BB00002DE9F0438BB06D4B39
:102D8C0000AFD3F804800025C8F3080685F311883A
:102D9C00BFF36F8F02F07F43B3F17F4F07D102F087
:102DAC000C03082B05D16449644805F030FF2C4610
:102DBC0004E012074EBF0C46044601250023FB71AC
:102DCC00F31E092B00F29580DFE803F0058B8E884B
:102DDC009393939393914FF0000959495748DFF817
:102DEC00548105F014FF87F80790D8F82C6016F082
:102DFC00020604D05349514805F009FF09E0D8F800
:102E0C002C30002B01DA5049F5E7D8F82C305B0058
:102E1C0001D4002330E04D49484805F0F8FED8F8BD
:102E2C001430A26943F48073C8F81430BFF34F8F89
:102E3C00BFF36F8FD8F8143032F8022C23F4807360
:102E4C00C8F81430BFF34F8FBFF36F8F4DF602737A
:102E5C009A420AD0D8F8283013F0FF0F2ED0012058
:102E6C00F91DFFF71FFF034606E02368384A0121CE
:102E7C00324805F0E4FD2368FA79DAB907F108065F
:102E8C0004F1200C324620686168083403C26445A2
:102E9C001646F7D17A6A002D47D0C2F3080121B942
:102EAC006FEA52226FEA42227A6207F10801184651
:102EBC00FFF7C0FD2C37BD46BDE8F083D8F82830AD
:102ECC0013F47F4F04D00120F91DFFF781FECAE7F0
:102EDC00D8F828301B0C1B04002B9AD0FFF71AFED5
:102EEC00C1E7F91D0020BCE7F91D0020EDE71949E9
:102EFC0081E7194A18F4F87FE8468AB0174B18BFD7
:102F0C0013466A461649103EC2E905134FF4007386
:102F1C001384144BD66142F8103F00234FF4115127
:102F2C000648FFF777FAC54673E722F4FF7222F0E2
:102F3C000102B9E700ED00E050BD000008B100004F
:102F4C007BBD000092BD0000B3BD0000C1BD000000
:102F5C00E0BD0000FCBD000037BD000022BD00003C
:102F6C0020BE000004000001064B5A6942F010021A
:102F7C005A615A6942F480625A615A6922F0080215
:102F8C005A61704700ED00E0EFF30880EFF3098120
:102F9C0001B57246FFF7F0FE01BD00BF01F0F0FF76
:102FAC00202080F3118808484FF40061401880F30A
:102FBC000988EFF314800221084380F31488BFF3CF
:102FCC006F8F00F08DF80000081A0020084B9B68EA
:102FDC0083420BD1EFF3058343B1064B5A6842F0A1
:102FEC0080525A605A6A22F400425A6204F028BC99
:102FFC00200D002000ED00E013498A684FF03000EE
:10300C001044EFF3098C80E8F01F202080F3128825
:10301C00BFF36F8F0D4F4FF000664A698A603E60B8
:10302C00506F0023536780F3118802F1300090E851
:10303C00F01F8CF3098802F1000004B505F0EFFDD8
:10304C00BDE8044070470000200D002004ED00E0B6
:10305C001EF0040F0CBFEFF30880EFF309808169B9
:10306C0011F8021C0229FFD001B5724605F0C4FD0F
:10307C0001BD00BF03B2002B08DB012200F01F00D2
:10308C0002FA00F0024A5B0942F82300704700BFC5
:10309C0000E100E0054B420953F82220012300F027
:1030AC001F0003FA00F01040704700BF00E100E081
:1030BC0003B2002B01F10101A8BF03F160434FEAF9
:1030CC004111B8BF054BC9B2ABBF03F5614300F06A
:1030DC000F0083F800131954704700BF14ED00E083
:1030EC000F4A08B50F4B22F07F029A60BFF34F8F47
:1030FC00BFF36F8FD3F8882022F47002C3F88820B6
:10310C00EFF3148323F0040383F31488BFF36F8F5E
:10311C0003F098FC04F0C8FC00F042F803F0D2FC79
:10312C000000000000ED00E042F8203C009B0B4941
:10313C0042F81C3C019B21F0010142F8183C029B17
:10314C0042F8081C42F8143C4FF0807342F8043CDF
:10315C000023203A02654367704700BFE7810000F7
:10316C0000B5094B0E4698601546436E83F30B88E9
:10317C002C4686F309880020044B984720460021F2
:10318C0000220023024C2047200D0020338C00002D
:10319C00E78100001022014B1A61704700ED00E03E
:1031AC000023202040F20F1210B5044CE11801331B
:1031BC00934281F80003F9D110BD00BF00E100E09B
:1031CC0008B5EFF30583064A103B02EBC30152F836
:1031DC00330049688847BDE80840FFF78BBC00BF47
:1031EC00A8A600001FB5094C094A2346012109482D
:1031FC0000F008F900230393074B0121E41A01A8FE
:10320C000193029400F008F904B010BD00F0022004
:10321C0000000020F8B10000A002002010B50C7ACC
:10322C000B6823F01F0204F01F031A43CB686409D8
:10323C0023F01F03044943EA440343F0010388606D
:10324C00CA600B6110BD00BF90ED00E010B5094BDA
:10325C001B68C3F30723013B984208D9064A03466F
:10326C000121064805F0EBFB6FF0150010BDFFF7D0
:10327C00D5FFFBE790ED00E07DBE000000B1000043
:10328C002DE9F04F8846144606460027504D85B070
:10329C00474527DAD6F80490B9F1000F43D0B9F1BD
:1032AC001F0F17D919F01F0F14D1D6F800A01AF060
:1032BC001F0F0FD1504605F0D9FC834609EB0A00CD
:1032CC00013805F0D3FC834510D06FF0150B414A43
:1032DC005B4601E03B46404A0121404805F0AFFB0C
:1032EC006FF01504204605B0BDE8F08F1BF1160FEA
:1032FC00EDD05C45EBDDC5F808B0E968C5F808B061
:10330C002B6921F01F0143F01F0AD6E900321A4441
:10331C00994202F1FF391BD1CA4507D131465FFAF8
:10332C008BF005F0ACFC01370C36B1E73146C5F833
:10333C0008B0EB6822F01F0203F01F031A43EA6087
:10334C00E0B205F09CFC10F1160FC9D0441CEAE762
:10335C00013BCA45E0B223F01F03C5F808B006D103
:10336C002A69314602F01F0213432B61E9E72969F0
:10337C0001F01F010B432B61314605F080FC10F16D
:10338C00160FADD0C5F808B0EA689DF808300AF100
:10339C00FF3A62F304038DF808302B699DF808207E
:1033AC005B0863F347128DF80820D6E9003213440A
:1033BC00009323F01F035344A3EB0903013023F0C4
:1033CC001F036946C0B20393FFF740FFBBE700BF82
:1033DC0090ED00E05ABE000037BE000000B10000C6
:1033EC000522034B5A60BFF34F8FBFF36F8F7047AB
:1033FC0090ED00E0BFF35F8F0022014B5A607047E5
:10340C0090ED00E010B5034C2278FFF739FF2070E7
:10341C0010BD00BF5B0D00202DE9F74F254C8A46EF
:10342C0080460027A1464FF0140B234D57451ADA5E
:10343C00D8F804300193002B36D0D8F80010084689
:10344C00009105F013FCDDE900130646581801380D
:10345C0005F00CFC8642194A08D014235F436FF028
:10346C00150349F8073003B0BDE8F08F16F1160FBD
:10347C002660F8D01378B342F5DD0BFB0793AE60F2
:10348C00AE60E868197B60F3040119732969187B35
:10349C00490861F347101873EB6823F01F0363604E
:1034AC002B6923F01F0323610137143408F10C0836
:1034BC00BCE700BF080B002090ED00E05B0D002086
:1034CC002DE9F043424C434E22683768C2F3072281
:1034DC00974287B078D80025FFF78CFF3E4B2363CB
:1034EC00AF4217D13D4D01A82F70FFF759FA0026B6
:1034FC0007464FF04109DFF8E880B74212D10021AE
:10350C002B782268C2F30722934259DBFFF768FF3E
:10351C0000203FE07168284601EB0511FFF77EFEA5
:10352C000135DDE7DDF804C031010CEB0103DA688D
:10353C0002EA0802B2F5001F15D0B2F5800F2CD0AC
:10354C00B2F5801F3AD158685CF801209B68CDE930
:10355C0002022122013B20F01F010B4423F01F0328
:10356C008DF810200DE058685CF801209B6820F065
:10357C001F01013BCDE902020B4423F01F038DF820
:10358C00109002A928780593FFF760FE002812DA44
:10359C006FF0150007B0BDE8F08358689B685CF8C5
:1035AC000120013B20F01F010B44CDE9020223F066
:1035BC001F030622D4E72B7801332B7001369CE7CE
:1035CC00A360216101339CE74FF0FF30E2E700BFBD
:1035DC0090ED00E004B20000AAFF44005B0D002057
:1035EC000000F0FF014B1860704700BF1000002076
:1035FC0008B5264A264B1A6000F0C8F841F6F87157
:10360C00244AD2F8240601EA5031C0F308031420EE
:10361C0083F48073883300FB0313590A13F4807FFF
:10362C0013464FF47A601C4A18BF0131C2F80419D2
:10363C00D3F82016C1F30803C1F30941414342F604
:10364C00041083F4807303F2172300FB03134FF46D
:10365C007A701B0AB3FBF0F100FB1133B3F5FA7F60
:10366C0028BF01310D4BC2F81C171B681C2B07D14E
:10367C0034220B4B1A600B4A136823F4002313609B
:10368C000122054B0020C3F8002608BD0020A1072D
:10369C00C800002000C0FF000000125040C3FF0013
:1036AC00240612503C06125048B1054B1A68054BC3
:1036BC00B2FBF3F2044B504343F00103184770473D
:1036CC00C800002040420F0060B10000F0B5114D61
:1036DC00114E124F85B04FF0FF334FF0FF3201A95E
:1036EC00284603F0AFFA034690B101213A460C4844
:1036FC0005F0A5F9EFE7236813B1019A934203D1C2
:10370C00D4E9013101A898470C34B442F3D3E2E771
:10371C00044CFAE76402002040B10000E8BE00004F
:10372C00E0B0000040B1000030B585B001909DF8CC
:10373C002000DDE90A45039354EA05038DF80800DF
:10374C008DF80910ADF80A2004D004F073F80B4B77
:10375C00834201D100240025094822462B4601A9A9
:10376C0003F018FA041E07DA064A0221064805F08F
:10377C005DF9204605B030BD0024FAE78809002029
:10378C0064020020B6BE0000E0B000000122024B33
:10379C00C3F80424704700BF002008E0084B70B544
:1037AC00C31A0D4607499B1004465943402206484C
:1037BC0005F08EFA2B4601462046BDE870401847AE
:1037CC002C0B0020B76DDBB6E0A4000010B5EFF3B6
:1037DC001184202383F31288BFF36F8F084A136878
:1037EC0023F00201DB07116005D4012006F08DFAED
:1037FC000122044B1A6084F31188BFF36F8F10BD44
:10380C007C0B00200CE0105070B500220121044606
:10381C0040F20510FFF74CFC0F4801F0B9FC0F4BC0
:10382C00984215D101F0C4FC26690D49304604F0CC
:10383C00ECFF00280BDB012535642469084904F1F1
:10384C001C0004F0E2FF002801DB0020E56470BDE1
:10385C006FF00400FBE700BF3D3900000000AD0B2A
:10386C0044B200000C23104A014603FB0023002045
:10387C0030B4D3E90E529863EFF31180202484F313
:10388C001288BFF36F8F1C6C04F0C00444F0020468
:10389C001C6480F31188BFF36F8F1DB12B4630BCB5
:1038AC000248184730BC70472C0B0020E0A40000E5
:1038BC0010B4EFF31180202282F31288BFF36F8FC4
:1038CC0017490B6843F0020413F001030C6017D086
:1038DC00144BD3F80C3413F4803311D0EFF3118163
:1038EC0082F31288BFF36F8F0F4A136C03F0C0037F
:1038FC0043F00203136481F31188BFF36F8F01232C
:10390C0080F31188BFF36F8F1BB1002010BCFFF741
:10391C00A9BF0120054B186010BC01F065BC00BFAD
:10392C007C0B002000E010502C0B002008E0105005
:10393C0010B1012804D07047034B1B6C5B0701D1FD
:10394C00FFF790BF704700BF2C0B00201FB5002263
:10395C000123CDE902236B46084ACDF800D0CDF8FF
:10396C0004D005F0F3F9002805DB43F609520023D7
:10397C00684603F0D1FA05B05DF804FB538D0000E6
:10398C001A4BF0B4C21A0D469110194A4A43D2B2DE
:10399C00EFF31186202181F31288BFF36F8F0C2473
:1039AC0004FB0234216C01F00707012F11D14021D7
:1039BC002164002186F31188BFF36F8F91B90C211C
:1039CC004A430C491344C3E90E150B4BF0BC9B58EE
:1039DC00184701F0C001402914BF4FF0FF316FF0C0
:1039EC007701E7E72B46F0BC184700BF2C0B0020F3
:1039FC00B76DDBB6358D00002CB200002DE9F84315
:103A0C00012206463549D1E8EF3FC1E8E02F0028F6
:103A1C00F9D133B9324933484B60CB608A6004F03A
:103A2C0007FF731E012B2BD8012E06D12E4BD3F87A
:103A3C00503403F00303012B22D006F08CFB18B991
:103A4C002A4B1B78002B41D1EFF31189202383F3F0
:103A5C001288BFF36F8F0124234D254FA846D5F84C
:103A6C004C24D5F84C34D2030CD503F00303012BB2
:103A7C0001D0012E06D12CB389F31188BFF36F8FBF
:103A8C00BDE8F883CCB1484605F0E1F8D5F84034F0
:103A9C0013F0FF03E3D13A68002AE0D03B603B68A7
:103AAC0020210123134AC5F84034C2F8A01102F1B9
:103ABC00E242A2F1F0121360D1E70021202006F0BF
:103ACC00E9FBE3E70423C8F80433D9E70422064BE7
:103ADC000446C3F808238146BEE700BF800B0020D4
:103AEC001C0B0020480B002000E01050C10D0020E2
:103AFC0008E1105000E100E008B5074806F063FA51
:103B0C0038B10648FFF76EFD0448FDF759FA00205E
:103B1C0008BD6FF01200FBE758A500002D3B00001C
:103B2C000A2838B50446074D04D1AB680D21DB6972
:103B3C0028469847AB68E1B2DB69024898472046B3
:103B4C0038BD00BF58A500004309022B70B503D047
:103B5C00012B16D0BBB170BD0C4C236959680029E0
:103B6C00F9D0012600F01F000D6886408A683240AB
:103B7C0002D04B6820469847002DECD029462D6882
:103B8C00F4E7034CE9E7034CE7E700BF10A500009E
:103B9C00F8A4000028A5000038B545682B690BB9BE
:103BAC00002038BD1035284601F0DCFF0446002803
:103BBC00F6D10146284601F091FF0B4B984210D1EB
:103BCC0022462846094901F05DFF22460121DB20EF
:103BDC00FFF76EFA2246012140F20D10FFF768FA4A
:103BEC00DEE76FF00400DCE70000AD0B553B000096
:103BFC002DE9F04340F206364568D00648BF4FF039
:103C0C00030C2B7B02EA060658BFC2F3401C87B09C
:103C1C0001F01F07B6F5807F144647EA43178DF86D
:103C2C0003C044D007D8022E16D0062E41D09EB128
:103C3C006FF0150038E0B6F5007F3CD004D8B6F52F
:103C4C00837FF5D1092607E040F20222964234D058
:103C5C00B6F5407FECD105260123220303FA01F1CE
:103C6C002DD56B685960286970BB07F01F027F095E
:103C7C00022F77D83D4B84F4803153F82730C1F3B1
:103C8C00004103EB8202D2F88030C4F3404423F4A9
:103C9C00706344EA410423F00F031C4344EA8C0490
:103CAC0044EA0624C2F8804007B0BDE8F083012640
:103CBC00D2E70826D0E70426CEE70626CCE7630336
:103CCC0044BF6B689960CEE710350DF1020239469E
:103CDC00284601F0E5FE14F4403F81460DD13946EB
:103CEC00284606F0D6F8224B994504D19DF80210CF
:103CFC00284601F045FF0020D6E74FF0000801AB45
:103D0C0003AA39462846CDE90438CDE90188CDF817
:103D1C000C8001F019FD164B984289D114F4003334
:103D2C0015D09DF8033084F48034C4F300448DF82E
:103D3C000E3003AA4346394628468DF80C608DF8A0
:103D4C000D4001F001FE0A4B9842CCD070E7CDE952
:103D5C00043303AA0DF1030339462846039301F0FB
:103D6C00F3FCF0E7203250F82230FFDE5CB20000AA
:103D7C000000AD0BF0B5406801F01F04057B87B067
:103D8C0044EA45140569002D62D0B2F5001F00F11C
:103D9C00100506D12146284606F07DF8002007B014
:103DAC00F0BD002701AEB2F5800F019777603AD1D4
:103DBC00B3F1007F0CBF042305238DF804300023DE
:103DCC00CDE904630393836823FA01F111F0010137
:103DDC001BD1B2F1A07F18D1620904F01F03022A93
:103DEC0003F120033AD81F4951F8222052F823300E
:103DFC00DB070AD40DF1030632462146284601F0B2
:103E0C004FFE194B984219D0029603AA2146284618
:103E1C0001F09AFC154B98421DD1012221462846EF
:103E2C0001F0C2FEBAE7B3F1C06F05D0B3F1007F69
:103E3C000CBF02230123C0E70323BEE7314628460B
:103E4C0001F0A8FE094B9842DED06FF00B00A6E7FC
:103E5C006FF08500A3E76FF01500A0E751F8233051
:103E6C00FFDE00BF5CB200000400AD0B0000AD0B28
:103E7C00B0B500AF224C204606F0A5F8034678BB3F
:103E8C0021686C4688B06A461E48C2E905014FF4A9
:103E9C00007191831C4942F8101F4FF4E2511B48EA
:103EAC00FEF7B8FA6FF01205A5462846BD46B0BD20
:103EBC0023686C468AB06A461549C2E9051301238A
:103ECC00C2E907354FF400739384124B42F8103F4C
:103EDC0000234FF431510D48FEF79CFAA546E4E758
:103EEC002269A1681368204623F0020313600B6853
:103EFC00002201219847051EDADB0025D5E700BF1B
:103F0C0028A5000067BF000003000001C0B000003E
:103F1C007EBF00000500000102780B69012A0AD05F
:103F2C001AB1022A09D0064A00E0064A1A6203F1C5
:103F3C00100002F0BDBF044AF8E7044AF6E700BFE0
:103F4C000100AD0B0000AD0B0100AE0B0200AE0B7F
:103F5C002DE9F04F89B002AFC7E9023243688046C1
:103F6C00D3F828A09B8B0C46D0F810903B614FF0F7
:103F7C00FF324FF0FF33484602F0CEFF09F1100339
:103F8C007B61002600230022786902F0C5FF3346CE
:103F9C00FA68964201D3002359E0207A020700F117
:103FAC009480FA6801369642D4F800E00AD285076C
:103FBC0008D4227D80EA020505F0010502F0040216
:103FCC002A4321D0002B4CD10EF06042B2F1005F9D
:103FDC0049D10025D4F800B0A388BA68217A4046AC
:103FEC0000925A4600F0C8F8031E30DB43F6095223
:103FFC000023786902F090FF002848D0404600F07A
:10400C006FF86FF0040322E001256268396903EB55
:10401C00020C8C4529D96C468CB0D8F8000002A94A
:10402C002B4DCA61C1E905533B690A46C1E9083009
:10403C0040F203530B85274B42F8103F00234FF4FB
:10404C0051512548FEF7E6F96FF01B03A5467B613D
:10405C00484602F02DFF7B691C371846BD46BDE86B
:10406C00F08F0025D1E71D46CFE7C10706D40AEB38
:10407C00030071467B60FCF7FBF97B6862681344B4
:10408C009BB26DB9002BA4D01D46D346A5E7D9F839
:10409C002030124A9342B4D1237ADB0702D4002396
:1040AC000C3475E7D345FAD1A34607E0AD1AADB28F
:1040BC000AEB0501DBF80C00FCF7DAF9ABF10C0BA1
:1040CC00DBF810209542F1D2E9E76FF08503BEE7EB
:1040DC00C5BF000006000001D8B000000000AD0B09
:1040EC0073B544680DF107012368D3F80056D3F873
:1040FC00046604F054FD9DF8073013B9204602F015
:10410C0055F93146284602F033FB9DF80710054659
:10411C0029B9606A04F07BFF204602F037F9044BA2
:10412C009D4214BF6FF00F00002002B070BD00BFA5
:10413C000000AD0B08B5436811F001000AD1C1F3C2
:10414C004201012909D002290DD0094A012109484F
:10415C0004F06CFC6FF0150004E04FF0CC721B689F
:10416C00C3F8242508BD1B684FF0C862F8E700BFF0
:10417C00D3C00000D8B00000F0B50E461C46174660
:10418C0089B04568122200210DF10E0003F0AEFE3D
:10419C0006F001038DF80C30BDF8383004948DF81E
:1041AC000D30AB8D0697A3420AD210480093104AEB
:1041BC002346012104F04DFC6FF01B0009B0F0BD4B
:1041CC0016F0020F0CBF2022002203A9284602F091
:1041DC000DF9084B984207D00B3398420CBF6FF087
:1041EC000F006FF00400E9E70020E7E7D8B000000B
:1041FC00E5C000000000AD0BB0B50546446800AF4B
:10420C00236A98470121606A04F001FF2B46A269DA
:10421C0004F10801204602F083F8104B984217D0A5
:10422C006C4688B02B686A460D49C2E905134FF4F9
:10423C00007393830B4B42F8103F0B4800234FF451
:10424C00E251FEF7E7F86FF00400A546BD46B0BD9D
:10425C000649284604F0B8FCF8E700BF0000AD0B97
:10426C00B3C0000003000001D8B00000399000007A
:10427C0010B483689C6934B1054BA446134010BC40
:10428C0002F0B07260476FF0570010BC704700BF6F
:10429C00400000062DE9F04150F8184C86B06368D8
:1042AC002269DB68D2E8AF2F012A38D01838C01A3F
:1042BC001C4E03115E430C23616873438A68CD68FE
:1042CC00D718054405A9D05897F8048004F0DDFEF2
:1042DC0000281CD10123059A03FA08F3134214BFDA
:1042EC000120002095F91030834218D028743A89A7
:1042FC004FF0FF364FF0FF370121031CCDE9026769
:10430C00009118BF01232046FFF70EFA07E0E9DA07
:10431C00054A009033460121044804F09AFB06B08C
:10432C00BDE8F081CDCCCCCC2CC10000C8B00000D5
:10433C002DE9F04F89B04FF00008466802AFF568E0
:10434C00F8601835BD607368434516DC347D002C6D
:10435C0035D047F6122440F2E730002135684FF48F
:10436C007A720023E4FB0501FCF7F8F802460B46D1
:10437C00B86802F081FF002421E00C2303FB08F94C
:10438C00B36803EB090453F8090005F01CFE03465F
:10439C00D0B922686C4688B0116802AA3D48C2E9BF
:1043AC0005014FF4007191833B4942F8101F4FF403
:1043BC00E2513A48FEF72EF8A5466FF0120420465B
:1043CC001C37BD46BDE8F08F20464FF4803104F019
:1043DC0046FE044638B14346314A009001212F482D
:1043EC0004F037FBEBE7FB68284645F8183C3169CD
:1043FC0005F0A6FE337D002B48D14FF0010AD6F80C
:10440C0008B0A5F114010BEB09031A797B60254B5D
:10441C000AFA02F245E904325BF809008268D469B1
:10442C006CB15246A047041E7B680BDA1E4A012170
:10443C001A4804F0FBFA1D4A00944346CEE76FF08D
:10444C005704F3E707F114015BF809001C797B6052
:10445C0004F01BFE7B6838B97A690AFA04FA1AEA86
:10446C00020F14BF0120002005F8080C5BF80900AE
:10447C0019794FF0E862FFF7FBFE041E06DA0C4ACE
:10448C0023460121054804F0DAFAD4E708F10108C3
:10449C00503558E748C1000003000001C8B00000C7
:1044AC0058C10000AF90000078C1000094C100001A
:1044BC009BC100002DE9F04F85B04568026939B108
:1044CC0001293AD06FF08504204605B0BDE8F08F85
:1044DC000123D2E8EF0FC2E8E43F002CF9D10E46DD
:1044EC004FF00C086B68B34201DC0024ECE708FBCE
:1044FC0006F3AA68297DD71871B9D05839794FF4C9
:10450C000012FFF7B5FE041E06DA2E4A23460121DF
:10451C002D4804F094FAD7E7697D61B9384604F068
:10452C009EFD044638B1294A0094334601212648A1
:10453C0004F08FFAC8E70136D4E70026EB68029343
:10454C00D2E8EF3FC2E8E16F0029F9D140F2E73839
:10455C004FF000096B689E42C7DA0C2303FB06FA86
:10456C00AA68697D02EB0A0749B94FF480313846D5
:10457C00039204F074FD039A04460028D3D1297DDC
:10458C00B1B147F61221C246CB4628684FF47A7275
:10459C00E1FB00AB002350465946FBF7DFFF0B460F
:1045AC000299024601F1180002F066FE0136D1E7CD
:1045BC0052F80A0039794FF0E862FFF759FE041EF1
:1045CC00F4DAA2E79BC10000C8B0000058C100009B
:1045DC0030B483689C6984B1130207D50123056943
:1045EC008B402D682B4218BF82F0C062054BA4464D
:1045FC0030BC134002F0B07260476FF0570030BC13
:10460C00704700BF400000062DE9F04F0025012740
:10461C0050F8103C89B05C680DEB07020095ADF8C2
:10462C000450A388064620680592052206920722AC
:10463C00CDF808D003978DF810508DF81C2002226D
:10464C0002A904F048FDA8420DDA304602F0A2FDA2
:10465C00226912F0986F03D0A068217BFFF7B8FF96
:10466C0009B0BDE8F08FB946DFF88C8098F80030BF
:10467C0008AA134413F81F2C98F801301A4227D1BA
:10468C000135152D08F10208F0D1052306228DF80D
:10469C0000302068A38803920222CDF808D08DF850
:1046AC001020012202A904F016FD0028CDDBA06821
:1046BC00257B0769836802A95B6898470028C4D1E9
:1046CC003B68029A5A400123AB401A42C0D0BCE767
:1046DC0031690029D4D056F810BC0F6809FA05FAD4
:1046EC008A681AEA020202D04B6858469847002F93
:1046FC00C6D039463F68F3E7D0C10000F8B545682D
:10470C0007460669286805F05EFC10B96FF01200C8
:10471C00F8BD37607C6894F82030002B7AD194F87F
:10472C002230002BE36914BF00220222D80701D4E7
:10473C0042F00102C121204604F0DCFC0028E7DB3A
:10474C00E369D90600F18C8013F0200F14BF02220C
:10475C00012294F8213033B13F339B0003F00C035A
:10476C001A4342F01002C221204604F0C3FC002878
:10477C00CEDBA8680028CBD07C68A369217D13F020
:10478C00010FA1F17D010CBF02220122C9B220460A
:10479C0004F0B0FC0028BBDB217D022281F08001FB
:1047AC00204604F0A7FC0028B2DBA86805F00BFC3F
:1047BC000028ABD0B5F80EC0A868297B4CF4803229
:1047CC000123076903FA01F43B681CF0010F14BFC5
:1047DC002343A343D0F808E03B60DEF80030984751
:1047EC00002895DB01222B7B204802FA03F3C6E953
:1047FC000203A868311D8368DB699BB398470028C6
:10480C0086DB1B4B73612A69A868297BBDE8F840DD
:10481C00FFF7DEBE0422DB21204604F06BFC0028EF
:10482C00FFF676AF0122DC21204604F063FC002861
:10483C00FFF66EAF94F82030022B7FF470AF00229D
:10484C00D221204604F056FC0028FFF661AF01226D
:10485C00D321204604F04EFC0028BFF660AF57E78A
:10486C00002276E76FF0570052E700BF2B91000053
:10487C0015460000036803F01F025B09022B02605F
:10488C009ABF024A52F8230000207047D4B30000AC
:10489C002DE9F04F9246074640F2FF18DFF85C9185
:1048AC0085B000EB81018F4201D100201AE03B68FA
:1048BC00C3F3C322082AC3F3080400F29A804E48BB
:1048CC001B0E444508BF4FF0FF34052B865C71D09E
:1048DC0040D8022B6BD008D8002B54D0012B62D0BF
:1048EC006FF0850005B0BDE8F08F032B67D0042B6B
:1048FC00F6D14FF0000BCAF80046621C28D003A872
:10490C0001250394FFF7B6FF039B05FA03F38360BD
:10491C003A6803A802F40043002B01921CBF4FF02D
:10492C00010B00250394FFF7A5FF039B019A00EBF5
:10493C008300D0F88030C2F34122360246EA82026C
:10494C00154303EA09031D4345EA4B05C0F88050A3
:10495C000437A8E70C2B35D00CD8062B2FD00B2BFB
:10496C00BED1CAF8004606BB00250826601CEFD055
:10497C00AB46CDE7152B28D0382B29D0142BAFD133
:10498C00CAF8404518E0CAF80446631CE0D04FF062
:10499C00010B03A80394FFF76DFF039B5D460BFA15
:1049AC0003F34360B4E7CAF80C460025DEE7CAF807
:1049BC001046EAE7CAF804464FF0010B9DE7CAF827
:1049CC000846F2E7CAF80446CDE7CAF84445ECE7D6
:1049DC0003A80394FFF74EFF039B012500EB830014
:1049EC00D0F8802022F0E04242F08042C0F88020D3
:1049FC00BCE76FF0150075E702C20000F0F0FCFF99
:104A0C00F8B5446800AF054604F0BEFBA06A28B9AF
:104A1C000021284604F031FCBD46F8BD05F0D3FA60
:104A2C000346B0B9A26A6C4688B011686A4616484B
:104A3C00C2E905014FF400719183144942F8101F2B
:104A4C0013484FF4E251FDF7E5FC6FF01200A54658
:104A5C00E2E7B4F82EC0A06A94F82C104CF40032A3
:104A6C000123066903FA01F433681CF0010F14BF2B
:104A7C002343A343D0F808E03360DEF800309847B6
:104A8C000028C5DAC8E700BF0BC200000300000114
:104A9C0018B10000436893F8303023B1012B06D0D5
:104AAC006FF015007047034889B204F0D0BC89B28E
:104ABC000148FAE7ACB4000074B50000436893F801
:104ACC00303023B1012B06D06FF01500704789B23E
:104ADC00054804F0BCBC036989B21B7E13B10348C2
:104AEC0004F025BD0248FBE7A0B4000080B500002F
:104AFC0050B5000013B5446894F830302BB1012B3D
:104B0C001CD06FF0120002B010BD0DF1060312485C
:104B1C0004F0AFFC163002D16FF01500F3E7283427
:104B2C009DF806202221204604F06BFD0028EADBCC
:104B3C0001222321204604F064FDE4E70DF1060375
:104B4C00064804F096FC1630E6D09DF80620682145
:104B5C0004F12800EFE700BFACB4000074B500000E
:104B6C0037B540680D4690F830302BB1012B44D04E
:104B7C006FF0120003B030BD00F128040DF10702F4
:104B8C002321204604F00BFE0028F3DB9DF80730B0
:104B9C000DF10702012B0CD12221204604F0FFFD60
:104BAC000028E7DB2A469DF807101A4804F04FFC52
:104BBC00E0E73521204604F0F2FD0028DADB9DF811
:104BCC0007300DF107025B060AD43621204604F0AB
:104BDC00E6FD0028CEDB2A469DF807100E48E5E7D7
:104BEC003721204604F0DBFD0028C3DB2A469DF864
:104BFC0007100A4804F09BFCBCE70DF10702682182
:104C0C00283004F0CCFD0028B4DB2A469DF80710B0
:104C1C000348CBE7ACB40000A4B50000B0B500006D
:104C2C0074B50000002330B5446885B0ADF80E3083
:104C3C0094F8303000692BB1012B1AD06FF01200B0
:104C4C0005B030BD0DF10E031F4804F012FC1630F8
:104C5C0002D16FF01500F3E7BDF80E3004F1280017
:104C6C00012B4FF008020CBF2A212B2104F0C9FCA8
:104C7C00E6E7057E0DF10E03DDB1144804F0A0FC4F
:104C8C00BDF80E30124AD35C0422ADF80E3016304B
:104C9C00DFD00723BDF80E00934000FA02F2D2B227
:104CAC0094F82C100092DBB26F22A06A04F04FFC37
:104CBC00C6E7084804F084FCBDF80E30064AD35C05
:104CCC002A46ADF80E30E2E7A0B4000080B5000033
:104CDC005FC2000050B500005AC2000030B44268F8
:104CEC0053691468C4F82435D18B938B957E0B4390
:104CFC00517E127E29430B431343C4F86C35416833
:104D0C000B68D3F8002242F48022C3F80022082258
:104D1C00C3F800250A6A0121C3F83C270022C3F816
:104D2C0040271965D3F830110029FBD0C3F80025B2
:104D3C00014930BC03F048BF679B00002DE9F041EE
:104D4C0004460F46466805F006FAA0B9224B1B78BC
:104D5C008BB14FF02008642563681B68D3F83031A1
:104D6C0003BB012004F0CFFF013DF5D10021202031
:104D7C0005F090FAEFE72022EFF311831D4682F342
:104D8C001288BFF36F8F61680968D1F83011B1B91F
:104D9C0083F31188BFF36F8FEEE783F31188BFF3B2
:104DAC006F8FE3E7EFF311831D4688F31288BFF38F
:104DBC006F8F62681268D2F83021002AEDD0336A06
:104DCC0001221F70316A204604F085FE85F311889C
:104DDC00BFF36F8FBDE8F081C10D002010B500222C
:104DEC000121E420FEF764F9002000F0D1FF114B03
:104DFC000446984208D11049012001F061F8A04204
:104E0C0005D00E4B984211D04FF0FF3010BD6722E9
:104E1C000B4B02201A60FEF7F1FD0A4A0020D2F873
:104E2C00183723F44033C2F81837EFE76FF00B0054
:104E3C00ECE700BF0000AD0BC40000200200AD0B7E
:104E4C00BC0C002000200E50F7B51F4616466846D5
:104E5C0000F06CFFDDE90023BB4208BFB24211D366
:104E6C00094CD4E9005C711B21F01F0367EB0C00AB
:104E7C0049095B1940EB0C0241EAC060C4E90032FD
:104E8C0002F0E2FE03B0F0BD8008002007B56846D2
:104E9C0000F04CFF009B06490198D1E900219B1AB8
:104EAC0060EB01005B0943EAC06003B05DF804FBF2
:104EBC0080080020F0B5431C85B018BF20EAE076CE
:104ECC0002A808BF6FF0004600F030FF029B1049AB
:104EDC00D1E900279C1A039B204663EB0705294662
:104EEC002023C3FB0601002908BF402836BF20241D
:104EFC000B4600234FF0010128BF20F01F041219AC
:104F0C00009147EB0303034801F03EF805B0F0BDF8
:104F1C0080080020BC00002003689A070CD50368A9
:104F2C00DB070DD50922074BC3F80C250F22C3F85C
:104F3C00042501221A60FEE7034B0360EF3B03607C
:104F4C00704700BF00801050F000FA5003689A07B9
:104F5C000CD50368DB070DD50922074BC3F80C25CC
:104F6C000F22C3F8042501221A60FEE7034B0360ED
:104F7C00EF3B0360704700BF00801050F000FA5008
:104F8C00012208B52B4B2C48C3F80028FFF7C4FFAF
:104F9C002A48FFF7C1FF2A48FFF7D8FF2948FFF737
:104FAC00D5FF2948FFF7B8FF284AD2F88C3043F4D4
:104FBC004063C2F88C300022D30003F57F0303F565
:104FCC004043D3F8001401310AD0D3F8001439B19E
:104FDC00D3F800140132D3F80434402A0B60EBD11F
:104FEC001B4B1A68FAB11B4B1B681C2B0CD11A4BB0
:104FFC001A681A4B9A4219D93422194B1A60194A59
:10500C00136823F4002313600323174A0F49C2F8D3
:10501C001835D1F88C3043F44063C1F88C30002340
:10502C00C2F8A03508BDC8221A60DCE70F4B104A45
:10503C001A60E1E70000125000C50D5008C50D5074
:10504C0010C50D5018C50D5000C70D5000ED00E0F7
:10505C004004125040C3FF0034C3FF00001D0A1867
:10506C00240612503C06125000B004504006125058
:10507C0040E0A91E70B501250268AAB1B2FA82F30C
:10508C00C3F11F03DBB205FA03F422EA0404D0E8EF
:10509C00EF6F964204D1C0E8EC4FBCF1000FF6D193
:1050AC00EAD102480B7070BD0148FCE70000AD0B63
:1050BC000200AD0B10B50268CA40D30710D401230F
:1050CC008B40026843EA0201D0E8EF4F944204D1CE
:1050DC00C0E8EC1FBCF1000FF6D1F2D1014810BDB5
:1050EC000148FCE70000AD0B0400AD0BF7B505461D
:1050FC0018B301281FD104224FF480737121234867
:10510C000024C0F80813012142F2107602F1A042EB
:10511C0003F1A04303F5871302F5871211601C609D
:10512C008D421B68194F8DF8074008BF0DF107041D
:10513C0045B1012D1CD003B0F0BD14224FF4847383
:10514C000421DCE7D7F84C34C3F30043DCB1D7F8C7
:10515C004C2402F003022270002BECD09DF8073097
:10516C00002BE8D1012004F0CEFD013EE0D1E2E7B6
:10517C00D7F80C3403F48032C3F300431CB1B2FAF9
:10518C0082F25209E7E7002BECD1D4E700E0105093
:10519C00044B1A7922B9012218601A71024870471F
:1051AC0002487047C00C00200000AD0B0C00AD0B8A
:1051BC0008B50A4B1B6843B140F20510FDF76AFFB6
:1051CC0018B940F20510FDF755FF0022044BC3F847
:1051DC0040240122034B1A7008BD00BFC00C0020F4
:1051EC0000E01050C00D002010B510B1012843D0C4
:1051FC0010BD264AD2F84C14D2F84C34C90323D52E
:10520C0003F00303012B04D01BB10020FFF76EFF4A
:10521C0000231E4A0420C2F8403410224FF4847339
:10522C00002103F1A04303F5871319601C680124C6
:10523C0002F1A04202F587121460154A126802B3FB
:10524C00124BC3F80403D3E7D2F8483413F001032C
:10525C00DFD0D2F850349B07D7D40D4B1B683BB929
:10526C000C4B1A68002AFCD000221A601B68BFE79E
:10527C000423C2F80433BBE700224FF4807371207F
:10528C00CEE71A68002AFCD01960EFE700E0105056
:10529C00C00C002008E1105010B5364B1A684AB10A
:1052AC000020012218601B68334BC3F80823334BD2
:1052BC001B689847324B1A686AB100221A601B6847
:1052CC002D4BD3F84C24D3F84C24910749D101220F
:1052DC00C3F840241A612B4B1A684AB100220220F1
:1052EC001A601B68244BC3F80803244B1B689847AF
:1052FC00254A264C13688BB100234FF488701F4944
:10530C004B71136012681C4AC2F8080323602368AF
:10531C002023C2F804330B6807209847236873B125
:10532C00154BD3F80423920609D50022226022687B
:10533C002022C3F80823114B08201B689847144BF4
:10534C001A68B2B100210D4A0920517119604FF44D
:10535C008C711B68084BC3F808131368BDE8104028
:10536C0018470422C3F80823044B01201B689847F4
:10537C00B1E710BD00E1105000E01050C00C00204F
:10538C0008E1105004E1105010E1105014E11050DD
:10539C0018E11050036803F01F025B09022B026036
:1053AC009ABF024A52F82300002070477CB60000D6
:1053BC00034A4309D35C00F01F001844C0B2704785
:1053CC00A1C2000010B504460846FFF7F1FF3623D2
:1053DC0003FB0400034B083033F81000C0F34010FB
:1053EC0010BD00BFCC00002010B504460846FFF7E6
:1053FC00DFFF362303FB0400024B083033F81000A8
:10540C00400B10BDCC00002070B504460846FFF7D9
:10541C00CFFF36222379184902FB0303083331F8F6
:10542C001320084612F4807F25D0C2F3432122F4C6
:10543C00F85220F813206C220026237902FB030279
:10544C00103232F8025B15F4807F03D0C5F343258C
:10545C00A94210D00136232EF3D16C2200255343E0
:10546C0003EBC103C5502379BDE8704002FB030078
:10547C006030FFF71FBE70BDCC000020F0B50023DC
:10548C00074687B0124E134D019103AC16F8012B51
:10549C0006A901EBD20111F8141C02F0070221FA43
:1054AC0002F2D20705D40133032BEFD1002007B051
:1054BC00F0BD95E8070084E8070054F823100A6A49
:1054CC0047F823200A62002AEDD00120EFE700BF45
:1054DC00B1C2000040B1000010B504460846FFF709
:1054EC0067FF3622237902FB0300044B083033F8A4
:1054FC00100080F00200C0F3400010BDCC00002072
:10550C002DE9F341054608460C46FFF751FF3622BC
:10551C002B79204E02FB0303083336F81330074671
:10552C00DB0734D5284604F08FFC95F8048021461F
:10553C004046FFF747FF58B14046FFF755FF2B6831
:10554C0000B203EB80000023C0F81035C0F8103512
:10555C0021462846FFF758FF36232879019403FB90
:10556C0000700023083026F8103001A8FFF712FF56
:10557C00019B00EB8300D0F88020074B134043F0D5
:10558C000203C0F88030054802B0BDE8F081044841
:10559C00FAE700BFCC000020F0F0FCFF0000AD0BE0
:1055AC000400AD0B2DE9F04F0D46D0F81413AA6D85
:1055BC00C9B287B041F40031824604F01EFC82036C
:1055CC0007462ED50023696E03A8CDE90333059356
:1055DC00FFF754FFDFF86891DFF868B10DF10C08A4
:1055EC0019F8013B05EBD30292F8642003F0070392
:1055FC0022FA03F3DB076CD4504B08F104084B453B
:10560C000BF1010BECD14FF40031AA6D504604F0B4
:10561C00F4FB696E03A8FFF731FF0028DAD127F4F9
:10562C0000370124002F73D107B0BDE8F08F93FA37
:10563C00A3F3B3FA83F39BF80040019343EA4414B9
:10564C002046FFF7B5FE083035F81010019B89088D
:10565C0001F00706F2B200920122D80818F800C037
:10566C0003F0070302FA03F32CEA030308F80030F3
:10567C0002A80294FFF78EFE029B11F0040F03F1B7
:10568C00200350F82330009AC3F3014326D021465F
:10569C002846DEB204F092FB02A80294FFF77AFED1
:1056AC00029B203350F82330C3F301439E4207D1B1
:1056BC000021204604F073FB3146204604F06FFBBA
:1056CC0002A80294FFF766FE0122029B02FA03F382
:1056DC000362D8F80030002BA9D18DE7022B0CBF48
:1056EC000321022120460192009304F058FB032E63
:1056FC00019A04D0009B022B06D1012AE0D121464D
:10570C00284604F05BFBDBE7032BD9D1022AF5E733
:10571C0097FAA7F3B3FA83F304FA03F20AEB8303C1
:10572C00D3F8101527EA0207D3F81025C1F3081196
:10573C00C2F30142284604F041FB73E7B4C20000F7
:10574C00B1C20000B1C200002DE9F043174685B08C
:10575C00044608460D46FFF72BFED7F80090064688
:10576C00B9F1000F36D036222079744B02FB00625F
:10577C00083233F81220984612F0020F06D0FFF7C9
:10578C0021FE18B16E4805B0BDE8F08300224B46EF
:10579C008DF80E208DF80F20CDE900220DF10E01B1
:1057AC000DF10F02284604F0B2FA3620227900FBE4
:1057BC000262083238F8121021F0020128F8121097
:1057CC00237900FB0363083338F8132042F00102FD
:1057DC0028F813207B683BB34FF0360E21791878EC
:1057EC000EFB0161D3F804C0544B083133F811207F
:1057FC0012F0020F1DD0BCF1000FC3D14FF0360ECA
:10580C0021790EFB0161083133F811C02CF01C0C0E
:10581C0023F811C022790EFB0262083233F8121001
:10582C0041EA800023F81200BB68002B46D14548A2
:10583C00A9E722F4604222F0200223F81120BCF1E7
:10584C00000FDBD003289DD87A682168526892F843
:10585C0000C00FFA8CF230B901EB8201C1F81005CF
:10586C00C1F81005CAE792001144D1F8108528F050
:10587C000308C1F8108521680A44D2F8101521F4E8
:10588C00473121F47C71C2F8101541F6F071D2F851
:10589C00108501EA051148EA004841EA0801C2F8FE
:1058AC00101522790EFB0262083233F8121041EA0D
:1058BC004C3C4CF0200C23F812C09FE72946D3E94E
:1058CC0000872046FFF7A0FDB8F1000FAFD06C2386
:1058DC0020791A4D4343EA18EB58984504D1536884
:1058EC009F4201D100210DE06C2303FB00500DF110
:1058FC000F016030FFF7BEFB124B98427FF443AFB1
:10590C009DF80F104FF06C0C2379C8000CFB0303AF
:10591C0045F8038022790CFB02022A445760362298
:10592C00237902FB0366083635F8163043EA412327
:10593C0043F4807325F8163079E700BFCC000020C3
:10594C000400AD0B0000AD0B2DE9F043044685B00F
:10595C0008460E4691461F46FFF72AFD0546B9F14B
:10596C00000F34D02046FFF7B7FD94F8048020B127
:10597C004046FFF727FD002879D1362202FB085854
:10598C003C4B08F1080833F81820984612F01C0F0D
:10599C0003D099F80130012B69D001238DF80F3019
:1059AC00002309F10102CDE900930DF10F0109F17A
:1059BC000203304604F0ABF93622237902FB035381
:1059CC00083338F8132042F0030228F813201FB9CB
:1059DC00294805B0BDE8F08331462046FFF77CFD31
:1059EC00002844D14FF0360C397823684FEA810EE9
:1059FC007344C3F81005C3F8100523791D4A0CFB3A
:105A0C000353083332F8130020F4604020F02000D8
:105A1C0022F813007B78002BDAD0B87827681B04A7
:105A2C007744D7F81085DFF858E003F4403308EAE0
:105A3C000E0EC7F810E5D7F810E5000543EA0E0383
:105A4C0041F6F07E0EEA061600F480103343034351
:105A5C00C7F8103520790CFB0050083032F81030A4
:105A6C0043EA413141F0200122F81010B0E703481D
:105A7C00AFE700BFCC0000200000AD0B0400AD0B65
:105A8C000FE0ECFF70B56C260479044D06FB045452
:105A9C00A160037906FB0353DA6070BDCC000020D3
:105AAC0070B5047915462046FFF78CFC68B10846A2
:105ABC00FFF77EFC362303FB0400054B083033F85C
:105ACC00103004485B0B2B7070BD0348FCE700BF23
:105ADC00CC0000200000AD0B0400AD0B2DE9F04113
:105AEC00804606796C201C4D00FB065797F86840E1
:105AFC007CBB384621464622103002F0F7F921468D
:105B0C0001248C46D8F80000BF6D8F4213D10023BE
:105B1C00C0F84431D0F84431C0F308300130FDF7FF
:105B2C00A9FA6C2303FB065501230C4885F8683051
:105B3C002B66BDE8F081CBB29B0003F580729B080D
:105B4C0004FA03F39B0344BF40F802C083580131AD
:105B5C00DBE70348EDE700BFCC0000200000AD0BF5
:105B6C000C00AD0B6C210379044A01FB032393F861
:105B7C006800003018BF0120704700BFCC00002027
:105B8C006C220079024B02FB00305C30FFF792BABA
:105B9C00CC0000206C220079024B02FB00305C3000
:105BAC00FFF768BACC000020F7B503681746D3F8A6
:105BBC001423064692035CBF4FF40032C3F814233F
:105BCC0004790D462046FFF7FDFBF0B13046FFF798
:105BDC0083FCD0B12046FFF707FC002403B29A00E7
:105BEC00316802F58073CC50CB5833681344D3F82A
:105BFC00102542F00102C3F8102527B101233268A9
:105C0C008340C2F8143303B0F0BD2846FFF7D0FB35
:105C1C00362303FB04000D4B083033F81030C3F36C
:105C2C008203042B0FD0052B04D10221284604F04B
:105C3C00B6F8E8E701A80195FFF7ACFB019AC36839
:105C4C00D340DB07F1D50321F0E700BFCC000020E7
:105C5C0001490248FFF7A6BCCC00002000A00D5063
:105C6C0001490248FFF79EBC3801002000C01050CB
:105C7C00074B027AD3F8101521F001010A43C3F83F
:105C8C0010250268C3F8A4264268C3F8AC267047F6
:105C9C0000200E50012303FA00F010F0670F0AD019
:105CAC00064B5B6820EA0300054B10F0670F0548B4
:105CBC0008BF184670470448704700BFA401002075
:105CCC000400AD0B0000AD0B0800AD0B70B500234C
:105CDC0067240126027A94FAA4F1B1FA81F1914277
:105CEC0003F1010519D100210C24120102F1A0428B
:105CFC0002F56222C2F82C150B4ADBB204FB03231B
:105D0C000168D96041681961017A1975012303FA98
:105D1C0001F193680B43936070BD06FA01F124EA1C
:105D2C0001042B46D7E700BFA4010020002300226A
:105D3C002DE9F048C0E90023114BD3F810359B072F
:105D4C001BD5EFF31181202383F31288BFF36F8FE0
:105D5C0000260C4F3446D7E900BC0CF0404554EA01
:105D6C000503F7D1CCF31303C0E900B381F3118819
:105D7C00BFF36F8F0448BDE8F0880448FBE700BF11
:105D8C0000200E5040270E500000AD0B0100AD0B53
:105D9C00F0B5404D85B02C78002C76D13E4A01AB45
:105DAC0007CA83E807003D491846D1F8102522F0B0
:105DBC000202C1F81025FFF75BFF0723224667217B
:105DCC0001F001000244013BD2B24FEA5101F7D17C
:105DDC00052A5CD11A4601272E48002467265FFA53
:105DEC0082FC96FAA6F15FFA84FEE645B1FA81F1DF
:105DFC0045D30132052A017500F10C00EDD10120CB
:105E0C00002427499A0800FA02F212F0670F1CBF0F
:105E1C005C505A580433302BF4D1E420FDF72AF9A6
:105E2C001E4B2049D3F8182703F5C07322F44032D7
:105E3C0042F48032C3F89825D3F8902322F0020262
:105E4C00C3F8902340F6FF72C3F8A82100221A6011
:105E5C00A3F5807004338B420260F8D101240F4B00
:105E6C0011481C66114B1A68114BB2FBF0F25D2005
:105E7C002343504398470F482C7005B0F0BD07FAE8
:105E8C0001F126EA01060134ABE70B48F5E70B48B4
:105E9C00F3E700BFA40100204CB1000000200E501D
:105EAC0000210E50B0210E5040420F00C8000020BF
:105EBC0070B100000000AD0B0C00AD0B0100AD0B80
:105ECC0073B52A4C054663680E4603F0010304F1D2
